{
  "transactions": [
    {
      "hash": "0x103414351382167b60d1c0d62c4cfbae4b86b0118700afc649b518c128b4f0ea",
      "transactionType": "CREATE",
      "contractName": "PointsManager",
      "contractAddress": "0x1f22f32dbdb96ce83b94ef68c7de114b4966fad1",
      "function": null,
      "arguments": null,
      "transaction": {
        "from": "0xad9fdad276ab1a430fd03177a07350cd7c61e897",
        "gas": "0x63da1",
        "value": "0x0",
        "input": "0x608080604052346071573315605e575f8054336001600160a01b0319821681178355916001600160a01b03909116907f8be0079c531659141344cd1fd0a4f28419497f9722a3daafe3b4186f6b6457e09080a361044590816100768239f35b631e4fbdf760e01b5f525f60045260245ffd5b5f80fdfe6080806040526004361015610012575f80fd5b5f3560e01c908163245a7bfc146103a657508063715018a61461036257806382411358146101ea5780638da5cb5b1461033b5780639799b4e7146103115780639af379a0146101ef578063a967eee4146101ea578063b176aa4514610148578063f2fde38b146100d25763f9120af61461008a575f80fd5b346100ce5760203660031901126100ce576004356001600160a01b038116908190036100ce576100b86103c9565b600280546001600160a01b031916919091179055005b5f80fd5b346100ce5760203660031901126100ce576004356001600160a01b038116908190036100ce576101006103c9565b8015610135575f80546001600160a01b03198116831782556001600160a01b0316905f5160206103f05f395f51905f529080a3005b631e4fbdf760e01b5f525f60045260245ffd5b346100ce5760203660031901126100ce57600435805f52600160205260405f2054905f915f5b612710811061018257602084604051908152f35b805f5260016020528160405f20541180156101cb575b6101a5575b60010161016e565b925f1981146101b7576001019261019d565b634e487b7160e01b5f52601160045260245ffd5b50805f5260016020528160405f20541480156101985750828110610198565b610311565b346100ce5760603660031901126100ce576004356024356044356001600160401b0381116100ce57366023820112156100ce576004810135916001600160401b0383116100ce5736602484840101116100ce576002546001600160a01b031633036102da57835f52600160205260405f20908154938185018095116101b7577f93ed1bb877baa71c9aef86a79dac9360569bb566644be81c1bb4b1d617ad654a9460809355855f52600160205280602460405f205495604051968795865260208601526060604086015282606086015201848401375f828201840152601f01601f19168101030190a2005b60405162461bcd60e51b815260206004820152600f60248201526e27b7363c9030b3b3b932b3b0ba37b960891b6044820152606490fd5b346100ce5760203660031901126100ce576004355f526001602052602060405f2054604051908152f35b346100ce575f3660031901126100ce575f546040516001600160a01b039091168152602090f35b346100ce575f3660031901126100ce5761037a6103c9565b5f80546001600160a01b0319811682556001600160a01b03165f5160206103f05f395f51905f528280a3005b346100ce575f3660031901126100ce576002546001600160a01b03168152602090f35b5f546001600160a01b031633036103dc57565b63118cdaa760e01b5f523360045260245ffdfe8be0079c531659141344cd1fd0a4f28419497f9722a3daafe3b4186f6b6457e0a2646970667358221220d1e465b541fbe443a8076905518273c23aa8e53540eeee8f9efa7986e12df35264736f6c634300081e0033",
        "nonce": "0x23b",
        "chainId": "0xaa36a7"
      },
      "additionalContracts": [],
      "isFixedGasLimit": false
    },
    {
      "hash": "0xec36d7ba5a19aabd37bd267b6a49891bdc908fb3015acc11d3e151fdfe82ce08",
      "transactionType": "CREATE",
      "contractName": "PointsAggregator",
      "contractAddress": "0x2a0449d5bc53107a781cd9d22791230899072e58",
      "function": null,
      "arguments": [
        "0x1F22f32DbDb96ce83B94Ef68c7de114B4966Fad1"
      ],
      "transaction": {
        "from": "0xad9fdad276ab1a430fd03177a07350cd7c61e897",
        "gas": "0xbb1c7",
        "value": "0x0",
        "input": "0x60803460cd57601f6109b038819003918201601f19168301916001600160401b0383118484101760d15780849260209460405283398101031260cd57516001600160a01b0381169081900360cd57331560ba575f8054336001600160a01b0319821681178355604051939290916001600160a01b0316907f8be0079c531659141344cd1fd0a4f28419497f9722a3daafe3b4186f6b6457e09080a3600180546001600160a01b0319169190911790556108ca90816100e68239f35b631e4fbdf760e01b5f525f60045260245ffd5b5f80fd5b634e487b7160e01b5f52604160045260245ffdfe6080806040526004361015610012575f80fd5b5f3560e01c9081630e69718b14610404575080632be1f6a1146103dc5780635fe12de0146102ef57806363117eaf146102ab578063715018a614610267578063857fbd45146102375780638da5cb5b14610210578063904b5f03146101e8578063ba8f93dd1461017b578063d89d9f5f1461010f5763f2fde38b14610095575f80fd5b3461010b57602036600319011261010b576004356001600160a01b0381169081900361010b576100c361084e565b80156100f8575f80546001600160a01b03198116831782556001600160a01b0316905f5160206108755f395f51905f529080a3005b631e4fbdf760e01b5f525f60045260245ffd5b5f80fd5b3461010b575f36600319011261010b5761012761084e565b6001546001600160a01b0316803b1561010b575f8091602460405180948193637c89057b60e11b83523060048401525af180156101705761016457005b5f61016e9161076f565b005b6040513d5f823e3d90fd5b3461010b57602036600319011261010b576004356001600160a01b0381169081900361010b576101a961084e565b6001546001600160a01b031690813b1561010b575f9160248392604051948593849263f2fde38b60e01b845260048401525af180156101705761016457005b3461010b575f36600319011261010b576001546040516001600160a01b039091168152602090f35b3461010b575f36600319011261010b575f546040516001600160a01b039091168152602090f35b3461010b57602036600319011261010b576004356001600160401b03811161010b5761016e903690600401610742565b3461010b575f36600319011261010b5761027f61084e565b5f80546001600160a01b0319811682556001600160a01b03165f5160206108755f395f51905f528280a3005b3461010b57602036600319011261010b576004356001600160a01b0381169081900361010b576102d961084e565b600280546001600160a01b031916919091179055005b3461010b57606036600319011261010b576004356024356044356001600160401b03811161010b57610325903690600401610742565b909161032f61084e565b6001546001600160a01b031692833b1561010b575f60405180956304d79bcd60e51b825287600483015284602483015260606044830152818381610377606482018a8961082e565b03925af1908115610170577f251f0f9c21a717d93bc2910b67f85c577dfbe5b5f42e8bd72c012df160a8451c946103c7926103cc575b50604051938493845260406020850152604084019161082e565b0390a2005b5f6103d69161076f565b866103ad565b3461010b575f36600319011261010b576002546040516001600160a01b039091168152602090f35b3461010b57602036600319011261010b576004356001600160401b03811161010b57610434903690600401610742565b600254919290916001600160a01b0316330361070c5750810160608282031261010b5781356001600160401b03811161010b57816104739184016107a9565b9060208301356001600160401b03811161010b57816104939185016107a9565b926040810135906001600160401b03821161010b57019080601f8301121561010b578135916104c183610792565b926104cf604051948561076f565b80845260208085019160051b8301019183831161010b5760208101915b83831061068357878787815183518091149081610678575b501561063f575f92835b83518510156105ef576001546001600160a01b031661052d8686610806565b516105388785610806565b51916105448887610806565b5190803b1561010b576020935f60848195604051978896879586936304d79bcd60e51b855260048501526024840152606060448401528051918291826064860152018484015e8181018301849052601f01601f191681010301925af18015610170576105df575b506105b68583610806565b5181018091116105cb5760019094019361050e565b634e487b7160e01b5f52601160045260245ffd5b5f6105e99161076f565b856105ab565b60a07f10155f496a00c506fa23f75701e0cb47b41b1828cc38c81e16f3fccab176fb1b91855190604051916060835260046060840152636261736560e01b608084015260208301526040820152a1005b60405162461bcd60e51b81526020600482015260116024820152704d69736d6174636865642061727261797360781b6044820152606490fd5b905081511484610504565b82356001600160401b03811161010b57820185603f8201121561010b576020810135916001600160401b0383116106f8576040516106cb601f8501601f19166020018261076f565b838152604083850101881061010b575f6020858196604083970183860137830101528152019201916104ec565b634e487b7160e01b5f52604160045260245ffd5b62461bcd60e51b815260206004820152601160248201527027b7363c9026189031b7b63632b1ba37b960791b6044820152606490fd5b9181601f8401121561010b578235916001600160401b03831161010b576020838186019501011161010b57565b601f909101601f19168101906001600160401b038211908210176106f857604052565b6001600160401b0381116106f85760051b60200190565b9080601f8301121561010b5781356107c081610792565b926107ce604051948561076f565b81845260208085019260051b82010192831161010b57602001905b8282106107f65750505090565b81358152602091820191016107e9565b805182101561081a5760209160051b010190565b634e487b7160e01b5f52603260045260245ffd5b908060209392818452848401375f828201840152601f01601f1916010190565b5f546001600160a01b0316330361086157565b63118cdaa760e01b5f523360045260245ffdfe8be0079c531659141344cd1fd0a4f28419497f9722a3daafe3b4186f6b6457e0a2646970667358221220b10319e6cf970c849cf6336ce89e39cff5c3e1f4736912ae79eb9db925e0319964736f6c634300081e00330000000000000000000000001f22f32dbdb96ce83b94ef68c7de114b4966fad1",
        "nonce": "0x23c",
        "chainId": "0xaa36a7"
      },
      "additionalContracts": [],
      "isFixedGasLimit": false
    },
    {
      "hash": "0x04ec736685a150037adf22085a7a2839ddcfb834b4c3188352951095c40ecf36",
      "transactionType": "CALL",
      "contractName": "PointsManager",
      "contractAddress": "0x1f22f32dbdb96ce83b94ef68c7de114b4966fad1",
      "function": "setAggregator(address)",
      "arguments": [
        "0x2A0449d5bC53107A781CD9d22791230899072E58"
      ],
      "transaction": {
        "from": "0xad9fdad276ab1a430fd03177a07350cd7c61e897",
        "to": "0x1f22f32dbdb96ce83b94ef68c7de114b4966fad1",
        "gas": "0x10770",
        "value": "0x0",
        "input": "0xf9120af60000000000000000000000002a0449d5bc53107a781cd9d22791230899072e58",
        "nonce": "0x23d",
        "chainId": "0xaa36a7"
      },
      "additionalContracts": [],
      "isFixedGasLimit": false
    },
    {
      "hash": "0x75205062d4c5367b5e3223ebb2679cb48ad1dc415cd143768c0af6cd8ec6a2c3",
      "transactionType": "CREATE",
      "contractName": "L1BurnCollector",
      "contractAddress": "0x61fd3513bbef08a3b53b86597c780cbfc83d09d1",
      "function": null,
      "arguments": [
        "0x2A0449d5bC53107A781CD9d22791230899072E58",
        "0x614FE9079021688115A8Ec29b065344C033f9740"
      ],
      "transaction": {
        "from": "0xad9fdad276ab1a430fd03177a07350cd7c61e897",
        "gas": "0x1e8e37",
        "value": "0x0",
        "input": "0x6080604052346101c157604051601f61168038819003918201601f19168301916001600160401b0383118484101761019a5780849260409485528339810103126101c1576100586020610051836101c5565b92016101c5565b9033156101ae575f8054336001600160a01b0319821681178355916001600160a01b03909116907f8be0079c531659141344cd1fd0a4f28419497f9722a3daafe3b4186f6b6457e09080a360405161018081016001600160401b0381118282101761019a5760405260648152605f6020820152605c60408201526058606082015260556080820152605260a0820152604e60c0820152604b60e0820152604861010082015260446101208201526041610140820152603c6101608201525f5b600c8110610182575050600180546001600160a01b039283166001600160a01b0319918216179091556006805493909216921682179055604051907fd1cca643b71f0b734e29ea3538d99dfbab03ad2fb3b71aec3c3917dddc893fa45f80a26114a690816101da8239f35b600190602060ff845116930192816007015501610117565b634e487b7160e01b5f52604160045260245ffd5b631e4fbdf760e01b5f525f60045260245ffd5b5f80fd5b51906001600160a01b03821682036101c15756fe6080806040526004361015610012575f80fd5b5f905f3560e01c90816301ffc9a714610e5857508063066959cf14610e2057806311735f7814610df4578063150b7a0214610c36578063245a7bfc14610c0d5780634184e35614610af25780635d65c17214610a61578063642b715c14610a1c578063642c814814610940578063715018a6146108f9578063726ec2ef146108755780638409dd72146106d05780638995b2fa146105fa5780638da5cb5b146105d3578063961a4e8e146104ab578063b7433a8114610462578063ba46d032146103fa578063bc197c8114610361578063e366da2c14610324578063f0bd0e79146102fb578063f23a6e61146101855763f2fde38b14610110575f80fd5b3461018257602036600319011261018257610129610ec3565b610131611320565b6001600160a01b0316801561016e5781546001600160a01b03198116821783556001600160a01b03165f5160206114515f395f51905f528380a380f35b631e4fbdf760e01b82526004829052602482fd5b80fd5b50346101825760a03660031901126101825761019f610ec3565b506101a8610ed9565b606435916084356001600160401b0381116102f3576101cd6020913690600401610eef565b90809291338552600283526101e760408620541515610fa9565b810103126102f75735903381526002602052610208838560408420546110f3565b91333b156102f357604051633b584ed360e21b81526044356004820152856024820152828160448183335af16102de575b50918161028160e0945f5160206114315f395f51905f529694508360405191610263604084610fea565b600c83526b22a92198989a9a90313ab93760a11b6020840152611136565b50604080513381526020810196909652850152600c6228206f420406606085015260a060808501819052600790850152664552433131353560c81b60c08501526001600160a01b031692a260405163f23a6e6160e01b8152602090f35b6102e9838092610fea565b6102f3575f610239565b5080fd5b5f80fd5b50346101825780600319360112610182576006546040516001600160a01b039091168152602090f35b50346101825760203660031901126101825760209060ff906040906001600160a01b0361034f610ec3565b16815260058452205416604051908152f35b50346101825760a03660031901126101825761037b610ec3565b50610384610ed9565b506044356001600160401b0381116102f3576103a4903690600401610f79565b50506064356001600160401b0381116102f3576103c5903690600401610f79565b50506084356001600160401b0381116102f3576103e6903690600401610eef565b505060405163bc197c8160e01b8152602090f35b503461018257602036600319011261018257610414610ec3565b61041c611320565b600680546001600160a01b0319166001600160a01b039290921691821790557fd1cca643b71f0b734e29ea3538d99dfbab03ad2fb3b71aec3c3917dddc893fa48280a280f35b50346101825761018036600319011261018257366101841161018257610486611320565b6004815b600c8110610496578280f35b6001906020833593019281600701550161048a565b5034610182576060366003190112610182576104c5610ec3565b6024356044359160ff83168093036105cf576104df611320565b8115610597576001600160a01b03168084526004602052604084205490919060ff161561052c575b8184526002602052604084205582526005602052604082209060ff1982541617905580f35b600354600160401b8110156105835780600161054b9201600355611038565b81546001600160a01b0360039290921b91821b19169084901b179055818452600460205260408420805460ff19166001179055610507565b634e487b7160e01b85526041600452602485fd5b60405162461bcd60e51b815260206004820152601060248201526f042617365206d757374206265203e20360841b6044820152606490fd5b8380fd5b5034610182578060031936011261018257546040516001600160a01b039091168152602090f35b503461018257608036600319011261018257806001600160a01b0361061d610ec3565b16808252600260205261063560408320541515610fa9565b60405190606435602083015260208252610650604083610fea565b803b156106cc5761069f8392918392604051948580948193637921219560e11b83523360048401523060248401526024356044840152604435606484015260a0608484015260a4830190611071565b03925af180156106c1576106b05750f35b816106ba91610fea565b6101825780f35b6040513d84823e3d90fd5b5050fd5b5034610182576106df36610f4f565b6001600160a01b03831680855260026020526040852054909390610704901515610fa9565b6040516323b872dd60e01b81523360048201523060248201526044810184905260208160648189895af190811561086a578491610825575b5061074a9061075e926112d2565b8486526002602052339060408720546110f3565b90833b156108215784604051630852cd8d60e31b81528460048201528181602481838a5af161080c575b50906107bb9150826040519161079f604084610fea565b600a83526922a921991810313ab93760b11b6020840152611136565b600c6228206f4204069160405193845260208401526040830152606082015260a06080820152600560a082015264045524332360dc1b60c08201525f5160206114315f395f51905f5260e03392a280f35b8161081691610fea565b61082157845f610788565b8480fd5b90506020813d602011610862575b8161084060209383610fea565b8101031261085e575190811515820361085e5790508261074a61073c565b8580fd5b3d9150610833565b6040513d88823e3d90fd5b503461018257806003193601126101825761018090816040516108988282610fea565b369037604051600782825b600c82106108e357505050906108b98383610fea565b6040519190825b600c82106108cd57505050f35b60208060019285518152019301910190916108c0565b60016020819285548152019301910190916108a3565b5034610182578060031936011261018257610912611320565b80546001600160a01b03198116825581906001600160a01b03165f5160206114515f395f51905f528280a380f35b50346101825760403660031901126101825761095a610ec3565b60243590610966611320565b8115610597576001600160a01b03168083526004602052604083205490919060ff16156109b1575b81835260026020526040832055815260056020526040812060ff19815416905580f35b600354600160401b811015610a08578060016109d09201600355611038565b81546001600160a01b0360039290921b91821b19169084901b179055818352600460205260408320805460ff1916600117905561098e565b634e487b7160e01b84526041600452602484fd5b503461018257606036600319011261018257610a36610ec3565b604435916001600160a01b0383168303610182576020610a598460243585611095565b604051908152f35b50346101825780610a7136610f4f565b9160018060a01b0316918284526002602052610a9260408520541515610fa9565b60405190602082015260208152610aaa604082610fea565b823b15610aed5761069f92849283604051809681958294635c46a7ef60e11b84523360048501523060248501526044840152608060648401526084830190611071565b505050fd5b5034610182578060031936011261018257600354610b0f81611021565b90610b1d6040519283610fea565b808252610b2981611021565b602083019390601f1901368537610b3f82611021565b91610b4d6040519384610fea565b808352601f19610b5c82611021565b01366020850137815b818110610bc457505060405192604084019060408552518091526060840194915b818110610ba5578480610ba188878382036020850152610f1c565b0390f35b82516001600160a01b0316865260209586019590920191600101610b86565b80610bd3600192969496611038565b838060a01b0391549060031b1c1680610bec838761105d565b52865260026020526040862054610c03828761105d565b5201939193610b65565b50346101825780600319360112610182576001546040516001600160a01b039091168152602090f35b50346102f75760803660031901126102f757610c50610ec3565b50610c59610ed9565b60443591906064356001600160401b0381116102f757610c7f6020913690600401610eef565b90809291335f5260028352610c9960405f20541515610fa9565b810103126102f7573590335f52600260205260405f2054600c6228206f42040690610cc383611346565b81158280046001141715610de057600c831015610dcc57610cf76127109291610cf284938660070154906110e0565b6110e0565b0404333b156102f7575f5160206114315f395f51905f529460e094604051630852cd8d60e31b81528860048201525f8160248183335af1610db5575b50610d65908360405191610d48604084610fea565b600b83526a22a9219b991890313ab93760a91b6020840152611136565b506040519533875260208701526040860152606085015260a06080850152600660a08501526545524337323160d01b60c085015260018060a01b031692a2604051630a85bd0160e11b8152602090f35b610dc29192505f90610fea565b5f90610d65610d33565b634e487b7160e01b5f52603260045260245ffd5b634e487b7160e01b5f52601160045260245ffd5b346102f75760203660031901126102f757600435600c8110156102f75760209060070154604051908152f35b346102f75760203660031901126102f7576001600160a01b03610e41610ec3565b165f526002602052602060405f2054604051908152f35b346102f75760203660031901126102f7576004359063ffffffff60e01b82168092036102f757602091630a85bd0160e11b8114908115610eb2575b8115610ea1575b5015158152f35b6301ffc9a760e01b14905083610e9a565b630271189760e51b81149150610e93565b600435906001600160a01b03821682036102f757565b602435906001600160a01b03821682036102f757565b9181601f840112156102f7578235916001600160401b0383116102f757602083818601950101116102f757565b90602080835192838152019201905f5b818110610f395750505090565b8251845260209384019390920191600101610f2c565b60609060031901126102f7576004356001600160a01b03811681036102f757906024359060443590565b9181601f840112156102f7578235916001600160401b0383116102f7576020808501948460051b0101116102f757565b15610fb057565b60405162461bcd60e51b81526020600482015260126024820152714173736574206e6f7420656c696769626c6560701b6044820152606490fd5b601f909101601f19168101906001600160401b0382119082101761100d57604052565b634e487b7160e01b5f52604160045260245ffd5b6001600160401b03811161100d5760051b60200190565b600354811015610dcc5760035f5260205f2001905f90565b805115610dcc5760200190565b8051821015610dcc5760209160051b010190565b805180835260209291819084018484015e5f828201840152601f01601f1916010190565b6001600160a01b0381165f90815260026020526040902054919291906110bc821515610fa9565b83156110d8576110d5936110cf916112d2565b906110f3565b90565b505050505f90565b81810292918115918404141715610de057565b91906111119061110b600c6228206f42040693611346565b936110e0565b600c821015610dcc5761271092610cf261113192859460070154906110e0565b040490565b6040918251936111468486610fea565b60018552601f19840191823660208801378451936111648686610fea565b600185528336602087013785519361117c8786610fea565b600185525f5b8181106112c15750509086929161119b6111df98611050565b526111a585611050565b526111af83611050565b526111b982611050565b506111f060018060a01b0360015416938551968793606060208601526080850190610f1c565b838103601f19018785015290610f1c565b91601f19828403016060830152805180845260208401936020808360051b8301019301945f915b8383106112905750505050611235925003601f198101855284610fea565b803b156102f7578151630e69718b60e01b815260206004820152925f918491829084908290611268906024830190611071565b03925af1908115611287575061127b5750565b5f61128591610fea565b565b513d5f823e3d90fd5b919360019193955060206112af8192601f198682030187528951611071565b97019301930190928894929593611217565b806060602080938901015201611182565b6001600160a01b03165f9081526005602052604090205460ff16801561131c57604d8111610de057600a0a908115611308570490565b634e487b7160e01b5f52601260045260245ffd5b5090565b5f546001600160a01b0316330361133357565b63118cdaa760e01b5f523360045260245ffd5b6001600160a01b03168015611429576006546001600160a01b03169081158015611420575b611418576020906024604051809481936370a0823160e01b835260048301525afa5f91816113e4575b506113a0575061271090565b60648110156113dd5760328110156113d657600a8110156113cf57600111156113c95761271090565b612af890565b50614e2090565b5061753090565b50619c4090565b9091506020813d602011611410575b8161140060209383610fea565b810103126102f75751905f611394565b3d91506113f3565b505061271090565b50813b1561136b565b506127109056fee3de3cf8b55d889e1f0f229a17138e633440a6ba07397d3eb4f1c0c7c61ea27f8be0079c531659141344cd1fd0a4f28419497f9722a3daafe3b4186f6b6457e0a2646970667358221220608539324a8bb3e5266f74ffb8f4208ca1744181ab69660b521880fb4d5144d364736f6c634300081e00330000000000000000000000002a0449d5bc53107a781cd9d22791230899072e58000000000000000000000000614fe9079021688115a8ec29b065344c033f9740",
        "nonce": "0x23e",
        "chainId": "0xaa36a7"
      },
      "additionalContracts": [],
      "isFixedGasLimit": false
    },
    {
      "hash": "0xd9c14dae1eca36884284c08435ad7c5e1dbc84db8aaee5844d9036666669112f",
      "transactionType": "CALL",
      "contractName": "PointsAggregator",
      "contractAddress": "0x2a0449d5bc53107a781cd9d22791230899072e58",
      "function": "setL1BurnCollector(address)",
      "arguments": [
        "0x61fd3513BbEf08a3b53b86597c780cBfc83D09d1"
      ],
      "transaction": {
        "from": "0xad9fdad276ab1a430fd03177a07350cd7c61e897",
        "to": "0x2a0449d5bc53107a781cd9d22791230899072e58",
        "gas": "0xf81b",
        "value": "0x0",
        "input": "0x63117eaf00000000000000000000000061fd3513bbef08a3b53b86597c780cbfc83d09d1",
        "nonce": "0x23f",
        "chainId": "0xaa36a7"
      },
      "additionalContracts": [],
      "isFixedGasLimit": false
    },
    {
      "hash": "0x901ddaf3bb49694dab88dba07c502c2ed94510164a1c447193097ce81c4450da",
      "transactionType": "CALL",
      "contractName": "L1BurnCollector",
      "contractAddress": "0x61fd3513bbef08a3b53b86597c780cbfc83d09d1",
      "function": "addEligibleAsset(address,uint256)",
      "arguments": [
        "0x614FE9079021688115A8Ec29b065344C033f9740",
        "100000"
      ],
      "transaction": {
        "from": "0xad9fdad276ab1a430fd03177a07350cd7c61e897",
        "to": "0x61fd3513bbef08a3b53b86597c780cbfc83d09d1",
        "gas": "0x26f7e",
        "value": "0x0",
        "input": "0x642c8148000000000000000000000000614fe9079021688115a8ec29b065344c033f974000000000000000000000000000000000000000000000000000000000000186a0",
        "nonce": "0x240",
        "chainId": "0xaa36a7"
      },
      "additionalContracts": [],
      "isFixedGasLimit": false
    },
    {
      "hash": "0x18ed09da4701722f9c74b6226819b25931c6269881993eb3b1bc5c1a800d91a0",
      "transactionType": "CALL",
      "contractName": "L1BurnCollector",
      "contractAddress": "0x61fd3513bbef08a3b53b86597c780cbfc83d09d1",
      "function": "addEligibleAsset(address,uint256)",
      "arguments": [
        "0x7Ef7dF0F64A2591fd5bE9c1E88728e59CB5D362B",
        "10000"
      ],
      "transaction": {
        "from": "0xad9fdad276ab1a430fd03177a07350cd7c61e897",
        "to": "0x61fd3513bbef08a3b53b86597c780cbfc83d09d1",
        "gas": "0x21329",
        "value": "0x0",
        "input": "0x642c81480000000000000000000000007ef7df0f64a2591fd5be9c1e88728e59cb5d362b0000000000000000000000000000000000000000000000000000000000002710",
        "nonce": "0x241",
        "chainId": "0xaa36a7"
      },
      "additionalContracts": [],
      "isFixedGasLimit": false
    },
    {
      "hash": "0xba44b1db60d6c244178cf6942306266ad497b44e170cf79d868ed7aaa3d72100",
      "transactionType": "CALL",
      "contractName": "L1BurnCollector",
      "contractAddress": "0x61fd3513bbef08a3b53b86597c780cbfc83d09d1",
      "function": "addEligibleAssetWithDecimals(address,uint256,uint8)",
      "arguments": [
        "0xD2DcB326F003DC8db194C74Db2749F8C653Df6aC",
        "1",
        "18"
      ],
      "transaction": {
        "from": "0xad9fdad276ab1a430fd03177a07350cd7c61e897",
        "to": "0x61fd3513bbef08a3b53b86597c780cbfc83d09d1",
        "gas": "0x2a5d4",
        "value": "0x0",
        "input": "0x961a4e8e000000000000000000000000d2dcb326f003dc8db194c74db2749f8c653df6ac00000000000000000000000000000000000000000000000000000000000000010000000000000000000000000000000000000000000000000000000000000012",
        "nonce": "0x242",
        "chainId": "0xaa36a7"
      },
      "additionalContracts": [],
      "isFixedGasLimit": false
    },
    {
      "hash": "0x1006a979693d528528ba0ec008744a14cbe370c2bb08814f53e2727845263fb8",
      "transactionType": "CALL",
      "contractName": null,
      "contractAddress": "0x614fe9079021688115a8ec29b065344c033f9740",
      "function": "setApprovalForAll(address,bool)",
      "arguments": [
        "0x61fd3513BbEf08a3b53b86597c780cBfc83D09d1",
        "true"
      ],
      "transaction": {
        "from": "0xad9fdad276ab1a430fd03177a07350cd7c61e897",
        "to": "0x614fe9079021688115a8ec29b065344c033f9740",
        "gas": "0x107d9",
        "value": "0x0",
        "input": "0xa22cb46500000000000000000000000061fd3513bbef08a3b53b86597c780cbfc83d09d10000000000000000000000000000000000000000000000000000000000000001",
        "nonce": "0x243",
        "chainId": "0xaa36a7"
      },
      "additionalContracts": [],
      "isFixedGasLimit": false
    },
    {
      "hash": "0xccf98ec673fc700a2c590be37de40b28ad9918e47d3238078c85b65e60a74f57",
      "transactionType": "CALL",
      "contractName": null,
      "contractAddress": "0x7ef7df0f64a2591fd5be9c1e88728e59cb5d362b",
      "function": "setApprovalForAll(address,bool)",
      "arguments": [
        "0x61fd3513BbEf08a3b53b86597c780cBfc83D09d1",
        "true"
      ],
      "transaction": {
        "from": "0xad9fdad276ab1a430fd03177a07350cd7c61e897",
        "to": "0x7ef7df0f64a2591fd5be9c1e88728e59cb5d362b",
        "gas": "0x107c3",
        "value": "0x0",
        "input": "0xa22cb46500000000000000000000000061fd3513bbef08a3b53b86597c780cbfc83d09d10000000000000000000000000000000000000000000000000000000000000001",
        "nonce": "0x244",
        "chainId": "0xaa36a7"
      },
      "additionalContracts": [],
      "isFixedGasLimit": false
    },
    {
      "hash": "0xb8b6e6c0d85729c888559b21f12248354f61214090ec8daa306aa01a51f2540c",
      "transactionType": "CALL",
      "contractName": null,
      "contractAddress": "0xd2dcb326f003dc8db194c74db2749f8c653df6ac",
      "function": "approve(address,uint256)",
      "arguments": [
        "0x61fd3513BbEf08a3b53b86597c780cBfc83D09d1",
        "115792089237316195423570985008687907853269984665640564039457584007913129639935"
      ],
      "transaction": {
        "from": "0xad9fdad276ab1a430fd03177a07350cd7c61e897",
        "to": "0xd2dcb326f003dc8db194c74db2749f8c653df6ac",
        "gas": "0xf9a4",
        "value": "0x0",
        "input": "0x095ea7b300000000000000000000000061fd3513bbef08a3b53b86597c780cbfc83d09d1ffffffffffffffffffffffffffffffffffffffffffffffffffffffffffffffff",
        "nonce": "0x245",
        "chainId": "0xaa36a7"
      },
      "additionalContracts": [],
      "isFixedGasLimit": false
    },
    {
      "hash": "0x84b29d16f7b43ef8acbf317cf9145aa835fcc3f72af33c414bc62728b8b15fb6",
      "transactionType": "CALL",
      "contractName": null,
      "contractAddress": "0x674307b5d8340fa5d6a659d252d6b816bc85997a",
      "function": "setPointsManager(address)",
      "arguments": [
        "0x1F22f32DbDb96ce83B94Ef68c7de114B4966Fad1"
      ],
      "transaction": {
        "from": "0xad9fdad276ab1a430fd03177a07350cd7c61e897",
        "to": "0x674307b5d8340fa5d6a659d252d6b816bc85997a",
        "gas": "0xb24b",
        "value": "0x0",
        "input": "0xcae42a080000000000000000000000001f22f32dbdb96ce83b94ef68c7de114b4966fad1",
        "nonce": "0x246",
        "chainId": "0xaa36a7"
      },
      "additionalContracts": [],
      "isFixedGasLimit": false
    }
  ],
  "receipts": [
    {
      "status": "0x1",
      "cumulativeGasUsed": "0xf9c192",
      "logs": [
        {
          "address": "0x1f22f32dbdb96ce83b94ef68c7de114b4966fad1",
          "topics": [
            "0x8be0079c531659141344cd1fd0a4f28419497f9722a3daafe3b4186f6b6457e0",
            "0x0000000000000000000000000000000000000000000000000000000000000000",
            "0x000000000000000000000000ad9fdad276ab1a430fd03177a07350cd7c61e897"
          ],
          "data": "0x",
          "blockHash": "0xf53a3ce8920757ed94a345890b56fd7fe54207a3d1ef32c23ef475b094508d66",
          "blockNumber": "0x90c910",
          "blockTimestamp": "0x68fd09d8",
          "transactionHash": "0x103414351382167b60d1c0d62c4cfbae4b86b0118700afc649b518c128b4f0ea",
          "transactionIndex": "0x8c",
          "logIndex": "0xab",
          "removed": false
        }
      ],
      "logsBloom": "0x00000000000000000000000000000000000000000000000000800000000000000000000000000000000000000000000000000000000000000000000000000000000000000000004000000000000000000001000000000000000000000000000000000000020080000000002000000800000000000000000000000000000000400000000000000040000000000000000000000000000000000000000000000000000010000000010000000000000000000000000000000000000000000000000000000000000000000000000000000000000000000000000000000000000020000000000000000000000000000000000000000000000000000000000000000000",
      "type": "0x2",
      "transactionHash": "0x103414351382167b60d1c0d62c4cfbae4b86b0118700afc649b518c128b4f0ea",
      "transactionIndex": "0x8c",
      "blockHash": "0xf53a3ce8920757ed94a345890b56fd7fe54207a3d1ef32c23ef475b094508d66",
      "blockNumber": "0x90c910",
      "gasUsed": "0x4ccf2",
      "effectiveGasPrice": "0x87804",
      "from": "0xad9fdad276ab1a430fd03177a07350cd7c61e897",
      "to": null,
      "contractAddress": "0x1f22f32dbdb96ce83b94ef68c7de114b4966fad1"
    },
    {
      "status": "0x1",
      "cumulativeGasUsed": "0x102c07a",
      "logs": [
        {
          "address": "0x2a0449d5bc53107a781cd9d22791230899072e58",
          "topics": [
            "0x8be0079c531659141344cd1fd0a4f28419497f9722a3daafe3b4186f6b6457e0",
            "0x0000000000000000000000000000000000000000000000000000000000000000",
            "0x000000000000000000000000ad9fdad276ab1a430fd03177a07350cd7c61e897"
          ],
          "data": "0x",
          "blockHash": "0xf53a3ce8920757ed94a345890b56fd7fe54207a3d1ef32c23ef475b094508d66",
          "blockNumber": "0x90c910",
          "blockTimestamp": "0x68fd09d8",
          "transactionHash": "0xec36d7ba5a19aabd37bd267b6a49891bdc908fb3015acc11d3e151fdfe82ce08",
          "transactionIndex": "0x8d",
          "logIndex": "0xac",
          "removed": false
        }
      ],
      "logsBloom": "0x00000000000000000000000000000000000000000000000020800000000000000000000000000000000000000000000000000000000000000000000000000000000000000000004000000000000000000001000000000000000000000000000000000000020000000000000000000800000000000000000000000000000000400000000000000040000000002000000000000000000000000000000000000000000010000000000000000000000000000000000000000000000000000000004000000000000000000000000000000000000000000000000000000000000020000000000000000000000000000000000000000000000000000000000000000000",
      "type": "0x2",
      "transactionHash": "0xec36d7ba5a19aabd37bd267b6a49891bdc908fb3015acc11d3e151fdfe82ce08",
      "transactionIndex": "0x8d",
      "blockHash": "0xf53a3ce8920757ed94a345890b56fd7fe54207a3d1ef32c23ef475b094508d66",
      "blockNumber": "0x90c910",
      "gasUsed": "0x8fee8",
      "effectiveGasPrice": "0x87804",
      "from": "0xad9fdad276ab1a430fd03177a07350cd7c61e897",
      "to": null,
      "contractAddress": "0x2a0449d5bc53107a781cd9d22791230899072e58"
    },
    {
      "status": "0x1",
      "cumulativeGasUsed": "0x103749b",
      "logs": [],
      "logsBloom": "0x00000000000000000000000000000000000000000000000000000000000000000000000000000000000000000000000000000000000000000000000000000000000000000000000000000000000000000000000000000000000000000000000000000000000000000000000000000000000000000000000000000000000000000000000000000000000000000000000000000000000000000000000000000000000000000000000000000000000000000000000000000000000000000000000000000000000000000000000000000000000000000000000000000000000000000000000000000000000000000000000000000000000000000000000000000000",
      "type": "0x2",
      "transactionHash": "0x04ec736685a150037adf22085a7a2839ddcfb834b4c3188352951095c40ecf36",
      "transactionIndex": "0x8e",
      "blockHash": "0xf53a3ce8920757ed94a345890b56fd7fe54207a3d1ef32c23ef475b094508d66",
      "blockNumber": "0x90c910",
      "gasUsed": "0xb421",
      "effectiveGasPrice": "0x87804",
      "from": "0xad9fdad276ab1a430fd03177a07350cd7c61e897",
      "to": "0x1f22f32dbdb96ce83b94ef68c7de114b4966fad1",
      "contractAddress": null
    },
    {
      "status": "0x1",
      "cumulativeGasUsed": "0x11af5b2",
      "logs": [
        {
          "address": "0x61fd3513bbef08a3b53b86597c780cbfc83d09d1",
          "topics": [
            "0x8be0079c531659141344cd1fd0a4f28419497f9722a3daafe3b4186f6b6457e0",
            "0x0000000000000000000000000000000000000000000000000000000000000000",
            "0x000000000000000000000000ad9fdad276ab1a430fd03177a07350cd7c61e897"
          ],
          "data": "0x",
          "blockHash": "0xf53a3ce8920757ed94a345890b56fd7fe54207a3d1ef32c23ef475b094508d66",
          "blockNumber": "0x90c910",
          "blockTimestamp": "0x68fd09d8",
          "transactionHash": "0x75205062d4c5367b5e3223ebb2679cb48ad1dc415cd143768c0af6cd8ec6a2c3",
          "transactionIndex": "0x8f",
          "logIndex": "0xad",
          "removed": false
        },
        {
          "address": "0x61fd3513bbef08a3b53b86597c780cbfc83d09d1",
          "topics": [
            "0xd1cca643b71f0b734e29ea3538d99dfbab03ad2fb3b71aec3c3917dddc893fa4",
            "0x000000000000000000000000614fe9079021688115a8ec29b065344c033f9740"
          ],
          "data": "0x",
          "blockHash": "0xf53a3ce8920757ed94a345890b56fd7fe54207a3d1ef32c23ef475b094508d66",
          "blockNumber": "0x90c910",
          "blockTimestamp": "0x68fd09d8",
          "transactionHash": "0x75205062d4c5367b5e3223ebb2679cb48ad1dc415cd143768c0af6cd8ec6a2c3",
          "transactionIndex": "0x8f",
          "logIndex": "0xae",
          "removed": false
        }
      ],
      "logsBloom": "0x00000000004000000000000000000000008000000200000000800000000000000000000000000000000000000000000000000000000000000000040000000000000000000000004000000000000000080001000000000000000000000000000000000000020000000000010000000800000000000000000000000000000000400040000000000040000000008000000000000000000000000000000000000000000010000000000000000000000000000000000000000000000000000000000000000000000000000000000000000000000000000000000000000000000020000000000200000000000000000000000000000000000000000000000000000000",
      "type": "0x2",
      "transactionHash": "0x75205062d4c5367b5e3223ebb2679cb48ad1dc415cd143768c0af6cd8ec6a2c3",
      "transactionIndex": "0x8f",
      "blockHash": "0xf53a3ce8920757ed94a345890b56fd7fe54207a3d1ef32c23ef475b094508d66",
      "blockNumber": "0x90c910",
      "gasUsed": "0x178117",
      "effectiveGasPrice": "0x87804",
      "from": "0xad9fdad276ab1a430fd03177a07350cd7c61e897",
      "to": null,
      "contractAddress": "0x61fd3513bbef08a3b53b86597c780cbfc83d09d1"
    },
    {
      "status": "0x1",
      "cumulativeGasUsed": "0x11ba952",
      "logs": [],
      "logsBloom": "0x00000000000000000000000000000000000000000000000000000000000000000000000000000000000000000000000000000000000000000000000000000000000000000000000000000000000000000000000000000000000000000000000000000000000000000000000000000000000000000000000000000000000000000000000000000000000000000000000000000000000000000000000000000000000000000000000000000000000000000000000000000000000000000000000000000000000000000000000000000000000000000000000000000000000000000000000000000000000000000000000000000000000000000000000000000000",
      "type": "0x2",
      "transactionHash": "0xd9c14dae1eca36884284c08435ad7c5e1dbc84db8aaee5844d9036666669112f",
      "transactionIndex": "0x90",
      "blockHash": "0xf53a3ce8920757ed94a345890b56fd7fe54207a3d1ef32c23ef475b094508d66",
      "blockNumber": "0x90c910",
      "gasUsed": "0xb3a0",
      "effectiveGasPrice": "0x87804",
      "from": "0xad9fdad276ab1a430fd03177a07350cd7c61e897",
      "to": "0x2a0449d5bc53107a781cd9d22791230899072e58",
      "contractAddress": null
    },
    {
      "status": "0x1",
      "cumulativeGasUsed": "0x11d6cb8",
      "logs": [],
      "logsBloom": "0x00000000000000000000000000000000000000000000000000000000000000000000000000000000000000000000000000000000000000000000000000000000000000000000000000000000000000000000000000000000000000000000000000000000000000000000000000000000000000000000000000000000000000000000000000000000000000000000000000000000000000000000000000000000000000000000000000000000000000000000000000000000000000000000000000000000000000000000000000000000000000000000000000000000000000000000000000000000000000000000000000000000000000000000000000000000",
      "type": "0x2",
      "transactionHash": "0x901ddaf3bb49694dab88dba07c502c2ed94510164a1c447193097ce81c4450da",
      "transactionIndex": "0x91",
      "blockHash": "0xf53a3ce8920757ed94a345890b56fd7fe54207a3d1ef32c23ef475b094508d66",
      "blockNumber": "0x90c910",
      "gasUsed": "0x1c366",
      "effectiveGasPrice": "0x87804",
      "from": "0xad9fdad276ab1a430fd03177a07350cd7c61e897",
      "to": "0x61fd3513bbef08a3b53b86597c780cbfc83d09d1",
      "contractAddress": null
    },
    {
      "status": "0x1",
      "cumulativeGasUsed": "0x11eed46",
      "logs": [],
      "logsBloom": "0x00000000000000000000000000000000000000000000000000000000000000000000000000000000000000000000000000000000000000000000000000000000000000000000000000000000000000000000000000000000000000000000000000000000000000000000000000000000000000000000000000000000000000000000000000000000000000000000000000000000000000000000000000000000000000000000000000000000000000000000000000000000000000000000000000000000000000000000000000000000000000000000000000000000000000000000000000000000000000000000000000000000000000000000000000000000",
      "type": "0x2",
      "transactionHash": "0x18ed09da4701722f9c74b6226819b25931c6269881993eb3b1bc5c1a800d91a0",
      "transactionIndex": "0x92",
      "blockHash": "0xf53a3ce8920757ed94a345890b56fd7fe54207a3d1ef32c23ef475b094508d66",
      "blockNumber": "0x90c910",
      "gasUsed": "0x1808e",
      "effectiveGasPrice": "0x87804",
      "from": "0xad9fdad276ab1a430fd03177a07350cd7c61e897",
      "to": "0x61fd3513bbef08a3b53b86597c780cbfc83d09d1",
      "contractAddress": null
    },
    {
      "status": "0x1",
      "cumulativeGasUsed": "0x120bcbf",
      "logs": [],
      "logsBloom": "0x00000000000000000000000000000000000000000000000000000000000000000000000000000000000000000000000000000000000000000000000000000000000000000000000000000000000000000000000000000000000000000000000000000000000000000000000000000000000000000000000000000000000000000000000000000000000000000000000000000000000000000000000000000000000000000000000000000000000000000000000000000000000000000000000000000000000000000000000000000000000000000000000000000000000000000000000000000000000000000000000000000000000000000000000000000000",
      "type": "0x2",
      "transactionHash": "0xba44b1db60d6c244178cf6942306266ad497b44e170cf79d868ed7aaa3d72100",
      "transactionIndex": "0x93",
      "blockHash": "0xf53a3ce8920757ed94a345890b56fd7fe54207a3d1ef32c23ef475b094508d66",
      "blockNumber": "0x90c910",
      "gasUsed": "0x1cf79",
      "effectiveGasPrice": "0x87804",
      "from": "0xad9fdad276ab1a430fd03177a07350cd7c61e897",
      "to": "0x61fd3513bbef08a3b53b86597c780cbfc83d09d1",
      "contractAddress": null
    },
    {
      "status": "0x1",
      "cumulativeGasUsed": "0x1217128",
      "logs": [
        {
          "address": "0x614fe9079021688115a8ec29b065344c033f9740",
          "topics": [
            "0x17307eab39ab6107e8899845ad3d59bd9653f200f220920489ca2b5937696c31",
            "0x000000000000000000000000ad9fdad276ab1a430fd03177a07350cd7c61e897",
            "0x00000000000000000000000061fd3513bbef08a3b53b86597c780cbfc83d09d1"
          ],
          "data": "0x0000000000000000000000000000000000000000000000000000000000000001",
          "blockHash": "0xf53a3ce8920757ed94a345890b56fd7fe54207a3d1ef32c23ef475b094508d66",
          "blockNumber": "0x90c910",
          "blockTimestamp": "0x68fd09d8",
          "transactionHash": "0x1006a979693d528528ba0ec008744a14cbe370c2bb08814f53e2727845263fb8",
          "transactionIndex": "0x94",
          "logIndex": "0xaf",
          "removed": false
        }
      ],
      "logsBloom": "0x00000000000000000000000000000000000000000000000008000000001000000000000000000000000000000000000000000000000000000000000000000000000000001000004000000000000000000004000000000000000000000000000002000000000000000000000000000000000000000000000000000000000000000000000000000040000000000000000000000000000000000000000000000000000010000000000000000000000020000000000000000000000000000000000000000000000004000000000000000000000000000000000000000000000000000000200800000000000000000000000000000000000000000000000000000000",
      "type": "0x2",
      "transactionHash": "0x1006a979693d528528ba0ec008744a14cbe370c2bb08814f53e2727845263fb8",
      "transactionIndex": "0x94",
      "blockHash": "0xf53a3ce8920757ed94a345890b56fd7fe54207a3d1ef32c23ef475b094508d66",
      "blockNumber": "0x90c910",
      "gasUsed": "0xb469",
      "effectiveGasPrice": "0x87804",
      "from": "0xad9fdad276ab1a430fd03177a07350cd7c61e897",
      "to": "0x614fe9079021688115a8ec29b065344c033f9740",
      "contractAddress": null
    },
    {
      "status": "0x1",
      "cumulativeGasUsed": "0x1222582",
      "logs": [
        {
          "address": "0x7ef7df0f64a2591fd5be9c1e88728e59cb5d362b",
          "topics": [
            "0x17307eab39ab6107e8899845ad3d59bd9653f200f220920489ca2b5937696c31",
            "0x000000000000000000000000ad9fdad276ab1a430fd03177a07350cd7c61e897",
            "0x00000000000000000000000061fd3513bbef08a3b53b86597c780cbfc83d09d1"
          ],
          "data": "0x0000000000000000000000000000000000000000000000000000000000000001",
          "blockHash": "0xf53a3ce8920757ed94a345890b56fd7fe54207a3d1ef32c23ef475b094508d66",
          "blockNumber": "0x90c910",
          "blockTimestamp": "0x68fd09d8",
          "transactionHash": "0xccf98ec673fc700a2c590be37de40b28ad9918e47d3238078c85b65e60a74f57",
          "transactionIndex": "0x95",
          "logIndex": "0xb0",
          "removed": false
        }
      ],
      "logsBloom": "0x00000000000000000000000000000000000000000000000000000000001000000000000000000000000000000000000000000000000000000000000000000000000000000000004000000000000000000000000000000000000000000000000002000000000000000000000000000000000000000000000000000000000000000000000000000040000000000000000000000000000000000000000000000000000010000000000000080000000020000000000000000000000000000000000000000000000004000000000000000000000000000000000000000000000000000000200800000000000000000000000040000000020000000000000000000000",
      "type": "0x2",
      "transactionHash": "0xccf98ec673fc700a2c590be37de40b28ad9918e47d3238078c85b65e60a74f57",
      "transactionIndex": "0x95",
      "blockHash": "0xf53a3ce8920757ed94a345890b56fd7fe54207a3d1ef32c23ef475b094508d66",
      "blockNumber": "0x90c910",
      "gasUsed": "0xb45a",
      "effectiveGasPrice": "0x87804",
      "from": "0xad9fdad276ab1a430fd03177a07350cd7c61e897",
      "to": "0x7ef7df0f64a2591fd5be9c1e88728e59cb5d362b",
      "contractAddress": null
    },
    {
      "status": "0x1",
      "cumulativeGasUsed": "0x122da3f",
      "logs": [
        {
          "address": "0xd2dcb326f003dc8db194c74db2749f8c653df6ac",
          "topics": [
            "0x8c5be1e5ebec7d5bd14f71427d1e84f3dd0314c0f7b2291e5b200ac8c7c3b925",
            "0x000000000000000000000000ad9fdad276ab1a430fd03177a07350cd7c61e897",
            "0x00000000000000000000000061fd3513bbef08a3b53b86597c780cbfc83d09d1"
          ],
          "data": "0xffffffffffffffffffffffffffffffffffffffffffffffffffffffffffffffff",
          "blockHash": "0xf53a3ce8920757ed94a345890b56fd7fe54207a3d1ef32c23ef475b094508d66",
          "blockNumber": "0x90c910",
          "blockTimestamp": "0x68fd09d8",
          "transactionHash": "0xb8b6e6c0d85729c888559b21f12248354f61214090ec8daa306aa01a51f2540c",
          "transactionIndex": "0x96",
          "logIndex": "0xb1",
          "removed": false
        }
      ],
      "logsBloom": "0x00000000000000000000000000000000000000000000000000000000001000000000000000000000000000000000000000000000000000000000000000200000000000000000004000000000000000000000000000000000000000000000000000000002000000000000000000000000000000000000000000000000000000000000000000000040000000000000000008000000000000000000000000000000020010000000000000000000000020000000000000000000000000000000000000000000000004000000000000000000000000000000000000000000000000000010000000000000000000000000000000000000010000000000000000000000",
      "type": "0x2",
      "transactionHash": "0xb8b6e6c0d85729c888559b21f12248354f61214090ec8daa306aa01a51f2540c",
      "transactionIndex": "0x96",
      "blockHash": "0xf53a3ce8920757ed94a345890b56fd7fe54207a3d1ef32c23ef475b094508d66",
      "blockNumber": "0x90c910",
      "gasUsed": "0xb4bd",
      "effectiveGasPrice": "0x87804",
      "from": "0xad9fdad276ab1a430fd03177a07350cd7c61e897",
      "to": "0xd2dcb326f003dc8db194c74db2749f8c653df6ac",
      "contractAddress": null
    },
    {
      "status": "0x1",
      "cumulativeGasUsed": "0x1235b54",
      "logs": [
        {
          "address": "0x674307b5d8340fa5d6a659d252d6b816bc85997a",
          "topics": [
            "0x7619eb3b0b2346250e2839a10da35fc58eea3632c6f045e8abffa1864bce2551"
          ],
          "data": "0x0000000000000000000000001f22f32dbdb96ce83b94ef68c7de114b4966fad1",
          "blockHash": "0xf53a3ce8920757ed94a345890b56fd7fe54207a3d1ef32c23ef475b094508d66",
          "blockNumber": "0x90c910",
          "blockTimestamp": "0x68fd09d8",
          "transactionHash": "0x84b29d16f7b43ef8acbf317cf9145aa835fcc3f72af33c414bc62728b8b15fb6",
          "transactionIndex": "0x97",
          "logIndex": "0xb2",
          "removed": false
        }
      ],
      "logsBloom": "0x00000000000000000000000000000000000000000000000000000000000000000000000000000000000000000000000000000000800000000000000000000000000000000000000000000000000000004000000000000000000000800000000000000000000000000000000008000000000000000000000000000000000000000000000000000000000000000000400000000000000000000000000800000000000000000000000000000000000000000000000000000000000000000000000000000000000000000000000000000000000000000000000000000000000000000000000000000000000000000000000000000000000000000000000000000000",
      "type": "0x2",
      "transactionHash": "0x84b29d16f7b43ef8acbf317cf9145aa835fcc3f72af33c414bc62728b8b15fb6",
      "transactionIndex": "0x97",
      "blockHash": "0xf53a3ce8920757ed94a345890b56fd7fe54207a3d1ef32c23ef475b094508d66",
      "blockNumber": "0x90c910",
      "gasUsed": "0x8115",
      "effectiveGasPrice": "0x87804",
      "from": "0xad9fdad276ab1a430fd03177a07350cd7c61e897",
      "to": "0x674307b5d8340fa5d6a659d252d6b816bc85997a",
      "contractAddress": null
    }
  ],
  "libraries": [],
  "pending": [],
  "returns": {},
  "timestamp": 1761413593462,
  "chain": 11155111,
  "commit": "c03d2ed"
}