{
  "transactions": [
    {
      "hash": "0x3cfb359567c6ade14dadc6bc6bf8e75b118ff9317985c21c8fdcf6408c30cb99",
      "transactionType": "CREATE",
      "contractName": "PointsManager",
      "contractAddress": "0xa728477606bb6f01b22d74a62928ec9edda90ae9",
      "function": null,
      "arguments": null,
      "transaction": {
        "from": "0xad9fdad276ab1a430fd03177a07350cd7c61e897",
        "gas": "0x63da1",
        "value": "0x0",
        "input": "0x608080604052346071573315605e575f8054336001600160a01b0319821681178355916001600160a01b03909116907f8be0079c531659141344cd1fd0a4f28419497f9722a3daafe3b4186f6b6457e09080a361044590816100768239f35b631e4fbdf760e01b5f525f60045260245ffd5b5f80fdfe6080806040526004361015610012575f80fd5b5f3560e01c908163245a7bfc146103a657508063715018a61461036257806382411358146101ea5780638da5cb5b1461033b5780639799b4e7146103115780639af379a0146101ef578063a967eee4146101ea578063b176aa4514610148578063f2fde38b146100d25763f9120af61461008a575f80fd5b346100ce5760203660031901126100ce576004356001600160a01b038116908190036100ce576100b86103c9565b600280546001600160a01b031916919091179055005b5f80fd5b346100ce5760203660031901126100ce576004356001600160a01b038116908190036100ce576101006103c9565b8015610135575f80546001600160a01b03198116831782556001600160a01b0316905f5160206103f05f395f51905f529080a3005b631e4fbdf760e01b5f525f60045260245ffd5b346100ce5760203660031901126100ce57600435805f52600160205260405f2054905f915f5b612710811061018257602084604051908152f35b805f5260016020528160405f20541180156101cb575b6101a5575b60010161016e565b925f1981146101b7576001019261019d565b634e487b7160e01b5f52601160045260245ffd5b50805f5260016020528160405f20541480156101985750828110610198565b610311565b346100ce5760603660031901126100ce576004356024356044356001600160401b0381116100ce57366023820112156100ce576004810135916001600160401b0383116100ce5736602484840101116100ce576002546001600160a01b031633036102da57835f52600160205260405f20908154938185018095116101b7577f93ed1bb877baa71c9aef86a79dac9360569bb566644be81c1bb4b1d617ad654a9460809355855f52600160205280602460405f205495604051968795865260208601526060604086015282606086015201848401375f828201840152601f01601f19168101030190a2005b60405162461bcd60e51b815260206004820152600f60248201526e27b7363c9030b3b3b932b3b0ba37b960891b6044820152606490fd5b346100ce5760203660031901126100ce576004355f526001602052602060405f2054604051908152f35b346100ce575f3660031901126100ce575f546040516001600160a01b039091168152602090f35b346100ce575f3660031901126100ce5761037a6103c9565b5f80546001600160a01b0319811682556001600160a01b03165f5160206103f05f395f51905f528280a3005b346100ce575f3660031901126100ce576002546001600160a01b03168152602090f35b5f546001600160a01b031633036103dc57565b63118cdaa760e01b5f523360045260245ffdfe8be0079c531659141344cd1fd0a4f28419497f9722a3daafe3b4186f6b6457e0a2646970667358221220d1e465b541fbe443a8076905518273c23aa8e53540eeee8f9efa7986e12df35264736f6c634300081e0033",
        "nonce": "0x223",
        "chainId": "0xaa36a7"
      },
      "additionalContracts": [],
      "isFixedGasLimit": false
    },
    {
      "hash": "0x244b55e26d3bded3520315d25828698c057ddcba61550274911bfed4e967c7ff",
      "transactionType": "CREATE",
      "contractName": "PointsAggregator",
      "contractAddress": "0x101977e6542090c711367978803d7af539ab9847",
      "function": null,
      "arguments": [
        "0xa728477606bB6f01b22D74a62928ec9eDdA90AE9"
      ],
      "transaction": {
        "from": "0xad9fdad276ab1a430fd03177a07350cd7c61e897",
        "gas": "0xbb1c7",
        "value": "0x0",
        "input": "0x60803460cd57601f6109b038819003918201601f19168301916001600160401b0383118484101760d15780849260209460405283398101031260cd57516001600160a01b0381169081900360cd57331560ba575f8054336001600160a01b0319821681178355604051939290916001600160a01b0316907f8be0079c531659141344cd1fd0a4f28419497f9722a3daafe3b4186f6b6457e09080a3600180546001600160a01b0319169190911790556108ca90816100e68239f35b631e4fbdf760e01b5f525f60045260245ffd5b5f80fd5b634e487b7160e01b5f52604160045260245ffdfe6080806040526004361015610012575f80fd5b5f3560e01c9081630e69718b14610404575080632be1f6a1146103dc5780635fe12de0146102ef57806363117eaf146102ab578063715018a614610267578063857fbd45146102375780638da5cb5b14610210578063904b5f03146101e8578063ba8f93dd1461017b578063d89d9f5f1461010f5763f2fde38b14610095575f80fd5b3461010b57602036600319011261010b576004356001600160a01b0381169081900361010b576100c361084e565b80156100f8575f80546001600160a01b03198116831782556001600160a01b0316905f5160206108755f395f51905f529080a3005b631e4fbdf760e01b5f525f60045260245ffd5b5f80fd5b3461010b575f36600319011261010b5761012761084e565b6001546001600160a01b0316803b1561010b575f8091602460405180948193637c89057b60e11b83523060048401525af180156101705761016457005b5f61016e9161076f565b005b6040513d5f823e3d90fd5b3461010b57602036600319011261010b576004356001600160a01b0381169081900361010b576101a961084e565b6001546001600160a01b031690813b1561010b575f9160248392604051948593849263f2fde38b60e01b845260048401525af180156101705761016457005b3461010b575f36600319011261010b576001546040516001600160a01b039091168152602090f35b3461010b575f36600319011261010b575f546040516001600160a01b039091168152602090f35b3461010b57602036600319011261010b576004356001600160401b03811161010b5761016e903690600401610742565b3461010b575f36600319011261010b5761027f61084e565b5f80546001600160a01b0319811682556001600160a01b03165f5160206108755f395f51905f528280a3005b3461010b57602036600319011261010b576004356001600160a01b0381169081900361010b576102d961084e565b600280546001600160a01b031916919091179055005b3461010b57606036600319011261010b576004356024356044356001600160401b03811161010b57610325903690600401610742565b909161032f61084e565b6001546001600160a01b031692833b1561010b575f60405180956304d79bcd60e51b825287600483015284602483015260606044830152818381610377606482018a8961082e565b03925af1908115610170577f251f0f9c21a717d93bc2910b67f85c577dfbe5b5f42e8bd72c012df160a8451c946103c7926103cc575b50604051938493845260406020850152604084019161082e565b0390a2005b5f6103d69161076f565b866103ad565b3461010b575f36600319011261010b576002546040516001600160a01b039091168152602090f35b3461010b57602036600319011261010b576004356001600160401b03811161010b57610434903690600401610742565b600254919290916001600160a01b0316330361070c5750810160608282031261010b5781356001600160401b03811161010b57816104739184016107a9565b9060208301356001600160401b03811161010b57816104939185016107a9565b926040810135906001600160401b03821161010b57019080601f8301121561010b578135916104c183610792565b926104cf604051948561076f565b80845260208085019160051b8301019183831161010b5760208101915b83831061068357878787815183518091149081610678575b501561063f575f92835b83518510156105ef576001546001600160a01b031661052d8686610806565b516105388785610806565b51916105448887610806565b5190803b1561010b576020935f60848195604051978896879586936304d79bcd60e51b855260048501526024840152606060448401528051918291826064860152018484015e8181018301849052601f01601f191681010301925af18015610170576105df575b506105b68583610806565b5181018091116105cb5760019094019361050e565b634e487b7160e01b5f52601160045260245ffd5b5f6105e99161076f565b856105ab565b60a07f10155f496a00c506fa23f75701e0cb47b41b1828cc38c81e16f3fccab176fb1b91855190604051916060835260046060840152636261736560e01b608084015260208301526040820152a1005b60405162461bcd60e51b81526020600482015260116024820152704d69736d6174636865642061727261797360781b6044820152606490fd5b905081511484610504565b82356001600160401b03811161010b57820185603f8201121561010b576020810135916001600160401b0383116106f8576040516106cb601f8501601f19166020018261076f565b838152604083850101881061010b575f6020858196604083970183860137830101528152019201916104ec565b634e487b7160e01b5f52604160045260245ffd5b62461bcd60e51b815260206004820152601160248201527027b7363c9026189031b7b63632b1ba37b960791b6044820152606490fd5b9181601f8401121561010b578235916001600160401b03831161010b576020838186019501011161010b57565b601f909101601f19168101906001600160401b038211908210176106f857604052565b6001600160401b0381116106f85760051b60200190565b9080601f8301121561010b5781356107c081610792565b926107ce604051948561076f565b81845260208085019260051b82010192831161010b57602001905b8282106107f65750505090565b81358152602091820191016107e9565b805182101561081a5760209160051b010190565b634e487b7160e01b5f52603260045260245ffd5b908060209392818452848401375f828201840152601f01601f1916010190565b5f546001600160a01b0316330361086157565b63118cdaa760e01b5f523360045260245ffdfe8be0079c531659141344cd1fd0a4f28419497f9722a3daafe3b4186f6b6457e0a2646970667358221220b10319e6cf970c849cf6336ce89e39cff5c3e1f4736912ae79eb9db925e0319964736f6c634300081e0033000000000000000000000000a728477606bb6f01b22d74a62928ec9edda90ae9",
        "nonce": "0x224",
        "chainId": "0xaa36a7"
      },
      "additionalContracts": [],
      "isFixedGasLimit": false
    },
    {
      "hash": "0x74143c3617b2a82c6ee610e167b01cf8c6a0467a99cf4fbdaf92e519792568e4",
      "transactionType": "CALL",
      "contractName": "PointsManager",
      "contractAddress": "0xa728477606bb6f01b22d74a62928ec9edda90ae9",
      "function": "setAggregator(address)",
      "arguments": [
        "0x101977e6542090c711367978803d7af539ab9847"
      ],
      "transaction": {
        "from": "0xad9fdad276ab1a430fd03177a07350cd7c61e897",
        "to": "0xa728477606bb6f01b22d74a62928ec9edda90ae9",
        "gas": "0x10770",
        "value": "0x0",
        "input": "0xf9120af6000000000000000000000000101977e6542090c711367978803d7af539ab9847",
        "nonce": "0x225",
        "chainId": "0xaa36a7"
      },
      "additionalContracts": [],
      "isFixedGasLimit": false
    },
    {
      "hash": "0x3c75cc35a8cf036b236eb200c9ed721e1c0694b1b45dd1b881e603f16aa92b61",
      "transactionType": "CREATE",
      "contractName": "L1BurnCollector",
      "contractAddress": "0x79911436d94077f0e60b907a1b165504c80aecc0",
      "function": null,
      "arguments": [
        "0x101977e6542090c711367978803d7af539ab9847"
      ],
      "transaction": {
        "from": "0xad9fdad276ab1a430fd03177a07350cd7c61e897",
        "gas": "0x1d7b3f",
        "value": "0x0",
        "input": "0x60806040523461017d57604051601f6115a238819003918201601f19168301916001600160401b038311848410176101565780849260209460405283398101031261017d57516001600160a01b0381169081900361017d57331561016a575f8054336001600160a01b0319821681178355916001600160a01b03909116907f8be0079c531659141344cd1fd0a4f28419497f9722a3daafe3b4186f6b6457e09080a360405161018081016001600160401b038111828210176101565760405260648152605f6020820152605c60408201526058606082015260556080820152605260a0820152604e60c0820152604b60e0820152604861010082015260446101208201526041610140820152603c6101608201525f5b600c811061013e57600180546001600160a01b0319168417905560405161142090816101828239f35b600190602060ff845116930192816006015501610115565b634e487b7160e01b5f52604160045260245ffd5b631e4fbdf760e01b5f525f60045260245ffd5b5f80fdfe6080806040526004361015610012575f80fd5b5f905f3560e01c90816301ffc9a714610dea57508063066959cf14610db25780630811cf9c14610d8457806311735f7814610d58578063150b7a0214610b9a578063245a7bfc14610b715780634184e35614610a565780635d65c172146109c5578063642b715c14610980578063642c8148146108a4578063715018a61461085d578063726ec2ef146107d95780638409dd72146106345780638995b2fa1461055e5780638da5cb5b14610537578063961a4e8e1461040f578063b7433a81146103c6578063bc197c811461032d578063e366da2c146102f0578063f23a6e611461017a5763f2fde38b14610105575f80fd5b346101775760203660031901126101775761011e610e55565b6101266112b2565b6001600160a01b031680156101635781546001600160a01b03198116821783556001600160a01b03165f5160206113cb5f395f51905f528380a380f35b631e4fbdf760e01b82526004829052602482fd5b80fd5b50346101775760a036600319011261017757610194610e55565b5061019d610e6b565b606435916084356001600160401b0381116102e8576101c26020913690600401610e81565b90809291338552600283526101dc60408620541515610f3b565b810103126102ec57359033815260026020526101fd83856040842054611085565b91333b156102e857604051633b584ed360e21b81526044356004820152856024820152828160448183335af16102d3575b50918161027660e0945f5160206113ab5f395f51905f529694508360405191610258604084610f7c565b600c83526b22a92198989a9a90313ab93760a11b60208401526110c8565b50604080513381526020810196909652850152600c6228206f420406606085015260a060808501819052600790850152664552433131353560c81b60c08501526001600160a01b031692a260405163f23a6e6160e01b8152602090f35b6102de838092610f7c565b6102e8575f61022e565b5080fd5b5f80fd5b50346101775760203660031901126101775760209060ff906040906001600160a01b0361031b610e55565b16815260058452205416604051908152f35b50346101775760a036600319011261017757610347610e55565b50610350610e6b565b506044356001600160401b0381116102e857610370903690600401610f0b565b50506064356001600160401b0381116102e857610391903690600401610f0b565b50506084356001600160401b0381116102e8576103b2903690600401610e81565b505060405163bc197c8160e01b8152602090f35b503461017757610180366003190112610177573661018411610177576103ea6112b2565b6004815b600c81106103fa578280f35b600190602083359301928160060155016103ee565b503461017757606036600319011261017757610429610e55565b6024356044359160ff8316809303610533576104436112b2565b81156104fb576001600160a01b03168084526004602052604084205490919060ff1615610490575b8184526002602052604084205582526005602052604082209060ff1982541617905580f35b600354600160401b8110156104e7578060016104af9201600355610fca565b81546001600160a01b0360039290921b91821b19169084901b179055818452600460205260408420805460ff1916600117905561046b565b634e487b7160e01b85526041600452602485fd5b60405162461bcd60e51b815260206004820152601060248201526f042617365206d757374206265203e20360841b6044820152606490fd5b8380fd5b5034610177578060031936011261017757546040516001600160a01b039091168152602090f35b503461017757608036600319011261017757806001600160a01b03610581610e55565b16808252600260205261059960408320541515610f3b565b604051906064356020830152602082526105b4604083610f7c565b803b15610630576106038392918392604051948580948193637921219560e11b83523360048401523060248401526024356044840152604435606484015260a0608484015260a4830190611003565b03925af18015610625576106145750f35b8161061e91610f7c565b6101775780f35b6040513d84823e3d90fd5b5050fd5b50346101775761064336610ee1565b6001600160a01b03831680855260026020526040852054909390610668901515610f3b565b6040516323b872dd60e01b81523360048201523060248201526044810184905260208160648189895af19081156107ce578491610789575b506106ae906106c292611264565b848652600260205233906040872054611085565b90833b156107855784604051630852cd8d60e31b81528460048201528181602481838a5af1610770575b509061071f91508260405191610703604084610f7c565b600a83526922a921991810313ab93760b11b60208401526110c8565b600c6228206f4204069160405193845260208401526040830152606082015260a06080820152600560a082015264045524332360dc1b60c08201525f5160206113ab5f395f51905f5260e03392a280f35b8161077a91610f7c565b61078557845f6106ec565b8480fd5b90506020813d6020116107c6575b816107a460209383610f7c565b810103126107c257519081151582036107c2579050826106ae6106a0565b8580fd5b3d9150610797565b6040513d88823e3d90fd5b503461017757806003193601126101775761018090816040516107fc8282610f7c565b369037604051600682825b600c8210610847575050509061081d8383610f7c565b6040519190825b600c821061083157505050f35b6020806001928551815201930191019091610824565b6001602081928554815201930191019091610807565b50346101775780600319360112610177576108766112b2565b80546001600160a01b03198116825581906001600160a01b03165f5160206113cb5f395f51905f528280a380f35b5034610177576040366003190112610177576108be610e55565b602435906108ca6112b2565b81156104fb576001600160a01b03168083526004602052604083205490919060ff1615610915575b81835260026020526040832055815260056020526040812060ff19815416905580f35b600354600160401b81101561096c578060016109349201600355610fca565b81546001600160a01b0360039290921b91821b19169084901b179055818352600460205260408320805460ff191660011790556108f2565b634e487b7160e01b84526041600452602484fd5b50346101775760603660031901126101775761099a610e55565b604435916001600160a01b03831683036101775760206109bd8460243585611027565b604051908152f35b503461017757806109d536610ee1565b9160018060a01b03169182845260026020526109f660408520541515610f3b565b60405190602082015260208152610a0e604082610f7c565b823b15610a515761060392849283604051809681958294635c46a7ef60e11b84523360048501523060248501526044840152608060648401526084830190611003565b505050fd5b5034610177578060031936011261017757600354610a7381610fb3565b90610a816040519283610f7c565b808252610a8d81610fb3565b602083019390601f1901368537610aa382610fb3565b91610ab16040519384610f7c565b808352601f19610ac082610fb3565b01366020850137815b818110610b2857505060405192604084019060408552518091526060840194915b818110610b09578480610b0588878382036020850152610eae565b0390f35b82516001600160a01b0316865260209586019590920191600101610aea565b80610b37600192969496610fca565b838060a01b0391549060031b1c1680610b508387610fef565b52865260026020526040862054610b678287610fef565b5201939193610ac9565b50346101775780600319360112610177576001546040516001600160a01b039091168152602090f35b50346102ec5760803660031901126102ec57610bb4610e55565b50610bbd610e6b565b60443591906064356001600160401b0381116102ec57610be36020913690600401610e81565b90809291335f5260028352610bfd60405f20541515610f3b565b810103126102ec573590335f52600260205260405f2054600c6228206f42040690610c27836112d8565b81158280046001141715610d4457600c831015610d3057610c5b6127109291610c568493866006015490611072565b611072565b0404333b156102ec575f5160206113ab5f395f51905f529460e094604051630852cd8d60e31b81528860048201525f8160248183335af1610d19575b50610cc9908360405191610cac604084610f7c565b600b83526a22a9219b991890313ab93760a91b60208401526110c8565b506040519533875260208701526040860152606085015260a06080850152600660a08501526545524337323160d01b60c085015260018060a01b031692a2604051630a85bd0160e11b8152602090f35b610d269192505f90610f7c565b5f90610cc9610c97565b634e487b7160e01b5f52603260045260245ffd5b634e487b7160e01b5f52601160045260245ffd5b346102ec5760203660031901126102ec57600435600c8110156102ec5760209060060154604051908152f35b346102ec575f3660031901126102ec5760206040517319b703f65aa7e1e775bd06c2aa0d0d08c80f1c458152f35b346102ec5760203660031901126102ec576001600160a01b03610dd3610e55565b165f526002602052602060405f2054604051908152f35b346102ec5760203660031901126102ec576004359063ffffffff60e01b82168092036102ec57602091630a85bd0160e11b8114908115610e44575b8115610e33575b5015158152f35b6301ffc9a760e01b14905083610e2c565b630271189760e51b81149150610e25565b600435906001600160a01b03821682036102ec57565b602435906001600160a01b03821682036102ec57565b9181601f840112156102ec578235916001600160401b0383116102ec57602083818601950101116102ec57565b90602080835192838152019201905f5b818110610ecb5750505090565b8251845260209384019390920191600101610ebe565b60609060031901126102ec576004356001600160a01b03811681036102ec57906024359060443590565b9181601f840112156102ec578235916001600160401b0383116102ec576020808501948460051b0101116102ec57565b15610f4257565b60405162461bcd60e51b81526020600482015260126024820152714173736574206e6f7420656c696769626c6560701b6044820152606490fd5b601f909101601f19168101906001600160401b03821190821017610f9f57604052565b634e487b7160e01b5f52604160045260245ffd5b6001600160401b038111610f9f5760051b60200190565b600354811015610d305760035f5260205f2001905f90565b805115610d305760200190565b8051821015610d305760209160051b010190565b805180835260209291819084018484015e5f828201840152601f01601f1916010190565b6001600160a01b0381165f908152600260205260409020549192919061104e821515610f3b565b831561106a576110679361106191611264565b90611085565b90565b505050505f90565b81810292918115918404141715610d4457565b91906110a39061109d600c6228206f420406936112d8565b93611072565b600c821015610d305761271092610c566110c39285946006015490611072565b040490565b6040918251936110d88486610f7c565b60018552601f19840191823660208801378451936110f68686610f7c565b600185528336602087013785519361110e8786610f7c565b600185525f5b8181106112535750509086929161112d61117198610fe2565b5261113785610fe2565b5261114183610fe2565b5261114b82610fe2565b5061118260018060a01b0360015416938551968793606060208601526080850190610eae565b838103601f19018785015290610eae565b91601f19828403016060830152805180845260208401936020808360051b8301019301945f915b83831061122257505050506111c7925003601f198101855284610f7c565b803b156102ec578151630e69718b60e01b815260206004820152925f9184918290849082906111fa906024830190611003565b03925af1908115611219575061120d5750565b5f61121791610f7c565b565b513d5f823e3d90fd5b919360019193955060206112418192601f198682030187528951611003565b970193019301909288949295936111a9565b806060602080938901015201611114565b6001600160a01b03165f9081526005602052604090205460ff1680156112ae57604d8111610d4457600a0a90811561129a570490565b634e487b7160e01b5f52601260045260245ffd5b5090565b5f546001600160a01b031633036112c557565b63118cdaa760e01b5f523360045260245ffd5b6001600160a01b031680156113a357604051906370a0823160e01b825260048201526020816024817319b703f65aa7e1e775bd06c2aa0d0d08c80f1c455afa5f918161136f575b5061132b575061271090565b606481101561136857603281101561136157600a81101561135a57600111156113545761271090565b612af890565b50614e2090565b5061753090565b50619c4090565b9091506020813d60201161139b575b8161138b60209383610f7c565b810103126102ec5751905f61131f565b3d915061137e565b506127109056fee3de3cf8b55d889e1f0f229a17138e633440a6ba07397d3eb4f1c0c7c61ea27f8be0079c531659141344cd1fd0a4f28419497f9722a3daafe3b4186f6b6457e0a2646970667358221220f07cc04678fe35b5e8e4a95221726f847c3024a13a82d401016f39cfa9b4166564736f6c634300081e0033000000000000000000000000101977e6542090c711367978803d7af539ab9847",
        "nonce": "0x226",
        "chainId": "0xaa36a7"
      },
      "additionalContracts": [],
      "isFixedGasLimit": false
    },
    {
      "hash": "0x8eff677bc3240ccd841a3744e9524c033c33aa8e2c738159d534cacd8e283476",
      "transactionType": "CALL",
      "contractName": "PointsAggregator",
      "contractAddress": "0x101977e6542090c711367978803d7af539ab9847",
      "function": "setL1BurnCollector(address)",
      "arguments": [
        "0x79911436D94077f0e60B907a1b165504c80AeCc0"
      ],
      "transaction": {
        "from": "0xad9fdad276ab1a430fd03177a07350cd7c61e897",
        "to": "0x101977e6542090c711367978803d7af539ab9847",
        "gas": "0xf81b",
        "value": "0x0",
        "input": "0x63117eaf00000000000000000000000079911436d94077f0e60b907a1b165504c80aecc0",
        "nonce": "0x227",
        "chainId": "0xaa36a7"
      },
      "additionalContracts": [],
      "isFixedGasLimit": false
    },
    {
      "hash": "0x6c4e87b856216b67c6764b49d4112c9d2514488788af9571e72005213115f535",
      "transactionType": "CALL",
      "contractName": "L1BurnCollector",
      "contractAddress": "0x79911436d94077f0e60b907a1b165504c80aecc0",
      "function": "addEligibleAsset(address,uint256)",
      "arguments": [
        "0x614FE9079021688115A8Ec29b065344C033f9740",
        "100000"
      ],
      "transaction": {
        "from": "0xad9fdad276ab1a430fd03177a07350cd7c61e897",
        "to": "0x79911436d94077f0e60b907a1b165504c80aecc0",
        "gas": "0x26f9b",
        "value": "0x0",
        "input": "0x642c8148000000000000000000000000614fe9079021688115a8ec29b065344c033f974000000000000000000000000000000000000000000000000000000000000186a0",
        "nonce": "0x228",
        "chainId": "0xaa36a7"
      },
      "additionalContracts": [],
      "isFixedGasLimit": false
    },
    {
      "hash": "0xbd14a649131950923499e6910d55e1912ea84a5ab3eb29ddcb44f11ddd8f6839",
      "transactionType": "CALL",
      "contractName": "L1BurnCollector",
      "contractAddress": "0x79911436d94077f0e60b907a1b165504c80aecc0",
      "function": "addEligibleAsset(address,uint256)",
      "arguments": [
        "0x7Ef7dF0F64A2591fd5bE9c1E88728e59CB5D362B",
        "10000"
      ],
      "transaction": {
        "from": "0xad9fdad276ab1a430fd03177a07350cd7c61e897",
        "to": "0x79911436d94077f0e60b907a1b165504c80aecc0",
        "gas": "0x21348",
        "value": "0x0",
        "input": "0x642c81480000000000000000000000007ef7df0f64a2591fd5be9c1e88728e59cb5d362b0000000000000000000000000000000000000000000000000000000000002710",
        "nonce": "0x229",
        "chainId": "0xaa36a7"
      },
      "additionalContracts": [],
      "isFixedGasLimit": false
    },
    {
      "hash": "0xcbbb48fe2b30a1bb6859cbc40234ad544ac80c3b7d8bb2d0e78553e59b1cfc05",
      "transactionType": "CALL",
      "contractName": "L1BurnCollector",
      "contractAddress": "0x79911436d94077f0e60b907a1b165504c80aecc0",
      "function": "addEligibleAssetWithDecimals(address,uint256,uint8)",
      "arguments": [
        "0xD2DcB326F003DC8db194C74Db2749F8C653Df6aC",
        "1",
        "18"
      ],
      "transaction": {
        "from": "0xad9fdad276ab1a430fd03177a07350cd7c61e897",
        "to": "0x79911436d94077f0e60b907a1b165504c80aecc0",
        "gas": "0x28049",
        "value": "0x0",
        "input": "0x961a4e8e000000000000000000000000d2dcb326f003dc8db194c74db2749f8c653df6ac00000000000000000000000000000000000000000000000000000000000000010000000000000000000000000000000000000000000000000000000000000012",
        "nonce": "0x22a",
        "chainId": "0xaa36a7"
      },
      "additionalContracts": [],
      "isFixedGasLimit": false
    },
    {
      "hash": "0x5548813f84e7983486438eb0815b1a531a058a4c655af87a785ccafe895114f6",
      "transactionType": "CALL",
      "contractName": "DummyOneOfOne",
      "contractAddress": "0x614fe9079021688115a8ec29b065344c033f9740",
      "function": "setApprovalForAll(address,bool)",
      "arguments": [
        "0x79911436D94077f0e60B907a1b165504c80AeCc0",
        "true"
      ],
      "transaction": {
        "from": "0xad9fdad276ab1a430fd03177a07350cd7c61e897",
        "to": "0x614fe9079021688115a8ec29b065344c033f9740",
        "gas": "0x107d9",
        "value": "0x0",
        "input": "0xa22cb46500000000000000000000000079911436d94077f0e60b907a1b165504c80aecc00000000000000000000000000000000000000000000000000000000000000001",
        "nonce": "0x22b",
        "chainId": "0xaa36a7"
      },
      "additionalContracts": [],
      "isFixedGasLimit": false
    },
    {
      "hash": "0x2a0276caba75ae5af7e025f9ffff5deebcafa3c90b8fd5b4cdf337dc34aff915",
      "transactionType": "CALL",
      "contractName": "DummyEdition1155",
      "contractAddress": "0x7ef7df0f64a2591fd5be9c1e88728e59cb5d362b",
      "function": "setApprovalForAll(address,bool)",
      "arguments": [
        "0x79911436D94077f0e60B907a1b165504c80AeCc0",
        "true"
      ],
      "transaction": {
        "from": "0xad9fdad276ab1a430fd03177a07350cd7c61e897",
        "to": "0x7ef7df0f64a2591fd5be9c1e88728e59cb5d362b",
        "gas": "0x107c3",
        "value": "0x0",
        "input": "0xa22cb46500000000000000000000000079911436d94077f0e60b907a1b165504c80aecc00000000000000000000000000000000000000000000000000000000000000001",
        "nonce": "0x22c",
        "chainId": "0xaa36a7"
      },
      "additionalContracts": [],
      "isFixedGasLimit": false
    },
    {
      "hash": "0x89cb96a8e33b4673edf156c9288b40c5bd05f309da756c277e59b720d0cda950",
      "transactionType": "CALL",
      "contractName": "DummyERC20Burnable",
      "contractAddress": "0xd2dcb326f003dc8db194c74db2749f8c653df6ac",
      "function": "approve(address,uint256)",
      "arguments": [
        "0x79911436D94077f0e60B907a1b165504c80AeCc0",
        "115792089237316195423570985008687907853269984665640564039457584007913129639935"
      ],
      "transaction": {
        "from": "0xad9fdad276ab1a430fd03177a07350cd7c61e897",
        "to": "0xd2dcb326f003dc8db194c74db2749f8c653df6ac",
        "gas": "0xf9a4",
        "value": "0x0",
        "input": "0x095ea7b300000000000000000000000079911436d94077f0e60b907a1b165504c80aecc0ffffffffffffffffffffffffffffffffffffffffffffffffffffffffffffffff",
        "nonce": "0x22d",
        "chainId": "0xaa36a7"
      },
      "additionalContracts": [],
      "isFixedGasLimit": false
    },
    {
      "hash": "0x886dc6a9f476d6d7fc43d8ad4efc39967772efb32680a2c6bf5877dc031dbb6a",
      "transactionType": "CALL",
      "contractName": "EveryTwoMillionBlocks",
      "contractAddress": "0x674307b5d8340fa5d6a659d252d6b816bc85997a",
      "function": "setPointsManager(address)",
      "arguments": [
        "0xa728477606bB6f01b22D74a62928ec9eDdA90AE9"
      ],
      "transaction": {
        "from": "0xad9fdad276ab1a430fd03177a07350cd7c61e897",
        "to": "0x674307b5d8340fa5d6a659d252d6b816bc85997a",
        "gas": "0xb24b",
        "value": "0x0",
        "input": "0xcae42a08000000000000000000000000a728477606bb6f01b22d74a62928ec9edda90ae9",
        "nonce": "0x22e",
        "chainId": "0xaa36a7"
      },
      "additionalContracts": [],
      "isFixedGasLimit": false
    }
  ],
  "receipts": [
    {
      "status": "0x1",
      "cumulativeGasUsed": "0x8d0986",
      "logs": [
        {
          "address": "0xa728477606bb6f01b22d74a62928ec9edda90ae9",
          "topics": [
            "0x8be0079c531659141344cd1fd0a4f28419497f9722a3daafe3b4186f6b6457e0",
            "0x0000000000000000000000000000000000000000000000000000000000000000",
            "0x000000000000000000000000ad9fdad276ab1a430fd03177a07350cd7c61e897"
          ],
          "data": "0x",
          "blockHash": "0xa1db5e95f5a618d6f90ff66113b0feb56680f812deb9365fa7c402e5a4fe737c",
          "blockNumber": "0x90addc",
          "blockTimestamp": "0x68fbbc30",
          "transactionHash": "0x3cfb359567c6ade14dadc6bc6bf8e75b118ff9317985c21c8fdcf6408c30cb99",
          "transactionIndex": "0x31",
          "logIndex": "0x45",
          "removed": false
        }
      ],
      "logsBloom": "0x0000000000000000000000000000000000000000000000000080000000000000000000000000000000000000000000000000000000000000000000000000000000000000000000c000000000000000000001000000000000000000000000000000000000020000000000000000000800000000000000000000000000000000400000000000000040000000000000000000000000000000000000000000000000000010000000008000000000000000000000000000000000000000000000000000000000000000000000000000000000000000000000000000004000000020000000000000000000000000000000000000000000000000000000000000000000",
      "type": "0x2",
      "transactionHash": "0x3cfb359567c6ade14dadc6bc6bf8e75b118ff9317985c21c8fdcf6408c30cb99",
      "transactionIndex": "0x31",
      "blockHash": "0xa1db5e95f5a618d6f90ff66113b0feb56680f812deb9365fa7c402e5a4fe737c",
      "blockNumber": "0x90addc",
      "gasUsed": "0x4ccf2",
      "effectiveGasPrice": "0xf4249",
      "from": "0xad9fdad276ab1a430fd03177a07350cd7c61e897",
      "to": null,
      "contractAddress": "0xa728477606bb6f01b22d74a62928ec9edda90ae9"
    },
    {
      "status": "0x1",
      "cumulativeGasUsed": "0x8a1fe1",
      "logs": [
        {
          "address": "0x101977e6542090c711367978803d7af539ab9847",
          "topics": [
            "0x8be0079c531659141344cd1fd0a4f28419497f9722a3daafe3b4186f6b6457e0",
            "0x0000000000000000000000000000000000000000000000000000000000000000",
            "0x000000000000000000000000ad9fdad276ab1a430fd03177a07350cd7c61e897"
          ],
          "data": "0x",
          "blockHash": "0x008062074b535f50805e52a24fe752a53d2ce874d0cd0fb72a687daafc797ec7",
          "blockNumber": "0x90addd",
          "blockTimestamp": "0x68fbbc3c",
          "transactionHash": "0x244b55e26d3bded3520315d25828698c057ddcba61550274911bfed4e967c7ff",
          "transactionIndex": "0x3a",
          "logIndex": "0x3e",
          "removed": false
        }
      ],
      "logsBloom": "0x00000000000000000000000000000000000000000000000000800000000000000000000000000000000000200000000000000000000000000000000000000000000000000000004000000000000000000001000000000000000000000000000000000000020000000000000040000800000000000000000000000000000000400000000000000040000000000000000000000000000000000000000000000000000010000000000000000000000000000000000000000000000000000000000000000000000000000000000000000000000000000000000000000000000020000000000000000000000000000000000000000080000000000000000000000000",
      "type": "0x2",
      "transactionHash": "0x244b55e26d3bded3520315d25828698c057ddcba61550274911bfed4e967c7ff",
      "transactionIndex": "0x3a",
      "blockHash": "0x008062074b535f50805e52a24fe752a53d2ce874d0cd0fb72a687daafc797ec7",
      "blockNumber": "0x90addd",
      "gasUsed": "0x8fee8",
      "effectiveGasPrice": "0xf4249",
      "from": "0xad9fdad276ab1a430fd03177a07350cd7c61e897",
      "to": null,
      "contractAddress": "0x101977e6542090c711367978803d7af539ab9847"
    },
    {
      "status": "0x1",
      "cumulativeGasUsed": "0x5124cb",
      "logs": [],
      "logsBloom": "0x00000000000000000000000000000000000000000000000000000000000000000000000000000000000000000000000000000000000000000000000000000000000000000000000000000000000000000000000000000000000000000000000000000000000000000000000000000000000000000000000000000000000000000000000000000000000000000000000000000000000000000000000000000000000000000000000000000000000000000000000000000000000000000000000000000000000000000000000000000000000000000000000000000000000000000000000000000000000000000000000000000000000000000000000000000000",
      "type": "0x2",
      "transactionHash": "0x74143c3617b2a82c6ee610e167b01cf8c6a0467a99cf4fbdaf92e519792568e4",
      "transactionIndex": "0x2b",
      "blockHash": "0xbb5f95dd8cf4a1bacd8e8cc9bd084142db0023349e697dd9be8ec4ee5269889e",
      "blockNumber": "0x90adde",
      "gasUsed": "0xb421",
      "effectiveGasPrice": "0xf4249",
      "from": "0xad9fdad276ab1a430fd03177a07350cd7c61e897",
      "to": "0xa728477606bb6f01b22d74a62928ec9edda90ae9",
      "contractAddress": null
    },
    {
      "status": "0x1",
      "cumulativeGasUsed": "0x147ba25",
      "logs": [
        {
          "address": "0x79911436d94077f0e60b907a1b165504c80aecc0",
          "topics": [
            "0x8be0079c531659141344cd1fd0a4f28419497f9722a3daafe3b4186f6b6457e0",
            "0x0000000000000000000000000000000000000000000000000000000000000000",
            "0x000000000000000000000000ad9fdad276ab1a430fd03177a07350cd7c61e897"
          ],
          "data": "0x",
          "blockHash": "0x0572014887250d75ac695bbbf9e7b28138b122e0e6b820bc90ac847b42f3feeb",
          "blockNumber": "0x90addf",
          "blockTimestamp": "0x68fbbc54",
          "transactionHash": "0x3c75cc35a8cf036b236eb200c9ed721e1c0694b1b45dd1b881e603f16aa92b61",
          "transactionIndex": "0x59",
          "logIndex": "0xc2",
          "removed": false
        }
      ],
      "logsBloom": "0x00000000000000000000000000000000000000000000000000800000000000000000000000000002000000000000000000000000000000000000000000000000000000000000004000000000000000000001000000000000000000000000000000000000020000000000000000000800000000000000000000000000000000400000010000000040000000000000000000000000000000000000000000000000000010000000000000000000000000000000000000000000000000000000000000000000400000000000000000000000000000000000000000000000000020000000000000000000000000000000000000000000000000000000000000000000",
      "type": "0x2",
      "transactionHash": "0x3c75cc35a8cf036b236eb200c9ed721e1c0694b1b45dd1b881e603f16aa92b61",
      "transactionIndex": "0x59",
      "blockHash": "0x0572014887250d75ac695bbbf9e7b28138b122e0e6b820bc90ac847b42f3feeb",
      "blockNumber": "0x90addf",
      "gasUsed": "0x16ad93",
      "effectiveGasPrice": "0xf4249",
      "from": "0xad9fdad276ab1a430fd03177a07350cd7c61e897",
      "to": null,
      "contractAddress": "0x79911436d94077f0e60b907a1b165504c80aecc0"
    },
    {
      "status": "0x1",
      "cumulativeGasUsed": "0xcf21e9",
      "logs": [],
      "logsBloom": "0x00000000000000000000000000000000000000000000000000000000000000000000000000000000000000000000000000000000000000000000000000000000000000000000000000000000000000000000000000000000000000000000000000000000000000000000000000000000000000000000000000000000000000000000000000000000000000000000000000000000000000000000000000000000000000000000000000000000000000000000000000000000000000000000000000000000000000000000000000000000000000000000000000000000000000000000000000000000000000000000000000000000000000000000000000000000",
      "type": "0x2",
      "transactionHash": "0x8eff677bc3240ccd841a3744e9524c033c33aa8e2c738159d534cacd8e283476",
      "transactionIndex": "0x49",
      "blockHash": "0xef2740c434a0dc86cdfc099f43461d1ddc5ddc4217eca5448cf2307ca6ca09b8",
      "blockNumber": "0x90ade0",
      "gasUsed": "0xb3a0",
      "effectiveGasPrice": "0xf4249",
      "from": "0xad9fdad276ab1a430fd03177a07350cd7c61e897",
      "to": "0x101977e6542090c711367978803d7af539ab9847",
      "contractAddress": null
    },
    {
      "status": "0x1",
      "cumulativeGasUsed": "0xfa321f",
      "logs": [],
      "logsBloom": "0x00000000000000000000000000000000000000000000000000000000000000000000000000000000000000000000000000000000000000000000000000000000000000000000000000000000000000000000000000000000000000000000000000000000000000000000000000000000000000000000000000000000000000000000000000000000000000000000000000000000000000000000000000000000000000000000000000000000000000000000000000000000000000000000000000000000000000000000000000000000000000000000000000000000000000000000000000000000000000000000000000000000000000000000000000000000",
      "type": "0x2",
      "transactionHash": "0x6c4e87b856216b67c6764b49d4112c9d2514488788af9571e72005213115f535",
      "transactionIndex": "0x3b",
      "blockHash": "0x2d508ac3de29d4709c98b6e78646a1c52df5bbd26f716536ba5f0b81e9b5c928",
      "blockNumber": "0x90ade1",
      "gasUsed": "0x1c37c",
      "effectiveGasPrice": "0xf4249",
      "from": "0xad9fdad276ab1a430fd03177a07350cd7c61e897",
      "to": "0x79911436d94077f0e60b907a1b165504c80aecc0",
      "contractAddress": null
    },
    {
      "status": "0x1",
      "cumulativeGasUsed": "0xcffc00",
      "logs": [],
      "logsBloom": "0x00000000000000000000000000000000000000000000000000000000000000000000000000000000000000000000000000000000000000000000000000000000000000000000000000000000000000000000000000000000000000000000000000000000000000000000000000000000000000000000000000000000000000000000000000000000000000000000000000000000000000000000000000000000000000000000000000000000000000000000000000000000000000000000000000000000000000000000000000000000000000000000000000000000000000000000000000000000000000000000000000000000000000000000000000000000",
      "type": "0x2",
      "transactionHash": "0xbd14a649131950923499e6910d55e1912ea84a5ab3eb29ddcb44f11ddd8f6839",
      "transactionIndex": "0x40",
      "blockHash": "0xead5eb55f21095efa54f4dc688c74ec11fedeeb904e8990a84104472eda27bb9",
      "blockNumber": "0x90ade2",
      "gasUsed": "0x180a4",
      "effectiveGasPrice": "0xf4249",
      "from": "0xad9fdad276ab1a430fd03177a07350cd7c61e897",
      "to": "0x79911436d94077f0e60b907a1b165504c80aecc0",
      "contractAddress": null
    },
    {
      "status": "0x1",
      "cumulativeGasUsed": "0xd12e4d",
      "logs": [],
      "logsBloom": "0x00000000000000000000000000000000000000000000000000000000000000000000000000000000000000000000000000000000000000000000000000000000000000000000000000000000000000000000000000000000000000000000000000000000000000000000000000000000000000000000000000000000000000000000000000000000000000000000000000000000000000000000000000000000000000000000000000000000000000000000000000000000000000000000000000000000000000000000000000000000000000000000000000000000000000000000000000000000000000000000000000000000000000000000000000000000",
      "type": "0x2",
      "transactionHash": "0xcbbb48fe2b30a1bb6859cbc40234ad544ac80c3b7d8bb2d0e78553e59b1cfc05",
      "transactionIndex": "0x57",
      "blockHash": "0x98c2c98dd37948265dd61a1c0601cf5c6cc68663304eb44f9935cebe1490ead5",
      "blockNumber": "0x90ade4",
      "gasUsed": "0x1cf8f",
      "effectiveGasPrice": "0xf4249",
      "from": "0xad9fdad276ab1a430fd03177a07350cd7c61e897",
      "to": "0x79911436d94077f0e60b907a1b165504c80aecc0",
      "contractAddress": null
    },
    {
      "status": "0x1",
      "cumulativeGasUsed": "0x747c9c",
      "logs": [
        {
          "address": "0x614fe9079021688115a8ec29b065344c033f9740",
          "topics": [
            "0x17307eab39ab6107e8899845ad3d59bd9653f200f220920489ca2b5937696c31",
            "0x000000000000000000000000ad9fdad276ab1a430fd03177a07350cd7c61e897",
            "0x00000000000000000000000079911436d94077f0e60b907a1b165504c80aecc0"
          ],
          "data": "0x0000000000000000000000000000000000000000000000000000000000000001",
          "blockHash": "0x5c6df6b32103d291376b3f6df359a0c272d15f0411b8dbdf7c5d4d8a23ccb953",
          "blockNumber": "0x90ade5",
          "blockTimestamp": "0x68fbbc9c",
          "transactionHash": "0x5548813f84e7983486438eb0815b1a531a058a4c655af87a785ccafe895114f6",
          "transactionIndex": "0x3d",
          "logIndex": "0x60",
          "removed": false
        }
      ],
      "logsBloom": "0x00000000000000000000000000000000000000000000000008000000000200000000000000000000000000000000000000000000000000000000000000000000000000001000004000000000000000000004000000000000000000000000020002000000000000000000000080000000000000000000000000000000000000000000000000000040000000000000000000000000000000000000000000000000000010000000000000000000000000000000000000000000000000000000000000000000000000000000000000000000000000000000000000000000000000000000200800000000000000000000000000000000000000000000000000000000",
      "type": "0x2",
      "transactionHash": "0x5548813f84e7983486438eb0815b1a531a058a4c655af87a785ccafe895114f6",
      "transactionIndex": "0x3d",
      "blockHash": "0x5c6df6b32103d291376b3f6df359a0c272d15f0411b8dbdf7c5d4d8a23ccb953",
      "blockNumber": "0x90ade5",
      "gasUsed": "0xb469",
      "effectiveGasPrice": "0xf4249",
      "from": "0xad9fdad276ab1a430fd03177a07350cd7c61e897",
      "to": "0x614fe9079021688115a8ec29b065344c033f9740",
      "contractAddress": null
    },
    {
      "status": "0x1",
      "cumulativeGasUsed": "0x8e4028",
      "logs": [
        {
          "address": "0x7ef7df0f64a2591fd5be9c1e88728e59cb5d362b",
          "topics": [
            "0x17307eab39ab6107e8899845ad3d59bd9653f200f220920489ca2b5937696c31",
            "0x000000000000000000000000ad9fdad276ab1a430fd03177a07350cd7c61e897",
            "0x00000000000000000000000079911436d94077f0e60b907a1b165504c80aecc0"
          ],
          "data": "0x0000000000000000000000000000000000000000000000000000000000000001",
          "blockHash": "0x1b945929c3790c851482b32c00ab01d418f6c865158603d1aefd7c4d1d893964",
          "blockNumber": "0x90ade6",
          "blockTimestamp": "0x68fbbca8",
          "transactionHash": "0x2a0276caba75ae5af7e025f9ffff5deebcafa3c90b8fd5b4cdf337dc34aff915",
          "transactionIndex": "0x46",
          "logIndex": "0x75",
          "removed": false
        }
      ],
      "logsBloom": "0x00000000000000000000000000000000000000000000000000000000000200000000000000000000000000000000000000000000000000000000000000000000000000000000004000000000000000000000000000000000000000000000020002000000000000000000000080000000000000000000000000000000000000000000000000000040000000000000000000000000000000000000000000000000000010000000000000080000000000000000000000000000000000000000000000000000000000000000000000000000000000000000000000000000000000000000200800000000000000000000000040000000020000000000000000000000",
      "type": "0x2",
      "transactionHash": "0x2a0276caba75ae5af7e025f9ffff5deebcafa3c90b8fd5b4cdf337dc34aff915",
      "transactionIndex": "0x46",
      "blockHash": "0x1b945929c3790c851482b32c00ab01d418f6c865158603d1aefd7c4d1d893964",
      "blockNumber": "0x90ade6",
      "gasUsed": "0xb45a",
      "effectiveGasPrice": "0xf4249",
      "from": "0xad9fdad276ab1a430fd03177a07350cd7c61e897",
      "to": "0x7ef7df0f64a2591fd5be9c1e88728e59cb5d362b",
      "contractAddress": null
    },
    {
      "status": "0x1",
      "cumulativeGasUsed": "0xbcac5c",
      "logs": [
        {
          "address": "0xd2dcb326f003dc8db194c74db2749f8c653df6ac",
          "topics": [
            "0x8c5be1e5ebec7d5bd14f71427d1e84f3dd0314c0f7b2291e5b200ac8c7c3b925",
            "0x000000000000000000000000ad9fdad276ab1a430fd03177a07350cd7c61e897",
            "0x00000000000000000000000079911436d94077f0e60b907a1b165504c80aecc0"
          ],
          "data": "0xffffffffffffffffffffffffffffffffffffffffffffffffffffffffffffffff",
          "blockHash": "0x048b8f6fa9e0a674b29adc7507454a74212d9bc14090dc283a099223cdb1af42",
          "blockNumber": "0x90ade7",
          "blockTimestamp": "0x68fbbcb4",
          "transactionHash": "0x89cb96a8e33b4673edf156c9288b40c5bd05f309da756c277e59b720d0cda950",
          "transactionIndex": "0x41",
          "logIndex": "0x7b",
          "removed": false
        }
      ],
      "logsBloom": "0x00000000000000000000000000000000000000000000000000000000000200000000000000000000000000000000000000000000000000000000000000200000000000000000004000000000000000000000000000000000000000000000020000000002000000000000000080000000000000000000000000000000000000000000000000000040000000000000000008000000000000000000000000000000020010000000000000000000000000000000000000000000000000000000000000000000000000000000000000000000000000000000000000000000000000000010000000000000000000000000000000000000010000000000000000000000",
      "type": "0x2",
      "transactionHash": "0x89cb96a8e33b4673edf156c9288b40c5bd05f309da756c277e59b720d0cda950",
      "transactionIndex": "0x41",
      "blockHash": "0x048b8f6fa9e0a674b29adc7507454a74212d9bc14090dc283a099223cdb1af42",
      "blockNumber": "0x90ade7",
      "gasUsed": "0xb4bd",
      "effectiveGasPrice": "0xf4249",
      "from": "0xad9fdad276ab1a430fd03177a07350cd7c61e897",
      "to": "0xd2dcb326f003dc8db194c74db2749f8c653df6ac",
      "contractAddress": null
    },
    {
      "status": "0x1",
      "cumulativeGasUsed": "0xc41a44",
      "logs": [
        {
          "address": "0x674307b5d8340fa5d6a659d252d6b816bc85997a",
          "topics": [
            "0x7619eb3b0b2346250e2839a10da35fc58eea3632c6f045e8abffa1864bce2551"
          ],
          "data": "0x000000000000000000000000a728477606bb6f01b22d74a62928ec9edda90ae9",
          "blockHash": "0xfbf7b67ff5a533dff09bf41a754733a6027e921e582134e0d391a003edd96c25",
          "blockNumber": "0x90ade8",
          "blockTimestamp": "0x68fbbcc0",
          "transactionHash": "0x886dc6a9f476d6d7fc43d8ad4efc39967772efb32680a2c6bf5877dc031dbb6a",
          "transactionIndex": "0x50",
          "logIndex": "0x71",
          "removed": false
        }
      ],
      "logsBloom": "0x00000000000000000000000000000000000000000000000000000000000000000000000000000000000000000000000000000000800000000000000000000000000000000000000000000000000000004000000000000000000000800000000000000000000000000000000008000000000000000000000000000000000000000000000000000000000000000000400000000000000000000000000800000000000000000000000000000000000000000000000000000000000000000000000000000000000000000000000000000000000000000000000000000000000000000000000000000000000000000000000000000000000000000000000000000000",
      "type": "0x2",
      "transactionHash": "0x886dc6a9f476d6d7fc43d8ad4efc39967772efb32680a2c6bf5877dc031dbb6a",
      "transactionIndex": "0x50",
      "blockHash": "0xfbf7b67ff5a533dff09bf41a754733a6027e921e582134e0d391a003edd96c25",
      "blockNumber": "0x90ade8",
      "gasUsed": "0x8115",
      "effectiveGasPrice": "0xf4249",
      "from": "0xad9fdad276ab1a430fd03177a07350cd7c61e897",
      "to": "0x674307b5d8340fa5d6a659d252d6b816bc85997a",
      "contractAddress": null
    }
  ],
  "libraries": [],
  "pending": [],
  "returns": {},
  "timestamp": 1761328321900,
  "chain": 11155111,
  "commit": "c03d2ed"
}