{
  "transactions": [
    {
      "hash": "0xe3c0ef804366aacb7c74a3c9dbb730d8611ae67089033825efc6d551a26916c2",
      "transactionType": "CREATE",
      "contractName": "PointsManager",
      "contractAddress": "0x051cead10fe8ec708b749f77c5aa96eccb40063d",
      "function": null,
      "arguments": null,
      "transaction": {
        "from": "0xad9fdad276ab1a430fd03177a07350cd7c61e897",
        "gas": "0x108ee6",
        "value": "0x0",
        "input": "0x608080604052346071573315605e575f8054336001600160a01b0319821681178355916001600160a01b03909116907f8be0079c531659141344cd1fd0a4f28419497f9722a3daafe3b4186f6b6457e09080a3610da990816100768239f35b631e4fbdf760e01b5f525f60045260245ffd5b5f80fdfe60806040526004361015610011575f80fd5b5f3560e01c80630367aa2f146104f157806304bab535146104cc578063245a7bfc146104a457806334876a751461047957806361a2bc011461044a578063715018a614610406578063824113581461030957806382afd23b146103da5780638b68e038146103bd5780638da5cb5b146103965780639799b4e71461036c5780639af379a01461030e578063a967eee414610309578063b176aa45146102e3578063bbd78e93146102c6578063cd6a094a146102a8578063daf0e9c51461026e578063f2fde38b146101f8578063f9120af614610192578063fdc853711461012c5763fecfba3a14610100575f80fd5b34610128575f366003190112610128576003546040516001600160a01b039091168152602090f35b5f80fd5b34610128576020366003190112610128576004356001600160a01b038116908190036101285761015a6109da565b600380546001600160a01b031916821790557f23a1b510439be15b459a731ae3d1d5a6eac00dcd9433c69442716b282d888ac45f80a2005b34610128576020366003190112610128576004356001600160a01b03811690819003610128576101c06109da565b600280546001600160a01b031916821790557f602cec4b1583b07d071161da5eb9589444d2459201e2fab7753dc941e9351c215f80a2005b34610128576020366003190112610128576004356001600160a01b03811690819003610128576102266109da565b801561025b575f80546001600160a01b03198116831782556001600160a01b0316905f516020610d545f395f51905f529080a3005b631e4fbdf760e01b5f525f60045260245ffd5b34610128576020366003190112610128576020610299600435610294600454821061055d565b6105cb565b90549060031b1c604051908152f35b34610128576020366003190112610128576102c4600435610917565b005b34610128575f366003190112610128576020600754604051908152f35b346101285760203660031901126101285760206103016004356107b7565b604051908152f35b61036c565b34610128576060366003190112610128576044356001600160401b03811161012857366023820112156101285760048101356001600160401b0381116101285736602482840101116101285760246102c492016024356004356106b4565b34610128576020366003190112610128576004355f526001602052602060405f2054604051908152f35b34610128575f366003190112610128575f546040516001600160a01b039091168152602090f35b34610128575f366003190112610128576020600454604051908152f35b34610128576020366003190112610128576004355f526005602052602060405f20541515604051908152f35b34610128575f3660031901126101285761041e6109da565b5f80546001600160a01b0319811682556001600160a01b03165f516020610d545f395f51905f528280a3005b34610128576020366003190112610128576004355f526006602052602060ff60405f2054166040519015158152f35b3461012857602036600319011261012857602061029960043561049f600754821061055d565b61059f565b34610128575f366003190112610128576002546040516001600160a01b039091168152602090f35b34610128575f36600319011261012857602060ff60035460a01c166040519015158152f35b34610128576020366003190112610128576004358015158091036101285760207fd464f229795dda56c42369a406dade63ed87a7cc12e4ed0cbd917347cb23285a9161053b6109da565b6003805460ff60a01b191660a083901b60ff60a01b16179055604051908152a1005b1561056457565b60405162461bcd60e51b8152602060048201526013602482015272496e646578206f7574206f6620626f756e647360681b6044820152606490fd5b6007548110156105b75760075f5260205f2001905f90565b634e487b7160e01b5f52603260045260245ffd5b6004548110156105b75760045f5260205f2001905f90565b80548210156105b7575f5260205f2001905f90565b156105ff57565b60405162461bcd60e51b815260206004820152600f60248201526e27b7363c9030b3b3b932b3b0ba37b960891b6044820152606490fd5b1561063d57565b60405162461bcd60e51b815260206004820152600e60248201526d151bdad95b881c995d99585b195960921b6044820152606490fd5b908060209392818452848401375f828201840152601f01601f1916010190565b919082018092116106a057565b634e487b7160e01b5f52601160045260245ffd5b92907f93ed1bb877baa71c9aef86a79dac9360569bb566644be81c1bb4b1d617ad654a926106ed60018060a01b036002541633146105f8565b6106f685610a23565b845f52600660205261070f60ff60405f20541615610636565b81156107775761076490855f52600160205260405f2054936107318486610693565b94875f5260016020528560405f205515610769575b60405194859485526020850152606060408501526060840191610673565b0390a2565b61077287610b23565b610746565b9050835f52600160205261076460405f2054916040519384935f85526020850152606060408501526060840191610673565b5f1981146106a05760010190565b90815f5260066020526107d160ff60405f20541615610636565b815f52600160205260405f2054916107e881610b8f565b925f90600454925f5b848110610868575050610863579061080891610693565b915f906007545f5b818110610831575050610824919293610693565b9081039081116106a05790565b8261084a61083e8361059f565b90549060031b1c610b8f565b10610858575b600101610810565b600190930192610850565b925050565b610871816105cb565b90549060031b1c82811461090e57805f52600160205260405f20548481116109005784146108a5575b506001905b016107f1565b876108af82610b8f565b8181106108eb5714908390826108e1575b50506108cd575b5f61089a565b926108d96001916107a9565b9390506108c7565b109050825f6108c0565b505050926108fa6001916107a9565b9361089f565b5050926108fa6001916107a9565b5060019061089f565b61092c60018060a01b036002541633146105f8565b805f52600660205260ff60405f2054166109d757805f52600660205260405f20600160ff1982541617905561096081610c7b565b600754600160401b8110156109c3578161098582600161099d940160075560076105e3565b90919082549060031b91821b915f19901b1916179055565b7fafd1af0d18662bc4cbe66cd3885857264bb71d267eb57c0add879e84a5be31775f80a2565b634e487b7160e01b5f52604160045260245ffd5b50565b5f546001600160a01b031633036109ed57565b63118cdaa760e01b5f523360045260245ffd5b601f909101601f19168101906001600160401b038211908210176109c357604052565b6003546001600160a01b0316908115610b1f57602090602460405180948193633ca54fb160e21b835260048301525afa5f9181610ae2575b50610aa05760405162461bcd60e51b815260206004820152601860248201527714d95d995b881ddbdc991cc818da1958dac819985a5b195960421b6044820152606490fd5b15610aa757565b60405162461bcd60e51b815260206004820152601360248201527214d95d995b881ddbdc991cc81b9bdd081cd95d606a1b6044820152606490fd5b9091506020813d602011610b17575b81610afe60209383610a00565b810103126101285751801515810361012857905f610a5b565b3d9150610af1565b5050565b805f52600560205260405f20546109d757600454600160401b8110156109c35781610985826001610b59940160045560046105e3565b600454815f52600560205260405f20557f43f7deefc1f4e825772604a0bc01b8362eb1eef895e6bd4db39bfab68c1e94c85f80a2565b6003546001600160a01b0381169081610bee575b50508015610bb9575f1981019081116106a05790565b60405162461bcd60e51b815260206004820152600d60248201526c24b73b30b634b2103a37b5b2b760991b6044820152606490fd5b602060249260405193848092634083892560e01b82528760048301525afa5f9281610c47575b5015610ba35760ff91925060a01c168015610c3f575b610c3c575f1981019081116106a05790565b90565b508015610c2a565b9092506020813d602011610c73575b81610c6360209383610a00565b810103126101285751915f610c14565b3d9150610c56565b805f52600560205260405f20548015610b1f575f1981018181116106a0576004545f1981019081116106a057808203610d20575b5050506004548015610d0c575f1901610cc7816105cb565b8154905f199060031b1b19169055600455805f5260056020525f60408120557f76ae93cd7712c8a8b4ba0c1b9f441ddbd9e9ce3e425a93b15e8f6e37d8784fa65f80a2565b634e487b7160e01b5f52603160045260245ffd5b61098591610d30610d3f926105cb565b90549060031b1c9283916105cb565b5f52600560205260405f20555f8080610caf56fe8be0079c531659141344cd1fd0a4f28419497f9722a3daafe3b4186f6b6457e0a26469706673582212201655de0e81dee1b3149e265f2894c98198d8792d22e0368245791db757e150bd64736f6c634300081e0033",
        "nonce": "0x521",
        "chainId": "0xaa36a7"
      },
      "additionalContracts": [],
      "isFixedGasLimit": false
    },
    {
      "hash": "0x00e45e89bab9def664f29c0e0a952f60f569bcb7394aa85c452a36ead4119e8b",
      "transactionType": "CREATE",
      "contractName": "PointsAggregator",
      "contractAddress": "0xe792a14b2a667ea22808967efdf7b899dbaf5cd0",
      "function": null,
      "arguments": [
        "0x051cEaD10FE8ec708B749F77C5aA96EccB40063d"
      ],
      "transaction": {
        "from": "0xad9fdad276ab1a430fd03177a07350cd7c61e897",
        "gas": "0x158ff2",
        "value": "0x0",
        "input": "0x60803460d957601f6111eb38819003918201601f19168301916001600160401b0383118484101760dd5780849260209460405283398101031260d957516001600160a01b0381169081900360d957331560c6575f8054336001600160a01b0319821681178355604051939290916001600160a01b0316907f8be0079c531659141344cd1fd0a4f28419497f9722a3daafe3b4186f6b6457e09080a36064600555620f4240600655600180546001600160a01b0319169190911790556110f990816100f28239f35b631e4fbdf760e01b5f525f60045260245ffd5b5f80fd5b634e487b7160e01b5f52604160045260245ffdfe6080806040526004361015610012575f80fd5b5f3560e01c9081630e69718b146108ba575080632be1f6a114610892578063303a9772146107bd5780633622cc24146106c7578063464128781461068a57806352f5ad77146106245780635fe12de01461053757806363117eaf14610440578063715018a6146103fc578063857fbd45146103cc5780638da5cb5b146103a5578063904b5f031461037d578063ba8f93dd14610311578063cb512762146102f4578063d056f74814610214578063d56d229d146101ec578063d89d9f5f14610180578063f2fde38b1461010e5763f4cb4e74146100ed575f80fd5b3461010a575f36600319011261010a576020600654604051908152f35b5f80fd5b3461010a57602036600319011261010a57610127610e8b565b61012f610ffd565b6001600160a01b0316801561016d575f80546001600160a01b03198116831782556001600160a01b0316905f5160206110845f395f51905f529080a3005b631e4fbdf760e01b5f525f60045260245ffd5b3461010a575f36600319011261010a57610198610ffd565b6001546001600160a01b0316803b1561010a575f8091602460405180948193637c89057b60e11b83523060048401525af180156101e1576101d557005b5f6101df91610ea1565b005b6040513d5f823e3d90fd5b3461010a575f36600319011261010a576003546040516001600160a01b039091168152602090f35b3461010a57604036600319011261010a57600435602435610233610ffd565b81156102b657801561027957816040917f91db6b7f20e639260d4935eae0edd06bea12bc6f0ce68b75c3ef5e43425b0328936005558060065582519182526020820152a1005b60405162461bcd60e51b815260206004820152601560248201527404d61782064656c7461206d757374206265203e203605c1b6044820152606490fd5b60405162461bcd60e51b815260206004820152601660248201527504d617820746f6b656e73206d757374206265203e20360541b6044820152606490fd5b3461010a575f36600319011261010a576020600554604051908152f35b3461010a57602036600319011261010a5761032a610e8b565b610332610ffd565b6001546001600160a01b031690813b1561010a5760405163f2fde38b60e01b81526001600160a01b039091166004820152905f908290602490829084905af180156101e1576101d557005b3461010a575f36600319011261010a576001546040516001600160a01b039091168152602090f35b3461010a575f36600319011261010a575f546040516001600160a01b039091168152602090f35b3461010a57602036600319011261010a576004356001600160401b03811161010a576101df903690600401610e5e565b3461010a575f36600319011261010a57610414610ffd565b5f80546001600160a01b0319811682556001600160a01b03165f5160206110845f395f51905f528280a3005b3461010a57602036600319011261010a57610459610e8b565b610461610ffd565b6002546001600160a01b031680151580610524575b6104e9575b50600280546001600160a01b0319166001600160a01b03929092169182179055806104b4575b5f5160206110445f395f51905f525f80a2005b805f52600460205260405f20600160ff19825416179055805f5160206110245f395f51905f52602060405160018152a26104a1565b5f52600460205260405f2060ff19815416905560018060a01b03600254165f5160206110245f395f51905f5260206040515f8152a28161047b565b506001600160a01b038216811415610476565b3461010a57606036600319011261010a576004356024356044356001600160401b03811161010a5761056d903690600401610e5e565b9091610577610ffd565b6001546001600160a01b031692833b1561010a575f60405180956304d79bcd60e51b8252876004830152846024830152606060448301528183816105bf606482018a89610fdd565b03925af19081156101e1577f251f0f9c21a717d93bc2910b67f85c577dfbe5b5f42e8bd72c012df160a8451c9461060f92610614575b506040519384938452604060208501526040840191610fdd565b0390a2005b5f61061e91610ea1565b866105f5565b3461010a57602036600319011261010a5761063d610e8b565b610645610ffd565b600380546001600160a01b0319166001600160a01b039290921691821790557fa27bdd7b0c9c795c64307abe4a8b21d993ec4bd2601c38dfaee5cfc991375ae85f80a2005b3461010a57602036600319011261010a576001600160a01b036106ab610e8b565b165f526004602052602060ff60405f2054166040519015158152f35b3461010a57604036600319011261010a576106e0610e8b565b602435801591821580920361010a576106f7610ffd565b6001600160a01b0316918215610784575f5160206110245f395f51905f5291602091845f526004835260405f2060ff1981541660ff84161790556002549060018060a01b0382168614908161077c575b50610757575b50604051908152a2005b6001600160a01b0319166002555f5f5160206110445f395f51905f528180a28461074d565b905086610747565b60405162461bcd60e51b815260206004820152601160248201527024b73b30b634b21031b7b63632b1ba37b960791b6044820152606490fd5b3461010a57602036600319011261010a57600354600435906001600160a01b03163303610857576001546001600160a01b0316803b1561010a575f80916024604051809481936366b504a560e11b83528760048401525af180156101e157610847575b507fa26e709207c485dc1734608fb4f7d6241d92d43688d70bf406344da85fcf3c1a5f80a2005b5f61085191610ea1565b81610820565b60405162461bcd60e51b8152602060048201526013602482015272155b985d5d1a1bdc9a5e9959081c995d99585b606a1b6044820152606490fd5b3461010a575f36600319011261010a576002546040516001600160a01b039091168152602090f35b3461010a57602036600319011261010a576004356001600160401b03811161010a576108ea903690600401610e5e565b9091335f52600460205260ff60405f20541615610e2357508082019160608184031261010a5780356001600160401b03811161010a578361092c918301610eef565b9060208101356001600160401b03811161010a578461094c918301610eef565b9060408101356001600160401b03811161010a57810185601f8201121561010a5780359061097982610ed8565b966109876040519889610ea1565b82885260208089019360051b8301019181831161010a5760208101935b838510610de5575050505050825182518091149081610dda575b5015610da157600154604051637f67dd1d60e11b815290602090829060049082906001600160a01b03165afa9081156101e1575f91610d5f575b505f1993906001600160a01b03168015159081610cf5575b505f915f935f975f5b8351811015610ccf5760018a01809a11610b60578960055410610c3757610a408185610f91565b51888c8215610bff57610a538483610f91565b5160065410610bc6578780610bbd575b610b845790610a8884610a818160018060a01b036001541694610f91565b5193610f91565b5190803b1561010a575f8f92610aca928e95836040518096819582946304d79bcd60e51b84528c60048501526024840152606060448401526064830190610fb9565b03925af19081610b74575b50610b3157610b1a849392610b0585610afe6001985f5160206110645f395f51905f5296610f91565b5192610f91565b51604051928392606084526060840190610fb9565b906020830152600560408301520390a25b01610a19565b50610b4191509180989792610f91565b518101809111610b60579460018101809111610b605760019096610b2b565b634e487b7160e01b5f52601160045260245ffd5b5f610b7e91610ea1565b8f610ad5565b610ba8849392610b0585610afe6001985f5160206110645f395f51905f5296610f91565b906020830152600360408301520390a2610b2b565b508b8311610a63565b610bea849392610b0585610afe6001985f5160206110645f395f51905f5296610f91565b906020830152600260408301520390a2610b2b565b610c23849392610b0585610afe6001985f5160206110645f395f51905f5296610f91565b9060208301528660408301520390a2610b2b565b60c09950610c99969850610c8191945096610b0588610afe81610c7a5f5160206110a45f395f51905f529f989c5f5160206110645f395f51905f52989b9d610f91565b5197610f91565b906020830152600460408301520390a25b3691610f4c565b6020815191012090604051926080845260046080850152636261736560e01b60a0850152602084015260408301526060820152a1005b509250929450505f5160206110a45f395f51905f52965060c09550610c99929450610c92565b60206004916040519283809263144613ff60e31b82525afa5f9181610d2b575b50610d245750505f5b87610a10565b9450610d1e565b9091506020813d602011610d57575b81610d4760209383610ea1565b8101031261010a57519089610d15565b3d9150610d3a565b90506020813d602011610d99575b81610d7a60209383610ea1565b8101031261010a57516001600160a01b038116810361010a57866109f8565b3d9150610d6d565b60405162461bcd60e51b81526020600482015260116024820152704d69736d6174636865642061727261797360781b6044820152606490fd5b9050855114866109be565b84356001600160401b03811161010a57820183603f8201121561010a57602091610e188583604086809601359101610f4c565b8152019401936109a4565b62461bcd60e51b81526020600482015260166024820152752ab730baba3437b934bd32b21031b7b63632b1ba37b960511b6044820152606490fd5b9181601f8401121561010a578235916001600160401b03831161010a576020838186019501011161010a57565b600435906001600160a01b038216820361010a57565b601f909101601f19168101906001600160401b03821190821017610ec457604052565b634e487b7160e01b5f52604160045260245ffd5b6001600160401b038111610ec45760051b60200190565b9080601f8301121561010a578135610f0681610ed8565b92610f146040519485610ea1565b81845260208085019260051b82010192831161010a57602001905b828210610f3c5750505090565b8135815260209182019101610f2f565b9192916001600160401b038211610ec45760405191610f75601f8201601f191660200184610ea1565b82948184528183011161010a578281602093845f960137010152565b8051821015610fa55760209160051b010190565b634e487b7160e01b5f52603260045260245ffd5b805180835260209291819084018484015e5f828201840152601f01601f1916010190565b908060209392818452848401375f828201840152601f01601f1916010190565b5f546001600160a01b0316330361101057565b63118cdaa760e01b5f523360045260245ffdfe62cc763fb81fa7689c024380a63a22c0e9720f9003fdb916c8ea8d771da509c8e9cc17a40c066a3782e2f682d8d6d2625af5474f0bbc68b240292ff629332a395d4f5081b6ed44fe501a3524e8e0680d4ec5cb50155ad7b99c343340440f95348be0079c531659141344cd1fd0a4f28419497f9722a3daafe3b4186f6b6457e0dc14a7c0eaad9fa8a893ebeff5a383b51da15652ccbbe676bfb9716f6d3d7ef2a2646970667358221220c34704ecec88e38b882986025383a1f5e944e113bf7d3df8eaf93b119597bd8664736f6c634300081e0033000000000000000000000000051cead10fe8ec708b749f77c5aa96eccb40063d",
        "nonce": "0x522",
        "chainId": "0xaa36a7"
      },
      "additionalContracts": [],
      "isFixedGasLimit": false
    },
    {
      "hash": "0x44cbea297269b2c5ef10e16f4e90e99424af852595f3fea3d10e54dd7a2720c5",
      "transactionType": "CALL",
      "contractName": "PointsManager",
      "contractAddress": "0x051cead10fe8ec708b749f77c5aa96eccb40063d",
      "function": "setAggregator(address)",
      "arguments": [
        "0xE792A14b2A667EA22808967efDf7B899dBaF5CD0"
      ],
      "transaction": {
        "from": "0xad9fdad276ab1a430fd03177a07350cd7c61e897",
        "to": "0x051cead10fe8ec708b749f77c5aa96eccb40063d",
        "gas": "0x10efa",
        "value": "0x0",
        "input": "0xf9120af6000000000000000000000000e792a14b2a667ea22808967efdf7b899dbaf5cd0",
        "nonce": "0x523",
        "chainId": "0xaa36a7"
      },
      "additionalContracts": [],
      "isFixedGasLimit": false
    },
    {
      "hash": "0x23845d38ee4c0f984e950f723956d1cd83ea519bab164ffa16a43ee1d1e11c0e",
      "transactionType": "CREATE",
      "contractName": "L1BurnCollector",
      "contractAddress": "0x6709b876b564c170a35177732abd4db5dac85ad6",
      "function": null,
      "arguments": [
        "0xE792A14b2A667EA22808967efDf7B899dBaF5CD0",
        "0x614FE9079021688115A8Ec29b065344C033f9740"
      ],
      "transaction": {
        "from": "0xad9fdad276ab1a430fd03177a07350cd7c61e897",
        "gas": "0x238016",
        "value": "0x0",
        "input": "0x6080604052346101c857604051601f611aa138819003918201601f19168301916001600160401b038311848410176101a15780849260409485528339810103126101c8576100586020610051836101cc565b92016101cc565b9033156101b5575f8054336001600160a01b0319821681178355916001600160a01b03909116907f8be0079c531659141344cd1fd0a4f28419497f9722a3daafe3b4186f6b6457e09080a360405161018081016001600160401b038111828210176101a15760405260648152605f6020820152605c60408201526058606082015260556080820152605260a0820152604e60c0820152604b60e0820152604861010082015260446101208201526041610140820152603c6101608201525f5b600c811061018957505062093a80601355600180546001600160a01b039283166001600160a01b0319918216179091556006805493909216921682179055604051907fd1cca643b71f0b734e29ea3538d99dfbab03ad2fb3b71aec3c3917dddc893fa45f80a26118c090816101e18239f35b600190602060ff845116930192816007015501610117565b634e487b7160e01b5f52604160045260245ffd5b631e4fbdf760e01b5f525f60045260245ffd5b5f80fd5b51906001600160a01b03821682036101c85756fe6080806040526004361015610012575f80fd5b5f905f3560e01c90816301ffc9a714610f9c57508063066959cf14610f6457806311735f7814610f38578063150b7a0214610d6f578063245a7bfc14610d465780634184e35614610c2b5780635d65c17214610b9a578063642b715c14610b55578063642c814814610a79578063715018a614610a32578063726ec2ef146109ae5780638409dd72146108125780638995b2fa1461073c5780638da5cb5b1461071557806393a9ebc8146106dc578063961a4e8e146105b4578063a91339c514610548578063b7433a81146104ff578063ba46d03214610497578063bc197c81146103fe578063d07e7d15146103e0578063e366da2c146103a3578063ebd757bc14610355578063f0bd0e791461032c578063f23a6e61146101b15763f2fde38b1461013c575f80fd5b346101ae5760203660031901126101ae57610155611007565b61015d61169a565b6001600160a01b0316801561019a5781546001600160a01b03198116821783556001600160a01b03165f51602061186b5f395f51905f528380a380f35b631e4fbdf760e01b82526004829052602482fd5b80fd5b50346101ae5760a03660031901126101ae576101cb611007565b506101d461101d565b606435916084356001600160401b038111610328576101f96020913690600401611033565b9080929133855260028352610213604086205415156110ed565b81010312610324573561022583611237565b338252600260205261023c838560408520546112d4565b91333b156101ae57604051633b584ed360e21b81526044356004820152856024820152818160448183335af161030f575b50916102b65f51602061184b5f395f51905f5294928460e0955050826040519161029860408461112e565b600c83526b22a92198989a9a90313ab93760a11b6020840152611316565b6102be6114b2565b906040519533875260208701526040860152606085015260a06080850152600760a0850152664552433131353560c81b60c085015260018060a01b031692a260405163f23a6e6160e01b8152602090f35b61031a82809261112e565b6101ae575f61026d565b5f80fd5b5080fd5b50346101ae57806003193601126101ae576006546040516001600160a01b039091168152602090f35b50346101ae5760203660031901126101ae577f7d7a00053d5298272b41d483f4fc1dd731606e3212d693b00258bce8e0a6c14e602060043561039561169a565b80601355604051908152a180f35b50346101ae5760203660031901126101ae5760209060ff906040906001600160a01b036103ce611007565b16815260058452205416604051908152f35b50346101ae57806003193601126101ae576020601354604051908152f35b50346101ae5760a03660031901126101ae57610418611007565b5061042161101d565b506044356001600160401b038111610328576104419036906004016110bd565b50506064356001600160401b038111610328576104629036906004016110bd565b50506084356001600160401b03811161032857610483903690600401611033565b505060405163bc197c8160e01b8152602090f35b50346101ae5760203660031901126101ae576104b1611007565b6104b961169a565b600680546001600160a01b0319166001600160a01b039290921691821790557fd1cca643b71f0b734e29ea3538d99dfbab03ad2fb3b71aec3c3917dddc893fa48280a280f35b50346101ae576101803660031901126101ae5736610184116101ae5761052361169a565b6004815b600c8110610533578280f35b60019060208335930192816007015501610527565b50346101ae57806003193601126101ae5761056233611237565b33815260146020526040812054156105775780f35b60405162461bcd60e51b81526020600482015260156024820152744e6f20536f6e672d412d4461792062616c616e636560581b6044820152606490fd5b50346101ae5760603660031901126101ae576105ce611007565b6024356044359160ff83168093036106d8576105e861169a565b81156106a0576001600160a01b03168084526004602052604084205490919060ff1615610635575b8184526002602052604084205582526005602052604082209060ff1982541617905580f35b600354600160401b81101561068c57806001610654920160035561117c565b81546001600160a01b0360039290921b91821b19169084901b179055818452600460205260408420805460ff19166001179055610610565b634e487b7160e01b85526041600452602485fd5b60405162461bcd60e51b815260206004820152601060248201526f042617365206d757374206265203e20360841b6044820152606490fd5b8380fd5b50346101ae5760203660031901126101ae576020906040906001600160a01b03610704611007565b168152601483522054604051908152f35b50346101ae57806003193601126101ae57546040516001600160a01b039091168152602090f35b50346101ae5760803660031901126101ae57806001600160a01b0361075f611007565b168082526002602052610777604083205415156110ed565b6040519060643560208301526020825261079260408361112e565b803b1561080e576107e18392918392604051948580948193637921219560e11b83523360048401523060248401526024356044840152604435606484015260a0608484015260a48301906111b5565b03925af18015610803576107f25750f35b816107fc9161112e565b6101ae5780f35b6040513d84823e3d90fd5b5050fd5b50346101ae5761082136611093565b6001600160a01b038316808552600260205260408520549093906108469015156110ed565b602085604051828101906323b872dd60e01b82523360248201523060448201528660648201526064815261087b60848261112e565b519082885af1156109a35784513d61099a5750833b155b610986576108ac836108c0926108a733611237565b61164c565b8486526002602052339060408720546112d4565b90833b156109825784604051630852cd8d60e31b81528460048201528181602481838a5af161096d575b509061091d9150826040519161090160408461112e565b600a83526922a921991810313ab93760b11b6020840152611316565b6109256114b2565b9160405193845260208401526040830152606082015260a06080820152600560a082015264045524332360dc1b60c08201525f51602061184b5f395f51905f5260e03392a280f35b816109779161112e565b61098257845f6108ea565b8480fd5b635274afe760e01b85526004849052602485fd5b60011415610892565b6040513d86823e3d90fd5b50346101ae57806003193601126101ae5761018090816040516109d1828261112e565b369037604051600782825b600c8210610a1c57505050906109f2838361112e565b6040519190825b600c8210610a0657505050f35b60208060019285518152019301910190916109f9565b60016020819285548152019301910190916109dc565b50346101ae57806003193601126101ae57610a4b61169a565b80546001600160a01b03198116825581906001600160a01b03165f51602061186b5f395f51905f528280a380f35b50346101ae5760403660031901126101ae57610a93611007565b60243590610a9f61169a565b81156106a0576001600160a01b03168083526004602052604083205490919060ff1615610aea575b81835260026020526040832055815260056020526040812060ff19815416905580f35b600354600160401b811015610b4157806001610b09920160035561117c565b81546001600160a01b0360039290921b91821b19169084901b179055818352600460205260408320805460ff19166001179055610ac7565b634e487b7160e01b84526041600452602484fd5b50346101ae5760603660031901126101ae57610b6f611007565b604435916001600160a01b03831683036101ae576020610b9284602435856111d9565b604051908152f35b50346101ae5780610baa36611093565b9160018060a01b0316918284526002602052610bcb604085205415156110ed565b60405190602082015260208152610be360408261112e565b823b15610c26576107e192849283604051809681958294635c46a7ef60e11b845233600485015230602485015260448401526080606484015260848301906111b5565b505050fd5b50346101ae57806003193601126101ae57600354610c4881611165565b90610c56604051928361112e565b808252610c6281611165565b602083019390601f1901368537610c7882611165565b91610c86604051938461112e565b808352601f19610c9582611165565b01366020850137815b818110610cfd57505060405192604084019060408552518091526060840194915b818110610cde578480610cda88878382036020850152611060565b0390f35b82516001600160a01b0316865260209586019590920191600101610cbf565b80610d0c60019296949661117c565b838060a01b0391549060031b1c1680610d2583876111a1565b52865260026020526040862054610d3c82876111a1565b5201939193610c9e565b50346101ae57806003193601126101ae576001546040516001600160a01b039091168152602090f35b503461032457608036600319011261032457610d89611007565b50610d9261101d565b60443591906064356001600160401b03811161032457610db86020913690600401611033565b90809291335f5260028352610dd260405f205415156110ed565b81010312610324573590610de581611237565b335f52600260205260405f2054610dfa6114b2565b610e0383611759565b9180158180046001141715610f2457600c821015610f105761271092610e32610e379285946007015490611224565b611224565b0404333b1561032457610ea560e0935f51602061184b5f395f51905f5295604051630852cd8d60e31b81528860048201525f8160248183335af1610efd575b50508260405191610e8860408461112e565b600b83526a22a9219b991890313ab93760a91b6020840152611316565b610ead6114b2565b906040519533875260208701526040860152606085015260a06080850152600660a08501526545524337323160d01b60c085015260018060a01b031692a2604051630a85bd0160e11b8152602090f35b610f0991505f9061112e565b5f5f610e76565b634e487b7160e01b5f52603260045260245ffd5b634e487b7160e01b5f52601160045260245ffd5b3461032457602036600319011261032457600435600c8110156103245760209060070154604051908152f35b34610324576020366003190112610324576001600160a01b03610f85611007565b165f526002602052602060405f2054604051908152f35b34610324576020366003190112610324576004359063ffffffff60e01b821680920361032457602091630a85bd0160e11b8114908115610ff6575b8115610fe5575b5015158152f35b6301ffc9a760e01b14905083610fde565b630271189760e51b81149150610fd7565b600435906001600160a01b038216820361032457565b602435906001600160a01b038216820361032457565b9181601f84011215610324578235916001600160401b038311610324576020838186019501011161032457565b90602080835192838152019201905f5b81811061107d5750505090565b8251845260209384019390920191600101611070565b6060906003190112610324576004356001600160a01b038116810361032457906024359060443590565b9181601f84011215610324578235916001600160401b038311610324576020808501948460051b01011161032457565b156110f457565b60405162461bcd60e51b81526020600482015260126024820152714173736574206e6f7420656c696769626c6560701b6044820152606490fd5b601f909101601f19168101906001600160401b0382119082101761115157604052565b634e487b7160e01b5f52604160045260245ffd5b6001600160401b0381116111515760051b60200190565b600354811015610f105760035f5260205f2001905f90565b805115610f105760200190565b8051821015610f105760209160051b010190565b805180835260209291819084018484015e5f828201840152601f01601f1916010190565b6001600160a01b0381165f90815260026020526040902054919291906112008215156110ed565b831561121c57611219936112139161164c565b906112d4565b90565b505050505f90565b81810292918115918404141715610f2457565b6006546001600160a01b031680159081156112ca575b506112c75761125b816116c0565b1561129a576001600160a01b03165f818152601460205260409020541561127f5750565b601354420190814211610f24575f52601460205260405f2055565b6001600160a01b03165f818152601460205260409020546112b85750565b5f5260146020525f6040812055565b50565b90503b155f61124d565b91906112f1906112eb6112e56114b2565b93611759565b93611224565b600c821015610f105761271092610e326113119285946007015490611224565b040490565b604091825193611326848661112e565b60018552601f1984019182366020880137845193611344868661112e565b600185528336602087013785519361135c878661112e565b600185525f5b8181106114a15750509086929161137b6113bf98611194565b5261138585611194565b5261138f83611194565b5261139982611194565b506113d060018060a01b0360015416938551968793606060208601526080850190611060565b838103601f19018785015290611060565b91601f19828403016060830152805180845260208401936020808360051b8301019301945f915b8383106114705750505050611415925003601f19810185528461112e565b803b15610324578151630e69718b60e01b815260206004820152925f9184918290849082906114489060248301906111b5565b03925af1908115611467575061145b5750565b5f6114659161112e565b565b513d5f823e3d90fd5b9193600191939550602061148f8192601f1986820301875289516111b5565b970193019301909288949295936113f7565b806060602080938901015201611362565b62015180420462010bd981019062010bd982125f8212908015821691151617610f24576226496501905f62253d8c83129112908015821691151617610f24578060021b600481058203610f245762023ab19005908162023ab1029062023ab182058303610f245760038201915f600384129112908015821691151617610f2457600461153f920590611832565b60018101600181125f8312908015821691151617610f245780610fa00290610fa0820503610f245762164b09900590816105b502906105b582058303610f2457600461158c920590611832565b601f8101905f601f83129112908015821691151617610f245780605002605081058203610f245761098f9005908161098f029061098f82058303610f245760506115d7920590611832565b50600b81059060028101905f600283129112908015821691151617610f245781600c02600c81058303610f245761160d91611832565b926030198101908113600116610f245780606402906064820503610f245761163d9261163891611817565b611817565b505f198101908111610f245790565b6001600160a01b03165f9081526005602052604090205460ff16801561169657604d8111610f2457600a0a908115611682570490565b634e487b7160e01b5f52601260045260245ffd5b5090565b5f546001600160a01b031633036116ad57565b63118cdaa760e01b5f523360045260245ffd5b6006546001600160a01b03169081158015611750575b61174a576040516370a0823160e01b81526001600160a01b03909116600482015290602090829060249082905afa5f9181611716575b5061121957505f90565b9091506020813d602011611742575b816117326020938361112e565b810103126103245751905f61170c565b3d9150611725565b50505f90565b50813b156116d6565b6001600160a01b038116908115611805576006546001600160a01b0316801590811561180d575b506118055761178e906116c0565b908115611805575f52601460205260405f205480159081156117fb575b506117f45760648110156117ed5760328110156117e657600a8110156117df57600111156117d95761271090565b612af890565b50614e2090565b5061753090565b50619c4090565b5061271090565b905042105f6117ab565b505061271090565b90503b155f611780565b9190915f8382019384129112908015821691151617610f2457565b81810392915f138015828513169184121617610f245756fee3de3cf8b55d889e1f0f229a17138e633440a6ba07397d3eb4f1c0c7c61ea27f8be0079c531659141344cd1fd0a4f28419497f9722a3daafe3b4186f6b6457e0a26469706673582212208d5cf6dc177cd90090dbb52a883b3ef3cf78f29f6a5d03e66acbac8e0c70510164736f6c634300081e0033000000000000000000000000e792a14b2a667ea22808967efdf7b899dbaf5cd0000000000000000000000000614fe9079021688115a8ec29b065344c033f9740",
        "nonce": "0x524",
        "chainId": "0xaa36a7"
      },
      "additionalContracts": [],
      "isFixedGasLimit": false
    },
    {
      "hash": "0xc8ff5f3bca538bf10bf201951b8151147a8de88b27dd922454037a613f73834f",
      "transactionType": "CALL",
      "contractName": "PointsAggregator",
      "contractAddress": "0xe792a14b2a667ea22808967efdf7b899dbaf5cd0",
      "function": "setL1BurnCollector(address)",
      "arguments": [
        "0x6709B876B564c170a35177732aBD4dB5DAC85AD6"
      ],
      "transaction": {
        "from": "0xad9fdad276ab1a430fd03177a07350cd7c61e897",
        "to": "0xe792a14b2a667ea22808967efdf7b899dbaf5cd0",
        "gas": "0x17f98",
        "value": "0x0",
        "input": "0x63117eaf0000000000000000000000006709b876b564c170a35177732abd4db5dac85ad6",
        "nonce": "0x525",
        "chainId": "0xaa36a7"
      },
      "additionalContracts": [],
      "isFixedGasLimit": false
    },
    {
      "hash": "0xaa324242265952cecc2fcaba0ee5defdb7eaafc590546c58fe43185f533237b5",
      "transactionType": "CALL",
      "contractName": "PointsAggregator",
      "contractAddress": "0xe792a14b2a667ea22808967efdf7b899dbaf5cd0",
      "function": "setNftContract(address)",
      "arguments": [
        "0x18a09608810f87f76061F4E075edc49115194B78"
      ],
      "transaction": {
        "from": "0xad9fdad276ab1a430fd03177a07350cd7c61e897",
        "to": "0xe792a14b2a667ea22808967efdf7b899dbaf5cd0",
        "gas": "0xfeb2",
        "value": "0x0",
        "input": "0x52f5ad7700000000000000000000000018a09608810f87f76061f4e075edc49115194b78",
        "nonce": "0x526",
        "chainId": "0xaa36a7"
      },
      "additionalContracts": [],
      "isFixedGasLimit": false
    },
    {
      "hash": "0x9f8ca05f627139968fe6c55f42dd6d741f28520d999a9fc8f70539950e72099e",
      "transactionType": "CALL",
      "contractName": "PointsAggregator",
      "contractAddress": "0xe792a14b2a667ea22808967efdf7b899dbaf5cd0",
      "function": "setAuthorizedCollector(address,bool)",
      "arguments": [
        "0x90EA1d07c0d4C6bB73E94444554b0217A0FABF7D",
        "true"
      ],
      "transaction": {
        "from": "0xad9fdad276ab1a430fd03177a07350cd7c61e897",
        "to": "0xe792a14b2a667ea22808967efdf7b899dbaf5cd0",
        "gas": "0x11d05",
        "value": "0x0",
        "input": "0x3622cc2400000000000000000000000090ea1d07c0d4c6bb73e94444554b0217a0fabf7d0000000000000000000000000000000000000000000000000000000000000001",
        "nonce": "0x527",
        "chainId": "0xaa36a7"
      },
      "additionalContracts": [],
      "isFixedGasLimit": false
    },
    {
      "hash": "0x33680e296db35f7d6ffadc901501251f937589c9e722cf19ad37a3427ed2ea1d",
      "transactionType": "CALL",
      "contractName": "PointsAggregator",
      "contractAddress": "0xe792a14b2a667ea22808967efdf7b899dbaf5cd0",
      "function": "setAuthorizedCollector(address,bool)",
      "arguments": [
        "0xB14732958d8bC1cC974920e976Ec0DE3d014EE24",
        "true"
      ],
      "transaction": {
        "from": "0xad9fdad276ab1a430fd03177a07350cd7c61e897",
        "to": "0xe792a14b2a667ea22808967efdf7b899dbaf5cd0",
        "gas": "0x11d05",
        "value": "0x0",
        "input": "0x3622cc24000000000000000000000000b14732958d8bc1cc974920e976ec0de3d014ee240000000000000000000000000000000000000000000000000000000000000001",
        "nonce": "0x528",
        "chainId": "0xaa36a7"
      },
      "additionalContracts": [],
      "isFixedGasLimit": false
    },
    {
      "hash": "0xc4cb7e4fd855cd66d559722d5c11c3f44eea34b22a17c2e4cdc2dce04e73e48f",
      "transactionType": "CALL",
      "contractName": "PointsAggregator",
      "contractAddress": "0xe792a14b2a667ea22808967efdf7b899dbaf5cd0",
      "function": "setAuthorizedCollector(address,bool)",
      "arguments": [
        "0xffDb47627fBA9Af7eE7e78310a1e85Faa71e711f",
        "true"
      ],
      "transaction": {
        "from": "0xad9fdad276ab1a430fd03177a07350cd7c61e897",
        "to": "0xe792a14b2a667ea22808967efdf7b899dbaf5cd0",
        "gas": "0x11d05",
        "value": "0x0",
        "input": "0x3622cc24000000000000000000000000ffdb47627fba9af7ee7e78310a1e85faa71e711f0000000000000000000000000000000000000000000000000000000000000001",
        "nonce": "0x529",
        "chainId": "0xaa36a7"
      },
      "additionalContracts": [],
      "isFixedGasLimit": false
    },
    {
      "hash": "0xe9cd269c4858622ccbf9752c28577d6f755ce68422d5d29c11b20ae85f1b1198",
      "transactionType": "CALL",
      "contractName": "L1BurnCollector",
      "contractAddress": "0x6709b876b564c170a35177732abd4db5dac85ad6",
      "function": "addEligibleAsset(address,uint256)",
      "arguments": [
        "0x614FE9079021688115A8Ec29b065344C033f9740",
        "100000"
      ],
      "transaction": {
        "from": "0xad9fdad276ab1a430fd03177a07350cd7c61e897",
        "to": "0x6709b876b564c170a35177732abd4db5dac85ad6",
        "gas": "0x26f7e",
        "value": "0x0",
        "input": "0x642c8148000000000000000000000000614fe9079021688115a8ec29b065344c033f974000000000000000000000000000000000000000000000000000000000000186a0",
        "nonce": "0x52a",
        "chainId": "0xaa36a7"
      },
      "additionalContracts": [],
      "isFixedGasLimit": false
    },
    {
      "hash": "0x5aa9d2958b3f634fe1f0fb136a2e7ecf97b0784297b600a2fd0366a996d5a593",
      "transactionType": "CALL",
      "contractName": "L1BurnCollector",
      "contractAddress": "0x6709b876b564c170a35177732abd4db5dac85ad6",
      "function": "addEligibleAsset(address,uint256)",
      "arguments": [
        "0x7Ef7dF0F64A2591fd5bE9c1E88728e59CB5D362B",
        "10000"
      ],
      "transaction": {
        "from": "0xad9fdad276ab1a430fd03177a07350cd7c61e897",
        "to": "0x6709b876b564c170a35177732abd4db5dac85ad6",
        "gas": "0x21329",
        "value": "0x0",
        "input": "0x642c81480000000000000000000000007ef7df0f64a2591fd5be9c1e88728e59cb5d362b0000000000000000000000000000000000000000000000000000000000002710",
        "nonce": "0x52b",
        "chainId": "0xaa36a7"
      },
      "additionalContracts": [],
      "isFixedGasLimit": false
    },
    {
      "hash": "0x267a75df388933e98ae7ef1168a19b65bc5b1e4deee2b8e39acd055ef4c59617",
      "transactionType": "CALL",
      "contractName": "L1BurnCollector",
      "contractAddress": "0x6709b876b564c170a35177732abd4db5dac85ad6",
      "function": "addEligibleAssetWithDecimals(address,uint256,uint8)",
      "arguments": [
        "0xD2DcB326F003DC8db194C74Db2749F8C653Df6aC",
        "1",
        "18"
      ],
      "transaction": {
        "from": "0xad9fdad276ab1a430fd03177a07350cd7c61e897",
        "to": "0x6709b876b564c170a35177732abd4db5dac85ad6",
        "gas": "0x28049",
        "value": "0x0",
        "input": "0x961a4e8e000000000000000000000000d2dcb326f003dc8db194c74db2749f8c653df6ac00000000000000000000000000000000000000000000000000000000000000010000000000000000000000000000000000000000000000000000000000000012",
        "nonce": "0x52c",
        "chainId": "0xaa36a7"
      },
      "additionalContracts": [],
      "isFixedGasLimit": false
    },
    {
      "hash": "0x678df1a4954952f5a0fddbb9f7b52c20534fbda65d00374fca86e9e9367bf23f",
      "transactionType": "CALL",
      "contractName": null,
      "contractAddress": "0x614fe9079021688115a8ec29b065344c033f9740",
      "function": "setApprovalForAll(address,bool)",
      "arguments": [
        "0x6709B876B564c170a35177732aBD4dB5DAC85AD6",
        "true"
      ],
      "transaction": {
        "from": "0xad9fdad276ab1a430fd03177a07350cd7c61e897",
        "to": "0x614fe9079021688115a8ec29b065344c033f9740",
        "gas": "0x107d9",
        "value": "0x0",
        "input": "0xa22cb4650000000000000000000000006709b876b564c170a35177732abd4db5dac85ad60000000000000000000000000000000000000000000000000000000000000001",
        "nonce": "0x52d",
        "chainId": "0xaa36a7"
      },
      "additionalContracts": [],
      "isFixedGasLimit": false
    },
    {
      "hash": "0x1b98a58551f6458751af77eb935396075b6feabbcaf8bf70632df277e61f6685",
      "transactionType": "CALL",
      "contractName": null,
      "contractAddress": "0x7ef7df0f64a2591fd5be9c1e88728e59cb5d362b",
      "function": "setApprovalForAll(address,bool)",
      "arguments": [
        "0x6709B876B564c170a35177732aBD4dB5DAC85AD6",
        "true"
      ],
      "transaction": {
        "from": "0xad9fdad276ab1a430fd03177a07350cd7c61e897",
        "to": "0x7ef7df0f64a2591fd5be9c1e88728e59cb5d362b",
        "gas": "0x107c3",
        "value": "0x0",
        "input": "0xa22cb4650000000000000000000000006709b876b564c170a35177732abd4db5dac85ad60000000000000000000000000000000000000000000000000000000000000001",
        "nonce": "0x52e",
        "chainId": "0xaa36a7"
      },
      "additionalContracts": [],
      "isFixedGasLimit": false
    },
    {
      "hash": "0x79e5943a2fa68ce361843523018d9316256594c93e469ac8236d9fdbc2068f91",
      "transactionType": "CALL",
      "contractName": null,
      "contractAddress": "0xd2dcb326f003dc8db194c74db2749f8c653df6ac",
      "function": "approve(address,uint256)",
      "arguments": [
        "0x6709B876B564c170a35177732aBD4dB5DAC85AD6",
        "115792089237316195423570985008687907853269984665640564039457584007913129639935"
      ],
      "transaction": {
        "from": "0xad9fdad276ab1a430fd03177a07350cd7c61e897",
        "to": "0xd2dcb326f003dc8db194c74db2749f8c653df6ac",
        "gas": "0xf9a4",
        "value": "0x0",
        "input": "0x095ea7b30000000000000000000000006709b876b564c170a35177732abd4db5dac85ad6ffffffffffffffffffffffffffffffffffffffffffffffffffffffffffffffff",
        "nonce": "0x52f",
        "chainId": "0xaa36a7"
      },
      "additionalContracts": [],
      "isFixedGasLimit": false
    },
    {
      "hash": "0x78cc6289f2999b838625bcfacbc30641c5149b399d2d083b11fd4d022320c76c",
      "transactionType": "CALL",
      "contractName": null,
      "contractAddress": "0x18a09608810f87f76061f4e075edc49115194b78",
      "function": "setPointsManager(address)",
      "arguments": [
        "0x051cEaD10FE8ec708B749F77C5aA96EccB40063d"
      ],
      "transaction": {
        "from": "0xad9fdad276ab1a430fd03177a07350cd7c61e897",
        "to": "0x18a09608810f87f76061f4e075edc49115194b78",
        "gas": "0xb518",
        "value": "0x0",
        "input": "0xcae42a08000000000000000000000000051cead10fe8ec708b749f77c5aa96eccb40063d",
        "nonce": "0x530",
        "chainId": "0xaa36a7"
      },
      "additionalContracts": [],
      "isFixedGasLimit": false
    },
    {
      "hash": "0x4bf67b9ade495826bfbafaefbde24d7c9f3c7e570a3fbaeae24d3b28ce6de68b",
      "transactionType": "CALL",
      "contractName": "PointsManager",
      "contractAddress": "0x051cead10fe8ec708b749f77c5aa96eccb40063d",
      "function": "setRevealQueue(address)",
      "arguments": [
        "0x18a09608810f87f76061F4E075edc49115194B78"
      ],
      "transaction": {
        "from": "0xad9fdad276ab1a430fd03177a07350cd7c61e897",
        "to": "0x051cead10fe8ec708b749f77c5aa96eccb40063d",
        "gas": "0x1000a",
        "value": "0x0",
        "input": "0xfdc8537100000000000000000000000018a09608810f87f76061f4e075edc49115194b78",
        "nonce": "0x531",
        "chainId": "0xaa36a7"
      },
      "additionalContracts": [],
      "isFixedGasLimit": false
    },
    {
      "hash": "0xbe1b2f7942a20ae568657c4a0c82022295fa8501695f72f6fd42fffccb96a97b",
      "transactionType": "CALL",
      "contractName": "PointsManager",
      "contractAddress": "0x051cead10fe8ec708b749f77c5aa96eccb40063d",
      "function": "setPermutationZeroIndexed(bool)",
      "arguments": [
        "true"
      ],
      "transaction": {
        "from": "0xad9fdad276ab1a430fd03177a07350cd7c61e897",
        "to": "0x051cead10fe8ec708b749f77c5aa96eccb40063d",
        "gas": "0x9fc4",
        "value": "0x0",
        "input": "0x0367aa2f0000000000000000000000000000000000000000000000000000000000000001",
        "nonce": "0x532",
        "chainId": "0xaa36a7"
      },
      "additionalContracts": [],
      "isFixedGasLimit": false
    }
  ],
  "receipts": [
    {
      "status": "0x1",
      "cumulativeGasUsed": "0x801eb0",
      "logs": [
        {
          "address": "0x051cead10fe8ec708b749f77c5aa96eccb40063d",
          "topics": [
            "0x8be0079c531659141344cd1fd0a4f28419497f9722a3daafe3b4186f6b6457e0",
            "0x0000000000000000000000000000000000000000000000000000000000000000",
            "0x000000000000000000000000ad9fdad276ab1a430fd03177a07350cd7c61e897"
          ],
          "data": "0x",
          "blockHash": "0xac15cca760ce67ec8b636af926528cf75defd24c94b500d194b8841a16b4f9fc",
          "blockNumber": "0x930d44",
          "blockTimestamp": "0x6918dee4",
          "transactionHash": "0xe3c0ef804366aacb7c74a3c9dbb730d8611ae67089033825efc6d551a26916c2",
          "transactionIndex": "0x22",
          "logIndex": "0x34",
          "removed": false
        }
      ],
      "logsBloom": "0x00000000000000000000000000000000000000000000000000800000000008000000000000000010000000000000000000000000000000000000000000000000000000000000004000000000000000000001000000000000000000000000000000000000020000000000000000000800000000000000000000000000000000400000000000000040000000000000000002000000000000000000000000000000000010000000000000000000000000000000000000000000000000000000000000000000000000000000000000000000000000000000000000000000000020000000000000000000000000000000000000000000000000000000000000000000",
      "type": "0x2",
      "transactionHash": "0xe3c0ef804366aacb7c74a3c9dbb730d8611ae67089033825efc6d551a26916c2",
      "transactionIndex": "0x22",
      "blockHash": "0xac15cca760ce67ec8b636af926528cf75defd24c94b500d194b8841a16b4f9fc",
      "blockNumber": "0x930d44",
      "gasUsed": "0xcbcb1",
      "effectiveGasPrice": "0xf4240",
      "from": "0xad9fdad276ab1a430fd03177a07350cd7c61e897",
      "to": null,
      "contractAddress": "0x051cead10fe8ec708b749f77c5aa96eccb40063d"
    },
    {
      "status": "0x1",
      "cumulativeGasUsed": "0x90b4cd",
      "logs": [
        {
          "address": "0xe792a14b2a667ea22808967efdf7b899dbaf5cd0",
          "topics": [
            "0x8be0079c531659141344cd1fd0a4f28419497f9722a3daafe3b4186f6b6457e0",
            "0x0000000000000000000000000000000000000000000000000000000000000000",
            "0x000000000000000000000000ad9fdad276ab1a430fd03177a07350cd7c61e897"
          ],
          "data": "0x",
          "blockHash": "0xac15cca760ce67ec8b636af926528cf75defd24c94b500d194b8841a16b4f9fc",
          "blockNumber": "0x930d44",
          "blockTimestamp": "0x6918dee4",
          "transactionHash": "0x00e45e89bab9def664f29c0e0a952f60f569bcb7394aa85c452a36ead4119e8b",
          "transactionIndex": "0x23",
          "logIndex": "0x35",
          "removed": false
        }
      ],
      "logsBloom": "0x00000000000000000000000000000000000000100000000000800000000000000000000000000000000000000000000000000000000000000000000000000000000000000000004000000000000000000001000000000000000000000000000000000000020000000000000000000800000000000001000000000000200000400000000000000040000000000000000000000000000000000000000000000000000010000000000000000000000000000000000000000000000000000000000000000000000000000000000000000000000000000000000000000000000020000000000000000000000000000000000000000000000000000000000000000000",
      "type": "0x2",
      "transactionHash": "0x00e45e89bab9def664f29c0e0a952f60f569bcb7394aa85c452a36ead4119e8b",
      "transactionIndex": "0x23",
      "blockHash": "0xac15cca760ce67ec8b636af926528cf75defd24c94b500d194b8841a16b4f9fc",
      "blockNumber": "0x930d44",
      "gasUsed": "0x10961d",
      "effectiveGasPrice": "0xf4240",
      "from": "0xad9fdad276ab1a430fd03177a07350cd7c61e897",
      "to": null,
      "contractAddress": "0xe792a14b2a667ea22808967efdf7b899dbaf5cd0"
    },
    {
      "status": "0x1",
      "cumulativeGasUsed": "0xe3e5e5",
      "logs": [
        {
          "address": "0x051cead10fe8ec708b749f77c5aa96eccb40063d",
          "topics": [
            "0x602cec4b1583b07d071161da5eb9589444d2459201e2fab7753dc941e9351c21",
            "0x000000000000000000000000e792a14b2a667ea22808967efdf7b899dbaf5cd0"
          ],
          "data": "0x",
          "blockHash": "0xac15cca760ce67ec8b636af926528cf75defd24c94b500d194b8841a16b4f9fc",
          "blockNumber": "0x930d44",
          "blockTimestamp": "0x6918dee4",
          "transactionHash": "0x44cbea297269b2c5ef10e16f4e90e99424af852595f3fea3d10e54dd7a2720c5",
          "transactionIndex": "0x45",
          "logIndex": "0xc1",
          "removed": false
        }
      ],
      "logsBloom": "0x00000000000000000010000000000000000000000000000000000000000008000000000000000010000000000000000000000000000000000000100000000000000000000000000000000000000000000000000000000000000000000000000000000020000000000000000000000000000000000000000000000000000000000000000000000000000000000000000002000000000000000000000000000000000000000000000000000000000000000000000000000000000000000000000000001000000000000400000000000000000000000000000000000000000000000000000000002000000000000000000000000000000000000000000000000000",
      "type": "0x2",
      "transactionHash": "0x44cbea297269b2c5ef10e16f4e90e99424af852595f3fea3d10e54dd7a2720c5",
      "transactionIndex": "0x45",
      "blockHash": "0xac15cca760ce67ec8b636af926528cf75defd24c94b500d194b8841a16b4f9fc",
      "blockNumber": "0x930d44",
      "gasUsed": "0xb949",
      "effectiveGasPrice": "0xf4240",
      "from": "0xad9fdad276ab1a430fd03177a07350cd7c61e897",
      "to": "0x051cead10fe8ec708b749f77c5aa96eccb40063d",
      "contractAddress": null
    },
    {
      "status": "0x1",
      "cumulativeGasUsed": "0xff34bb",
      "logs": [
        {
          "address": "0x6709b876b564c170a35177732abd4db5dac85ad6",
          "topics": [
            "0x8be0079c531659141344cd1fd0a4f28419497f9722a3daafe3b4186f6b6457e0",
            "0x0000000000000000000000000000000000000000000000000000000000000000",
            "0x000000000000000000000000ad9fdad276ab1a430fd03177a07350cd7c61e897"
          ],
          "data": "0x",
          "blockHash": "0xac15cca760ce67ec8b636af926528cf75defd24c94b500d194b8841a16b4f9fc",
          "blockNumber": "0x930d44",
          "blockTimestamp": "0x6918dee4",
          "transactionHash": "0x23845d38ee4c0f984e950f723956d1cd83ea519bab164ffa16a43ee1d1e11c0e",
          "transactionIndex": "0x46",
          "logIndex": "0xc2",
          "removed": false
        },
        {
          "address": "0x6709b876b564c170a35177732abd4db5dac85ad6",
          "topics": [
            "0xd1cca643b71f0b734e29ea3538d99dfbab03ad2fb3b71aec3c3917dddc893fa4",
            "0x000000000000000000000000614fe9079021688115a8ec29b065344c033f9740"
          ],
          "data": "0x",
          "blockHash": "0xac15cca760ce67ec8b636af926528cf75defd24c94b500d194b8841a16b4f9fc",
          "blockNumber": "0x930d44",
          "blockTimestamp": "0x6918dee4",
          "transactionHash": "0x23845d38ee4c0f984e950f723956d1cd83ea519bab164ffa16a43ee1d1e11c0e",
          "transactionIndex": "0x46",
          "logIndex": "0xc3",
          "removed": false
        }
      ],
      "logsBloom": "0x00000000004000000000000000000000000000000208000000800000000000000000000000000000000000000000000000000000000000000000000000000000000000000000004000000000000000000001000000000000000000000000000000000000020000000000010000000800000000000000000000000000000000400040000000000040000000008000000000000000010000000000000000000000000010000000000000000000000000000000000000000000000000040000000000000000000000000000000000000000000000000000000000000000000020000000000200000000000000000000000000000000000000000000000000000000",
      "type": "0x2",
      "transactionHash": "0x23845d38ee4c0f984e950f723956d1cd83ea519bab164ffa16a43ee1d1e11c0e",
      "transactionIndex": "0x46",
      "blockHash": "0xac15cca760ce67ec8b636af926528cf75defd24c94b500d194b8841a16b4f9fc",
      "blockNumber": "0x930d44",
      "gasUsed": "0x1b4ed6",
      "effectiveGasPrice": "0xf4240",
      "from": "0xad9fdad276ab1a430fd03177a07350cd7c61e897",
      "to": null,
      "contractAddress": "0x6709b876b564c170a35177732abd4db5dac85ad6"
    },
    {
      "status": "0x1",
      "cumulativeGasUsed": "0x1004a73",
      "logs": [
        {
          "address": "0xe792a14b2a667ea22808967efdf7b899dbaf5cd0",
          "topics": [
            "0x62cc763fb81fa7689c024380a63a22c0e9720f9003fdb916c8ea8d771da509c8",
            "0x0000000000000000000000006709b876b564c170a35177732abd4db5dac85ad6"
          ],
          "data": "0x0000000000000000000000000000000000000000000000000000000000000001",
          "blockHash": "0xac15cca760ce67ec8b636af926528cf75defd24c94b500d194b8841a16b4f9fc",
          "blockNumber": "0x930d44",
          "blockTimestamp": "0x6918dee4",
          "transactionHash": "0xc8ff5f3bca538bf10bf201951b8151147a8de88b27dd922454037a613f73834f",
          "transactionIndex": "0x47",
          "logIndex": "0xc4",
          "removed": false
        },
        {
          "address": "0xe792a14b2a667ea22808967efdf7b899dbaf5cd0",
          "topics": [
            "0xe9cc17a40c066a3782e2f682d8d6d2625af5474f0bbc68b240292ff629332a39",
            "0x0000000000000000000000006709b876b564c170a35177732abd4db5dac85ad6"
          ],
          "data": "0x",
          "blockHash": "0xac15cca760ce67ec8b636af926528cf75defd24c94b500d194b8841a16b4f9fc",
          "blockNumber": "0x930d44",
          "blockTimestamp": "0x6918dee4",
          "transactionHash": "0xc8ff5f3bca538bf10bf201951b8151147a8de88b27dd922454037a613f73834f",
          "transactionIndex": "0x47",
          "logIndex": "0xc5",
          "removed": false
        }
      ],
      "logsBloom": "0x00000000000000000000000000000000000000100000000000000000000000000000000000000000000000000001000000000000020000000000000000000000000000000000000000000000000000000000000000000000000000000000000001000000000000000000000000000000000000000001000001000000200000000000000000000000000000000000000000000000000000000000000000000000000000000000000000000000000000000800000000200000000000000000000000000000010000000000000000000000000000020000000000000000000000000000000000000040000000000000000000000000000000000000000000000000",
      "type": "0x2",
      "transactionHash": "0xc8ff5f3bca538bf10bf201951b8151147a8de88b27dd922454037a613f73834f",
      "transactionIndex": "0x47",
      "blockHash": "0xac15cca760ce67ec8b636af926528cf75defd24c94b500d194b8841a16b4f9fc",
      "blockNumber": "0x930d44",
      "gasUsed": "0x115b8",
      "effectiveGasPrice": "0xf4240",
      "from": "0xad9fdad276ab1a430fd03177a07350cd7c61e897",
      "to": "0xe792a14b2a667ea22808967efdf7b899dbaf5cd0",
      "contractAddress": null
    },
    {
      "status": "0x1",
      "cumulativeGasUsed": "0x10102d9",
      "logs": [
        {
          "address": "0xe792a14b2a667ea22808967efdf7b899dbaf5cd0",
          "topics": [
            "0xa27bdd7b0c9c795c64307abe4a8b21d993ec4bd2601c38dfaee5cfc991375ae8",
            "0x00000000000000000000000018a09608810f87f76061f4e075edc49115194b78"
          ],
          "data": "0x",
          "blockHash": "0xac15cca760ce67ec8b636af926528cf75defd24c94b500d194b8841a16b4f9fc",
          "blockNumber": "0x930d44",
          "blockTimestamp": "0x6918dee4",
          "transactionHash": "0xaa324242265952cecc2fcaba0ee5defdb7eaafc590546c58fe43185f533237b5",
          "transactionIndex": "0x48",
          "logIndex": "0xc6",
          "removed": false
        }
      ],
      "logsBloom": "0x00000000000000000000000000000000000000100000000000000000000000000000000000000000001000000000000000000000000000000000000000000000000000000000000000000000000000000000000000000000000000000000000000000000000000000000000000000000000000000001000000000000200000000000020000000000000000000000000000000000000000000000000000000100000000000000000000000000000000000000000000000000000000000000000000000000100000000000000000000000000000000000000000000000000000000000000000000000000000000000000000000000000000000000000800000002",
      "type": "0x2",
      "transactionHash": "0xaa324242265952cecc2fcaba0ee5defdb7eaafc590546c58fe43185f533237b5",
      "transactionIndex": "0x48",
      "blockHash": "0xac15cca760ce67ec8b636af926528cf75defd24c94b500d194b8841a16b4f9fc",
      "blockNumber": "0x930d44",
      "gasUsed": "0xb866",
      "effectiveGasPrice": "0xf4240",
      "from": "0xad9fdad276ab1a430fd03177a07350cd7c61e897",
      "to": "0xe792a14b2a667ea22808967efdf7b899dbaf5cd0",
      "contractAddress": null
    },
    {
      "status": "0x1",
      "cumulativeGasUsed": "0x101c5bc",
      "logs": [
        {
          "address": "0xe792a14b2a667ea22808967efdf7b899dbaf5cd0",
          "topics": [
            "0x62cc763fb81fa7689c024380a63a22c0e9720f9003fdb916c8ea8d771da509c8",
            "0x00000000000000000000000090ea1d07c0d4c6bb73e94444554b0217a0fabf7d"
          ],
          "data": "0x0000000000000000000000000000000000000000000000000000000000000001",
          "blockHash": "0xac15cca760ce67ec8b636af926528cf75defd24c94b500d194b8841a16b4f9fc",
          "blockNumber": "0x930d44",
          "blockTimestamp": "0x6918dee4",
          "transactionHash": "0x9f8ca05f627139968fe6c55f42dd6d741f28520d999a9fc8f70539950e72099e",
          "transactionIndex": "0x49",
          "logIndex": "0xc7",
          "removed": false
        }
      ],
      "logsBloom": "0x00000000000000000000000000000000000000100000000000000000000000040000000000000000000000000000000000000000000000000000000000000000000000000000000000000000000000000000000000000000000000000000000000002000000000000000000000000000000000000001000000000000200000000000000000000000000000000000000000000000000000000000000000000020000000000000000000000000000000000000000000000000000000000000000000000000010000000000000000000000000000020000000000000000000000000000000000000040000000000000000000000000000000000000000000000000",
      "type": "0x2",
      "transactionHash": "0x9f8ca05f627139968fe6c55f42dd6d741f28520d999a9fc8f70539950e72099e",
      "transactionIndex": "0x49",
      "blockHash": "0xac15cca760ce67ec8b636af926528cf75defd24c94b500d194b8841a16b4f9fc",
      "blockNumber": "0x930d44",
      "gasUsed": "0xc2e3",
      "effectiveGasPrice": "0xf4240",
      "from": "0xad9fdad276ab1a430fd03177a07350cd7c61e897",
      "to": "0xe792a14b2a667ea22808967efdf7b899dbaf5cd0",
      "contractAddress": null
    },
    {
      "status": "0x1",
      "cumulativeGasUsed": "0x102889f",
      "logs": [
        {
          "address": "0xe792a14b2a667ea22808967efdf7b899dbaf5cd0",
          "topics": [
            "0x62cc763fb81fa7689c024380a63a22c0e9720f9003fdb916c8ea8d771da509c8",
            "0x000000000000000000000000b14732958d8bc1cc974920e976ec0de3d014ee24"
          ],
          "data": "0x0000000000000000000000000000000000000000000000000000000000000001",
          "blockHash": "0xac15cca760ce67ec8b636af926528cf75defd24c94b500d194b8841a16b4f9fc",
          "blockNumber": "0x930d44",
          "blockTimestamp": "0x6918dee4",
          "transactionHash": "0x33680e296db35f7d6ffadc901501251f937589c9e722cf19ad37a3427ed2ea1d",
          "transactionIndex": "0x4a",
          "logIndex": "0xc8",
          "removed": false
        }
      ],
      "logsBloom": "0x00000000000000000000000000000000000000101000000000000000000000000000000000000000000000000000000000000000000000000000000000000000000000000000000000000000000000000000000000000000000000000000000000000000000000000000000000000000000000000001000000000000200000000000000000000000000000000000000040000000000000000000000000000000000000000000000000000000000000000000000000000000000000000000000000000000010000000000000000000000000000020000000000000000000000000400000000000040000000000000000000000000000000000000000000000000",
      "type": "0x2",
      "transactionHash": "0x33680e296db35f7d6ffadc901501251f937589c9e722cf19ad37a3427ed2ea1d",
      "transactionIndex": "0x4a",
      "blockHash": "0xac15cca760ce67ec8b636af926528cf75defd24c94b500d194b8841a16b4f9fc",
      "blockNumber": "0x930d44",
      "gasUsed": "0xc2e3",
      "effectiveGasPrice": "0xf4240",
      "from": "0xad9fdad276ab1a430fd03177a07350cd7c61e897",
      "to": "0xe792a14b2a667ea22808967efdf7b899dbaf5cd0",
      "contractAddress": null
    },
    {
      "status": "0x1",
      "cumulativeGasUsed": "0x1034b82",
      "logs": [
        {
          "address": "0xe792a14b2a667ea22808967efdf7b899dbaf5cd0",
          "topics": [
            "0x62cc763fb81fa7689c024380a63a22c0e9720f9003fdb916c8ea8d771da509c8",
            "0x000000000000000000000000ffdb47627fba9af7ee7e78310a1e85faa71e711f"
          ],
          "data": "0x0000000000000000000000000000000000000000000000000000000000000001",
          "blockHash": "0xac15cca760ce67ec8b636af926528cf75defd24c94b500d194b8841a16b4f9fc",
          "blockNumber": "0x930d44",
          "blockTimestamp": "0x6918dee4",
          "transactionHash": "0xc4cb7e4fd855cd66d559722d5c11c3f44eea34b22a17c2e4cdc2dce04e73e48f",
          "transactionIndex": "0x4b",
          "logIndex": "0xc9",
          "removed": false
        }
      ],
      "logsBloom": "0x00000000000000000000000000000000000000100000000000000000000000000000000000000000000000000000000000000000000000000000000000400000000000000000000000000000000000000000000000000000000000000000000000000000000000000000000000000000000000000001000000000000200000000000000000000000000000000000000004000000000000000000000000000000000000000000000000000000000000000000000000000000000000000000000000000000010000000000000000000000000000020000000002000000000000000000000000000040000000000000000000000000000000000000000000000000",
      "type": "0x2",
      "transactionHash": "0xc4cb7e4fd855cd66d559722d5c11c3f44eea34b22a17c2e4cdc2dce04e73e48f",
      "transactionIndex": "0x4b",
      "blockHash": "0xac15cca760ce67ec8b636af926528cf75defd24c94b500d194b8841a16b4f9fc",
      "blockNumber": "0x930d44",
      "gasUsed": "0xc2e3",
      "effectiveGasPrice": "0xf4240",
      "from": "0xad9fdad276ab1a430fd03177a07350cd7c61e897",
      "to": "0xe792a14b2a667ea22808967efdf7b899dbaf5cd0",
      "contractAddress": null
    },
    {
      "status": "0x1",
      "cumulativeGasUsed": "0x1050ee8",
      "logs": [],
      "logsBloom": "0x00000000000000000000000000000000000000000000000000000000000000000000000000000000000000000000000000000000000000000000000000000000000000000000000000000000000000000000000000000000000000000000000000000000000000000000000000000000000000000000000000000000000000000000000000000000000000000000000000000000000000000000000000000000000000000000000000000000000000000000000000000000000000000000000000000000000000000000000000000000000000000000000000000000000000000000000000000000000000000000000000000000000000000000000000000000",
      "type": "0x2",
      "transactionHash": "0xe9cd269c4858622ccbf9752c28577d6f755ce68422d5d29c11b20ae85f1b1198",
      "transactionIndex": "0x4c",
      "blockHash": "0xac15cca760ce67ec8b636af926528cf75defd24c94b500d194b8841a16b4f9fc",
      "blockNumber": "0x930d44",
      "gasUsed": "0x1c366",
      "effectiveGasPrice": "0xf4240",
      "from": "0xad9fdad276ab1a430fd03177a07350cd7c61e897",
      "to": "0x6709b876b564c170a35177732abd4db5dac85ad6",
      "contractAddress": null
    },
    {
      "status": "0x1",
      "cumulativeGasUsed": "0x1068f76",
      "logs": [],
      "logsBloom": "0x00000000000000000000000000000000000000000000000000000000000000000000000000000000000000000000000000000000000000000000000000000000000000000000000000000000000000000000000000000000000000000000000000000000000000000000000000000000000000000000000000000000000000000000000000000000000000000000000000000000000000000000000000000000000000000000000000000000000000000000000000000000000000000000000000000000000000000000000000000000000000000000000000000000000000000000000000000000000000000000000000000000000000000000000000000000",
      "type": "0x2",
      "transactionHash": "0x5aa9d2958b3f634fe1f0fb136a2e7ecf97b0784297b600a2fd0366a996d5a593",
      "transactionIndex": "0x4d",
      "blockHash": "0xac15cca760ce67ec8b636af926528cf75defd24c94b500d194b8841a16b4f9fc",
      "blockNumber": "0x930d44",
      "gasUsed": "0x1808e",
      "effectiveGasPrice": "0xf4240",
      "from": "0xad9fdad276ab1a430fd03177a07350cd7c61e897",
      "to": "0x6709b876b564c170a35177732abd4db5dac85ad6",
      "contractAddress": null
    },
    {
      "status": "0x1",
      "cumulativeGasUsed": "0x1085f05",
      "logs": [],
      "logsBloom": "0x00000000000000000000000000000000000000000000000000000000000000000000000000000000000000000000000000000000000000000000000000000000000000000000000000000000000000000000000000000000000000000000000000000000000000000000000000000000000000000000000000000000000000000000000000000000000000000000000000000000000000000000000000000000000000000000000000000000000000000000000000000000000000000000000000000000000000000000000000000000000000000000000000000000000000000000000000000000000000000000000000000000000000000000000000000000",
      "type": "0x2",
      "transactionHash": "0x267a75df388933e98ae7ef1168a19b65bc5b1e4deee2b8e39acd055ef4c59617",
      "transactionIndex": "0x4e",
      "blockHash": "0xac15cca760ce67ec8b636af926528cf75defd24c94b500d194b8841a16b4f9fc",
      "blockNumber": "0x930d44",
      "gasUsed": "0x1cf8f",
      "effectiveGasPrice": "0xf4240",
      "from": "0xad9fdad276ab1a430fd03177a07350cd7c61e897",
      "to": "0x6709b876b564c170a35177732abd4db5dac85ad6",
      "contractAddress": null
    },
    {
      "status": "0x1",
      "cumulativeGasUsed": "0x10a7d9e",
      "logs": [
        {
          "address": "0x614fe9079021688115a8ec29b065344c033f9740",
          "topics": [
            "0x17307eab39ab6107e8899845ad3d59bd9653f200f220920489ca2b5937696c31",
            "0x000000000000000000000000ad9fdad276ab1a430fd03177a07350cd7c61e897",
            "0x0000000000000000000000006709b876b564c170a35177732abd4db5dac85ad6"
          ],
          "data": "0x0000000000000000000000000000000000000000000000000000000000000001",
          "blockHash": "0xac15cca760ce67ec8b636af926528cf75defd24c94b500d194b8841a16b4f9fc",
          "blockNumber": "0x930d44",
          "blockTimestamp": "0x6918dee4",
          "transactionHash": "0x678df1a4954952f5a0fddbb9f7b52c20534fbda65d00374fca86e9e9367bf23f",
          "transactionIndex": "0x51",
          "logIndex": "0xcc",
          "removed": false
        }
      ],
      "logsBloom": "0x00000000000000000000000000000000000000000000000008000000000000000000000000000000000000000000000000000000000000000000000000000000000000001000004000000000000000000004000000000000000000000000000003000000000000000000000000000000000000000000000001000000000000000000000000000040000000000000000000000000000000000000000000000000000010000000000000000000000000000800000000000000000000000000000000000000000000000000000000000000000000000000000000000000000000000000200800000000000000000000000000000000000000000000000000000000",
      "type": "0x2",
      "transactionHash": "0x678df1a4954952f5a0fddbb9f7b52c20534fbda65d00374fca86e9e9367bf23f",
      "transactionIndex": "0x51",
      "blockHash": "0xac15cca760ce67ec8b636af926528cf75defd24c94b500d194b8841a16b4f9fc",
      "blockNumber": "0x930d44",
      "gasUsed": "0xb469",
      "effectiveGasPrice": "0xf4240",
      "from": "0xad9fdad276ab1a430fd03177a07350cd7c61e897",
      "to": "0x614fe9079021688115a8ec29b065344c033f9740",
      "contractAddress": null
    },
    {
      "status": "0x1",
      "cumulativeGasUsed": "0x10b31f8",
      "logs": [
        {
          "address": "0x7ef7df0f64a2591fd5be9c1e88728e59cb5d362b",
          "topics": [
            "0x17307eab39ab6107e8899845ad3d59bd9653f200f220920489ca2b5937696c31",
            "0x000000000000000000000000ad9fdad276ab1a430fd03177a07350cd7c61e897",
            "0x0000000000000000000000006709b876b564c170a35177732abd4db5dac85ad6"
          ],
          "data": "0x0000000000000000000000000000000000000000000000000000000000000001",
          "blockHash": "0xac15cca760ce67ec8b636af926528cf75defd24c94b500d194b8841a16b4f9fc",
          "blockNumber": "0x930d44",
          "blockTimestamp": "0x6918dee4",
          "transactionHash": "0x1b98a58551f6458751af77eb935396075b6feabbcaf8bf70632df277e61f6685",
          "transactionIndex": "0x52",
          "logIndex": "0xcd",
          "removed": false
        }
      ],
      "logsBloom": "0x00000000000000000000000000000000000000000000000000000000000000000000000000000000000000000000000000000000000000000000000000000000000000000000004000000000000000000000000000000000000000000000000003000000000000000000000000000000000000000000000001000000000000000000000000000040000000000000000000000000000000000000000000000000000010000000000000080000000000000800000000000000000000000000000000000000000000000000000000000000000000000000000000000000000000000000200800000000000000000000000040000000020000000000000000000000",
      "type": "0x2",
      "transactionHash": "0x1b98a58551f6458751af77eb935396075b6feabbcaf8bf70632df277e61f6685",
      "transactionIndex": "0x52",
      "blockHash": "0xac15cca760ce67ec8b636af926528cf75defd24c94b500d194b8841a16b4f9fc",
      "blockNumber": "0x930d44",
      "gasUsed": "0xb45a",
      "effectiveGasPrice": "0xf4240",
      "from": "0xad9fdad276ab1a430fd03177a07350cd7c61e897",
      "to": "0x7ef7df0f64a2591fd5be9c1e88728e59cb5d362b",
      "contractAddress": null
    },
    {
      "status": "0x1",
      "cumulativeGasUsed": "0x10be6b5",
      "logs": [
        {
          "address": "0xd2dcb326f003dc8db194c74db2749f8c653df6ac",
          "topics": [
            "0x8c5be1e5ebec7d5bd14f71427d1e84f3dd0314c0f7b2291e5b200ac8c7c3b925",
            "0x000000000000000000000000ad9fdad276ab1a430fd03177a07350cd7c61e897",
            "0x0000000000000000000000006709b876b564c170a35177732abd4db5dac85ad6"
          ],
          "data": "0xffffffffffffffffffffffffffffffffffffffffffffffffffffffffffffffff",
          "blockHash": "0xac15cca760ce67ec8b636af926528cf75defd24c94b500d194b8841a16b4f9fc",
          "blockNumber": "0x930d44",
          "blockTimestamp": "0x6918dee4",
          "transactionHash": "0x79e5943a2fa68ce361843523018d9316256594c93e469ac8236d9fdbc2068f91",
          "transactionIndex": "0x53",
          "logIndex": "0xce",
          "removed": false
        }
      ],
      "logsBloom": "0x00000000000000000000000000000000000000000000000000000000000000000000000000000000000000000000000000000000000000000000000000200000000000000000004000000000000000000000000000000000000000000000000001000002000000000000000000000000000000000000000001000000000000000000000000000040000000000000000008000000000000000000000000000000020010000000000000000000000000000800000000000000000000000000000000000000000000000000000000000000000000000000000000000000000000000010000000000000000000000000000000000000010000000000000000000000",
      "type": "0x2",
      "transactionHash": "0x79e5943a2fa68ce361843523018d9316256594c93e469ac8236d9fdbc2068f91",
      "transactionIndex": "0x53",
      "blockHash": "0xac15cca760ce67ec8b636af926528cf75defd24c94b500d194b8841a16b4f9fc",
      "blockNumber": "0x930d44",
      "gasUsed": "0xb4bd",
      "effectiveGasPrice": "0xf4240",
      "from": "0xad9fdad276ab1a430fd03177a07350cd7c61e897",
      "to": "0xd2dcb326f003dc8db194c74db2749f8c653df6ac",
      "contractAddress": null
    },
    {
      "status": "0x1",
      "cumulativeGasUsed": "0x10cf311",
      "logs": [
        {
          "address": "0x18a09608810f87f76061f4e075edc49115194b78",
          "topics": [
            "0x7619eb3b0b2346250e2839a10da35fc58eea3632c6f045e8abffa1864bce2551"
          ],
          "data": "0x000000000000000000000000051cead10fe8ec708b749f77c5aa96eccb40063d",
          "blockHash": "0xac15cca760ce67ec8b636af926528cf75defd24c94b500d194b8841a16b4f9fc",
          "blockNumber": "0x930d44",
          "blockTimestamp": "0x6918dee4",
          "transactionHash": "0x78cc6289f2999b838625bcfacbc30641c5149b399d2d083b11fd4d022320c76c",
          "transactionIndex": "0x55",
          "logIndex": "0xd0",
          "removed": false
        }
      ],
      "logsBloom": "0x00000000000000000000000000000000000000000000000000000000000000000000000000000000000000000008000000000000000000000000000000000000000000000000000000000000000000004000000000000000000000800000000000000000000000004000000000000000000000000000000000000000000000000000000000000000000000000000000000000000000000000000000800000000000000000000000000000000000000000000000000000000000000000000000000000000000000000000000000000000000020000000000000000000000000000000000000000000000000000000000000000000000000000000000000000000",
      "type": "0x2",
      "transactionHash": "0x78cc6289f2999b838625bcfacbc30641c5149b399d2d083b11fd4d022320c76c",
      "transactionIndex": "0x55",
      "blockHash": "0xac15cca760ce67ec8b636af926528cf75defd24c94b500d194b8841a16b4f9fc",
      "blockNumber": "0x930d44",
      "gasUsed": "0x831d",
      "effectiveGasPrice": "0xf4240",
      "from": "0xad9fdad276ab1a430fd03177a07350cd7c61e897",
      "to": "0x18a09608810f87f76061f4e075edc49115194b78",
      "contractAddress": null
    },
    {
      "status": "0x1",
      "cumulativeGasUsed": "0x9114c4",
      "logs": [
        {
          "address": "0x051cead10fe8ec708b749f77c5aa96eccb40063d",
          "topics": [
            "0x23a1b510439be15b459a731ae3d1d5a6eac00dcd9433c69442716b282d888ac4",
            "0x00000000000000000000000018a09608810f87f76061f4e075edc49115194b78"
          ],
          "data": "0x",
          "blockHash": "0xb7cdefda1eae66b37b3f355bc02a9ba2bbc17a2606b19144745900c0d42e7d2d",
          "blockNumber": "0x930d45",
          "blockTimestamp": "0x6918def0",
          "transactionHash": "0x4bf67b9ade495826bfbafaefbde24d7c9f3c7e570a3fbaeae24d3b28ce6de68b",
          "transactionIndex": "0x3d",
          "logIndex": "0x72",
          "removed": false
        }
      ],
      "logsBloom": "0x00000000000000000000000000000000000000000000000000000000000008000000000000000010001000000000000000000000000000000000000000000000000000000000000000000000000000000000000000000000000000000000000000000000000000000000000000000000000000000000000000800000000000000000020000000000000000000000000002000000000000000000000000000000000000000000000000000000000000000000000000000000000000000000000000000080000000000000000000000000000000008000000000000000000000000000000000000000000000000000000000000000000000000000000800000000",
      "type": "0x2",
      "transactionHash": "0x4bf67b9ade495826bfbafaefbde24d7c9f3c7e570a3fbaeae24d3b28ce6de68b",
      "transactionIndex": "0x3d",
      "blockHash": "0xb7cdefda1eae66b37b3f355bc02a9ba2bbc17a2606b19144745900c0d42e7d2d",
      "blockNumber": "0x930d45",
      "gasUsed": "0xb95f",
      "effectiveGasPrice": "0xf4240",
      "from": "0xad9fdad276ab1a430fd03177a07350cd7c61e897",
      "to": "0x051cead10fe8ec708b749f77c5aa96eccb40063d",
      "contractAddress": null
    },
    {
      "status": "0x1",
      "cumulativeGasUsed": "0x9ab029",
      "logs": [
        {
          "address": "0x051cead10fe8ec708b749f77c5aa96eccb40063d",
          "topics": [
            "0xd464f229795dda56c42369a406dade63ed87a7cc12e4ed0cbd917347cb23285a"
          ],
          "data": "0x0000000000000000000000000000000000000000000000000000000000000001",
          "blockHash": "0xb7cdefda1eae66b37b3f355bc02a9ba2bbc17a2606b19144745900c0d42e7d2d",
          "blockNumber": "0x930d45",
          "blockTimestamp": "0x6918def0",
          "transactionHash": "0xbe1b2f7942a20ae568657c4a0c82022295fa8501695f72f6fd42fffccb96a97b",
          "transactionIndex": "0x4f",
          "logIndex": "0x82",
          "removed": false
        }
      ],
      "logsBloom": "0x00002000000000000000000000000000000000000000000000000000000008000000000000000010000000000000000000000000000000000000000000000000000000000000000000000000000000000000000000000000000000000000000000000000000000000000000000000000000000000000000000000000000000000000001000000000000000000000000002000000000000000000000000000000000000000000000000000000000000000000000000000000000000000000000000000000000000000000000000000000000000000000000000000000000000000000001000000000000000000000000000000000000000000000000000000000",
      "type": "0x2",
      "transactionHash": "0xbe1b2f7942a20ae568657c4a0c82022295fa8501695f72f6fd42fffccb96a97b",
      "transactionIndex": "0x4f",
      "blockHash": "0xb7cdefda1eae66b37b3f355bc02a9ba2bbc17a2606b19144745900c0d42e7d2d",
      "blockNumber": "0x930d45",
      "gasUsed": "0x73ac",
      "effectiveGasPrice": "0xf4240",
      "from": "0xad9fdad276ab1a430fd03177a07350cd7c61e897",
      "to": "0x051cead10fe8ec708b749f77c5aa96eccb40063d",
      "contractAddress": null
    }
  ],
  "libraries": [],
  "pending": [],
  "returns": {},
  "timestamp": 1763237616890,
  "chain": 11155111,
  "commit": "0886bee"
}