{
  "transactions": [
    {
      "hash": "0x2b88ca994c3bddf6f0b19469605d36ed33625c4d7f03c74b75932eaf2f1fd896",
      "transactionType": "CREATE",
      "contractName": "PointsManager",
      "contractAddress": "0xfa026570d389e23b742723172781585814347f85",
      "function": null,
      "arguments": null,
      "transaction": {
        "from": "0xad9fdad276ab1a430fd03177a07350cd7c61e897",
        "gas": "0xf6101",
        "value": "0x0",
        "input": "0x608080604052346071573315605e575f8054336001600160a01b0319821681178355916001600160a01b03909116907f8be0079c531659141344cd1fd0a4f28419497f9722a3daafe3b4186f6b6457e09080a3610c9690816100768239f35b631e4fbdf760e01b5f525f60045260245ffd5b5f80fdfe60806040526004361015610011575f80fd5b5f3560e01c80630367aa2f146104f157806304bab535146104cc578063245a7bfc146104a457806334876a751461047957806361a2bc011461044a578063715018a614610406578063824113581461030957806382afd23b146103da5780638b68e038146103bd5780638da5cb5b146103965780639799b4e71461036c5780639af379a01461030e578063a967eee414610309578063b176aa45146102e3578063bbd78e93146102c6578063cd6a094a146102a8578063daf0e9c51461026e578063f2fde38b146101f8578063f9120af614610192578063fdc853711461012c5763fecfba3a14610100575f80fd5b34610128575f366003190112610128576003546040516001600160a01b039091168152602090f35b5f80fd5b34610128576020366003190112610128576004356001600160a01b038116908190036101285761015a6109d1565b600380546001600160a01b031916821790557f23a1b510439be15b459a731ae3d1d5a6eac00dcd9433c69442716b282d888ac45f80a2005b34610128576020366003190112610128576004356001600160a01b03811690819003610128576101c06109d1565b600280546001600160a01b031916821790557f602cec4b1583b07d071161da5eb9589444d2459201e2fab7753dc941e9351c215f80a2005b34610128576020366003190112610128576004356001600160a01b03811690819003610128576102266109d1565b801561025b575f80546001600160a01b03198116831782556001600160a01b0316905f516020610c415f395f51905f529080a3005b631e4fbdf760e01b5f525f60045260245ffd5b34610128576020366003190112610128576020610299600435610294600454821061055d565b6105cb565b90549060031b1c604051908152f35b34610128576020366003190112610128576102c460043561090e565b005b34610128575f366003190112610128576020600754604051908152f35b346101285760203660031901126101285760206103016004356107ae565b604051908152f35b61036c565b34610128576060366003190112610128576044356001600160401b03811161012857366023820112156101285760048101356001600160401b0381116101285736602482840101116101285760246102c492016024356004356106b4565b34610128576020366003190112610128576004355f526001602052602060405f2054604051908152f35b34610128575f366003190112610128575f546040516001600160a01b039091168152602090f35b34610128575f366003190112610128576020600454604051908152f35b34610128576020366003190112610128576004355f526005602052602060405f20541515604051908152f35b34610128575f3660031901126101285761041e6109d1565b5f80546001600160a01b0319811682556001600160a01b03165f516020610c415f395f51905f528280a3005b34610128576020366003190112610128576004355f526006602052602060ff60405f2054166040519015158152f35b3461012857602036600319011261012857602061029960043561049f600754821061055d565b61059f565b34610128575f366003190112610128576002546040516001600160a01b039091168152602090f35b34610128575f36600319011261012857602060ff60035460a01c166040519015158152f35b34610128576020366003190112610128576004358015158091036101285760207fd464f229795dda56c42369a406dade63ed87a7cc12e4ed0cbd917347cb23285a9161053b6109d1565b6003805460ff60a01b191660a083901b60ff60a01b16179055604051908152a1005b1561056457565b60405162461bcd60e51b8152602060048201526013602482015272496e646578206f7574206f6620626f756e647360681b6044820152606490fd5b6007548110156105b75760075f5260205f2001905f90565b634e487b7160e01b5f52603260045260245ffd5b6004548110156105b75760045f5260205f2001905f90565b80548210156105b7575f5260205f2001905f90565b156105ff57565b60405162461bcd60e51b815260206004820152600f60248201526e27b7363c9030b3b3b932b3b0ba37b960891b6044820152606490fd5b1561063d57565b60405162461bcd60e51b815260206004820152600e60248201526d151bdad95b881c995d99585b195960921b6044820152606490fd5b908060209392818452848401375f828201840152601f01601f1916010190565b919082018092116106a057565b634e487b7160e01b5f52601160045260245ffd5b92907f93ed1bb877baa71c9aef86a79dac9360569bb566644be81c1bb4b1d617ad654a926106ed60018060a01b036002541633146105f8565b845f52600660205261070660ff60405f20541615610636565b811561076e5761075b90855f52600160205260405f2054936107288486610693565b94875f5260016020528560405f205515610760575b60405194859485526020850152606060408501526060840191610673565b0390a2565b610769876109f7565b61073d565b9050835f52600160205261075b60405f2054916040519384935f85526020850152606060408501526060840191610673565b5f1981146106a05760010190565b90815f5260066020526107c860ff60405f20541615610636565b815f52600160205260405f2054916107df81610a63565b925f90600454925f5b84811061085f57505061085a57906107ff91610693565b915f906007545f5b81811061082857505061081b919293610693565b9081039081116106a05790565b826108416108358361059f565b90549060031b1c610a63565b1061084f575b600101610807565b600190930192610847565b925050565b610868816105cb565b90549060031b1c82811461090557805f52600160205260405f20548481116108f757841461089c575b506001905b016107e8565b876108a682610a63565b8181106108e25714908390826108d8575b50506108c4575b5f610891565b926108d06001916107a0565b9390506108be565b109050825f6108b7565b505050926108f16001916107a0565b93610896565b5050926108f16001916107a0565b50600190610896565b61092360018060a01b036002541633146105f8565b805f52600660205260ff60405f2054166109ce57805f52600660205260405f20600160ff1982541617905561095781610b64565b600754600160401b8110156109ba578161097c826001610994940160075560076105e3565b90919082549060031b91821b915f19901b1916179055565b7fafd1af0d18662bc4cbe66cd3885857264bb71d267eb57c0add879e84a5be31775f80a2565b634e487b7160e01b5f52604160045260245ffd5b50565b5f546001600160a01b031633036109e457565b63118cdaa760e01b5f523360045260245ffd5b805f52600560205260405f20546109ce57600454600160401b8110156109ba578161097c826001610a2d940160045560046105e3565b600454815f52600560205260405f20557f43f7deefc1f4e825772604a0bc01b8362eb1eef895e6bd4db39bfab68c1e94c85f80a2565b6003546001600160a01b0381169081610ac2575b50508015610a8d575f1981019081116106a05790565b60405162461bcd60e51b815260206004820152600d60248201526c24b73b30b634b2103a37b5b2b760991b6044820152606490fd5b602060249260405193848092634083892560e01b82528760048301525afa5f9281610b1b575b5015610a775760ff91925060a01c168015610b13575b610b10575f1981019081116106a05790565b90565b508015610afe565b90925060203d602011610b5d575b601f8101601f191682016001600160401b038111838210176109ba576020918391604052810103126101285751915f610ae8565b503d610b29565b805f52600560205260405f20548015610c3c575f1981018181116106a0576004545f1981019081116106a057808203610c09575b5050506004548015610bf5575f1901610bb0816105cb565b8154905f199060031b1b19169055600455805f5260056020525f60408120557f76ae93cd7712c8a8b4ba0c1b9f441ddbd9e9ce3e425a93b15e8f6e37d8784fa65f80a2565b634e487b7160e01b5f52603160045260245ffd5b61097c91610c19610c28926105cb565b90549060031b1c9283916105cb565b5f52600560205260405f20555f8080610b98565b505056fe8be0079c531659141344cd1fd0a4f28419497f9722a3daafe3b4186f6b6457e0a2646970667358221220098a6d2ffbfabc4f194e078af0ae45c13e876769abb7ce00cf199d8b963a828364736f6c634300081e0033",
        "nonce": "0x271",
        "chainId": "0xaa36a7"
      },
      "additionalContracts": [],
      "isFixedGasLimit": false
    },
    {
      "hash": "0x49b77f44f6a47c5665adcf7fbd604c34aee74bd7c2d40ffbcd1248f311535122",
      "transactionType": "CREATE",
      "contractName": "PointsAggregator",
      "contractAddress": "0xe954b8c8cade672540d574b034b47863c1f81545",
      "function": null,
      "arguments": [
        "0xfa026570D389E23b742723172781585814347f85"
      ],
      "transaction": {
        "from": "0xad9fdad276ab1a430fd03177a07350cd7c61e897",
        "gas": "0xd8125",
        "value": "0x0",
        "input": "0x60803460cd57601f610b5638819003918201601f19168301916001600160401b0383118484101760d15780849260209460405283398101031260cd57516001600160a01b0381169081900360cd57331560ba575f8054336001600160a01b0319821681178355604051939290916001600160a01b0316907f8be0079c531659141344cd1fd0a4f28419497f9722a3daafe3b4186f6b6457e09080a3600180546001600160a01b031916919091179055610a7090816100e68239f35b631e4fbdf760e01b5f525f60045260245ffd5b5f80fd5b634e487b7160e01b5f52604160045260245ffdfe6080806040526004361015610012575f80fd5b5f3560e01c9081630e69718b146105aa575080632be1f6a114610582578063303a9772146104ad57806352f5ad77146104475780635fe12de01461035a57806363117eaf146102f4578063715018a6146102b0578063857fbd45146102805780638da5cb5b14610259578063904b5f0314610231578063ba8f93dd146101c4578063d56d229d1461019c578063d89d9f5f146101305763f2fde38b146100b6575f80fd5b3461012c57602036600319011261012c576004356001600160a01b0381169081900361012c576100e46109f4565b8015610119575f80546001600160a01b03198116831782556001600160a01b0316905f516020610a1b5f395f51905f529080a3005b631e4fbdf760e01b5f525f60045260245ffd5b5f80fd5b3461012c575f36600319011261012c576101486109f4565b6001546001600160a01b0316803b1561012c575f8091602460405180948193637c89057b60e11b83523060048401525af180156101915761018557005b5f61018f91610915565b005b6040513d5f823e3d90fd5b3461012c575f36600319011261012c576003546040516001600160a01b039091168152602090f35b3461012c57602036600319011261012c576004356001600160a01b0381169081900361012c576101f26109f4565b6001546001600160a01b031690813b1561012c575f9160248392604051948593849263f2fde38b60e01b845260048401525af180156101915761018557005b3461012c575f36600319011261012c576001546040516001600160a01b039091168152602090f35b3461012c575f36600319011261012c575f546040516001600160a01b039091168152602090f35b3461012c57602036600319011261012c576004356001600160401b03811161012c5761018f9036906004016108e8565b3461012c575f36600319011261012c576102c86109f4565b5f80546001600160a01b0319811682556001600160a01b03165f516020610a1b5f395f51905f528280a3005b3461012c57602036600319011261012c576004356001600160a01b0381169081900361012c576103226109f4565b600280546001600160a01b031916821790557fe9cc17a40c066a3782e2f682d8d6d2625af5474f0bbc68b240292ff629332a395f80a2005b3461012c57606036600319011261012c576004356024356044356001600160401b03811161012c576103909036906004016108e8565b909161039a6109f4565b6001546001600160a01b031692833b1561012c575f60405180956304d79bcd60e51b8252876004830152846024830152606060448301528183816103e2606482018a896109d4565b03925af1908115610191577f251f0f9c21a717d93bc2910b67f85c577dfbe5b5f42e8bd72c012df160a8451c9461043292610437575b5060405193849384526040602085015260408401916109d4565b0390a2005b5f61044191610915565b86610418565b3461012c57602036600319011261012c576004356001600160a01b0381169081900361012c576104756109f4565b600380546001600160a01b031916821790557fa27bdd7b0c9c795c64307abe4a8b21d993ec4bd2601c38dfaee5cfc991375ae85f80a2005b3461012c57602036600319011261012c57600354600435906001600160a01b03163303610547576001546001600160a01b0316803b1561012c575f80916024604051809481936366b504a560e11b83528760048401525af1801561019157610537575b507fa26e709207c485dc1734608fb4f7d6241d92d43688d70bf406344da85fcf3c1a5f80a2005b5f61054191610915565b81610510565b60405162461bcd60e51b8152602060048201526013602482015272155b985d5d1a1bdc9a5e9959081c995d99585b606a1b6044820152606490fd5b3461012c575f36600319011261012c576002546040516001600160a01b039091168152602090f35b3461012c57602036600319011261012c576004356001600160401b03811161012c576105da9036906004016108e8565b600254919290916001600160a01b031633036108b25750810160608282031261012c5781356001600160401b03811161012c578161061991840161094f565b9060208301356001600160401b03811161012c578161063991850161094f565b926040810135906001600160401b03821161012c57019080601f8301121561012c5781359161066783610938565b926106756040519485610915565b80845260208085019160051b8301019183831161012c5760208101915b8383106108295787878781518351809114908161081e575b50156107e5575f92835b8351851015610795576001546001600160a01b03166106d386866109ac565b516106de87856109ac565b51916106ea88876109ac565b5190803b1561012c576020935f60848195604051978896879586936304d79bcd60e51b855260048501526024840152606060448401528051918291826064860152018484015e8181018301849052601f01601f191681010301925af1801561019157610785575b5061075c85836109ac565b518101809111610771576001909401936106b4565b634e487b7160e01b5f52601160045260245ffd5b5f61078f91610915565b85610751565b60a07f10155f496a00c506fa23f75701e0cb47b41b1828cc38c81e16f3fccab176fb1b91855190604051916060835260046060840152636261736560e01b608084015260208301526040820152a1005b60405162461bcd60e51b81526020600482015260116024820152704d69736d6174636865642061727261797360781b6044820152606490fd5b9050815114846106aa565b82356001600160401b03811161012c57820185603f8201121561012c576020810135916001600160401b03831161089e57604051610871601f8501601f191660200182610915565b838152604083850101881061012c575f602085819660408397018386013783010152815201920191610692565b634e487b7160e01b5f52604160045260245ffd5b62461bcd60e51b815260206004820152601160248201527027b7363c9026189031b7b63632b1ba37b960791b6044820152606490fd5b9181601f8401121561012c578235916001600160401b03831161012c576020838186019501011161012c57565b601f909101601f19168101906001600160401b0382119082101761089e57604052565b6001600160401b03811161089e5760051b60200190565b9080601f8301121561012c57813561096681610938565b926109746040519485610915565b81845260208085019260051b82010192831161012c57602001905b82821061099c5750505090565b813581526020918201910161098f565b80518210156109c05760209160051b010190565b634e487b7160e01b5f52603260045260245ffd5b908060209392818452848401375f828201840152601f01601f1916010190565b5f546001600160a01b03163303610a0757565b63118cdaa760e01b5f523360045260245ffdfe8be0079c531659141344cd1fd0a4f28419497f9722a3daafe3b4186f6b6457e0a26469706673582212204de67fe1f4df7efd42dad7303b56151922398915448ff2d522fbc0236489165464736f6c634300081e0033000000000000000000000000fa026570d389e23b742723172781585814347f85",
        "nonce": "0x272",
        "chainId": "0xaa36a7"
      },
      "additionalContracts": [],
      "isFixedGasLimit": false
    },
    {
      "hash": "0x808c3c7de485ac8fbe4053db2e3d8afcf95607e01319a0bb301f29cea54c95fe",
      "transactionType": "CALL",
      "contractName": "PointsManager",
      "contractAddress": "0xfa026570d389e23b742723172781585814347f85",
      "function": "setAggregator(address)",
      "arguments": [
        "0xE954b8C8cADe672540D574b034B47863c1F81545"
      ],
      "transaction": {
        "from": "0xad9fdad276ab1a430fd03177a07350cd7c61e897",
        "to": "0xfa026570d389e23b742723172781585814347f85",
        "gas": "0x10efa",
        "value": "0x0",
        "input": "0xf9120af6000000000000000000000000e954b8c8cade672540d574b034b47863c1f81545",
        "nonce": "0x273",
        "chainId": "0xaa36a7"
      },
      "additionalContracts": [],
      "isFixedGasLimit": false
    },
    {
      "hash": "0xa2e044ece4eec75155f51c18d9954ff0754f0660f97053e4a27982bcca034ea6",
      "transactionType": "CREATE",
      "contractName": "L1BurnCollector",
      "contractAddress": "0xd8de811c66fdc1cca890b0564734168008e745f9",
      "function": null,
      "arguments": [
        "0xE954b8C8cADe672540D574b034B47863c1F81545",
        "0x614FE9079021688115A8Ec29b065344C033f9740"
      ],
      "transaction": {
        "from": "0xad9fdad276ab1a430fd03177a07350cd7c61e897",
        "gas": "0x1e8e37",
        "value": "0x0",
        "input": "0x6080604052346101c157604051601f61168038819003918201601f19168301916001600160401b0383118484101761019a5780849260409485528339810103126101c1576100586020610051836101c5565b92016101c5565b9033156101ae575f8054336001600160a01b0319821681178355916001600160a01b03909116907f8be0079c531659141344cd1fd0a4f28419497f9722a3daafe3b4186f6b6457e09080a360405161018081016001600160401b0381118282101761019a5760405260648152605f6020820152605c60408201526058606082015260556080820152605260a0820152604e60c0820152604b60e0820152604861010082015260446101208201526041610140820152603c6101608201525f5b600c8110610182575050600180546001600160a01b039283166001600160a01b0319918216179091556006805493909216921682179055604051907fd1cca643b71f0b734e29ea3538d99dfbab03ad2fb3b71aec3c3917dddc893fa45f80a26114a690816101da8239f35b600190602060ff845116930192816007015501610117565b634e487b7160e01b5f52604160045260245ffd5b631e4fbdf760e01b5f525f60045260245ffd5b5f80fd5b51906001600160a01b03821682036101c15756fe6080806040526004361015610012575f80fd5b5f905f3560e01c90816301ffc9a714610e5857508063066959cf14610e2057806311735f7814610df4578063150b7a0214610c36578063245a7bfc14610c0d5780634184e35614610af25780635d65c17214610a61578063642b715c14610a1c578063642c814814610940578063715018a6146108f9578063726ec2ef146108755780638409dd72146106d05780638995b2fa146105fa5780638da5cb5b146105d3578063961a4e8e146104ab578063b7433a8114610462578063ba46d032146103fa578063bc197c8114610361578063e366da2c14610324578063f0bd0e79146102fb578063f23a6e61146101855763f2fde38b14610110575f80fd5b3461018257602036600319011261018257610129610ec3565b610131611320565b6001600160a01b0316801561016e5781546001600160a01b03198116821783556001600160a01b03165f5160206114515f395f51905f528380a380f35b631e4fbdf760e01b82526004829052602482fd5b80fd5b50346101825760a03660031901126101825761019f610ec3565b506101a8610ed9565b606435916084356001600160401b0381116102f3576101cd6020913690600401610eef565b90809291338552600283526101e760408620541515610fa9565b810103126102f75735903381526002602052610208838560408420546110f3565b91333b156102f357604051633b584ed360e21b81526044356004820152856024820152828160448183335af16102de575b50918161028160e0945f5160206114315f395f51905f529694508360405191610263604084610fea565b600c83526b22a92198989a9a90313ab93760a11b6020840152611136565b50604080513381526020810196909652850152600c6228206f420406606085015260a060808501819052600790850152664552433131353560c81b60c08501526001600160a01b031692a260405163f23a6e6160e01b8152602090f35b6102e9838092610fea565b6102f3575f610239565b5080fd5b5f80fd5b50346101825780600319360112610182576006546040516001600160a01b039091168152602090f35b50346101825760203660031901126101825760209060ff906040906001600160a01b0361034f610ec3565b16815260058452205416604051908152f35b50346101825760a03660031901126101825761037b610ec3565b50610384610ed9565b506044356001600160401b0381116102f3576103a4903690600401610f79565b50506064356001600160401b0381116102f3576103c5903690600401610f79565b50506084356001600160401b0381116102f3576103e6903690600401610eef565b505060405163bc197c8160e01b8152602090f35b503461018257602036600319011261018257610414610ec3565b61041c611320565b600680546001600160a01b0319166001600160a01b039290921691821790557fd1cca643b71f0b734e29ea3538d99dfbab03ad2fb3b71aec3c3917dddc893fa48280a280f35b50346101825761018036600319011261018257366101841161018257610486611320565b6004815b600c8110610496578280f35b6001906020833593019281600701550161048a565b5034610182576060366003190112610182576104c5610ec3565b6024356044359160ff83168093036105cf576104df611320565b8115610597576001600160a01b03168084526004602052604084205490919060ff161561052c575b8184526002602052604084205582526005602052604082209060ff1982541617905580f35b600354600160401b8110156105835780600161054b9201600355611038565b81546001600160a01b0360039290921b91821b19169084901b179055818452600460205260408420805460ff19166001179055610507565b634e487b7160e01b85526041600452602485fd5b60405162461bcd60e51b815260206004820152601060248201526f042617365206d757374206265203e20360841b6044820152606490fd5b8380fd5b5034610182578060031936011261018257546040516001600160a01b039091168152602090f35b503461018257608036600319011261018257806001600160a01b0361061d610ec3565b16808252600260205261063560408320541515610fa9565b60405190606435602083015260208252610650604083610fea565b803b156106cc5761069f8392918392604051948580948193637921219560e11b83523360048401523060248401526024356044840152604435606484015260a0608484015260a4830190611071565b03925af180156106c1576106b05750f35b816106ba91610fea565b6101825780f35b6040513d84823e3d90fd5b5050fd5b5034610182576106df36610f4f565b6001600160a01b03831680855260026020526040852054909390610704901515610fa9565b6040516323b872dd60e01b81523360048201523060248201526044810184905260208160648189895af190811561086a578491610825575b5061074a9061075e926112d2565b8486526002602052339060408720546110f3565b90833b156108215784604051630852cd8d60e31b81528460048201528181602481838a5af161080c575b50906107bb9150826040519161079f604084610fea565b600a83526922a921991810313ab93760b11b6020840152611136565b600c6228206f4204069160405193845260208401526040830152606082015260a06080820152600560a082015264045524332360dc1b60c08201525f5160206114315f395f51905f5260e03392a280f35b8161081691610fea565b61082157845f610788565b8480fd5b90506020813d602011610862575b8161084060209383610fea565b8101031261085e575190811515820361085e5790508261074a61073c565b8580fd5b3d9150610833565b6040513d88823e3d90fd5b503461018257806003193601126101825761018090816040516108988282610fea565b369037604051600782825b600c82106108e357505050906108b98383610fea565b6040519190825b600c82106108cd57505050f35b60208060019285518152019301910190916108c0565b60016020819285548152019301910190916108a3565b5034610182578060031936011261018257610912611320565b80546001600160a01b03198116825581906001600160a01b03165f5160206114515f395f51905f528280a380f35b50346101825760403660031901126101825761095a610ec3565b60243590610966611320565b8115610597576001600160a01b03168083526004602052604083205490919060ff16156109b1575b81835260026020526040832055815260056020526040812060ff19815416905580f35b600354600160401b811015610a08578060016109d09201600355611038565b81546001600160a01b0360039290921b91821b19169084901b179055818352600460205260408320805460ff1916600117905561098e565b634e487b7160e01b84526041600452602484fd5b503461018257606036600319011261018257610a36610ec3565b604435916001600160a01b0383168303610182576020610a598460243585611095565b604051908152f35b50346101825780610a7136610f4f565b9160018060a01b0316918284526002602052610a9260408520541515610fa9565b60405190602082015260208152610aaa604082610fea565b823b15610aed5761069f92849283604051809681958294635c46a7ef60e11b84523360048501523060248501526044840152608060648401526084830190611071565b505050fd5b5034610182578060031936011261018257600354610b0f81611021565b90610b1d6040519283610fea565b808252610b2981611021565b602083019390601f1901368537610b3f82611021565b91610b4d6040519384610fea565b808352601f19610b5c82611021565b01366020850137815b818110610bc457505060405192604084019060408552518091526060840194915b818110610ba5578480610ba188878382036020850152610f1c565b0390f35b82516001600160a01b0316865260209586019590920191600101610b86565b80610bd3600192969496611038565b838060a01b0391549060031b1c1680610bec838761105d565b52865260026020526040862054610c03828761105d565b5201939193610b65565b50346101825780600319360112610182576001546040516001600160a01b039091168152602090f35b50346102f75760803660031901126102f757610c50610ec3565b50610c59610ed9565b60443591906064356001600160401b0381116102f757610c7f6020913690600401610eef565b90809291335f5260028352610c9960405f20541515610fa9565b810103126102f7573590335f52600260205260405f2054600c6228206f42040690610cc383611346565b81158280046001141715610de057600c831015610dcc57610cf76127109291610cf284938660070154906110e0565b6110e0565b0404333b156102f7575f5160206114315f395f51905f529460e094604051630852cd8d60e31b81528860048201525f8160248183335af1610db5575b50610d65908360405191610d48604084610fea565b600b83526a22a9219b991890313ab93760a91b6020840152611136565b506040519533875260208701526040860152606085015260a06080850152600660a08501526545524337323160d01b60c085015260018060a01b031692a2604051630a85bd0160e11b8152602090f35b610dc29192505f90610fea565b5f90610d65610d33565b634e487b7160e01b5f52603260045260245ffd5b634e487b7160e01b5f52601160045260245ffd5b346102f75760203660031901126102f757600435600c8110156102f75760209060070154604051908152f35b346102f75760203660031901126102f7576001600160a01b03610e41610ec3565b165f526002602052602060405f2054604051908152f35b346102f75760203660031901126102f7576004359063ffffffff60e01b82168092036102f757602091630a85bd0160e11b8114908115610eb2575b8115610ea1575b5015158152f35b6301ffc9a760e01b14905083610e9a565b630271189760e51b81149150610e93565b600435906001600160a01b03821682036102f757565b602435906001600160a01b03821682036102f757565b9181601f840112156102f7578235916001600160401b0383116102f757602083818601950101116102f757565b90602080835192838152019201905f5b818110610f395750505090565b8251845260209384019390920191600101610f2c565b60609060031901126102f7576004356001600160a01b03811681036102f757906024359060443590565b9181601f840112156102f7578235916001600160401b0383116102f7576020808501948460051b0101116102f757565b15610fb057565b60405162461bcd60e51b81526020600482015260126024820152714173736574206e6f7420656c696769626c6560701b6044820152606490fd5b601f909101601f19168101906001600160401b0382119082101761100d57604052565b634e487b7160e01b5f52604160045260245ffd5b6001600160401b03811161100d5760051b60200190565b600354811015610dcc5760035f5260205f2001905f90565b805115610dcc5760200190565b8051821015610dcc5760209160051b010190565b805180835260209291819084018484015e5f828201840152601f01601f1916010190565b6001600160a01b0381165f90815260026020526040902054919291906110bc821515610fa9565b83156110d8576110d5936110cf916112d2565b906110f3565b90565b505050505f90565b81810292918115918404141715610de057565b91906111119061110b600c6228206f42040693611346565b936110e0565b600c821015610dcc5761271092610cf261113192859460070154906110e0565b040490565b6040918251936111468486610fea565b60018552601f19840191823660208801378451936111648686610fea565b600185528336602087013785519361117c8786610fea565b600185525f5b8181106112c15750509086929161119b6111df98611050565b526111a585611050565b526111af83611050565b526111b982611050565b506111f060018060a01b0360015416938551968793606060208601526080850190610f1c565b838103601f19018785015290610f1c565b91601f19828403016060830152805180845260208401936020808360051b8301019301945f915b8383106112905750505050611235925003601f198101855284610fea565b803b156102f7578151630e69718b60e01b815260206004820152925f918491829084908290611268906024830190611071565b03925af1908115611287575061127b5750565b5f61128591610fea565b565b513d5f823e3d90fd5b919360019193955060206112af8192601f198682030187528951611071565b97019301930190928894929593611217565b806060602080938901015201611182565b6001600160a01b03165f9081526005602052604090205460ff16801561131c57604d8111610de057600a0a908115611308570490565b634e487b7160e01b5f52601260045260245ffd5b5090565b5f546001600160a01b0316330361133357565b63118cdaa760e01b5f523360045260245ffd5b6001600160a01b03168015611429576006546001600160a01b03169081158015611420575b611418576020906024604051809481936370a0823160e01b835260048301525afa5f91816113e4575b506113a0575061271090565b60648110156113dd5760328110156113d657600a8110156113cf57600111156113c95761271090565b612af890565b50614e2090565b5061753090565b50619c4090565b9091506020813d602011611410575b8161140060209383610fea565b810103126102f75751905f611394565b3d91506113f3565b505061271090565b50813b1561136b565b506127109056fee3de3cf8b55d889e1f0f229a17138e633440a6ba07397d3eb4f1c0c7c61ea27f8be0079c531659141344cd1fd0a4f28419497f9722a3daafe3b4186f6b6457e0a2646970667358221220719e7df1d6767dccac0fca53dbde6ca3ff198ecdbe4bd6caf912f259b86eb76764736f6c634300081e0033000000000000000000000000e954b8c8cade672540d574b034b47863c1f81545000000000000000000000000614fe9079021688115a8ec29b065344c033f9740",
        "nonce": "0x274",
        "chainId": "0xaa36a7"
      },
      "additionalContracts": [],
      "isFixedGasLimit": false
    },
    {
      "hash": "0xa96fc4949a339af575404208560d7a413548b1dc543e90170065dd7bcd11344c",
      "transactionType": "CALL",
      "contractName": "PointsAggregator",
      "contractAddress": "0xe954b8c8cade672540d574b034b47863c1f81545",
      "function": "setL1BurnCollector(address)",
      "arguments": [
        "0xD8dE811c66FDC1cCA890b0564734168008e745F9"
      ],
      "transaction": {
        "from": "0xad9fdad276ab1a430fd03177a07350cd7c61e897",
        "to": "0xe954b8c8cade672540d574b034b47863c1f81545",
        "gas": "0x10d63",
        "value": "0x0",
        "input": "0x63117eaf000000000000000000000000d8de811c66fdc1cca890b0564734168008e745f9",
        "nonce": "0x275",
        "chainId": "0xaa36a7"
      },
      "additionalContracts": [],
      "isFixedGasLimit": false
    },
    {
      "hash": "0xc6e8161cff9e12a96df1589511521dea26aef2e1c8c3404886ab397c539ff349",
      "transactionType": "CALL",
      "contractName": "L1BurnCollector",
      "contractAddress": "0xd8de811c66fdc1cca890b0564734168008e745f9",
      "function": "addEligibleAsset(address,uint256)",
      "arguments": [
        "0x614FE9079021688115A8Ec29b065344C033f9740",
        "100000"
      ],
      "transaction": {
        "from": "0xad9fdad276ab1a430fd03177a07350cd7c61e897",
        "to": "0xd8de811c66fdc1cca890b0564734168008e745f9",
        "gas": "0x26f7e",
        "value": "0x0",
        "input": "0x642c8148000000000000000000000000614fe9079021688115a8ec29b065344c033f974000000000000000000000000000000000000000000000000000000000000186a0",
        "nonce": "0x276",
        "chainId": "0xaa36a7"
      },
      "additionalContracts": [],
      "isFixedGasLimit": false
    },
    {
      "hash": "0x4479dd505cbb8f6427ced35304939f26d6c0afed0d5aebdbfa17433687fef115",
      "transactionType": "CALL",
      "contractName": "L1BurnCollector",
      "contractAddress": "0xd8de811c66fdc1cca890b0564734168008e745f9",
      "function": "addEligibleAsset(address,uint256)",
      "arguments": [
        "0x7Ef7dF0F64A2591fd5bE9c1E88728e59CB5D362B",
        "10000"
      ],
      "transaction": {
        "from": "0xad9fdad276ab1a430fd03177a07350cd7c61e897",
        "to": "0xd8de811c66fdc1cca890b0564734168008e745f9",
        "gas": "0x21329",
        "value": "0x0",
        "input": "0x642c81480000000000000000000000007ef7df0f64a2591fd5be9c1e88728e59cb5d362b0000000000000000000000000000000000000000000000000000000000002710",
        "nonce": "0x277",
        "chainId": "0xaa36a7"
      },
      "additionalContracts": [],
      "isFixedGasLimit": false
    },
    {
      "hash": "0x657d481eb73ea019979323b63fadd568f5867e44a0c1294dc80cc576a127613a",
      "transactionType": "CALL",
      "contractName": "L1BurnCollector",
      "contractAddress": "0xd8de811c66fdc1cca890b0564734168008e745f9",
      "function": "addEligibleAssetWithDecimals(address,uint256,uint8)",
      "arguments": [
        "0xD2DcB326F003DC8db194C74Db2749F8C653Df6aC",
        "1",
        "18"
      ],
      "transaction": {
        "from": "0xad9fdad276ab1a430fd03177a07350cd7c61e897",
        "to": "0xd8de811c66fdc1cca890b0564734168008e745f9",
        "gas": "0x2a5d4",
        "value": "0x0",
        "input": "0x961a4e8e000000000000000000000000d2dcb326f003dc8db194c74db2749f8c653df6ac00000000000000000000000000000000000000000000000000000000000000010000000000000000000000000000000000000000000000000000000000000012",
        "nonce": "0x278",
        "chainId": "0xaa36a7"
      },
      "additionalContracts": [],
      "isFixedGasLimit": false
    },
    {
      "hash": "0xabb2575bc29a7f76448b692a3f1c04907d2cdd2841608c9670df8af1308a1ee0",
      "transactionType": "CALL",
      "contractName": "DummyOneOfOne",
      "contractAddress": "0x614fe9079021688115a8ec29b065344c033f9740",
      "function": "setApprovalForAll(address,bool)",
      "arguments": [
        "0xD8dE811c66FDC1cCA890b0564734168008e745F9",
        "true"
      ],
      "transaction": {
        "from": "0xad9fdad276ab1a430fd03177a07350cd7c61e897",
        "to": "0x614fe9079021688115a8ec29b065344c033f9740",
        "gas": "0x107d9",
        "value": "0x0",
        "input": "0xa22cb465000000000000000000000000d8de811c66fdc1cca890b0564734168008e745f90000000000000000000000000000000000000000000000000000000000000001",
        "nonce": "0x279",
        "chainId": "0xaa36a7"
      },
      "additionalContracts": [],
      "isFixedGasLimit": false
    },
    {
      "hash": "0xf16bf68cd8010dc6b1fa6d9e4f94b09a448bf858967dbaecdc176817b4255961",
      "transactionType": "CALL",
      "contractName": "DummyEdition1155",
      "contractAddress": "0x7ef7df0f64a2591fd5be9c1e88728e59cb5d362b",
      "function": "setApprovalForAll(address,bool)",
      "arguments": [
        "0xD8dE811c66FDC1cCA890b0564734168008e745F9",
        "true"
      ],
      "transaction": {
        "from": "0xad9fdad276ab1a430fd03177a07350cd7c61e897",
        "to": "0x7ef7df0f64a2591fd5be9c1e88728e59cb5d362b",
        "gas": "0x107c3",
        "value": "0x0",
        "input": "0xa22cb465000000000000000000000000d8de811c66fdc1cca890b0564734168008e745f90000000000000000000000000000000000000000000000000000000000000001",
        "nonce": "0x27a",
        "chainId": "0xaa36a7"
      },
      "additionalContracts": [],
      "isFixedGasLimit": false
    },
    {
      "hash": "0xe658dc8a48a0fa7faa7033746e415a4114158c147da21f24f204c99eeb4f2760",
      "transactionType": "CALL",
      "contractName": "DummyERC20Burnable",
      "contractAddress": "0xd2dcb326f003dc8db194c74db2749f8c653df6ac",
      "function": "approve(address,uint256)",
      "arguments": [
        "0xD8dE811c66FDC1cCA890b0564734168008e745F9",
        "115792089237316195423570985008687907853269984665640564039457584007913129639935"
      ],
      "transaction": {
        "from": "0xad9fdad276ab1a430fd03177a07350cd7c61e897",
        "to": "0xd2dcb326f003dc8db194c74db2749f8c653df6ac",
        "gas": "0xf9a4",
        "value": "0x0",
        "input": "0x095ea7b3000000000000000000000000d8de811c66fdc1cca890b0564734168008e745f9ffffffffffffffffffffffffffffffffffffffffffffffffffffffffffffffff",
        "nonce": "0x27b",
        "chainId": "0xaa36a7"
      },
      "additionalContracts": [],
      "isFixedGasLimit": false
    },
    {
      "hash": "0x73770ade8f60837beb3959add18ea259773cc42748eec65c19794677707e620f",
      "transactionType": "CALL",
      "contractName": "EveryTwoMillionBlocks",
      "contractAddress": "0xa27e1385cfcc5bd6ff25d005d8fb10239502f4bc",
      "function": "setPointsManager(address)",
      "arguments": [
        "0xfa026570D389E23b742723172781585814347f85"
      ],
      "transaction": {
        "from": "0xad9fdad276ab1a430fd03177a07350cd7c61e897",
        "to": "0xa27e1385cfcc5bd6ff25d005d8fb10239502f4bc",
        "gas": "0x110a6",
        "value": "0x0",
        "input": "0xcae42a08000000000000000000000000fa026570d389e23b742723172781585814347f85",
        "nonce": "0x27c",
        "chainId": "0xaa36a7"
      },
      "additionalContracts": [],
      "isFixedGasLimit": false
    }
  ],
  "receipts": [
    {
      "status": "0x1",
      "cumulativeGasUsed": "0x47bb33",
      "logs": [
        {
          "address": "0xfa026570d389e23b742723172781585814347f85",
          "topics": [
            "0x8be0079c531659141344cd1fd0a4f28419497f9722a3daafe3b4186f6b6457e0",
            "0x0000000000000000000000000000000000000000000000000000000000000000",
            "0x000000000000000000000000ad9fdad276ab1a430fd03177a07350cd7c61e897"
          ],
          "data": "0x",
          "blockHash": "0x60c55226493f47dd163b23faedcb6050fa7f2e35c37a3e856a58aed1024099de",
          "blockNumber": "0x913c25",
          "blockTimestamp": "0x69027be8",
          "transactionHash": "0x2b88ca994c3bddf6f0b19469605d36ed33625c4d7f03c74b75932eaf2f1fd896",
          "transactionIndex": "0x20",
          "logIndex": "0x29",
          "removed": false
        }
      ],
      "logsBloom": "0x00000000000000000000000000000000000000000040004000800000000000000000000000000000000000000000000000000000000000000000000000000000000000000000004000000000000000000001000000000000000000000000000000000000020000000000000000000800000000000000000000000000000000400000000000000040000000000000000000000000000000000000000000000000000010000000000000000000000000000000000000000000000000000000000000000000000000000000000000000000000000000000000000000000000020000000000000000000000000000000000000000000000000000000000000000020",
      "type": "0x0",
      "transactionHash": "0x2b88ca994c3bddf6f0b19469605d36ed33625c4d7f03c74b75932eaf2f1fd896",
      "transactionIndex": "0x20",
      "blockHash": "0x60c55226493f47dd163b23faedcb6050fa7f2e35c37a3e856a58aed1024099de",
      "blockNumber": "0x913c25",
      "gasUsed": "0xbd477",
      "effectiveGasPrice": "0xf4248",
      "from": "0xad9fdad276ab1a430fd03177a07350cd7c61e897",
      "to": null,
      "contractAddress": "0xfa026570d389e23b742723172781585814347f85"
    },
    {
      "status": "0x1",
      "cumulativeGasUsed": "0x521e8b",
      "logs": [
        {
          "address": "0xe954b8c8cade672540d574b034b47863c1f81545",
          "topics": [
            "0x8be0079c531659141344cd1fd0a4f28419497f9722a3daafe3b4186f6b6457e0",
            "0x0000000000000000000000000000000000000000000000000000000000000000",
            "0x000000000000000000000000ad9fdad276ab1a430fd03177a07350cd7c61e897"
          ],
          "data": "0x",
          "blockHash": "0x60c55226493f47dd163b23faedcb6050fa7f2e35c37a3e856a58aed1024099de",
          "blockNumber": "0x913c25",
          "blockTimestamp": "0x69027be8",
          "transactionHash": "0x49b77f44f6a47c5665adcf7fbd604c34aee74bd7c2d40ffbcd1248f311535122",
          "transactionIndex": "0x21",
          "logIndex": "0x2a",
          "removed": false
        }
      ],
      "logsBloom": "0x00000000000000000000000000000000000000000000000000840000000000000000000000000000000000000000000000000000000000000000000000000000000000000000004000000000000000000001000000000440000000000000000000000000020000000000000000000800000000000000000000000000000000400000000000000040000000000000000000000000000000000000000000000000000010000000000000000000000000000000000000000000000000000000000000000000000000000000000000000000000000000000000000000000000020000000000000000000000000000000000000000000000000000000000000000000",
      "type": "0x0",
      "transactionHash": "0x49b77f44f6a47c5665adcf7fbd604c34aee74bd7c2d40ffbcd1248f311535122",
      "transactionIndex": "0x21",
      "blockHash": "0x60c55226493f47dd163b23faedcb6050fa7f2e35c37a3e856a58aed1024099de",
      "blockNumber": "0x913c25",
      "gasUsed": "0xa6358",
      "effectiveGasPrice": "0xf4248",
      "from": "0xad9fdad276ab1a430fd03177a07350cd7c61e897",
      "to": null,
      "contractAddress": "0xe954b8c8cade672540d574b034b47863c1f81545"
    },
    {
      "status": "0x1",
      "cumulativeGasUsed": "0x52d7d4",
      "logs": [
        {
          "address": "0xfa026570d389e23b742723172781585814347f85",
          "topics": [
            "0x602cec4b1583b07d071161da5eb9589444d2459201e2fab7753dc941e9351c21",
            "0x000000000000000000000000e954b8c8cade672540d574b034b47863c1f81545"
          ],
          "data": "0x",
          "blockHash": "0x60c55226493f47dd163b23faedcb6050fa7f2e35c37a3e856a58aed1024099de",
          "blockNumber": "0x913c25",
          "blockTimestamp": "0x69027be8",
          "transactionHash": "0x808c3c7de485ac8fbe4053db2e3d8afcf95607e01319a0bb301f29cea54c95fe",
          "transactionIndex": "0x22",
          "logIndex": "0x2b",
          "removed": false
        }
      ],
      "logsBloom": "0x40000000000000000000000000000000000000000040004000000000000001000000000000000000000000000000000000000000000000000000100000000000000000000000000000000000000000000000000000000000000000000000000000000020000000000000000000000000000000000000000000000000000000000000000000000000000000000000000040000000000000000000000000000000000000000000000000000000000000000000000000000000000000000000000000000000000000000000000000000000000000000000000000000000000000000000000000002000000000000000000000000000000000000000000000000020",
      "type": "0x0",
      "transactionHash": "0x808c3c7de485ac8fbe4053db2e3d8afcf95607e01319a0bb301f29cea54c95fe",
      "transactionIndex": "0x22",
      "blockHash": "0x60c55226493f47dd163b23faedcb6050fa7f2e35c37a3e856a58aed1024099de",
      "blockNumber": "0x913c25",
      "gasUsed": "0xb949",
      "effectiveGasPrice": "0xf4248",
      "from": "0xad9fdad276ab1a430fd03177a07350cd7c61e897",
      "to": "0xfa026570d389e23b742723172781585814347f85",
      "contractAddress": null
    },
    {
      "status": "0x1",
      "cumulativeGasUsed": "0x6a58eb",
      "logs": [
        {
          "address": "0xd8de811c66fdc1cca890b0564734168008e745f9",
          "topics": [
            "0x8be0079c531659141344cd1fd0a4f28419497f9722a3daafe3b4186f6b6457e0",
            "0x0000000000000000000000000000000000000000000000000000000000000000",
            "0x000000000000000000000000ad9fdad276ab1a430fd03177a07350cd7c61e897"
          ],
          "data": "0x",
          "blockHash": "0x60c55226493f47dd163b23faedcb6050fa7f2e35c37a3e856a58aed1024099de",
          "blockNumber": "0x913c25",
          "blockTimestamp": "0x69027be8",
          "transactionHash": "0xa2e044ece4eec75155f51c18d9954ff0754f0660f97053e4a27982bcca034ea6",
          "transactionIndex": "0x23",
          "logIndex": "0x2c",
          "removed": false
        },
        {
          "address": "0xd8de811c66fdc1cca890b0564734168008e745f9",
          "topics": [
            "0xd1cca643b71f0b734e29ea3538d99dfbab03ad2fb3b71aec3c3917dddc893fa4",
            "0x000000000000000000000000614fe9079021688115a8ec29b065344c033f9740"
          ],
          "data": "0x",
          "blockHash": "0x60c55226493f47dd163b23faedcb6050fa7f2e35c37a3e856a58aed1024099de",
          "blockNumber": "0x913c25",
          "blockTimestamp": "0x69027be8",
          "transactionHash": "0xa2e044ece4eec75155f51c18d9954ff0754f0660f97053e4a27982bcca034ea6",
          "transactionIndex": "0x23",
          "logIndex": "0x2d",
          "removed": false
        }
      ],
      "logsBloom": "0x00000000004000000000000000000000000000000200000000800000000000000000000000000000000000000000000000000000040000040000000000000000000000000000004000000000000000000001000000000000000000000800000000000000020000000000010000000800000000000000000000000000000000400040000000000040000000008000000000000000000000000000000000000000000010000000000000000000000000000000000000000000000000000000000000000000000000000000000000000000000000000000000000000000000020000000000200000000000000000000000000000000000000000000000000000000",
      "type": "0x0",
      "transactionHash": "0xa2e044ece4eec75155f51c18d9954ff0754f0660f97053e4a27982bcca034ea6",
      "transactionIndex": "0x23",
      "blockHash": "0x60c55226493f47dd163b23faedcb6050fa7f2e35c37a3e856a58aed1024099de",
      "blockNumber": "0x913c25",
      "gasUsed": "0x178117",
      "effectiveGasPrice": "0xf4248",
      "from": "0xad9fdad276ab1a430fd03177a07350cd7c61e897",
      "to": null,
      "contractAddress": "0xd8de811c66fdc1cca890b0564734168008e745f9"
    },
    {
      "status": "0x1",
      "cumulativeGasUsed": "0x6b111e",
      "logs": [
        {
          "address": "0xe954b8c8cade672540d574b034b47863c1f81545",
          "topics": [
            "0xe9cc17a40c066a3782e2f682d8d6d2625af5474f0bbc68b240292ff629332a39",
            "0x000000000000000000000000d8de811c66fdc1cca890b0564734168008e745f9"
          ],
          "data": "0x",
          "blockHash": "0x60c55226493f47dd163b23faedcb6050fa7f2e35c37a3e856a58aed1024099de",
          "blockNumber": "0x913c25",
          "blockTimestamp": "0x69027be8",
          "transactionHash": "0xa96fc4949a339af575404208560d7a413548b1dc543e90170065dd7bcd11344c",
          "transactionIndex": "0x24",
          "logIndex": "0x2e",
          "removed": false
        }
      ],
      "logsBloom": "0x00000000000000040000000000000000000000000000000000040000000000000000000000000000000000000001000000000000020000000000000000000000000000000000000000000000000000000000000000000440000000000000000000000000000000000000000000000000000000000000000000000000000000000000000000000000000000000000000000000000000000000000000000000000000000000000000000000000000000000000000000200000000000000000000000000000000000000000000000000000000000000000000000000000000900000000000000000000000000000000000000000000000000000000000000000000",
      "type": "0x0",
      "transactionHash": "0xa96fc4949a339af575404208560d7a413548b1dc543e90170065dd7bcd11344c",
      "transactionIndex": "0x24",
      "blockHash": "0x60c55226493f47dd163b23faedcb6050fa7f2e35c37a3e856a58aed1024099de",
      "blockNumber": "0x913c25",
      "gasUsed": "0xb833",
      "effectiveGasPrice": "0xf4248",
      "from": "0xad9fdad276ab1a430fd03177a07350cd7c61e897",
      "to": "0xe954b8c8cade672540d574b034b47863c1f81545",
      "contractAddress": null
    },
    {
      "status": "0x1",
      "cumulativeGasUsed": "0x6cd484",
      "logs": [],
      "logsBloom": "0x00000000000000000000000000000000000000000000000000000000000000000000000000000000000000000000000000000000000000000000000000000000000000000000000000000000000000000000000000000000000000000000000000000000000000000000000000000000000000000000000000000000000000000000000000000000000000000000000000000000000000000000000000000000000000000000000000000000000000000000000000000000000000000000000000000000000000000000000000000000000000000000000000000000000000000000000000000000000000000000000000000000000000000000000000000000",
      "type": "0x0",
      "transactionHash": "0xc6e8161cff9e12a96df1589511521dea26aef2e1c8c3404886ab397c539ff349",
      "transactionIndex": "0x25",
      "blockHash": "0x60c55226493f47dd163b23faedcb6050fa7f2e35c37a3e856a58aed1024099de",
      "blockNumber": "0x913c25",
      "gasUsed": "0x1c366",
      "effectiveGasPrice": "0xf4248",
      "from": "0xad9fdad276ab1a430fd03177a07350cd7c61e897",
      "to": "0xd8de811c66fdc1cca890b0564734168008e745f9",
      "contractAddress": null
    },
    {
      "status": "0x1",
      "cumulativeGasUsed": "0x6e5512",
      "logs": [],
      "logsBloom": "0x00000000000000000000000000000000000000000000000000000000000000000000000000000000000000000000000000000000000000000000000000000000000000000000000000000000000000000000000000000000000000000000000000000000000000000000000000000000000000000000000000000000000000000000000000000000000000000000000000000000000000000000000000000000000000000000000000000000000000000000000000000000000000000000000000000000000000000000000000000000000000000000000000000000000000000000000000000000000000000000000000000000000000000000000000000000",
      "type": "0x0",
      "transactionHash": "0x4479dd505cbb8f6427ced35304939f26d6c0afed0d5aebdbfa17433687fef115",
      "transactionIndex": "0x26",
      "blockHash": "0x60c55226493f47dd163b23faedcb6050fa7f2e35c37a3e856a58aed1024099de",
      "blockNumber": "0x913c25",
      "gasUsed": "0x1808e",
      "effectiveGasPrice": "0xf4248",
      "from": "0xad9fdad276ab1a430fd03177a07350cd7c61e897",
      "to": "0xd8de811c66fdc1cca890b0564734168008e745f9",
      "contractAddress": null
    },
    {
      "status": "0x1",
      "cumulativeGasUsed": "0x71f216",
      "logs": [],
      "logsBloom": "0x00000000000000000000000000000000000000000000000000000000000000000000000000000000000000000000000000000000000000000000000000000000000000000000000000000000000000000000000000000000000000000000000000000000000000000000000000000000000000000000000000000000000000000000000000000000000000000000000000000000000000000000000000000000000000000000000000000000000000000000000000000000000000000000000000000000000000000000000000000000000000000000000000000000000000000000000000000000000000000000000000000000000000000000000000000000",
      "type": "0x0",
      "transactionHash": "0x657d481eb73ea019979323b63fadd568f5867e44a0c1294dc80cc576a127613a",
      "transactionIndex": "0x28",
      "blockHash": "0x60c55226493f47dd163b23faedcb6050fa7f2e35c37a3e856a58aed1024099de",
      "blockNumber": "0x913c25",
      "gasUsed": "0x1cf79",
      "effectiveGasPrice": "0xf4248",
      "from": "0xad9fdad276ab1a430fd03177a07350cd7c61e897",
      "to": "0xd8de811c66fdc1cca890b0564734168008e745f9",
      "contractAddress": null
    },
    {
      "status": "0x1",
      "cumulativeGasUsed": "0x72a67f",
      "logs": [
        {
          "address": "0x614fe9079021688115a8ec29b065344c033f9740",
          "topics": [
            "0x17307eab39ab6107e8899845ad3d59bd9653f200f220920489ca2b5937696c31",
            "0x000000000000000000000000ad9fdad276ab1a430fd03177a07350cd7c61e897",
            "0x000000000000000000000000d8de811c66fdc1cca890b0564734168008e745f9"
          ],
          "data": "0x0000000000000000000000000000000000000000000000000000000000000001",
          "blockHash": "0x60c55226493f47dd163b23faedcb6050fa7f2e35c37a3e856a58aed1024099de",
          "blockNumber": "0x913c25",
          "blockTimestamp": "0x69027be8",
          "transactionHash": "0xabb2575bc29a7f76448b692a3f1c04907d2cdd2841608c9670df8af1308a1ee0",
          "transactionIndex": "0x29",
          "logIndex": "0x33",
          "removed": false
        }
      ],
      "logsBloom": "0x00000000000000040000000000000000000000000000000008000000000000000000000000000000000000000000000000000000000000000000000000000000000000001000004000000000000000000004000000000000000000000000000002000000000000000000000000000000000000000000000000000000000000000000000000000040000000000000000000000000000000000000000000000000000010000000000000000000000000000000000000000000000000000000000000000000000000000000000000000000000000000000000000000000000900000000200800000000000000000000000000000000000000000000000000000000",
      "type": "0x0",
      "transactionHash": "0xabb2575bc29a7f76448b692a3f1c04907d2cdd2841608c9670df8af1308a1ee0",
      "transactionIndex": "0x29",
      "blockHash": "0x60c55226493f47dd163b23faedcb6050fa7f2e35c37a3e856a58aed1024099de",
      "blockNumber": "0x913c25",
      "gasUsed": "0xb469",
      "effectiveGasPrice": "0xf4248",
      "from": "0xad9fdad276ab1a430fd03177a07350cd7c61e897",
      "to": "0x614fe9079021688115a8ec29b065344c033f9740",
      "contractAddress": null
    },
    {
      "status": "0x1",
      "cumulativeGasUsed": "0x735ad9",
      "logs": [
        {
          "address": "0x7ef7df0f64a2591fd5be9c1e88728e59cb5d362b",
          "topics": [
            "0x17307eab39ab6107e8899845ad3d59bd9653f200f220920489ca2b5937696c31",
            "0x000000000000000000000000ad9fdad276ab1a430fd03177a07350cd7c61e897",
            "0x000000000000000000000000d8de811c66fdc1cca890b0564734168008e745f9"
          ],
          "data": "0x0000000000000000000000000000000000000000000000000000000000000001",
          "blockHash": "0x60c55226493f47dd163b23faedcb6050fa7f2e35c37a3e856a58aed1024099de",
          "blockNumber": "0x913c25",
          "blockTimestamp": "0x69027be8",
          "transactionHash": "0xf16bf68cd8010dc6b1fa6d9e4f94b09a448bf858967dbaecdc176817b4255961",
          "transactionIndex": "0x2a",
          "logIndex": "0x34",
          "removed": false
        }
      ],
      "logsBloom": "0x00000000000000040000000000000000000000000000000000000000000000000000000000000000000000000000000000000000000000000000000000000000000000000000004000000000000000000000000000000000000000000000000002000000000000000000000000000000000000000000000000000000000000000000000000000040000000000000000000000000000000000000000000000000000010000000000000080000000000000000000000000000000000000000000000000000000000000000000000000000000000000000000000000000000900000000200800000000000000000000000040000000020000000000000000000000",
      "type": "0x0",
      "transactionHash": "0xf16bf68cd8010dc6b1fa6d9e4f94b09a448bf858967dbaecdc176817b4255961",
      "transactionIndex": "0x2a",
      "blockHash": "0x60c55226493f47dd163b23faedcb6050fa7f2e35c37a3e856a58aed1024099de",
      "blockNumber": "0x913c25",
      "gasUsed": "0xb45a",
      "effectiveGasPrice": "0xf4248",
      "from": "0xad9fdad276ab1a430fd03177a07350cd7c61e897",
      "to": "0x7ef7df0f64a2591fd5be9c1e88728e59cb5d362b",
      "contractAddress": null
    },
    {
      "status": "0x1",
      "cumulativeGasUsed": "0x740f96",
      "logs": [
        {
          "address": "0xd2dcb326f003dc8db194c74db2749f8c653df6ac",
          "topics": [
            "0x8c5be1e5ebec7d5bd14f71427d1e84f3dd0314c0f7b2291e5b200ac8c7c3b925",
            "0x000000000000000000000000ad9fdad276ab1a430fd03177a07350cd7c61e897",
            "0x000000000000000000000000d8de811c66fdc1cca890b0564734168008e745f9"
          ],
          "data": "0xffffffffffffffffffffffffffffffffffffffffffffffffffffffffffffffff",
          "blockHash": "0x60c55226493f47dd163b23faedcb6050fa7f2e35c37a3e856a58aed1024099de",
          "blockNumber": "0x913c25",
          "blockTimestamp": "0x69027be8",
          "transactionHash": "0xe658dc8a48a0fa7faa7033746e415a4114158c147da21f24f204c99eeb4f2760",
          "transactionIndex": "0x2b",
          "logIndex": "0x35",
          "removed": false
        }
      ],
      "logsBloom": "0x00000000000000040000000000000000000000000000000000000000000000000000000000000000000000000000000000000000000000000000000000200000000000000000004000000000000000000000000000000000000000000000000000000002000000000000000000000000000000000000000000000000000000000000000000000040000000000000000008000000000000000000000000000000020010000000000000000000000000000000000000000000000000000000000000000000000000000000000000000000000000000000000000000000000900000010000000000000000000000000000000000000010000000000000000000000",
      "type": "0x0",
      "transactionHash": "0xe658dc8a48a0fa7faa7033746e415a4114158c147da21f24f204c99eeb4f2760",
      "transactionIndex": "0x2b",
      "blockHash": "0x60c55226493f47dd163b23faedcb6050fa7f2e35c37a3e856a58aed1024099de",
      "blockNumber": "0x913c25",
      "gasUsed": "0xb4bd",
      "effectiveGasPrice": "0xf4248",
      "from": "0xad9fdad276ab1a430fd03177a07350cd7c61e897",
      "to": "0xd2dcb326f003dc8db194c74db2749f8c653df6ac",
      "contractAddress": null
    },
    {
      "status": "0x1",
      "cumulativeGasUsed": "0x74d4fb",
      "logs": [
        {
          "address": "0xa27e1385cfcc5bd6ff25d005d8fb10239502f4bc",
          "topics": [
            "0x7619eb3b0b2346250e2839a10da35fc58eea3632c6f045e8abffa1864bce2551"
          ],
          "data": "0x000000000000000000000000fa026570d389e23b742723172781585814347f85",
          "blockHash": "0x60c55226493f47dd163b23faedcb6050fa7f2e35c37a3e856a58aed1024099de",
          "blockNumber": "0x913c25",
          "blockTimestamp": "0x69027be8",
          "transactionHash": "0x73770ade8f60837beb3959add18ea259773cc42748eec65c19794677707e620f",
          "transactionIndex": "0x2c",
          "logIndex": "0x36",
          "removed": false
        }
      ],
      "logsBloom": "0x00000000000000000000000000000000000000000001000000000000000000000000000000000000000000000000000000000000000000000000000000000000000000000000000000000000000000004000000000000000000000800000000000000000000000000000000000000000000000000000000000000000000000000000000000000000000000000000000000000000000000000000000800000000000000000000000000000000000000000000000000000000000000000000000000000000000000000000000000000000000000000000000000000400000000000000000000000000000000000000000000000000000000000000000000000200",
      "type": "0x0",
      "transactionHash": "0x73770ade8f60837beb3959add18ea259773cc42748eec65c19794677707e620f",
      "transactionIndex": "0x2c",
      "blockHash": "0x60c55226493f47dd163b23faedcb6050fa7f2e35c37a3e856a58aed1024099de",
      "blockNumber": "0x913c25",
      "gasUsed": "0xc565",
      "effectiveGasPrice": "0xf4248",
      "from": "0xad9fdad276ab1a430fd03177a07350cd7c61e897",
      "to": "0xa27e1385cfcc5bd6ff25d005d8fb10239502f4bc",
      "contractAddress": null
    }
  ],
  "libraries": [],
  "pending": [],
  "returns": {},
  "timestamp": 1761770536958,
  "chain": 11155111,
  "commit": "c03d2ed"
}