{
  "transactions": [
    {
      "hash": "0xf3ce733cd7b290173607d3b731c66a36e408946f330608c2515a15f704bf358d",
      "transactionType": "CREATE",
      "contractName": "PointsManager",
      "contractAddress": "0x181fec9a1eea7ef5767f2e330e9c4498119995f4",
      "function": null,
      "arguments": null,
      "transaction": {
        "from": "0xad9fdad276ab1a430fd03177a07350cd7c61e897",
        "gas": "0x62c0c",
        "value": "0x0",
        "input": "0x608080604052346071573315605e575f8054336001600160a01b0319821681178355916001600160a01b03909116907f8be0079c531659141344cd1fd0a4f28419497f9722a3daafe3b4186f6b6457e09080a361043590816100768239f35b631e4fbdf760e01b5f525f60045260245ffd5b5f80fdfe6080806040526004361015610012575f80fd5b5f3560e01c908163245a7bfc1461039657508063715018a6146103525780638da5cb5b1461032b5780639799b4e7146101df5780639af379a014610209578063a967eee4146101df578063b176aa451461013d578063f2fde38b146100c75763f9120af61461007f575f80fd5b346100c35760203660031901126100c3576004356001600160a01b038116908190036100c3576100ad6103b9565b600280546001600160a01b031916919091179055005b5f80fd5b346100c35760203660031901126100c3576004356001600160a01b038116908190036100c3576100f56103b9565b801561012a575f80546001600160a01b03198116831782556001600160a01b0316905f5160206103e05f395f51905f529080a3005b631e4fbdf760e01b5f525f60045260245ffd5b346100c35760203660031901126100c357600435805f52600160205260405f2054905f915f5b612710811061017757602084604051908152f35b805f5260016020528160405f20541180156101c0575b61019a575b600101610163565b925f1981146101ac5760010192610192565b634e487b7160e01b5f52601160045260245ffd5b50805f5260016020528160405f205414801561018d575082811061018d565b346100c35760203660031901126100c3576004355f526001602052602060405f2054604051908152f35b346100c35760603660031901126100c3576004356024356044356001600160401b0381116100c357366023820112156100c3576004810135916001600160401b0383116100c35736602484840101116100c3576002546001600160a01b031633036102f457835f52600160205260405f20908154938185018095116101ac577f93ed1bb877baa71c9aef86a79dac9360569bb566644be81c1bb4b1d617ad654a9460809355855f52600160205280602460405f205495604051968795865260208601526060604086015282606086015201848401375f828201840152601f01601f19168101030190a2005b60405162461bcd60e51b815260206004820152600f60248201526e27b7363c9030b3b3b932b3b0ba37b960891b6044820152606490fd5b346100c3575f3660031901126100c3575f546040516001600160a01b039091168152602090f35b346100c3575f3660031901126100c35761036a6103b9565b5f80546001600160a01b0319811682556001600160a01b03165f5160206103e05f395f51905f528280a3005b346100c3575f3660031901126100c3576002546001600160a01b03168152602090f35b5f546001600160a01b031633036103cc57565b63118cdaa760e01b5f523360045260245ffdfe8be0079c531659141344cd1fd0a4f28419497f9722a3daafe3b4186f6b6457e0a26469706673582212201b25e6df938ea77710e7297af9b91a2abca9aad8387e276e93257e7523ade2f664736f6c634300081e0033",
        "nonce": "0x1d3",
        "chainId": "0xaa36a7"
      },
      "additionalContracts": [],
      "isFixedGasLimit": false
    },
    {
      "hash": "0x92f0b3d1548feac2ee321c827e1c46b9c4830b8761690a55d8221bedfd75355e",
      "transactionType": "CREATE",
      "contractName": "PointsAggregator",
      "contractAddress": "0x7408091db99f35446254ae59a6962b015ffe528e",
      "function": null,
      "arguments": [
        "0x181feC9a1eeA7Ef5767F2E330E9C4498119995F4"
      ],
      "transaction": {
        "from": "0xad9fdad276ab1a430fd03177a07350cd7c61e897",
        "gas": "0xbb1c7",
        "value": "0x0",
        "input": "0x60803460cd57601f6109b038819003918201601f19168301916001600160401b0383118484101760d15780849260209460405283398101031260cd57516001600160a01b0381169081900360cd57331560ba575f8054336001600160a01b0319821681178355604051939290916001600160a01b0316907f8be0079c531659141344cd1fd0a4f28419497f9722a3daafe3b4186f6b6457e09080a3600180546001600160a01b0319169190911790556108ca90816100e68239f35b631e4fbdf760e01b5f525f60045260245ffd5b5f80fd5b634e487b7160e01b5f52604160045260245ffdfe6080806040526004361015610012575f80fd5b5f3560e01c9081630e69718b14610404575080632be1f6a1146103dc5780635fe12de0146102ef57806363117eaf146102ab578063715018a614610267578063857fbd45146102375780638da5cb5b14610210578063904b5f03146101e8578063ba8f93dd1461017b578063d89d9f5f1461010f5763f2fde38b14610095575f80fd5b3461010b57602036600319011261010b576004356001600160a01b0381169081900361010b576100c361084e565b80156100f8575f80546001600160a01b03198116831782556001600160a01b0316905f5160206108755f395f51905f529080a3005b631e4fbdf760e01b5f525f60045260245ffd5b5f80fd5b3461010b575f36600319011261010b5761012761084e565b6001546001600160a01b0316803b1561010b575f8091602460405180948193637c89057b60e11b83523060048401525af180156101705761016457005b5f61016e9161076f565b005b6040513d5f823e3d90fd5b3461010b57602036600319011261010b576004356001600160a01b0381169081900361010b576101a961084e565b6001546001600160a01b031690813b1561010b575f9160248392604051948593849263f2fde38b60e01b845260048401525af180156101705761016457005b3461010b575f36600319011261010b576001546040516001600160a01b039091168152602090f35b3461010b575f36600319011261010b575f546040516001600160a01b039091168152602090f35b3461010b57602036600319011261010b576004356001600160401b03811161010b5761016e903690600401610742565b3461010b575f36600319011261010b5761027f61084e565b5f80546001600160a01b0319811682556001600160a01b03165f5160206108755f395f51905f528280a3005b3461010b57602036600319011261010b576004356001600160a01b0381169081900361010b576102d961084e565b600280546001600160a01b031916919091179055005b3461010b57606036600319011261010b576004356024356044356001600160401b03811161010b57610325903690600401610742565b909161032f61084e565b6001546001600160a01b031692833b1561010b575f60405180956304d79bcd60e51b825287600483015284602483015260606044830152818381610377606482018a8961082e565b03925af1908115610170577f251f0f9c21a717d93bc2910b67f85c577dfbe5b5f42e8bd72c012df160a8451c946103c7926103cc575b50604051938493845260406020850152604084019161082e565b0390a2005b5f6103d69161076f565b866103ad565b3461010b575f36600319011261010b576002546040516001600160a01b039091168152602090f35b3461010b57602036600319011261010b576004356001600160401b03811161010b57610434903690600401610742565b600254919290916001600160a01b0316330361070c5750810160608282031261010b5781356001600160401b03811161010b57816104739184016107a9565b9060208301356001600160401b03811161010b57816104939185016107a9565b926040810135906001600160401b03821161010b57019080601f8301121561010b578135916104c183610792565b926104cf604051948561076f565b80845260208085019160051b8301019183831161010b5760208101915b83831061068357878787815183518091149081610678575b501561063f575f92835b83518510156105ef576001546001600160a01b031661052d8686610806565b516105388785610806565b51916105448887610806565b5190803b1561010b576020935f60848195604051978896879586936304d79bcd60e51b855260048501526024840152606060448401528051918291826064860152018484015e8181018301849052601f01601f191681010301925af18015610170576105df575b506105b68583610806565b5181018091116105cb5760019094019361050e565b634e487b7160e01b5f52601160045260245ffd5b5f6105e99161076f565b856105ab565b60a07f10155f496a00c506fa23f75701e0cb47b41b1828cc38c81e16f3fccab176fb1b91855190604051916060835260046060840152636261736560e01b608084015260208301526040820152a1005b60405162461bcd60e51b81526020600482015260116024820152704d69736d6174636865642061727261797360781b6044820152606490fd5b905081511484610504565b82356001600160401b03811161010b57820185603f8201121561010b576020810135916001600160401b0383116106f8576040516106cb601f8501601f19166020018261076f565b838152604083850101881061010b575f6020858196604083970183860137830101528152019201916104ec565b634e487b7160e01b5f52604160045260245ffd5b62461bcd60e51b815260206004820152601160248201527027b7363c9026189031b7b63632b1ba37b960791b6044820152606490fd5b9181601f8401121561010b578235916001600160401b03831161010b576020838186019501011161010b57565b601f909101601f19168101906001600160401b038211908210176106f857604052565b6001600160401b0381116106f85760051b60200190565b9080601f8301121561010b5781356107c081610792565b926107ce604051948561076f565b81845260208085019260051b82010192831161010b57602001905b8282106107f65750505090565b81358152602091820191016107e9565b805182101561081a5760209160051b010190565b634e487b7160e01b5f52603260045260245ffd5b908060209392818452848401375f828201840152601f01601f1916010190565b5f546001600160a01b0316330361086157565b63118cdaa760e01b5f523360045260245ffdfe8be0079c531659141344cd1fd0a4f28419497f9722a3daafe3b4186f6b6457e0a26469706673582212201fb2b129f7ef7947bd2ae43cf2807f687a7ff2f47d3a2f2b4ef1d9429420ec5064736f6c634300081e0033000000000000000000000000181fec9a1eea7ef5767f2e330e9c4498119995f4",
        "nonce": "0x1d4",
        "chainId": "0xaa36a7"
      },
      "additionalContracts": [],
      "isFixedGasLimit": false
    },
    {
      "hash": "0x67b143f18a4aeaa467dddfcf6be376804e33f4cdfee326f12bb55dd769de50f4",
      "transactionType": "CALL",
      "contractName": "PointsManager",
      "contractAddress": "0x181fec9a1eea7ef5767f2e330e9c4498119995f4",
      "function": "setAggregator(address)",
      "arguments": [
        "0x7408091db99f35446254aE59a6962B015fFE528E"
      ],
      "transaction": {
        "from": "0xad9fdad276ab1a430fd03177a07350cd7c61e897",
        "to": "0x181fec9a1eea7ef5767f2e330e9c4498119995f4",
        "gas": "0x1074f",
        "value": "0x0",
        "input": "0xf9120af60000000000000000000000007408091db99f35446254ae59a6962b015ffe528e",
        "nonce": "0x1d5",
        "chainId": "0xaa36a7"
      },
      "additionalContracts": [],
      "isFixedGasLimit": false
    },
    {
      "hash": "0x51ff3c0c9f4cd05994359e0e0e1824b4ce1c9e9f1562e2abc08125fab285426e",
      "transactionType": "CREATE",
      "contractName": "L1BurnCollector",
      "contractAddress": "0x0410f197cb5b0ce09218b1bb018401aa76859a22",
      "function": null,
      "arguments": [
        "0x7408091db99f35446254aE59a6962B015fFE528E"
      ],
      "transaction": {
        "from": "0xad9fdad276ab1a430fd03177a07350cd7c61e897",
        "gas": "0x163b11",
        "value": "0x0",
        "input": "0x60806040523461017d57604051601f610f0838819003918201601f19168301916001600160401b038311848410176101565780849260209460405283398101031261017d57516001600160a01b0381169081900361017d57331561016a575f8054336001600160a01b0319821681178355916001600160a01b03909116907f8be0079c531659141344cd1fd0a4f28419497f9722a3daafe3b4186f6b6457e09080a360405161018081016001600160401b038111828210176101565760405260648152605f6020820152605c60408201526058606082015260556080820152605260a0820152604e60c0820152604b60e0820152604861010082015260446101208201526041610140820152603c6101608201525f5b600c811061013e57600180546001600160a01b03191684179055604051610d8690816101828239f35b600190602060ff845116930192816003015501610115565b634e487b7160e01b5f52604160045260245ffd5b631e4fbdf760e01b5f525f60045260245ffd5b5f80fdfe6080806040526004361015610012575f80fd5b5f905f3560e01c90816301ffc9a71461090e57508063066959cf146108d657806311735f78146108aa578063150b7a02146106fc578063245a7bfc146106d35780635d65c17214610642578063642c814814610604578063715018a6146105bd5780638409dd72146104385780638995b2fa146103625780638da5cb5b1461033b578063bc197c81146102a2578063f23a6e611461012d5763f2fde38b146100b8575f80fd5b3461012a57602036600319011261012a576100d1610979565b6100d9610cea565b6001600160a01b031680156101165781546001600160a01b03198116821783556001600160a01b03165f516020610d315f395f51905f528380a380f35b631e4fbdf760e01b82526004829052602482fd5b80fd5b503461012a5760a036600319011261012a57610147610979565b5061015061098f565b606435916084356001600160401b03811161029a5761017560209136906004016109a5565b908092913385526002835261018f60408620541515610a2c565b8101031261029e57359033815260026020526101af846040832054610adb565b91333b1561029a57604051633b584ed360e21b81526044356004820152856024820152828160448183335af1610285575b50918161022860e0945f516020610d115f395f51905f52969450836040519161020a604084610a6d565b600c83526b22a92198989a9a90313ab93760a11b6020840152610b4e565b50604080513381526020810196909652850152600c6228206f420406606085015260a060808501819052600790850152664552433131353560c81b60c08501526001600160a01b031692a260405163f23a6e6160e01b8152602090f35b610290838092610a6d565b61029a575f6101e0565b5080fd5b5f80fd5b503461012a5760a036600319011261012a576102bc610979565b506102c561098f565b506044356001600160401b03811161029a576102e59036906004016109fc565b50506064356001600160401b03811161029a576103069036906004016109fc565b50506084356001600160401b03811161029a576103279036906004016109a5565b505060405163bc197c8160e01b8152602090f35b503461012a578060031936011261012a57546040516001600160a01b039091168152602090f35b503461012a57608036600319011261012a57806001600160a01b03610385610979565b16808252600260205261039d60408320541515610a2c565b604051906064356020830152602082526103b8604083610a6d565b803b15610434576104078392918392604051948580948193637921219560e11b83523360048401523060248401526024356044840152604435606484015260a0608484015260a4830190610aa4565b03925af18015610429576104185750f35b8161042291610a6d565b61012a5780f35b6040513d84823e3d90fd5b5050fd5b503461012a57610447366109d2565b9160018060a01b031691828452600260205261046860408520541515610a2c565b6040516323b872dd60e01b81523360048201523060248201526044810183905260208160648188885af180156105b25761057b575b5082845260026020526104b4826040862054610adb565b90833b156105775784604051630852cd8d60e31b81528460048201528181602481838a5af1610562575b5090610511915082604051916104f5604084610a6d565b600a83526922a921991810313ab93760b11b6020840152610b4e565b600c6228206f4204069160405193845260208401526040830152606082015260a06080820152600560a082015264045524332360dc1b60c08201525f516020610d115f395f51905f5260e03392a280f35b8161056c91610a6d565b61057757845f6104de565b8480fd5b6020813d6020116105aa575b8161059460209383610a6d565b810103126105775751801515811461049d578480fd5b3d9150610587565b6040513d87823e3d90fd5b503461012a578060031936011261012a576105d6610cea565b80546001600160a01b03198116825581906001600160a01b03165f516020610d315f395f51905f528280a380f35b503461012a57604036600319011261012a5761061e610979565b610626610cea565b6001600160a01b03168152600260205260408120602435905580f35b503461012a5780610652366109d2565b9160018060a01b031691828452600260205261067360408520541515610a2c565b6040519060208201526020815261068b604082610a6d565b823b156106ce5761040792849283604051809681958294635c46a7ef60e11b84523360048501523060248501526044840152608060648401526084830190610aa4565b505050fd5b503461012a578060031936011261012a576001546040516001600160a01b039091168152602090f35b503461029e57608036600319011261029e57610716610979565b5061071f61098f565b60443591906064356001600160401b03811161029e5761074560209136906004016109a5565b90809291335f526002835261075f60405f20541515610a2c565b8101031261029e573590335f52600260205260405f2054600c6228206f4204069060018102908082046001149015171561089657600c821015610882576107ae61271091836003015490610ac8565b04333b1561029e575f516020610d115f395f51905f529460e094604051630852cd8d60e31b81528860048201525f8160248183335af161086b575b5061081b9083604051916107fe604084610a6d565b600b83526a22a9219b991890313ab93760a91b6020840152610b4e565b506040519533875260208701526040860152606085015260a06080850152600660a08501526545524337323160d01b60c085015260018060a01b031692a2604051630a85bd0160e11b8152602090f35b6108789192505f90610a6d565b5f9061081b6107e9565b634e487b7160e01b5f52603260045260245ffd5b634e487b7160e01b5f52601160045260245ffd5b3461029e57602036600319011261029e57600435600c81101561029e5760209060030154604051908152f35b3461029e57602036600319011261029e576001600160a01b036108f7610979565b165f526002602052602060405f2054604051908152f35b3461029e57602036600319011261029e576004359063ffffffff60e01b821680920361029e57602091630a85bd0160e11b8114908115610968575b8115610957575b5015158152f35b6301ffc9a760e01b14905083610950565b630271189760e51b81149150610949565b600435906001600160a01b038216820361029e57565b602435906001600160a01b038216820361029e57565b9181601f8401121561029e578235916001600160401b03831161029e576020838186019501011161029e57565b606090600319011261029e576004356001600160a01b038116810361029e57906024359060443590565b9181601f8401121561029e578235916001600160401b03831161029e576020808501948460051b01011161029e57565b15610a3357565b60405162461bcd60e51b81526020600482015260126024820152714173736574206e6f7420656c696769626c6560701b6044820152606490fd5b601f909101601f19168101906001600160401b03821190821017610a9057604052565b634e487b7160e01b5f52604160045260245ffd5b805180835260209291819084018484015e5f828201840152601f01601f1916010190565b8181029291811591840414171561089657565b600c6228206f42040691610aee91610ac8565b90600c8110156108825761271091610b0a916003015490610ac8565b0490565b8051156108825760200190565b90602080835192838152019201905f5b818110610b385750505090565b8251845260209384019390920191600101610b2b565b604091825193610b5e8486610a6d565b60018552601f1984019182366020880137845193610b7c8686610a6d565b6001855283366020870137855193610b948786610a6d565b600185525f5b818110610cd957505090869291610bb3610bf798610b0e565b52610bbd85610b0e565b52610bc783610b0e565b52610bd182610b0e565b50610c0860018060a01b0360015416938551968793606060208601526080850190610b1b565b838103601f19018785015290610b1b565b91601f19828403016060830152805180845260208401936020808360051b8301019301945f915b838310610ca85750505050610c4d925003601f198101855284610a6d565b803b1561029e578151630e69718b60e01b815260206004820152925f918491829084908290610c80906024830190610aa4565b03925af1908115610c9f5750610c935750565b5f610c9d91610a6d565b565b513d5f823e3d90fd5b91936001919395506020610cc78192601f198682030187528951610aa4565b97019301930190928894929593610c2f565b806060602080938901015201610b9a565b5f546001600160a01b03163303610cfd57565b63118cdaa760e01b5f523360045260245ffdfee3de3cf8b55d889e1f0f229a17138e633440a6ba07397d3eb4f1c0c7c61ea27f8be0079c531659141344cd1fd0a4f28419497f9722a3daafe3b4186f6b6457e0a2646970667358221220617be298767d5521650279b8faeef0aec7a7528521fb445dcfccbeaa01fd61f764736f6c634300081e00330000000000000000000000007408091db99f35446254ae59a6962b015ffe528e",
        "nonce": "0x1d6",
        "chainId": "0xaa36a7"
      },
      "additionalContracts": [],
      "isFixedGasLimit": false
    },
    {
      "hash": "0x16801951d777b86091a9049730bb0dc8d55d0f484a1018fc89b522979b4ef155",
      "transactionType": "CALL",
      "contractName": "PointsAggregator",
      "contractAddress": "0x7408091db99f35446254ae59a6962b015ffe528e",
      "function": "setL1BurnCollector(address)",
      "arguments": [
        "0x0410f197Cb5b0Ce09218B1BB018401AA76859A22"
      ],
      "transaction": {
        "from": "0xad9fdad276ab1a430fd03177a07350cd7c61e897",
        "to": "0x7408091db99f35446254ae59a6962b015ffe528e",
        "gas": "0xf81b",
        "value": "0x0",
        "input": "0x63117eaf0000000000000000000000000410f197cb5b0ce09218b1bb018401aa76859a22",
        "nonce": "0x1d7",
        "chainId": "0xaa36a7"
      },
      "additionalContracts": [],
      "isFixedGasLimit": false
    },
    {
      "hash": "0xc37ddd66ecb420f262984d6c86aadc5bd5a011dce6abff9f6f2e66ce7e25ac32",
      "transactionType": "CALL",
      "contractName": "L1BurnCollector",
      "contractAddress": "0x0410f197cb5b0ce09218b1bb018401aa76859a22",
      "function": "addEligibleAsset(address,uint256)",
      "arguments": [
        "0x614FE9079021688115A8Ec29b065344C033f9740",
        "1000"
      ],
      "transaction": {
        "from": "0xad9fdad276ab1a430fd03177a07350cd7c61e897",
        "to": "0x0410f197cb5b0ce09218b1bb018401aa76859a22",
        "gas": "0x10865",
        "value": "0x0",
        "input": "0x642c8148000000000000000000000000614fe9079021688115a8ec29b065344c033f974000000000000000000000000000000000000000000000000000000000000003e8",
        "nonce": "0x1d8",
        "chainId": "0xaa36a7"
      },
      "additionalContracts": [],
      "isFixedGasLimit": false
    },
    {
      "hash": "0x1d046827fc4c37a3e03678dd3b693abfae177bc77e89e94ab0559d3e67f62af7",
      "transactionType": "CALL",
      "contractName": "L1BurnCollector",
      "contractAddress": "0x0410f197cb5b0ce09218b1bb018401aa76859a22",
      "function": "addEligibleAsset(address,uint256)",
      "arguments": [
        "0x7Ef7dF0F64A2591fd5bE9c1E88728e59CB5D362B",
        "200"
      ],
      "transaction": {
        "from": "0xad9fdad276ab1a430fd03177a07350cd7c61e897",
        "to": "0x0410f197cb5b0ce09218b1bb018401aa76859a22",
        "gas": "0xf9a4",
        "value": "0x0",
        "input": "0x642c81480000000000000000000000007ef7df0f64a2591fd5be9c1e88728e59cb5d362b00000000000000000000000000000000000000000000000000000000000000c8",
        "nonce": "0x1d9",
        "chainId": "0xaa36a7"
      },
      "additionalContracts": [],
      "isFixedGasLimit": false
    },
    {
      "hash": "0x6dba6f7eb08c145944e0130ba439760bf939b2bd2ebfd00851ce7324293b6bd7",
      "transactionType": "CALL",
      "contractName": "L1BurnCollector",
      "contractAddress": "0x0410f197cb5b0ce09218b1bb018401aa76859a22",
      "function": "addEligibleAsset(address,uint256)",
      "arguments": [
        "0xD2DcB326F003DC8db194C74Db2749F8C653Df6aC",
        "50"
      ],
      "transaction": {
        "from": "0xad9fdad276ab1a430fd03177a07350cd7c61e897",
        "to": "0x0410f197cb5b0ce09218b1bb018401aa76859a22",
        "gas": "0xf9a4",
        "value": "0x0",
        "input": "0x642c8148000000000000000000000000d2dcb326f003dc8db194c74db2749f8c653df6ac0000000000000000000000000000000000000000000000000000000000000032",
        "nonce": "0x1da",
        "chainId": "0xaa36a7"
      },
      "additionalContracts": [],
      "isFixedGasLimit": false
    },
    {
      "hash": "0x26326b56d18daf2b3ca8c95b5da229e0c7e7e150952623af2827c5df1ec86f1b",
      "transactionType": "CALL",
      "contractName": "DummyOneOfOne",
      "contractAddress": "0x614fe9079021688115a8ec29b065344c033f9740",
      "function": "setApprovalForAll(address,bool)",
      "arguments": [
        "0x0410f197Cb5b0Ce09218B1BB018401AA76859A22",
        "true"
      ],
      "transaction": {
        "from": "0xad9fdad276ab1a430fd03177a07350cd7c61e897",
        "to": "0x614fe9079021688115a8ec29b065344c033f9740",
        "gas": "0x107d9",
        "value": "0x0",
        "input": "0xa22cb4650000000000000000000000000410f197cb5b0ce09218b1bb018401aa76859a220000000000000000000000000000000000000000000000000000000000000001",
        "nonce": "0x1db",
        "chainId": "0xaa36a7"
      },
      "additionalContracts": [],
      "isFixedGasLimit": false
    },
    {
      "hash": "0x00b6c8fab73e9d346c24cf98c43329023eaae932682b4ab8e7a9cb0d9b053a1f",
      "transactionType": "CALL",
      "contractName": "DummyEdition1155",
      "contractAddress": "0x7ef7df0f64a2591fd5be9c1e88728e59cb5d362b",
      "function": "setApprovalForAll(address,bool)",
      "arguments": [
        "0x0410f197Cb5b0Ce09218B1BB018401AA76859A22",
        "true"
      ],
      "transaction": {
        "from": "0xad9fdad276ab1a430fd03177a07350cd7c61e897",
        "to": "0x7ef7df0f64a2591fd5be9c1e88728e59cb5d362b",
        "gas": "0x107c3",
        "value": "0x0",
        "input": "0xa22cb4650000000000000000000000000410f197cb5b0ce09218b1bb018401aa76859a220000000000000000000000000000000000000000000000000000000000000001",
        "nonce": "0x1dc",
        "chainId": "0xaa36a7"
      },
      "additionalContracts": [],
      "isFixedGasLimit": false
    },
    {
      "hash": "0xae62245d6f49d160f5a269f9f9553a2e4a6b4339f335df72e255269b92cabe0b",
      "transactionType": "CALL",
      "contractName": "DummyERC20Burnable",
      "contractAddress": "0xd2dcb326f003dc8db194c74db2749f8c653df6ac",
      "function": "approve(address,uint256)",
      "arguments": [
        "0x0410f197Cb5b0Ce09218B1BB018401AA76859A22",
        "115792089237316195423570985008687907853269984665640564039457584007913129639935"
      ],
      "transaction": {
        "from": "0xad9fdad276ab1a430fd03177a07350cd7c61e897",
        "to": "0xd2dcb326f003dc8db194c74db2749f8c653df6ac",
        "gas": "0xf9a4",
        "value": "0x0",
        "input": "0x095ea7b30000000000000000000000000410f197cb5b0ce09218b1bb018401aa76859a22ffffffffffffffffffffffffffffffffffffffffffffffffffffffffffffffff",
        "nonce": "0x1dd",
        "chainId": "0xaa36a7"
      },
      "additionalContracts": [],
      "isFixedGasLimit": false
    },
    {
      "hash": "0x1fbb98cda78df83d3a8c7f6a1f5d719ca2c95df20cef8c9ad1aa688d1d13d578",
      "transactionType": "CALL",
      "contractName": "EveryTwoMillionBlocks",
      "contractAddress": "0x674307b5d8340fa5d6a659d252d6b816bc85997a",
      "function": "setPointsManager(address)",
      "arguments": [
        "0x181feC9a1eeA7Ef5767F2E330E9C4498119995F4"
      ],
      "transaction": {
        "from": "0xad9fdad276ab1a430fd03177a07350cd7c61e897",
        "to": "0x674307b5d8340fa5d6a659d252d6b816bc85997a",
        "gas": "0xb24b",
        "value": "0x0",
        "input": "0xcae42a08000000000000000000000000181fec9a1eea7ef5767f2e330e9c4498119995f4",
        "nonce": "0x1de",
        "chainId": "0xaa36a7"
      },
      "additionalContracts": [],
      "isFixedGasLimit": false
    }
  ],
  "receipts": [
    {
      "status": "0x1",
      "cumulativeGasUsed": "0x108c8bb",
      "logs": [
        {
          "address": "0x181fec9a1eea7ef5767f2e330e9c4498119995f4",
          "topics": [
            "0x8be0079c531659141344cd1fd0a4f28419497f9722a3daafe3b4186f6b6457e0",
            "0x0000000000000000000000000000000000000000000000000000000000000000",
            "0x000000000000000000000000ad9fdad276ab1a430fd03177a07350cd7c61e897"
          ],
          "data": "0x",
          "blockHash": "0x11d409fc5f1312e73760f096ae675e2dcb2e5e727f278005ab729ebf7889faf7",
          "blockNumber": "0x908fda",
          "blockTimestamp": "0x68fa522c",
          "transactionHash": "0xf3ce733cd7b290173607d3b731c66a36e408946f330608c2515a15f704bf358d",
          "transactionIndex": "0x2a",
          "logIndex": "0x3f",
          "removed": false
        }
      ],
      "logsBloom": "0x00000000000000000000000000000000000000000000000000800000000000000000000000000000000000000000000000000000000000000000000000000000000000000000004000000000000000000001000000000000000000000000000000000000020000000000000000000800000000000000000000000000000000400000000000000040000000000000000000000000000000000000000000000000000010000000000000000400000000000000000000000000000000000080000000000000000000000000000000000000000000000000000000004000000020000000000000000000000000000000000000000000000000000000000000000000",
      "type": "0x2",
      "transactionHash": "0xf3ce733cd7b290173607d3b731c66a36e408946f330608c2515a15f704bf358d",
      "transactionIndex": "0x2a",
      "blockHash": "0x11d409fc5f1312e73760f096ae675e2dcb2e5e727f278005ab729ebf7889faf7",
      "blockNumber": "0x908fda",
      "gasUsed": "0x4bf6c",
      "effectiveGasPrice": "0xf424a",
      "from": "0xad9fdad276ab1a430fd03177a07350cd7c61e897",
      "to": null,
      "contractAddress": "0x181fec9a1eea7ef5767f2e330e9c4498119995f4"
    },
    {
      "status": "0x1",
      "cumulativeGasUsed": "0xe07ca0",
      "logs": [
        {
          "address": "0x7408091db99f35446254ae59a6962b015ffe528e",
          "topics": [
            "0x8be0079c531659141344cd1fd0a4f28419497f9722a3daafe3b4186f6b6457e0",
            "0x0000000000000000000000000000000000000000000000000000000000000000",
            "0x000000000000000000000000ad9fdad276ab1a430fd03177a07350cd7c61e897"
          ],
          "data": "0x",
          "blockHash": "0xf67e87ef74b147a3061ea41663e81843d38f2d7b8cc567942d9d0b31ba71a8ca",
          "blockNumber": "0x908fdb",
          "blockTimestamp": "0x68fa5238",
          "transactionHash": "0x92f0b3d1548feac2ee321c827e1c46b9c4830b8761690a55d8221bedfd75355e",
          "transactionIndex": "0x4a",
          "logIndex": "0x67",
          "removed": false
        }
      ],
      "logsBloom": "0x00000000000040000000000000000000040000000000000000800000000000000000000000000000000000000000000000000000000000000000000000000000000000000000004000000000000000000001000000000000000000000000000000000000020000000000000000000800000200000000000000000000000000400000000000000040000000000000000000000000000000000000000000000000000010000000000000000000000000000000000000000000000000000000000000000000000000000000000000000000000000000000000000000000000020000000000000000000000000000000000000000000000000000000000000000000",
      "type": "0x2",
      "transactionHash": "0x92f0b3d1548feac2ee321c827e1c46b9c4830b8761690a55d8221bedfd75355e",
      "transactionIndex": "0x4a",
      "blockHash": "0xf67e87ef74b147a3061ea41663e81843d38f2d7b8cc567942d9d0b31ba71a8ca",
      "blockNumber": "0x908fdb",
      "gasUsed": "0x8fee8",
      "effectiveGasPrice": "0xf424a",
      "from": "0xad9fdad276ab1a430fd03177a07350cd7c61e897",
      "to": null,
      "contractAddress": "0x7408091db99f35446254ae59a6962b015ffe528e"
    },
    {
      "status": "0x1",
      "cumulativeGasUsed": "0x37163c",
      "logs": [],
      "logsBloom": "0x00000000000000000000000000000000000000000000000000000000000000000000000000000000000000000000000000000000000000000000000000000000000000000000000000000000000000000000000000000000000000000000000000000000000000000000000000000000000000000000000000000000000000000000000000000000000000000000000000000000000000000000000000000000000000000000000000000000000000000000000000000000000000000000000000000000000000000000000000000000000000000000000000000000000000000000000000000000000000000000000000000000000000000000000000000000",
      "type": "0x2",
      "transactionHash": "0x67b143f18a4aeaa467dddfcf6be376804e33f4cdfee326f12bb55dd769de50f4",
      "transactionIndex": "0x32",
      "blockHash": "0xd0fa68c4b9700e93c7a3dff085dde2689465f291561497fb9d92b44e914bb620",
      "blockNumber": "0x908fdc",
      "gasUsed": "0xb40b",
      "effectiveGasPrice": "0xf424a",
      "from": "0xad9fdad276ab1a430fd03177a07350cd7c61e897",
      "to": "0x181fec9a1eea7ef5767f2e330e9c4498119995f4",
      "contractAddress": null
    },
    {
      "status": "0x1",
      "cumulativeGasUsed": "0xcc004b",
      "logs": [
        {
          "address": "0x0410f197cb5b0ce09218b1bb018401aa76859a22",
          "topics": [
            "0x8be0079c531659141344cd1fd0a4f28419497f9722a3daafe3b4186f6b6457e0",
            "0x0000000000000000000000000000000000000000000000000000000000000000",
            "0x000000000000000000000000ad9fdad276ab1a430fd03177a07350cd7c61e897"
          ],
          "data": "0x",
          "blockHash": "0x484c75780fe880b275646fab3e399e9145db65f389313a6f00f25557eef18732",
          "blockNumber": "0x908fdd",
          "blockTimestamp": "0x68fa5250",
          "transactionHash": "0x51ff3c0c9f4cd05994359e0e0e1824b4ce1c9e9f1562e2abc08125fab285426e",
          "transactionIndex": "0x3c",
          "logIndex": "0x62",
          "removed": false
        }
      ],
      "logsBloom": "0x00000000000000000200000000000000000000000000000000800000000000000000080000000000000000000000000000000000000000000000000000000000000000000000004000000000000000000001000000000000000000000000000000000000020000000000000000000800000000000000000000000000000100400000000000000040000000000000000000000000000000000000000000000000000010000000000000000000000000000000000000000000000000000000000000000000000000000000000000000000000000000000000000000000000020000000000000000000000000000000000000000000000000000000000000000000",
      "type": "0x2",
      "transactionHash": "0x51ff3c0c9f4cd05994359e0e0e1824b4ce1c9e9f1562e2abc08125fab285426e",
      "transactionIndex": "0x3c",
      "blockHash": "0x484c75780fe880b275646fab3e399e9145db65f389313a6f00f25557eef18732",
      "blockNumber": "0x908fdd",
      "gasUsed": "0x1119bf",
      "effectiveGasPrice": "0xf424a",
      "from": "0xad9fdad276ab1a430fd03177a07350cd7c61e897",
      "to": null,
      "contractAddress": "0x0410f197cb5b0ce09218b1bb018401aa76859a22"
    },
    {
      "status": "0x1",
      "cumulativeGasUsed": "0xcc9060",
      "logs": [],
      "logsBloom": "0x00000000000000000000000000000000000000000000000000000000000000000000000000000000000000000000000000000000000000000000000000000000000000000000000000000000000000000000000000000000000000000000000000000000000000000000000000000000000000000000000000000000000000000000000000000000000000000000000000000000000000000000000000000000000000000000000000000000000000000000000000000000000000000000000000000000000000000000000000000000000000000000000000000000000000000000000000000000000000000000000000000000000000000000000000000000",
      "type": "0x2",
      "transactionHash": "0x16801951d777b86091a9049730bb0dc8d55d0f484a1018fc89b522979b4ef155",
      "transactionIndex": "0x5b",
      "blockHash": "0xc11e4eaa32ed11145cdb479b96be5760fb3e12e6afb5a1f22a987e188c3e6c73",
      "blockNumber": "0x908fde",
      "gasUsed": "0xb3a0",
      "effectiveGasPrice": "0xf424a",
      "from": "0xad9fdad276ab1a430fd03177a07350cd7c61e897",
      "to": "0x7408091db99f35446254ae59a6962b015ffe528e",
      "contractAddress": null
    },
    {
      "status": "0x1",
      "cumulativeGasUsed": "0x57240b",
      "logs": [],
      "logsBloom": "0x00000000000000000000000000000000000000000000000000000000000000000000000000000000000000000000000000000000000000000000000000000000000000000000000000000000000000000000000000000000000000000000000000000000000000000000000000000000000000000000000000000000000000000000000000000000000000000000000000000000000000000000000000000000000000000000000000000000000000000000000000000000000000000000000000000000000000000000000000000000000000000000000000000000000000000000000000000000000000000000000000000000000000000000000000000000",
      "type": "0x2",
      "transactionHash": "0xc37ddd66ecb420f262984d6c86aadc5bd5a011dce6abff9f6f2e66ce7e25ac32",
      "transactionIndex": "0x39",
      "blockHash": "0xb63adf6edf5efe90447575aab320e34e219fceab316b1ae23a3fd1c53d586182",
      "blockNumber": "0x908fdf",
      "gasUsed": "0xb4c9",
      "effectiveGasPrice": "0xf424a",
      "from": "0xad9fdad276ab1a430fd03177a07350cd7c61e897",
      "to": "0x0410f197cb5b0ce09218b1bb018401aa76859a22",
      "contractAddress": null
    },
    {
      "status": "0x1",
      "cumulativeGasUsed": "0xa35b04",
      "logs": [],
      "logsBloom": "0x00000000000000000000000000000000000000000000000000000000000000000000000000000000000000000000000000000000000000000000000000000000000000000000000000000000000000000000000000000000000000000000000000000000000000000000000000000000000000000000000000000000000000000000000000000000000000000000000000000000000000000000000000000000000000000000000000000000000000000000000000000000000000000000000000000000000000000000000000000000000000000000000000000000000000000000000000000000000000000000000000000000000000000000000000000000",
      "type": "0x2",
      "transactionHash": "0x1d046827fc4c37a3e03678dd3b693abfae177bc77e89e94ab0559d3e67f62af7",
      "transactionIndex": "0x42",
      "blockHash": "0x233d73f21cda83d94004d972a595bd4f01141ce70738457a99cba8be22f6b322",
      "blockNumber": "0x908fe0",
      "gasUsed": "0xb4bd",
      "effectiveGasPrice": "0xf424a",
      "from": "0xad9fdad276ab1a430fd03177a07350cd7c61e897",
      "to": "0x0410f197cb5b0ce09218b1bb018401aa76859a22",
      "contractAddress": null
    },
    {
      "status": "0x1",
      "cumulativeGasUsed": "0xba2101",
      "logs": [],
      "logsBloom": "0x00000000000000000000000000000000000000000000000000000000000000000000000000000000000000000000000000000000000000000000000000000000000000000000000000000000000000000000000000000000000000000000000000000000000000000000000000000000000000000000000000000000000000000000000000000000000000000000000000000000000000000000000000000000000000000000000000000000000000000000000000000000000000000000000000000000000000000000000000000000000000000000000000000000000000000000000000000000000000000000000000000000000000000000000000000000",
      "type": "0x2",
      "transactionHash": "0x6dba6f7eb08c145944e0130ba439760bf939b2bd2ebfd00851ce7324293b6bd7",
      "transactionIndex": "0x47",
      "blockHash": "0xae15bb37df270746071a07814ae13ebbc4fda6a1e6941c1bcdea9483e1ce39f9",
      "blockNumber": "0x908fe1",
      "gasUsed": "0xb4bd",
      "effectiveGasPrice": "0xf424a",
      "from": "0xad9fdad276ab1a430fd03177a07350cd7c61e897",
      "to": "0x0410f197cb5b0ce09218b1bb018401aa76859a22",
      "contractAddress": null
    },
    {
      "status": "0x1",
      "cumulativeGasUsed": "0x13e83c2",
      "logs": [
        {
          "address": "0x614fe9079021688115a8ec29b065344c033f9740",
          "topics": [
            "0x17307eab39ab6107e8899845ad3d59bd9653f200f220920489ca2b5937696c31",
            "0x000000000000000000000000ad9fdad276ab1a430fd03177a07350cd7c61e897",
            "0x0000000000000000000000000410f197cb5b0ce09218b1bb018401aa76859a22"
          ],
          "data": "0x0000000000000000000000000000000000000000000000000000000000000001",
          "blockHash": "0x4a06510484021dfe84978c9139f71a8e5898f80f3cc96df8a692a5592b26cbcf",
          "blockNumber": "0x908fe2",
          "blockTimestamp": "0x68fa528c",
          "transactionHash": "0x26326b56d18daf2b3ca8c95b5da229e0c7e7e150952623af2827c5df1ec86f1b",
          "transactionIndex": "0x4c",
          "logIndex": "0x88",
          "removed": false
        }
      ],
      "logsBloom": "0x00000000000000000000000000000000000000000000000008000000000000000000000000000000000000000080000000000000000000000000000000000000000000001000004000000000000000000004800000000000000000000000000002000000000000000000000000000008000000000000000000000000000000000000000000000040000000000000000000000000000000000000000000000000000010000000000000000000000000000000000000000000000000000000000000000000000000000000000000000000000000000000000000000000000000000000200800000000000000000000000000000000000000000000000000000000",
      "type": "0x2",
      "transactionHash": "0x26326b56d18daf2b3ca8c95b5da229e0c7e7e150952623af2827c5df1ec86f1b",
      "transactionIndex": "0x4c",
      "blockHash": "0x4a06510484021dfe84978c9139f71a8e5898f80f3cc96df8a692a5592b26cbcf",
      "blockNumber": "0x908fe2",
      "gasUsed": "0xb469",
      "effectiveGasPrice": "0xf424a",
      "from": "0xad9fdad276ab1a430fd03177a07350cd7c61e897",
      "to": "0x614fe9079021688115a8ec29b065344c033f9740",
      "contractAddress": null
    },
    {
      "status": "0x1",
      "cumulativeGasUsed": "0x1173ff5",
      "logs": [
        {
          "address": "0x7ef7df0f64a2591fd5be9c1e88728e59cb5d362b",
          "topics": [
            "0x17307eab39ab6107e8899845ad3d59bd9653f200f220920489ca2b5937696c31",
            "0x000000000000000000000000ad9fdad276ab1a430fd03177a07350cd7c61e897",
            "0x0000000000000000000000000410f197cb5b0ce09218b1bb018401aa76859a22"
          ],
          "data": "0x0000000000000000000000000000000000000000000000000000000000000001",
          "blockHash": "0x5630d5f3f67f3c365d138a5fc94040d7e3a250dfc87128f55caa29f891c9b908",
          "blockNumber": "0x908fe3",
          "blockTimestamp": "0x68fa5298",
          "transactionHash": "0x00b6c8fab73e9d346c24cf98c43329023eaae932682b4ab8e7a9cb0d9b053a1f",
          "transactionIndex": "0x29",
          "logIndex": "0x60",
          "removed": false
        }
      ],
      "logsBloom": "0x00000000000000000000000000000000000000000000000000000000000000000000000000000000000000000080000000000000000000000000000000000000000000000000004000000000000000000000800000000000000000000000000002000000000000000000000000000008000000000000000000000000000000000000000000000040000000000000000000000000000000000000000000000000000010000000000000080000000000000000000000000000000000000000000000000000000000000000000000000000000000000000000000000000000000000000200800000000000000000000000040000000020000000000000000000000",
      "type": "0x2",
      "transactionHash": "0x00b6c8fab73e9d346c24cf98c43329023eaae932682b4ab8e7a9cb0d9b053a1f",
      "transactionIndex": "0x29",
      "blockHash": "0x5630d5f3f67f3c365d138a5fc94040d7e3a250dfc87128f55caa29f891c9b908",
      "blockNumber": "0x908fe3",
      "gasUsed": "0xb45a",
      "effectiveGasPrice": "0xf424a",
      "from": "0xad9fdad276ab1a430fd03177a07350cd7c61e897",
      "to": "0x7ef7df0f64a2591fd5be9c1e88728e59cb5d362b",
      "contractAddress": null
    },
    {
      "status": "0x1",
      "cumulativeGasUsed": "0x1b7fd32",
      "logs": [
        {
          "address": "0xd2dcb326f003dc8db194c74db2749f8c653df6ac",
          "topics": [
            "0x8c5be1e5ebec7d5bd14f71427d1e84f3dd0314c0f7b2291e5b200ac8c7c3b925",
            "0x000000000000000000000000ad9fdad276ab1a430fd03177a07350cd7c61e897",
            "0x0000000000000000000000000410f197cb5b0ce09218b1bb018401aa76859a22"
          ],
          "data": "0xffffffffffffffffffffffffffffffffffffffffffffffffffffffffffffffff",
          "blockHash": "0x2574557548101ed05257a8526f6ce1660a6e5b3ccea9891b98c758d5dd4c8a85",
          "blockNumber": "0x908fe4",
          "blockTimestamp": "0x68fa52a4",
          "transactionHash": "0xae62245d6f49d160f5a269f9f9553a2e4a6b4339f335df72e255269b92cabe0b",
          "transactionIndex": "0x3c",
          "logIndex": "0x47",
          "removed": false
        }
      ],
      "logsBloom": "0x00000000000000000000000000000000000000000000000000000000000000000000000000000000000000000080000000000000000000000000000000200000000000000000004000000000000000000000800000000000000000000000000000000002000000000000000000000008000000000000000000000000000000000000000000000040000000000000000008000000000000000000000000000000020010000000000000000000000000000000000000000000000000000000000000000000000000000000000000000000000000000000000000000000000000000010000000000000000000000000000000000000010000000000000000000000",
      "type": "0x2",
      "transactionHash": "0xae62245d6f49d160f5a269f9f9553a2e4a6b4339f335df72e255269b92cabe0b",
      "transactionIndex": "0x3c",
      "blockHash": "0x2574557548101ed05257a8526f6ce1660a6e5b3ccea9891b98c758d5dd4c8a85",
      "blockNumber": "0x908fe4",
      "gasUsed": "0xb4bd",
      "effectiveGasPrice": "0xf424a",
      "from": "0xad9fdad276ab1a430fd03177a07350cd7c61e897",
      "to": "0xd2dcb326f003dc8db194c74db2749f8c653df6ac",
      "contractAddress": null
    },
    {
      "status": "0x1",
      "cumulativeGasUsed": "0x1183859",
      "logs": [
        {
          "address": "0x674307b5d8340fa5d6a659d252d6b816bc85997a",
          "topics": [
            "0x7619eb3b0b2346250e2839a10da35fc58eea3632c6f045e8abffa1864bce2551"
          ],
          "data": "0x000000000000000000000000181fec9a1eea7ef5767f2e330e9c4498119995f4",
          "blockHash": "0xd72f12a495f95da6329984beb44e5fdd119bb43b8e4cde69ce81be0854b1b467",
          "blockNumber": "0x908fe5",
          "blockTimestamp": "0x68fa52b0",
          "transactionHash": "0x1fbb98cda78df83d3a8c7f6a1f5d719ca2c95df20cef8c9ad1aa688d1d13d578",
          "transactionIndex": "0x3f",
          "logIndex": "0x56",
          "removed": false
        }
      ],
      "logsBloom": "0x00000000000000000000000000000000000000000000000000000000000000000000000000000000000000000000000000000000800000000000000000000000000000000000000000000000000000004000000000000000000000800000000000000000000000000000000008000000000000000000000000000000000000000000000000000000000000000000400000000000000000000000000800000000000000000000000000000000000000000000000000000000000000000000000000000000000000000000000000000000000000000000000000000000000000000000000000000000000000000000000000000000000000000000000000000000",
      "type": "0x2",
      "transactionHash": "0x1fbb98cda78df83d3a8c7f6a1f5d719ca2c95df20cef8c9ad1aa688d1d13d578",
      "transactionIndex": "0x3f",
      "blockHash": "0xd72f12a495f95da6329984beb44e5fdd119bb43b8e4cde69ce81be0854b1b467",
      "blockNumber": "0x908fe5",
      "gasUsed": "0x8115",
      "effectiveGasPrice": "0xf424b",
      "from": "0xad9fdad276ab1a430fd03177a07350cd7c61e897",
      "to": "0x674307b5d8340fa5d6a659d252d6b816bc85997a",
      "contractAddress": null
    }
  ],
  "libraries": [],
  "pending": [],
  "returns": {},
  "timestamp": 1761235634339,
  "chain": 11155111,
  "commit": "c03d2ed"
}