{
  "transactions": [
    {
      "hash": "0x3f9e6a02189701666fbc5a29c746536b7f48c6ae87d4801810a38daf67beaf96",
      "transactionType": "CALL",
      "contractName": "EveryTwoMillionBlocks",
      "contractAddress": "0xa27e1385cfcc5bd6ff25d005d8fb10239502f4bc",
      "function": "ingestPermutationChunk(uint256[],uint256[])",
      "arguments": [
        "[1, 2, 3, 4, 5, 6, 7, 8, 9, 10, 11, 12, 13, 14, 15, 16, 17, 18, 19, 20]",
        "[2, 7, 15, 12, 1, 6, 16, 5, 18, 19, 0, 13, 14, 4, 9, 17, 3, 8, 10, 11]"
      ],
      "transaction": {
        "from": "0xad9fdad276ab1a430fd03177a07350cd7c61e897",
        "to": "0xa27e1385cfcc5bd6ff25d005d8fb10239502f4bc",
        "gas": "0x42c01",
        "value": "0x0",
        "input": "0x3b999e0b000000000000000000000000000000000000000000000000000000000000004000000000000000000000000000000000000000000000000000000000000002e00000000000000000000000000000000000000000000000000000000000000014000000000000000000000000000000000000000000000000000000000000000100000000000000000000000000000000000000000000000000000000000000020000000000000000000000000000000000000000000000000000000000000003000000000000000000000000000000000000000000000000000000000000000400000000000000000000000000000000000000000000000000000000000000050000000000000000000000000000000000000000000000000000000000000006000000000000000000000000000000000000000000000000000000000000000700000000000000000000000000000000000000000000000000000000000000080000000000000000000000000000000000000000000000000000000000000009000000000000000000000000000000000000000000000000000000000000000a000000000000000000000000000000000000000000000000000000000000000b000000000000000000000000000000000000000000000000000000000000000c000000000000000000000000000000000000000000000000000000000000000d000000000000000000000000000000000000000000000000000000000000000e000000000000000000000000000000000000000000000000000000000000000f00000000000000000000000000000000000000000000000000000000000000100000000000000000000000000000000000000000000000000000000000000011000000000000000000000000000000000000000000000000000000000000001200000000000000000000000000000000000000000000000000000000000000130000000000000000000000000000000000000000000000000000000000000014000000000000000000000000000000000000000000000000000000000000001400000000000000000000000000000000000000000000000000000000000000020000000000000000000000000000000000000000000000000000000000000007000000000000000000000000000000000000000000000000000000000000000f000000000000000000000000000000000000000000000000000000000000000c0000000000000000000000000000000000000000000000000000000000000001000000000000000000000000000000000000000000000000000000000000000600000000000000000000000000000000000000000000000000000000000000100000000000000000000000000000000000000000000000000000000000000005000000000000000000000000000000000000000000000000000000000000001200000000000000000000000000000000000000000000000000000000000000130000000000000000000000000000000000000000000000000000000000000000000000000000000000000000000000000000000000000000000000000000000d000000000000000000000000000000000000000000000000000000000000000e00000000000000000000000000000000000000000000000000000000000000040000000000000000000000000000000000000000000000000000000000000009000000000000000000000000000000000000000000000000000000000000001100000000000000000000000000000000000000000000000000000000000000030000000000000000000000000000000000000000000000000000000000000008000000000000000000000000000000000000000000000000000000000000000a000000000000000000000000000000000000000000000000000000000000000b",
        "nonce": "0x2a1",
        "chainId": "0xaa36a7"
      },
      "additionalContracts": [],
      "isFixedGasLimit": false
    }
  ],
  "receipts": [
    {
      "status": "0x1",
      "cumulativeGasUsed": "0xc3ac2a",
      "logs": [
        {
          "address": "0xa27e1385cfcc5bd6ff25d005d8fb10239502f4bc",
          "topics": [
            "0xf568ff94e3b74d950644b19253025001012802b6c60f7157a2e573c19a2f8a94",
            "0x0000000000000000000000000000000000000000000000000000000000000001"
          ],
          "data": "0x0000000000000000000000000000000000000000000000000000000000000014",
          "blockHash": "0x143cd6982c058142f9988c3e81c63245d13300b5eba6cb429fd6e16d846d817d",
          "blockNumber": "0x9154f1",
          "blockTimestamp": "0x6903a6c8",
          "transactionHash": "0x3f9e6a02189701666fbc5a29c746536b7f48c6ae87d4801810a38daf67beaf96",
          "transactionIndex": "0x68",
          "logIndex": "0x85",
          "removed": false
        }
      ],
      "logsBloom": "0x00000000000000000000000000000000000000000001000000000000000000000000000000000000000000000000000080000000000000000000000000040000000000000000000000000000000000000000000000040000000000000000000000000000000000000000000000000000000000000000000000000000000000000000000000000000000000080000000000000000000000000000100000000000000000000000000000000000000000000000000000000000000000000000000000000000000000000000000000000000000000000000000000000400000040000000000000000000000000000000000000000000000000000000000000000200",
      "type": "0x0",
      "transactionHash": "0x3f9e6a02189701666fbc5a29c746536b7f48c6ae87d4801810a38daf67beaf96",
      "transactionIndex": "0x68",
      "blockHash": "0x143cd6982c058142f9988c3e81c63245d13300b5eba6cb429fd6e16d846d817d",
      "blockNumber": "0x9154f1",
      "gasUsed": "0x30538",
      "effectiveGasPrice": "0xf424d",
      "from": "0xad9fdad276ab1a430fd03177a07350cd7c61e897",
      "to": "0xa27e1385cfcc5bd6ff25d005d8fb10239502f4bc",
      "contractAddress": null
    }
  ],
  "libraries": [],
  "pending": [],
  "returns": {},
  "timestamp": 1761846987020,
  "chain": 11155111,
  "commit": "c03d2ed"
}