{
  "transactions": [
    {
      "hash": "0xd7396577d8e87e4fcc2903da7fc0e873fda313508dfbc7e8d02241d186185a92",
      "transactionType": "CALL",
      "contractName": null,
      "contractAddress": "0x29025680f88f8b98097aed6fa625894f845413dc",
      "function": "ingestPermutationChunk(uint256[],uint256[])",
      "arguments": [
        "[1, 2, 3, 4, 5, 6, 7, 8, 9, 10, 11, 12, 13, 14, 15, 16, 17, 18, 19, 20, 21, 22, 23, 24, 25, 26, 27, 28, 29, 30, 31, 32, 33, 34, 35, 36, 37, 38, 39, 40, 41, 42, 43, 44, 45, 46, 47, 48, 49, 50]",
        "[16, 14, 18, 26, 4, 23, 41, 21, 40, 15, 7, 2, 13, 39, 17, 22, 3, 0, 24, 9, 45, 30, 19, 32, 43, 48, 25, 29, 46, 11, 33, 12, 34, 49, 44, 8, 31, 47, 38, 20, 28, 5, 37, 6, 10, 1, 35, 36, 42, 27]"
      ],
      "transaction": {
        "from": "0xad9fdad276ab1a430fd03177a07350cd7c61e897",
        "to": "0x29025680f88f8b98097aed6fa625894f845413dc",
        "gas": "0x78e0a",
        "value": "0x0",
        "input": "0x3b999e0b000000000000000000000000000000000000000000000000000000000000004000000000000000000000000000000000000000000000000000000000000006a00000000000000000000000000000000000000000000000000000000000000032000000000000000000000000000000000000000000000000000000000000000100000000000000000000000000000000000000000000000000000000000000020000000000000000000000000000000000000000000000000000000000000003000000000000000000000000000000000000000000000000000000000000000400000000000000000000000000000000000000000000000000000000000000050000000000000000000000000000000000000000000000000000000000000006000000000000000000000000000000000000000000000000000000000000000700000000000000000000000000000000000000000000000000000000000000080000000000000000000000000000000000000000000000000000000000000009000000000000000000000000000000000000000000000000000000000000000a000000000000000000000000000000000000000000000000000000000000000b000000000000000000000000000000000000000000000000000000000000000c000000000000000000000000000000000000000000000000000000000000000d000000000000000000000000000000000000000000000000000000000000000e000000000000000000000000000000000000000000000000000000000000000f0000000000000000000000000000000000000000000000000000000000000010000000000000000000000000000000000000000000000000000000000000001100000000000000000000000000000000000000000000000000000000000000120000000000000000000000000000000000000000000000000000000000000013000000000000000000000000000000000000000000000000000000000000001400000000000000000000000000000000000000000000000000000000000000150000000000000000000000000000000000000000000000000000000000000016000000000000000000000000000000000000000000000000000000000000001700000000000000000000000000000000000000000000000000000000000000180000000000000000000000000000000000000000000000000000000000000019000000000000000000000000000000000000000000000000000000000000001a000000000000000000000000000000000000000000000000000000000000001b000000000000000000000000000000000000000000000000000000000000001c000000000000000000000000000000000000000000000000000000000000001d000000000000000000000000000000000000000000000000000000000000001e000000000000000000000000000000000000000000000000000000000000001f0000000000000000000000000000000000000000000000000000000000000020000000000000000000000000000000000000000000000000000000000000002100000000000000000000000000000000000000000000000000000000000000220000000000000000000000000000000000000000000000000000000000000023000000000000000000000000000000000000000000000000000000000000002400000000000000000000000000000000000000000000000000000000000000250000000000000000000000000000000000000000000000000000000000000026000000000000000000000000000000000000000000000000000000000000002700000000000000000000000000000000000000000000000000000000000000280000000000000000000000000000000000000000000000000000000000000029000000000000000000000000000000000000000000000000000000000000002a000000000000000000000000000000000000000000000000000000000000002b000000000000000000000000000000000000000000000000000000000000002c000000000000000000000000000000000000000000000000000000000000002d000000000000000000000000000000000000000000000000000000000000002e000000000000000000000000000000000000000000000000000000000000002f00000000000000000000000000000000000000000000000000000000000000300000000000000000000000000000000000000000000000000000000000000031000000000000000000000000000000000000000000000000000000000000003200000000000000000000000000000000000000000000000000000000000000320000000000000000000000000000000000000000000000000000000000000010000000000000000000000000000000000000000000000000000000000000000e0000000000000000000000000000000000000000000000000000000000000012000000000000000000000000000000000000000000000000000000000000001a00000000000000000000000000000000000000000000000000000000000000040000000000000000000000000000000000000000000000000000000000000017000000000000000000000000000000000000000000000000000000000000002900000000000000000000000000000000000000000000000000000000000000150000000000000000000000000000000000000000000000000000000000000028000000000000000000000000000000000000000000000000000000000000000f00000000000000000000000000000000000000000000000000000000000000070000000000000000000000000000000000000000000000000000000000000002000000000000000000000000000000000000000000000000000000000000000d0000000000000000000000000000000000000000000000000000000000000027000000000000000000000000000000000000000000000000000000000000001100000000000000000000000000000000000000000000000000000000000000160000000000000000000000000000000000000000000000000000000000000003000000000000000000000000000000000000000000000000000000000000000000000000000000000000000000000000000000000000000000000000000000180000000000000000000000000000000000000000000000000000000000000009000000000000000000000000000000000000000000000000000000000000002d000000000000000000000000000000000000000000000000000000000000001e00000000000000000000000000000000000000000000000000000000000000130000000000000000000000000000000000000000000000000000000000000020000000000000000000000000000000000000000000000000000000000000002b00000000000000000000000000000000000000000000000000000000000000300000000000000000000000000000000000000000000000000000000000000019000000000000000000000000000000000000000000000000000000000000001d000000000000000000000000000000000000000000000000000000000000002e000000000000000000000000000000000000000000000000000000000000000b0000000000000000000000000000000000000000000000000000000000000021000000000000000000000000000000000000000000000000000000000000000c00000000000000000000000000000000000000000000000000000000000000220000000000000000000000000000000000000000000000000000000000000031000000000000000000000000000000000000000000000000000000000000002c0000000000000000000000000000000000000000000000000000000000000008000000000000000000000000000000000000000000000000000000000000001f000000000000000000000000000000000000000000000000000000000000002f00000000000000000000000000000000000000000000000000000000000000260000000000000000000000000000000000000000000000000000000000000014000000000000000000000000000000000000000000000000000000000000001c000000000000000000000000000000000000000000000000000000000000000500000000000000000000000000000000000000000000000000000000000000250000000000000000000000000000000000000000000000000000000000000006000000000000000000000000000000000000000000000000000000000000000a000000000000000000000000000000000000000000000000000000000000000100000000000000000000000000000000000000000000000000000000000000230000000000000000000000000000000000000000000000000000000000000024000000000000000000000000000000000000000000000000000000000000002a000000000000000000000000000000000000000000000000000000000000001b",
        "nonce": "0x472",
        "chainId": "0xaa36a7"
      },
      "additionalContracts": [],
      "isFixedGasLimit": false
    }
  ],
  "receipts": [
    {
      "status": "0x1",
      "cumulativeGasUsed": "0x5685bb",
      "logs": [
        {
          "address": "0x29025680f88f8b98097aed6fa625894f845413dc",
          "topics": [
            "0xf568ff94e3b74d950644b19253025001012802b6c60f7157a2e573c19a2f8a94",
            "0x0000000000000000000000000000000000000000000000000000000000000001"
          ],
          "data": "0x0000000000000000000000000000000000000000000000000000000000000032",
          "blockHash": "0x1fd6dec42e10366c2b961395880e46623629f4cbfbfb5d8672a7e15963bbed99",
          "blockNumber": "0x91ae03",
          "blockTimestamp": "0x6907d52c",
          "transactionHash": "0xd7396577d8e87e4fcc2903da7fc0e873fda313508dfbc7e8d02241d186185a92",
          "transactionIndex": "0x3f",
          "logIndex": "0x79",
          "removed": false
        }
      ],
      "logsBloom": "0x00000000000000000000000000000000000000000000000000000000000000000000000000000000000000000000000080000000000000000000000000040000000000000000000000000000000000000000000000040000000000000000000000000000000000000000000000000000000000000000000000000000000000000000000000000000000000080000000000000000000000000000100000000000000000000000000000000000000000000000000000000001001000100000000000000000000000000000000000000000000000000000000000000000000040000000000000000000000000000000000000000000000000000000000000000000",
      "type": "0x0",
      "transactionHash": "0xd7396577d8e87e4fcc2903da7fc0e873fda313508dfbc7e8d02241d186185a92",
      "transactionIndex": "0x3f",
      "blockHash": "0x1fd6dec42e10366c2b961395880e46623629f4cbfbfb5d8672a7e15963bbed99",
      "blockNumber": "0x91ae03",
      "gasUsed": "0x57836",
      "effectiveGasPrice": "0xf4248",
      "from": "0xad9fdad276ab1a430fd03177a07350cd7c61e897",
      "to": "0x29025680f88f8b98097aed6fa625894f845413dc",
      "contractAddress": null
    }
  ],
  "libraries": [],
  "pending": [],
  "returns": {},
  "timestamp": 1762121005044,
  "chain": 11155111,
  "commit": "c03d2ed"
}