{
  "transactions": [
    {
      "hash": "0x609c056eab7efbc7dffeae6d5f1aef824252fbacafc46522e24ce8785b7d6038",
      "transactionType": "CALL",
      "contractName": null,
      "contractAddress": "0xf9ae13167b184faa4fea2f2e7249447f0e2a30a6",
      "function": "ingestPermutationChunk(uint256[],uint256[])",
      "arguments": [
        "[1, 2, 3, 4, 5, 6, 7, 8, 9, 10, 11, 12, 13, 14, 15, 16, 17, 18, 19, 20, 21, 22, 23, 24, 25, 26, 27, 28, 29, 30, 31, 32, 33, 34, 35, 36, 37, 38, 39, 40, 41, 42, 43, 44, 45, 46, 47, 48, 49, 50]",
        "[4, 10, 44, 11, 5, 26, 41, 38, 16, 1, 45, 29, 34, 37, 35, 0, 2, 21, 46, 36, 3, 20, 25, 24, 18, 22, 39, 12, 8, 42, 7, 23, 6, 17, 13, 15, 33, 14, 47, 32, 28, 19, 40, 31, 49, 43, 9, 30, 48, 27]"
      ],
      "transaction": {
        "from": "0xad9fdad276ab1a430fd03177a07350cd7c61e897",
        "to": "0xf9ae13167b184faa4fea2f2e7249447f0e2a30a6",
        "gas": "0x79d25",
        "value": "0x0",
        "input": "0x3b999e0b000000000000000000000000000000000000000000000000000000000000004000000000000000000000000000000000000000000000000000000000000006a00000000000000000000000000000000000000000000000000000000000000032000000000000000000000000000000000000000000000000000000000000000100000000000000000000000000000000000000000000000000000000000000020000000000000000000000000000000000000000000000000000000000000003000000000000000000000000000000000000000000000000000000000000000400000000000000000000000000000000000000000000000000000000000000050000000000000000000000000000000000000000000000000000000000000006000000000000000000000000000000000000000000000000000000000000000700000000000000000000000000000000000000000000000000000000000000080000000000000000000000000000000000000000000000000000000000000009000000000000000000000000000000000000000000000000000000000000000a000000000000000000000000000000000000000000000000000000000000000b000000000000000000000000000000000000000000000000000000000000000c000000000000000000000000000000000000000000000000000000000000000d000000000000000000000000000000000000000000000000000000000000000e000000000000000000000000000000000000000000000000000000000000000f0000000000000000000000000000000000000000000000000000000000000010000000000000000000000000000000000000000000000000000000000000001100000000000000000000000000000000000000000000000000000000000000120000000000000000000000000000000000000000000000000000000000000013000000000000000000000000000000000000000000000000000000000000001400000000000000000000000000000000000000000000000000000000000000150000000000000000000000000000000000000000000000000000000000000016000000000000000000000000000000000000000000000000000000000000001700000000000000000000000000000000000000000000000000000000000000180000000000000000000000000000000000000000000000000000000000000019000000000000000000000000000000000000000000000000000000000000001a000000000000000000000000000000000000000000000000000000000000001b000000000000000000000000000000000000000000000000000000000000001c000000000000000000000000000000000000000000000000000000000000001d000000000000000000000000000000000000000000000000000000000000001e000000000000000000000000000000000000000000000000000000000000001f0000000000000000000000000000000000000000000000000000000000000020000000000000000000000000000000000000000000000000000000000000002100000000000000000000000000000000000000000000000000000000000000220000000000000000000000000000000000000000000000000000000000000023000000000000000000000000000000000000000000000000000000000000002400000000000000000000000000000000000000000000000000000000000000250000000000000000000000000000000000000000000000000000000000000026000000000000000000000000000000000000000000000000000000000000002700000000000000000000000000000000000000000000000000000000000000280000000000000000000000000000000000000000000000000000000000000029000000000000000000000000000000000000000000000000000000000000002a000000000000000000000000000000000000000000000000000000000000002b000000000000000000000000000000000000000000000000000000000000002c000000000000000000000000000000000000000000000000000000000000002d000000000000000000000000000000000000000000000000000000000000002e000000000000000000000000000000000000000000000000000000000000002f00000000000000000000000000000000000000000000000000000000000000300000000000000000000000000000000000000000000000000000000000000031000000000000000000000000000000000000000000000000000000000000003200000000000000000000000000000000000000000000000000000000000000320000000000000000000000000000000000000000000000000000000000000004000000000000000000000000000000000000000000000000000000000000000a000000000000000000000000000000000000000000000000000000000000002c000000000000000000000000000000000000000000000000000000000000000b0000000000000000000000000000000000000000000000000000000000000005000000000000000000000000000000000000000000000000000000000000001a0000000000000000000000000000000000000000000000000000000000000029000000000000000000000000000000000000000000000000000000000000002600000000000000000000000000000000000000000000000000000000000000100000000000000000000000000000000000000000000000000000000000000001000000000000000000000000000000000000000000000000000000000000002d000000000000000000000000000000000000000000000000000000000000001d000000000000000000000000000000000000000000000000000000000000002200000000000000000000000000000000000000000000000000000000000000250000000000000000000000000000000000000000000000000000000000000023000000000000000000000000000000000000000000000000000000000000000000000000000000000000000000000000000000000000000000000000000000020000000000000000000000000000000000000000000000000000000000000015000000000000000000000000000000000000000000000000000000000000002e00000000000000000000000000000000000000000000000000000000000000240000000000000000000000000000000000000000000000000000000000000003000000000000000000000000000000000000000000000000000000000000001400000000000000000000000000000000000000000000000000000000000000190000000000000000000000000000000000000000000000000000000000000018000000000000000000000000000000000000000000000000000000000000001200000000000000000000000000000000000000000000000000000000000000160000000000000000000000000000000000000000000000000000000000000027000000000000000000000000000000000000000000000000000000000000000c0000000000000000000000000000000000000000000000000000000000000008000000000000000000000000000000000000000000000000000000000000002a0000000000000000000000000000000000000000000000000000000000000007000000000000000000000000000000000000000000000000000000000000001700000000000000000000000000000000000000000000000000000000000000060000000000000000000000000000000000000000000000000000000000000011000000000000000000000000000000000000000000000000000000000000000d000000000000000000000000000000000000000000000000000000000000000f0000000000000000000000000000000000000000000000000000000000000021000000000000000000000000000000000000000000000000000000000000000e000000000000000000000000000000000000000000000000000000000000002f0000000000000000000000000000000000000000000000000000000000000020000000000000000000000000000000000000000000000000000000000000001c00000000000000000000000000000000000000000000000000000000000000130000000000000000000000000000000000000000000000000000000000000028000000000000000000000000000000000000000000000000000000000000001f0000000000000000000000000000000000000000000000000000000000000031000000000000000000000000000000000000000000000000000000000000002b0000000000000000000000000000000000000000000000000000000000000009000000000000000000000000000000000000000000000000000000000000001e0000000000000000000000000000000000000000000000000000000000000030000000000000000000000000000000000000000000000000000000000000001b",
        "nonce": "0x3ce",
        "chainId": "0xaa36a7"
      },
      "additionalContracts": [],
      "isFixedGasLimit": false
    }
  ],
  "receipts": [
    {
      "status": "0x1",
      "cumulativeGasUsed": "0xa1a600",
      "logs": [
        {
          "address": "0xf9ae13167b184faa4fea2f2e7249447f0e2a30a6",
          "topics": [
            "0xf568ff94e3b74d950644b19253025001012802b6c60f7157a2e573c19a2f8a94",
            "0x0000000000000000000000000000000000000000000000000000000000000001"
          ],
          "data": "0x0000000000000000000000000000000000000000000000000000000000000032",
          "blockHash": "0x1b87d9bf578a29266c971117b2deac7503a1aefc0e79b6e89b6964d4cdbc4aac",
          "blockNumber": "0x917113",
          "blockTimestamp": "0x6904f8a8",
          "transactionHash": "0x609c056eab7efbc7dffeae6d5f1aef824252fbacafc46522e24ce8785b7d6038",
          "transactionIndex": "0x3a",
          "logIndex": "0x4a",
          "removed": false
        }
      ],
      "logsBloom": "0x00000000000000000000000000000000000000000000000000000000000000000000000000000000000000000000000080000000000000000000000000040000000000000000008000000000000000000000000000040000000000000000000000000000000000000000000800000000000000000000000000000000000000000000000000000000000000880000000000000000000000000000100000000000000000000000000000000000000000000000000000000000000000000000000000000000000000000000000000000000000000000000000000000000000040000000000000000000000000000000000000000000000000000000000000000000",
      "type": "0x0",
      "transactionHash": "0x609c056eab7efbc7dffeae6d5f1aef824252fbacafc46522e24ce8785b7d6038",
      "transactionIndex": "0x3a",
      "blockHash": "0x1b87d9bf578a29266c971117b2deac7503a1aefc0e79b6e89b6964d4cdbc4aac",
      "blockNumber": "0x917113",
      "gasUsed": "0x58326",
      "effectiveGasPrice": "0xf4249",
      "from": "0xad9fdad276ab1a430fd03177a07350cd7c61e897",
      "to": "0xf9ae13167b184faa4fea2f2e7249447f0e2a30a6",
      "contractAddress": null
    }
  ],
  "libraries": [],
  "pending": [],
  "returns": {},
  "timestamp": 1761933482138,
  "chain": 11155111,
  "commit": "c03d2ed"
}