{
  "transactions": [
    {
      "hash": "0xb96b496ef58ebb692f50d2d75d5b44b0c7849e63989b34352bf31b5cc86f980b",
      "transactionType": "CALL",
      "contractName": null,
      "contractAddress": "0x5d9116ee207c2bb2f378047aa506366f06d52605",
      "function": "setPointsManager(address)",
      "arguments": [
        "0x8086be0A8aAa0c756C3729c36fCF65850fb00Cd1"
      ],
      "transaction": {
        "from": "0xad9fdad276ab1a430fd03177a07350cd7c61e897",
        "to": "0x5d9116ee207c2bb2f378047aa506366f06d52605",
        "gas": "0x120f0",
        "value": "0x0",
        "input": "0xcae42a080000000000000000000000008086be0a8aaa0c756c3729c36fcf65850fb00cd1",
        "nonce": "0x2d7",
        "chainId": "0xaa36a7"
      },
      "additionalContracts": [],
      "isFixedGasLimit": false
    },
    {
      "hash": "0xc6ff8c8744f9094a746fa5f3b495abb5909faca1018447dfefd961a38313e262",
      "transactionType": "CALL",
      "contractName": null,
      "contractAddress": "0x5d9116ee207c2bb2f378047aa506366f06d52605",
      "function": "setPointsAggregator(address)",
      "arguments": [
        "0xb311a1e74E558093c0F9057Ba740F9677362820e"
      ],
      "transaction": {
        "from": "0xad9fdad276ab1a430fd03177a07350cd7c61e897",
        "to": "0x5d9116ee207c2bb2f378047aa506366f06d52605",
        "gas": "0x10bc7",
        "value": "0x0",
        "input": "0x2e51d88c000000000000000000000000b311a1e74e558093c0f9057ba740f9677362820e",
        "nonce": "0x2d8",
        "chainId": "0xaa36a7"
      },
      "additionalContracts": [],
      "isFixedGasLimit": false
    },
    {
      "hash": "0xd2dbafa47b2056064d40e9b1b70497991a0e6781898eadd76d57a497941a1e6d",
      "transactionType": "CALL",
      "contractName": null,
      "contractAddress": "0xb311a1e74e558093c0f9057ba740f9677362820e",
      "function": "setNftContract(address)",
      "arguments": [
        "0x5D9116ee207C2bB2f378047AA506366F06D52605"
      ],
      "transaction": {
        "from": "0xad9fdad276ab1a430fd03177a07350cd7c61e897",
        "to": "0xb311a1e74e558093c0f9057ba740f9677362820e",
        "gas": "0xfe2f",
        "value": "0x0",
        "input": "0x52f5ad770000000000000000000000005d9116ee207c2bb2f378047aa506366f06d52605",
        "nonce": "0x2d9",
        "chainId": "0xaa36a7"
      },
      "additionalContracts": [],
      "isFixedGasLimit": false
    },
    {
      "hash": "0x4bba58defbea3fbf7ec3234d52b89c41f3efe177f7b3c78527543965b669a231",
      "transactionType": "CALL",
      "contractName": null,
      "contractAddress": "0x8086be0a8aaa0c756c3729c36fcf65850fb00cd1",
      "function": "setAggregator(address)",
      "arguments": [
        "0xb311a1e74E558093c0F9057Ba740F9677362820e"
      ],
      "transaction": {
        "from": "0xad9fdad276ab1a430fd03177a07350cd7c61e897",
        "to": "0x8086be0a8aaa0c756c3729c36fcf65850fb00cd1",
        "gas": "0x948c",
        "value": "0x0",
        "input": "0xf9120af6000000000000000000000000b311a1e74e558093c0f9057ba740f9677362820e",
        "nonce": "0x2da",
        "chainId": "0xaa36a7"
      },
      "additionalContracts": [],
      "isFixedGasLimit": false
    },
    {
      "hash": "0x8270e725dd4d45354f5ccae827d302b823abcfb4900d754917a2a0b5e1a5fe3a",
      "transactionType": "CALL",
      "contractName": null,
      "contractAddress": "0x8086be0a8aaa0c756c3729c36fcf65850fb00cd1",
      "function": "setRevealQueue(address)",
      "arguments": [
        "0x5D9116ee207C2bB2f378047AA506366F06D52605"
      ],
      "transaction": {
        "from": "0xad9fdad276ab1a430fd03177a07350cd7c61e897",
        "to": "0x8086be0a8aaa0c756c3729c36fcf65850fb00cd1",
        "gas": "0x1000a",
        "value": "0x0",
        "input": "0xfdc853710000000000000000000000005d9116ee207c2bb2f378047aa506366f06d52605",
        "nonce": "0x2db",
        "chainId": "0xaa36a7"
      },
      "additionalContracts": [],
      "isFixedGasLimit": false
    },
    {
      "hash": "0x3e3ca505176ec0470608312ddcc1623bef2994eb5846cbb5500e608985143c5c",
      "transactionType": "CALL",
      "contractName": null,
      "contractAddress": "0x8086be0a8aaa0c756c3729c36fcf65850fb00cd1",
      "function": "setPermutationZeroIndexed(bool)",
      "arguments": [
        "true"
      ],
      "transaction": {
        "from": "0xad9fdad276ab1a430fd03177a07350cd7c61e897",
        "to": "0x8086be0a8aaa0c756c3729c36fcf65850fb00cd1",
        "gas": "0x9fc4",
        "value": "0x0",
        "input": "0x0367aa2f0000000000000000000000000000000000000000000000000000000000000001",
        "nonce": "0x2dc",
        "chainId": "0xaa36a7"
      },
      "additionalContracts": [],
      "isFixedGasLimit": false
    },
    {
      "hash": "0xb3653dc1c58a47bc2a4ee733b764b60bf48f25f9b0100f3a44988325ab88766a",
      "transactionType": "CALL",
      "contractName": null,
      "contractAddress": "0x5d9116ee207c2bb2f378047aa506366f06d52605",
      "function": "configureVRF(address,bytes32,uint256,uint16,uint32,uint32)",
      "arguments": [
        "0x9DdfaCa8183c41ad55329BdeeD9F6A8d53168B1B",
        "0x787d74caea10b2b357790d5b5247c2f63d1d91572a9846f780606e4d953677ae",
        "87683545613994394530861784894347546345842400721843250695264552850260639576285",
        "3",
        "500000",
        "2"
      ],
      "transaction": {
        "from": "0xad9fdad276ab1a430fd03177a07350cd7c61e897",
        "to": "0x5d9116ee207c2bb2f378047aa506366f06d52605",
        "gas": "0x24622",
        "value": "0x0",
        "input": "0x13cec91d0000000000000000000000009ddfaca8183c41ad55329bdeed9f6a8d53168b1b787d74caea10b2b357790d5b5247c2f63d1d91572a9846f780606e4d953677aec1db20cb0e1a6e08198b382012720b3205c8f3cf28237604ec99e9f37ce770dd0000000000000000000000000000000000000000000000000000000000000003000000000000000000000000000000000000000000000000000000000007a1200000000000000000000000000000000000000000000000000000000000000002",
        "nonce": "0x2dd",
        "chainId": "0xaa36a7"
      },
      "additionalContracts": [],
      "isFixedGasLimit": false
    }
  ],
  "receipts": [
    {
      "status": "0x1",
      "cumulativeGasUsed": "0xeab147",
      "logs": [
        {
          "address": "0x5d9116ee207c2bb2f378047aa506366f06d52605",
          "topics": [
            "0x7619eb3b0b2346250e2839a10da35fc58eea3632c6f045e8abffa1864bce2551"
          ],
          "data": "0x0000000000000000000000008086be0a8aaa0c756c3729c36fcf65850fb00cd1",
          "blockHash": "0xfb5d07f0c667bb83bff10efaa436bab54961996abe35444699cba9758375bcf5",
          "blockNumber": "0x916c2a",
          "blockTimestamp": "0x6904bdb0",
          "transactionHash": "0xb96b496ef58ebb692f50d2d75d5b44b0c7849e63989b34352bf31b5cc86f980b",
          "transactionIndex": "0x56",
          "logIndex": "0x44",
          "removed": false
        }
      ],
      "logsBloom": "0x00000000000000000000000000000000000000000000000000000000000000000000000000000000000000000000000000000000000000000000000000000000000000000000080000000000000000004000000000000000000000800000000000000000000000000000000000000000000000000000000000000000000000000000000000000000000000000000000000800000000000000000000800000000000000000000000000000000000000000000000000000000000000000000000000000000000000000000000000100000000000000000000000000000000000000000000000000000000000000000000000000000000000000000000000000000",
      "type": "0x0",
      "transactionHash": "0xb96b496ef58ebb692f50d2d75d5b44b0c7849e63989b34352bf31b5cc86f980b",
      "transactionIndex": "0x56",
      "blockHash": "0xfb5d07f0c667bb83bff10efaa436bab54961996abe35444699cba9758375bcf5",
      "blockNumber": "0x916c2a",
      "gasUsed": "0xc591",
      "effectiveGasPrice": "0xf424b",
      "from": "0xad9fdad276ab1a430fd03177a07350cd7c61e897",
      "to": "0x5d9116ee207c2bb2f378047aa506366f06d52605",
      "contractAddress": null
    },
    {
      "status": "0x1",
      "cumulativeGasUsed": "0xeb7326",
      "logs": [
        {
          "address": "0x5d9116ee207c2bb2f378047aa506366f06d52605",
          "topics": [
            "0xce5202ecc8b8799ee1618adf9acec1ce2a28f52077ffc9bcdcf6c794f9e0c37a"
          ],
          "data": "0x000000000000000000000000b311a1e74e558093c0f9057ba740f9677362820e",
          "blockHash": "0xfb5d07f0c667bb83bff10efaa436bab54961996abe35444699cba9758375bcf5",
          "blockNumber": "0x916c2a",
          "blockTimestamp": "0x6904bdb0",
          "transactionHash": "0xc6ff8c8744f9094a746fa5f3b495abb5909faca1018447dfefd961a38313e262",
          "transactionIndex": "0x57",
          "logIndex": "0x45",
          "removed": false
        }
      ],
      "logsBloom": "0x00000000000000000000000000000000000000000000000000000000000000000000000000000000002000000000000000000000000000000000000000000000000000400000080000000000000000000000000000000000000000000000000000000000000000000000000000000000000000000000000000000000000000000000000000000000000000000000000000800000000000000000000000000000000000000000000000000000000000000000000000000000000000000000000000000000000000000000000000100000000000000000000000000000000000000000000000000000000000000000000000000000000008000000000000000000",
      "type": "0x0",
      "transactionHash": "0xc6ff8c8744f9094a746fa5f3b495abb5909faca1018447dfefd961a38313e262",
      "transactionIndex": "0x57",
      "blockHash": "0xfb5d07f0c667bb83bff10efaa436bab54961996abe35444699cba9758375bcf5",
      "blockNumber": "0x916c2a",
      "gasUsed": "0xc1df",
      "effectiveGasPrice": "0xf424b",
      "from": "0xad9fdad276ab1a430fd03177a07350cd7c61e897",
      "to": "0x5d9116ee207c2bb2f378047aa506366f06d52605",
      "contractAddress": null
    },
    {
      "status": "0x1",
      "cumulativeGasUsed": "0xec2b2d",
      "logs": [
        {
          "address": "0xb311a1e74e558093c0f9057ba740f9677362820e",
          "topics": [
            "0xa27bdd7b0c9c795c64307abe4a8b21d993ec4bd2601c38dfaee5cfc991375ae8",
            "0x0000000000000000000000005d9116ee207c2bb2f378047aa506366f06d52605"
          ],
          "data": "0x",
          "blockHash": "0xfb5d07f0c667bb83bff10efaa436bab54961996abe35444699cba9758375bcf5",
          "blockNumber": "0x916c2a",
          "blockTimestamp": "0x6904bdb0",
          "transactionHash": "0xd2dbafa47b2056064d40e9b1b70497991a0e6781898eadd76d57a497941a1e6d",
          "transactionIndex": "0x58",
          "logIndex": "0x46",
          "removed": false
        }
      ],
      "logsBloom": "0x00000000000000000000000000000000000000011000000000000000000000000000000000000000000000000000000000000000000000000000000000000000000000000000000000000000000000000000000000020000000080000000000000000000000000000000000000000000000000000000000000000000000000000000000000000000000000000000000000000000000000000000000000000100000000000000000000000000000000000000000000000000000000000000000000000040100000000000000000000080000000000000000000000000000000000000000000000000000000000000000000000000000000000000000000000002",
      "type": "0x0",
      "transactionHash": "0xd2dbafa47b2056064d40e9b1b70497991a0e6781898eadd76d57a497941a1e6d",
      "transactionIndex": "0x58",
      "blockHash": "0xfb5d07f0c667bb83bff10efaa436bab54961996abe35444699cba9758375bcf5",
      "blockNumber": "0x916c2a",
      "gasUsed": "0xb807",
      "effectiveGasPrice": "0xf424b",
      "from": "0xad9fdad276ab1a430fd03177a07350cd7c61e897",
      "to": "0xb311a1e74e558093c0f9057ba740f9677362820e",
      "contractAddress": null
    },
    {
      "status": "0x1",
      "cumulativeGasUsed": "0xec96ba",
      "logs": [
        {
          "address": "0x8086be0a8aaa0c756c3729c36fcf65850fb00cd1",
          "topics": [
            "0x602cec4b1583b07d071161da5eb9589444d2459201e2fab7753dc941e9351c21",
            "0x000000000000000000000000b311a1e74e558093c0f9057ba740f9677362820e"
          ],
          "data": "0x",
          "blockHash": "0xfb5d07f0c667bb83bff10efaa436bab54961996abe35444699cba9758375bcf5",
          "blockNumber": "0x916c2a",
          "blockTimestamp": "0x6904bdb0",
          "transactionHash": "0x4bba58defbea3fbf7ec3234d52b89c41f3efe177f7b3c78527543965b669a231",
          "transactionIndex": "0x59",
          "logIndex": "0x47",
          "removed": false
        }
      ],
      "logsBloom": "0x00000000000000000000000000000000000000000000020000000000020000000000000000000000000000000000000000000000000000000000100000000008000000000000000000000000000000000000000000000000000000000000000000000020000000000000000000000000000000000100000000000000000000000000000000000000000000000000000000000000000000000000000000000004000020000000000000000000000000000000000000000000000000000000000000000000000000000000000000000000000000000000000000000000000000000000000000002000000000000000000000000000000000000000000000000000",
      "type": "0x0",
      "transactionHash": "0x4bba58defbea3fbf7ec3234d52b89c41f3efe177f7b3c78527543965b669a231",
      "transactionIndex": "0x59",
      "blockHash": "0xfb5d07f0c667bb83bff10efaa436bab54961996abe35444699cba9758375bcf5",
      "blockNumber": "0x916c2a",
      "gasUsed": "0x6b8d",
      "effectiveGasPrice": "0xf424b",
      "from": "0xad9fdad276ab1a430fd03177a07350cd7c61e897",
      "to": "0x8086be0a8aaa0c756c3729c36fcf65850fb00cd1",
      "contractAddress": null
    },
    {
      "status": "0x1",
      "cumulativeGasUsed": "0xed5019",
      "logs": [
        {
          "address": "0x8086be0a8aaa0c756c3729c36fcf65850fb00cd1",
          "topics": [
            "0x23a1b510439be15b459a731ae3d1d5a6eac00dcd9433c69442716b282d888ac4",
            "0x0000000000000000000000005d9116ee207c2bb2f378047aa506366f06d52605"
          ],
          "data": "0x",
          "blockHash": "0xfb5d07f0c667bb83bff10efaa436bab54961996abe35444699cba9758375bcf5",
          "blockNumber": "0x916c2a",
          "blockTimestamp": "0x6904bdb0",
          "transactionHash": "0x8270e725dd4d45354f5ccae827d302b823abcfb4900d754917a2a0b5e1a5fe3a",
          "transactionIndex": "0x5a",
          "logIndex": "0x48",
          "removed": false
        }
      ],
      "logsBloom": "0x000000000000000000000000000000000000000010000200000000000200000000000000000000000000000000000000000000000000000000000000000000000000000000000000000000000000000000000000000000000000000000000000000000000000000000000000000000000000000000000000008000000000000000000000000000000000000000000000000000000000000000000000000000040000000000000000000000000000000000000000000000000000000000000000000000c0000000000000000000000080000000008000000000000000000000000000000000000000000000000000000000000000000000000000000000000000",
      "type": "0x0",
      "transactionHash": "0x8270e725dd4d45354f5ccae827d302b823abcfb4900d754917a2a0b5e1a5fe3a",
      "transactionIndex": "0x5a",
      "blockHash": "0xfb5d07f0c667bb83bff10efaa436bab54961996abe35444699cba9758375bcf5",
      "blockNumber": "0x916c2a",
      "gasUsed": "0xb95f",
      "effectiveGasPrice": "0xf424b",
      "from": "0xad9fdad276ab1a430fd03177a07350cd7c61e897",
      "to": "0x8086be0a8aaa0c756c3729c36fcf65850fb00cd1",
      "contractAddress": null
    },
    {
      "status": "0x1",
      "cumulativeGasUsed": "0xedc3c5",
      "logs": [
        {
          "address": "0x8086be0a8aaa0c756c3729c36fcf65850fb00cd1",
          "topics": [
            "0xd464f229795dda56c42369a406dade63ed87a7cc12e4ed0cbd917347cb23285a"
          ],
          "data": "0x0000000000000000000000000000000000000000000000000000000000000001",
          "blockHash": "0xfb5d07f0c667bb83bff10efaa436bab54961996abe35444699cba9758375bcf5",
          "blockNumber": "0x916c2a",
          "blockTimestamp": "0x6904bdb0",
          "transactionHash": "0x3e3ca505176ec0470608312ddcc1623bef2994eb5846cbb5500e608985143c5c",
          "transactionIndex": "0x5b",
          "logIndex": "0x49",
          "removed": false
        }
      ],
      "logsBloom": "0x00002000000000000000000000000000000000000000020000000000020000000000000000000000000000000000000000000000000000000000000000000000000000000000000000000000000000000000000000000000000000000000000000000000000000000000000000000000000000000000000000000000000000000000001000000000000000000000000000000000000000000000000000000004000000000000000000000000000000000000000000000000000000000000000000000000000000000000000000000000000000000000000000000000000000000000001000000000000000000000000000000000000000000000000000000000",
      "type": "0x0",
      "transactionHash": "0x3e3ca505176ec0470608312ddcc1623bef2994eb5846cbb5500e608985143c5c",
      "transactionIndex": "0x5b",
      "blockHash": "0xfb5d07f0c667bb83bff10efaa436bab54961996abe35444699cba9758375bcf5",
      "blockNumber": "0x916c2a",
      "gasUsed": "0x73ac",
      "effectiveGasPrice": "0xf424b",
      "from": "0xad9fdad276ab1a430fd03177a07350cd7c61e897",
      "to": "0x8086be0a8aaa0c756c3729c36fcf65850fb00cd1",
      "contractAddress": null
    },
    {
      "status": "0x1",
      "cumulativeGasUsed": "0xef51d0",
      "logs": [
        {
          "address": "0x5d9116ee207c2bb2f378047aa506366f06d52605",
          "topics": [
            "0xdb916dcd2cdb2972bd841f7aca5eb0597e3ebafd6ff8338eaebe31a6da321e8f",
            "0x0000000000000000000000009ddfaca8183c41ad55329bdeed9f6a8d53168b1b"
          ],
          "data": "0x787d74caea10b2b357790d5b5247c2f63d1d91572a9846f780606e4d953677aec1db20cb0e1a6e08198b382012720b3205c8f3cf28237604ec99e9f37ce770dd0000000000000000000000000000000000000000000000000000000000000003000000000000000000000000000000000000000000000000000000000007a1200000000000000000000000000000000000000000000000000000000000000002",
          "blockHash": "0xfb5d07f0c667bb83bff10efaa436bab54961996abe35444699cba9758375bcf5",
          "blockNumber": "0x916c2a",
          "blockTimestamp": "0x6904bdb0",
          "transactionHash": "0xb3653dc1c58a47bc2a4ee733b764b60bf48f25f9b0100f3a44988325ab88766a",
          "transactionIndex": "0x5c",
          "logIndex": "0x4a",
          "removed": false
        }
      ],
      "logsBloom": "0x00000000000000000000000000000000000000000000000000000000000000000000000000000000000000000000000000000000000000000000000000000000000000000000080000000000000000000000000000000000000000000000000000000000000000000000000000000004000000000000000000000000000000000000000000000000000000000000000000800000000000000000000000000000000000000000000000000000010000000000000000000000000004000000000000000000000000000000000000100000000000002000000000000000000000000010000000000000000000000000000000000200000000000000000000000000",
      "type": "0x0",
      "transactionHash": "0xb3653dc1c58a47bc2a4ee733b764b60bf48f25f9b0100f3a44988325ab88766a",
      "transactionIndex": "0x5c",
      "blockHash": "0xfb5d07f0c667bb83bff10efaa436bab54961996abe35444699cba9758375bcf5",
      "blockNumber": "0x916c2a",
      "gasUsed": "0x18e0b",
      "effectiveGasPrice": "0xf424b",
      "from": "0xad9fdad276ab1a430fd03177a07350cd7c61e897",
      "to": "0x5d9116ee207c2bb2f378047aa506366f06d52605",
      "contractAddress": null
    }
  ],
  "libraries": [],
  "pending": [],
  "returns": {},
  "timestamp": 1761918385006,
  "chain": 11155111,
  "commit": "c03d2ed"
}