{
  "transactions": [
    {
      "hash": "0x0543d521fbac79a12b44d377938970cd5555dc0cf37510ae411bdc2b6e67c58f",
      "transactionType": "CALL",
      "contractName": null,
      "contractAddress": "0x29025680f88f8b98097aed6fa625894f845413dc",
      "function": "setPointsManager(address)",
      "arguments": [
        "0x1D1B77b54E654b943ab5DAD3045d324Ab61492fB"
      ],
      "transaction": {
        "from": "0xad9fdad276ab1a430fd03177a07350cd7c61e897",
        "to": "0x29025680f88f8b98097aed6fa625894f845413dc",
        "gas": "0x120f0",
        "value": "0x0",
        "input": "0xcae42a080000000000000000000000001d1b77b54e654b943ab5dad3045d324ab61492fb",
        "nonce": "0x421",
        "chainId": "0xaa36a7"
      },
      "additionalContracts": [],
      "isFixedGasLimit": false
    },
    {
      "hash": "0xb92c3834f7611e1b4ee7063ddb4a5c2d77390a07117c8430a03650d02b946d64",
      "transactionType": "CALL",
      "contractName": null,
      "contractAddress": "0x29025680f88f8b98097aed6fa625894f845413dc",
      "function": "setPointsAggregator(address)",
      "arguments": [
        "0x4Ab9c68b1988B138F1847Aa59A6A496dF269Df38"
      ],
      "transaction": {
        "from": "0xad9fdad276ab1a430fd03177a07350cd7c61e897",
        "to": "0x29025680f88f8b98097aed6fa625894f845413dc",
        "gas": "0x10bc7",
        "value": "0x0",
        "input": "0x2e51d88c0000000000000000000000004ab9c68b1988b138f1847aa59a6a496df269df38",
        "nonce": "0x422",
        "chainId": "0xaa36a7"
      },
      "additionalContracts": [],
      "isFixedGasLimit": false
    },
    {
      "hash": "0xbc9b59dee5ee6c3fe80134cc58362eca528d207dfde2e44549881add426edf18",
      "transactionType": "CALL",
      "contractName": null,
      "contractAddress": "0x4ab9c68b1988b138f1847aa59a6a496df269df38",
      "function": "setNftContract(address)",
      "arguments": [
        "0x29025680f88f8b98097AeD6fA625894f845413DC"
      ],
      "transaction": {
        "from": "0xad9fdad276ab1a430fd03177a07350cd7c61e897",
        "to": "0x4ab9c68b1988b138f1847aa59a6a496df269df38",
        "gas": "0xabfd",
        "value": "0x0",
        "input": "0x52f5ad7700000000000000000000000029025680f88f8b98097aed6fa625894f845413dc",
        "nonce": "0x423",
        "chainId": "0xaa36a7"
      },
      "additionalContracts": [],
      "isFixedGasLimit": false
    },
    {
      "hash": "0x2c58eafc3804db1314775f7e4f6f2860cc3f575ffdc1af511a1df2ca9aba7c07",
      "transactionType": "CALL",
      "contractName": null,
      "contractAddress": "0x1d1b77b54e654b943ab5dad3045d324ab61492fb",
      "function": "setAggregator(address)",
      "arguments": [
        "0x4Ab9c68b1988B138F1847Aa59A6A496dF269Df38"
      ],
      "transaction": {
        "from": "0xad9fdad276ab1a430fd03177a07350cd7c61e897",
        "to": "0x1d1b77b54e654b943ab5dad3045d324ab61492fb",
        "gas": "0x948c",
        "value": "0x0",
        "input": "0xf9120af60000000000000000000000004ab9c68b1988b138f1847aa59a6a496df269df38",
        "nonce": "0x424",
        "chainId": "0xaa36a7"
      },
      "additionalContracts": [],
      "isFixedGasLimit": false
    },
    {
      "hash": "0x91ecbe68b5c7e4b91950ed52a1a4ed549cb64e786fd24db972c7ff986919295c",
      "transactionType": "CALL",
      "contractName": null,
      "contractAddress": "0x1d1b77b54e654b943ab5dad3045d324ab61492fb",
      "function": "setRevealQueue(address)",
      "arguments": [
        "0x29025680f88f8b98097AeD6fA625894f845413DC"
      ],
      "transaction": {
        "from": "0xad9fdad276ab1a430fd03177a07350cd7c61e897",
        "to": "0x1d1b77b54e654b943ab5dad3045d324ab61492fb",
        "gas": "0xad69",
        "value": "0x0",
        "input": "0xfdc8537100000000000000000000000029025680f88f8b98097aed6fa625894f845413dc",
        "nonce": "0x425",
        "chainId": "0xaa36a7"
      },
      "additionalContracts": [],
      "isFixedGasLimit": false
    },
    {
      "hash": "0xbdf571df9f31951f0a15d3f9aefdba6003c36bab2b9f11c8f3a7662357081f02",
      "transactionType": "CALL",
      "contractName": null,
      "contractAddress": "0x1d1b77b54e654b943ab5dad3045d324ab61492fb",
      "function": "setPermutationZeroIndexed(bool)",
      "arguments": [
        "true"
      ],
      "transaction": {
        "from": "0xad9fdad276ab1a430fd03177a07350cd7c61e897",
        "to": "0x1d1b77b54e654b943ab5dad3045d324ab61492fb",
        "gas": "0x90a9",
        "value": "0x0",
        "input": "0x0367aa2f0000000000000000000000000000000000000000000000000000000000000001",
        "nonce": "0x426",
        "chainId": "0xaa36a7"
      },
      "additionalContracts": [],
      "isFixedGasLimit": false
    },
    {
      "hash": "0x47420364f6037cde004a1bf6bcc143dfb8289d7b917670e24c1660f6df94cc6f",
      "transactionType": "CALL",
      "contractName": null,
      "contractAddress": "0x29025680f88f8b98097aed6fa625894f845413dc",
      "function": "configureVRF(address,bytes32,uint256,uint16,uint32,uint32)",
      "arguments": [
        "0x9DdfaCa8183c41ad55329BdeeD9F6A8d53168B1B",
        "0x787d74caea10b2b357790d5b5247c2f63d1d91572a9846f780606e4d953677ae",
        "87683545613994394530861784894347546345842400721843250695264552850260639576285",
        "3",
        "500000",
        "2"
      ],
      "transaction": {
        "from": "0xad9fdad276ab1a430fd03177a07350cd7c61e897",
        "to": "0x29025680f88f8b98097aed6fa625894f845413dc",
        "gas": "0x24622",
        "value": "0x0",
        "input": "0x13cec91d0000000000000000000000009ddfaca8183c41ad55329bdeed9f6a8d53168b1b787d74caea10b2b357790d5b5247c2f63d1d91572a9846f780606e4d953677aec1db20cb0e1a6e08198b382012720b3205c8f3cf28237604ec99e9f37ce770dd0000000000000000000000000000000000000000000000000000000000000003000000000000000000000000000000000000000000000000000000000007a1200000000000000000000000000000000000000000000000000000000000000002",
        "nonce": "0x427",
        "chainId": "0xaa36a7"
      },
      "additionalContracts": [],
      "isFixedGasLimit": false
    }
  ],
  "receipts": [
    {
      "status": "0x1",
      "cumulativeGasUsed": "0x914429",
      "logs": [
        {
          "address": "0x29025680f88f8b98097aed6fa625894f845413dc",
          "topics": [
            "0x7619eb3b0b2346250e2839a10da35fc58eea3632c6f045e8abffa1864bce2551"
          ],
          "data": "0x0000000000000000000000001d1b77b54e654b943ab5dad3045d324ab61492fb",
          "blockHash": "0xedb0f660d987c850e7a065771ee519b132f0528b40ff54814dc8d35423bfbf48",
          "blockNumber": "0x91ad9c",
          "blockTimestamp": "0x6907d04c",
          "transactionHash": "0x0543d521fbac79a12b44d377938970cd5555dc0cf37510ae411bdc2b6e67c58f",
          "transactionIndex": "0x33",
          "logIndex": "0x2b",
          "removed": false
        }
      ],
      "logsBloom": "0x00000000000000000000000000000000000000000000000000000000000000000000000000000000000000000000000000000000000000000000000000000000000000000000000000000000000000004000000000000000000000800000000000000000000000000000000000000000000000000000000000000000000000000000000000000000000000000000000000000000000000000000000800000000000000000000000000000000000000000000000000000001001000100000000000000000000000000000000000000000000000000000000000000000000000000000000000000000000000000000000000000000000000000000000000000000",
      "type": "0x0",
      "transactionHash": "0x0543d521fbac79a12b44d377938970cd5555dc0cf37510ae411bdc2b6e67c58f",
      "transactionIndex": "0x33",
      "blockHash": "0xedb0f660d987c850e7a065771ee519b132f0528b40ff54814dc8d35423bfbf48",
      "blockNumber": "0x91ad9c",
      "gasUsed": "0xc591",
      "effectiveGasPrice": "0xf4248",
      "from": "0xad9fdad276ab1a430fd03177a07350cd7c61e897",
      "to": "0x29025680f88f8b98097aed6fa625894f845413dc",
      "contractAddress": null
    },
    {
      "status": "0x1",
      "cumulativeGasUsed": "0x920608",
      "logs": [
        {
          "address": "0x29025680f88f8b98097aed6fa625894f845413dc",
          "topics": [
            "0xce5202ecc8b8799ee1618adf9acec1ce2a28f52077ffc9bcdcf6c794f9e0c37a"
          ],
          "data": "0x0000000000000000000000004ab9c68b1988b138f1847aa59a6a496df269df38",
          "blockHash": "0xedb0f660d987c850e7a065771ee519b132f0528b40ff54814dc8d35423bfbf48",
          "blockNumber": "0x91ad9c",
          "blockTimestamp": "0x6907d04c",
          "transactionHash": "0xb92c3834f7611e1b4ee7063ddb4a5c2d77390a07117c8430a03650d02b946d64",
          "transactionIndex": "0x34",
          "logIndex": "0x2c",
          "removed": false
        }
      ],
      "logsBloom": "0x00000000000000000000000000000000000000000000000000000000000000000000000000000000002000000000000000000000000000000000000000000000000000400000000000000000000000000000000000000000000000000000000000000000000000000000000000000000000000000000000000000000000000000000000000000000000000000000000000000000000000000000000000000000000000000000000000000000000000000000000000000001001000100000000000000000000000000000000000000000000000000000000000000000000000000000000000000000000000000000000000000000000008000000000000000000",
      "type": "0x0",
      "transactionHash": "0xb92c3834f7611e1b4ee7063ddb4a5c2d77390a07117c8430a03650d02b946d64",
      "transactionIndex": "0x34",
      "blockHash": "0xedb0f660d987c850e7a065771ee519b132f0528b40ff54814dc8d35423bfbf48",
      "blockNumber": "0x91ad9c",
      "gasUsed": "0xc1df",
      "effectiveGasPrice": "0xf4248",
      "from": "0xad9fdad276ab1a430fd03177a07350cd7c61e897",
      "to": "0x29025680f88f8b98097aed6fa625894f845413dc",
      "contractAddress": null
    },
    {
      "status": "0x1",
      "cumulativeGasUsed": "0x927ba2",
      "logs": [
        {
          "address": "0x4ab9c68b1988b138f1847aa59a6a496df269df38",
          "topics": [
            "0xa27bdd7b0c9c795c64307abe4a8b21d993ec4bd2601c38dfaee5cfc991375ae8",
            "0x00000000000000000000000029025680f88f8b98097aed6fa625894f845413dc"
          ],
          "data": "0x",
          "blockHash": "0xedb0f660d987c850e7a065771ee519b132f0528b40ff54814dc8d35423bfbf48",
          "blockNumber": "0x91ad9c",
          "blockTimestamp": "0x6907d04c",
          "transactionHash": "0xbc9b59dee5ee6c3fe80134cc58362eca528d207dfde2e44549881add426edf18",
          "transactionIndex": "0x35",
          "logIndex": "0x2d",
          "removed": false
        }
      ],
      "logsBloom": "0x00000000000001000000000080000000000000000000000000000000000000000000000000000000000000000000000000000000000000000000000000000000000000000000000000000000000000000000000000000000000000000000000000000000000000000000000000000000000000000000000000000000000000000000000000000000000000000000000000000000000000000000000000000100000000000000000001000000000000000000000000000020000000000000000000000000100000000000000000000000010000000000000000000000000000000000000000000000000000000000000000000000000080000000000000000002",
      "type": "0x0",
      "transactionHash": "0xbc9b59dee5ee6c3fe80134cc58362eca528d207dfde2e44549881add426edf18",
      "transactionIndex": "0x35",
      "blockHash": "0xedb0f660d987c850e7a065771ee519b132f0528b40ff54814dc8d35423bfbf48",
      "blockNumber": "0x91ad9c",
      "gasUsed": "0x759a",
      "effectiveGasPrice": "0xf4248",
      "from": "0xad9fdad276ab1a430fd03177a07350cd7c61e897",
      "to": "0x4ab9c68b1988b138f1847aa59a6a496df269df38",
      "contractAddress": null
    },
    {
      "status": "0x1",
      "cumulativeGasUsed": "0x92e72f",
      "logs": [
        {
          "address": "0x1d1b77b54e654b943ab5dad3045d324ab61492fb",
          "topics": [
            "0x602cec4b1583b07d071161da5eb9589444d2459201e2fab7753dc941e9351c21",
            "0x0000000000000000000000004ab9c68b1988b138f1847aa59a6a496df269df38"
          ],
          "data": "0x",
          "blockHash": "0xedb0f660d987c850e7a065771ee519b132f0528b40ff54814dc8d35423bfbf48",
          "blockNumber": "0x91ad9c",
          "blockTimestamp": "0x6907d04c",
          "transactionHash": "0x2c58eafc3804db1314775f7e4f6f2860cc3f575ffdc1af511a1df2ca9aba7c07",
          "transactionIndex": "0x36",
          "logIndex": "0x2e",
          "removed": false
        }
      ],
      "logsBloom": "0x00000000000000000000000000000000000000000000000000000000000000000000000000000000000000000000000000000000000000000010100000000000000010000000000000000000000000000000000000000000000000000000000000000020000000000000000000000000000000000000000000000000000000000000000000000000000000000000000000000000000000000000000000000000000000002000000000000000000000000000000000000000000000000000000000000000000000000000000000000000000000000000000000000080000000000000000000002000000000000000080000000000000000000000000100000000",
      "type": "0x0",
      "transactionHash": "0x2c58eafc3804db1314775f7e4f6f2860cc3f575ffdc1af511a1df2ca9aba7c07",
      "transactionIndex": "0x36",
      "blockHash": "0xedb0f660d987c850e7a065771ee519b132f0528b40ff54814dc8d35423bfbf48",
      "blockNumber": "0x91ad9c",
      "gasUsed": "0x6b8d",
      "effectiveGasPrice": "0xf4248",
      "from": "0xad9fdad276ab1a430fd03177a07350cd7c61e897",
      "to": "0x1d1b77b54e654b943ab5dad3045d324ab61492fb",
      "contractAddress": null
    },
    {
      "status": "0x1",
      "cumulativeGasUsed": "0x935dc2",
      "logs": [
        {
          "address": "0x1d1b77b54e654b943ab5dad3045d324ab61492fb",
          "topics": [
            "0x23a1b510439be15b459a731ae3d1d5a6eac00dcd9433c69442716b282d888ac4",
            "0x00000000000000000000000029025680f88f8b98097aed6fa625894f845413dc"
          ],
          "data": "0x",
          "blockHash": "0xedb0f660d987c850e7a065771ee519b132f0528b40ff54814dc8d35423bfbf48",
          "blockNumber": "0x91ad9c",
          "blockTimestamp": "0x6907d04c",
          "transactionHash": "0x91ecbe68b5c7e4b91950ed52a1a4ed549cb64e786fd24db972c7ff986919295c",
          "transactionIndex": "0x37",
          "logIndex": "0x2f",
          "removed": false
        }
      ],
      "logsBloom": "0x00000000000001000000000080000000000000000000000000000000000000000000000000000000000000000000000000000000000000000000000000000000000010000000000000000000000000000000000000000000000000000000000000000000000000000000000000000000000000000000000000800000000000000000000000000000000000000000000000000000000000000000000000000000000000000000000000000000000000000000000000000000000000000000000000000080000000000000000000000000010000008000000000000080000000000000000000000000000000000000080000000000000000000000000000000000",
      "type": "0x0",
      "transactionHash": "0x91ecbe68b5c7e4b91950ed52a1a4ed549cb64e786fd24db972c7ff986919295c",
      "transactionIndex": "0x37",
      "blockHash": "0xedb0f660d987c850e7a065771ee519b132f0528b40ff54814dc8d35423bfbf48",
      "blockNumber": "0x91ad9c",
      "gasUsed": "0x7693",
      "effectiveGasPrice": "0xf4248",
      "from": "0xad9fdad276ab1a430fd03177a07350cd7c61e897",
      "to": "0x1d1b77b54e654b943ab5dad3045d324ab61492fb",
      "contractAddress": null
    },
    {
      "status": "0x1",
      "cumulativeGasUsed": "0x93c67e",
      "logs": [
        {
          "address": "0x1d1b77b54e654b943ab5dad3045d324ab61492fb",
          "topics": [
            "0xd464f229795dda56c42369a406dade63ed87a7cc12e4ed0cbd917347cb23285a"
          ],
          "data": "0x0000000000000000000000000000000000000000000000000000000000000001",
          "blockHash": "0xedb0f660d987c850e7a065771ee519b132f0528b40ff54814dc8d35423bfbf48",
          "blockNumber": "0x91ad9c",
          "blockTimestamp": "0x6907d04c",
          "transactionHash": "0xbdf571df9f31951f0a15d3f9aefdba6003c36bab2b9f11c8f3a7662357081f02",
          "transactionIndex": "0x38",
          "logIndex": "0x30",
          "removed": false
        }
      ],
      "logsBloom": "0x00002000000000000000000000000000000000000000000000000000000000000000000000000000000000000000000000000000000000000000000000000000000010000000000000000000000000000000000000000000000000000000000000000000000000000000000000000000000000000000000000000000000000000000001000000000000000000000000000000000000000000000000000000000000000000000000000000000000000000000000000000000000000000000000000000000000000000000000000000000000000000000000000000080000000000000001000000000000000000000080000000000000000000000000000000000",
      "type": "0x0",
      "transactionHash": "0xbdf571df9f31951f0a15d3f9aefdba6003c36bab2b9f11c8f3a7662357081f02",
      "transactionIndex": "0x38",
      "blockHash": "0xedb0f660d987c850e7a065771ee519b132f0528b40ff54814dc8d35423bfbf48",
      "blockNumber": "0x91ad9c",
      "gasUsed": "0x68bc",
      "effectiveGasPrice": "0xf4248",
      "from": "0xad9fdad276ab1a430fd03177a07350cd7c61e897",
      "to": "0x1d1b77b54e654b943ab5dad3045d324ab61492fb",
      "contractAddress": null
    },
    {
      "status": "0x1",
      "cumulativeGasUsed": "0x955489",
      "logs": [
        {
          "address": "0x29025680f88f8b98097aed6fa625894f845413dc",
          "topics": [
            "0xdb916dcd2cdb2972bd841f7aca5eb0597e3ebafd6ff8338eaebe31a6da321e8f",
            "0x0000000000000000000000009ddfaca8183c41ad55329bdeed9f6a8d53168b1b"
          ],
          "data": "0x787d74caea10b2b357790d5b5247c2f63d1d91572a9846f780606e4d953677aec1db20cb0e1a6e08198b382012720b3205c8f3cf28237604ec99e9f37ce770dd0000000000000000000000000000000000000000000000000000000000000003000000000000000000000000000000000000000000000000000000000007a1200000000000000000000000000000000000000000000000000000000000000002",
          "blockHash": "0xedb0f660d987c850e7a065771ee519b132f0528b40ff54814dc8d35423bfbf48",
          "blockNumber": "0x91ad9c",
          "blockTimestamp": "0x6907d04c",
          "transactionHash": "0x47420364f6037cde004a1bf6bcc143dfb8289d7b917670e24c1660f6df94cc6f",
          "transactionIndex": "0x39",
          "logIndex": "0x31",
          "removed": false
        }
      ],
      "logsBloom": "0x00000000000000000000000000000000000000000000000000000000000000000000000000000000000000000000000000000000000000000000000000000000000000000000000000000000000000000000000000000000000000000000000000000000000000000000000000000004000000000000000000000000000000000000000000000000000000000000000000000000000000000000000000000000000000000000000000000000010000000000000000000001001004100000000000000000000000000000000000000000000000002000000000000000000000000010000000000000000000000000000000000200000000000000000000000000",
      "type": "0x0",
      "transactionHash": "0x47420364f6037cde004a1bf6bcc143dfb8289d7b917670e24c1660f6df94cc6f",
      "transactionIndex": "0x39",
      "blockHash": "0xedb0f660d987c850e7a065771ee519b132f0528b40ff54814dc8d35423bfbf48",
      "blockNumber": "0x91ad9c",
      "gasUsed": "0x18e0b",
      "effectiveGasPrice": "0xf4248",
      "from": "0xad9fdad276ab1a430fd03177a07350cd7c61e897",
      "to": "0x29025680f88f8b98097aed6fa625894f845413dc",
      "contractAddress": null
    }
  ],
  "libraries": [],
  "pending": [],
  "returns": {},
  "timestamp": 1762119757657,
  "chain": 11155111,
  "commit": "c03d2ed"
}