{
  "transactions": [
    {
      "hash": "0xe957ab9384fdaea1880b384fb04140ff23f0953b53e9d1d14f2bee2b8b6406da",
      "transactionType": "CALL",
      "contractName": "EveryTwoMillionBlocks",
      "contractAddress": "0xa27e1385cfcc5bd6ff25d005d8fb10239502f4bc",
      "function": "setPointsManager(address)",
      "arguments": [
        "0xfa026570D389E23b742723172781585814347f85"
      ],
      "transaction": {
        "from": "0xad9fdad276ab1a430fd03177a07350cd7c61e897",
        "to": "0xa27e1385cfcc5bd6ff25d005d8fb10239502f4bc",
        "gas": "0xbeff",
        "value": "0x0",
        "input": "0xcae42a08000000000000000000000000fa026570d389e23b742723172781585814347f85",
        "nonce": "0x2c0",
        "chainId": "0xaa36a7"
      },
      "additionalContracts": [],
      "isFixedGasLimit": false
    },
    {
      "hash": "0x19583052d796fee4dfdf1b944087d818e5cf28dd33eba03cda62a3a26ed93c3e",
      "transactionType": "CALL",
      "contractName": "EveryTwoMillionBlocks",
      "contractAddress": "0xa27e1385cfcc5bd6ff25d005d8fb10239502f4bc",
      "function": "setPointsAggregator(address)",
      "arguments": [
        "0xE954b8C8cADe672540D574b034B47863c1F81545"
      ],
      "transaction": {
        "from": "0xad9fdad276ab1a430fd03177a07350cd7c61e897",
        "to": "0xa27e1385cfcc5bd6ff25d005d8fb10239502f4bc",
        "gas": "0xa9d9",
        "value": "0x0",
        "input": "0x2e51d88c000000000000000000000000e954b8c8cade672540d574b034b47863c1f81545",
        "nonce": "0x2c1",
        "chainId": "0xaa36a7"
      },
      "additionalContracts": [],
      "isFixedGasLimit": false
    },
    {
      "hash": "0x847cbbf33e4862c9e94f929a2c80b460ecccb39f8d98260c65c1030ef4d8c415",
      "transactionType": "CALL",
      "contractName": "PointsAggregator",
      "contractAddress": "0xe954b8c8cade672540d574b034b47863c1f81545",
      "function": "setNftContract(address)",
      "arguments": [
        "0xA27E1385cfCc5bd6Ff25D005D8fb10239502f4bc"
      ],
      "transaction": {
        "from": "0xad9fdad276ab1a430fd03177a07350cd7c61e897",
        "to": "0xe954b8c8cade672540d574b034b47863c1f81545",
        "gas": "0x9b73",
        "value": "0x0",
        "input": "0x52f5ad77000000000000000000000000a27e1385cfcc5bd6ff25d005d8fb10239502f4bc",
        "nonce": "0x2c2",
        "chainId": "0xaa36a7"
      },
      "additionalContracts": [],
      "isFixedGasLimit": false
    },
    {
      "hash": "0xff10bc8cd190813de7dac5554cdaa5a824de963cb483bddf5877314dc85d92b9",
      "transactionType": "CALL",
      "contractName": "PointsManager",
      "contractAddress": "0xfa026570d389e23b742723172781585814347f85",
      "function": "setAggregator(address)",
      "arguments": [
        "0xE954b8C8cADe672540D574b034B47863c1F81545"
      ],
      "transaction": {
        "from": "0xad9fdad276ab1a430fd03177a07350cd7c61e897",
        "to": "0xfa026570d389e23b742723172781585814347f85",
        "gas": "0x948c",
        "value": "0x0",
        "input": "0xf9120af6000000000000000000000000e954b8c8cade672540d574b034b47863c1f81545",
        "nonce": "0x2c3",
        "chainId": "0xaa36a7"
      },
      "additionalContracts": [],
      "isFixedGasLimit": false
    },
    {
      "hash": "0xbe16d99100bb2a5721f4d778b7dce49a33755fa65a03e4e8f7e6c929a0745ba2",
      "transactionType": "CALL",
      "contractName": "PointsManager",
      "contractAddress": "0xfa026570d389e23b742723172781585814347f85",
      "function": "setRevealQueue(address)",
      "arguments": [
        "0xA27E1385cfCc5bd6Ff25D005D8fb10239502f4bc"
      ],
      "transaction": {
        "from": "0xad9fdad276ab1a430fd03177a07350cd7c61e897",
        "to": "0xfa026570d389e23b742723172781585814347f85",
        "gas": "0x9d6a",
        "value": "0x0",
        "input": "0xfdc85371000000000000000000000000a27e1385cfcc5bd6ff25d005d8fb10239502f4bc",
        "nonce": "0x2c4",
        "chainId": "0xaa36a7"
      },
      "additionalContracts": [],
      "isFixedGasLimit": false
    },
    {
      "hash": "0x92e0288820db1079b72a3cbf3340948fa4d35fa1614869c51e31ef763d876586",
      "transactionType": "CALL",
      "contractName": "PointsManager",
      "contractAddress": "0xfa026570d389e23b742723172781585814347f85",
      "function": "setPermutationZeroIndexed(bool)",
      "arguments": [
        "true"
      ],
      "transaction": {
        "from": "0xad9fdad276ab1a430fd03177a07350cd7c61e897",
        "to": "0xfa026570d389e23b742723172781585814347f85",
        "gas": "0x90a9",
        "value": "0x0",
        "input": "0x0367aa2f0000000000000000000000000000000000000000000000000000000000000001",
        "nonce": "0x2c5",
        "chainId": "0xaa36a7"
      },
      "additionalContracts": [],
      "isFixedGasLimit": false
    },
    {
      "hash": "0x782cdbeabee1beb72cbd8dd359434d6c5ed640677008fce08f6bf53632633977",
      "transactionType": "CALL",
      "contractName": "EveryTwoMillionBlocks",
      "contractAddress": "0xa27e1385cfcc5bd6ff25d005d8fb10239502f4bc",
      "function": "configureVRF(address,bytes32,uint256,uint16,uint32,uint32)",
      "arguments": [
        "0x9DdfaCa8183c41ad55329BdeeD9F6A8d53168B1B",
        "0x787d74caea10b2b357790d5b5247c2f63d1d91572a9846f780606e4d953677ae",
        "87683545613994394530861784894347546345842400721843250695264552850260639576285",
        "3",
        "500000",
        "2"
      ],
      "transaction": {
        "from": "0xad9fdad276ab1a430fd03177a07350cd7c61e897",
        "to": "0xa27e1385cfcc5bd6ff25d005d8fb10239502f4bc",
        "gas": "0xd4ff",
        "value": "0x0",
        "input": "0x13cec91d0000000000000000000000009ddfaca8183c41ad55329bdeed9f6a8d53168b1b787d74caea10b2b357790d5b5247c2f63d1d91572a9846f780606e4d953677aec1db20cb0e1a6e08198b382012720b3205c8f3cf28237604ec99e9f37ce770dd0000000000000000000000000000000000000000000000000000000000000003000000000000000000000000000000000000000000000000000000000007a1200000000000000000000000000000000000000000000000000000000000000002",
        "nonce": "0x2c6",
        "chainId": "0xaa36a7"
      },
      "additionalContracts": [],
      "isFixedGasLimit": false
    }
  ],
  "receipts": [
    {
      "status": "0x1",
      "cumulativeGasUsed": "0x44ea4c",
      "logs": [
        {
          "address": "0xa27e1385cfcc5bd6ff25d005d8fb10239502f4bc",
          "topics": [
            "0x7619eb3b0b2346250e2839a10da35fc58eea3632c6f045e8abffa1864bce2551"
          ],
          "data": "0x000000000000000000000000fa026570d389e23b742723172781585814347f85",
          "blockHash": "0x32c32e975031b5bd8780e3bdec955b586cb0fe122e6b0913f462e35b9f72e55f",
          "blockNumber": "0x9159f4",
          "blockTimestamp": "0x6903e310",
          "transactionHash": "0xe957ab9384fdaea1880b384fb04140ff23f0953b53e9d1d14f2bee2b8b6406da",
          "transactionIndex": "0x30",
          "logIndex": "0x2b",
          "removed": false
        }
      ],
      "logsBloom": "0x00000000000000000000000000000000000000000001000000000000000000000000000000000000000000000000000000000000000000000000000000000000000000000000000000000000000000004000000000000000000000800000000000000000000000000000000000000000000000000000000000000000000000000000000000000000000000000000000000000000000000000000000800000000000000000000000000000000000000000000000000000000000000000000000000000000000000000000000000000000000000000000000000000400000000000000000000000000000000000000000000000000000000000000000000000200",
      "type": "0x0",
      "transactionHash": "0xe957ab9384fdaea1880b384fb04140ff23f0953b53e9d1d14f2bee2b8b6406da",
      "transactionIndex": "0x30",
      "blockHash": "0x32c32e975031b5bd8780e3bdec955b586cb0fe122e6b0913f462e35b9f72e55f",
      "blockNumber": "0x9159f4",
      "gasUsed": "0x8299",
      "effectiveGasPrice": "0xf4248",
      "from": "0xad9fdad276ab1a430fd03177a07350cd7c61e897",
      "to": "0xa27e1385cfcc5bd6ff25d005d8fb10239502f4bc",
      "contractAddress": null
    },
    {
      "status": "0x1",
      "cumulativeGasUsed": "0x455e6f",
      "logs": [
        {
          "address": "0xa27e1385cfcc5bd6ff25d005d8fb10239502f4bc",
          "topics": [
            "0xce5202ecc8b8799ee1618adf9acec1ce2a28f52077ffc9bcdcf6c794f9e0c37a"
          ],
          "data": "0x000000000000000000000000e954b8c8cade672540d574b034b47863c1f81545",
          "blockHash": "0x32c32e975031b5bd8780e3bdec955b586cb0fe122e6b0913f462e35b9f72e55f",
          "blockNumber": "0x9159f4",
          "blockTimestamp": "0x6903e310",
          "transactionHash": "0x19583052d796fee4dfdf1b944087d818e5cf28dd33eba03cda62a3a26ed93c3e",
          "transactionIndex": "0x31",
          "logIndex": "0x2c",
          "removed": false
        }
      ],
      "logsBloom": "0x00000000000000000000000000000000000000000001000000000000000000000000000000000000002000000000000000000000000000000000000000000000000000400000000000000000000000000000000000000000000000000000000000000000000000000000000000000000000000000000000000000000000000000000000000000000000000000000000000000000000000000000000000000000000000000000000000000000000000000000000000000000000000000000000000000000000000000000000000000000000000000000000000000400000000000000000000000000000000000000000000000000000008000000000000000200",
      "type": "0x0",
      "transactionHash": "0x19583052d796fee4dfdf1b944087d818e5cf28dd33eba03cda62a3a26ed93c3e",
      "transactionIndex": "0x31",
      "blockHash": "0x32c32e975031b5bd8780e3bdec955b586cb0fe122e6b0913f462e35b9f72e55f",
      "blockNumber": "0x9159f4",
      "gasUsed": "0x7423",
      "effectiveGasPrice": "0xf4248",
      "from": "0xad9fdad276ab1a430fd03177a07350cd7c61e897",
      "to": "0xa27e1385cfcc5bd6ff25d005d8fb10239502f4bc",
      "contractAddress": null
    },
    {
      "status": "0x1",
      "cumulativeGasUsed": "0x45c8ba",
      "logs": [
        {
          "address": "0xe954b8c8cade672540d574b034b47863c1f81545",
          "topics": [
            "0xa27bdd7b0c9c795c64307abe4a8b21d993ec4bd2601c38dfaee5cfc991375ae8",
            "0x000000000000000000000000a27e1385cfcc5bd6ff25d005d8fb10239502f4bc"
          ],
          "data": "0x",
          "blockHash": "0x32c32e975031b5bd8780e3bdec955b586cb0fe122e6b0913f462e35b9f72e55f",
          "blockNumber": "0x9159f4",
          "blockTimestamp": "0x6903e310",
          "transactionHash": "0x847cbbf33e4862c9e94f929a2c80b460ecccb39f8d98260c65c1030ef4d8c415",
          "transactionIndex": "0x32",
          "logIndex": "0x2d",
          "removed": false
        }
      ],
      "logsBloom": "0x00000000000000000010000000000000000000000000000000040000000000000000000000000000000000000000000000000000000000000000000000000000000000000000000000000000000000000000000000000440000000000000000000000000000000000000000000000000000000000000000000000000000000000000000000000000000000000000000000000000000200000000000000000100000000000000000000000000000000000000000000000000000000000000000000000000100000000000000000000000000000000000000000000000000000800000000000000000000000000000000000000000000000000000000000000002",
      "type": "0x0",
      "transactionHash": "0x847cbbf33e4862c9e94f929a2c80b460ecccb39f8d98260c65c1030ef4d8c415",
      "transactionIndex": "0x32",
      "blockHash": "0x32c32e975031b5bd8780e3bdec955b586cb0fe122e6b0913f462e35b9f72e55f",
      "blockNumber": "0x9159f4",
      "gasUsed": "0x6a4b",
      "effectiveGasPrice": "0xf4248",
      "from": "0xad9fdad276ab1a430fd03177a07350cd7c61e897",
      "to": "0xe954b8c8cade672540d574b034b47863c1f81545",
      "contractAddress": null
    },
    {
      "status": "0x1",
      "cumulativeGasUsed": "0x463447",
      "logs": [
        {
          "address": "0xfa026570d389e23b742723172781585814347f85",
          "topics": [
            "0x602cec4b1583b07d071161da5eb9589444d2459201e2fab7753dc941e9351c21",
            "0x000000000000000000000000e954b8c8cade672540d574b034b47863c1f81545"
          ],
          "data": "0x",
          "blockHash": "0x32c32e975031b5bd8780e3bdec955b586cb0fe122e6b0913f462e35b9f72e55f",
          "blockNumber": "0x9159f4",
          "blockTimestamp": "0x6903e310",
          "transactionHash": "0xff10bc8cd190813de7dac5554cdaa5a824de963cb483bddf5877314dc85d92b9",
          "transactionIndex": "0x33",
          "logIndex": "0x2e",
          "removed": false
        }
      ],
      "logsBloom": "0x40000000000000000000000000000000000000000040004000000000000001000000000000000000000000000000000000000000000000000000100000000000000000000000000000000000000000000000000000000000000000000000000000000020000000000000000000000000000000000000000000000000000000000000000000000000000000000000000040000000000000000000000000000000000000000000000000000000000000000000000000000000000000000000000000000000000000000000000000000000000000000000000000000000000000000000000000002000000000000000000000000000000000000000000000000020",
      "type": "0x0",
      "transactionHash": "0xff10bc8cd190813de7dac5554cdaa5a824de963cb483bddf5877314dc85d92b9",
      "transactionIndex": "0x33",
      "blockHash": "0x32c32e975031b5bd8780e3bdec955b586cb0fe122e6b0913f462e35b9f72e55f",
      "blockNumber": "0x9159f4",
      "gasUsed": "0x6b8d",
      "effectiveGasPrice": "0xf4248",
      "from": "0xad9fdad276ab1a430fd03177a07350cd7c61e897",
      "to": "0xfa026570d389e23b742723172781585814347f85",
      "contractAddress": null
    },
    {
      "status": "0x1",
      "cumulativeGasUsed": "0x469fea",
      "logs": [
        {
          "address": "0xfa026570d389e23b742723172781585814347f85",
          "topics": [
            "0x23a1b510439be15b459a731ae3d1d5a6eac00dcd9433c69442716b282d888ac4",
            "0x000000000000000000000000a27e1385cfcc5bd6ff25d005d8fb10239502f4bc"
          ],
          "data": "0x",
          "blockHash": "0x32c32e975031b5bd8780e3bdec955b586cb0fe122e6b0913f462e35b9f72e55f",
          "blockNumber": "0x9159f4",
          "blockTimestamp": "0x6903e310",
          "transactionHash": "0xbe16d99100bb2a5721f4d778b7dce49a33755fa65a03e4e8f7e6c929a0745ba2",
          "transactionIndex": "0x34",
          "logIndex": "0x2f",
          "removed": false
        }
      ],
      "logsBloom": "0x00000000000000000010000000000000000000000040004000000000000000000000000000000000000000000000000000000000000000000000000000000000000000000000000000000000000000000000000000000000000000000000000000000000000000000000000000000000000000000000000000800000000000000000000000000000000000000000000000000000000200000000000000000000000000000000000000000000000000000000000000000000000000000000000000000080000000000000000000000000000000008000000000000000000000800000000000000000000000000000000000000000000000000000000000000020",
      "type": "0x0",
      "transactionHash": "0xbe16d99100bb2a5721f4d778b7dce49a33755fa65a03e4e8f7e6c929a0745ba2",
      "transactionIndex": "0x34",
      "blockHash": "0x32c32e975031b5bd8780e3bdec955b586cb0fe122e6b0913f462e35b9f72e55f",
      "blockNumber": "0x9159f4",
      "gasUsed": "0x6ba3",
      "effectiveGasPrice": "0xf4248",
      "from": "0xad9fdad276ab1a430fd03177a07350cd7c61e897",
      "to": "0xfa026570d389e23b742723172781585814347f85",
      "contractAddress": null
    },
    {
      "status": "0x1",
      "cumulativeGasUsed": "0x4708a6",
      "logs": [
        {
          "address": "0xfa026570d389e23b742723172781585814347f85",
          "topics": [
            "0xd464f229795dda56c42369a406dade63ed87a7cc12e4ed0cbd917347cb23285a"
          ],
          "data": "0x0000000000000000000000000000000000000000000000000000000000000001",
          "blockHash": "0x32c32e975031b5bd8780e3bdec955b586cb0fe122e6b0913f462e35b9f72e55f",
          "blockNumber": "0x9159f4",
          "blockTimestamp": "0x6903e310",
          "transactionHash": "0x92e0288820db1079b72a3cbf3340948fa4d35fa1614869c51e31ef763d876586",
          "transactionIndex": "0x35",
          "logIndex": "0x30",
          "removed": false
        }
      ],
      "logsBloom": "0x00002000000000000000000000000000000000000040004000000000000000000000000000000000000000000000000000000000000000000000000000000000000000000000000000000000000000000000000000000000000000000000000000000000000000000000000000000000000000000000000000000000000000000000001000000000000000000000000000000000000000000000000000000000000000000000000000000000000000000000000000000000000000000000000000000000000000000000000000000000000000000000000000000000000000000000001000000000000000000000000000000000000000000000000000000020",
      "type": "0x0",
      "transactionHash": "0x92e0288820db1079b72a3cbf3340948fa4d35fa1614869c51e31ef763d876586",
      "transactionIndex": "0x35",
      "blockHash": "0x32c32e975031b5bd8780e3bdec955b586cb0fe122e6b0913f462e35b9f72e55f",
      "blockNumber": "0x9159f4",
      "gasUsed": "0x68bc",
      "effectiveGasPrice": "0xf4248",
      "from": "0xad9fdad276ab1a430fd03177a07350cd7c61e897",
      "to": "0xfa026570d389e23b742723172781585814347f85",
      "contractAddress": null
    },
    {
      "status": "0x1",
      "cumulativeGasUsed": "0x47a2db",
      "logs": [
        {
          "address": "0xa27e1385cfcc5bd6ff25d005d8fb10239502f4bc",
          "topics": [
            "0xdb916dcd2cdb2972bd841f7aca5eb0597e3ebafd6ff8338eaebe31a6da321e8f",
            "0x0000000000000000000000009ddfaca8183c41ad55329bdeed9f6a8d53168b1b"
          ],
          "data": "0x787d74caea10b2b357790d5b5247c2f63d1d91572a9846f780606e4d953677aec1db20cb0e1a6e08198b382012720b3205c8f3cf28237604ec99e9f37ce770dd0000000000000000000000000000000000000000000000000000000000000003000000000000000000000000000000000000000000000000000000000007a1200000000000000000000000000000000000000000000000000000000000000002",
          "blockHash": "0x32c32e975031b5bd8780e3bdec955b586cb0fe122e6b0913f462e35b9f72e55f",
          "blockNumber": "0x9159f4",
          "blockTimestamp": "0x6903e310",
          "transactionHash": "0x782cdbeabee1beb72cbd8dd359434d6c5ed640677008fce08f6bf53632633977",
          "transactionIndex": "0x36",
          "logIndex": "0x31",
          "removed": false
        }
      ],
      "logsBloom": "0x00000000000000000000000000000000000000000001000000000000000000000000000000000000000000000000000000000000000000000000000000000000000000000000000000000000000000000000000000000000000000000000000000000000000000000000000000000004000000000000000000000000000000000000000000000000000000000000000000000000000000000000000000000000000000000000000000000000010000000000000000000000000004000000000000000000000000000000000000000000000000002000000000000400000000000010000000000000000000000000000000000200000000000000000000000200",
      "type": "0x0",
      "transactionHash": "0x782cdbeabee1beb72cbd8dd359434d6c5ed640677008fce08f6bf53632633977",
      "transactionIndex": "0x36",
      "blockHash": "0x32c32e975031b5bd8780e3bdec955b586cb0fe122e6b0913f462e35b9f72e55f",
      "blockNumber": "0x9159f4",
      "gasUsed": "0x9a35",
      "effectiveGasPrice": "0xf4248",
      "from": "0xad9fdad276ab1a430fd03177a07350cd7c61e897",
      "to": "0xa27e1385cfcc5bd6ff25d005d8fb10239502f4bc",
      "contractAddress": null
    }
  ],
  "libraries": [],
  "pending": [],
  "returns": {},
  "timestamp": 1761862417012,
  "chain": 11155111,
  "commit": "c03d2ed"
}