{
  "transactions": [
    {
      "hash": "0xe9bdaf46e1729004dbde5e54d08150a463ddd7cee33b8ef2f31a9b9c4b46272a",
      "transactionType": "CALL",
      "contractName": null,
      "contractAddress": "0xb327190afbc357c4408fb38b2bc91be793f1659c",
      "function": "setPointsManager(address)",
      "arguments": [
        "0x1D1B77b54E654b943ab5DAD3045d324Ab61492fB"
      ],
      "transaction": {
        "from": "0xad9fdad276ab1a430fd03177a07350cd7c61e897",
        "to": "0xb327190afbc357c4408fb38b2bc91be793f1659c",
        "gas": "0xa584",
        "value": "0x0",
        "input": "0xcae42a080000000000000000000000001d1b77b54e654b943ab5dad3045d324ab61492fb",
        "nonce": "0x309",
        "chainId": "0xaa36a7"
      },
      "additionalContracts": [],
      "isFixedGasLimit": false
    },
    {
      "hash": "0x449a754737dd08a4b2d254fa813d978ed36fd70ab4ebe2d91c037c7a86e67d4c",
      "transactionType": "CALL",
      "contractName": null,
      "contractAddress": "0xb327190afbc357c4408fb38b2bc91be793f1659c",
      "function": "setPointsAggregator(address)",
      "arguments": [
        "0xcbDD195166e42980F6541214371B4bD2ba6CB1D5"
      ],
      "transaction": {
        "from": "0xad9fdad276ab1a430fd03177a07350cd7c61e897",
        "to": "0xb327190afbc357c4408fb38b2bc91be793f1659c",
        "gas": "0xa9d9",
        "value": "0x0",
        "input": "0x2e51d88c000000000000000000000000cbdd195166e42980f6541214371b4bd2ba6cb1d5",
        "nonce": "0x30a",
        "chainId": "0xaa36a7"
      },
      "additionalContracts": [],
      "isFixedGasLimit": false
    },
    {
      "hash": "0x444c0cec480a60c5a30ad50d00e6f9334de11578858cec6aee31cd5d380228a2",
      "transactionType": "CALL",
      "contractName": null,
      "contractAddress": "0xcbdd195166e42980f6541214371b4bd2ba6cb1d5",
      "function": "setNftContract(address)",
      "arguments": [
        "0xB327190aFBC357C4408fb38B2Bc91Be793f1659C"
      ],
      "transaction": {
        "from": "0xad9fdad276ab1a430fd03177a07350cd7c61e897",
        "to": "0xcbdd195166e42980f6541214371b4bd2ba6cb1d5",
        "gas": "0x9b73",
        "value": "0x0",
        "input": "0x52f5ad77000000000000000000000000b327190afbc357c4408fb38b2bc91be793f1659c",
        "nonce": "0x30b",
        "chainId": "0xaa36a7"
      },
      "additionalContracts": [],
      "isFixedGasLimit": false
    },
    {
      "hash": "0xc5ddbaa390e776d36362311c49dacf30b9f9ba2b47df6aec5733a18b4f05dc55",
      "transactionType": "CALL",
      "contractName": null,
      "contractAddress": "0x1d1b77b54e654b943ab5dad3045d324ab61492fb",
      "function": "setAggregator(address)",
      "arguments": [
        "0xcbDD195166e42980F6541214371B4bD2ba6CB1D5"
      ],
      "transaction": {
        "from": "0xad9fdad276ab1a430fd03177a07350cd7c61e897",
        "to": "0x1d1b77b54e654b943ab5dad3045d324ab61492fb",
        "gas": "0x948c",
        "value": "0x0",
        "input": "0xf9120af6000000000000000000000000cbdd195166e42980f6541214371b4bd2ba6cb1d5",
        "nonce": "0x30c",
        "chainId": "0xaa36a7"
      },
      "additionalContracts": [],
      "isFixedGasLimit": false
    },
    {
      "hash": "0x0241939618d52c88f6d3374644b8a98293b3bd6177d8a4ee43e3f6d3050b8202",
      "transactionType": "CALL",
      "contractName": null,
      "contractAddress": "0x1d1b77b54e654b943ab5dad3045d324ab61492fb",
      "function": "setRevealQueue(address)",
      "arguments": [
        "0xB327190aFBC357C4408fb38B2Bc91Be793f1659C"
      ],
      "transaction": {
        "from": "0xad9fdad276ab1a430fd03177a07350cd7c61e897",
        "to": "0x1d1b77b54e654b943ab5dad3045d324ab61492fb",
        "gas": "0x9d6a",
        "value": "0x0",
        "input": "0xfdc85371000000000000000000000000b327190afbc357c4408fb38b2bc91be793f1659c",
        "nonce": "0x30d",
        "chainId": "0xaa36a7"
      },
      "additionalContracts": [],
      "isFixedGasLimit": false
    },
    {
      "hash": "0x98c39cd4dbf8bd2740485d5f6f8fa9713a5ec39a39d69859829ce5531d33c392",
      "transactionType": "CALL",
      "contractName": null,
      "contractAddress": "0x1d1b77b54e654b943ab5dad3045d324ab61492fb",
      "function": "setPermutationZeroIndexed(bool)",
      "arguments": [
        "true"
      ],
      "transaction": {
        "from": "0xad9fdad276ab1a430fd03177a07350cd7c61e897",
        "to": "0x1d1b77b54e654b943ab5dad3045d324ab61492fb",
        "gas": "0x90a9",
        "value": "0x0",
        "input": "0x0367aa2f0000000000000000000000000000000000000000000000000000000000000001",
        "nonce": "0x30e",
        "chainId": "0xaa36a7"
      },
      "additionalContracts": [],
      "isFixedGasLimit": false
    },
    {
      "hash": "0x32db5132c1caad79d5010daab57e3270120ac4ebe73a5015e02fee24df6f0652",
      "transactionType": "CALL",
      "contractName": null,
      "contractAddress": "0xb327190afbc357c4408fb38b2bc91be793f1659c",
      "function": "configureVRF(address,bytes32,uint256,uint16,uint32,uint32)",
      "arguments": [
        "0x9DdfaCa8183c41ad55329BdeeD9F6A8d53168B1B",
        "0x787d74caea10b2b357790d5b5247c2f63d1d91572a9846f780606e4d953677ae",
        "87683545613994394530861784894347546345842400721843250695264552850260639576285",
        "3",
        "500000",
        "2"
      ],
      "transaction": {
        "from": "0xad9fdad276ab1a430fd03177a07350cd7c61e897",
        "to": "0xb327190afbc357c4408fb38b2bc91be793f1659c",
        "gas": "0xd493",
        "value": "0x0",
        "input": "0x13cec91d0000000000000000000000009ddfaca8183c41ad55329bdeed9f6a8d53168b1b787d74caea10b2b357790d5b5247c2f63d1d91572a9846f780606e4d953677aec1db20cb0e1a6e08198b382012720b3205c8f3cf28237604ec99e9f37ce770dd0000000000000000000000000000000000000000000000000000000000000003000000000000000000000000000000000000000000000000000000000007a1200000000000000000000000000000000000000000000000000000000000000002",
        "nonce": "0x30f",
        "chainId": "0xaa36a7"
      },
      "additionalContracts": [],
      "isFixedGasLimit": false
    }
  ],
  "receipts": [
    {
      "status": "0x1",
      "cumulativeGasUsed": "0xc91a54",
      "logs": [
        {
          "address": "0xb327190afbc357c4408fb38b2bc91be793f1659c",
          "topics": [
            "0x7619eb3b0b2346250e2839a10da35fc58eea3632c6f045e8abffa1864bce2551"
          ],
          "data": "0x0000000000000000000000001d1b77b54e654b943ab5dad3045d324ab61492fb",
          "blockHash": "0x8a89ab2689e9ef8c9a8305cb6c2a30b173592137a0a6ec7b4e93d6bbbd3ed2ce",
          "blockNumber": "0x916fcc",
          "blockTimestamp": "0x6904e954",
          "transactionHash": "0xe9bdaf46e1729004dbde5e54d08150a463ddd7cee33b8ef2f31a9b9c4b46272a",
          "transactionIndex": "0x66",
          "logIndex": "0x7c",
          "removed": false
        }
      ],
      "logsBloom": "0x00000000000000000000000000000000000000000000000000000000000000000000000000000000000000000000000000000000000000000000000000000000000000000000000000002000000000004000000000000000000000800000000000000000000000000000000000000000000000000000000000000000000000000000000000000000000000000000000000000000000000000000000800000000000000000000000000000000000000000000000000000000000000000000000000000000000000000000000000000000000000000000000200000000000000000000000000000100000000000000000000000000000000000000000000000000",
      "type": "0x0",
      "transactionHash": "0xe9bdaf46e1729004dbde5e54d08150a463ddd7cee33b8ef2f31a9b9c4b46272a",
      "transactionIndex": "0x66",
      "blockHash": "0x8a89ab2689e9ef8c9a8305cb6c2a30b173592137a0a6ec7b4e93d6bbbd3ed2ce",
      "blockNumber": "0x916fcc",
      "gasUsed": "0x77d5",
      "effectiveGasPrice": "0xf424a",
      "from": "0xad9fdad276ab1a430fd03177a07350cd7c61e897",
      "to": "0xb327190afbc357c4408fb38b2bc91be793f1659c",
      "contractAddress": null
    },
    {
      "status": "0x1",
      "cumulativeGasUsed": "0xc98e77",
      "logs": [
        {
          "address": "0xb327190afbc357c4408fb38b2bc91be793f1659c",
          "topics": [
            "0xce5202ecc8b8799ee1618adf9acec1ce2a28f52077ffc9bcdcf6c794f9e0c37a"
          ],
          "data": "0x000000000000000000000000cbdd195166e42980f6541214371b4bd2ba6cb1d5",
          "blockHash": "0x8a89ab2689e9ef8c9a8305cb6c2a30b173592137a0a6ec7b4e93d6bbbd3ed2ce",
          "blockNumber": "0x916fcc",
          "blockTimestamp": "0x6904e954",
          "transactionHash": "0x449a754737dd08a4b2d254fa813d978ed36fd70ab4ebe2d91c037c7a86e67d4c",
          "transactionIndex": "0x67",
          "logIndex": "0x7d",
          "removed": false
        }
      ],
      "logsBloom": "0x00000000000000000000000000000000000000000000000000000000000000000000000000000000002000000000000000000000000000000000000000000000000000400000000000002000000000000000000000000000000000000000000000000000000000000000000000000000000000000000000000000000000000000000000000000000000000000000000000000000000000000000000000000000000000000000000000000000000000000000000000000000000000000000000000000000000000000000000000000000000000000000000200000000000000000000000000000100000000000000000000000000000008000000000000000000",
      "type": "0x0",
      "transactionHash": "0x449a754737dd08a4b2d254fa813d978ed36fd70ab4ebe2d91c037c7a86e67d4c",
      "transactionIndex": "0x67",
      "blockHash": "0x8a89ab2689e9ef8c9a8305cb6c2a30b173592137a0a6ec7b4e93d6bbbd3ed2ce",
      "blockNumber": "0x916fcc",
      "gasUsed": "0x7423",
      "effectiveGasPrice": "0xf424a",
      "from": "0xad9fdad276ab1a430fd03177a07350cd7c61e897",
      "to": "0xb327190afbc357c4408fb38b2bc91be793f1659c",
      "contractAddress": null
    },
    {
      "status": "0x1",
      "cumulativeGasUsed": "0xc9f8c2",
      "logs": [
        {
          "address": "0xcbdd195166e42980f6541214371b4bd2ba6cb1d5",
          "topics": [
            "0xa27bdd7b0c9c795c64307abe4a8b21d993ec4bd2601c38dfaee5cfc991375ae8",
            "0x000000000000000000000000b327190afbc357c4408fb38b2bc91be793f1659c"
          ],
          "data": "0x",
          "blockHash": "0x8a89ab2689e9ef8c9a8305cb6c2a30b173592137a0a6ec7b4e93d6bbbd3ed2ce",
          "blockNumber": "0x916fcc",
          "blockTimestamp": "0x6904e954",
          "transactionHash": "0x444c0cec480a60c5a30ad50d00e6f9334de11578858cec6aee31cd5d380228a2",
          "transactionIndex": "0x68",
          "logIndex": "0x7e",
          "removed": false
        }
      ],
      "logsBloom": "0x00000000000000000000000000000000000000000000000000000000000000000000000000000000000000000000000000000000000000000000000000000000000000000000000000000000000000000000001000000000000000000000008000000000000000000000000000000000000000000000000000000000000000000000000000000000000000000010000000000000000000000000000000000100000000000000000000000000000000000000000000000200008000020000000000000000100000000000000000000000000000000000000000000000000000000000000000000000000000000000000000000000000000000000000000000002",
      "type": "0x0",
      "transactionHash": "0x444c0cec480a60c5a30ad50d00e6f9334de11578858cec6aee31cd5d380228a2",
      "transactionIndex": "0x68",
      "blockHash": "0x8a89ab2689e9ef8c9a8305cb6c2a30b173592137a0a6ec7b4e93d6bbbd3ed2ce",
      "blockNumber": "0x916fcc",
      "gasUsed": "0x6a4b",
      "effectiveGasPrice": "0xf424a",
      "from": "0xad9fdad276ab1a430fd03177a07350cd7c61e897",
      "to": "0xcbdd195166e42980f6541214371b4bd2ba6cb1d5",
      "contractAddress": null
    },
    {
      "status": "0x1",
      "cumulativeGasUsed": "0xca644f",
      "logs": [
        {
          "address": "0x1d1b77b54e654b943ab5dad3045d324ab61492fb",
          "topics": [
            "0x602cec4b1583b07d071161da5eb9589444d2459201e2fab7753dc941e9351c21",
            "0x000000000000000000000000cbdd195166e42980f6541214371b4bd2ba6cb1d5"
          ],
          "data": "0x",
          "blockHash": "0x8a89ab2689e9ef8c9a8305cb6c2a30b173592137a0a6ec7b4e93d6bbbd3ed2ce",
          "blockNumber": "0x916fcc",
          "blockTimestamp": "0x6904e954",
          "transactionHash": "0xc5ddbaa390e776d36362311c49dacf30b9f9ba2b47df6aec5733a18b4f05dc55",
          "transactionIndex": "0x69",
          "logIndex": "0x7f",
          "removed": false
        }
      ],
      "logsBloom": "0x00000000000000000000000000000000000000000000000000000000000000000000000000000000000000000000000000000000000000000000100000000000000010000000000000000000000000000000000000000000000000000000000000000020000000000000000000000000000000000000000000000000000000000000000000000000000000000000000000000000000000000000000000000000000000000000000000000000000000000000000000000000000000000000000000000020000000000000000000000000000000000000000800000080000080000000000000002000000000000000080000000000000000000000000000000000",
      "type": "0x0",
      "transactionHash": "0xc5ddbaa390e776d36362311c49dacf30b9f9ba2b47df6aec5733a18b4f05dc55",
      "transactionIndex": "0x69",
      "blockHash": "0x8a89ab2689e9ef8c9a8305cb6c2a30b173592137a0a6ec7b4e93d6bbbd3ed2ce",
      "blockNumber": "0x916fcc",
      "gasUsed": "0x6b8d",
      "effectiveGasPrice": "0xf424a",
      "from": "0xad9fdad276ab1a430fd03177a07350cd7c61e897",
      "to": "0x1d1b77b54e654b943ab5dad3045d324ab61492fb",
      "contractAddress": null
    },
    {
      "status": "0x1",
      "cumulativeGasUsed": "0xcacff2",
      "logs": [
        {
          "address": "0x1d1b77b54e654b943ab5dad3045d324ab61492fb",
          "topics": [
            "0x23a1b510439be15b459a731ae3d1d5a6eac00dcd9433c69442716b282d888ac4",
            "0x000000000000000000000000b327190afbc357c4408fb38b2bc91be793f1659c"
          ],
          "data": "0x",
          "blockHash": "0x8a89ab2689e9ef8c9a8305cb6c2a30b173592137a0a6ec7b4e93d6bbbd3ed2ce",
          "blockNumber": "0x916fcc",
          "blockTimestamp": "0x6904e954",
          "transactionHash": "0x0241939618d52c88f6d3374644b8a98293b3bd6177d8a4ee43e3f6d3050b8202",
          "transactionIndex": "0x6a",
          "logIndex": "0x80",
          "removed": false
        }
      ],
      "logsBloom": "0x00000000000000000000000000000000000000000000000000000000000000000000000000000000000000000000000000000000000000000000000000000000000010000000000000000000000000000000001000000000000000000000000000000000000000000000000000000000000000000000000000800000000000000000000000000000000000000000000000000000000000000000000000000000000000000000000000000000000000000000000000000000008000020000000000000080000000000000000000000000000000008000000000000080000000000000000000000000000000000000080000000000000000000000000000000000",
      "type": "0x0",
      "transactionHash": "0x0241939618d52c88f6d3374644b8a98293b3bd6177d8a4ee43e3f6d3050b8202",
      "transactionIndex": "0x6a",
      "blockHash": "0x8a89ab2689e9ef8c9a8305cb6c2a30b173592137a0a6ec7b4e93d6bbbd3ed2ce",
      "blockNumber": "0x916fcc",
      "gasUsed": "0x6ba3",
      "effectiveGasPrice": "0xf424a",
      "from": "0xad9fdad276ab1a430fd03177a07350cd7c61e897",
      "to": "0x1d1b77b54e654b943ab5dad3045d324ab61492fb",
      "contractAddress": null
    },
    {
      "status": "0x1",
      "cumulativeGasUsed": "0xcb38ae",
      "logs": [
        {
          "address": "0x1d1b77b54e654b943ab5dad3045d324ab61492fb",
          "topics": [
            "0xd464f229795dda56c42369a406dade63ed87a7cc12e4ed0cbd917347cb23285a"
          ],
          "data": "0x0000000000000000000000000000000000000000000000000000000000000001",
          "blockHash": "0x8a89ab2689e9ef8c9a8305cb6c2a30b173592137a0a6ec7b4e93d6bbbd3ed2ce",
          "blockNumber": "0x916fcc",
          "blockTimestamp": "0x6904e954",
          "transactionHash": "0x98c39cd4dbf8bd2740485d5f6f8fa9713a5ec39a39d69859829ce5531d33c392",
          "transactionIndex": "0x6b",
          "logIndex": "0x81",
          "removed": false
        }
      ],
      "logsBloom": "0x00002000000000000000000000000000000000000000000000000000000000000000000000000000000000000000000000000000000000000000000000000000000010000000000000000000000000000000000000000000000000000000000000000000000000000000000000000000000000000000000000000000000000000000001000000000000000000000000000000000000000000000000000000000000000000000000000000000000000000000000000000000000000000000000000000000000000000000000000000000000000000000000000000080000000000000001000000000000000000000080000000000000000000000000000000000",
      "type": "0x0",
      "transactionHash": "0x98c39cd4dbf8bd2740485d5f6f8fa9713a5ec39a39d69859829ce5531d33c392",
      "transactionIndex": "0x6b",
      "blockHash": "0x8a89ab2689e9ef8c9a8305cb6c2a30b173592137a0a6ec7b4e93d6bbbd3ed2ce",
      "blockNumber": "0x916fcc",
      "gasUsed": "0x68bc",
      "effectiveGasPrice": "0xf424a",
      "from": "0xad9fdad276ab1a430fd03177a07350cd7c61e897",
      "to": "0x1d1b77b54e654b943ab5dad3045d324ab61492fb",
      "contractAddress": null
    },
    {
      "status": "0x1",
      "cumulativeGasUsed": "0xcbd295",
      "logs": [
        {
          "address": "0xb327190afbc357c4408fb38b2bc91be793f1659c",
          "topics": [
            "0xdb916dcd2cdb2972bd841f7aca5eb0597e3ebafd6ff8338eaebe31a6da321e8f",
            "0x0000000000000000000000009ddfaca8183c41ad55329bdeed9f6a8d53168b1b"
          ],
          "data": "0x787d74caea10b2b357790d5b5247c2f63d1d91572a9846f780606e4d953677aec1db20cb0e1a6e08198b382012720b3205c8f3cf28237604ec99e9f37ce770dd0000000000000000000000000000000000000000000000000000000000000003000000000000000000000000000000000000000000000000000000000007a1200000000000000000000000000000000000000000000000000000000000000002",
          "blockHash": "0x8a89ab2689e9ef8c9a8305cb6c2a30b173592137a0a6ec7b4e93d6bbbd3ed2ce",
          "blockNumber": "0x916fcc",
          "blockTimestamp": "0x6904e954",
          "transactionHash": "0x32db5132c1caad79d5010daab57e3270120ac4ebe73a5015e02fee24df6f0652",
          "transactionIndex": "0x6c",
          "logIndex": "0x82",
          "removed": false
        }
      ],
      "logsBloom": "0x00000000000000000000000000000000000000000000000000000000000000000000000000000000000000000000000000000000000000000000000000000000000000000000000000002000000000000000000000000000000000000000000000000000000000000000000000000004000000000000000000000000000000000000000000000000000000000000000000000000000000000000000000000000000000000000000000000000010000000000000000000000000004000000000000000000000000000000000000000000000000002000000200000000000000000010000000000100000000000000000000000200000000000000000000000000",
      "type": "0x0",
      "transactionHash": "0x32db5132c1caad79d5010daab57e3270120ac4ebe73a5015e02fee24df6f0652",
      "transactionIndex": "0x6c",
      "blockHash": "0x8a89ab2689e9ef8c9a8305cb6c2a30b173592137a0a6ec7b4e93d6bbbd3ed2ce",
      "blockNumber": "0x916fcc",
      "gasUsed": "0x99e7",
      "effectiveGasPrice": "0xf424a",
      "from": "0xad9fdad276ab1a430fd03177a07350cd7c61e897",
      "to": "0xb327190afbc357c4408fb38b2bc91be793f1659c",
      "contractAddress": null
    }
  ],
  "libraries": [],
  "pending": [],
  "returns": {},
  "timestamp": 1761929557944,
  "chain": 11155111,
  "commit": "c03d2ed"
}