{
  "transactions": [
    {
      "hash": "0x19f635646090ef783500b52d3a0e9851fe00e07c318d10563cfea252a432c72b",
      "transactionType": "CALL",
      "contractName": "EveryTwoMillionBlocks",
      "contractAddress": "0xa27e1385cfcc5bd6ff25d005d8fb10239502f4bc",
      "function": "setPointsManager(address)",
      "arguments": [
        "0xfa026570D389E23b742723172781585814347f85"
      ],
      "transaction": {
        "from": "0xad9fdad276ab1a430fd03177a07350cd7c61e897",
        "to": "0xa27e1385cfcc5bd6ff25d005d8fb10239502f4bc",
        "gas": "0xaf00",
        "value": "0x0",
        "input": "0xcae42a08000000000000000000000000fa026570d389e23b742723172781585814347f85",
        "nonce": "0x27d",
        "chainId": "0xaa36a7"
      },
      "additionalContracts": [],
      "isFixedGasLimit": false
    },
    {
      "hash": "0x95929db51e714c7b66507ae4fb9f473a78c2be8462f5f2365e03e2092456913d",
      "transactionType": "CALL",
      "contractName": "EveryTwoMillionBlocks",
      "contractAddress": "0xa27e1385cfcc5bd6ff25d005d8fb10239502f4bc",
      "function": "setPointsAggregator(address)",
      "arguments": [
        "0xE954b8C8cADe672540D574b034B47863c1F81545"
      ],
      "transaction": {
        "from": "0xad9fdad276ab1a430fd03177a07350cd7c61e897",
        "to": "0xa27e1385cfcc5bd6ff25d005d8fb10239502f4bc",
        "gas": "0x10bc7",
        "value": "0x0",
        "input": "0x2e51d88c000000000000000000000000e954b8c8cade672540d574b034b47863c1f81545",
        "nonce": "0x27e",
        "chainId": "0xaa36a7"
      },
      "additionalContracts": [],
      "isFixedGasLimit": false
    },
    {
      "hash": "0x45e192d429143070978b5fb053f924f3826dedc0f358ed882a0eeb1925cde226",
      "transactionType": "CALL",
      "contractName": "PointsAggregator",
      "contractAddress": "0xe954b8c8cade672540d574b034b47863c1f81545",
      "function": "setNftContract(address)",
      "arguments": [
        "0xA27E1385cfCc5bd6Ff25D005D8fb10239502f4bc"
      ],
      "transaction": {
        "from": "0xad9fdad276ab1a430fd03177a07350cd7c61e897",
        "to": "0xe954b8c8cade672540d574b034b47863c1f81545",
        "gas": "0xfe2f",
        "value": "0x0",
        "input": "0x52f5ad77000000000000000000000000a27e1385cfcc5bd6ff25d005d8fb10239502f4bc",
        "nonce": "0x27f",
        "chainId": "0xaa36a7"
      },
      "additionalContracts": [],
      "isFixedGasLimit": false
    },
    {
      "hash": "0xc69714c5d189faa4d3d2b385e87bca560c229f3623eee01ce9a1a36ebd39da22",
      "transactionType": "CALL",
      "contractName": null,
      "contractAddress": "0xfa026570d389e23b742723172781585814347f85",
      "function": "setAggregator(address)",
      "arguments": [
        "0xE954b8C8cADe672540D574b034B47863c1F81545"
      ],
      "transaction": {
        "from": "0xad9fdad276ab1a430fd03177a07350cd7c61e897",
        "to": "0xfa026570d389e23b742723172781585814347f85",
        "gas": "0x948c",
        "value": "0x0",
        "input": "0xf9120af6000000000000000000000000e954b8c8cade672540d574b034b47863c1f81545",
        "nonce": "0x280",
        "chainId": "0xaa36a7"
      },
      "additionalContracts": [],
      "isFixedGasLimit": false
    },
    {
      "hash": "0x60fcaed7e32b8a2311fa413b291af8a6a63f61697c27bb1e6c9d386fe8e34b5a",
      "transactionType": "CALL",
      "contractName": null,
      "contractAddress": "0xfa026570d389e23b742723172781585814347f85",
      "function": "setRevealQueue(address)",
      "arguments": [
        "0xA27E1385cfCc5bd6Ff25D005D8fb10239502f4bc"
      ],
      "transaction": {
        "from": "0xad9fdad276ab1a430fd03177a07350cd7c61e897",
        "to": "0xfa026570d389e23b742723172781585814347f85",
        "gas": "0x1000a",
        "value": "0x0",
        "input": "0xfdc85371000000000000000000000000a27e1385cfcc5bd6ff25d005d8fb10239502f4bc",
        "nonce": "0x281",
        "chainId": "0xaa36a7"
      },
      "additionalContracts": [],
      "isFixedGasLimit": false
    },
    {
      "hash": "0x1bee4950f4caefa157f4885111a222514d87ac07c26019a237ba14bd57aa770f",
      "transactionType": "CALL",
      "contractName": null,
      "contractAddress": "0xfa026570d389e23b742723172781585814347f85",
      "function": "setPermutationZeroIndexed(bool)",
      "arguments": [
        "true"
      ],
      "transaction": {
        "from": "0xad9fdad276ab1a430fd03177a07350cd7c61e897",
        "to": "0xfa026570d389e23b742723172781585814347f85",
        "gas": "0x9fc4",
        "value": "0x0",
        "input": "0x0367aa2f0000000000000000000000000000000000000000000000000000000000000001",
        "nonce": "0x282",
        "chainId": "0xaa36a7"
      },
      "additionalContracts": [],
      "isFixedGasLimit": false
    },
    {
      "hash": "0x0215b957d48b6fe3dd73af6b4acb95401a7c006c8334569f6d730cf2db0a2e38",
      "transactionType": "CALL",
      "contractName": "EveryTwoMillionBlocks",
      "contractAddress": "0xa27e1385cfcc5bd6ff25d005d8fb10239502f4bc",
      "function": "configureVRF(address,bytes32,uint256,uint16,uint32,uint32)",
      "arguments": [
        "0x9DdfaCa8183c41ad55329BdeeD9F6A8d53168B1B",
        "0x787d74caea10b2b357790d5b5247c2f63d1d91572a9846f780606e4d953677ae",
        "87683545613994394530861784894347546345842400721843250695264552850260639576285",
        "3",
        "500000",
        "2"
      ],
      "transaction": {
        "from": "0xad9fdad276ab1a430fd03177a07350cd7c61e897",
        "to": "0xa27e1385cfcc5bd6ff25d005d8fb10239502f4bc",
        "gas": "0x24695",
        "value": "0x0",
        "input": "0x13cec91d0000000000000000000000009ddfaca8183c41ad55329bdeed9f6a8d53168b1b787d74caea10b2b357790d5b5247c2f63d1d91572a9846f780606e4d953677aec1db20cb0e1a6e08198b382012720b3205c8f3cf28237604ec99e9f37ce770dd0000000000000000000000000000000000000000000000000000000000000003000000000000000000000000000000000000000000000000000000000007a1200000000000000000000000000000000000000000000000000000000000000002",
        "nonce": "0x283",
        "chainId": "0xaa36a7"
      },
      "additionalContracts": [],
      "isFixedGasLimit": false
    }
  ],
  "receipts": [
    {
      "status": "0x1",
      "cumulativeGasUsed": "0x70901d",
      "logs": [
        {
          "address": "0xa27e1385cfcc5bd6ff25d005d8fb10239502f4bc",
          "topics": [
            "0x7619eb3b0b2346250e2839a10da35fc58eea3632c6f045e8abffa1864bce2551"
          ],
          "data": "0x000000000000000000000000fa026570d389e23b742723172781585814347f85",
          "blockHash": "0x3b553e427d54a917c42825015d3881d585e9834782faba43c661a3ce168f9354",
          "blockNumber": "0x913c3c",
          "blockTimestamp": "0x69027cfc",
          "transactionHash": "0x19f635646090ef783500b52d3a0e9851fe00e07c318d10563cfea252a432c72b",
          "transactionIndex": "0x49",
          "logIndex": "0x3c",
          "removed": false
        }
      ],
      "logsBloom": "0x00000000000000000000000000000000000000000001000000000000000000000000000000000000000000000000000000000000000000000000000000000000000000000000000000000000000000004000000000000000000000800000000000000000000000000000000000000000000000000000000000000000000000000000000000000000000000000000000000000000000000000000000800000000000000000000000000000000000000000000000000000000000000000000000000000000000000000000000000000000000000000000000000000400000000000000000000000000000000000000000000000000000000000000000000000200",
      "type": "0x0",
      "transactionHash": "0x19f635646090ef783500b52d3a0e9851fe00e07c318d10563cfea252a432c72b",
      "transactionIndex": "0x49",
      "blockHash": "0x3b553e427d54a917c42825015d3881d585e9834782faba43c661a3ce168f9354",
      "blockNumber": "0x913c3c",
      "gasUsed": "0x77a9",
      "effectiveGasPrice": "0xf4249",
      "from": "0xad9fdad276ab1a430fd03177a07350cd7c61e897",
      "to": "0xa27e1385cfcc5bd6ff25d005d8fb10239502f4bc",
      "contractAddress": null
    },
    {
      "status": "0x1",
      "cumulativeGasUsed": "0x7151fc",
      "logs": [
        {
          "address": "0xa27e1385cfcc5bd6ff25d005d8fb10239502f4bc",
          "topics": [
            "0xce5202ecc8b8799ee1618adf9acec1ce2a28f52077ffc9bcdcf6c794f9e0c37a"
          ],
          "data": "0x000000000000000000000000e954b8c8cade672540d574b034b47863c1f81545",
          "blockHash": "0x3b553e427d54a917c42825015d3881d585e9834782faba43c661a3ce168f9354",
          "blockNumber": "0x913c3c",
          "blockTimestamp": "0x69027cfc",
          "transactionHash": "0x95929db51e714c7b66507ae4fb9f473a78c2be8462f5f2365e03e2092456913d",
          "transactionIndex": "0x4a",
          "logIndex": "0x3d",
          "removed": false
        }
      ],
      "logsBloom": "0x00000000000000000000000000000000000000000001000000000000000000000000000000000000002000000000000000000000000000000000000000000000000000400000000000000000000000000000000000000000000000000000000000000000000000000000000000000000000000000000000000000000000000000000000000000000000000000000000000000000000000000000000000000000000000000000000000000000000000000000000000000000000000000000000000000000000000000000000000000000000000000000000000000400000000000000000000000000000000000000000000000000000008000000000000000200",
      "type": "0x0",
      "transactionHash": "0x95929db51e714c7b66507ae4fb9f473a78c2be8462f5f2365e03e2092456913d",
      "transactionIndex": "0x4a",
      "blockHash": "0x3b553e427d54a917c42825015d3881d585e9834782faba43c661a3ce168f9354",
      "blockNumber": "0x913c3c",
      "gasUsed": "0xc1df",
      "effectiveGasPrice": "0xf4249",
      "from": "0xad9fdad276ab1a430fd03177a07350cd7c61e897",
      "to": "0xa27e1385cfcc5bd6ff25d005d8fb10239502f4bc",
      "contractAddress": null
    },
    {
      "status": "0x1",
      "cumulativeGasUsed": "0x720a03",
      "logs": [
        {
          "address": "0xe954b8c8cade672540d574b034b47863c1f81545",
          "topics": [
            "0xa27bdd7b0c9c795c64307abe4a8b21d993ec4bd2601c38dfaee5cfc991375ae8",
            "0x000000000000000000000000a27e1385cfcc5bd6ff25d005d8fb10239502f4bc"
          ],
          "data": "0x",
          "blockHash": "0x3b553e427d54a917c42825015d3881d585e9834782faba43c661a3ce168f9354",
          "blockNumber": "0x913c3c",
          "blockTimestamp": "0x69027cfc",
          "transactionHash": "0x45e192d429143070978b5fb053f924f3826dedc0f358ed882a0eeb1925cde226",
          "transactionIndex": "0x4b",
          "logIndex": "0x3e",
          "removed": false
        }
      ],
      "logsBloom": "0x00000000000000000010000000000000000000000000000000040000000000000000000000000000000000000000000000000000000000000000000000000000000000000000000000000000000000000000000000000440000000000000000000000000000000000000000000000000000000000000000000000000000000000000000000000000000000000000000000000000000200000000000000000100000000000000000000000000000000000000000000000000000000000000000000000000100000000000000000000000000000000000000000000000000000800000000000000000000000000000000000000000000000000000000000000002",
      "type": "0x0",
      "transactionHash": "0x45e192d429143070978b5fb053f924f3826dedc0f358ed882a0eeb1925cde226",
      "transactionIndex": "0x4b",
      "blockHash": "0x3b553e427d54a917c42825015d3881d585e9834782faba43c661a3ce168f9354",
      "blockNumber": "0x913c3c",
      "gasUsed": "0xb807",
      "effectiveGasPrice": "0xf4249",
      "from": "0xad9fdad276ab1a430fd03177a07350cd7c61e897",
      "to": "0xe954b8c8cade672540d574b034b47863c1f81545",
      "contractAddress": null
    },
    {
      "status": "0x1",
      "cumulativeGasUsed": "0x727590",
      "logs": [
        {
          "address": "0xfa026570d389e23b742723172781585814347f85",
          "topics": [
            "0x602cec4b1583b07d071161da5eb9589444d2459201e2fab7753dc941e9351c21",
            "0x000000000000000000000000e954b8c8cade672540d574b034b47863c1f81545"
          ],
          "data": "0x",
          "blockHash": "0x3b553e427d54a917c42825015d3881d585e9834782faba43c661a3ce168f9354",
          "blockNumber": "0x913c3c",
          "blockTimestamp": "0x69027cfc",
          "transactionHash": "0xc69714c5d189faa4d3d2b385e87bca560c229f3623eee01ce9a1a36ebd39da22",
          "transactionIndex": "0x4c",
          "logIndex": "0x3f",
          "removed": false
        }
      ],
      "logsBloom": "0x40000000000000000000000000000000000000000040004000000000000001000000000000000000000000000000000000000000000000000000100000000000000000000000000000000000000000000000000000000000000000000000000000000020000000000000000000000000000000000000000000000000000000000000000000000000000000000000000040000000000000000000000000000000000000000000000000000000000000000000000000000000000000000000000000000000000000000000000000000000000000000000000000000000000000000000000000002000000000000000000000000000000000000000000000000020",
      "type": "0x0",
      "transactionHash": "0xc69714c5d189faa4d3d2b385e87bca560c229f3623eee01ce9a1a36ebd39da22",
      "transactionIndex": "0x4c",
      "blockHash": "0x3b553e427d54a917c42825015d3881d585e9834782faba43c661a3ce168f9354",
      "blockNumber": "0x913c3c",
      "gasUsed": "0x6b8d",
      "effectiveGasPrice": "0xf4249",
      "from": "0xad9fdad276ab1a430fd03177a07350cd7c61e897",
      "to": "0xfa026570d389e23b742723172781585814347f85",
      "contractAddress": null
    },
    {
      "status": "0x1",
      "cumulativeGasUsed": "0x732eef",
      "logs": [
        {
          "address": "0xfa026570d389e23b742723172781585814347f85",
          "topics": [
            "0x23a1b510439be15b459a731ae3d1d5a6eac00dcd9433c69442716b282d888ac4",
            "0x000000000000000000000000a27e1385cfcc5bd6ff25d005d8fb10239502f4bc"
          ],
          "data": "0x",
          "blockHash": "0x3b553e427d54a917c42825015d3881d585e9834782faba43c661a3ce168f9354",
          "blockNumber": "0x913c3c",
          "blockTimestamp": "0x69027cfc",
          "transactionHash": "0x60fcaed7e32b8a2311fa413b291af8a6a63f61697c27bb1e6c9d386fe8e34b5a",
          "transactionIndex": "0x4d",
          "logIndex": "0x40",
          "removed": false
        }
      ],
      "logsBloom": "0x00000000000000000010000000000000000000000040004000000000000000000000000000000000000000000000000000000000000000000000000000000000000000000000000000000000000000000000000000000000000000000000000000000000000000000000000000000000000000000000000000800000000000000000000000000000000000000000000000000000000200000000000000000000000000000000000000000000000000000000000000000000000000000000000000000080000000000000000000000000000000008000000000000000000000800000000000000000000000000000000000000000000000000000000000000020",
      "type": "0x0",
      "transactionHash": "0x60fcaed7e32b8a2311fa413b291af8a6a63f61697c27bb1e6c9d386fe8e34b5a",
      "transactionIndex": "0x4d",
      "blockHash": "0x3b553e427d54a917c42825015d3881d585e9834782faba43c661a3ce168f9354",
      "blockNumber": "0x913c3c",
      "gasUsed": "0xb95f",
      "effectiveGasPrice": "0xf4249",
      "from": "0xad9fdad276ab1a430fd03177a07350cd7c61e897",
      "to": "0xfa026570d389e23b742723172781585814347f85",
      "contractAddress": null
    },
    {
      "status": "0x1",
      "cumulativeGasUsed": "0x73a29b",
      "logs": [
        {
          "address": "0xfa026570d389e23b742723172781585814347f85",
          "topics": [
            "0xd464f229795dda56c42369a406dade63ed87a7cc12e4ed0cbd917347cb23285a"
          ],
          "data": "0x0000000000000000000000000000000000000000000000000000000000000001",
          "blockHash": "0x3b553e427d54a917c42825015d3881d585e9834782faba43c661a3ce168f9354",
          "blockNumber": "0x913c3c",
          "blockTimestamp": "0x69027cfc",
          "transactionHash": "0x1bee4950f4caefa157f4885111a222514d87ac07c26019a237ba14bd57aa770f",
          "transactionIndex": "0x4e",
          "logIndex": "0x41",
          "removed": false
        }
      ],
      "logsBloom": "0x00002000000000000000000000000000000000000040004000000000000000000000000000000000000000000000000000000000000000000000000000000000000000000000000000000000000000000000000000000000000000000000000000000000000000000000000000000000000000000000000000000000000000000000001000000000000000000000000000000000000000000000000000000000000000000000000000000000000000000000000000000000000000000000000000000000000000000000000000000000000000000000000000000000000000000000001000000000000000000000000000000000000000000000000000000020",
      "type": "0x0",
      "transactionHash": "0x1bee4950f4caefa157f4885111a222514d87ac07c26019a237ba14bd57aa770f",
      "transactionIndex": "0x4e",
      "blockHash": "0x3b553e427d54a917c42825015d3881d585e9834782faba43c661a3ce168f9354",
      "blockNumber": "0x913c3c",
      "gasUsed": "0x73ac",
      "effectiveGasPrice": "0xf4249",
      "from": "0xad9fdad276ab1a430fd03177a07350cd7c61e897",
      "to": "0xfa026570d389e23b742723172781585814347f85",
      "contractAddress": null
    },
    {
      "status": "0x1",
      "cumulativeGasUsed": "0x7530f4",
      "logs": [
        {
          "address": "0xa27e1385cfcc5bd6ff25d005d8fb10239502f4bc",
          "topics": [
            "0xdb916dcd2cdb2972bd841f7aca5eb0597e3ebafd6ff8338eaebe31a6da321e8f",
            "0x0000000000000000000000009ddfaca8183c41ad55329bdeed9f6a8d53168b1b"
          ],
          "data": "0x787d74caea10b2b357790d5b5247c2f63d1d91572a9846f780606e4d953677aec1db20cb0e1a6e08198b382012720b3205c8f3cf28237604ec99e9f37ce770dd0000000000000000000000000000000000000000000000000000000000000003000000000000000000000000000000000000000000000000000000000007a1200000000000000000000000000000000000000000000000000000000000000002",
          "blockHash": "0x3b553e427d54a917c42825015d3881d585e9834782faba43c661a3ce168f9354",
          "blockNumber": "0x913c3c",
          "blockTimestamp": "0x69027cfc",
          "transactionHash": "0x0215b957d48b6fe3dd73af6b4acb95401a7c006c8334569f6d730cf2db0a2e38",
          "transactionIndex": "0x4f",
          "logIndex": "0x42",
          "removed": false
        }
      ],
      "logsBloom": "0x00000000000000000000000000000000000000000001000000000000000000000000000000000000000000000000000000000000000000000000000000000000000000000000000000000000000000000000000000000000000000000000000000000000000000000000000000000004000000000000000000000000000000000000000000000000000000000000000000000000000000000000000000000000000000000000000000000000010000000000000000000000000004000000000000000000000000000000000000000000000000002000000000000400000000000010000000000000000000000000000000000200000000000000000000000200",
      "type": "0x0",
      "transactionHash": "0x0215b957d48b6fe3dd73af6b4acb95401a7c006c8334569f6d730cf2db0a2e38",
      "transactionIndex": "0x4f",
      "blockHash": "0x3b553e427d54a917c42825015d3881d585e9834782faba43c661a3ce168f9354",
      "blockNumber": "0x913c3c",
      "gasUsed": "0x18e59",
      "effectiveGasPrice": "0xf4249",
      "from": "0xad9fdad276ab1a430fd03177a07350cd7c61e897",
      "to": "0xa27e1385cfcc5bd6ff25d005d8fb10239502f4bc",
      "contractAddress": null
    }
  ],
  "libraries": [],
  "pending": [],
  "returns": {},
  "timestamp": 1761770748972,
  "chain": 11155111,
  "commit": "c03d2ed"
}