{
  "transactions": [
    {
      "hash": "0x561dc706523721286be7053e144b9df6c86281fedc8ccc921330ad7f81cbac8e",
      "transactionType": "CALL",
      "contractName": null,
      "contractAddress": "0x18a09608810f87f76061f4e075edc49115194b78",
      "function": "setPointsManager(address)",
      "arguments": [
        "0x051cEaD10FE8ec708B749F77C5aA96EccB40063d"
      ],
      "transaction": {
        "from": "0xad9fdad276ab1a430fd03177a07350cd7c61e897",
        "to": "0x18a09608810f87f76061f4e075edc49115194b78",
        "gas": "0xa5fd",
        "value": "0x0",
        "input": "0xcae42a08000000000000000000000000051cead10fe8ec708b749f77c5aa96eccb40063d",
        "nonce": "0x533",
        "chainId": "0xaa36a7"
      },
      "additionalContracts": [],
      "isFixedGasLimit": false
    },
    {
      "hash": "0xb1a5f464085560be0824c642c0e17bfbd6b18251aa921178a8e92274193e6e09",
      "transactionType": "CALL",
      "contractName": null,
      "contractAddress": "0x18a09608810f87f76061f4e075edc49115194b78",
      "function": "setPointsAggregator(address)",
      "arguments": [
        "0xE792A14b2A667EA22808967efDf7B899dBaF5CD0"
      ],
      "transaction": {
        "from": "0xad9fdad276ab1a430fd03177a07350cd7c61e897",
        "to": "0x18a09608810f87f76061f4e075edc49115194b78",
        "gas": "0xaf9c",
        "value": "0x0",
        "input": "0x2e51d88c000000000000000000000000e792a14b2a667ea22808967efdf7b899dbaf5cd0",
        "nonce": "0x534",
        "chainId": "0xaa36a7"
      },
      "additionalContracts": [],
      "isFixedGasLimit": false
    },
    {
      "hash": "0xb90a80737d542ce63ffb8db3a3c21dc5dbf36b33d9311be1e9f16d63d98ddd32",
      "transactionType": "CALL",
      "contractName": null,
      "contractAddress": "0xe792a14b2a667ea22808967efdf7b899dbaf5cd0",
      "function": "setNftContract(address)",
      "arguments": [
        "0x18a09608810f87f76061F4E075edc49115194B78"
      ],
      "transaction": {
        "from": "0xad9fdad276ab1a430fd03177a07350cd7c61e897",
        "to": "0xe792a14b2a667ea22808967efdf7b899dbaf5cd0",
        "gas": "0x9bfe",
        "value": "0x0",
        "input": "0x52f5ad7700000000000000000000000018a09608810f87f76061f4e075edc49115194b78",
        "nonce": "0x535",
        "chainId": "0xaa36a7"
      },
      "additionalContracts": [],
      "isFixedGasLimit": false
    },
    {
      "hash": "0xb274e1b471cbd07baa92765584e039f99091a5ec8a0e2a184f4a82ea370a5245",
      "transactionType": "CALL",
      "contractName": null,
      "contractAddress": "0x051cead10fe8ec708b749f77c5aa96eccb40063d",
      "function": "setAggregator(address)",
      "arguments": [
        "0xE792A14b2A667EA22808967efDf7B899dBaF5CD0"
      ],
      "transaction": {
        "from": "0xad9fdad276ab1a430fd03177a07350cd7c61e897",
        "to": "0x051cead10fe8ec708b749f77c5aa96eccb40063d",
        "gas": "0x948c",
        "value": "0x0",
        "input": "0xf9120af6000000000000000000000000e792a14b2a667ea22808967efdf7b899dbaf5cd0",
        "nonce": "0x536",
        "chainId": "0xaa36a7"
      },
      "additionalContracts": [],
      "isFixedGasLimit": false
    },
    {
      "hash": "0xdcea6793b84ab41a535de430968168c496fe52eb9d057b1246747ec544038d62",
      "transactionType": "CALL",
      "contractName": null,
      "contractAddress": "0x051cead10fe8ec708b749f77c5aa96eccb40063d",
      "function": "setRevealQueue(address)",
      "arguments": [
        "0x18a09608810f87f76061F4E075edc49115194B78"
      ],
      "transaction": {
        "from": "0xad9fdad276ab1a430fd03177a07350cd7c61e897",
        "to": "0x051cead10fe8ec708b749f77c5aa96eccb40063d",
        "gas": "0x9d6a",
        "value": "0x0",
        "input": "0xfdc8537100000000000000000000000018a09608810f87f76061f4e075edc49115194b78",
        "nonce": "0x537",
        "chainId": "0xaa36a7"
      },
      "additionalContracts": [],
      "isFixedGasLimit": false
    },
    {
      "hash": "0x5b2fb5e34b2f0b50894ca0a0a92cdcef40c321a537ef9ce17a8f9cc6f7cc6a7d",
      "transactionType": "CALL",
      "contractName": null,
      "contractAddress": "0x051cead10fe8ec708b749f77c5aa96eccb40063d",
      "function": "setPermutationZeroIndexed(bool)",
      "arguments": [
        "true"
      ],
      "transaction": {
        "from": "0xad9fdad276ab1a430fd03177a07350cd7c61e897",
        "to": "0x051cead10fe8ec708b749f77c5aa96eccb40063d",
        "gas": "0x90a9",
        "value": "0x0",
        "input": "0x0367aa2f0000000000000000000000000000000000000000000000000000000000000001",
        "nonce": "0x538",
        "chainId": "0xaa36a7"
      },
      "additionalContracts": [],
      "isFixedGasLimit": false
    },
    {
      "hash": "0x6306ed1a75678356ca6fef67636c269ef4da54f90598c51efe4d369839dac1aa",
      "transactionType": "CALL",
      "contractName": null,
      "contractAddress": "0x18a09608810f87f76061f4e075edc49115194b78",
      "function": "configureVRF(address,bytes32,uint256,uint16,uint32,uint32)",
      "arguments": [
        "0x9DdfaCa8183c41ad55329BdeeD9F6A8d53168B1B",
        "0x787d74caea10b2b357790d5b5247c2f63d1d91572a9846f780606e4d953677ae",
        "87683545613994394530861784894347546345842400721843250695264552850260639576285",
        "3",
        "500000",
        "2"
      ],
      "transaction": {
        "from": "0xad9fdad276ab1a430fd03177a07350cd7c61e897",
        "to": "0x18a09608810f87f76061f4e075edc49115194b78",
        "gas": "0xd4aa",
        "value": "0x0",
        "input": "0x13cec91d0000000000000000000000009ddfaca8183c41ad55329bdeed9f6a8d53168b1b787d74caea10b2b357790d5b5247c2f63d1d91572a9846f780606e4d953677aec1db20cb0e1a6e08198b382012720b3205c8f3cf28237604ec99e9f37ce770dd0000000000000000000000000000000000000000000000000000000000000003000000000000000000000000000000000000000000000000000000000007a1200000000000000000000000000000000000000000000000000000000000000002",
        "nonce": "0x539",
        "chainId": "0xaa36a7"
      },
      "additionalContracts": [],
      "isFixedGasLimit": false
    }
  ],
  "receipts": [
    {
      "status": "0x1",
      "cumulativeGasUsed": "0x68b3d6",
      "logs": [
        {
          "address": "0x18a09608810f87f76061f4e075edc49115194b78",
          "topics": [
            "0x7619eb3b0b2346250e2839a10da35fc58eea3632c6f045e8abffa1864bce2551"
          ],
          "data": "0x000000000000000000000000051cead10fe8ec708b749f77c5aa96eccb40063d",
          "blockHash": "0x750d486db2f07a998b4e1f51b893315b0c5db877757cbd6e2252a6b6905697cd",
          "blockNumber": "0x930d48",
          "blockTimestamp": "0x6918df14",
          "transactionHash": "0x561dc706523721286be7053e144b9df6c86281fedc8ccc921330ad7f81cbac8e",
          "transactionIndex": "0x2a",
          "logIndex": "0x86",
          "removed": false
        }
      ],
      "logsBloom": "0x00000000000000000000000000000000000000000000000000000000000000000000000000000000000000000008000000000000000000000000000000000000000000000000000000000000000000004000000000000000000000800000000000000000000000004000000000000000000000000000000000000000000000000000000000000000000000000000000000000000000000000000000800000000000000000000000000000000000000000000000000000000000000000000000000000000000000000000000000000000000020000000000000000000000000000000000000000000000000000000000000000000000000000000000000000000",
      "type": "0x2",
      "transactionHash": "0x561dc706523721286be7053e144b9df6c86281fedc8ccc921330ad7f81cbac8e",
      "transactionIndex": "0x2a",
      "blockHash": "0x750d486db2f07a998b4e1f51b893315b0c5db877757cbd6e2252a6b6905697cd",
      "blockNumber": "0x930d48",
      "gasUsed": "0x782d",
      "effectiveGasPrice": "0xf4240",
      "from": "0xad9fdad276ab1a430fd03177a07350cd7c61e897",
      "to": "0x18a09608810f87f76061f4e075edc49115194b78",
      "contractAddress": null
    },
    {
      "status": "0x1",
      "cumulativeGasUsed": "0x6932fa",
      "logs": [
        {
          "address": "0x18a09608810f87f76061f4e075edc49115194b78",
          "topics": [
            "0xce5202ecc8b8799ee1618adf9acec1ce2a28f52077ffc9bcdcf6c794f9e0c37a"
          ],
          "data": "0x000000000000000000000000e792a14b2a667ea22808967efdf7b899dbaf5cd0",
          "blockHash": "0x750d486db2f07a998b4e1f51b893315b0c5db877757cbd6e2252a6b6905697cd",
          "blockNumber": "0x930d48",
          "blockTimestamp": "0x6918df14",
          "transactionHash": "0xb1a5f464085560be0824c642c0e17bfbd6b18251aa921178a8e92274193e6e09",
          "transactionIndex": "0x2b",
          "logIndex": "0x87",
          "removed": false
        }
      ],
      "logsBloom": "0x00000000000000000000000000000000000000000000000000000000000000000000000000000000002000000008000000000000000000000000000000000000000000400000000000000000000000000000000000000000000000000000000000000000000000004000000000000000000000000000000000000000000000000000000000000000000000000000000000000000000000000000000000000000000000000000000000000000000000000000000000000000000000000000000000000000000000000000000000000000000020000000000000000000000000000000000000000000000000000000000000000000000008000000000000000000",
      "type": "0x2",
      "transactionHash": "0xb1a5f464085560be0824c642c0e17bfbd6b18251aa921178a8e92274193e6e09",
      "transactionIndex": "0x2b",
      "blockHash": "0x750d486db2f07a998b4e1f51b893315b0c5db877757cbd6e2252a6b6905697cd",
      "blockNumber": "0x930d48",
      "gasUsed": "0x7f24",
      "effectiveGasPrice": "0xf4240",
      "from": "0xad9fdad276ab1a430fd03177a07350cd7c61e897",
      "to": "0x18a09608810f87f76061f4e075edc49115194b78",
      "contractAddress": null
    },
    {
      "status": "0x1",
      "cumulativeGasUsed": "0x699da4",
      "logs": [
        {
          "address": "0xe792a14b2a667ea22808967efdf7b899dbaf5cd0",
          "topics": [
            "0xa27bdd7b0c9c795c64307abe4a8b21d993ec4bd2601c38dfaee5cfc991375ae8",
            "0x00000000000000000000000018a09608810f87f76061f4e075edc49115194b78"
          ],
          "data": "0x",
          "blockHash": "0x750d486db2f07a998b4e1f51b893315b0c5db877757cbd6e2252a6b6905697cd",
          "blockNumber": "0x930d48",
          "blockTimestamp": "0x6918df14",
          "transactionHash": "0xb90a80737d542ce63ffb8db3a3c21dc5dbf36b33d9311be1e9f16d63d98ddd32",
          "transactionIndex": "0x2c",
          "logIndex": "0x88",
          "removed": false
        }
      ],
      "logsBloom": "0x00000000000000000000000000000000000000100000000000000000000000000000000000000000001000000000000000000000000000000000000000000000000000000000000000000000000000000000000000000000000000000000000000000000000000000000000000000000000000000001000000000000200000000000020000000000000000000000000000000000000000000000000000000100000000000000000000000000000000000000000000000000000000000000000000000000100000000000000000000000000000000000000000000000000000000000000000000000000000000000000000000000000000000000000800000002",
      "type": "0x2",
      "transactionHash": "0xb90a80737d542ce63ffb8db3a3c21dc5dbf36b33d9311be1e9f16d63d98ddd32",
      "transactionIndex": "0x2c",
      "blockHash": "0x750d486db2f07a998b4e1f51b893315b0c5db877757cbd6e2252a6b6905697cd",
      "blockNumber": "0x930d48",
      "gasUsed": "0x6aaa",
      "effectiveGasPrice": "0xf4240",
      "from": "0xad9fdad276ab1a430fd03177a07350cd7c61e897",
      "to": "0xe792a14b2a667ea22808967efdf7b899dbaf5cd0",
      "contractAddress": null
    },
    {
      "status": "0x1",
      "cumulativeGasUsed": "0x6a0931",
      "logs": [
        {
          "address": "0x051cead10fe8ec708b749f77c5aa96eccb40063d",
          "topics": [
            "0x602cec4b1583b07d071161da5eb9589444d2459201e2fab7753dc941e9351c21",
            "0x000000000000000000000000e792a14b2a667ea22808967efdf7b899dbaf5cd0"
          ],
          "data": "0x",
          "blockHash": "0x750d486db2f07a998b4e1f51b893315b0c5db877757cbd6e2252a6b6905697cd",
          "blockNumber": "0x930d48",
          "blockTimestamp": "0x6918df14",
          "transactionHash": "0xb274e1b471cbd07baa92765584e039f99091a5ec8a0e2a184f4a82ea370a5245",
          "transactionIndex": "0x2d",
          "logIndex": "0x89",
          "removed": false
        }
      ],
      "logsBloom": "0x00000000000000000010000000000000000000000000000000000000000008000000000000000010000000000000000000000000000000000000100000000000000000000000000000000000000000000000000000000000000000000000000000000020000000000000000000000000000000000000000000000000000000000000000000000000000000000000000002000000000000000000000000000000000000000000000000000000000000000000000000000000000000000000000000001000000000000400000000000000000000000000000000000000000000000000000000002000000000000000000000000000000000000000000000000000",
      "type": "0x2",
      "transactionHash": "0xb274e1b471cbd07baa92765584e039f99091a5ec8a0e2a184f4a82ea370a5245",
      "transactionIndex": "0x2d",
      "blockHash": "0x750d486db2f07a998b4e1f51b893315b0c5db877757cbd6e2252a6b6905697cd",
      "blockNumber": "0x930d48",
      "gasUsed": "0x6b8d",
      "effectiveGasPrice": "0xf4240",
      "from": "0xad9fdad276ab1a430fd03177a07350cd7c61e897",
      "to": "0x051cead10fe8ec708b749f77c5aa96eccb40063d",
      "contractAddress": null
    },
    {
      "status": "0x1",
      "cumulativeGasUsed": "0x6a74d4",
      "logs": [
        {
          "address": "0x051cead10fe8ec708b749f77c5aa96eccb40063d",
          "topics": [
            "0x23a1b510439be15b459a731ae3d1d5a6eac00dcd9433c69442716b282d888ac4",
            "0x00000000000000000000000018a09608810f87f76061f4e075edc49115194b78"
          ],
          "data": "0x",
          "blockHash": "0x750d486db2f07a998b4e1f51b893315b0c5db877757cbd6e2252a6b6905697cd",
          "blockNumber": "0x930d48",
          "blockTimestamp": "0x6918df14",
          "transactionHash": "0xdcea6793b84ab41a535de430968168c496fe52eb9d057b1246747ec544038d62",
          "transactionIndex": "0x2e",
          "logIndex": "0x8a",
          "removed": false
        }
      ],
      "logsBloom": "0x00000000000000000000000000000000000000000000000000000000000008000000000000000010001000000000000000000000000000000000000000000000000000000000000000000000000000000000000000000000000000000000000000000000000000000000000000000000000000000000000000800000000000000000020000000000000000000000000002000000000000000000000000000000000000000000000000000000000000000000000000000000000000000000000000000080000000000000000000000000000000008000000000000000000000000000000000000000000000000000000000000000000000000000000800000000",
      "type": "0x2",
      "transactionHash": "0xdcea6793b84ab41a535de430968168c496fe52eb9d057b1246747ec544038d62",
      "transactionIndex": "0x2e",
      "blockHash": "0x750d486db2f07a998b4e1f51b893315b0c5db877757cbd6e2252a6b6905697cd",
      "blockNumber": "0x930d48",
      "gasUsed": "0x6ba3",
      "effectiveGasPrice": "0xf4240",
      "from": "0xad9fdad276ab1a430fd03177a07350cd7c61e897",
      "to": "0x051cead10fe8ec708b749f77c5aa96eccb40063d",
      "contractAddress": null
    },
    {
      "status": "0x1",
      "cumulativeGasUsed": "0x6add90",
      "logs": [
        {
          "address": "0x051cead10fe8ec708b749f77c5aa96eccb40063d",
          "topics": [
            "0xd464f229795dda56c42369a406dade63ed87a7cc12e4ed0cbd917347cb23285a"
          ],
          "data": "0x0000000000000000000000000000000000000000000000000000000000000001",
          "blockHash": "0x750d486db2f07a998b4e1f51b893315b0c5db877757cbd6e2252a6b6905697cd",
          "blockNumber": "0x930d48",
          "blockTimestamp": "0x6918df14",
          "transactionHash": "0x5b2fb5e34b2f0b50894ca0a0a92cdcef40c321a537ef9ce17a8f9cc6f7cc6a7d",
          "transactionIndex": "0x2f",
          "logIndex": "0x8b",
          "removed": false
        }
      ],
      "logsBloom": "0x00002000000000000000000000000000000000000000000000000000000008000000000000000010000000000000000000000000000000000000000000000000000000000000000000000000000000000000000000000000000000000000000000000000000000000000000000000000000000000000000000000000000000000000001000000000000000000000000002000000000000000000000000000000000000000000000000000000000000000000000000000000000000000000000000000000000000000000000000000000000000000000000000000000000000000000001000000000000000000000000000000000000000000000000000000000",
      "type": "0x2",
      "transactionHash": "0x5b2fb5e34b2f0b50894ca0a0a92cdcef40c321a537ef9ce17a8f9cc6f7cc6a7d",
      "transactionIndex": "0x2f",
      "blockHash": "0x750d486db2f07a998b4e1f51b893315b0c5db877757cbd6e2252a6b6905697cd",
      "blockNumber": "0x930d48",
      "gasUsed": "0x68bc",
      "effectiveGasPrice": "0xf4240",
      "from": "0xad9fdad276ab1a430fd03177a07350cd7c61e897",
      "to": "0x051cead10fe8ec708b749f77c5aa96eccb40063d",
      "contractAddress": null
    },
    {
      "status": "0x1",
      "cumulativeGasUsed": "0x6b7788",
      "logs": [
        {
          "address": "0x18a09608810f87f76061f4e075edc49115194b78",
          "topics": [
            "0xdb916dcd2cdb2972bd841f7aca5eb0597e3ebafd6ff8338eaebe31a6da321e8f",
            "0x0000000000000000000000009ddfaca8183c41ad55329bdeed9f6a8d53168b1b"
          ],
          "data": "0x787d74caea10b2b357790d5b5247c2f63d1d91572a9846f780606e4d953677aec1db20cb0e1a6e08198b382012720b3205c8f3cf28237604ec99e9f37ce770dd0000000000000000000000000000000000000000000000000000000000000003000000000000000000000000000000000000000000000000000000000007a1200000000000000000000000000000000000000000000000000000000000000002",
          "blockHash": "0x750d486db2f07a998b4e1f51b893315b0c5db877757cbd6e2252a6b6905697cd",
          "blockNumber": "0x930d48",
          "blockTimestamp": "0x6918df14",
          "transactionHash": "0x6306ed1a75678356ca6fef67636c269ef4da54f90598c51efe4d369839dac1aa",
          "transactionIndex": "0x30",
          "logIndex": "0x8c",
          "removed": false
        }
      ],
      "logsBloom": "0x00000000000000000000000000000000000000000000000000000000000000000000000000000000000000000008000000000000000000000000000000000000000000000000000000000000000000000000000000000000000000000000000000000000000000004000000000000004000000000000000000000000000000000000000000000000000000000000000000000000000000000000000000000000000000000000000000000000010000000000000000000000000004000000000000000000000000000000000000000000000020002000000000000000000000000010000000000000000000000000000000000200000000000000000000000000",
      "type": "0x2",
      "transactionHash": "0x6306ed1a75678356ca6fef67636c269ef4da54f90598c51efe4d369839dac1aa",
      "transactionIndex": "0x30",
      "blockHash": "0x750d486db2f07a998b4e1f51b893315b0c5db877757cbd6e2252a6b6905697cd",
      "blockNumber": "0x930d48",
      "gasUsed": "0x99f8",
      "effectiveGasPrice": "0xf4240",
      "from": "0xad9fdad276ab1a430fd03177a07350cd7c61e897",
      "to": "0x18a09608810f87f76061f4e075edc49115194b78",
      "contractAddress": null
    }
  ],
  "libraries": [],
  "pending": [],
  "returns": {},
  "timestamp": 1763237654131,
  "chain": 11155111,
  "commit": "0886bee"
}