{
  "transactions": [
    {
      "hash": "0xb4883d60ea1e04cd87f0e3d09586812df25917b5551c7bcc57bfb9bbc884248c",
      "transactionType": "CALL",
      "contractName": null,
      "contractAddress": "0x18a09608810f87f76061f4e075edc49115194b78",
      "function": "setPointsManager(address)",
      "arguments": [
        "0x7538Cf5d33283FfFE105A446ED85e1FA26Aa5640"
      ],
      "transaction": {
        "from": "0xad9fdad276ab1a430fd03177a07350cd7c61e897",
        "to": "0x18a09608810f87f76061f4e075edc49115194b78",
        "gas": "0x12171",
        "value": "0x0",
        "input": "0xcae42a080000000000000000000000007538cf5d33283fffe105a446ed85e1fa26aa5640",
        "nonce": "0x50a",
        "chainId": "0xaa36a7"
      },
      "additionalContracts": [],
      "isFixedGasLimit": false
    },
    {
      "hash": "0x9b69c3bec4138ff2bc8f3926f9b9bfd8f2b662bc21dc8be3ce802d814af484a1",
      "transactionType": "CALL",
      "contractName": null,
      "contractAddress": "0x18a09608810f87f76061f4e075edc49115194b78",
      "function": "setPointsAggregator(address)",
      "arguments": [
        "0xC2ed19efE6400B740E588f1019cdcb87C57694dC"
      ],
      "transaction": {
        "from": "0xad9fdad276ab1a430fd03177a07350cd7c61e897",
        "to": "0x18a09608810f87f76061f4e075edc49115194b78",
        "gas": "0x10be0",
        "value": "0x0",
        "input": "0x2e51d88c000000000000000000000000c2ed19efe6400b740e588f1019cdcb87c57694dc",
        "nonce": "0x50b",
        "chainId": "0xaa36a7"
      },
      "additionalContracts": [],
      "isFixedGasLimit": false
    },
    {
      "hash": "0x55506bae39a9a9465935ba70c600673f1e4813075a0c98f01dee5fc5f5ad191b",
      "transactionType": "CALL",
      "contractName": null,
      "contractAddress": "0xc2ed19efe6400b740e588f1019cdcb87c57694dc",
      "function": "setNftContract(address)",
      "arguments": [
        "0x18a09608810f87f76061F4E075edc49115194B78"
      ],
      "transaction": {
        "from": "0xad9fdad276ab1a430fd03177a07350cd7c61e897",
        "to": "0xc2ed19efe6400b740e588f1019cdcb87c57694dc",
        "gas": "0xabfd",
        "value": "0x0",
        "input": "0x52f5ad7700000000000000000000000018a09608810f87f76061f4e075edc49115194b78",
        "nonce": "0x50c",
        "chainId": "0xaa36a7"
      },
      "additionalContracts": [],
      "isFixedGasLimit": false
    },
    {
      "hash": "0xa700e5ea5705663bd0c6ad415eeec1908b43dae963f05c3c84585b7229fde022",
      "transactionType": "CALL",
      "contractName": null,
      "contractAddress": "0x7538cf5d33283fffe105a446ed85e1fa26aa5640",
      "function": "setAggregator(address)",
      "arguments": [
        "0xC2ed19efE6400B740E588f1019cdcb87C57694dC"
      ],
      "transaction": {
        "from": "0xad9fdad276ab1a430fd03177a07350cd7c61e897",
        "to": "0x7538cf5d33283fffe105a446ed85e1fa26aa5640",
        "gas": "0x948c",
        "value": "0x0",
        "input": "0xf9120af6000000000000000000000000c2ed19efe6400b740e588f1019cdcb87c57694dc",
        "nonce": "0x50d",
        "chainId": "0xaa36a7"
      },
      "additionalContracts": [],
      "isFixedGasLimit": false
    },
    {
      "hash": "0x3ee408c39362663ae9c1d638d2f5ad865de8f87267e5d664b43e498df8023afd",
      "transactionType": "CALL",
      "contractName": null,
      "contractAddress": "0x7538cf5d33283fffe105a446ed85e1fa26aa5640",
      "function": "setRevealQueue(address)",
      "arguments": [
        "0x18a09608810f87f76061F4E075edc49115194B78"
      ],
      "transaction": {
        "from": "0xad9fdad276ab1a430fd03177a07350cd7c61e897",
        "to": "0x7538cf5d33283fffe105a446ed85e1fa26aa5640",
        "gas": "0xad69",
        "value": "0x0",
        "input": "0xfdc8537100000000000000000000000018a09608810f87f76061f4e075edc49115194b78",
        "nonce": "0x50e",
        "chainId": "0xaa36a7"
      },
      "additionalContracts": [],
      "isFixedGasLimit": false
    },
    {
      "hash": "0xa16f10e115802547b378da1c6be61ed017c88a63c455ee82ab3094f995839811",
      "transactionType": "CALL",
      "contractName": null,
      "contractAddress": "0x7538cf5d33283fffe105a446ed85e1fa26aa5640",
      "function": "setPermutationZeroIndexed(bool)",
      "arguments": [
        "true"
      ],
      "transaction": {
        "from": "0xad9fdad276ab1a430fd03177a07350cd7c61e897",
        "to": "0x7538cf5d33283fffe105a446ed85e1fa26aa5640",
        "gas": "0x90a9",
        "value": "0x0",
        "input": "0x0367aa2f0000000000000000000000000000000000000000000000000000000000000001",
        "nonce": "0x50f",
        "chainId": "0xaa36a7"
      },
      "additionalContracts": [],
      "isFixedGasLimit": false
    },
    {
      "hash": "0x0dae9821b87a70de1f5b16d589b2817b847c4fa456cb6c7c5f1d1c2cc82ea98e",
      "transactionType": "CALL",
      "contractName": null,
      "contractAddress": "0x18a09608810f87f76061f4e075edc49115194b78",
      "function": "configureVRF(address,bytes32,uint256,uint16,uint32,uint32)",
      "arguments": [
        "0x9DdfaCa8183c41ad55329BdeeD9F6A8d53168B1B",
        "0x787d74caea10b2b357790d5b5247c2f63d1d91572a9846f780606e4d953677ae",
        "87683545613994394530861784894347546345842400721843250695264552850260639576285",
        "3",
        "500000",
        "2"
      ],
      "transaction": {
        "from": "0xad9fdad276ab1a430fd03177a07350cd7c61e897",
        "to": "0x18a09608810f87f76061f4e075edc49115194b78",
        "gas": "0x225e2",
        "value": "0x0",
        "input": "0x13cec91d0000000000000000000000009ddfaca8183c41ad55329bdeed9f6a8d53168b1b787d74caea10b2b357790d5b5247c2f63d1d91572a9846f780606e4d953677aec1db20cb0e1a6e08198b382012720b3205c8f3cf28237604ec99e9f37ce770dd0000000000000000000000000000000000000000000000000000000000000003000000000000000000000000000000000000000000000000000000000007a1200000000000000000000000000000000000000000000000000000000000000002",
        "nonce": "0x510",
        "chainId": "0xaa36a7"
      },
      "additionalContracts": [],
      "isFixedGasLimit": false
    }
  ],
  "receipts": [
    {
      "status": "0x1",
      "cumulativeGasUsed": "0xa522b4",
      "logs": [
        {
          "address": "0x18a09608810f87f76061f4e075edc49115194b78",
          "topics": [
            "0x7619eb3b0b2346250e2839a10da35fc58eea3632c6f045e8abffa1864bce2551"
          ],
          "data": "0x0000000000000000000000007538cf5d33283fffe105a446ed85e1fa26aa5640",
          "blockHash": "0x912335fbac3fe59b4cc8e5f8e3ae7259c6392100e08441edf3f6254e2d4e4ec0",
          "blockNumber": "0x9309ae",
          "blockTimestamp": "0x6918b0c4",
          "transactionHash": "0xb4883d60ea1e04cd87f0e3d09586812df25917b5551c7bcc57bfb9bbc884248c",
          "transactionIndex": "0x4c",
          "logIndex": "0xee",
          "removed": false
        }
      ],
      "logsBloom": "0x00000000000000000000000000000000000000000000000000000000000000000000000000000000000000000008000000000000000000000000000000000000000000000000000000000000000000004000000000000000000000800000000000000000000000004000000000000000000000000000000000000000000000000000000000000000000000000000000000000000000000000000000800000000000000000000000000000000000000000000000000000000000000000000000000000000000000000000000000000000000020000000000000000000000000000000000000000000000000000000000000000000000000000000000000000000",
      "type": "0x0",
      "transactionHash": "0xb4883d60ea1e04cd87f0e3d09586812df25917b5551c7bcc57bfb9bbc884248c",
      "transactionIndex": "0x4c",
      "blockHash": "0x912335fbac3fe59b4cc8e5f8e3ae7259c6392100e08441edf3f6254e2d4e4ec0",
      "blockNumber": "0x9309ae",
      "gasUsed": "0xc5e9",
      "effectiveGasPrice": "0xf4249",
      "from": "0xad9fdad276ab1a430fd03177a07350cd7c61e897",
      "to": "0x18a09608810f87f76061f4e075edc49115194b78",
      "contractAddress": null
    },
    {
      "status": "0x1",
      "cumulativeGasUsed": "0xa5e4a4",
      "logs": [
        {
          "address": "0x18a09608810f87f76061f4e075edc49115194b78",
          "topics": [
            "0xce5202ecc8b8799ee1618adf9acec1ce2a28f52077ffc9bcdcf6c794f9e0c37a"
          ],
          "data": "0x000000000000000000000000c2ed19efe6400b740e588f1019cdcb87c57694dc",
          "blockHash": "0x912335fbac3fe59b4cc8e5f8e3ae7259c6392100e08441edf3f6254e2d4e4ec0",
          "blockNumber": "0x9309ae",
          "blockTimestamp": "0x6918b0c4",
          "transactionHash": "0x9b69c3bec4138ff2bc8f3926f9b9bfd8f2b662bc21dc8be3ce802d814af484a1",
          "transactionIndex": "0x4d",
          "logIndex": "0xef",
          "removed": false
        }
      ],
      "logsBloom": "0x00000000000000000000000000000000000000000000000000000000000000000000000000000000002000000008000000000000000000000000000000000000000000400000000000000000000000000000000000000000000000000000000000000000000000004000000000000000000000000000000000000000000000000000000000000000000000000000000000000000000000000000000000000000000000000000000000000000000000000000000000000000000000000000000000000000000000000000000000000000000020000000000000000000000000000000000000000000000000000000000000000000000008000000000000000000",
      "type": "0x0",
      "transactionHash": "0x9b69c3bec4138ff2bc8f3926f9b9bfd8f2b662bc21dc8be3ce802d814af484a1",
      "transactionIndex": "0x4d",
      "blockHash": "0x912335fbac3fe59b4cc8e5f8e3ae7259c6392100e08441edf3f6254e2d4e4ec0",
      "blockNumber": "0x9309ae",
      "gasUsed": "0xc1f0",
      "effectiveGasPrice": "0xf4249",
      "from": "0xad9fdad276ab1a430fd03177a07350cd7c61e897",
      "to": "0x18a09608810f87f76061f4e075edc49115194b78",
      "contractAddress": null
    },
    {
      "status": "0x1",
      "cumulativeGasUsed": "0xa65a3e",
      "logs": [
        {
          "address": "0xc2ed19efe6400b740e588f1019cdcb87c57694dc",
          "topics": [
            "0xa27bdd7b0c9c795c64307abe4a8b21d993ec4bd2601c38dfaee5cfc991375ae8",
            "0x00000000000000000000000018a09608810f87f76061f4e075edc49115194b78"
          ],
          "data": "0x",
          "blockHash": "0x912335fbac3fe59b4cc8e5f8e3ae7259c6392100e08441edf3f6254e2d4e4ec0",
          "blockNumber": "0x9309ae",
          "blockTimestamp": "0x6918b0c4",
          "transactionHash": "0x55506bae39a9a9465935ba70c600673f1e4813075a0c98f01dee5fc5f5ad191b",
          "transactionIndex": "0x4e",
          "logIndex": "0xf0",
          "removed": false
        }
      ],
      "logsBloom": "0x00000000000000000000000000000000000000000000000000000000000000000000000000000000001000000000000000000000000000000000000000000000000000000000000000000000000000000000000000000000000000000000000000000000000000000000000200000000000000000000000000000000000000000000020000000000200000000000000000020000000000000000000000000100000000000000000000000000000000000000000000000000000000000000000000000000100000000000000000000000000000000000000000000000000000000000000000000000000000000000000000000000000000000000000800000002",
      "type": "0x0",
      "transactionHash": "0x55506bae39a9a9465935ba70c600673f1e4813075a0c98f01dee5fc5f5ad191b",
      "transactionIndex": "0x4e",
      "blockHash": "0x912335fbac3fe59b4cc8e5f8e3ae7259c6392100e08441edf3f6254e2d4e4ec0",
      "blockNumber": "0x9309ae",
      "gasUsed": "0x759a",
      "effectiveGasPrice": "0xf4249",
      "from": "0xad9fdad276ab1a430fd03177a07350cd7c61e897",
      "to": "0xc2ed19efe6400b740e588f1019cdcb87c57694dc",
      "contractAddress": null
    },
    {
      "status": "0x1",
      "cumulativeGasUsed": "0xa6c5cb",
      "logs": [
        {
          "address": "0x7538cf5d33283fffe105a446ed85e1fa26aa5640",
          "topics": [
            "0x602cec4b1583b07d071161da5eb9589444d2459201e2fab7753dc941e9351c21",
            "0x000000000000000000000000c2ed19efe6400b740e588f1019cdcb87c57694dc"
          ],
          "data": "0x",
          "blockHash": "0x912335fbac3fe59b4cc8e5f8e3ae7259c6392100e08441edf3f6254e2d4e4ec0",
          "blockNumber": "0x9309ae",
          "blockTimestamp": "0x6918b0c4",
          "transactionHash": "0xa700e5ea5705663bd0c6ad415eeec1908b43dae963f05c3c84585b7229fde022",
          "transactionIndex": "0x4f",
          "logIndex": "0xf1",
          "removed": false
        }
      ],
      "logsBloom": "0x00000000000000000000000000000000000000000000000000000000000000000000000000000000000000000000000000000000004000000000100000000000000000000000000000000001000000000000000000000000000000000000000000000020010000000000008000000000000000000000000000000000000000000000000000000000000000000000000000000000000000000000000000000000000000000000000000000000000000000000000000000000000000000000000000000000000000000000000080000000000000000000000000000000000000000000000000002000000000000000000000000000000002000000000000000000",
      "type": "0x0",
      "transactionHash": "0xa700e5ea5705663bd0c6ad415eeec1908b43dae963f05c3c84585b7229fde022",
      "transactionIndex": "0x4f",
      "blockHash": "0x912335fbac3fe59b4cc8e5f8e3ae7259c6392100e08441edf3f6254e2d4e4ec0",
      "blockNumber": "0x9309ae",
      "gasUsed": "0x6b8d",
      "effectiveGasPrice": "0xf4249",
      "from": "0xad9fdad276ab1a430fd03177a07350cd7c61e897",
      "to": "0x7538cf5d33283fffe105a446ed85e1fa26aa5640",
      "contractAddress": null
    },
    {
      "status": "0x1",
      "cumulativeGasUsed": "0xa73c5e",
      "logs": [
        {
          "address": "0x7538cf5d33283fffe105a446ed85e1fa26aa5640",
          "topics": [
            "0x23a1b510439be15b459a731ae3d1d5a6eac00dcd9433c69442716b282d888ac4",
            "0x00000000000000000000000018a09608810f87f76061f4e075edc49115194b78"
          ],
          "data": "0x",
          "blockHash": "0x912335fbac3fe59b4cc8e5f8e3ae7259c6392100e08441edf3f6254e2d4e4ec0",
          "blockNumber": "0x9309ae",
          "blockTimestamp": "0x6918b0c4",
          "transactionHash": "0x3ee408c39362663ae9c1d638d2f5ad865de8f87267e5d664b43e498df8023afd",
          "transactionIndex": "0x50",
          "logIndex": "0xf2",
          "removed": false
        }
      ],
      "logsBloom": "0x00000000000000000000000000000000000000000000000000000000000000000000000000000000001000000000000000000000000000000000000000000000000000000000000000000001000000000000000000000000000000000000000000000000000000000000000000000000000000000000000000800000000000000000020000000000000000000000000000000000000000000000000000000000000000000000000000000000000000000000000000000000000000000000000000000080000000000000000080000000000000008000000000000000000000000000000000000000000000000000000000000000000002000000000800000000",
      "type": "0x0",
      "transactionHash": "0x3ee408c39362663ae9c1d638d2f5ad865de8f87267e5d664b43e498df8023afd",
      "transactionIndex": "0x50",
      "blockHash": "0x912335fbac3fe59b4cc8e5f8e3ae7259c6392100e08441edf3f6254e2d4e4ec0",
      "blockNumber": "0x9309ae",
      "gasUsed": "0x7693",
      "effectiveGasPrice": "0xf4249",
      "from": "0xad9fdad276ab1a430fd03177a07350cd7c61e897",
      "to": "0x7538cf5d33283fffe105a446ed85e1fa26aa5640",
      "contractAddress": null
    },
    {
      "status": "0x1",
      "cumulativeGasUsed": "0xa7a51a",
      "logs": [
        {
          "address": "0x7538cf5d33283fffe105a446ed85e1fa26aa5640",
          "topics": [
            "0xd464f229795dda56c42369a406dade63ed87a7cc12e4ed0cbd917347cb23285a"
          ],
          "data": "0x0000000000000000000000000000000000000000000000000000000000000001",
          "blockHash": "0x912335fbac3fe59b4cc8e5f8e3ae7259c6392100e08441edf3f6254e2d4e4ec0",
          "blockNumber": "0x9309ae",
          "blockTimestamp": "0x6918b0c4",
          "transactionHash": "0xa16f10e115802547b378da1c6be61ed017c88a63c455ee82ab3094f995839811",
          "transactionIndex": "0x51",
          "logIndex": "0xf3",
          "removed": false
        }
      ],
      "logsBloom": "0x00002000000000000000000000000000000000000000000000000000000000000000000000000000000000000000000000000000000000000000000000000000000000000000000000000001000000000000000000000000000000000000000000000000000000000000000000000000000000000000000000000000000000000000001000000000000000000000000000000000000000000000000000000000000000000000000000000000000000000000000000000000000000000000000000000000000000000000000080000000000000000000000000000000000000000000001000000000000000000000000000000000000002000000000000000000",
      "type": "0x0",
      "transactionHash": "0xa16f10e115802547b378da1c6be61ed017c88a63c455ee82ab3094f995839811",
      "transactionIndex": "0x51",
      "blockHash": "0x912335fbac3fe59b4cc8e5f8e3ae7259c6392100e08441edf3f6254e2d4e4ec0",
      "blockNumber": "0x9309ae",
      "gasUsed": "0x68bc",
      "effectiveGasPrice": "0xf4249",
      "from": "0xad9fdad276ab1a430fd03177a07350cd7c61e897",
      "to": "0x7538cf5d33283fffe105a446ed85e1fa26aa5640",
      "contractAddress": null
    },
    {
      "status": "0x1",
      "cumulativeGasUsed": "0xa93336",
      "logs": [
        {
          "address": "0x18a09608810f87f76061f4e075edc49115194b78",
          "topics": [
            "0xdb916dcd2cdb2972bd841f7aca5eb0597e3ebafd6ff8338eaebe31a6da321e8f",
            "0x0000000000000000000000009ddfaca8183c41ad55329bdeed9f6a8d53168b1b"
          ],
          "data": "0x787d74caea10b2b357790d5b5247c2f63d1d91572a9846f780606e4d953677aec1db20cb0e1a6e08198b382012720b3205c8f3cf28237604ec99e9f37ce770dd0000000000000000000000000000000000000000000000000000000000000003000000000000000000000000000000000000000000000000000000000007a1200000000000000000000000000000000000000000000000000000000000000002",
          "blockHash": "0x912335fbac3fe59b4cc8e5f8e3ae7259c6392100e08441edf3f6254e2d4e4ec0",
          "blockNumber": "0x9309ae",
          "blockTimestamp": "0x6918b0c4",
          "transactionHash": "0x0dae9821b87a70de1f5b16d589b2817b847c4fa456cb6c7c5f1d1c2cc82ea98e",
          "transactionIndex": "0x52",
          "logIndex": "0xf4",
          "removed": false
        }
      ],
      "logsBloom": "0x00000000000000000000000000000000000000000000000000000000000000000000000000000000000000000008000000000000000000000000000000000000000000000000000000000000000000000000000000000000000000000000000000000000000000004000000000000004000000000000000000000000000000000000000000000000000000000000000000000000000000000000000000000000000000000000000000000000010000000000000000000000000004000000000000000000000000000000000000000000000020002000000000000000000000000010000000000000000000000000000000000200000000000000000000000000",
      "type": "0x0",
      "transactionHash": "0x0dae9821b87a70de1f5b16d589b2817b847c4fa456cb6c7c5f1d1c2cc82ea98e",
      "transactionIndex": "0x52",
      "blockHash": "0x912335fbac3fe59b4cc8e5f8e3ae7259c6392100e08441edf3f6254e2d4e4ec0",
      "blockNumber": "0x9309ae",
      "gasUsed": "0x18e1c",
      "effectiveGasPrice": "0xf4249",
      "from": "0xad9fdad276ab1a430fd03177a07350cd7c61e897",
      "to": "0x18a09608810f87f76061f4e075edc49115194b78",
      "contractAddress": null
    }
  ],
  "libraries": [],
  "pending": [],
  "returns": {},
  "timestamp": 1763225797114,
  "chain": 11155111,
  "commit": "0886bee"
}