{
  "transactions": [
    {
      "hash": "0x8e85ce4b662dfb4f3dfb3213ce61eafc2ba3f872ee5768c231eae1a98172117a",
      "transactionType": "CALL",
      "contractName": null,
      "contractAddress": "0xfcb43bd05c71c52dbec18814957fd19ab332db4d",
      "function": "setPointsManager(address)",
      "arguments": [
        "0x1D1B77b54E654b943ab5DAD3045d324Ab61492fB"
      ],
      "transaction": {
        "from": "0xad9fdad276ab1a430fd03177a07350cd7c61e897",
        "to": "0xfcb43bd05c71c52dbec18814957fd19ab332db4d",
        "gas": "0xb49f",
        "value": "0x0",
        "input": "0xcae42a080000000000000000000000001d1b77b54e654b943ab5dad3045d324ab61492fb",
        "nonce": "0x321",
        "chainId": "0xaa36a7"
      },
      "additionalContracts": [],
      "isFixedGasLimit": false
    },
    {
      "hash": "0xbae77b116831145b2a5b349e21069d0c9ea0a0a44cdbabbd97f908151def9313",
      "transactionType": "CALL",
      "contractName": null,
      "contractAddress": "0xfcb43bd05c71c52dbec18814957fd19ab332db4d",
      "function": "setPointsAggregator(address)",
      "arguments": [
        "0xcbDD195166e42980F6541214371B4bD2ba6CB1D5"
      ],
      "transaction": {
        "from": "0xad9fdad276ab1a430fd03177a07350cd7c61e897",
        "to": "0xfcb43bd05c71c52dbec18814957fd19ab332db4d",
        "gas": "0x10bc7",
        "value": "0x0",
        "input": "0x2e51d88c000000000000000000000000cbdd195166e42980f6541214371b4bd2ba6cb1d5",
        "nonce": "0x322",
        "chainId": "0xaa36a7"
      },
      "additionalContracts": [],
      "isFixedGasLimit": false
    },
    {
      "hash": "0x03213e28c07e2118c0170b6a88872280afcc57753d1fdb29f69f6e6cc1c08457",
      "transactionType": "CALL",
      "contractName": null,
      "contractAddress": "0xcbdd195166e42980f6541214371b4bd2ba6cb1d5",
      "function": "setNftContract(address)",
      "arguments": [
        "0xfCb43Bd05c71c52DbEC18814957fD19AB332db4D"
      ],
      "transaction": {
        "from": "0xad9fdad276ab1a430fd03177a07350cd7c61e897",
        "to": "0xcbdd195166e42980f6541214371b4bd2ba6cb1d5",
        "gas": "0xab72",
        "value": "0x0",
        "input": "0x52f5ad77000000000000000000000000fcb43bd05c71c52dbec18814957fd19ab332db4d",
        "nonce": "0x323",
        "chainId": "0xaa36a7"
      },
      "additionalContracts": [],
      "isFixedGasLimit": false
    },
    {
      "hash": "0x70f7d743ba0e695d116737b7535f3172d0f487facffc1719839fcb7cfa3078db",
      "transactionType": "CALL",
      "contractName": null,
      "contractAddress": "0x1d1b77b54e654b943ab5dad3045d324ab61492fb",
      "function": "setAggregator(address)",
      "arguments": [
        "0xcbDD195166e42980F6541214371B4bD2ba6CB1D5"
      ],
      "transaction": {
        "from": "0xad9fdad276ab1a430fd03177a07350cd7c61e897",
        "to": "0x1d1b77b54e654b943ab5dad3045d324ab61492fb",
        "gas": "0x948c",
        "value": "0x0",
        "input": "0xf9120af6000000000000000000000000cbdd195166e42980f6541214371b4bd2ba6cb1d5",
        "nonce": "0x324",
        "chainId": "0xaa36a7"
      },
      "additionalContracts": [],
      "isFixedGasLimit": false
    },
    {
      "hash": "0x436bf2675d4aa8a05a87953ba1e2436a3eb94774e706ecbcb535af77074f7ae6",
      "transactionType": "CALL",
      "contractName": null,
      "contractAddress": "0x1d1b77b54e654b943ab5dad3045d324ab61492fb",
      "function": "setRevealQueue(address)",
      "arguments": [
        "0xfCb43Bd05c71c52DbEC18814957fD19AB332db4D"
      ],
      "transaction": {
        "from": "0xad9fdad276ab1a430fd03177a07350cd7c61e897",
        "to": "0x1d1b77b54e654b943ab5dad3045d324ab61492fb",
        "gas": "0xad69",
        "value": "0x0",
        "input": "0xfdc85371000000000000000000000000fcb43bd05c71c52dbec18814957fd19ab332db4d",
        "nonce": "0x325",
        "chainId": "0xaa36a7"
      },
      "additionalContracts": [],
      "isFixedGasLimit": false
    },
    {
      "hash": "0xdf7c32ccbbde41e09ce027599d7f2d1bb1db17fa33d6f027fcd1a17070b10bb2",
      "transactionType": "CALL",
      "contractName": null,
      "contractAddress": "0x1d1b77b54e654b943ab5dad3045d324ab61492fb",
      "function": "setPermutationZeroIndexed(bool)",
      "arguments": [
        "true"
      ],
      "transaction": {
        "from": "0xad9fdad276ab1a430fd03177a07350cd7c61e897",
        "to": "0x1d1b77b54e654b943ab5dad3045d324ab61492fb",
        "gas": "0x90a9",
        "value": "0x0",
        "input": "0x0367aa2f0000000000000000000000000000000000000000000000000000000000000001",
        "nonce": "0x326",
        "chainId": "0xaa36a7"
      },
      "additionalContracts": [],
      "isFixedGasLimit": false
    },
    {
      "hash": "0x9d5ebfb721ae0f6a9c70afa6fe96adc400ca639de2e02db21f4ae93e360c6775",
      "transactionType": "CALL",
      "contractName": null,
      "contractAddress": "0xfcb43bd05c71c52dbec18814957fd19ab332db4d",
      "function": "configureVRF(address,bytes32,uint256,uint16,uint32,uint32)",
      "arguments": [
        "0x9DdfaCa8183c41ad55329BdeeD9F6A8d53168B1B",
        "0x787d74caea10b2b357790d5b5247c2f63d1d91572a9846f780606e4d953677ae",
        "87683545613994394530861784894347546345842400721843250695264552850260639576285",
        "3",
        "500000",
        "2"
      ],
      "transaction": {
        "from": "0xad9fdad276ab1a430fd03177a07350cd7c61e897",
        "to": "0xfcb43bd05c71c52dbec18814957fd19ab332db4d",
        "gas": "0x24622",
        "value": "0x0",
        "input": "0x13cec91d0000000000000000000000009ddfaca8183c41ad55329bdeed9f6a8d53168b1b787d74caea10b2b357790d5b5247c2f63d1d91572a9846f780606e4d953677aec1db20cb0e1a6e08198b382012720b3205c8f3cf28237604ec99e9f37ce770dd0000000000000000000000000000000000000000000000000000000000000003000000000000000000000000000000000000000000000000000000000007a1200000000000000000000000000000000000000000000000000000000000000002",
        "nonce": "0x327",
        "chainId": "0xaa36a7"
      },
      "additionalContracts": [],
      "isFixedGasLimit": false
    }
  ],
  "receipts": [
    {
      "status": "0x1",
      "cumulativeGasUsed": "0xa9a73d",
      "logs": [
        {
          "address": "0xfcb43bd05c71c52dbec18814957fd19ab332db4d",
          "topics": [
            "0x7619eb3b0b2346250e2839a10da35fc58eea3632c6f045e8abffa1864bce2551"
          ],
          "data": "0x0000000000000000000000001d1b77b54e654b943ab5dad3045d324ab61492fb",
          "blockHash": "0xd1be2b95efa9e8a66cea1002f9244b76cc469d991c1ea8a7f1b3ff81b1298fa1",
          "blockNumber": "0x916fd7",
          "blockTimestamp": "0x6904e9d8",
          "transactionHash": "0x8e85ce4b662dfb4f3dfb3213ce61eafc2ba3f872ee5768c231eae1a98172117a",
          "transactionIndex": "0x65",
          "logIndex": "0x9e",
          "removed": false
        }
      ],
      "logsBloom": "0x00000000000000000000000000000000000000000000000000000000000000000000000000000000000000000000000000000000000000000000000000000000000000000000000000000000000000004000000000000000000000800000000000000000000000000000000000000000000000000000000000000000000000000000000000080000000000000004400000000000000000000000000800000000000000000000000000000000000000000000000000000000000000000000000000000000000000000000000000000000000000000000000000000000000000000000000000000000000000000000000000000000000000000000000000000000",
      "type": "0x0",
      "transactionHash": "0x8e85ce4b662dfb4f3dfb3213ce61eafc2ba3f872ee5768c231eae1a98172117a",
      "transactionIndex": "0x65",
      "blockHash": "0xd1be2b95efa9e8a66cea1002f9244b76cc469d991c1ea8a7f1b3ff81b1298fa1",
      "blockNumber": "0x916fd7",
      "gasUsed": "0x82c5",
      "effectiveGasPrice": "0xf4249",
      "from": "0xad9fdad276ab1a430fd03177a07350cd7c61e897",
      "to": "0xfcb43bd05c71c52dbec18814957fd19ab332db4d",
      "contractAddress": null
    },
    {
      "status": "0x1",
      "cumulativeGasUsed": "0xaa691c",
      "logs": [
        {
          "address": "0xfcb43bd05c71c52dbec18814957fd19ab332db4d",
          "topics": [
            "0xce5202ecc8b8799ee1618adf9acec1ce2a28f52077ffc9bcdcf6c794f9e0c37a"
          ],
          "data": "0x000000000000000000000000cbdd195166e42980f6541214371b4bd2ba6cb1d5",
          "blockHash": "0xd1be2b95efa9e8a66cea1002f9244b76cc469d991c1ea8a7f1b3ff81b1298fa1",
          "blockNumber": "0x916fd7",
          "blockTimestamp": "0x6904e9d8",
          "transactionHash": "0xbae77b116831145b2a5b349e21069d0c9ea0a0a44cdbabbd97f908151def9313",
          "transactionIndex": "0x66",
          "logIndex": "0x9f",
          "removed": false
        }
      ],
      "logsBloom": "0x00000000000000000000000000000000000000000000000000000000000000000000000000000000002000000000000000000000000000000000000000000000000000400000000000000000000000000000000000000000000000000000000000000000000000000000000000000000000000000000000000000000000000000000000000080000000000000004400000000000000000000000000000000000000000000000000000000000000000000000000000000000000000000000000000000000000000000000000000000000000000000000000000000000000000000000000000000000000000000000000000000000000008000000000000000000",
      "type": "0x0",
      "transactionHash": "0xbae77b116831145b2a5b349e21069d0c9ea0a0a44cdbabbd97f908151def9313",
      "transactionIndex": "0x66",
      "blockHash": "0xd1be2b95efa9e8a66cea1002f9244b76cc469d991c1ea8a7f1b3ff81b1298fa1",
      "blockNumber": "0x916fd7",
      "gasUsed": "0xc1df",
      "effectiveGasPrice": "0xf4249",
      "from": "0xad9fdad276ab1a430fd03177a07350cd7c61e897",
      "to": "0xfcb43bd05c71c52dbec18814957fd19ab332db4d",
      "contractAddress": null
    },
    {
      "status": "0x1",
      "cumulativeGasUsed": "0xaade57",
      "logs": [
        {
          "address": "0xcbdd195166e42980f6541214371b4bd2ba6cb1d5",
          "topics": [
            "0xa27bdd7b0c9c795c64307abe4a8b21d993ec4bd2601c38dfaee5cfc991375ae8",
            "0x000000000000000000000000fcb43bd05c71c52dbec18814957fd19ab332db4d"
          ],
          "data": "0x",
          "blockHash": "0xd1be2b95efa9e8a66cea1002f9244b76cc469d991c1ea8a7f1b3ff81b1298fa1",
          "blockNumber": "0x916fd7",
          "blockTimestamp": "0x6904e9d8",
          "transactionHash": "0x03213e28c07e2118c0170b6a88872280afcc57753d1fdb29f69f6e6cc1c08457",
          "transactionIndex": "0x67",
          "logIndex": "0xa0",
          "removed": false
        }
      ],
      "logsBloom": "0x00000000000000000000000000000000000000000000000000000000000400000000000000000000000000000000000000000000000000000000000000000000000000000000000000000000000200000000000000000000000000000000008000000000000000000000000000000000000000000000000000000000000000000000000000000000000000000010000000000000000000000000000000000100000000000000000000000000000000000000000000000200000000000000000000000000100000000000000000000000000000000000000000000000000000000000000000000000020000000000000000000000000000000000000000000002",
      "type": "0x0",
      "transactionHash": "0x03213e28c07e2118c0170b6a88872280afcc57753d1fdb29f69f6e6cc1c08457",
      "transactionIndex": "0x67",
      "blockHash": "0xd1be2b95efa9e8a66cea1002f9244b76cc469d991c1ea8a7f1b3ff81b1298fa1",
      "blockNumber": "0x916fd7",
      "gasUsed": "0x753b",
      "effectiveGasPrice": "0xf4249",
      "from": "0xad9fdad276ab1a430fd03177a07350cd7c61e897",
      "to": "0xcbdd195166e42980f6541214371b4bd2ba6cb1d5",
      "contractAddress": null
    },
    {
      "status": "0x1",
      "cumulativeGasUsed": "0xab49e4",
      "logs": [
        {
          "address": "0x1d1b77b54e654b943ab5dad3045d324ab61492fb",
          "topics": [
            "0x602cec4b1583b07d071161da5eb9589444d2459201e2fab7753dc941e9351c21",
            "0x000000000000000000000000cbdd195166e42980f6541214371b4bd2ba6cb1d5"
          ],
          "data": "0x",
          "blockHash": "0xd1be2b95efa9e8a66cea1002f9244b76cc469d991c1ea8a7f1b3ff81b1298fa1",
          "blockNumber": "0x916fd7",
          "blockTimestamp": "0x6904e9d8",
          "transactionHash": "0x70f7d743ba0e695d116737b7535f3172d0f487facffc1719839fcb7cfa3078db",
          "transactionIndex": "0x68",
          "logIndex": "0xa1",
          "removed": false
        }
      ],
      "logsBloom": "0x00000000000000000000000000000000000000000000000000000000000000000000000000000000000000000000000000000000000000000000100000000000000010000000000000000000000000000000000000000000000000000000000000000020000000000000000000000000000000000000000000000000000000000000000000000000000000000000000000000000000000000000000000000000000000000000000000000000000000000000000000000000000000000000000000000020000000000000000000000000000000000000000800000080000080000000000000002000000000000000080000000000000000000000000000000000",
      "type": "0x0",
      "transactionHash": "0x70f7d743ba0e695d116737b7535f3172d0f487facffc1719839fcb7cfa3078db",
      "transactionIndex": "0x68",
      "blockHash": "0xd1be2b95efa9e8a66cea1002f9244b76cc469d991c1ea8a7f1b3ff81b1298fa1",
      "blockNumber": "0x916fd7",
      "gasUsed": "0x6b8d",
      "effectiveGasPrice": "0xf4249",
      "from": "0xad9fdad276ab1a430fd03177a07350cd7c61e897",
      "to": "0x1d1b77b54e654b943ab5dad3045d324ab61492fb",
      "contractAddress": null
    },
    {
      "status": "0x1",
      "cumulativeGasUsed": "0xabc077",
      "logs": [
        {
          "address": "0x1d1b77b54e654b943ab5dad3045d324ab61492fb",
          "topics": [
            "0x23a1b510439be15b459a731ae3d1d5a6eac00dcd9433c69442716b282d888ac4",
            "0x000000000000000000000000fcb43bd05c71c52dbec18814957fd19ab332db4d"
          ],
          "data": "0x",
          "blockHash": "0xd1be2b95efa9e8a66cea1002f9244b76cc469d991c1ea8a7f1b3ff81b1298fa1",
          "blockNumber": "0x916fd7",
          "blockTimestamp": "0x6904e9d8",
          "transactionHash": "0x436bf2675d4aa8a05a87953ba1e2436a3eb94774e706ecbcb535af77074f7ae6",
          "transactionIndex": "0x69",
          "logIndex": "0xa2",
          "removed": false
        }
      ],
      "logsBloom": "0x00000000000000000000000000000000000000000000000000000000000400000000000000000000000000000000000000000000000000000000000000000000000010000000000000000000000200000000000000000000000000000000000000000000000000000000000000000000000000000000000000800000000000000000000000000000000000000000000000000000000000000000000000000000000000000000000000000000000000000000000000000000000000000000000000000080000000000000000000000000000000008000000000000080000000000000000000000000020000000000080000000000000000000000000000000000",
      "type": "0x0",
      "transactionHash": "0x436bf2675d4aa8a05a87953ba1e2436a3eb94774e706ecbcb535af77074f7ae6",
      "transactionIndex": "0x69",
      "blockHash": "0xd1be2b95efa9e8a66cea1002f9244b76cc469d991c1ea8a7f1b3ff81b1298fa1",
      "blockNumber": "0x916fd7",
      "gasUsed": "0x7693",
      "effectiveGasPrice": "0xf4249",
      "from": "0xad9fdad276ab1a430fd03177a07350cd7c61e897",
      "to": "0x1d1b77b54e654b943ab5dad3045d324ab61492fb",
      "contractAddress": null
    },
    {
      "status": "0x1",
      "cumulativeGasUsed": "0xac2933",
      "logs": [
        {
          "address": "0x1d1b77b54e654b943ab5dad3045d324ab61492fb",
          "topics": [
            "0xd464f229795dda56c42369a406dade63ed87a7cc12e4ed0cbd917347cb23285a"
          ],
          "data": "0x0000000000000000000000000000000000000000000000000000000000000001",
          "blockHash": "0xd1be2b95efa9e8a66cea1002f9244b76cc469d991c1ea8a7f1b3ff81b1298fa1",
          "blockNumber": "0x916fd7",
          "blockTimestamp": "0x6904e9d8",
          "transactionHash": "0xdf7c32ccbbde41e09ce027599d7f2d1bb1db17fa33d6f027fcd1a17070b10bb2",
          "transactionIndex": "0x6a",
          "logIndex": "0xa3",
          "removed": false
        }
      ],
      "logsBloom": "0x00002000000000000000000000000000000000000000000000000000000000000000000000000000000000000000000000000000000000000000000000000000000010000000000000000000000000000000000000000000000000000000000000000000000000000000000000000000000000000000000000000000000000000000001000000000000000000000000000000000000000000000000000000000000000000000000000000000000000000000000000000000000000000000000000000000000000000000000000000000000000000000000000000080000000000000001000000000000000000000080000000000000000000000000000000000",
      "type": "0x0",
      "transactionHash": "0xdf7c32ccbbde41e09ce027599d7f2d1bb1db17fa33d6f027fcd1a17070b10bb2",
      "transactionIndex": "0x6a",
      "blockHash": "0xd1be2b95efa9e8a66cea1002f9244b76cc469d991c1ea8a7f1b3ff81b1298fa1",
      "blockNumber": "0x916fd7",
      "gasUsed": "0x68bc",
      "effectiveGasPrice": "0xf4249",
      "from": "0xad9fdad276ab1a430fd03177a07350cd7c61e897",
      "to": "0x1d1b77b54e654b943ab5dad3045d324ab61492fb",
      "contractAddress": null
    },
    {
      "status": "0x1",
      "cumulativeGasUsed": "0xadb73e",
      "logs": [
        {
          "address": "0xfcb43bd05c71c52dbec18814957fd19ab332db4d",
          "topics": [
            "0xdb916dcd2cdb2972bd841f7aca5eb0597e3ebafd6ff8338eaebe31a6da321e8f",
            "0x0000000000000000000000009ddfaca8183c41ad55329bdeed9f6a8d53168b1b"
          ],
          "data": "0x787d74caea10b2b357790d5b5247c2f63d1d91572a9846f780606e4d953677aec1db20cb0e1a6e08198b382012720b3205c8f3cf28237604ec99e9f37ce770dd0000000000000000000000000000000000000000000000000000000000000003000000000000000000000000000000000000000000000000000000000007a1200000000000000000000000000000000000000000000000000000000000000002",
          "blockHash": "0xd1be2b95efa9e8a66cea1002f9244b76cc469d991c1ea8a7f1b3ff81b1298fa1",
          "blockNumber": "0x916fd7",
          "blockTimestamp": "0x6904e9d8",
          "transactionHash": "0x9d5ebfb721ae0f6a9c70afa6fe96adc400ca639de2e02db21f4ae93e360c6775",
          "transactionIndex": "0x6b",
          "logIndex": "0xa4",
          "removed": false
        }
      ],
      "logsBloom": "0x00000000000000000000000000000000000000000000000000000000000000000000000000000000000000000000000000000000000000000000000000000000000000000000000000000000000000000000000000000000000000000000000000000000000000000000000000000004000000000000000000000000000000000000000000080000000000000004400000000000000000000000000000000000000000000000000000000000010000000000000000000000000004000000000000000000000000000000000000000000000000002000000000000000000000000010000000000000000000000000000000000200000000000000000000000000",
      "type": "0x0",
      "transactionHash": "0x9d5ebfb721ae0f6a9c70afa6fe96adc400ca639de2e02db21f4ae93e360c6775",
      "transactionIndex": "0x6b",
      "blockHash": "0xd1be2b95efa9e8a66cea1002f9244b76cc469d991c1ea8a7f1b3ff81b1298fa1",
      "blockNumber": "0x916fd7",
      "gasUsed": "0x18e0b",
      "effectiveGasPrice": "0xf4249",
      "from": "0xad9fdad276ab1a430fd03177a07350cd7c61e897",
      "to": "0xfcb43bd05c71c52dbec18814957fd19ab332db4d",
      "contractAddress": null
    }
  ],
  "libraries": [],
  "pending": [],
  "returns": {},
  "timestamp": 1761929688639,
  "chain": 11155111,
  "commit": "c03d2ed"
}