{
  "transactions": [
    {
      "hash": "0xa372cefc86933b14e34125d6f715125e5d0bb6f697909581b131b87148ffb40b",
      "transactionType": "CALL",
      "contractName": "EveryTwoMillionBlocks",
      "contractAddress": "0x674307b5d8340fa5d6a659d252d6b816bc85997a",
      "function": "setPointsManager(address)",
      "arguments": [
        "0x4db33B926ed4f9B22eb4BFad5ae66bffd27b4a8C"
      ],
      "transaction": {
        "from": "0xad9fdad276ab1a430fd03177a07350cd7c61e897",
        "to": "0x674307b5d8340fa5d6a659d252d6b816bc85997a",
        "gas": "0xb24b",
        "value": "0x0",
        "input": "0xcae42a080000000000000000000000004db33b926ed4f9b22eb4bfad5ae66bffd27b4a8c",
        "nonce": "0x15b",
        "chainId": "0xaa36a7"
      },
      "additionalContracts": [],
      "isFixedGasLimit": false
    },
    {
      "hash": "0xa80b6d0d68086286a1e04e2b4658b4bbeb63d72de6fda4faa7aebf1b44bb58cb",
      "transactionType": "CALL",
      "contractName": null,
      "contractAddress": "0x4db33b926ed4f9b22eb4bfad5ae66bffd27b4a8c",
      "function": "transferOwnership(address)",
      "arguments": [
        "0x2357A289e0a74BA8257D985b0d3e0a41a3A184e7"
      ],
      "transaction": {
        "from": "0xad9fdad276ab1a430fd03177a07350cd7c61e897",
        "to": "0x4db33b926ed4f9b22eb4bfad5ae66bffd27b4a8c",
        "gas": "0x9a13",
        "value": "0x0",
        "input": "0xf2fde38b0000000000000000000000002357a289e0a74ba8257d985b0d3e0a41a3a184e7",
        "nonce": "0x15c",
        "chainId": "0xaa36a7"
      },
      "additionalContracts": [],
      "isFixedGasLimit": false
    },
    {
      "hash": "0x6c8e839267e7967cb24870abfdd8180019c5a08233e6cc499848dec7b35aae2f",
      "transactionType": "CALL",
      "contractName": null,
      "contractAddress": "0x2357a289e0a74ba8257d985b0d3e0a41a3a184e7",
      "function": "addEligibleAsset(address,uint256)",
      "arguments": [
        "0xf97Fd74e8d0195ffAF9209c72Db28b511Ce9D579",
        "1000"
      ],
      "transaction": {
        "from": "0xad9fdad276ab1a430fd03177a07350cd7c61e897",
        "to": "0x2357a289e0a74ba8257d985b0d3e0a41a3a184e7",
        "gas": "0x101cf",
        "value": "0x0",
        "input": "0x642c8148000000000000000000000000f97fd74e8d0195ffaf9209c72db28b511ce9d57900000000000000000000000000000000000000000000000000000000000003e8",
        "nonce": "0x15d",
        "chainId": "0xaa36a7"
      },
      "additionalContracts": [],
      "isFixedGasLimit": false
    }
  ],
  "receipts": [
    {
      "status": "0x1",
      "cumulativeGasUsed": "0x9d29b1",
      "logs": [
        {
          "address": "0x674307b5d8340fa5d6a659d252d6b816bc85997a",
          "topics": [
            "0x7619eb3b0b2346250e2839a10da35fc58eea3632c6f045e8abffa1864bce2551"
          ],
          "data": "0x0000000000000000000000004db33b926ed4f9b22eb4bfad5ae66bffd27b4a8c",
          "blockHash": "0x34804e9d47d9b66d2dac7d0020683c01546890fcb354940f1e17d051bf7a20b1",
          "blockNumber": "0x9078e4",
          "blockTimestamp": "0x68f93c58",
          "transactionHash": "0xa372cefc86933b14e34125d6f715125e5d0bb6f697909581b131b87148ffb40b",
          "transactionIndex": "0x28",
          "logIndex": "0x37",
          "removed": false
        }
      ],
      "logsBloom": "0x00000000000000000000000000000000000000000000000000000000000000000000000000000000000000000000000000000000800000000000000000000000000000000000000000000000000000004000000000000000000000800000000000000000000000000000000008000000000000000000000000000000000000000000000000000000000000000000400000000000000000000000000800000000000000000000000000000000000000000000000000000000000000000000000000000000000000000000000000000000000000000000000000000000000000000000000000000000000000000000000000000000000000000000000000000000",
      "type": "0x2",
      "transactionHash": "0xa372cefc86933b14e34125d6f715125e5d0bb6f697909581b131b87148ffb40b",
      "transactionIndex": "0x28",
      "blockHash": "0x34804e9d47d9b66d2dac7d0020683c01546890fcb354940f1e17d051bf7a20b1",
      "blockNumber": "0x9078e4",
      "gasUsed": "0x8115",
      "effectiveGasPrice": "0xf4249",
      "from": "0xad9fdad276ab1a430fd03177a07350cd7c61e897",
      "to": "0x674307b5d8340fa5d6a659d252d6b816bc85997a",
      "contractAddress": null
    },
    {
      "status": "0x1",
      "cumulativeGasUsed": "0x9d993e",
      "logs": [
        {
          "address": "0x4db33b926ed4f9b22eb4bfad5ae66bffd27b4a8c",
          "topics": [
            "0x8be0079c531659141344cd1fd0a4f28419497f9722a3daafe3b4186f6b6457e0",
            "0x000000000000000000000000ad9fdad276ab1a430fd03177a07350cd7c61e897",
            "0x0000000000000000000000002357a289e0a74ba8257d985b0d3e0a41a3a184e7"
          ],
          "data": "0x",
          "blockHash": "0x34804e9d47d9b66d2dac7d0020683c01546890fcb354940f1e17d051bf7a20b1",
          "blockNumber": "0x9078e4",
          "blockTimestamp": "0x68f93c58",
          "transactionHash": "0xa80b6d0d68086286a1e04e2b4658b4bbeb63d72de6fda4faa7aebf1b44bb58cb",
          "transactionIndex": "0x29",
          "logIndex": "0x38",
          "removed": false
        }
      ],
      "logsBloom": "0x00000000000000000000000000000000000000000000800000800000000000000000000000000000000100000000000000000000000000000000000000000000000000000000004000000000000000000001000000000000000000000000000000000000000000000000001000000000000000000000000000000010000000400000000000000040000000000004000000000000000100000000000000000000000010000000000000000000000000000000000000000000000000000000000000000000000000000000000000000000000000000000000000000000000000000000000000000000000000000000000000000000000000000000000000000000",
      "type": "0x2",
      "transactionHash": "0xa80b6d0d68086286a1e04e2b4658b4bbeb63d72de6fda4faa7aebf1b44bb58cb",
      "transactionIndex": "0x29",
      "blockHash": "0x34804e9d47d9b66d2dac7d0020683c01546890fcb354940f1e17d051bf7a20b1",
      "blockNumber": "0x9078e4",
      "gasUsed": "0x6f8d",
      "effectiveGasPrice": "0xf4249",
      "from": "0xad9fdad276ab1a430fd03177a07350cd7c61e897",
      "to": "0x4db33b926ed4f9b22eb4bfad5ae66bffd27b4a8c",
      "contractAddress": null
    },
    {
      "status": "0x1",
      "cumulativeGasUsed": "0x9e53e5",
      "logs": [
        {
          "address": "0x2357a289e0a74ba8257d985b0d3e0a41a3a184e7",
          "topics": [
            "0x66ace591f7c88075839f4a0246420d0cc8a34cbe9a924cd0e1ca63c336344f4b",
            "0x000000000000000000000000f97fd74e8d0195ffaf9209c72db28b511ce9d579"
          ],
          "data": "0x00000000000000000000000000000000000000000000000000000000000003e8",
          "blockHash": "0x34804e9d47d9b66d2dac7d0020683c01546890fcb354940f1e17d051bf7a20b1",
          "blockNumber": "0x9078e4",
          "blockTimestamp": "0x68f93c58",
          "transactionHash": "0x6c8e839267e7967cb24870abfdd8180019c5a08233e6cc499848dec7b35aae2f",
          "transactionIndex": "0x2a",
          "logIndex": "0x39",
          "removed": false
        }
      ],
      "logsBloom": "0x00000000000000000000000000200000000000000000000000000000008000000000000000000000200000000000000000000000000000002000000000000000008000000000000000200000000000000000000000000000000000000000000000000000000000000000000000000000000000000000000000000000000000000000000000000000000000000000000000000000000000000000000000000000000000000000000000000000000000000000000020000000000000000000400000000400000000000000000000000000000000000000000000000000000000000000000000000000000000000000000000000000000000000000000000000000",
      "type": "0x2",
      "transactionHash": "0x6c8e839267e7967cb24870abfdd8180019c5a08233e6cc499848dec7b35aae2f",
      "transactionIndex": "0x2a",
      "blockHash": "0x34804e9d47d9b66d2dac7d0020683c01546890fcb354940f1e17d051bf7a20b1",
      "blockNumber": "0x9078e4",
      "gasUsed": "0xbaa7",
      "effectiveGasPrice": "0xf4249",
      "from": "0xad9fdad276ab1a430fd03177a07350cd7c61e897",
      "to": "0x2357a289e0a74ba8257d985b0d3e0a41a3a184e7",
      "contractAddress": null
    }
  ],
  "libraries": [],
  "pending": [],
  "returns": {},
  "timestamp": 1761164377142,
  "chain": 11155111,
  "commit": "c03d2ed"
}