{
  "transactions": [
    {
      "hash": "0x59ce742e8e41a57619bdddab3d8c80c9e8cdf3b9f9acd533b22072ca12d5a8b0",
      "transactionType": "CALL",
      "contractName": "EveryTwoMillionBlocks",
      "contractAddress": "0x674307b5d8340fa5d6a659d252d6b816bc85997a",
      "function": "setPointsManager(address)",
      "arguments": [
        "0xBD14695f8103ED211aF227037bD2aFb51A29F6aE"
      ],
      "transaction": {
        "from": "0xad9fdad276ab1a430fd03177a07350cd7c61e897",
        "to": "0x674307b5d8340fa5d6a659d252d6b816bc85997a",
        "gas": "0xa32f",
        "value": "0x0",
        "input": "0xcae42a08000000000000000000000000bd14695f8103ed211af227037bd2afb51a29f6ae",
        "nonce": "0x14a",
        "chainId": "0xaa36a7"
      },
      "additionalContracts": [],
      "isFixedGasLimit": false
    },
    {
      "hash": "0xbb0eba2e8d03c3efb4f90275f94fec14617463eaa2ad61f6e27339528480bd37",
      "transactionType": "CALL",
      "contractName": null,
      "contractAddress": "0xbd14695f8103ed211af227037bd2afb51a29f6ae",
      "function": "transferOwnership(address)",
      "arguments": [
        "0x3b60151Dd20984bDF73B31f7ab44F05253b210a0"
      ],
      "transaction": {
        "from": "0xad9fdad276ab1a430fd03177a07350cd7c61e897",
        "to": "0xbd14695f8103ed211af227037bd2afb51a29f6ae",
        "gas": "0x9a13",
        "value": "0x0",
        "input": "0xf2fde38b0000000000000000000000003b60151dd20984bdf73b31f7ab44f05253b210a0",
        "nonce": "0x14b",
        "chainId": "0xaa36a7"
      },
      "additionalContracts": [],
      "isFixedGasLimit": false
    },
    {
      "hash": "0xf1c4ca2e070d23f0d76b77a1b08875c75c8f2d630982e4d871f33f4eafb449d1",
      "transactionType": "CALL",
      "contractName": null,
      "contractAddress": "0x3b60151dd20984bdf73b31f7ab44f05253b210a0",
      "function": "addEligibleAsset(address,uint256)",
      "arguments": [
        "0xf97Fd74e8d0195ffAF9209c72Db28b511Ce9D579",
        "1000"
      ],
      "transaction": {
        "from": "0xad9fdad276ab1a430fd03177a07350cd7c61e897",
        "to": "0x3b60151dd20984bdf73b31f7ab44f05253b210a0",
        "gas": "0x9f4a",
        "value": "0x0",
        "input": "0x642c8148000000000000000000000000f97fd74e8d0195ffaf9209c72db28b511ce9d57900000000000000000000000000000000000000000000000000000000000003e8",
        "nonce": "0x14c",
        "chainId": "0xaa36a7"
      },
      "additionalContracts": [],
      "isFixedGasLimit": false
    }
  ],
  "receipts": [
    {
      "status": "0x1",
      "cumulativeGasUsed": "0xc34dba",
      "logs": [
        {
          "address": "0x674307b5d8340fa5d6a659d252d6b816bc85997a",
          "topics": [
            "0x7619eb3b0b2346250e2839a10da35fc58eea3632c6f045e8abffa1864bce2551"
          ],
          "data": "0x000000000000000000000000bd14695f8103ed211af227037bd2afb51a29f6ae",
          "blockHash": "0x21e316342d9c9e4534912a59f1c427c3407d35bf93452b0f273eb5a0e2fd8822",
          "blockNumber": "0x907800",
          "blockTimestamp": "0x68f931a8",
          "transactionHash": "0x59ce742e8e41a57619bdddab3d8c80c9e8cdf3b9f9acd533b22072ca12d5a8b0",
          "transactionIndex": "0x2b",
          "logIndex": "0x6d",
          "removed": false
        }
      ],
      "logsBloom": "0x00000000000000000000000000000000000000000000000000000000000000000000000000000000000000000000000000000000800000000000000000000000000000000000000000000000000000004000000000000000000000800000000000000000000000000000000008000000000000000000000000000000000000000000000000000000000000000000400000000000000000000000000800000000000000000000000000000000000000000000000000000000000000000000000000000000000000000000000000000000000000000000000000000000000000000000000000000000000000000000000000000000000000000000000000000000",
      "type": "0x2",
      "transactionHash": "0x59ce742e8e41a57619bdddab3d8c80c9e8cdf3b9f9acd533b22072ca12d5a8b0",
      "transactionIndex": "0x2b",
      "blockHash": "0x21e316342d9c9e4534912a59f1c427c3407d35bf93452b0f273eb5a0e2fd8822",
      "blockNumber": "0x907800",
      "gasUsed": "0x7625",
      "effectiveGasPrice": "0xf4249",
      "from": "0xad9fdad276ab1a430fd03177a07350cd7c61e897",
      "to": "0x674307b5d8340fa5d6a659d252d6b816bc85997a",
      "contractAddress": null
    },
    {
      "status": "0x1",
      "cumulativeGasUsed": "0xc3bd47",
      "logs": [
        {
          "address": "0xbd14695f8103ed211af227037bd2afb51a29f6ae",
          "topics": [
            "0x8be0079c531659141344cd1fd0a4f28419497f9722a3daafe3b4186f6b6457e0",
            "0x000000000000000000000000ad9fdad276ab1a430fd03177a07350cd7c61e897",
            "0x0000000000000000000000003b60151dd20984bdf73b31f7ab44f05253b210a0"
          ],
          "data": "0x",
          "blockHash": "0x21e316342d9c9e4534912a59f1c427c3407d35bf93452b0f273eb5a0e2fd8822",
          "blockNumber": "0x907800",
          "blockTimestamp": "0x68f931a8",
          "transactionHash": "0xbb0eba2e8d03c3efb4f90275f94fec14617463eaa2ad61f6e27339528480bd37",
          "transactionIndex": "0x2c",
          "logIndex": "0x6e",
          "removed": false
        }
      ],
      "logsBloom": "0x00000002000000200000000000000000000000000000000400800000200000000000000000000000000000000000000000000000000000000000000000000000000000000000004000000000000000000001000000000000000000000000000000000000000000000000000000000000000000000000000000000000000000400000000000000040000004000000000000000000000000000000000000000000000010000000000000000000000000000000000000000000000000000000000000000000000000000000000000000000040000000000000000000000000000000000000000000000000000000000000000000000000000000000000000000000",
      "type": "0x2",
      "transactionHash": "0xbb0eba2e8d03c3efb4f90275f94fec14617463eaa2ad61f6e27339528480bd37",
      "transactionIndex": "0x2c",
      "blockHash": "0x21e316342d9c9e4534912a59f1c427c3407d35bf93452b0f273eb5a0e2fd8822",
      "blockNumber": "0x907800",
      "gasUsed": "0x6f8d",
      "effectiveGasPrice": "0xf4249",
      "from": "0xad9fdad276ab1a430fd03177a07350cd7c61e897",
      "to": "0xbd14695f8103ed211af227037bd2afb51a29f6ae",
      "contractAddress": null
    },
    {
      "status": "0x1",
      "cumulativeGasUsed": "0xc42a32",
      "logs": [
        {
          "address": "0x3b60151dd20984bdf73b31f7ab44f05253b210a0",
          "topics": [
            "0x66ace591f7c88075839f4a0246420d0cc8a34cbe9a924cd0e1ca63c336344f4b",
            "0x000000000000000000000000f97fd74e8d0195ffaf9209c72db28b511ce9d579"
          ],
          "data": "0x00000000000000000000000000000000000000000000000000000000000003e8",
          "blockHash": "0x21e316342d9c9e4534912a59f1c427c3407d35bf93452b0f273eb5a0e2fd8822",
          "blockNumber": "0x907800",
          "blockTimestamp": "0x68f931a8",
          "transactionHash": "0xf1c4ca2e070d23f0d76b77a1b08875c75c8f2d630982e4d871f33f4eafb449d1",
          "transactionIndex": "0x2d",
          "logIndex": "0x6f",
          "removed": false
        }
      ],
      "logsBloom": "0x00000000000000000000000000200000000000000000000000000000000000000000000000000000200000000000000000000000000000002000000000000000008000000000000000080000000000000000000000000000000000000000000000000000000010000000000000000000001000000000000000000000000000000000000000000000000000000000000000000000000000000000000000000000000000000000000000000000000000000000000000000000000000000000400000000400000000000000000000000000000000000000000000000000000000000000000000000000000000000000000000000000000000000000000000000000",
      "type": "0x2",
      "transactionHash": "0xf1c4ca2e070d23f0d76b77a1b08875c75c8f2d630982e4d871f33f4eafb449d1",
      "transactionIndex": "0x2d",
      "blockHash": "0x21e316342d9c9e4534912a59f1c427c3407d35bf93452b0f273eb5a0e2fd8822",
      "blockNumber": "0x907800",
      "gasUsed": "0x6ceb",
      "effectiveGasPrice": "0xf4249",
      "from": "0xad9fdad276ab1a430fd03177a07350cd7c61e897",
      "to": "0x3b60151dd20984bdf73b31f7ab44f05253b210a0",
      "contractAddress": null
    }
  ],
  "libraries": [],
  "pending": [],
  "returns": {},
  "timestamp": 1761161641130,
  "chain": 11155111,
  "commit": "c03d2ed"
}