{
  "transactions": [
    {
      "hash": "0xdf03b28fa03dac3ca9fa7807c9029dbc813de223f6c110d2f252273eac292cc1",
      "transactionType": "CALL",
      "contractName": "EveryTwoMillionBlocks",
      "contractAddress": "0x674307b5d8340fa5d6a659d252d6b816bc85997a",
      "function": "setPointsManager(address)",
      "arguments": [
        "0xE2193cCb77D19b47b9Fb6E28F8cb4c643572d3ed"
      ],
      "transaction": {
        "from": "0xad9fdad276ab1a430fd03177a07350cd7c61e897",
        "to": "0x674307b5d8340fa5d6a659d252d6b816bc85997a",
        "gas": "0xb24b",
        "value": "0x0",
        "input": "0xcae42a08000000000000000000000000e2193ccb77d19b47b9fb6e28f8cb4c643572d3ed",
        "nonce": "0x178",
        "chainId": "0xaa36a7"
      },
      "additionalContracts": [],
      "isFixedGasLimit": false
    },
    {
      "hash": "0xe5b18861d8c9d4443cc723ccc1f1f441386dff5cfa62a5523f25b3befab72ccb",
      "transactionType": "CALL",
      "contractName": null,
      "contractAddress": "0x0a352c461f2644e86ad1fe36a92e629aade5c391",
      "function": "addEligibleAsset(address,uint256)",
      "arguments": [
        "0xf97Fd74e8d0195ffAF9209c72Db28b511Ce9D579",
        "1000"
      ],
      "transaction": {
        "from": "0xad9fdad276ab1a430fd03177a07350cd7c61e897",
        "to": "0x0a352c461f2644e86ad1fe36a92e629aade5c391",
        "gas": "0x101cf",
        "value": "0x0",
        "input": "0x642c8148000000000000000000000000f97fd74e8d0195ffaf9209c72db28b511ce9d57900000000000000000000000000000000000000000000000000000000000003e8",
        "nonce": "0x179",
        "chainId": "0xaa36a7"
      },
      "additionalContracts": [],
      "isFixedGasLimit": false
    }
  ],
  "receipts": [
    {
      "status": "0x1",
      "cumulativeGasUsed": "0x6666c5",
      "logs": [
        {
          "address": "0x674307b5d8340fa5d6a659d252d6b816bc85997a",
          "topics": [
            "0x7619eb3b0b2346250e2839a10da35fc58eea3632c6f045e8abffa1864bce2551"
          ],
          "data": "0x000000000000000000000000e2193ccb77d19b47b9fb6e28f8cb4c643572d3ed",
          "blockHash": "0x655d21a09e15573b2023836d91cdbe161082633db799cd38df4a7929732e86e2",
          "blockNumber": "0x907a04",
          "blockTimestamp": "0x68f949d8",
          "transactionHash": "0xdf03b28fa03dac3ca9fa7807c9029dbc813de223f6c110d2f252273eac292cc1",
          "transactionIndex": "0x31",
          "logIndex": "0x43",
          "removed": false
        }
      ],
      "logsBloom": "0x00000000000000000000000000000000000000000000000000000000000000000000000000000000000000000000000000000000800000000000000000000000000000000000000000000000000000004000000000000000000000800000000000000000000000000000000008000000000000000000000000000000000000000000000000000000000000000000400000000000000000000000000800000000000000000000000000000000000000000000000000000000000000000000000000000000000000000000000000000000000000000000000000000000000000000000000000000000000000000000000000000000000000000000000000000000",
      "type": "0x2",
      "transactionHash": "0xdf03b28fa03dac3ca9fa7807c9029dbc813de223f6c110d2f252273eac292cc1",
      "transactionIndex": "0x31",
      "blockHash": "0x655d21a09e15573b2023836d91cdbe161082633db799cd38df4a7929732e86e2",
      "blockNumber": "0x907a04",
      "gasUsed": "0x8115",
      "effectiveGasPrice": "0xf4249",
      "from": "0xad9fdad276ab1a430fd03177a07350cd7c61e897",
      "to": "0x674307b5d8340fa5d6a659d252d6b816bc85997a",
      "contractAddress": null
    },
    {
      "status": "0x1",
      "cumulativeGasUsed": "0x67216c",
      "logs": [
        {
          "address": "0x0a352c461f2644e86ad1fe36a92e629aade5c391",
          "topics": [
            "0x66ace591f7c88075839f4a0246420d0cc8a34cbe9a924cd0e1ca63c336344f4b",
            "0x000000000000000000000000f97fd74e8d0195ffaf9209c72db28b511ce9d579"
          ],
          "data": "0x00000000000000000000000000000000000000000000000000000000000003e8",
          "blockHash": "0x655d21a09e15573b2023836d91cdbe161082633db799cd38df4a7929732e86e2",
          "blockNumber": "0x907a04",
          "blockTimestamp": "0x68f949d8",
          "transactionHash": "0xe5b18861d8c9d4443cc723ccc1f1f441386dff5cfa62a5523f25b3befab72ccb",
          "transactionIndex": "0x32",
          "logIndex": "0x44",
          "removed": false
        }
      ],
      "logsBloom": "0x00000000000000000000000000200000000000000000000000000000000000000000000000000000200000000000000000000000000000002000000000000000008000000000000000000000000000000000000000000000000000000000000000000000000000000000000000000000000000000000000000000000000000000000000000000000000000000000000000000008000000000000000000000000000000000000000000000000000000004000000000000000100000000000400000000400000000000000000000000000000000000000000000000000000000000000000000000000000000000000000000000000000000000000000000000000",
      "type": "0x2",
      "transactionHash": "0xe5b18861d8c9d4443cc723ccc1f1f441386dff5cfa62a5523f25b3befab72ccb",
      "transactionIndex": "0x32",
      "blockHash": "0x655d21a09e15573b2023836d91cdbe161082633db799cd38df4a7929732e86e2",
      "blockNumber": "0x907a04",
      "gasUsed": "0xbaa7",
      "effectiveGasPrice": "0xf4249",
      "from": "0xad9fdad276ab1a430fd03177a07350cd7c61e897",
      "to": "0x0a352c461f2644e86ad1fe36a92e629aade5c391",
      "contractAddress": null
    }
  ],
  "libraries": [],
  "pending": [],
  "returns": {},
  "timestamp": 1761167833309,
  "chain": 11155111,
  "commit": "c03d2ed"
}