{
  "transactions": [
    {
      "hash": "0x29c3a4fd5d150435effd850e5309b7da7a654fb2759e55eeb6f0de9dc1eb9008",
      "transactionType": "CALL",
      "contractName": "EveryTwoMillionBlocks",
      "contractAddress": "0x674307b5d8340fa5d6a659d252d6b816bc85997a",
      "function": "setPointsManager(address)",
      "arguments": [
        "0xfDb7b81cdF75e5E8e181BC40DA739c1d6501C0D0"
      ],
      "transaction": {
        "from": "0xad9fdad276ab1a430fd03177a07350cd7c61e897",
        "to": "0x674307b5d8340fa5d6a659d252d6b816bc85997a",
        "gas": "0xa32f",
        "value": "0x0",
        "input": "0xcae42a08000000000000000000000000fdb7b81cdf75e5e8e181bc40da739c1d6501c0d0",
        "nonce": "0x169",
        "chainId": "0xaa36a7"
      },
      "additionalContracts": [],
      "isFixedGasLimit": false
    },
    {
      "hash": "0x2192b23ffa4ef932a8319fb53201d0e1a238359b7229bad6e8a516f167b991c4",
      "transactionType": "CALL",
      "contractName": null,
      "contractAddress": "0x3f372b69ab23b306be825f21d410a1b8f16dc812",
      "function": "addEligibleAsset(address,uint256)",
      "arguments": [
        "0xf97Fd74e8d0195ffAF9209c72Db28b511Ce9D579",
        "1000"
      ],
      "transaction": {
        "from": "0xad9fdad276ab1a430fd03177a07350cd7c61e897",
        "to": "0x3f372b69ab23b306be825f21d410a1b8f16dc812",
        "gas": "0x101cf",
        "value": "0x0",
        "input": "0x642c8148000000000000000000000000f97fd74e8d0195ffaf9209c72db28b511ce9d57900000000000000000000000000000000000000000000000000000000000003e8",
        "nonce": "0x16a",
        "chainId": "0xaa36a7"
      },
      "additionalContracts": [],
      "isFixedGasLimit": false
    }
  ],
  "receipts": [
    {
      "status": "0x1",
      "cumulativeGasUsed": "0xe9099e",
      "logs": [
        {
          "address": "0x674307b5d8340fa5d6a659d252d6b816bc85997a",
          "topics": [
            "0x7619eb3b0b2346250e2839a10da35fc58eea3632c6f045e8abffa1864bce2551"
          ],
          "data": "0x000000000000000000000000fdb7b81cdf75e5e8e181bc40da739c1d6501c0d0",
          "blockHash": "0x5b62b267b06d15801cff54d1e8d83a5e7f2a394f648111042f7ca2f086301d89",
          "blockNumber": "0x907937",
          "blockTimestamp": "0x68f9403c",
          "transactionHash": "0x29c3a4fd5d150435effd850e5309b7da7a654fb2759e55eeb6f0de9dc1eb9008",
          "transactionIndex": "0x47",
          "logIndex": "0x6e",
          "removed": false
        }
      ],
      "logsBloom": "0x00000000000000000000000000000000000000000000000000000000000000000000000000000000000000000000000000000000800000000000000000000000000000000000000000000000000000004000000000000000000000800000000000000000000000000000000008000000000000000000000000000000000000000000000000000000000000000000400000000000000000000000000800000000000000000000000000000000000000000000000000000000000000000000000000000000000000000000000000000000000000000000000000000000000000000000000000000000000000000000000000000000000000000000000000000000",
      "type": "0x2",
      "transactionHash": "0x29c3a4fd5d150435effd850e5309b7da7a654fb2759e55eeb6f0de9dc1eb9008",
      "transactionIndex": "0x47",
      "blockHash": "0x5b62b267b06d15801cff54d1e8d83a5e7f2a394f648111042f7ca2f086301d89",
      "blockNumber": "0x907937",
      "gasUsed": "0x7625",
      "effectiveGasPrice": "0xf4244",
      "from": "0xad9fdad276ab1a430fd03177a07350cd7c61e897",
      "to": "0x674307b5d8340fa5d6a659d252d6b816bc85997a",
      "contractAddress": null
    },
    {
      "status": "0x1",
      "cumulativeGasUsed": "0xe9c445",
      "logs": [
        {
          "address": "0x3f372b69ab23b306be825f21d410a1b8f16dc812",
          "topics": [
            "0x66ace591f7c88075839f4a0246420d0cc8a34cbe9a924cd0e1ca63c336344f4b",
            "0x000000000000000000000000f97fd74e8d0195ffaf9209c72db28b511ce9d579"
          ],
          "data": "0x00000000000000000000000000000000000000000000000000000000000003e8",
          "blockHash": "0x5b62b267b06d15801cff54d1e8d83a5e7f2a394f648111042f7ca2f086301d89",
          "blockNumber": "0x907937",
          "blockTimestamp": "0x68f9403c",
          "transactionHash": "0x2192b23ffa4ef932a8319fb53201d0e1a238359b7229bad6e8a516f167b991c4",
          "transactionIndex": "0x48",
          "logIndex": "0x6f",
          "removed": false
        }
      ],
      "logsBloom": "0x00000000000000000000000000200000000000010000000000000000000000000000000000000000200000000000000000000000000000002002000000000000008000000000000000000000000000000000000000000000000000000000000000000000000000000000000000000000000000000000000000000000000000000000000000000000000000000000000000000000000000000000000000000000000000004000000000000000000000000000000000000000000000000000400000000400000000000000000000000000000000000000000000000000000000000000000000000000000000000000000000000000000000000000000000000000",
      "type": "0x2",
      "transactionHash": "0x2192b23ffa4ef932a8319fb53201d0e1a238359b7229bad6e8a516f167b991c4",
      "transactionIndex": "0x48",
      "blockHash": "0x5b62b267b06d15801cff54d1e8d83a5e7f2a394f648111042f7ca2f086301d89",
      "blockNumber": "0x907937",
      "gasUsed": "0xbaa7",
      "effectiveGasPrice": "0xf4244",
      "from": "0xad9fdad276ab1a430fd03177a07350cd7c61e897",
      "to": "0x3f372b69ab23b306be825f21d410a1b8f16dc812",
      "contractAddress": null
    }
  ],
  "libraries": [],
  "pending": [],
  "returns": {},
  "timestamp": 1761165372902,
  "chain": 11155111,
  "commit": "c03d2ed"
}