{
  "transactions": [
    {
      "hash": "0xcc0190694c11892ac76f6c46484123299cc33dd1be18c8964f5b1fa35745ade7",
      "transactionType": "CALL",
      "contractName": "EveryTwoMillionBlocks",
      "contractAddress": "0x674307b5d8340fa5d6a659d252d6b816bc85997a",
      "function": "setPointsManager(address)",
      "arguments": [
        "0xfDb7b81cdF75e5E8e181BC40DA739c1d6501C0D0"
      ],
      "transaction": {
        "from": "0xad9fdad276ab1a430fd03177a07350cd7c61e897",
        "to": "0x674307b5d8340fa5d6a659d252d6b816bc85997a",
        "gas": "0xb24b",
        "value": "0x0",
        "input": "0xcae42a08000000000000000000000000fdb7b81cdf75e5e8e181bc40da739c1d6501c0d0",
        "nonce": "0x164",
        "chainId": "0xaa36a7"
      },
      "additionalContracts": [],
      "isFixedGasLimit": false
    },
    {
      "hash": "0x304acbdacf00f96f10121b9f71d941b0480147a157af6590431b09261f8d34f8",
      "transactionType": "CALL",
      "contractName": null,
      "contractAddress": "0x52aa140e6d8431f433ac07eceada5349e8a4b641",
      "function": "addEligibleAsset(address,uint256)",
      "arguments": [
        "0xf97Fd74e8d0195ffAF9209c72Db28b511Ce9D579",
        "1000"
      ],
      "transaction": {
        "from": "0xad9fdad276ab1a430fd03177a07350cd7c61e897",
        "to": "0x52aa140e6d8431f433ac07eceada5349e8a4b641",
        "gas": "0x101cf",
        "value": "0x0",
        "input": "0x642c8148000000000000000000000000f97fd74e8d0195ffaf9209c72db28b511ce9d57900000000000000000000000000000000000000000000000000000000000003e8",
        "nonce": "0x165",
        "chainId": "0xaa36a7"
      },
      "additionalContracts": [],
      "isFixedGasLimit": false
    }
  ],
  "receipts": [
    {
      "status": "0x1",
      "cumulativeGasUsed": "0x461649",
      "logs": [
        {
          "address": "0x674307b5d8340fa5d6a659d252d6b816bc85997a",
          "topics": [
            "0x7619eb3b0b2346250e2839a10da35fc58eea3632c6f045e8abffa1864bce2551"
          ],
          "data": "0x000000000000000000000000fdb7b81cdf75e5e8e181bc40da739c1d6501c0d0",
          "blockHash": "0xfe5fb0444f2f38c43fcbe7bbbd0d45c46d97775a2f5b8038db5510fb87a50086",
          "blockNumber": "0x907917",
          "blockTimestamp": "0x68f93ebc",
          "transactionHash": "0xcc0190694c11892ac76f6c46484123299cc33dd1be18c8964f5b1fa35745ade7",
          "transactionIndex": "0x36",
          "logIndex": "0x6d",
          "removed": false
        }
      ],
      "logsBloom": "0x00000000000000000000000000000000000000000000000000000000000000000000000000000000000000000000000000000000800000000000000000000000000000000000000000000000000000004000000000000000000000800000000000000000000000000000000008000000000000000000000000000000000000000000000000000000000000000000400000000000000000000000000800000000000000000000000000000000000000000000000000000000000000000000000000000000000000000000000000000000000000000000000000000000000000000000000000000000000000000000000000000000000000000000000000000000",
      "type": "0x2",
      "transactionHash": "0xcc0190694c11892ac76f6c46484123299cc33dd1be18c8964f5b1fa35745ade7",
      "transactionIndex": "0x36",
      "blockHash": "0xfe5fb0444f2f38c43fcbe7bbbd0d45c46d97775a2f5b8038db5510fb87a50086",
      "blockNumber": "0x907917",
      "gasUsed": "0x8115",
      "effectiveGasPrice": "0xf4249",
      "from": "0xad9fdad276ab1a430fd03177a07350cd7c61e897",
      "to": "0x674307b5d8340fa5d6a659d252d6b816bc85997a",
      "contractAddress": null
    },
    {
      "status": "0x1",
      "cumulativeGasUsed": "0x46d0f0",
      "logs": [
        {
          "address": "0x52aa140e6d8431f433ac07eceada5349e8a4b641",
          "topics": [
            "0x66ace591f7c88075839f4a0246420d0cc8a34cbe9a924cd0e1ca63c336344f4b",
            "0x000000000000000000000000f97fd74e8d0195ffaf9209c72db28b511ce9d579"
          ],
          "data": "0x00000000000000000000000000000000000000000000000000000000000003e8",
          "blockHash": "0xfe5fb0444f2f38c43fcbe7bbbd0d45c46d97775a2f5b8038db5510fb87a50086",
          "blockNumber": "0x907917",
          "blockTimestamp": "0x68f93ebc",
          "transactionHash": "0x304acbdacf00f96f10121b9f71d941b0480147a157af6590431b09261f8d34f8",
          "transactionIndex": "0x37",
          "logIndex": "0x6e",
          "removed": false
        }
      ],
      "logsBloom": "0x00000400000000000000000000200000000000000000000000000000000000000000000000000000200000000000000000000000000000002000000000000000008000000000000000000000000000000000000000000000000000000000000000000000000000000000000000000000004000000000000000000000000000000000000000000000000000000000000000000000000000000001000000000000000000000000000000000000000000000000000000000000000000000000400000000400000000000000000000000000000000000000000000000000000000000000000000000000000000000000000000000000000000000000000000000000",
      "type": "0x2",
      "transactionHash": "0x304acbdacf00f96f10121b9f71d941b0480147a157af6590431b09261f8d34f8",
      "transactionIndex": "0x37",
      "blockHash": "0xfe5fb0444f2f38c43fcbe7bbbd0d45c46d97775a2f5b8038db5510fb87a50086",
      "blockNumber": "0x907917",
      "gasUsed": "0xbaa7",
      "effectiveGasPrice": "0xf4249",
      "from": "0xad9fdad276ab1a430fd03177a07350cd7c61e897",
      "to": "0x52aa140e6d8431f433ac07eceada5349e8a4b641",
      "contractAddress": null
    }
  ],
  "libraries": [],
  "pending": [],
  "returns": {},
  "timestamp": 1761164988941,
  "chain": 11155111,
  "commit": "c03d2ed"
}