{
  "transactions": [
    {
      "hash": "0x92f962470541c55d04e50c58763635ead35fd4bb9412f796da52238f6f368a1d",
      "transactionType": "CALL",
      "contractName": "EveryTwoMillionBlocks",
      "contractAddress": "0x674307b5d8340fa5d6a659d252d6b816bc85997a",
      "function": "setPointsManager(address)",
      "arguments": [
        "0xBD14695f8103ED211aF227037bD2aFb51A29F6aE"
      ],
      "transaction": {
        "from": "0xad9fdad276ab1a430fd03177a07350cd7c61e897",
        "to": "0x674307b5d8340fa5d6a659d252d6b816bc85997a",
        "gas": "0xb24b",
        "value": "0x0",
        "input": "0xcae42a08000000000000000000000000bd14695f8103ed211af227037bd2afb51a29f6ae",
        "nonce": "0x145",
        "chainId": "0xaa36a7"
      },
      "additionalContracts": [],
      "isFixedGasLimit": false
    },
    {
      "hash": "0x65d5d6b6d15485ea261646a974f9d8ec4e323d9cf6b6eeef11a1a2421dbd3aa8",
      "transactionType": "CALL",
      "contractName": null,
      "contractAddress": "0x3b60151dd20984bdf73b31f7ab44f05253b210a0",
      "function": "addEligibleAsset(address,uint256)",
      "arguments": [
        "0xf97Fd74e8d0195ffAF9209c72Db28b511Ce9D579",
        "1000"
      ],
      "transaction": {
        "from": "0xad9fdad276ab1a430fd03177a07350cd7c61e897",
        "to": "0x3b60151dd20984bdf73b31f7ab44f05253b210a0",
        "gas": "0x101cf",
        "value": "0x0",
        "input": "0x642c8148000000000000000000000000f97fd74e8d0195ffaf9209c72db28b511ce9d57900000000000000000000000000000000000000000000000000000000000003e8",
        "nonce": "0x146",
        "chainId": "0xaa36a7"
      },
      "additionalContracts": [],
      "isFixedGasLimit": false
    }
  ],
  "receipts": [
    {
      "status": "0x1",
      "cumulativeGasUsed": "0x622b09",
      "logs": [
        {
          "address": "0x674307b5d8340fa5d6a659d252d6b816bc85997a",
          "topics": [
            "0x7619eb3b0b2346250e2839a10da35fc58eea3632c6f045e8abffa1864bce2551"
          ],
          "data": "0x000000000000000000000000bd14695f8103ed211af227037bd2afb51a29f6ae",
          "blockHash": "0x1e7e073455863fd9181527386a478a0a26214ba4c2bae7dcfdce26365aff4d7f",
          "blockNumber": "0x9077df",
          "blockTimestamp": "0x68f9301c",
          "transactionHash": "0x92f962470541c55d04e50c58763635ead35fd4bb9412f796da52238f6f368a1d",
          "transactionIndex": "0x30",
          "logIndex": "0x67",
          "removed": false
        }
      ],
      "logsBloom": "0x00000000000000000000000000000000000000000000000000000000000000000000000000000000000000000000000000000000800000000000000000000000000000000000000000000000000000004000000000000000000000800000000000000000000000000000000008000000000000000000000000000000000000000000000000000000000000000000400000000000000000000000000800000000000000000000000000000000000000000000000000000000000000000000000000000000000000000000000000000000000000000000000000000000000000000000000000000000000000000000000000000000000000000000000000000000",
      "type": "0x2",
      "transactionHash": "0x92f962470541c55d04e50c58763635ead35fd4bb9412f796da52238f6f368a1d",
      "transactionIndex": "0x30",
      "blockHash": "0x1e7e073455863fd9181527386a478a0a26214ba4c2bae7dcfdce26365aff4d7f",
      "blockNumber": "0x9077df",
      "gasUsed": "0x8115",
      "effectiveGasPrice": "0xf4249",
      "from": "0xad9fdad276ab1a430fd03177a07350cd7c61e897",
      "to": "0x674307b5d8340fa5d6a659d252d6b816bc85997a",
      "contractAddress": null
    },
    {
      "status": "0x1",
      "cumulativeGasUsed": "0x62e5b0",
      "logs": [
        {
          "address": "0x3b60151dd20984bdf73b31f7ab44f05253b210a0",
          "topics": [
            "0x66ace591f7c88075839f4a0246420d0cc8a34cbe9a924cd0e1ca63c336344f4b",
            "0x000000000000000000000000f97fd74e8d0195ffaf9209c72db28b511ce9d579"
          ],
          "data": "0x00000000000000000000000000000000000000000000000000000000000003e8",
          "blockHash": "0x1e7e073455863fd9181527386a478a0a26214ba4c2bae7dcfdce26365aff4d7f",
          "blockNumber": "0x9077df",
          "blockTimestamp": "0x68f9301c",
          "transactionHash": "0x65d5d6b6d15485ea261646a974f9d8ec4e323d9cf6b6eeef11a1a2421dbd3aa8",
          "transactionIndex": "0x31",
          "logIndex": "0x68",
          "removed": false
        }
      ],
      "logsBloom": "0x00000000000000000000000000200000000000000000000000000000000000000000000000000000200000000000000000000000000000002000000000000000008000000000000000080000000000000000000000000000000000000000000000000000000010000000000000000000001000000000000000000000000000000000000000000000000000000000000000000000000000000000000000000000000000000000000000000000000000000000000000000000000000000000400000000400000000000000000000000000000000000000000000000000000000000000000000000000000000000000000000000000000000000000000000000000",
      "type": "0x2",
      "transactionHash": "0x65d5d6b6d15485ea261646a974f9d8ec4e323d9cf6b6eeef11a1a2421dbd3aa8",
      "transactionIndex": "0x31",
      "blockHash": "0x1e7e073455863fd9181527386a478a0a26214ba4c2bae7dcfdce26365aff4d7f",
      "blockNumber": "0x9077df",
      "gasUsed": "0xbaa7",
      "effectiveGasPrice": "0xf4249",
      "from": "0xad9fdad276ab1a430fd03177a07350cd7c61e897",
      "to": "0x3b60151dd20984bdf73b31f7ab44f05253b210a0",
      "contractAddress": null
    }
  ],
  "libraries": [],
  "pending": [],
  "returns": {},
  "timestamp": 1761161245246,
  "chain": 11155111,
  "commit": "c03d2ed"
}