{
  "transactions": [
    {
      "hash": "0x3b3346cff6484a548b2a74413c8b53d39b1a04f0e551467f984de62b65ca1e4a",
      "transactionType": "CALL",
      "contractName": "EveryTwoMillionBlocks",
      "contractAddress": "0x674307b5d8340fa5d6a659d252d6b816bc85997a",
      "function": "setPointsManager(address)",
      "arguments": [
        "0xb72850fc20300a1b91d1E08cFd1B8947E873dEc7"
      ],
      "transaction": {
        "from": "0xad9fdad276ab1a430fd03177a07350cd7c61e897",
        "to": "0x674307b5d8340fa5d6a659d252d6b816bc85997a",
        "gas": "0xb24b",
        "value": "0x0",
        "input": "0xcae42a08000000000000000000000000b72850fc20300a1b91d1e08cfd1b8947e873dec7",
        "nonce": "0x170",
        "chainId": "0xaa36a7"
      },
      "additionalContracts": [],
      "isFixedGasLimit": false
    },
    {
      "hash": "0x7a47fc9d12bcc0e69236d3ecf5ea0132d8f1339d50ab737bc6c2e731048930bd",
      "transactionType": "CALL",
      "contractName": null,
      "contractAddress": "0xbd3df71bb5bccea0b84ecf48970da315a49488cb",
      "function": "addEligibleAsset(address,uint256)",
      "arguments": [
        "0xf97Fd74e8d0195ffAF9209c72Db28b511Ce9D579",
        "1000"
      ],
      "transaction": {
        "from": "0xad9fdad276ab1a430fd03177a07350cd7c61e897",
        "to": "0xbd3df71bb5bccea0b84ecf48970da315a49488cb",
        "gas": "0x101cf",
        "value": "0x0",
        "input": "0x642c8148000000000000000000000000f97fd74e8d0195ffaf9209c72db28b511ce9d57900000000000000000000000000000000000000000000000000000000000003e8",
        "nonce": "0x171",
        "chainId": "0xaa36a7"
      },
      "additionalContracts": [],
      "isFixedGasLimit": false
    }
  ],
  "receipts": [
    {
      "status": "0x1",
      "cumulativeGasUsed": "0x67f302",
      "logs": [
        {
          "address": "0x674307b5d8340fa5d6a659d252d6b816bc85997a",
          "topics": [
            "0x7619eb3b0b2346250e2839a10da35fc58eea3632c6f045e8abffa1864bce2551"
          ],
          "data": "0x000000000000000000000000b72850fc20300a1b91d1e08cfd1b8947e873dec7",
          "blockHash": "0xe4e7461d477fb5c789550488c384cb419f6e9fcb31f54c7043e484a822fd2193",
          "blockNumber": "0x90795a",
          "blockTimestamp": "0x68f941e0",
          "transactionHash": "0x3b3346cff6484a548b2a74413c8b53d39b1a04f0e551467f984de62b65ca1e4a",
          "transactionIndex": "0x39",
          "logIndex": "0x68",
          "removed": false
        }
      ],
      "logsBloom": "0x00000000000000000000000000000000000000000000000000000000000000000000000000000000000000000000000000000000800000000000000000000000000000000000000000000000000000004000000000000000000000800000000000000000000000000000000008000000000000000000000000000000000000000000000000000000000000000000400000000000000000000000000800000000000000000000000000000000000000000000000000000000000000000000000000000000000000000000000000000000000000000000000000000000000000000000000000000000000000000000000000000000000000000000000000000000",
      "type": "0x2",
      "transactionHash": "0x3b3346cff6484a548b2a74413c8b53d39b1a04f0e551467f984de62b65ca1e4a",
      "transactionIndex": "0x39",
      "blockHash": "0xe4e7461d477fb5c789550488c384cb419f6e9fcb31f54c7043e484a822fd2193",
      "blockNumber": "0x90795a",
      "gasUsed": "0x8115",
      "effectiveGasPrice": "0xf4248",
      "from": "0xad9fdad276ab1a430fd03177a07350cd7c61e897",
      "to": "0x674307b5d8340fa5d6a659d252d6b816bc85997a",
      "contractAddress": null
    },
    {
      "status": "0x1",
      "cumulativeGasUsed": "0x68ada9",
      "logs": [
        {
          "address": "0xbd3df71bb5bccea0b84ecf48970da315a49488cb",
          "topics": [
            "0x66ace591f7c88075839f4a0246420d0cc8a34cbe9a924cd0e1ca63c336344f4b",
            "0x000000000000000000000000f97fd74e8d0195ffaf9209c72db28b511ce9d579"
          ],
          "data": "0x00000000000000000000000000000000000000000000000000000000000003e8",
          "blockHash": "0xe4e7461d477fb5c789550488c384cb419f6e9fcb31f54c7043e484a822fd2193",
          "blockNumber": "0x90795a",
          "blockTimestamp": "0x68f941e0",
          "transactionHash": "0x7a47fc9d12bcc0e69236d3ecf5ea0132d8f1339d50ab737bc6c2e731048930bd",
          "transactionIndex": "0x3a",
          "logIndex": "0x69",
          "removed": false
        }
      ],
      "logsBloom": "0x00000000000000000000000000200000000800000000000000000000000000000000000000000000200000000000000000000000000000002000000000000000008000000000000000000000000000000000000000000000000000000010000000000000000000000000000000000000000000000000000000000000000000000000000000000000000000000000000000000000000000000000000000000000000000000000000000000000000000000000000000000100000000000000400000000400000000000000000000000000000000000000000000000000000000000000000000000000000000000000000000000000000000000000000000000000",
      "type": "0x2",
      "transactionHash": "0x7a47fc9d12bcc0e69236d3ecf5ea0132d8f1339d50ab737bc6c2e731048930bd",
      "transactionIndex": "0x3a",
      "blockHash": "0xe4e7461d477fb5c789550488c384cb419f6e9fcb31f54c7043e484a822fd2193",
      "blockNumber": "0x90795a",
      "gasUsed": "0xbaa7",
      "effectiveGasPrice": "0xf4248",
      "from": "0xad9fdad276ab1a430fd03177a07350cd7c61e897",
      "to": "0xbd3df71bb5bccea0b84ecf48970da315a49488cb",
      "contractAddress": null
    }
  ],
  "libraries": [],
  "pending": [],
  "returns": {},
  "timestamp": 1761165795029,
  "chain": 11155111,
  "commit": "c03d2ed"
}