{
  "transactions": [
    {
      "hash": "0xd83fea887c8c1d97b32144c364cea043f01d66c93c87758a27e365a81e7d6074",
      "transactionType": "CREATE",
      "contractName": "PointsAggregator",
      "contractAddress": "0x27a9fcfb3ddaf1597b7196e1c253ce70a7668ccd",
      "function": null,
      "arguments": [
        "0x1D1B77b54E654b943ab5DAD3045d324Ab61492fB"
      ],
      "transaction": {
        "from": "0xad9fdad276ab1a430fd03177a07350cd7c61e897",
        "gas": "0xfe923",
        "value": "0x0",
        "input": "0x60803460cd57601f610d8738819003918201601f19168301916001600160401b0383118484101760d15780849260209460405283398101031260cd57516001600160a01b0381169081900360cd57331560ba575f8054336001600160a01b0319821681178355604051939290916001600160a01b0316907f8be0079c531659141344cd1fd0a4f28419497f9722a3daafe3b4186f6b6457e09080a3600180546001600160a01b031916919091179055610ca190816100e68239f35b631e4fbdf760e01b5f525f60045260245ffd5b5f80fd5b634e487b7160e01b5f52604160045260245ffdfe6080806040526004361015610012575f80fd5b5f3560e01c9081630e69718b1461077f575080632be1f6a114610757578063303a9772146106825780633622cc241461058c578063464128781461054f57806352f5ad77146104e95780635fe12de0146103fc57806363117eaf14610305578063715018a6146102c1578063857fbd45146102915780638da5cb5b1461026a578063904b5f0314610242578063ba8f93dd146101d6578063d56d229d146101ae578063d89d9f5f146101425763f2fde38b146100cc575f80fd5b3461013e57602036600319011261013e576100e5610af0565b6100ed610be5565b6001600160a01b0316801561012b575f80546001600160a01b03198116831782556001600160a01b0316905f516020610c4c5f395f51905f529080a3005b631e4fbdf760e01b5f525f60045260245ffd5b5f80fd5b3461013e575f36600319011261013e5761015a610be5565b6001546001600160a01b0316803b1561013e575f8091602460405180948193637c89057b60e11b83523060048401525af180156101a35761019757005b5f6101a191610b06565b005b6040513d5f823e3d90fd5b3461013e575f36600319011261013e576003546040516001600160a01b039091168152602090f35b3461013e57602036600319011261013e576101ef610af0565b6101f7610be5565b6001546001600160a01b031690813b1561013e5760405163f2fde38b60e01b81526001600160a01b039091166004820152905f908290602490829084905af180156101a35761019757005b3461013e575f36600319011261013e576001546040516001600160a01b039091168152602090f35b3461013e575f36600319011261013e575f546040516001600160a01b039091168152602090f35b3461013e57602036600319011261013e576004356001600160401b03811161013e576101a1903690600401610ac3565b3461013e575f36600319011261013e576102d9610be5565b5f80546001600160a01b0319811682556001600160a01b03165f516020610c4c5f395f51905f528280a3005b3461013e57602036600319011261013e5761031e610af0565b610326610be5565b6002546001600160a01b0316801515806103e9575b6103ae575b50600280546001600160a01b0319166001600160a01b0392909216918217905580610379575b5f516020610c2c5f395f51905f525f80a2005b805f52600460205260405f20600160ff19825416179055805f516020610c0c5f395f51905f52602060405160018152a2610366565b5f52600460205260405f2060ff19815416905560018060a01b03600254165f516020610c0c5f395f51905f5260206040515f8152a281610340565b506001600160a01b03821681141561033b565b3461013e57606036600319011261013e576004356024356044356001600160401b03811161013e57610432903690600401610ac3565b909161043c610be5565b6001546001600160a01b031692833b1561013e575f60405180956304d79bcd60e51b825287600483015284602483015260606044830152818381610484606482018a89610bc5565b03925af19081156101a3577f251f0f9c21a717d93bc2910b67f85c577dfbe5b5f42e8bd72c012df160a8451c946104d4926104d9575b506040519384938452604060208501526040840191610bc5565b0390a2005b5f6104e391610b06565b866104ba565b3461013e57602036600319011261013e57610502610af0565b61050a610be5565b600380546001600160a01b0319166001600160a01b039290921691821790557fa27bdd7b0c9c795c64307abe4a8b21d993ec4bd2601c38dfaee5cfc991375ae85f80a2005b3461013e57602036600319011261013e576001600160a01b03610570610af0565b165f526004602052602060ff60405f2054166040519015158152f35b3461013e57604036600319011261013e576105a5610af0565b602435801591821580920361013e576105bc610be5565b6001600160a01b0316918215610649575f516020610c0c5f395f51905f5291602091845f526004835260405f2060ff1981541660ff84161790556002549060018060a01b03821686149081610641575b5061061c575b50604051908152a2005b6001600160a01b0319166002555f5f516020610c2c5f395f51905f528180a284610612565b90508661060c565b60405162461bcd60e51b815260206004820152601160248201527024b73b30b634b21031b7b63632b1ba37b960791b6044820152606490fd5b3461013e57602036600319011261013e57600354600435906001600160a01b0316330361071c576001546001600160a01b0316803b1561013e575f80916024604051809481936366b504a560e11b83528760048401525af180156101a35761070c575b507fa26e709207c485dc1734608fb4f7d6241d92d43688d70bf406344da85fcf3c1a5f80a2005b5f61071691610b06565b816106e5565b60405162461bcd60e51b8152602060048201526013602482015272155b985d5d1a1bdc9a5e9959081c995d99585b606a1b6044820152606490fd5b3461013e575f36600319011261013e576002546040516001600160a01b039091168152602090f35b3461013e57602036600319011261013e576004356001600160401b03811161013e576107af903690600401610ac3565b9091335f52600460205260ff60405f20541615610a885750810160608282031261013e5781356001600160401b03811161013e57816107ef918401610b40565b9060208301356001600160401b03811161013e578161080f918501610b40565b926040810135906001600160401b03821161013e57019080601f8301121561013e5781359161083d83610b29565b9261084b6040519485610b06565b80845260208085019160051b8301019183831161013e5760208101915b8383106109ff578787878151835180911490816109f4575b50156109bb575f92835b835185101561096b576001546001600160a01b03166108a98686610b9d565b516108b48785610b9d565b51916108c08887610b9d565b5190803b1561013e576020935f60848195604051978896879586936304d79bcd60e51b855260048501526024840152606060448401528051918291826064860152018484015e8181018301849052601f01601f191681010301925af180156101a35761095b575b506109328583610b9d565b5181018091116109475760019094019361088a565b634e487b7160e01b5f52601160045260245ffd5b5f61096591610b06565b85610927565b60a07f10155f496a00c506fa23f75701e0cb47b41b1828cc38c81e16f3fccab176fb1b91855190604051916060835260046060840152636261736560e01b608084015260208301526040820152a1005b60405162461bcd60e51b81526020600482015260116024820152704d69736d6174636865642061727261797360781b6044820152606490fd5b905081511484610880565b82356001600160401b03811161013e57820185603f8201121561013e576020810135916001600160401b038311610a7457604051610a47601f8501601f191660200182610b06565b838152604083850101881061013e575f602085819660408397018386013783010152815201920191610868565b634e487b7160e01b5f52604160045260245ffd5b62461bcd60e51b81526020600482015260166024820152752ab730baba3437b934bd32b21031b7b63632b1ba37b960511b6044820152606490fd5b9181601f8401121561013e578235916001600160401b03831161013e576020838186019501011161013e57565b600435906001600160a01b038216820361013e57565b601f909101601f19168101906001600160401b03821190821017610a7457604052565b6001600160401b038111610a745760051b60200190565b9080601f8301121561013e578135610b5781610b29565b92610b656040519485610b06565b81845260208085019260051b82010192831161013e57602001905b828210610b8d5750505090565b8135815260209182019101610b80565b8051821015610bb15760209160051b010190565b634e487b7160e01b5f52603260045260245ffd5b908060209392818452848401375f828201840152601f01601f1916010190565b5f546001600160a01b03163303610bf857565b63118cdaa760e01b5f523360045260245ffdfe62cc763fb81fa7689c024380a63a22c0e9720f9003fdb916c8ea8d771da509c8e9cc17a40c066a3782e2f682d8d6d2625af5474f0bbc68b240292ff629332a398be0079c531659141344cd1fd0a4f28419497f9722a3daafe3b4186f6b6457e0a2646970667358221220292d3162be953097be41c9e79ec3309dbfc2eb25374e58b4deddcb645a5544b164736f6c634300081e00330000000000000000000000001d1b77b54e654b943ab5dad3045d324ab61492fb",
        "nonce": "0x3fa",
        "chainId": "0xaa36a7"
      },
      "additionalContracts": [],
      "isFixedGasLimit": false
    },
    {
      "hash": "0xf6886163d09a7edc032fe08ae91af1466fa451413af8a82a06385fa1c33af7a0",
      "transactionType": "CALL",
      "contractName": null,
      "contractAddress": "0x1d1b77b54e654b943ab5dad3045d324ab61492fb",
      "function": "setAggregator(address)",
      "arguments": [
        "0x27a9fcFB3ddaf1597b7196e1C253Ce70A7668ccD"
      ],
      "transaction": {
        "from": "0xad9fdad276ab1a430fd03177a07350cd7c61e897",
        "to": "0x1d1b77b54e654b943ab5dad3045d324ab61492fb",
        "gas": "0xa3a8",
        "value": "0x0",
        "input": "0xf9120af600000000000000000000000027a9fcfb3ddaf1597b7196e1c253ce70a7668ccd",
        "nonce": "0x3fb",
        "chainId": "0xaa36a7"
      },
      "additionalContracts": [],
      "isFixedGasLimit": false
    },
    {
      "hash": "0x2f0a0fdd80f220f3e7911b0c719010f5c6bccc6de473eb9b62b0dc4c6371b6b0",
      "transactionType": "CREATE",
      "contractName": "L1BurnCollector",
      "contractAddress": "0xb231c79a3297748caa6098db892d9dee7dff0d2f",
      "function": null,
      "arguments": [
        "0x27a9fcFB3ddaf1597b7196e1C253Ce70A7668ccD",
        "0x614FE9079021688115A8Ec29b065344C033f9740"
      ],
      "transaction": {
        "from": "0xad9fdad276ab1a430fd03177a07350cd7c61e897",
        "gas": "0x1e8e37",
        "value": "0x0",
        "input": "0x6080604052346101c157604051601f61168038819003918201601f19168301916001600160401b0383118484101761019a5780849260409485528339810103126101c1576100586020610051836101c5565b92016101c5565b9033156101ae575f8054336001600160a01b0319821681178355916001600160a01b03909116907f8be0079c531659141344cd1fd0a4f28419497f9722a3daafe3b4186f6b6457e09080a360405161018081016001600160401b0381118282101761019a5760405260648152605f6020820152605c60408201526058606082015260556080820152605260a0820152604e60c0820152604b60e0820152604861010082015260446101208201526041610140820152603c6101608201525f5b600c8110610182575050600180546001600160a01b039283166001600160a01b0319918216179091556006805493909216921682179055604051907fd1cca643b71f0b734e29ea3538d99dfbab03ad2fb3b71aec3c3917dddc893fa45f80a26114a690816101da8239f35b600190602060ff845116930192816007015501610117565b634e487b7160e01b5f52604160045260245ffd5b631e4fbdf760e01b5f525f60045260245ffd5b5f80fd5b51906001600160a01b03821682036101c15756fe6080806040526004361015610012575f80fd5b5f905f3560e01c90816301ffc9a714610e5857508063066959cf14610e2057806311735f7814610df4578063150b7a0214610c36578063245a7bfc14610c0d5780634184e35614610af25780635d65c17214610a61578063642b715c14610a1c578063642c814814610940578063715018a6146108f9578063726ec2ef146108755780638409dd72146106d05780638995b2fa146105fa5780638da5cb5b146105d3578063961a4e8e146104ab578063b7433a8114610462578063ba46d032146103fa578063bc197c8114610361578063e366da2c14610324578063f0bd0e79146102fb578063f23a6e61146101855763f2fde38b14610110575f80fd5b3461018257602036600319011261018257610129610ec3565b610131611320565b6001600160a01b0316801561016e5781546001600160a01b03198116821783556001600160a01b03165f5160206114515f395f51905f528380a380f35b631e4fbdf760e01b82526004829052602482fd5b80fd5b50346101825760a03660031901126101825761019f610ec3565b506101a8610ed9565b606435916084356001600160401b0381116102f3576101cd6020913690600401610eef565b90809291338552600283526101e760408620541515610fa9565b810103126102f75735903381526002602052610208838560408420546110f3565b91333b156102f357604051633b584ed360e21b81526044356004820152856024820152828160448183335af16102de575b50918161028160e0945f5160206114315f395f51905f529694508360405191610263604084610fea565b600c83526b22a92198989a9a90313ab93760a11b6020840152611136565b50604080513381526020810196909652850152600c6228206f420406606085015260a060808501819052600790850152664552433131353560c81b60c08501526001600160a01b031692a260405163f23a6e6160e01b8152602090f35b6102e9838092610fea565b6102f3575f610239565b5080fd5b5f80fd5b50346101825780600319360112610182576006546040516001600160a01b039091168152602090f35b50346101825760203660031901126101825760209060ff906040906001600160a01b0361034f610ec3565b16815260058452205416604051908152f35b50346101825760a03660031901126101825761037b610ec3565b50610384610ed9565b506044356001600160401b0381116102f3576103a4903690600401610f79565b50506064356001600160401b0381116102f3576103c5903690600401610f79565b50506084356001600160401b0381116102f3576103e6903690600401610eef565b505060405163bc197c8160e01b8152602090f35b503461018257602036600319011261018257610414610ec3565b61041c611320565b600680546001600160a01b0319166001600160a01b039290921691821790557fd1cca643b71f0b734e29ea3538d99dfbab03ad2fb3b71aec3c3917dddc893fa48280a280f35b50346101825761018036600319011261018257366101841161018257610486611320565b6004815b600c8110610496578280f35b6001906020833593019281600701550161048a565b5034610182576060366003190112610182576104c5610ec3565b6024356044359160ff83168093036105cf576104df611320565b8115610597576001600160a01b03168084526004602052604084205490919060ff161561052c575b8184526002602052604084205582526005602052604082209060ff1982541617905580f35b600354600160401b8110156105835780600161054b9201600355611038565b81546001600160a01b0360039290921b91821b19169084901b179055818452600460205260408420805460ff19166001179055610507565b634e487b7160e01b85526041600452602485fd5b60405162461bcd60e51b815260206004820152601060248201526f042617365206d757374206265203e20360841b6044820152606490fd5b8380fd5b5034610182578060031936011261018257546040516001600160a01b039091168152602090f35b503461018257608036600319011261018257806001600160a01b0361061d610ec3565b16808252600260205261063560408320541515610fa9565b60405190606435602083015260208252610650604083610fea565b803b156106cc5761069f8392918392604051948580948193637921219560e11b83523360048401523060248401526024356044840152604435606484015260a0608484015260a4830190611071565b03925af180156106c1576106b05750f35b816106ba91610fea565b6101825780f35b6040513d84823e3d90fd5b5050fd5b5034610182576106df36610f4f565b6001600160a01b03831680855260026020526040852054909390610704901515610fa9565b6040516323b872dd60e01b81523360048201523060248201526044810184905260208160648189895af190811561086a578491610825575b5061074a9061075e926112d2565b8486526002602052339060408720546110f3565b90833b156108215784604051630852cd8d60e31b81528460048201528181602481838a5af161080c575b50906107bb9150826040519161079f604084610fea565b600a83526922a921991810313ab93760b11b6020840152611136565b600c6228206f4204069160405193845260208401526040830152606082015260a06080820152600560a082015264045524332360dc1b60c08201525f5160206114315f395f51905f5260e03392a280f35b8161081691610fea565b61082157845f610788565b8480fd5b90506020813d602011610862575b8161084060209383610fea565b8101031261085e575190811515820361085e5790508261074a61073c565b8580fd5b3d9150610833565b6040513d88823e3d90fd5b503461018257806003193601126101825761018090816040516108988282610fea565b369037604051600782825b600c82106108e357505050906108b98383610fea565b6040519190825b600c82106108cd57505050f35b60208060019285518152019301910190916108c0565b60016020819285548152019301910190916108a3565b5034610182578060031936011261018257610912611320565b80546001600160a01b03198116825581906001600160a01b03165f5160206114515f395f51905f528280a380f35b50346101825760403660031901126101825761095a610ec3565b60243590610966611320565b8115610597576001600160a01b03168083526004602052604083205490919060ff16156109b1575b81835260026020526040832055815260056020526040812060ff19815416905580f35b600354600160401b811015610a08578060016109d09201600355611038565b81546001600160a01b0360039290921b91821b19169084901b179055818352600460205260408320805460ff1916600117905561098e565b634e487b7160e01b84526041600452602484fd5b503461018257606036600319011261018257610a36610ec3565b604435916001600160a01b0383168303610182576020610a598460243585611095565b604051908152f35b50346101825780610a7136610f4f565b9160018060a01b0316918284526002602052610a9260408520541515610fa9565b60405190602082015260208152610aaa604082610fea565b823b15610aed5761069f92849283604051809681958294635c46a7ef60e11b84523360048501523060248501526044840152608060648401526084830190611071565b505050fd5b5034610182578060031936011261018257600354610b0f81611021565b90610b1d6040519283610fea565b808252610b2981611021565b602083019390601f1901368537610b3f82611021565b91610b4d6040519384610fea565b808352601f19610b5c82611021565b01366020850137815b818110610bc457505060405192604084019060408552518091526060840194915b818110610ba5578480610ba188878382036020850152610f1c565b0390f35b82516001600160a01b0316865260209586019590920191600101610b86565b80610bd3600192969496611038565b838060a01b0391549060031b1c1680610bec838761105d565b52865260026020526040862054610c03828761105d565b5201939193610b65565b50346101825780600319360112610182576001546040516001600160a01b039091168152602090f35b50346102f75760803660031901126102f757610c50610ec3565b50610c59610ed9565b60443591906064356001600160401b0381116102f757610c7f6020913690600401610eef565b90809291335f5260028352610c9960405f20541515610fa9565b810103126102f7573590335f52600260205260405f2054600c6228206f42040690610cc383611346565b81158280046001141715610de057600c831015610dcc57610cf76127109291610cf284938660070154906110e0565b6110e0565b0404333b156102f7575f5160206114315f395f51905f529460e094604051630852cd8d60e31b81528860048201525f8160248183335af1610db5575b50610d65908360405191610d48604084610fea565b600b83526a22a9219b991890313ab93760a91b6020840152611136565b506040519533875260208701526040860152606085015260a06080850152600660a08501526545524337323160d01b60c085015260018060a01b031692a2604051630a85bd0160e11b8152602090f35b610dc29192505f90610fea565b5f90610d65610d33565b634e487b7160e01b5f52603260045260245ffd5b634e487b7160e01b5f52601160045260245ffd5b346102f75760203660031901126102f757600435600c8110156102f75760209060070154604051908152f35b346102f75760203660031901126102f7576001600160a01b03610e41610ec3565b165f526002602052602060405f2054604051908152f35b346102f75760203660031901126102f7576004359063ffffffff60e01b82168092036102f757602091630a85bd0160e11b8114908115610eb2575b8115610ea1575b5015158152f35b6301ffc9a760e01b14905083610e9a565b630271189760e51b81149150610e93565b600435906001600160a01b03821682036102f757565b602435906001600160a01b03821682036102f757565b9181601f840112156102f7578235916001600160401b0383116102f757602083818601950101116102f757565b90602080835192838152019201905f5b818110610f395750505090565b8251845260209384019390920191600101610f2c565b60609060031901126102f7576004356001600160a01b03811681036102f757906024359060443590565b9181601f840112156102f7578235916001600160401b0383116102f7576020808501948460051b0101116102f757565b15610fb057565b60405162461bcd60e51b81526020600482015260126024820152714173736574206e6f7420656c696769626c6560701b6044820152606490fd5b601f909101601f19168101906001600160401b0382119082101761100d57604052565b634e487b7160e01b5f52604160045260245ffd5b6001600160401b03811161100d5760051b60200190565b600354811015610dcc5760035f5260205f2001905f90565b805115610dcc5760200190565b8051821015610dcc5760209160051b010190565b805180835260209291819084018484015e5f828201840152601f01601f1916010190565b6001600160a01b0381165f90815260026020526040902054919291906110bc821515610fa9565b83156110d8576110d5936110cf916112d2565b906110f3565b90565b505050505f90565b81810292918115918404141715610de057565b91906111119061110b600c6228206f42040693611346565b936110e0565b600c821015610dcc5761271092610cf261113192859460070154906110e0565b040490565b6040918251936111468486610fea565b60018552601f19840191823660208801378451936111648686610fea565b600185528336602087013785519361117c8786610fea565b600185525f5b8181106112c15750509086929161119b6111df98611050565b526111a585611050565b526111af83611050565b526111b982611050565b506111f060018060a01b0360015416938551968793606060208601526080850190610f1c565b838103601f19018785015290610f1c565b91601f19828403016060830152805180845260208401936020808360051b8301019301945f915b8383106112905750505050611235925003601f198101855284610fea565b803b156102f7578151630e69718b60e01b815260206004820152925f918491829084908290611268906024830190611071565b03925af1908115611287575061127b5750565b5f61128591610fea565b565b513d5f823e3d90fd5b919360019193955060206112af8192601f198682030187528951611071565b97019301930190928894929593611217565b806060602080938901015201611182565b6001600160a01b03165f9081526005602052604090205460ff16801561131c57604d8111610de057600a0a908115611308570490565b634e487b7160e01b5f52601260045260245ffd5b5090565b5f546001600160a01b0316330361133357565b63118cdaa760e01b5f523360045260245ffd5b6001600160a01b03168015611429576006546001600160a01b03169081158015611420575b611418576020906024604051809481936370a0823160e01b835260048301525afa5f91816113e4575b506113a0575061271090565b60648110156113dd5760328110156113d657600a8110156113cf57600111156113c95761271090565b612af890565b50614e2090565b5061753090565b50619c4090565b9091506020813d602011611410575b8161140060209383610fea565b810103126102f75751905f611394565b3d91506113f3565b505061271090565b50813b1561136b565b506127109056fee3de3cf8b55d889e1f0f229a17138e633440a6ba07397d3eb4f1c0c7c61ea27f8be0079c531659141344cd1fd0a4f28419497f9722a3daafe3b4186f6b6457e0a26469706673582212206974b5f91fe32ce7d6549017bdf0e3f37da73e1872ec5d3a16085f747568f35a64736f6c634300081e003300000000000000000000000027a9fcfb3ddaf1597b7196e1c253ce70a7668ccd000000000000000000000000614fe9079021688115a8ec29b065344c033f9740",
        "nonce": "0x3fc",
        "chainId": "0xaa36a7"
      },
      "additionalContracts": [],
      "isFixedGasLimit": false
    },
    {
      "hash": "0xf935a0c8271ea1dac7c3b0104604bcd539ddb012f9e89fd31e3ae2ab3391487e",
      "transactionType": "CALL",
      "contractName": "PointsAggregator",
      "contractAddress": "0x27a9fcfb3ddaf1597b7196e1c253ce70a7668ccd",
      "function": "setL1BurnCollector(address)",
      "arguments": [
        "0xb231C79A3297748CAA6098dB892D9DeE7DFf0D2F"
      ],
      "transaction": {
        "from": "0xad9fdad276ab1a430fd03177a07350cd7c61e897",
        "to": "0x27a9fcfb3ddaf1597b7196e1c253ce70a7668ccd",
        "gas": "0x17f98",
        "value": "0x0",
        "input": "0x63117eaf000000000000000000000000b231c79a3297748caa6098db892d9dee7dff0d2f",
        "nonce": "0x3fd",
        "chainId": "0xaa36a7"
      },
      "additionalContracts": [],
      "isFixedGasLimit": false
    },
    {
      "hash": "0x63d80f17e0a6b8468b30030282a6c810601902a8ec0ccc98c122d2aab7a10b2b",
      "transactionType": "CALL",
      "contractName": "PointsAggregator",
      "contractAddress": "0x27a9fcfb3ddaf1597b7196e1c253ce70a7668ccd",
      "function": "setNftContract(address)",
      "arguments": [
        "0xF9aE13167b184FaA4FEA2F2e7249447f0e2A30a6"
      ],
      "transaction": {
        "from": "0xad9fdad276ab1a430fd03177a07350cd7c61e897",
        "to": "0x27a9fcfb3ddaf1597b7196e1c253ce70a7668ccd",
        "gas": "0xfeb2",
        "value": "0x0",
        "input": "0x52f5ad77000000000000000000000000f9ae13167b184faa4fea2f2e7249447f0e2a30a6",
        "nonce": "0x3fe",
        "chainId": "0xaa36a7"
      },
      "additionalContracts": [],
      "isFixedGasLimit": false
    },
    {
      "hash": "0xbd9b701b229e667baa486bf18325e50280b1b4cd82a32bc03a747ba83ca125fd",
      "transactionType": "CALL",
      "contractName": "PointsAggregator",
      "contractAddress": "0x27a9fcfb3ddaf1597b7196e1c253ce70a7668ccd",
      "function": "setAuthorizedCollector(address,bool)",
      "arguments": [
        "0x90EA1d07c0d4C6bB73E94444554b0217A0FABF7D",
        "true"
      ],
      "transaction": {
        "from": "0xad9fdad276ab1a430fd03177a07350cd7c61e897",
        "to": "0x27a9fcfb3ddaf1597b7196e1c253ce70a7668ccd",
        "gas": "0x11d05",
        "value": "0x0",
        "input": "0x3622cc2400000000000000000000000090ea1d07c0d4c6bb73e94444554b0217a0fabf7d0000000000000000000000000000000000000000000000000000000000000001",
        "nonce": "0x3ff",
        "chainId": "0xaa36a7"
      },
      "additionalContracts": [],
      "isFixedGasLimit": false
    },
    {
      "hash": "0x8402160f5262ae00831ff56844cbd8171fe9e7ce82ecc70af446fad6362bbf62",
      "transactionType": "CALL",
      "contractName": "PointsAggregator",
      "contractAddress": "0x27a9fcfb3ddaf1597b7196e1c253ce70a7668ccd",
      "function": "setAuthorizedCollector(address,bool)",
      "arguments": [
        "0xB14732958d8bC1cC974920e976Ec0DE3d014EE24",
        "true"
      ],
      "transaction": {
        "from": "0xad9fdad276ab1a430fd03177a07350cd7c61e897",
        "to": "0x27a9fcfb3ddaf1597b7196e1c253ce70a7668ccd",
        "gas": "0x11d05",
        "value": "0x0",
        "input": "0x3622cc24000000000000000000000000b14732958d8bc1cc974920e976ec0de3d014ee240000000000000000000000000000000000000000000000000000000000000001",
        "nonce": "0x400",
        "chainId": "0xaa36a7"
      },
      "additionalContracts": [],
      "isFixedGasLimit": false
    },
    {
      "hash": "0x9ff0a99287abe79ec3d153ea7264a51422b2d3f4c8071d240408fa0e01cc682a",
      "transactionType": "CALL",
      "contractName": "PointsAggregator",
      "contractAddress": "0x27a9fcfb3ddaf1597b7196e1c253ce70a7668ccd",
      "function": "setAuthorizedCollector(address,bool)",
      "arguments": [
        "0xffDb47627fBA9Af7eE7e78310a1e85Faa71e711f",
        "true"
      ],
      "transaction": {
        "from": "0xad9fdad276ab1a430fd03177a07350cd7c61e897",
        "to": "0x27a9fcfb3ddaf1597b7196e1c253ce70a7668ccd",
        "gas": "0x11d05",
        "value": "0x0",
        "input": "0x3622cc24000000000000000000000000ffdb47627fba9af7ee7e78310a1e85faa71e711f0000000000000000000000000000000000000000000000000000000000000001",
        "nonce": "0x401",
        "chainId": "0xaa36a7"
      },
      "additionalContracts": [],
      "isFixedGasLimit": false
    },
    {
      "hash": "0x7aca9348ec4a4898e0f853b8fe711c3c312330128fc02070b144774e09787c6d",
      "transactionType": "CALL",
      "contractName": null,
      "contractAddress": "0x1d1b77b54e654b943ab5dad3045d324ab61492fb",
      "function": "setRevealQueue(address)",
      "arguments": [
        "0xF9aE13167b184FaA4FEA2F2e7249447f0e2A30a6"
      ],
      "transaction": {
        "from": "0xad9fdad276ab1a430fd03177a07350cd7c61e897",
        "to": "0x1d1b77b54e654b943ab5dad3045d324ab61492fb",
        "gas": "0x9d6a",
        "value": "0x0",
        "input": "0xfdc85371000000000000000000000000f9ae13167b184faa4fea2f2e7249447f0e2a30a6",
        "nonce": "0x402",
        "chainId": "0xaa36a7"
      },
      "additionalContracts": [],
      "isFixedGasLimit": false
    },
    {
      "hash": "0x75d30c0aa861b45bfa2381fa12da2a9c998436e7543b353e9440a80504127886",
      "transactionType": "CALL",
      "contractName": null,
      "contractAddress": "0x1d1b77b54e654b943ab5dad3045d324ab61492fb",
      "function": "setPermutationZeroIndexed(bool)",
      "arguments": [
        "true"
      ],
      "transaction": {
        "from": "0xad9fdad276ab1a430fd03177a07350cd7c61e897",
        "to": "0x1d1b77b54e654b943ab5dad3045d324ab61492fb",
        "gas": "0x90a9",
        "value": "0x0",
        "input": "0x0367aa2f0000000000000000000000000000000000000000000000000000000000000001",
        "nonce": "0x403",
        "chainId": "0xaa36a7"
      },
      "additionalContracts": [],
      "isFixedGasLimit": false
    },
    {
      "hash": "0x94837b6e7712daa2976bcc3640d591081a1b56939b6e5f66b0a9bf0a2022c61f",
      "transactionType": "CALL",
      "contractName": "L1BurnCollector",
      "contractAddress": "0xb231c79a3297748caa6098db892d9dee7dff0d2f",
      "function": "addEligibleAsset(address,uint256)",
      "arguments": [
        "0x614FE9079021688115A8Ec29b065344C033f9740",
        "100000"
      ],
      "transaction": {
        "from": "0xad9fdad276ab1a430fd03177a07350cd7c61e897",
        "to": "0xb231c79a3297748caa6098db892d9dee7dff0d2f",
        "gas": "0x26f7e",
        "value": "0x0",
        "input": "0x642c8148000000000000000000000000614fe9079021688115a8ec29b065344c033f974000000000000000000000000000000000000000000000000000000000000186a0",
        "nonce": "0x404",
        "chainId": "0xaa36a7"
      },
      "additionalContracts": [],
      "isFixedGasLimit": false
    },
    {
      "hash": "0xaf5a3bf61c4f709bc5c5eaef4a76ccb7b123bdd28cad8d1385dabb18cd030109",
      "transactionType": "CALL",
      "contractName": "L1BurnCollector",
      "contractAddress": "0xb231c79a3297748caa6098db892d9dee7dff0d2f",
      "function": "addEligibleAsset(address,uint256)",
      "arguments": [
        "0x7Ef7dF0F64A2591fd5bE9c1E88728e59CB5D362B",
        "10000"
      ],
      "transaction": {
        "from": "0xad9fdad276ab1a430fd03177a07350cd7c61e897",
        "to": "0xb231c79a3297748caa6098db892d9dee7dff0d2f",
        "gas": "0x21329",
        "value": "0x0",
        "input": "0x642c81480000000000000000000000007ef7df0f64a2591fd5be9c1e88728e59cb5d362b0000000000000000000000000000000000000000000000000000000000002710",
        "nonce": "0x405",
        "chainId": "0xaa36a7"
      },
      "additionalContracts": [],
      "isFixedGasLimit": false
    },
    {
      "hash": "0xe903a6f4b0dfebbb156393dc2b85057620c3e44a65753ffcb13ce3b36f7669db",
      "transactionType": "CALL",
      "contractName": "L1BurnCollector",
      "contractAddress": "0xb231c79a3297748caa6098db892d9dee7dff0d2f",
      "function": "addEligibleAssetWithDecimals(address,uint256,uint8)",
      "arguments": [
        "0xD2DcB326F003DC8db194C74Db2749F8C653Df6aC",
        "1",
        "18"
      ],
      "transaction": {
        "from": "0xad9fdad276ab1a430fd03177a07350cd7c61e897",
        "to": "0xb231c79a3297748caa6098db892d9dee7dff0d2f",
        "gas": "0x2a5d4",
        "value": "0x0",
        "input": "0x961a4e8e000000000000000000000000d2dcb326f003dc8db194c74db2749f8c653df6ac00000000000000000000000000000000000000000000000000000000000000010000000000000000000000000000000000000000000000000000000000000012",
        "nonce": "0x406",
        "chainId": "0xaa36a7"
      },
      "additionalContracts": [],
      "isFixedGasLimit": false
    },
    {
      "hash": "0x2698b3e96dd1cc42c9fa03f3e91b3b91a8890c1da9a5f608a443f1af0b9290f3",
      "transactionType": "CALL",
      "contractName": "DummyOneOfOne",
      "contractAddress": "0x614fe9079021688115a8ec29b065344c033f9740",
      "function": "setApprovalForAll(address,bool)",
      "arguments": [
        "0xb231C79A3297748CAA6098dB892D9DeE7DFf0D2F",
        "true"
      ],
      "transaction": {
        "from": "0xad9fdad276ab1a430fd03177a07350cd7c61e897",
        "to": "0x614fe9079021688115a8ec29b065344c033f9740",
        "gas": "0x107d9",
        "value": "0x0",
        "input": "0xa22cb465000000000000000000000000b231c79a3297748caa6098db892d9dee7dff0d2f0000000000000000000000000000000000000000000000000000000000000001",
        "nonce": "0x407",
        "chainId": "0xaa36a7"
      },
      "additionalContracts": [],
      "isFixedGasLimit": false
    },
    {
      "hash": "0xf3cf1d091c956fc917f2fd3965a42e87718b7ba794de2eb3b0650dda7c4fc4fc",
      "transactionType": "CALL",
      "contractName": "DummyEdition1155",
      "contractAddress": "0x7ef7df0f64a2591fd5be9c1e88728e59cb5d362b",
      "function": "setApprovalForAll(address,bool)",
      "arguments": [
        "0xb231C79A3297748CAA6098dB892D9DeE7DFf0D2F",
        "true"
      ],
      "transaction": {
        "from": "0xad9fdad276ab1a430fd03177a07350cd7c61e897",
        "to": "0x7ef7df0f64a2591fd5be9c1e88728e59cb5d362b",
        "gas": "0x107c3",
        "value": "0x0",
        "input": "0xa22cb465000000000000000000000000b231c79a3297748caa6098db892d9dee7dff0d2f0000000000000000000000000000000000000000000000000000000000000001",
        "nonce": "0x408",
        "chainId": "0xaa36a7"
      },
      "additionalContracts": [],
      "isFixedGasLimit": false
    },
    {
      "hash": "0x3ae9869595bfd1277236f0745dc693103bcf066b1929cf88bef9065b9ffb0d2f",
      "transactionType": "CALL",
      "contractName": "DummyERC20Burnable",
      "contractAddress": "0xd2dcb326f003dc8db194c74db2749f8c653df6ac",
      "function": "approve(address,uint256)",
      "arguments": [
        "0xb231C79A3297748CAA6098dB892D9DeE7DFf0D2F",
        "115792089237316195423570985008687907853269984665640564039457584007913129639935"
      ],
      "transaction": {
        "from": "0xad9fdad276ab1a430fd03177a07350cd7c61e897",
        "to": "0xd2dcb326f003dc8db194c74db2749f8c653df6ac",
        "gas": "0xf9a4",
        "value": "0x0",
        "input": "0x095ea7b3000000000000000000000000b231c79a3297748caa6098db892d9dee7dff0d2fffffffffffffffffffffffffffffffffffffffffffffffffffffffffffffffff",
        "nonce": "0x409",
        "chainId": "0xaa36a7"
      },
      "additionalContracts": [],
      "isFixedGasLimit": false
    }
  ],
  "receipts": [
    {
      "status": "0x1",
      "cumulativeGasUsed": "0xbe1d19",
      "logs": [
        {
          "address": "0x27a9fcfb3ddaf1597b7196e1c253ce70a7668ccd",
          "topics": [
            "0x8be0079c531659141344cd1fd0a4f28419497f9722a3daafe3b4186f6b6457e0",
            "0x0000000000000000000000000000000000000000000000000000000000000000",
            "0x000000000000000000000000ad9fdad276ab1a430fd03177a07350cd7c61e897"
          ],
          "data": "0x",
          "blockHash": "0xa1eeedd179fb48c0dc48e1445247e1dfaa9ef96314529f7f9c017638b3928a61",
          "blockNumber": "0x91742d",
          "blockTimestamp": "0x69051e10",
          "transactionHash": "0xd83fea887c8c1d97b32144c364cea043f01d66c93c87758a27e365a81e7d6074",
          "transactionIndex": "0x37",
          "logIndex": "0x86",
          "removed": false
        }
      ],
      "logsBloom": "0x00000000000000000000000000000000000000000000000000800000000000000000000000000000000000000000000000000000020000000000000000000000008000000000004000000000000000000001000000000000000000000000000000000000020000000000000000000800000000000000000000000000000000400000000000000040000000000000000000000000000000000000000000000000000010000000000000000000000000000000000000000000000000000000000000002000000000000000000000000000000000000000000000000000000020000000000000000000000000000000000000000000000000000000000000000000",
      "type": "0x0",
      "transactionHash": "0xd83fea887c8c1d97b32144c364cea043f01d66c93c87758a27e365a81e7d6074",
      "transactionIndex": "0x37",
      "blockHash": "0xa1eeedd179fb48c0dc48e1445247e1dfaa9ef96314529f7f9c017638b3928a61",
      "blockNumber": "0x91742d",
      "gasUsed": "0xc3d2f",
      "effectiveGasPrice": "0xf4240",
      "from": "0xad9fdad276ab1a430fd03177a07350cd7c61e897",
      "to": null,
      "contractAddress": "0x27a9fcfb3ddaf1597b7196e1c253ce70a7668ccd"
    },
    {
      "status": "0x1",
      "cumulativeGasUsed": "0x11d1c3b",
      "logs": [
        {
          "address": "0x1d1b77b54e654b943ab5dad3045d324ab61492fb",
          "topics": [
            "0x602cec4b1583b07d071161da5eb9589444d2459201e2fab7753dc941e9351c21",
            "0x00000000000000000000000027a9fcfb3ddaf1597b7196e1c253ce70a7668ccd"
          ],
          "data": "0x",
          "blockHash": "0xa1eeedd179fb48c0dc48e1445247e1dfaa9ef96314529f7f9c017638b3928a61",
          "blockNumber": "0x91742d",
          "blockTimestamp": "0x69051e10",
          "transactionHash": "0xf6886163d09a7edc032fe08ae91af1466fa451413af8a82a06385fa1c33af7a0",
          "transactionIndex": "0x8d",
          "logIndex": "0xf2",
          "removed": false
        }
      ],
      "logsBloom": "0x00000000000000000040000000000000000000000000000000000000000000000000000000000000000000000000000000000000000000000000100000000000000010000000000000000000000000000000000000000000000000000000000000000020000000000000000000000008000000000000000000000000000000000000000000000000000000000000000000000000000000000000000000000000000000000000000000000000000000000004000000000000000000000000000000000000000000000000000000000000000000000000000000000080000000000000000000002000000000000000080000000000000000000000000000000000",
      "type": "0x0",
      "transactionHash": "0xf6886163d09a7edc032fe08ae91af1466fa451413af8a82a06385fa1c33af7a0",
      "transactionIndex": "0x8d",
      "blockHash": "0xa1eeedd179fb48c0dc48e1445247e1dfaa9ef96314529f7f9c017638b3928a61",
      "blockNumber": "0x91742d",
      "gasUsed": "0x767d",
      "effectiveGasPrice": "0xf4240",
      "from": "0xad9fdad276ab1a430fd03177a07350cd7c61e897",
      "to": "0x1d1b77b54e654b943ab5dad3045d324ab61492fb",
      "contractAddress": null
    },
    {
      "status": "0x1",
      "cumulativeGasUsed": "0x1349d52",
      "logs": [
        {
          "address": "0xb231c79a3297748caa6098db892d9dee7dff0d2f",
          "topics": [
            "0x8be0079c531659141344cd1fd0a4f28419497f9722a3daafe3b4186f6b6457e0",
            "0x0000000000000000000000000000000000000000000000000000000000000000",
            "0x000000000000000000000000ad9fdad276ab1a430fd03177a07350cd7c61e897"
          ],
          "data": "0x",
          "blockHash": "0xa1eeedd179fb48c0dc48e1445247e1dfaa9ef96314529f7f9c017638b3928a61",
          "blockNumber": "0x91742d",
          "blockTimestamp": "0x69051e10",
          "transactionHash": "0x2f0a0fdd80f220f3e7911b0c719010f5c6bccc6de473eb9b62b0dc4c6371b6b0",
          "transactionIndex": "0x8e",
          "logIndex": "0xf3",
          "removed": false
        },
        {
          "address": "0xb231c79a3297748caa6098db892d9dee7dff0d2f",
          "topics": [
            "0xd1cca643b71f0b734e29ea3538d99dfbab03ad2fb3b71aec3c3917dddc893fa4",
            "0x000000000000000000000000614fe9079021688115a8ec29b065344c033f9740"
          ],
          "data": "0x",
          "blockHash": "0xa1eeedd179fb48c0dc48e1445247e1dfaa9ef96314529f7f9c017638b3928a61",
          "blockNumber": "0x91742d",
          "blockTimestamp": "0x69051e10",
          "transactionHash": "0x2f0a0fdd80f220f3e7911b0c719010f5c6bccc6de473eb9b62b0dc4c6371b6b0",
          "transactionIndex": "0x8e",
          "logIndex": "0xf4",
          "removed": false
        }
      ],
      "logsBloom": "0x00000000004000000000000000000000000000000200000000800000000000000000000000000000000000000000000000000000000000000000000000000000000000000000004000000000000000000001000000000000000000000000000000000002020000000000010000000800000000000000000000000000000000400040000000000040000000008000000000000000000000000000000000000000000010000000000000000000000000000000000000000000000000000000000000000000000000000000000000000000000000000000000000000000002020000000000200000000000000000000000002000000000000000000000000000000",
      "type": "0x0",
      "transactionHash": "0x2f0a0fdd80f220f3e7911b0c719010f5c6bccc6de473eb9b62b0dc4c6371b6b0",
      "transactionIndex": "0x8e",
      "blockHash": "0xa1eeedd179fb48c0dc48e1445247e1dfaa9ef96314529f7f9c017638b3928a61",
      "blockNumber": "0x91742d",
      "gasUsed": "0x178117",
      "effectiveGasPrice": "0xf4240",
      "from": "0xad9fdad276ab1a430fd03177a07350cd7c61e897",
      "to": null,
      "contractAddress": "0xb231c79a3297748caa6098db892d9dee7dff0d2f"
    },
    {
      "status": "0x1",
      "cumulativeGasUsed": "0x135b30a",
      "logs": [
        {
          "address": "0x27a9fcfb3ddaf1597b7196e1c253ce70a7668ccd",
          "topics": [
            "0x62cc763fb81fa7689c024380a63a22c0e9720f9003fdb916c8ea8d771da509c8",
            "0x000000000000000000000000b231c79a3297748caa6098db892d9dee7dff0d2f"
          ],
          "data": "0x0000000000000000000000000000000000000000000000000000000000000001",
          "blockHash": "0xa1eeedd179fb48c0dc48e1445247e1dfaa9ef96314529f7f9c017638b3928a61",
          "blockNumber": "0x91742d",
          "blockTimestamp": "0x69051e10",
          "transactionHash": "0xf935a0c8271ea1dac7c3b0104604bcd539ddb012f9e89fd31e3ae2ab3391487e",
          "transactionIndex": "0x8f",
          "logIndex": "0xf5",
          "removed": false
        },
        {
          "address": "0x27a9fcfb3ddaf1597b7196e1c253ce70a7668ccd",
          "topics": [
            "0xe9cc17a40c066a3782e2f682d8d6d2625af5474f0bbc68b240292ff629332a39",
            "0x000000000000000000000000b231c79a3297748caa6098db892d9dee7dff0d2f"
          ],
          "data": "0x",
          "blockHash": "0xa1eeedd179fb48c0dc48e1445247e1dfaa9ef96314529f7f9c017638b3928a61",
          "blockNumber": "0x91742d",
          "blockTimestamp": "0x69051e10",
          "transactionHash": "0xf935a0c8271ea1dac7c3b0104604bcd539ddb012f9e89fd31e3ae2ab3391487e",
          "transactionIndex": "0x8f",
          "logIndex": "0xf6",
          "removed": false
        }
      ],
      "logsBloom": "0x00000000000000000000000000000000000000000000000000000000000000000000000000000000000000000001000000000000020000000000000000000000008000000000000000000000000000000000000000000000000000000000000000000000000000000000000000000000000000000000000000000000000008000000000000000000000000002000000000000000000000000000000000000000000000000000000000000000000000000000000000200000000000000000000000002000010000000000000000000000000000020000000000000000000000000000000000000040000000000000000100000000000000000000000000000000",
      "type": "0x0",
      "transactionHash": "0xf935a0c8271ea1dac7c3b0104604bcd539ddb012f9e89fd31e3ae2ab3391487e",
      "transactionIndex": "0x8f",
      "blockHash": "0xa1eeedd179fb48c0dc48e1445247e1dfaa9ef96314529f7f9c017638b3928a61",
      "blockNumber": "0x91742d",
      "gasUsed": "0x115b8",
      "effectiveGasPrice": "0xf4240",
      "from": "0xad9fdad276ab1a430fd03177a07350cd7c61e897",
      "to": "0x27a9fcfb3ddaf1597b7196e1c253ce70a7668ccd",
      "contractAddress": null
    },
    {
      "status": "0x1",
      "cumulativeGasUsed": "0x1366b70",
      "logs": [
        {
          "address": "0x27a9fcfb3ddaf1597b7196e1c253ce70a7668ccd",
          "topics": [
            "0xa27bdd7b0c9c795c64307abe4a8b21d993ec4bd2601c38dfaee5cfc991375ae8",
            "0x000000000000000000000000f9ae13167b184faa4fea2f2e7249447f0e2a30a6"
          ],
          "data": "0x",
          "blockHash": "0xa1eeedd179fb48c0dc48e1445247e1dfaa9ef96314529f7f9c017638b3928a61",
          "blockNumber": "0x91742d",
          "blockTimestamp": "0x69051e10",
          "transactionHash": "0x63d80f17e0a6b8468b30030282a6c810601902a8ec0ccc98c122d2aab7a10b2b",
          "transactionIndex": "0x90",
          "logIndex": "0xf7",
          "removed": false
        }
      ],
      "logsBloom": "0x00000000000000000000000000000000000000000000000000000000000000000000000000000000000000000000000000000000020000000000000000000000008000000000000000000000000000000000000000000000000000000000000000000000000000000000000000000000000000000000000000000000000000000000000000000000000000000000000000000008000000000000000000000100000000000000000000000000000000000000000000000000000000000000000000002000100000000000000000000000000000000000020000000000000000000000000000000000000000000000000000000000000100000000000000000002",
      "type": "0x0",
      "transactionHash": "0x63d80f17e0a6b8468b30030282a6c810601902a8ec0ccc98c122d2aab7a10b2b",
      "transactionIndex": "0x90",
      "blockHash": "0xa1eeedd179fb48c0dc48e1445247e1dfaa9ef96314529f7f9c017638b3928a61",
      "blockNumber": "0x91742d",
      "gasUsed": "0xb866",
      "effectiveGasPrice": "0xf4240",
      "from": "0xad9fdad276ab1a430fd03177a07350cd7c61e897",
      "to": "0x27a9fcfb3ddaf1597b7196e1c253ce70a7668ccd",
      "contractAddress": null
    },
    {
      "status": "0x1",
      "cumulativeGasUsed": "0x1372e53",
      "logs": [
        {
          "address": "0x27a9fcfb3ddaf1597b7196e1c253ce70a7668ccd",
          "topics": [
            "0x62cc763fb81fa7689c024380a63a22c0e9720f9003fdb916c8ea8d771da509c8",
            "0x00000000000000000000000090ea1d07c0d4c6bb73e94444554b0217a0fabf7d"
          ],
          "data": "0x0000000000000000000000000000000000000000000000000000000000000001",
          "blockHash": "0xa1eeedd179fb48c0dc48e1445247e1dfaa9ef96314529f7f9c017638b3928a61",
          "blockNumber": "0x91742d",
          "blockTimestamp": "0x69051e10",
          "transactionHash": "0xbd9b701b229e667baa486bf18325e50280b1b4cd82a32bc03a747ba83ca125fd",
          "transactionIndex": "0x91",
          "logIndex": "0xf8",
          "removed": false
        }
      ],
      "logsBloom": "0x00000000000000000000000000000000000000000000000000000000000000040000000000000000000000000000000000000000020000000000000000000000008000000000000000000000000000000000000000000000000000000000000000002000000000000000000000000000000000000000000000000000000000000000000000000000000000000000000000000000000000000000000000000020000000000000000000000000000000000000000000000000000000000000000000002000010000000000000000000000000000020000000000000000000000000000000000000040000000000000000000000000000000000000000000000000",
      "type": "0x0",
      "transactionHash": "0xbd9b701b229e667baa486bf18325e50280b1b4cd82a32bc03a747ba83ca125fd",
      "transactionIndex": "0x91",
      "blockHash": "0xa1eeedd179fb48c0dc48e1445247e1dfaa9ef96314529f7f9c017638b3928a61",
      "blockNumber": "0x91742d",
      "gasUsed": "0xc2e3",
      "effectiveGasPrice": "0xf4240",
      "from": "0xad9fdad276ab1a430fd03177a07350cd7c61e897",
      "to": "0x27a9fcfb3ddaf1597b7196e1c253ce70a7668ccd",
      "contractAddress": null
    },
    {
      "status": "0x1",
      "cumulativeGasUsed": "0x137f136",
      "logs": [
        {
          "address": "0x27a9fcfb3ddaf1597b7196e1c253ce70a7668ccd",
          "topics": [
            "0x62cc763fb81fa7689c024380a63a22c0e9720f9003fdb916c8ea8d771da509c8",
            "0x000000000000000000000000b14732958d8bc1cc974920e976ec0de3d014ee24"
          ],
          "data": "0x0000000000000000000000000000000000000000000000000000000000000001",
          "blockHash": "0xa1eeedd179fb48c0dc48e1445247e1dfaa9ef96314529f7f9c017638b3928a61",
          "blockNumber": "0x91742d",
          "blockTimestamp": "0x69051e10",
          "transactionHash": "0x8402160f5262ae00831ff56844cbd8171fe9e7ce82ecc70af446fad6362bbf62",
          "transactionIndex": "0x92",
          "logIndex": "0xf9",
          "removed": false
        }
      ],
      "logsBloom": "0x00000000000000000000000000000000000000001000000000000000000000000000000000000000000000000000000000000000020000000000000000000000008000000000000000000000000000000000000000000000000000000000000000000000000000000000000000000000000000000000000000000000000000000000000000000000000000000000000040000000000000000000000000000000000000000000000000000000000000000000000000000000000000000000000000002000010000000000000000000000000000020000000000000000000000000400000000000040000000000000000000000000000000000000000000000000",
      "type": "0x0",
      "transactionHash": "0x8402160f5262ae00831ff56844cbd8171fe9e7ce82ecc70af446fad6362bbf62",
      "transactionIndex": "0x92",
      "blockHash": "0xa1eeedd179fb48c0dc48e1445247e1dfaa9ef96314529f7f9c017638b3928a61",
      "blockNumber": "0x91742d",
      "gasUsed": "0xc2e3",
      "effectiveGasPrice": "0xf4240",
      "from": "0xad9fdad276ab1a430fd03177a07350cd7c61e897",
      "to": "0x27a9fcfb3ddaf1597b7196e1c253ce70a7668ccd",
      "contractAddress": null
    },
    {
      "status": "0x1",
      "cumulativeGasUsed": "0x138b419",
      "logs": [
        {
          "address": "0x27a9fcfb3ddaf1597b7196e1c253ce70a7668ccd",
          "topics": [
            "0x62cc763fb81fa7689c024380a63a22c0e9720f9003fdb916c8ea8d771da509c8",
            "0x000000000000000000000000ffdb47627fba9af7ee7e78310a1e85faa71e711f"
          ],
          "data": "0x0000000000000000000000000000000000000000000000000000000000000001",
          "blockHash": "0xa1eeedd179fb48c0dc48e1445247e1dfaa9ef96314529f7f9c017638b3928a61",
          "blockNumber": "0x91742d",
          "blockTimestamp": "0x69051e10",
          "transactionHash": "0x9ff0a99287abe79ec3d153ea7264a51422b2d3f4c8071d240408fa0e01cc682a",
          "transactionIndex": "0x93",
          "logIndex": "0xfa",
          "removed": false
        }
      ],
      "logsBloom": "0x00000000000000000000000000000000000000000000000000000000000000000000000000000000000000000000000000000000020000000000000000400000008000000000000000000000000000000000000000000000000000000000000000000000000000000000000000000000000000000000000000000000000000000000000000000000000000000000000004000000000000000000000000000000000000000000000000000000000000000000000000000000000000000000000000002000010000000000000000000000000000020000000002000000000000000000000000000040000000000000000000000000000000000000000000000000",
      "type": "0x0",
      "transactionHash": "0x9ff0a99287abe79ec3d153ea7264a51422b2d3f4c8071d240408fa0e01cc682a",
      "transactionIndex": "0x93",
      "blockHash": "0xa1eeedd179fb48c0dc48e1445247e1dfaa9ef96314529f7f9c017638b3928a61",
      "blockNumber": "0x91742d",
      "gasUsed": "0xc2e3",
      "effectiveGasPrice": "0xf4240",
      "from": "0xad9fdad276ab1a430fd03177a07350cd7c61e897",
      "to": "0x27a9fcfb3ddaf1597b7196e1c253ce70a7668ccd",
      "contractAddress": null
    },
    {
      "status": "0x1",
      "cumulativeGasUsed": "0x1391fbc",
      "logs": [
        {
          "address": "0x1d1b77b54e654b943ab5dad3045d324ab61492fb",
          "topics": [
            "0x23a1b510439be15b459a731ae3d1d5a6eac00dcd9433c69442716b282d888ac4",
            "0x000000000000000000000000f9ae13167b184faa4fea2f2e7249447f0e2a30a6"
          ],
          "data": "0x",
          "blockHash": "0xa1eeedd179fb48c0dc48e1445247e1dfaa9ef96314529f7f9c017638b3928a61",
          "blockNumber": "0x91742d",
          "blockTimestamp": "0x69051e10",
          "transactionHash": "0x7aca9348ec4a4898e0f853b8fe711c3c312330128fc02070b144774e09787c6d",
          "transactionIndex": "0x94",
          "logIndex": "0xfb",
          "removed": false
        }
      ],
      "logsBloom": "0x00000000000000000000000000000000000000000000000000000000000000000000000000000000000000000000000000000000000000000000000000000000000010000000000000000000000000000000000000000000000000000000000000000000000000000000000000000000000000000000000000800000000000000000000000000000000000000000000000000008000000000000000000000000000000000000000000000000000000000000000000000000000000000000000000000080000000000000000000000000000000008000020000000080000000000000000000000000000000000000080000000000000100000000000000000000",
      "type": "0x0",
      "transactionHash": "0x7aca9348ec4a4898e0f853b8fe711c3c312330128fc02070b144774e09787c6d",
      "transactionIndex": "0x94",
      "blockHash": "0xa1eeedd179fb48c0dc48e1445247e1dfaa9ef96314529f7f9c017638b3928a61",
      "blockNumber": "0x91742d",
      "gasUsed": "0x6ba3",
      "effectiveGasPrice": "0xf4240",
      "from": "0xad9fdad276ab1a430fd03177a07350cd7c61e897",
      "to": "0x1d1b77b54e654b943ab5dad3045d324ab61492fb",
      "contractAddress": null
    },
    {
      "status": "0x1",
      "cumulativeGasUsed": "0x1398878",
      "logs": [
        {
          "address": "0x1d1b77b54e654b943ab5dad3045d324ab61492fb",
          "topics": [
            "0xd464f229795dda56c42369a406dade63ed87a7cc12e4ed0cbd917347cb23285a"
          ],
          "data": "0x0000000000000000000000000000000000000000000000000000000000000001",
          "blockHash": "0xa1eeedd179fb48c0dc48e1445247e1dfaa9ef96314529f7f9c017638b3928a61",
          "blockNumber": "0x91742d",
          "blockTimestamp": "0x69051e10",
          "transactionHash": "0x75d30c0aa861b45bfa2381fa12da2a9c998436e7543b353e9440a80504127886",
          "transactionIndex": "0x95",
          "logIndex": "0xfc",
          "removed": false
        }
      ],
      "logsBloom": "0x00002000000000000000000000000000000000000000000000000000000000000000000000000000000000000000000000000000000000000000000000000000000010000000000000000000000000000000000000000000000000000000000000000000000000000000000000000000000000000000000000000000000000000000001000000000000000000000000000000000000000000000000000000000000000000000000000000000000000000000000000000000000000000000000000000000000000000000000000000000000000000000000000000080000000000000001000000000000000000000080000000000000000000000000000000000",
      "type": "0x0",
      "transactionHash": "0x75d30c0aa861b45bfa2381fa12da2a9c998436e7543b353e9440a80504127886",
      "transactionIndex": "0x95",
      "blockHash": "0xa1eeedd179fb48c0dc48e1445247e1dfaa9ef96314529f7f9c017638b3928a61",
      "blockNumber": "0x91742d",
      "gasUsed": "0x68bc",
      "effectiveGasPrice": "0xf4240",
      "from": "0xad9fdad276ab1a430fd03177a07350cd7c61e897",
      "to": "0x1d1b77b54e654b943ab5dad3045d324ab61492fb",
      "contractAddress": null
    },
    {
      "status": "0x1",
      "cumulativeGasUsed": "0x13b4bde",
      "logs": [],
      "logsBloom": "0x00000000000000000000000000000000000000000000000000000000000000000000000000000000000000000000000000000000000000000000000000000000000000000000000000000000000000000000000000000000000000000000000000000000000000000000000000000000000000000000000000000000000000000000000000000000000000000000000000000000000000000000000000000000000000000000000000000000000000000000000000000000000000000000000000000000000000000000000000000000000000000000000000000000000000000000000000000000000000000000000000000000000000000000000000000000",
      "type": "0x0",
      "transactionHash": "0x94837b6e7712daa2976bcc3640d591081a1b56939b6e5f66b0a9bf0a2022c61f",
      "transactionIndex": "0x96",
      "blockHash": "0xa1eeedd179fb48c0dc48e1445247e1dfaa9ef96314529f7f9c017638b3928a61",
      "blockNumber": "0x91742d",
      "gasUsed": "0x1c366",
      "effectiveGasPrice": "0xf4240",
      "from": "0xad9fdad276ab1a430fd03177a07350cd7c61e897",
      "to": "0xb231c79a3297748caa6098db892d9dee7dff0d2f",
      "contractAddress": null
    },
    {
      "status": "0x1",
      "cumulativeGasUsed": "0x13ccc6c",
      "logs": [],
      "logsBloom": "0x00000000000000000000000000000000000000000000000000000000000000000000000000000000000000000000000000000000000000000000000000000000000000000000000000000000000000000000000000000000000000000000000000000000000000000000000000000000000000000000000000000000000000000000000000000000000000000000000000000000000000000000000000000000000000000000000000000000000000000000000000000000000000000000000000000000000000000000000000000000000000000000000000000000000000000000000000000000000000000000000000000000000000000000000000000000",
      "type": "0x0",
      "transactionHash": "0xaf5a3bf61c4f709bc5c5eaef4a76ccb7b123bdd28cad8d1385dabb18cd030109",
      "transactionIndex": "0x97",
      "blockHash": "0xa1eeedd179fb48c0dc48e1445247e1dfaa9ef96314529f7f9c017638b3928a61",
      "blockNumber": "0x91742d",
      "gasUsed": "0x1808e",
      "effectiveGasPrice": "0xf4240",
      "from": "0xad9fdad276ab1a430fd03177a07350cd7c61e897",
      "to": "0xb231c79a3297748caa6098db892d9dee7dff0d2f",
      "contractAddress": null
    },
    {
      "status": "0x1",
      "cumulativeGasUsed": "0x13e9be5",
      "logs": [],
      "logsBloom": "0x00000000000000000000000000000000000000000000000000000000000000000000000000000000000000000000000000000000000000000000000000000000000000000000000000000000000000000000000000000000000000000000000000000000000000000000000000000000000000000000000000000000000000000000000000000000000000000000000000000000000000000000000000000000000000000000000000000000000000000000000000000000000000000000000000000000000000000000000000000000000000000000000000000000000000000000000000000000000000000000000000000000000000000000000000000000",
      "type": "0x0",
      "transactionHash": "0xe903a6f4b0dfebbb156393dc2b85057620c3e44a65753ffcb13ce3b36f7669db",
      "transactionIndex": "0x98",
      "blockHash": "0xa1eeedd179fb48c0dc48e1445247e1dfaa9ef96314529f7f9c017638b3928a61",
      "blockNumber": "0x91742d",
      "gasUsed": "0x1cf79",
      "effectiveGasPrice": "0xf4240",
      "from": "0xad9fdad276ab1a430fd03177a07350cd7c61e897",
      "to": "0xb231c79a3297748caa6098db892d9dee7dff0d2f",
      "contractAddress": null
    },
    {
      "status": "0x1",
      "cumulativeGasUsed": "0x13f504e",
      "logs": [
        {
          "address": "0x614fe9079021688115a8ec29b065344c033f9740",
          "topics": [
            "0x17307eab39ab6107e8899845ad3d59bd9653f200f220920489ca2b5937696c31",
            "0x000000000000000000000000ad9fdad276ab1a430fd03177a07350cd7c61e897",
            "0x000000000000000000000000b231c79a3297748caa6098db892d9dee7dff0d2f"
          ],
          "data": "0x0000000000000000000000000000000000000000000000000000000000000001",
          "blockHash": "0xa1eeedd179fb48c0dc48e1445247e1dfaa9ef96314529f7f9c017638b3928a61",
          "blockNumber": "0x91742d",
          "blockTimestamp": "0x69051e10",
          "transactionHash": "0x2698b3e96dd1cc42c9fa03f3e91b3b91a8890c1da9a5f608a443f1af0b9290f3",
          "transactionIndex": "0x99",
          "logIndex": "0xfd",
          "removed": false
        }
      ],
      "logsBloom": "0x00000000000000000000000000000000000000000000000008000000000000000000000000000000000000000000000000000000000000000000000000000000000000001000004000000000000000000004000000000000000000000000000002000000000000000000000000000000000000000000000000000000000008000000000000000040000000002000000000000000000000000000000000000000000010000000000000000000000000000000000000000000000000000000000000000000000000000000000000000000000000000000000000000000000000000000200800000000000000000000000100000000000000000000000000000000",
      "type": "0x0",
      "transactionHash": "0x2698b3e96dd1cc42c9fa03f3e91b3b91a8890c1da9a5f608a443f1af0b9290f3",
      "transactionIndex": "0x99",
      "blockHash": "0xa1eeedd179fb48c0dc48e1445247e1dfaa9ef96314529f7f9c017638b3928a61",
      "blockNumber": "0x91742d",
      "gasUsed": "0xb469",
      "effectiveGasPrice": "0xf4240",
      "from": "0xad9fdad276ab1a430fd03177a07350cd7c61e897",
      "to": "0x614fe9079021688115a8ec29b065344c033f9740",
      "contractAddress": null
    },
    {
      "status": "0x1",
      "cumulativeGasUsed": "0x14004a8",
      "logs": [
        {
          "address": "0x7ef7df0f64a2591fd5be9c1e88728e59cb5d362b",
          "topics": [
            "0x17307eab39ab6107e8899845ad3d59bd9653f200f220920489ca2b5937696c31",
            "0x000000000000000000000000ad9fdad276ab1a430fd03177a07350cd7c61e897",
            "0x000000000000000000000000b231c79a3297748caa6098db892d9dee7dff0d2f"
          ],
          "data": "0x0000000000000000000000000000000000000000000000000000000000000001",
          "blockHash": "0xa1eeedd179fb48c0dc48e1445247e1dfaa9ef96314529f7f9c017638b3928a61",
          "blockNumber": "0x91742d",
          "blockTimestamp": "0x69051e10",
          "transactionHash": "0xf3cf1d091c956fc917f2fd3965a42e87718b7ba794de2eb3b0650dda7c4fc4fc",
          "transactionIndex": "0x9a",
          "logIndex": "0xfe",
          "removed": false
        }
      ],
      "logsBloom": "0x00000000000000000000000000000000000000000000000000000000000000000000000000000000000000000000000000000000000000000000000000000000000000000000004000000000000000000000000000000000000000000000000002000000000000000000000000000000000000000000000000000000000008000000000000000040000000002000000000000000000000000000000000000000000010000000000000080000000000000000000000000000000000000000000000000000000000000000000000000000000000000000000000000000000000000000200800000000000000000000000140000000020000000000000000000000",
      "type": "0x0",
      "transactionHash": "0xf3cf1d091c956fc917f2fd3965a42e87718b7ba794de2eb3b0650dda7c4fc4fc",
      "transactionIndex": "0x9a",
      "blockHash": "0xa1eeedd179fb48c0dc48e1445247e1dfaa9ef96314529f7f9c017638b3928a61",
      "blockNumber": "0x91742d",
      "gasUsed": "0xb45a",
      "effectiveGasPrice": "0xf4240",
      "from": "0xad9fdad276ab1a430fd03177a07350cd7c61e897",
      "to": "0x7ef7df0f64a2591fd5be9c1e88728e59cb5d362b",
      "contractAddress": null
    },
    {
      "status": "0x1",
      "cumulativeGasUsed": "0x140b965",
      "logs": [
        {
          "address": "0xd2dcb326f003dc8db194c74db2749f8c653df6ac",
          "topics": [
            "0x8c5be1e5ebec7d5bd14f71427d1e84f3dd0314c0f7b2291e5b200ac8c7c3b925",
            "0x000000000000000000000000ad9fdad276ab1a430fd03177a07350cd7c61e897",
            "0x000000000000000000000000b231c79a3297748caa6098db892d9dee7dff0d2f"
          ],
          "data": "0xffffffffffffffffffffffffffffffffffffffffffffffffffffffffffffffff",
          "blockHash": "0xa1eeedd179fb48c0dc48e1445247e1dfaa9ef96314529f7f9c017638b3928a61",
          "blockNumber": "0x91742d",
          "blockTimestamp": "0x69051e10",
          "transactionHash": "0x3ae9869595bfd1277236f0745dc693103bcf066b1929cf88bef9065b9ffb0d2f",
          "transactionIndex": "0x9b",
          "logIndex": "0xff",
          "removed": false
        }
      ],
      "logsBloom": "0x00000000000000000000000000000000000000000000000000000000000000000000000000000000000000000000000000000000000000000000000000200000000000000000004000000000000000000000000000000000000000000000000000000002000000000000000000000000000000000000000000000000000008000000000000000040000000002000000008000000000000000000000000000000020010000000000000000000000000000000000000000000000000000000000000000000000000000000000000000000000000000000000000000000000000000010000000000000000000000000000100000000010000000000000000000000",
      "type": "0x0",
      "transactionHash": "0x3ae9869595bfd1277236f0745dc693103bcf066b1929cf88bef9065b9ffb0d2f",
      "transactionIndex": "0x9b",
      "blockHash": "0xa1eeedd179fb48c0dc48e1445247e1dfaa9ef96314529f7f9c017638b3928a61",
      "blockNumber": "0x91742d",
      "gasUsed": "0xb4bd",
      "effectiveGasPrice": "0xf4240",
      "from": "0xad9fdad276ab1a430fd03177a07350cd7c61e897",
      "to": "0xd2dcb326f003dc8db194c74db2749f8c653df6ac",
      "contractAddress": null
    }
  ],
  "libraries": [],
  "pending": [],
  "returns": {},
  "timestamp": 1761943058066,
  "chain": 11155111,
  "commit": "c03d2ed"
}