{
  "transactions": [
    {
      "hash": "0x4ef1a2b112f75c6e09a116a7b48c05acc54f47c4ab340ff205c082dfae4883d4",
      "transactionType": "CALL",
      "contractName": null,
      "contractAddress": "0x39b391df153c252e9486e7e3990b1c74289f9950",
      "function": "setAggregator(address)",
      "arguments": [
        "0x90EA1d07c0d4C6bB73E94444554b0217A0FABF7D"
      ],
      "transaction": {
        "from": "0xad9fdad276ab1a430fd03177a07350cd7c61e897",
        "to": "0x39b391df153c252e9486e7e3990b1c74289f9950",
        "gas": "0xda7c",
        "value": "0x0",
        "input": "0xf9120af600000000000000000000000090ea1d07c0d4c6bb73e94444554b0217a0fabf7d",
        "nonce": "0x5b",
        "chainId": "0x14a34"
      },
      "additionalContracts": [],
      "isFixedGasLimit": false
    },
    {
      "hash": "0x22c3a1c666d6a8d0419dbbb36eecbdd6709865243be3061c494f0d9bb5f04756",
      "transactionType": "CALL",
      "contractName": null,
      "contractAddress": "0x39b391df153c252e9486e7e3990b1c74289f9950",
      "function": "addEligibleAsset(address,uint256)",
      "arguments": [
        "0xc3032d5E67C8A67C9745943929F8DFf2410Dd9A1",
        "100000"
      ],
      "transaction": {
        "from": "0xad9fdad276ab1a430fd03177a07350cd7c61e897",
        "to": "0x39b391df153c252e9486e7e3990b1c74289f9950",
        "gas": "0xa6e5",
        "value": "0x0",
        "input": "0x642c8148000000000000000000000000c3032d5e67c8a67c9745943929f8dff2410dd9a100000000000000000000000000000000000000000000000000000000000186a0",
        "nonce": "0x5c",
        "chainId": "0x14a34"
      },
      "additionalContracts": [],
      "isFixedGasLimit": false
    },
    {
      "hash": "0x60fb811e35196746c1d73e4d5e89954d13821de3efedaaa29358a25588d56182",
      "transactionType": "CALL",
      "contractName": null,
      "contractAddress": "0x39b391df153c252e9486e7e3990b1c74289f9950",
      "function": "addEligibleAsset(address,uint256)",
      "arguments": [
        "0x7EDBF92B00CB680cC083A65aD3348f40ab886FB8",
        "10000"
      ],
      "transaction": {
        "from": "0xad9fdad276ab1a430fd03177a07350cd7c61e897",
        "to": "0x39b391df153c252e9486e7e3990b1c74289f9950",
        "gas": "0xa6c4",
        "value": "0x0",
        "input": "0x642c81480000000000000000000000007edbf92b00cb680cc083a65ad3348f40ab886fb80000000000000000000000000000000000000000000000000000000000002710",
        "nonce": "0x5d",
        "chainId": "0x14a34"
      },
      "additionalContracts": [],
      "isFixedGasLimit": false
    },
    {
      "hash": "0xf11d498b3573c6bf9885a7ac5920908fe3ffc16ce41b2289d48803edba0f6eea",
      "transactionType": "CALL",
      "contractName": null,
      "contractAddress": "0x39b391df153c252e9486e7e3990b1c74289f9950",
      "function": "addEligibleAssetWithDecimals(address,uint256,uint8)",
      "arguments": [
        "0x83F7D8c70F0D4730Bbc914d76700e9D0FFcee027",
        "1",
        "18"
      ],
      "transaction": {
        "from": "0xad9fdad276ab1a430fd03177a07350cd7c61e897",
        "to": "0x39b391df153c252e9486e7e3990b1c74289f9950",
        "gas": "0xa84b",
        "value": "0x0",
        "input": "0x961a4e8e00000000000000000000000083f7d8c70f0d4730bbc914d76700e9d0ffcee02700000000000000000000000000000000000000000000000000000000000000010000000000000000000000000000000000000000000000000000000000000012",
        "nonce": "0x5e",
        "chainId": "0x14a34"
      },
      "additionalContracts": [],
      "isFixedGasLimit": false
    },
    {
      "hash": "0xc7cb42ef19d96faceef0e5d6d7c7cbd584d28dae14402c6980bfaac38eb93648",
      "transactionType": "CALL",
      "contractName": null,
      "contractAddress": "0xc3032d5e67c8a67c9745943929f8dff2410dd9a1",
      "function": "setApprovalForAll(address,bool)",
      "arguments": [
        "0x39B391DF153C252e9486E7e3990b1c74289F9950",
        "true"
      ],
      "transaction": {
        "from": "0xad9fdad276ab1a430fd03177a07350cd7c61e897",
        "to": "0xc3032d5e67c8a67c9745943929f8dff2410dd9a1",
        "gas": "0x8dd1",
        "value": "0x0",
        "input": "0xa22cb46500000000000000000000000039b391df153c252e9486e7e3990b1c74289f99500000000000000000000000000000000000000000000000000000000000000001",
        "nonce": "0x5f",
        "chainId": "0x14a34"
      },
      "additionalContracts": [],
      "isFixedGasLimit": false
    },
    {
      "hash": "0xf21c3db40a230e2c38e743965e46ddeaaf719f2dd2a6e050898a964ec447abd3",
      "transactionType": "CALL",
      "contractName": "DummyEdition1155",
      "contractAddress": "0x7edbf92b00cb680cc083a65ad3348f40ab886fb8",
      "function": "setApprovalForAll(address,bool)",
      "arguments": [
        "0x39B391DF153C252e9486E7e3990b1c74289F9950",
        "true"
      ],
      "transaction": {
        "from": "0xad9fdad276ab1a430fd03177a07350cd7c61e897",
        "to": "0x7edbf92b00cb680cc083a65ad3348f40ab886fb8",
        "gas": "0x8dbc",
        "value": "0x0",
        "input": "0xa22cb46500000000000000000000000039b391df153c252e9486e7e3990b1c74289f99500000000000000000000000000000000000000000000000000000000000000001",
        "nonce": "0x60",
        "chainId": "0x14a34"
      },
      "additionalContracts": [],
      "isFixedGasLimit": false
    },
    {
      "hash": "0xa4ae4eb8fa0a31e1911c860c42183d9e7c4537a196d36834eec578406f1570a7",
      "transactionType": "CALL",
      "contractName": "DummyERC20Burnable",
      "contractAddress": "0x83f7d8c70f0d4730bbc914d76700e9d0ffcee027",
      "function": "approve(address,uint256)",
      "arguments": [
        "0x39B391DF153C252e9486E7e3990b1c74289F9950",
        "115792089237316195423570985008687907853269984665640564039457584007913129639935"
      ],
      "transaction": {
        "from": "0xad9fdad276ab1a430fd03177a07350cd7c61e897",
        "to": "0x83f7d8c70f0d4730bbc914d76700e9d0ffcee027",
        "gas": "0x96a4",
        "value": "0x0",
        "input": "0x095ea7b300000000000000000000000039b391df153c252e9486e7e3990b1c74289f9950ffffffffffffffffffffffffffffffffffffffffffffffffffffffffffffffff",
        "nonce": "0x61",
        "chainId": "0x14a34"
      },
      "additionalContracts": [],
      "isFixedGasLimit": false
    }
  ],
  "receipts": [
    {
      "status": "0x1",
      "cumulativeGasUsed": "0x869d1e",
      "logs": [
        {
          "address": "0x39b391df153c252e9486e7e3990b1c74289f9950",
          "topics": [
            "0x0058c9ee143474eec3c16cadb81dc9027a47f6dfbf636c4684d8472bc957b766"
          ],
          "data": "0x0000000000000000000000006edce65403992e310a62460808c4b910d972f10f0000000000000000000000000000000000000000000000000000000000009ce100000000000000000000000090ea1d07c0d4c6bb73e94444554b0217a0fabf7d00000000000000000000000000000000000000000000000000000000000000800000000000000000000000000000000000000000000000000000000000000022000100000000000000000000000000000000000000000000000000000000000493e0000000000000000000000000000000000000000000000000000000000000",
          "blockHash": "0xe2723eb7662cbc0101027879ce2765f3e3345116f065dab57be639ccbf958ddd",
          "blockNumber": "0x1fa38e4",
          "blockTimestamp": "0x6907d0a8",
          "transactionHash": "0x4ef1a2b112f75c6e09a116a7b48c05acc54f47c4ab340ff205c082dfae4883d4",
          "transactionIndex": "0x22",
          "logIndex": "0x138",
          "removed": false
        }
      ],
      "logsBloom": "0x00000000000000000000000000000000000000000000000000000000000000000000080000000000000000000001000000000000000000000000000000000000000000000000000000000000000000000000000000000000000000000000000000000000000000000000000000000000000000000000000000000000000000000800000000000000000000000000000000000000000000000000000020000000000000000000000000000000000000000000010000000000000000100000000000000000000000000000000000000000000000000000000000000000000000000000000000000000000000000000000000000000000000000000000000000000",
      "type": "0x0",
      "transactionHash": "0x4ef1a2b112f75c6e09a116a7b48c05acc54f47c4ab340ff205c082dfae4883d4",
      "transactionIndex": "0x22",
      "blockHash": "0xe2723eb7662cbc0101027879ce2765f3e3345116f065dab57be639ccbf958ddd",
      "blockNumber": "0x1fa38e4",
      "gasUsed": "0x9e2f",
      "effectiveGasPrice": "0xf42a4",
      "from": "0xad9fdad276ab1a430fd03177a07350cd7c61e897",
      "to": "0x39b391df153c252e9486e7e3990b1c74289f9950",
      "contractAddress": null,
      "l1BaseFeeScalar": "0x44d",
      "l1BlobBaseFee": "0x1",
      "l1BlobBaseFeeScalar": "0xa118b",
      "l1Fee": "0x150",
      "l1GasPrice": "0x8",
      "l1GasUsed": "0x640"
    },
    {
      "status": "0x1",
      "cumulativeGasUsed": "0x8715f3",
      "logs": [],
      "logsBloom": "0x00000000000000000000000000000000000000000000000000000000000000000000000000000000000000000000000000000000000000000000000000000000000000000000000000000000000000000000000000000000000000000000000000000000000000000000000000000000000000000000000000000000000000000000000000000000000000000000000000000000000000000000000000000000000000000000000000000000000000000000000000000000000000000000000000000000000000000000000000000000000000000000000000000000000000000000000000000000000000000000000000000000000000000000000000000000",
      "type": "0x0",
      "transactionHash": "0x22c3a1c666d6a8d0419dbbb36eecbdd6709865243be3061c494f0d9bb5f04756",
      "transactionIndex": "0x23",
      "blockHash": "0xe2723eb7662cbc0101027879ce2765f3e3345116f065dab57be639ccbf958ddd",
      "blockNumber": "0x1fa38e4",
      "gasUsed": "0x78d5",
      "effectiveGasPrice": "0xf42a4",
      "from": "0xad9fdad276ab1a430fd03177a07350cd7c61e897",
      "to": "0x39b391df153c252e9486e7e3990b1c74289f9950",
      "contractAddress": null,
      "l1BaseFeeScalar": "0x44d",
      "l1BlobBaseFee": "0x1",
      "l1BlobBaseFeeScalar": "0xa118b",
      "l1Fee": "0x150",
      "l1GasPrice": "0x8",
      "l1GasUsed": "0x640"
    },
    {
      "status": "0x1",
      "cumulativeGasUsed": "0x878eb0",
      "logs": [],
      "logsBloom": "0x00000000000000000000000000000000000000000000000000000000000000000000000000000000000000000000000000000000000000000000000000000000000000000000000000000000000000000000000000000000000000000000000000000000000000000000000000000000000000000000000000000000000000000000000000000000000000000000000000000000000000000000000000000000000000000000000000000000000000000000000000000000000000000000000000000000000000000000000000000000000000000000000000000000000000000000000000000000000000000000000000000000000000000000000000000000",
      "type": "0x0",
      "transactionHash": "0x60fb811e35196746c1d73e4d5e89954d13821de3efedaaa29358a25588d56182",
      "transactionIndex": "0x24",
      "blockHash": "0xe2723eb7662cbc0101027879ce2765f3e3345116f065dab57be639ccbf958ddd",
      "blockNumber": "0x1fa38e4",
      "gasUsed": "0x78bd",
      "effectiveGasPrice": "0xf42a4",
      "from": "0xad9fdad276ab1a430fd03177a07350cd7c61e897",
      "to": "0x39b391df153c252e9486e7e3990b1c74289f9950",
      "contractAddress": null,
      "l1BaseFeeScalar": "0x44d",
      "l1BlobBaseFee": "0x1",
      "l1BlobBaseFeeScalar": "0xa118b",
      "l1Fee": "0x150",
      "l1GasPrice": "0x8",
      "l1GasUsed": "0x640"
    },
    {
      "status": "0x1",
      "cumulativeGasUsed": "0x946e7c",
      "logs": [],
      "logsBloom": "0x00000000000000000000000000000000000000000000000000000000000000000000000000000000000000000000000000000000000000000000000000000000000000000000000000000000000000000000000000000000000000000000000000000000000000000000000000000000000000000000000000000000000000000000000000000000000000000000000000000000000000000000000000000000000000000000000000000000000000000000000000000000000000000000000000000000000000000000000000000000000000000000000000000000000000000000000000000000000000000000000000000000000000000000000000000000",
      "type": "0x0",
      "transactionHash": "0xf11d498b3573c6bf9885a7ac5920908fe3ffc16ce41b2289d48803edba0f6eea",
      "transactionIndex": "0x27",
      "blockHash": "0x360fa76f26be252bcca1aa8e567b34621fa24c9a85a9799179c3e0d2f69de741",
      "blockNumber": "0x1fa38e4",
      "gasUsed": "0x79d8",
      "effectiveGasPrice": "0xf42a4",
      "from": "0xad9fdad276ab1a430fd03177a07350cd7c61e897",
      "to": "0x39b391df153c252e9486e7e3990b1c74289f9950",
      "contractAddress": null,
      "l1BaseFeeScalar": "0x44d",
      "l1BlobBaseFee": "0x1",
      "l1BlobBaseFeeScalar": "0xa118b",
      "l1Fee": "0x50",
      "l1GasPrice": "0x8",
      "l1GasUsed": "0x640"
    },
    {
      "status": "0x1",
      "cumulativeGasUsed": "0x94d529",
      "logs": [
        {
          "address": "0xc3032d5e67c8a67c9745943929f8dff2410dd9a1",
          "topics": [
            "0x17307eab39ab6107e8899845ad3d59bd9653f200f220920489ca2b5937696c31",
            "0x000000000000000000000000ad9fdad276ab1a430fd03177a07350cd7c61e897",
            "0x00000000000000000000000039b391df153c252e9486e7e3990b1c74289f9950"
          ],
          "data": "0x0000000000000000000000000000000000000000000000000000000000000001",
          "blockHash": "0x360fa76f26be252bcca1aa8e567b34621fa24c9a85a9799179c3e0d2f69de741",
          "blockNumber": "0x1fa38e4",
          "blockTimestamp": "0x6907d0a8",
          "transactionHash": "0xc7cb42ef19d96faceef0e5d6d7c7cbd584d28dae14402c6980bfaac38eb93648",
          "transactionIndex": "0x28",
          "logIndex": "0x165",
          "removed": false
        }
      ],
      "logsBloom": "0x00000000000000000000000000000020000000000000000000000000000200000000000000000000000000000000000000000000000000000000000000000000000000000000004000000000000000080000000000000000000000000000000002000000000000000000000000000000000000000000000000000000000000000000000000000040000000000000000000000000000000000000000000000080000010000000000000000200000000000000000000000000000000000000000000000000000000000000000000400000000000000000000000000000000000000000200800000000000000000000000000000000000000000000000000000000",
      "type": "0x0",
      "transactionHash": "0xc7cb42ef19d96faceef0e5d6d7c7cbd584d28dae14402c6980bfaac38eb93648",
      "transactionIndex": "0x28",
      "blockHash": "0x360fa76f26be252bcca1aa8e567b34621fa24c9a85a9799179c3e0d2f69de741",
      "blockNumber": "0x1fa38e4",
      "gasUsed": "0x66ad",
      "effectiveGasPrice": "0xf42a4",
      "from": "0xad9fdad276ab1a430fd03177a07350cd7c61e897",
      "to": "0xc3032d5e67c8a67c9745943929f8dff2410dd9a1",
      "contractAddress": null,
      "l1BaseFeeScalar": "0x44d",
      "l1BlobBaseFee": "0x1",
      "l1BlobBaseFeeScalar": "0xa118b",
      "l1Fee": "0x50",
      "l1GasPrice": "0x8",
      "l1GasUsed": "0x640"
    },
    {
      "status": "0x1",
      "cumulativeGasUsed": "0x953bc7",
      "logs": [
        {
          "address": "0x7edbf92b00cb680cc083a65ad3348f40ab886fb8",
          "topics": [
            "0x17307eab39ab6107e8899845ad3d59bd9653f200f220920489ca2b5937696c31",
            "0x000000000000000000000000ad9fdad276ab1a430fd03177a07350cd7c61e897",
            "0x00000000000000000000000039b391df153c252e9486e7e3990b1c74289f9950"
          ],
          "data": "0x0000000000000000000000000000000000000000000000000000000000000001",
          "blockHash": "0x360fa76f26be252bcca1aa8e567b34621fa24c9a85a9799179c3e0d2f69de741",
          "blockNumber": "0x1fa38e4",
          "blockTimestamp": "0x6907d0a8",
          "transactionHash": "0xf21c3db40a230e2c38e743965e46ddeaaf719f2dd2a6e050898a964ec447abd3",
          "transactionIndex": "0x29",
          "logIndex": "0x166",
          "removed": false
        }
      ],
      "logsBloom": "0x00000000000000000000000000000020000000000000000000000000000200000000000000000000000000000000000000000000000000000000000000000000000000000000004000000000000000000000000000000000000000000000040002000000000000000000000000000000000002000000000000000000000000000000000000000040000000000000000000000000000000000000000000000000000010000000000000000200000000000000000000000000000000000000000000000000000000000000000000000000000000008000000000000000000000000000200800000000000000000000000000000000000000000000000000000000",
      "type": "0x0",
      "transactionHash": "0xf21c3db40a230e2c38e743965e46ddeaaf719f2dd2a6e050898a964ec447abd3",
      "transactionIndex": "0x29",
      "blockHash": "0x360fa76f26be252bcca1aa8e567b34621fa24c9a85a9799179c3e0d2f69de741",
      "blockNumber": "0x1fa38e4",
      "gasUsed": "0x669e",
      "effectiveGasPrice": "0xf42a4",
      "from": "0xad9fdad276ab1a430fd03177a07350cd7c61e897",
      "to": "0x7edbf92b00cb680cc083a65ad3348f40ab886fb8",
      "contractAddress": null,
      "l1BaseFeeScalar": "0x44d",
      "l1BlobBaseFee": "0x1",
      "l1BlobBaseFeeScalar": "0xa118b",
      "l1Fee": "0x50",
      "l1GasPrice": "0x8",
      "l1GasUsed": "0x640"
    },
    {
      "status": "0x1",
      "cumulativeGasUsed": "0x95a2c8",
      "logs": [
        {
          "address": "0x83f7d8c70f0d4730bbc914d76700e9d0ffcee027",
          "topics": [
            "0x8c5be1e5ebec7d5bd14f71427d1e84f3dd0314c0f7b2291e5b200ac8c7c3b925",
            "0x000000000000000000000000ad9fdad276ab1a430fd03177a07350cd7c61e897",
            "0x00000000000000000000000039b391df153c252e9486e7e3990b1c74289f9950"
          ],
          "data": "0xffffffffffffffffffffffffffffffffffffffffffffffffffffffffffffffff",
          "blockHash": "0x360fa76f26be252bcca1aa8e567b34621fa24c9a85a9799179c3e0d2f69de741",
          "blockNumber": "0x1fa38e4",
          "blockTimestamp": "0x6907d0a8",
          "transactionHash": "0xa4ae4eb8fa0a31e1911c860c42183d9e7c4537a196d36834eec578406f1570a7",
          "transactionIndex": "0x2a",
          "logIndex": "0x167",
          "removed": false
        }
      ],
      "logsBloom": "0x00000000000000000000000000000020000000000000000000000000000200000000000000000000000000000000000000000000000000000000000000200080000000000000004000000000000000000000000000000000000000000000000000000000000000000000000000000000000000000000000000000000000000000000000000000040000000000000000000000000000000000000000000000000020010000000000000001200000000000000000000000000000000000000000000000000000000000000000000000000000000000000000000000080000000000010000000000000000000000000000000000000000000000000000000000000",
      "type": "0x0",
      "transactionHash": "0xa4ae4eb8fa0a31e1911c860c42183d9e7c4537a196d36834eec578406f1570a7",
      "transactionIndex": "0x2a",
      "blockHash": "0x360fa76f26be252bcca1aa8e567b34621fa24c9a85a9799179c3e0d2f69de741",
      "blockNumber": "0x1fa38e4",
      "gasUsed": "0x6701",
      "effectiveGasPrice": "0xf42a4",
      "from": "0xad9fdad276ab1a430fd03177a07350cd7c61e897",
      "to": "0x83f7d8c70f0d4730bbc914d76700e9d0ffcee027",
      "contractAddress": null,
      "l1BaseFeeScalar": "0x44d",
      "l1BlobBaseFee": "0x1",
      "l1BlobBaseFeeScalar": "0xa118b",
      "l1Fee": "0x50",
      "l1GasPrice": "0x8",
      "l1GasUsed": "0x640"
    }
  ],
  "libraries": [],
  "pending": [],
  "returns": {},
  "timestamp": 1762119848746,
  "chain": 84532,
  "commit": "c03d2ed"
}