{
  "transactions": [
    {
      "hash": "0x08daa185c4c4e626d96a1fa7883fc6fb84067377f22fbf1346aada85d2e8bee0",
      "transactionType": "CALL",
      "contractName": null,
      "contractAddress": "0x39b391df153c252e9486e7e3990b1c74289f9950",
      "function": "setAggregator(address)",
      "arguments": [
        "0x90EA1d07c0d4C6bB73E94444554b0217A0FABF7D"
      ],
      "transaction": {
        "from": "0xad9fdad276ab1a430fd03177a07350cd7c61e897",
        "to": "0x39b391df153c252e9486e7e3990b1c74289f9950",
        "gas": "0xf8b3",
        "value": "0x0",
        "input": "0xf9120af600000000000000000000000090ea1d07c0d4c6bb73e94444554b0217a0fabf7d",
        "nonce": "0x37",
        "chainId": "0x14a34"
      },
      "additionalContracts": [],
      "isFixedGasLimit": false
    },
    {
      "hash": "0x09c0c97b499b22ff2ade57e4d47a5dfa12b1817c637b7eb68b66e25fce7d1d31",
      "transactionType": "CALL",
      "contractName": null,
      "contractAddress": "0x39b391df153c252e9486e7e3990b1c74289f9950",
      "function": "addEligibleAsset(address,uint256)",
      "arguments": [
        "0xc3032d5E67C8A67C9745943929F8DFf2410Dd9A1",
        "100000"
      ],
      "transaction": {
        "from": "0xad9fdad276ab1a430fd03177a07350cd7c61e897",
        "to": "0x39b391df153c252e9486e7e3990b1c74289f9950",
        "gas": "0x26e7d",
        "value": "0x0",
        "input": "0x642c8148000000000000000000000000c3032d5e67c8a67c9745943929f8dff2410dd9a100000000000000000000000000000000000000000000000000000000000186a0",
        "nonce": "0x38",
        "chainId": "0x14a34"
      },
      "additionalContracts": [],
      "isFixedGasLimit": false
    },
    {
      "hash": "0x28b1de4ad48442add155ad2af792e0918a8cf3c7ed26d42e3fe1df5a65262aa7",
      "transactionType": "CALL",
      "contractName": null,
      "contractAddress": "0x39b391df153c252e9486e7e3990b1c74289f9950",
      "function": "addEligibleAsset(address,uint256)",
      "arguments": [
        "0x7EDBF92B00CB680cC083A65aD3348f40ab886FB8",
        "10000"
      ],
      "transaction": {
        "from": "0xad9fdad276ab1a430fd03177a07350cd7c61e897",
        "to": "0x39b391df153c252e9486e7e3990b1c74289f9950",
        "gas": "0x23149",
        "value": "0x0",
        "input": "0x642c81480000000000000000000000007edbf92b00cb680cc083a65ad3348f40ab886fb80000000000000000000000000000000000000000000000000000000000002710",
        "nonce": "0x39",
        "chainId": "0x14a34"
      },
      "additionalContracts": [],
      "isFixedGasLimit": false
    },
    {
      "hash": "0x3eec5a0eff8ddaf4cd388493260af8972d0fb2bc13c5ff34f35369f7d3680ead",
      "transactionType": "CALL",
      "contractName": null,
      "contractAddress": "0x39b391df153c252e9486e7e3990b1c74289f9950",
      "function": "addEligibleAssetWithDecimals(address,uint256,uint8)",
      "arguments": [
        "0x83F7D8c70F0D4730Bbc914d76700e9D0FFcee027",
        "1",
        "18"
      ],
      "transaction": {
        "from": "0xad9fdad276ab1a430fd03177a07350cd7c61e897",
        "to": "0x39b391df153c252e9486e7e3990b1c74289f9950",
        "gas": "0x27efc",
        "value": "0x0",
        "input": "0x961a4e8e00000000000000000000000083f7d8c70f0d4730bbc914d76700e9d0ffcee02700000000000000000000000000000000000000000000000000000000000000010000000000000000000000000000000000000000000000000000000000000012",
        "nonce": "0x3a",
        "chainId": "0x14a34"
      },
      "additionalContracts": [],
      "isFixedGasLimit": false
    },
    {
      "hash": "0xec0cd095373f3f53c7eb833dc400c101c7ac089a1e2fdca7ba3a04186a387ea8",
      "transactionType": "CALL",
      "contractName": "DummyOneOfOne",
      "contractAddress": "0xc3032d5e67c8a67c9745943929f8dff2410dd9a1",
      "function": "setApprovalForAll(address,bool)",
      "arguments": [
        "0x39B391DF153C252e9486E7e3990b1c74289F9950",
        "true"
      ],
      "transaction": {
        "from": "0xad9fdad276ab1a430fd03177a07350cd7c61e897",
        "to": "0xc3032d5e67c8a67c9745943929f8dff2410dd9a1",
        "gas": "0x107d9",
        "value": "0x0",
        "input": "0xa22cb46500000000000000000000000039b391df153c252e9486e7e3990b1c74289f99500000000000000000000000000000000000000000000000000000000000000001",
        "nonce": "0x3b",
        "chainId": "0x14a34"
      },
      "additionalContracts": [],
      "isFixedGasLimit": false
    },
    {
      "hash": "0x664c574d2ad592b374bdf9b5ffdeb02285b3d8d26a5d2e048c3518da5e5f451a",
      "transactionType": "CALL",
      "contractName": "DummyEdition1155",
      "contractAddress": "0x7edbf92b00cb680cc083a65ad3348f40ab886fb8",
      "function": "setApprovalForAll(address,bool)",
      "arguments": [
        "0x39B391DF153C252e9486E7e3990b1c74289F9950",
        "true"
      ],
      "transaction": {
        "from": "0xad9fdad276ab1a430fd03177a07350cd7c61e897",
        "to": "0x7edbf92b00cb680cc083a65ad3348f40ab886fb8",
        "gas": "0x107c3",
        "value": "0x0",
        "input": "0xa22cb46500000000000000000000000039b391df153c252e9486e7e3990b1c74289f99500000000000000000000000000000000000000000000000000000000000000001",
        "nonce": "0x3c",
        "chainId": "0x14a34"
      },
      "additionalContracts": [],
      "isFixedGasLimit": false
    },
    {
      "hash": "0x112361f278409b9ac3835e87172a442e03f1d40f32dcd3c68d68852a2baaffb9",
      "transactionType": "CALL",
      "contractName": "DummyERC20Burnable",
      "contractAddress": "0x83f7d8c70f0d4730bbc914d76700e9d0ffcee027",
      "function": "approve(address,uint256)",
      "arguments": [
        "0x39B391DF153C252e9486E7e3990b1c74289F9950",
        "115792089237316195423570985008687907853269984665640564039457584007913129639935"
      ],
      "transaction": {
        "from": "0xad9fdad276ab1a430fd03177a07350cd7c61e897",
        "to": "0x83f7d8c70f0d4730bbc914d76700e9d0ffcee027",
        "gas": "0xf9a4",
        "value": "0x0",
        "input": "0x095ea7b300000000000000000000000039b391df153c252e9486e7e3990b1c74289f9950ffffffffffffffffffffffffffffffffffffffffffffffffffffffffffffffff",
        "nonce": "0x3d",
        "chainId": "0x14a34"
      },
      "additionalContracts": [],
      "isFixedGasLimit": false
    }
  ],
  "receipts": [
    {
      "status": "0x1",
      "cumulativeGasUsed": "0x314772",
      "logs": [
        {
          "address": "0x39b391df153c252e9486e7e3990b1c74289f9950",
          "topics": [
            "0x0058c9ee143474eec3c16cadb81dc9027a47f6dfbf636c4684d8472bc957b766"
          ],
          "data": "0x0000000000000000000000006edce65403992e310a62460808c4b910d972f10f0000000000000000000000000000000000000000000000000000000000009ce100000000000000000000000090ea1d07c0d4c6bb73e94444554b0217a0fabf7d00000000000000000000000000000000000000000000000000000000000000800000000000000000000000000000000000000000000000000000000000000022000100000000000000000000000000000000000000000000000000000000000493e0000000000000000000000000000000000000000000000000000000000000",
          "blockHash": "0x68487d0d55b96ea11462583c74468c58f3f736eea63d66dc6db3e1ae7ba3dc1c",
          "blockNumber": "0x1f6e0b1",
          "blockTimestamp": "0x69012042",
          "transactionHash": "0x08daa185c4c4e626d96a1fa7883fc6fb84067377f22fbf1346aada85d2e8bee0",
          "transactionIndex": "0x1b",
          "logIndex": "0x32",
          "removed": false
        }
      ],
      "logsBloom": "0x00000000000000000000000000000000000000000000000000000000000000000000080000000000000000000001000000000000000000000000000000000000000000000000000000000000000000000000000000000000000000000000000000000000000000000000000000000000000000000000000000000000000000000800000000000000000000000000000000000000000000000000000020000000000000000000000000000000000000000000010000000000000000100000000000000000000000000000000000000000000000000000000000000000000000000000000000000000000000000000000000000000000000000000000000000000",
      "type": "0x2",
      "transactionHash": "0x08daa185c4c4e626d96a1fa7883fc6fb84067377f22fbf1346aada85d2e8bee0",
      "transactionIndex": "0x1b",
      "blockHash": "0x68487d0d55b96ea11462583c74468c58f3f736eea63d66dc6db3e1ae7ba3dc1c",
      "blockNumber": "0x1f6e0b1",
      "gasUsed": "0xb40f",
      "effectiveGasPrice": "0xf427e",
      "from": "0xad9fdad276ab1a430fd03177a07350cd7c61e897",
      "to": "0x39b391df153c252e9486e7e3990b1c74289f9950",
      "contractAddress": null,
      "l1BaseFeeScalar": "0x44d",
      "l1BlobBaseFee": "0x1523",
      "l1BlobBaseFeeScalar": "0xa118b",
      "l1Fee": "0x572c6",
      "l1GasPrice": "0xa",
      "l1GasUsed": "0x640"
    },
    {
      "status": "0x1",
      "cumulativeGasUsed": "0x330a1f",
      "logs": [],
      "logsBloom": "0x00000000000000000000000000000000000000000000000000000000000000000000000000000000000000000000000000000000000000000000000000000000000000000000000000000000000000000000000000000000000000000000000000000000000000000000000000000000000000000000000000000000000000000000000000000000000000000000000000000000000000000000000000000000000000000000000000000000000000000000000000000000000000000000000000000000000000000000000000000000000000000000000000000000000000000000000000000000000000000000000000000000000000000000000000000000",
      "type": "0x2",
      "transactionHash": "0x09c0c97b499b22ff2ade57e4d47a5dfa12b1817c637b7eb68b66e25fce7d1d31",
      "transactionIndex": "0x1c",
      "blockHash": "0x68487d0d55b96ea11462583c74468c58f3f736eea63d66dc6db3e1ae7ba3dc1c",
      "blockNumber": "0x1f6e0b1",
      "gasUsed": "0x1c2ad",
      "effectiveGasPrice": "0xf427e",
      "from": "0xad9fdad276ab1a430fd03177a07350cd7c61e897",
      "to": "0x39b391df153c252e9486e7e3990b1c74289f9950",
      "contractAddress": null,
      "l1BaseFeeScalar": "0x44d",
      "l1BlobBaseFee": "0x1523",
      "l1BlobBaseFeeScalar": "0xa118b",
      "l1Fee": "0x572c6",
      "l1GasPrice": "0xa",
      "l1GasUsed": "0x640"
    },
    {
      "status": "0x1",
      "cumulativeGasUsed": "0x3489e8",
      "logs": [],
      "logsBloom": "0x00000000000000000000000000000000000000000000000000000000000000000000000000000000000000000000000000000000000000000000000000000000000000000000000000000000000000000000000000000000000000000000000000000000000000000000000000000000000000000000000000000000000000000000000000000000000000000000000000000000000000000000000000000000000000000000000000000000000000000000000000000000000000000000000000000000000000000000000000000000000000000000000000000000000000000000000000000000000000000000000000000000000000000000000000000000",
      "type": "0x2",
      "transactionHash": "0x28b1de4ad48442add155ad2af792e0918a8cf3c7ed26d42e3fe1df5a65262aa7",
      "transactionIndex": "0x1d",
      "blockHash": "0x68487d0d55b96ea11462583c74468c58f3f736eea63d66dc6db3e1ae7ba3dc1c",
      "blockNumber": "0x1f6e0b1",
      "gasUsed": "0x17fc9",
      "effectiveGasPrice": "0xf427e",
      "from": "0xad9fdad276ab1a430fd03177a07350cd7c61e897",
      "to": "0x39b391df153c252e9486e7e3990b1c74289f9950",
      "contractAddress": null,
      "l1BaseFeeScalar": "0x44d",
      "l1BlobBaseFee": "0x1523",
      "l1BlobBaseFeeScalar": "0xa118b",
      "l1Fee": "0x572c6",
      "l1GasPrice": "0xa",
      "l1GasUsed": "0x640"
    },
    {
      "status": "0x1",
      "cumulativeGasUsed": "0x365886",
      "logs": [],
      "logsBloom": "0x00000000000000000000000000000000000000000000000000000000000000000000000000000000000000000000000000000000000000000000000000000000000000000000000000000000000000000000000000000000000000000000000000000000000000000000000000000000000000000000000000000000000000000000000000000000000000000000000000000000000000000000000000000000000000000000000000000000000000000000000000000000000000000000000000000000000000000000000000000000000000000000000000000000000000000000000000000000000000000000000000000000000000000000000000000000",
      "type": "0x2",
      "transactionHash": "0x3eec5a0eff8ddaf4cd388493260af8972d0fb2bc13c5ff34f35369f7d3680ead",
      "transactionIndex": "0x1e",
      "blockHash": "0x68487d0d55b96ea11462583c74468c58f3f736eea63d66dc6db3e1ae7ba3dc1c",
      "blockNumber": "0x1f6e0b1",
      "gasUsed": "0x1ce9e",
      "effectiveGasPrice": "0xf427e",
      "from": "0xad9fdad276ab1a430fd03177a07350cd7c61e897",
      "to": "0x39b391df153c252e9486e7e3990b1c74289f9950",
      "contractAddress": null,
      "l1BaseFeeScalar": "0x44d",
      "l1BlobBaseFee": "0x1523",
      "l1BlobBaseFeeScalar": "0xa118b",
      "l1Fee": "0x572c6",
      "l1GasPrice": "0xa",
      "l1GasUsed": "0x640"
    },
    {
      "status": "0x1",
      "cumulativeGasUsed": "0x370cef",
      "logs": [
        {
          "address": "0xc3032d5e67c8a67c9745943929f8dff2410dd9a1",
          "topics": [
            "0x17307eab39ab6107e8899845ad3d59bd9653f200f220920489ca2b5937696c31",
            "0x000000000000000000000000ad9fdad276ab1a430fd03177a07350cd7c61e897",
            "0x00000000000000000000000039b391df153c252e9486e7e3990b1c74289f9950"
          ],
          "data": "0x0000000000000000000000000000000000000000000000000000000000000001",
          "blockHash": "0x68487d0d55b96ea11462583c74468c58f3f736eea63d66dc6db3e1ae7ba3dc1c",
          "blockNumber": "0x1f6e0b1",
          "blockTimestamp": "0x69012042",
          "transactionHash": "0xec0cd095373f3f53c7eb833dc400c101c7ac089a1e2fdca7ba3a04186a387ea8",
          "transactionIndex": "0x1f",
          "logIndex": "0x33",
          "removed": false
        }
      ],
      "logsBloom": "0x00000000000000000000000000000020000000000000000000000000000200000000000000000000000000000000000000000000000000000000000000000000000000000000004000000000000000080000000000000000000000000000000002000000000000000000000000000000000000000000000000000000000000000000000000000040000000000000000000000000000000000000000000000080000010000000000000000200000000000000000000000000000000000000000000000000000000000000000000400000000000000000000000000000000000000000200800000000000000000000000000000000000000000000000000000000",
      "type": "0x2",
      "transactionHash": "0xec0cd095373f3f53c7eb833dc400c101c7ac089a1e2fdca7ba3a04186a387ea8",
      "transactionIndex": "0x1f",
      "blockHash": "0x68487d0d55b96ea11462583c74468c58f3f736eea63d66dc6db3e1ae7ba3dc1c",
      "blockNumber": "0x1f6e0b1",
      "gasUsed": "0xb469",
      "effectiveGasPrice": "0xf427e",
      "from": "0xad9fdad276ab1a430fd03177a07350cd7c61e897",
      "to": "0xc3032d5e67c8a67c9745943929f8dff2410dd9a1",
      "contractAddress": null,
      "l1BaseFeeScalar": "0x44d",
      "l1BlobBaseFee": "0x1523",
      "l1BlobBaseFeeScalar": "0xa118b",
      "l1Fee": "0x572c6",
      "l1GasPrice": "0xa",
      "l1GasUsed": "0x640"
    },
    {
      "status": "0x1",
      "cumulativeGasUsed": "0x37c149",
      "logs": [
        {
          "address": "0x7edbf92b00cb680cc083a65ad3348f40ab886fb8",
          "topics": [
            "0x17307eab39ab6107e8899845ad3d59bd9653f200f220920489ca2b5937696c31",
            "0x000000000000000000000000ad9fdad276ab1a430fd03177a07350cd7c61e897",
            "0x00000000000000000000000039b391df153c252e9486e7e3990b1c74289f9950"
          ],
          "data": "0x0000000000000000000000000000000000000000000000000000000000000001",
          "blockHash": "0x68487d0d55b96ea11462583c74468c58f3f736eea63d66dc6db3e1ae7ba3dc1c",
          "blockNumber": "0x1f6e0b1",
          "blockTimestamp": "0x69012042",
          "transactionHash": "0x664c574d2ad592b374bdf9b5ffdeb02285b3d8d26a5d2e048c3518da5e5f451a",
          "transactionIndex": "0x20",
          "logIndex": "0x34",
          "removed": false
        }
      ],
      "logsBloom": "0x00000000000000000000000000000020000000000000000000000000000200000000000000000000000000000000000000000000000000000000000000000000000000000000004000000000000000000000000000000000000000000000040002000000000000000000000000000000000002000000000000000000000000000000000000000040000000000000000000000000000000000000000000000000000010000000000000000200000000000000000000000000000000000000000000000000000000000000000000000000000000008000000000000000000000000000200800000000000000000000000000000000000000000000000000000000",
      "type": "0x2",
      "transactionHash": "0x664c574d2ad592b374bdf9b5ffdeb02285b3d8d26a5d2e048c3518da5e5f451a",
      "transactionIndex": "0x20",
      "blockHash": "0x68487d0d55b96ea11462583c74468c58f3f736eea63d66dc6db3e1ae7ba3dc1c",
      "blockNumber": "0x1f6e0b1",
      "gasUsed": "0xb45a",
      "effectiveGasPrice": "0xf427e",
      "from": "0xad9fdad276ab1a430fd03177a07350cd7c61e897",
      "to": "0x7edbf92b00cb680cc083a65ad3348f40ab886fb8",
      "contractAddress": null,
      "l1BaseFeeScalar": "0x44d",
      "l1BlobBaseFee": "0x1523",
      "l1BlobBaseFeeScalar": "0xa118b",
      "l1Fee": "0x572c6",
      "l1GasPrice": "0xa",
      "l1GasUsed": "0x640"
    },
    {
      "status": "0x1",
      "cumulativeGasUsed": "0x387606",
      "logs": [
        {
          "address": "0x83f7d8c70f0d4730bbc914d76700e9d0ffcee027",
          "topics": [
            "0x8c5be1e5ebec7d5bd14f71427d1e84f3dd0314c0f7b2291e5b200ac8c7c3b925",
            "0x000000000000000000000000ad9fdad276ab1a430fd03177a07350cd7c61e897",
            "0x00000000000000000000000039b391df153c252e9486e7e3990b1c74289f9950"
          ],
          "data": "0xffffffffffffffffffffffffffffffffffffffffffffffffffffffffffffffff",
          "blockHash": "0x68487d0d55b96ea11462583c74468c58f3f736eea63d66dc6db3e1ae7ba3dc1c",
          "blockNumber": "0x1f6e0b1",
          "blockTimestamp": "0x69012042",
          "transactionHash": "0x112361f278409b9ac3835e87172a442e03f1d40f32dcd3c68d68852a2baaffb9",
          "transactionIndex": "0x21",
          "logIndex": "0x35",
          "removed": false
        }
      ],
      "logsBloom": "0x00000000000000000000000000000020000000000000000000000000000200000000000000000000000000000000000000000000000000000000000000200080000000000000004000000000000000000000000000000000000000000000000000000000000000000000000000000000000000000000000000000000000000000000000000000040000000000000000000000000000000000000000000000000020010000000000000001200000000000000000000000000000000000000000000000000000000000000000000000000000000000000000000000080000000000010000000000000000000000000000000000000000000000000000000000000",
      "type": "0x2",
      "transactionHash": "0x112361f278409b9ac3835e87172a442e03f1d40f32dcd3c68d68852a2baaffb9",
      "transactionIndex": "0x21",
      "blockHash": "0x68487d0d55b96ea11462583c74468c58f3f736eea63d66dc6db3e1ae7ba3dc1c",
      "blockNumber": "0x1f6e0b1",
      "gasUsed": "0xb4bd",
      "effectiveGasPrice": "0xf427e",
      "from": "0xad9fdad276ab1a430fd03177a07350cd7c61e897",
      "to": "0x83f7d8c70f0d4730bbc914d76700e9d0ffcee027",
      "contractAddress": null,
      "l1BaseFeeScalar": "0x44d",
      "l1BlobBaseFee": "0x1523",
      "l1BlobBaseFeeScalar": "0xa118b",
      "l1Fee": "0x572c6",
      "l1GasPrice": "0xa",
      "l1GasUsed": "0x640"
    }
  ],
  "libraries": [],
  "pending": [],
  "returns": {},
  "timestamp": 1761681473908,
  "chain": 84532,
  "commit": "c03d2ed"
}