{
  "transactions": [
    {
      "hash": "0x3299290ea31d92ce3b627d82f0d889048ef690bc5556f9982ae015d1fd01d0ca",
      "transactionType": "CREATE",
      "contractName": "LayerZeroBaseReceiver",
      "contractAddress": "0x90ea1d07c0d4c6bb73e94444554b0217a0fabf7d",
      "function": null,
      "arguments": [
        "0x6EDCE65403992e310A62460808c4b910D972f10f",
        "0x2A0449d5bC53107A781CD9d22791230899072E58"
      ],
      "transaction": {
        "from": "0xad9fdad276ab1a430fd03177a07350cd7c61e897",
        "gas": "0xac9c0",
        "value": "0x0",
        "input": "0x60a0346101c257601f6109d238819003918201601f19168301916001600160401b038311848410176101c65780849260409485528339810103126101c257610052602061004b836101da565b92016101da565b33156101af575f8054336001600160a01b0319821681178355604051949290916001600160a01b0316907f8be0079c531659141344cd1fd0a4f28419497f9722a3daafe3b4186f6b6457e09080a36001600160a01b031691821561016d57506001600160a01b031690811561012857608052600180546001600160a01b031916821790556040519081527f602cec4b1583b07d071161da5eb9589444d2459201e2fab7753dc941e9351c2190602090a16040516107e390816101ef823960805181818161026d0152818161039f01526104cc0152f35b60405162461bcd60e51b815260206004820152601660248201527f41676772656761746f72206d75737420626520736574000000000000000000006044820152606490fd5b62461bcd60e51b815260206004820152601460248201527f456e64706f696e74206d757374206265207365740000000000000000000000006044820152606490fd5b631e4fbdf760e01b5f525f60045260245ffd5b5f80fd5b634e487b7160e01b5f52604160045260245ffd5b51906001600160a01b03821682036101c25756fe6080604052600436101561001a575b3615610018575f80fd5b005b5f5f3560e01c806301681a621461063a57806313137d651461045e578063245a7bfc1461043557806353267dd3146103ce5780635e280f1114610389578063715018a6146103425780637d25a05e1461031c5780638da5cb5b146102f5578063b1d1f19014610248578063d68743b314610213578063f2fde38b146101a0578063f9120af6146100f05763ff7bd03d146100b4575061000e565b346100ed5760603660031901126100ed5760209060409063ffffffff6100d861071d565b16815260028352205460405190602435148152f35b80fd5b50346100ed5760203660031901126100ed5761010a6106f4565b610112610767565b6001600160a01b0316801561016257600180546001600160a01b031916821790556040519081527f602cec4b1583b07d071161da5eb9589444d2459201e2fab7753dc941e9351c2190602090a180f35b60405162461bcd60e51b81526020600482015260166024820152751059d9dc9959d85d1bdc881b5d5cdd081899481cd95d60521b6044820152606490fd5b50346100ed5760203660031901126100ed576101ba6106f4565b6101c2610767565b6001600160a01b031680156101ff5781546001600160a01b03198116821783556001600160a01b03165f51602061078e5f395f51905f528380a380f35b631e4fbdf760e01b82526004829052602482fd5b50346100ed5760203660031901126100ed57604060209163ffffffff61023761070a565b168152600283522054604051908152f35b50346100ed5760203660031901126100ed57806102636106f4565b61026b610767565b7f00000000000000000000000000000000000000000000000000000000000000006001600160a01b031690813b156102f15760405163ca5eb5e160e01b81526001600160a01b0390911660048201529082908290602490829084905af180156102e6576102d55750f35b816102df91610730565b6100ed5780f35b6040513d84823e3d90fd5b5050fd5b50346100ed57806003193601126100ed57546040516001600160a01b039091168152602090f35b50346100ed5760403660031901126100ed5760209061033961070a565b50604051908152f35b50346100ed57806003193601126100ed5761035b610767565b80546001600160a01b03198116825581906001600160a01b03165f51602061078e5f395f51905f528280a380f35b50346100ed57806003193601126100ed576040517f00000000000000000000000000000000000000000000000000000000000000006001600160a01b03168152602090f35b50346100ed5760403660031901126100ed576103e861070a565b7f096f300665a57908ac1627e5a821ea670d2a90da7c601a19bf265f8553453f28602063ffffffff6024359361041c610767565b169283855260028252806040862055604051908152a280f35b50346100ed57806003193601126100ed576001546040516001600160a01b039091168152602090f35b50366003190160e081126105f0576060136105f0576084356001600160401b0381116105f0576104929036906004016106c7565b9060a4356001600160a01b03811691908290036105f05760c4356001600160401b0381116105f0576104c89036906004016106c7565b50507f00000000000000000000000000000000000000000000000000000000000000006001600160a01b031633036106275763ffffffff61050761071d565b165f52600260205260405f2054801590811561061a575b506105f4576001546001600160a01b0316803b156105f057604051630e69718b60e01b81526020600482015260248101859052915f9183918690604484013782604487840101528183604482601f19601f8b011681010301925af180156105e5576105cf575b5060607fd569a8414af1bc5de7175a27be7e3a140481069ad25fbadb64e8134fef3103b29163ffffffff6105b661071d565b169360405191606435835260208301526040820152a280f35b6105dc9193505f90610730565b5f916060610584565b6040513d5f823e3d90fd5b5f80fd5b63ffffffff61060161071d565b6315b66a8f60e21b5f521660045260243560245260445ffd5b905060243514155f61051e565b6391ac5e4f60e01b5f523360045260245ffd5b346105f05760203660031901126105f0576004356001600160a01b038116908190036105f057610668610767565b801561068e575f808080934790828215610685575bf1156105e557005b506108fc61067d565b60405162461bcd60e51b8152602060048201526011602482015270125b9d985b1a59081c9958da5c1a595b9d607a1b6044820152606490fd5b9181601f840112156105f0578235916001600160401b0383116105f057602083818601950101116105f057565b600435906001600160a01b03821682036105f057565b6004359063ffffffff821682036105f057565b60043563ffffffff811681036105f05790565b601f909101601f19168101906001600160401b0382119082101761075357604052565b634e487b7160e01b5f52604160045260245ffd5b5f546001600160a01b0316330361077a57565b63118cdaa760e01b5f523360045260245ffdfe8be0079c531659141344cd1fd0a4f28419497f9722a3daafe3b4186f6b6457e0a26469706673582212205825d563fdaeb2376704b3a30b23b1379974ea2d0dd163df5246f1cc096042fc64736f6c634300081e00330000000000000000000000006edce65403992e310a62460808c4b910d972f10f0000000000000000000000002a0449d5bc53107a781cd9d22791230899072e58",
        "nonce": "0x260",
        "chainId": "0xaa36a7"
      },
      "additionalContracts": [],
      "isFixedGasLimit": false
    },
    {
      "hash": "0x49d513727802d8a1fb52463bfc831d9f880d1df7c2aa5f28472fe5d701df6024",
      "transactionType": "CALL",
      "contractName": "LayerZeroBaseReceiver",
      "contractAddress": "0x90ea1d07c0d4c6bb73e94444554b0217a0fabf7d",
      "function": "setTrustedPeer(uint32,bytes32)",
      "arguments": [
        "40245",
        "0x000000000000000000000000e8039fe92fe451c8afdc3f4d2de3bf5c729ec1db"
      ],
      "transaction": {
        "from": "0xad9fdad276ab1a430fd03177a07350cd7c61e897",
        "to": "0x90ea1d07c0d4c6bb73e94444554b0217a0fabf7d",
        "gas": "0x100ce",
        "value": "0x0",
        "input": "0x53267dd30000000000000000000000000000000000000000000000000000000000009d35000000000000000000000000e8039fe92fe451c8afdc3f4d2de3bf5c729ec1db",
        "nonce": "0x261",
        "chainId": "0xaa36a7"
      },
      "additionalContracts": [],
      "isFixedGasLimit": false
    }
  ],
  "receipts": [
    {
      "status": "0x1",
      "cumulativeGasUsed": "0xeb03a4",
      "logs": [
        {
          "address": "0x90ea1d07c0d4c6bb73e94444554b0217a0fabf7d",
          "topics": [
            "0x8be0079c531659141344cd1fd0a4f28419497f9722a3daafe3b4186f6b6457e0",
            "0x0000000000000000000000000000000000000000000000000000000000000000",
            "0x000000000000000000000000ad9fdad276ab1a430fd03177a07350cd7c61e897"
          ],
          "data": "0x",
          "blockHash": "0x32ec5999d1cb4ad98ffafb8e2725de2e24f0c44642b3cc38f2a90a3094ae63c4",
          "blockNumber": "0x911e99",
          "blockTimestamp": "0x69011880",
          "transactionHash": "0x3299290ea31d92ce3b627d82f0d889048ef690bc5556f9982ae015d1fd01d0ca",
          "transactionIndex": "0x4e",
          "logIndex": "0x56",
          "removed": false
        },
        {
          "address": "0x90ea1d07c0d4c6bb73e94444554b0217a0fabf7d",
          "topics": [
            "0x602cec4b1583b07d071161da5eb9589444d2459201e2fab7753dc941e9351c21"
          ],
          "data": "0x0000000000000000000000002a0449d5bc53107a781cd9d22791230899072e58",
          "blockHash": "0x32ec5999d1cb4ad98ffafb8e2725de2e24f0c44642b3cc38f2a90a3094ae63c4",
          "blockNumber": "0x911e99",
          "blockTimestamp": "0x69011880",
          "transactionHash": "0x3299290ea31d92ce3b627d82f0d889048ef690bc5556f9982ae015d1fd01d0ca",
          "transactionIndex": "0x4e",
          "logIndex": "0x57",
          "removed": false
        }
      ],
      "logsBloom": "0x00000000000000000000000000000000000000000000000000800000000000000000008000000000000000000000000000000000000000000000100000000000000000000000004000000000000000000001000000000000000000000000000000000020020000000000000000000a00000000000000000000000000000000400000000000000040000000000000000000000000000000000000000000000000000010000000000002000000000000000000000000000000000000000000000000000000000000000000000000000000000000000000000000000000000020000000000000002000000000000000000000000000000000000000000000000000",
      "type": "0x2",
      "transactionHash": "0x3299290ea31d92ce3b627d82f0d889048ef690bc5556f9982ae015d1fd01d0ca",
      "transactionIndex": "0x4e",
      "blockHash": "0x32ec5999d1cb4ad98ffafb8e2725de2e24f0c44642b3cc38f2a90a3094ae63c4",
      "blockNumber": "0x911e99",
      "gasUsed": "0x84c6d",
      "effectiveGasPrice": "0xf4249",
      "from": "0xad9fdad276ab1a430fd03177a07350cd7c61e897",
      "to": null,
      "contractAddress": "0x90ea1d07c0d4c6bb73e94444554b0217a0fabf7d"
    },
    {
      "status": "0x1",
      "cumulativeGasUsed": "0xebbd91",
      "logs": [
        {
          "address": "0x90ea1d07c0d4c6bb73e94444554b0217a0fabf7d",
          "topics": [
            "0x096f300665a57908ac1627e5a821ea670d2a90da7c601a19bf265f8553453f28",
            "0x0000000000000000000000000000000000000000000000000000000000009d35"
          ],
          "data": "0x000000000000000000000000e8039fe92fe451c8afdc3f4d2de3bf5c729ec1db",
          "blockHash": "0x32ec5999d1cb4ad98ffafb8e2725de2e24f0c44642b3cc38f2a90a3094ae63c4",
          "blockNumber": "0x911e99",
          "blockTimestamp": "0x69011880",
          "transactionHash": "0x49d513727802d8a1fb52463bfc831d9f880d1df7c2aa5f28472fe5d701df6024",
          "transactionIndex": "0x4f",
          "logIndex": "0x58",
          "removed": false
        }
      ],
      "logsBloom": "0x00000000000000000000000000000000000000000000000000000000400000000000008000000000000000000000000000000000000000000000000000000000000000400000000000000000000000000000000000000001080000000000000000000000000000000000000000000200000000000000000000000000000000000000000000000000000000000000000000000000000004000000000000000000000000000000000002000000000000000000000000000000000000000000000000000000000000000000000000000000000000000000000000000000000000000000000000000000000000000000000000000000000000100000000000000000",
      "type": "0x2",
      "transactionHash": "0x49d513727802d8a1fb52463bfc831d9f880d1df7c2aa5f28472fe5d701df6024",
      "transactionIndex": "0x4f",
      "blockHash": "0x32ec5999d1cb4ad98ffafb8e2725de2e24f0c44642b3cc38f2a90a3094ae63c4",
      "blockNumber": "0x911e99",
      "gasUsed": "0xb9ed",
      "effectiveGasPrice": "0xf4249",
      "from": "0xad9fdad276ab1a430fd03177a07350cd7c61e897",
      "to": "0x90ea1d07c0d4c6bb73e94444554b0217a0fabf7d",
      "contractAddress": null
    }
  ],
  "libraries": [],
  "pending": [],
  "returns": {},
  "timestamp": 1761679489516,
  "chain": 11155111,
  "commit": "c03d2ed"
}