{
  "transactions": [
    {
      "hash": "0xec6d73e99a9ee16df1313be88d02972535ca903fe0c410e0a97cc8dc9c76061c",
      "transactionType": "CALL",
      "contractName": null,
      "contractAddress": "0x10c046cac7acc33d3ffefebbc3ff630cdcc72910",
      "function": "addRenderer(address,address,bool)",
      "arguments": [
        "0xfD52870d9F56A74629B257Dd12806617216CF8dC",
        "0xdf9292445456EA555Cc990fDcADc9a46c9a565AE",
        "true"
      ],
      "transaction": {
        "from": "0xad9fdad276ab1a430fd03177a07350cd7c61e897",
        "to": "0x10c046cac7acc33d3ffefebbc3ff630cdcc72910",
        "gas": "0x1a154",
        "value": "0x0",
        "input": "0x96612d87000000000000000000000000fd52870d9f56a74629b257dd12806617216cf8dc000000000000000000000000df9292445456ea555cc990fdcadc9a46c9a565ae0000000000000000000000000000000000000000000000000000000000000001",
        "nonce": "0x570",
        "chainId": "0xaa36a7"
      },
      "additionalContracts": [],
      "isFixedGasLimit": false
    },
    {
      "hash": "0x669e7febb419df8a2bda111a4bdff57502fda21f742b7fb4c65792e4a674b0b8",
      "transactionType": "CALL",
      "contractName": null,
      "contractAddress": "0x10c046cac7acc33d3ffefebbc3ff630cdcc72910",
      "function": "setRendererRequiresSevenWords(uint256,bool)",
      "arguments": [
        "5",
        "true"
      ],
      "transaction": {
        "from": "0xad9fdad276ab1a430fd03177a07350cd7c61e897",
        "to": "0x10c046cac7acc33d3ffefebbc3ff630cdcc72910",
        "gas": "0xb35f",
        "value": "0x0",
        "input": "0x569e735f00000000000000000000000000000000000000000000000000000000000000050000000000000000000000000000000000000000000000000000000000000001",
        "nonce": "0x571",
        "chainId": "0xaa36a7"
      },
      "additionalContracts": [],
      "isFixedGasLimit": false
    }
  ],
  "receipts": [
    {
      "status": "0x1",
      "cumulativeGasUsed": "0xfef8b0",
      "logs": [],
      "logsBloom": "0x00000000000000000000000000000000000000000000000000000000000000000000000000000000000000000000000000000000000000000000000000000000000000000000000000000000000000000000000000000000000000000000000000000000000000000000000000000000000000000000000000000000000000000000000000000000000000000000000000000000000000000000000000000000000000000000000000000000000000000000000000000000000000000000000000000000000000000000000000000000000000000000000000000000000000000000000000000000000000000000000000000000000000000000000000000000",
      "type": "0x0",
      "transactionHash": "0xec6d73e99a9ee16df1313be88d02972535ca903fe0c410e0a97cc8dc9c76061c",
      "transactionIndex": "0x3f",
      "blockHash": "0xd5f4064085b3d1b95e4572ed971d23507e8e7b5fb8ea2bab397b43f62a60f7b9",
      "blockNumber": "0x93290d",
      "gasUsed": "0x12e24",
      "effectiveGasPrice": "0xf4241",
      "from": "0xad9fdad276ab1a430fd03177a07350cd7c61e897",
      "to": "0x10c046cac7acc33d3ffefebbc3ff630cdcc72910",
      "contractAddress": null
    },
    {
      "status": "0x1",
      "cumulativeGasUsed": "0x126b8c5",
      "logs": [],
      "logsBloom": "0x00000000000000000000000000000000000000000000000000000000000000000000000000000000000000000000000000000000000000000000000000000000000000000000000000000000000000000000000000000000000000000000000000000000000000000000000000000000000000000000000000000000000000000000000000000000000000000000000000000000000000000000000000000000000000000000000000000000000000000000000000000000000000000000000000000000000000000000000000000000000000000000000000000000000000000000000000000000000000000000000000000000000000000000000000000000",
      "type": "0x0",
      "transactionHash": "0x669e7febb419df8a2bda111a4bdff57502fda21f742b7fb4c65792e4a674b0b8",
      "transactionIndex": "0x70",
      "blockHash": "0xd5f4064085b3d1b95e4572ed971d23507e8e7b5fb8ea2bab397b43f62a60f7b9",
      "blockNumber": "0x93290d",
      "gasUsed": "0x81de",
      "effectiveGasPrice": "0xf4241",
      "from": "0xad9fdad276ab1a430fd03177a07350cd7c61e897",
      "to": "0x10c046cac7acc33d3ffefebbc3ff630cdcc72910",
      "contractAddress": null
    }
  ],
  "libraries": [],
  "pending": [],
  "returns": {},
  "timestamp": 1763329321728,
  "chain": 11155111,
  "commit": "0886bee"
}