{
  "transactions": [
    {
      "hash": "0xe9c7f6ceaf0a4c5af9815dc0bc0d97c0202fe8d63a246d4e2542304f027fef2e",
      "transactionType": "CALL",
      "contractName": null,
      "contractAddress": "0x10c046cac7acc33d3ffefebbc3ff630cdcc72910",
      "function": "addRenderer(address,address,bool)",
      "arguments": [
        "0x29073318763363a8Aba85208351313c77a48d167",
        "0x13F7c9377e6B07e5575A980869331b5570dcC6FA",
        "true"
      ],
      "transaction": {
        "from": "0xad9fdad276ab1a430fd03177a07350cd7c61e897",
        "to": "0x10c046cac7acc33d3ffefebbc3ff630cdcc72910",
        "gas": "0x1a154",
        "value": "0x0",
        "input": "0x96612d8700000000000000000000000029073318763363a8aba85208351313c77a48d16700000000000000000000000013f7c9377e6b07e5575a980869331b5570dcc6fa0000000000000000000000000000000000000000000000000000000000000001",
        "nonce": "0x563",
        "chainId": "0xaa36a7"
      },
      "additionalContracts": [],
      "isFixedGasLimit": false
    },
    {
      "hash": "0xea3ff7b1a2905113e2fd2413f20eb1ee5aba167abcaf7024fb3ea9ca078050ec",
      "transactionType": "CALL",
      "contractName": null,
      "contractAddress": "0x10c046cac7acc33d3ffefebbc3ff630cdcc72910",
      "function": "setRendererRequiresSevenWords(uint256,bool)",
      "arguments": [
        "4",
        "true"
      ],
      "transaction": {
        "from": "0xad9fdad276ab1a430fd03177a07350cd7c61e897",
        "to": "0x10c046cac7acc33d3ffefebbc3ff630cdcc72910",
        "gas": "0xb35f",
        "value": "0x0",
        "input": "0x569e735f00000000000000000000000000000000000000000000000000000000000000040000000000000000000000000000000000000000000000000000000000000001",
        "nonce": "0x564",
        "chainId": "0xaa36a7"
      },
      "additionalContracts": [],
      "isFixedGasLimit": false
    }
  ],
  "receipts": [
    {
      "status": "0x1",
      "cumulativeGasUsed": "0x1246bdf",
      "logs": [],
      "logsBloom": "0x00000000000000000000000000000000000000000000000000000000000000000000000000000000000000000000000000000000000000000000000000000000000000000000000000000000000000000000000000000000000000000000000000000000000000000000000000000000000000000000000000000000000000000000000000000000000000000000000000000000000000000000000000000000000000000000000000000000000000000000000000000000000000000000000000000000000000000000000000000000000000000000000000000000000000000000000000000000000000000000000000000000000000000000000000000000",
      "type": "0x0",
      "transactionHash": "0xe9c7f6ceaf0a4c5af9815dc0bc0d97c0202fe8d63a246d4e2542304f027fef2e",
      "transactionIndex": "0x5e",
      "blockHash": "0xf5678ddeeea3072315ca3c859102e949fe7f485b460876b40f1539e08bc9ae94",
      "blockNumber": "0x9328fd",
      "gasUsed": "0x12e24",
      "effectiveGasPrice": "0xf4240",
      "from": "0xad9fdad276ab1a430fd03177a07350cd7c61e897",
      "to": "0x10c046cac7acc33d3ffefebbc3ff630cdcc72910",
      "contractAddress": null
    },
    {
      "status": "0x1",
      "cumulativeGasUsed": "0x124edbd",
      "logs": [],
      "logsBloom": "0x00000000000000000000000000000000000000000000000000000000000000000000000000000000000000000000000000000000000000000000000000000000000000000000000000000000000000000000000000000000000000000000000000000000000000000000000000000000000000000000000000000000000000000000000000000000000000000000000000000000000000000000000000000000000000000000000000000000000000000000000000000000000000000000000000000000000000000000000000000000000000000000000000000000000000000000000000000000000000000000000000000000000000000000000000000000",
      "type": "0x0",
      "transactionHash": "0xea3ff7b1a2905113e2fd2413f20eb1ee5aba167abcaf7024fb3ea9ca078050ec",
      "transactionIndex": "0x5f",
      "blockHash": "0xf5678ddeeea3072315ca3c859102e949fe7f485b460876b40f1539e08bc9ae94",
      "blockNumber": "0x9328fd",
      "gasUsed": "0x81de",
      "effectiveGasPrice": "0xf4240",
      "from": "0xad9fdad276ab1a430fd03177a07350cd7c61e897",
      "to": "0x10c046cac7acc33d3ffefebbc3ff630cdcc72910",
      "contractAddress": null
    }
  ],
  "libraries": [],
  "pending": [],
  "returns": {},
  "timestamp": 1763329128827,
  "chain": 11155111,
  "commit": "0886bee"
}