{
  "transactions": [
    {
      "hash": "0x5f4f853d6546a4587c43be2558cbe6d73a8fa61be5f5cf1f2adcef8f4d22b50a",
      "transactionType": "CALL",
      "contractName": null,
      "contractAddress": "0x10c046cac7acc33d3ffefebbc3ff630cdcc72910",
      "function": "addRenderer(address,address,bool)",
      "arguments": [
        "0x6e3eDb3e3324fc7dE39fBa63a2A71b7E1A5449ed",
        "0x6B3ec82Ab5286Bae085c244E7771161F8009764B",
        "true"
      ],
      "transaction": {
        "from": "0xad9fdad276ab1a430fd03177a07350cd7c61e897",
        "to": "0x10c046cac7acc33d3ffefebbc3ff630cdcc72910",
        "gas": "0x1a154",
        "value": "0x0",
        "input": "0x96612d870000000000000000000000006e3edb3e3324fc7de39fba63a2a71b7e1a5449ed0000000000000000000000006b3ec82ab5286bae085c244e7771161f8009764b0000000000000000000000000000000000000000000000000000000000000001",
        "nonce": "0x554",
        "chainId": "0xaa36a7"
      },
      "additionalContracts": [],
      "isFixedGasLimit": false
    },
    {
      "hash": "0x3944371a3ed6dee68c45601abcfe14c804c7cedc621aee9c2980e142e6f82e13",
      "transactionType": "CALL",
      "contractName": null,
      "contractAddress": "0x10c046cac7acc33d3ffefebbc3ff630cdcc72910",
      "function": "setRendererRequiresSevenWords(uint256,bool)",
      "arguments": [
        "3",
        "true"
      ],
      "transaction": {
        "from": "0xad9fdad276ab1a430fd03177a07350cd7c61e897",
        "to": "0x10c046cac7acc33d3ffefebbc3ff630cdcc72910",
        "gas": "0xb35f",
        "value": "0x0",
        "input": "0x569e735f00000000000000000000000000000000000000000000000000000000000000030000000000000000000000000000000000000000000000000000000000000001",
        "nonce": "0x555",
        "chainId": "0xaa36a7"
      },
      "additionalContracts": [],
      "isFixedGasLimit": false
    }
  ],
  "receipts": [
    {
      "status": "0x1",
      "cumulativeGasUsed": "0x47bd77",
      "logs": [],
      "logsBloom": "0x00000000000000000000000000000000000000000000000000000000000000000000000000000000000000000000000000000000000000000000000000000000000000000000000000000000000000000000000000000000000000000000000000000000000000000000000000000000000000000000000000000000000000000000000000000000000000000000000000000000000000000000000000000000000000000000000000000000000000000000000000000000000000000000000000000000000000000000000000000000000000000000000000000000000000000000000000000000000000000000000000000000000000000000000000000000",
      "type": "0x0",
      "transactionHash": "0x5f4f853d6546a4587c43be2558cbe6d73a8fa61be5f5cf1f2adcef8f4d22b50a",
      "transactionIndex": "0x32",
      "blockHash": "0xfee833ea24c11c65868d0f6deb4379e50611e56967a9f029ab3ed62e98d4de6d",
      "blockNumber": "0x932877",
      "gasUsed": "0x12e24",
      "effectiveGasPrice": "0xf4241",
      "from": "0xad9fdad276ab1a430fd03177a07350cd7c61e897",
      "to": "0x10c046cac7acc33d3ffefebbc3ff630cdcc72910",
      "contractAddress": null
    },
    {
      "status": "0x1",
      "cumulativeGasUsed": "0x4b9e9d",
      "logs": [],
      "logsBloom": "0x00000000000000000000000000000000000000000000000000000000000000000000000000000000000000000000000000000000000000000000000000000000000000000000000000000000000000000000000000000000000000000000000000000000000000000000000000000000000000000000000000000000000000000000000000000000000000000000000000000000000000000000000000000000000000000000000000000000000000000000000000000000000000000000000000000000000000000000000000000000000000000000000000000000000000000000000000000000000000000000000000000000000000000000000000000000",
      "type": "0x0",
      "transactionHash": "0x3944371a3ed6dee68c45601abcfe14c804c7cedc621aee9c2980e142e6f82e13",
      "transactionIndex": "0x35",
      "blockHash": "0xfee833ea24c11c65868d0f6deb4379e50611e56967a9f029ab3ed62e98d4de6d",
      "blockNumber": "0x932877",
      "gasUsed": "0x81de",
      "effectiveGasPrice": "0xf4241",
      "from": "0xad9fdad276ab1a430fd03177a07350cd7c61e897",
      "to": "0x10c046cac7acc33d3ffefebbc3ff630cdcc72910",
      "contractAddress": null
    }
  ],
  "libraries": [],
  "pending": [],
  "returns": {},
  "timestamp": 1763327377113,
  "chain": 11155111,
  "commit": "0886bee"
}