{
  "transactions": [
    {
      "hash": "0x6299de04f655e53787869851df5e40749ed3157c1dc14bccb268c68dc23c90b9",
      "transactionType": "CALL",
      "contractName": null,
      "contractAddress": "0xad829434704378aeb800bb1cf9ab28efc67d70b7",
      "function": "addPreRevealRenderer(address,address,bool)",
      "arguments": [
        "0xE9E70556C0a4a67d6a20706aB56DDEF342C4Bd6d",
        "0xEB2E9AFE3Bd5a1711971cdd9bB31173b6CE28834",
        "true"
      ],
      "transaction": {
        "from": "0xad9fdad276ab1a430fd03177a07350cd7c61e897",
        "to": "0xad829434704378aeb800bb1cf9ab28efc67d70b7",
        "gas": "0x1cac7",
        "value": "0x0",
        "input": "0xca30ea94000000000000000000000000e9e70556c0a4a67d6a20706ab56ddef342c4bd6d000000000000000000000000eb2e9afe3bd5a1711971cdd9bb31173b6ce288340000000000000000000000000000000000000000000000000000000000000001",
        "nonce": "0x492",
        "chainId": "0xaa36a7"
      },
      "additionalContracts": [],
      "isFixedGasLimit": false
    }
  ],
  "receipts": [
    {
      "status": "0x1",
      "cumulativeGasUsed": "0xcc34f9",
      "logs": [
        {
          "address": "0xad829434704378aeb800bb1cf9ab28efc67d70b7",
          "topics": [
            "0x600c013915b32090679aa1157ae91c043bbd580f9f66cc829b8b7b901a50c128",
            "0x0000000000000000000000000000000000000000000000000000000000000001"
          ],
          "data": "0x000000000000000000000000e9e70556c0a4a67d6a20706ab56ddef342c4bd6d000000000000000000000000eb2e9afe3bd5a1711971cdd9bb31173b6ce288340000000000000000000000000000000000000000000000000000000000000001",
          "blockHash": "0x93e515422060dd989d8033966a75bd90abf916f39e1366c032042593e9d43158",
          "blockNumber": "0x923279",
          "blockTimestamp": "0x690e3c64",
          "transactionHash": "0x6299de04f655e53787869851df5e40749ed3157c1dc14bccb268c68dc23c90b9",
          "transactionIndex": "0x5d",
          "logIndex": "0x85",
          "removed": false
        }
      ],
      "logsBloom": "0x00000000000000000200000000000000000000000000000000000000000000000000000000000000000000004000000000000000000000000000000000040000000000000000000000000000010000000000000000040000000000000000000200000000000000000000000000000000000000010000000000000000000000000000000000000000000000000000000000000000000000000000000000000000000000000000000000000000000000000000000000000000000000000000000000000000000000000000000000000000000000000000000000000000000040000000400000000000000000000000000000000000000000000000000000000000",
      "type": "0x0",
      "transactionHash": "0x6299de04f655e53787869851df5e40749ed3157c1dc14bccb268c68dc23c90b9",
      "transactionIndex": "0x5d",
      "blockHash": "0x93e515422060dd989d8033966a75bd90abf916f39e1366c032042593e9d43158",
      "blockNumber": "0x923279",
      "gasUsed": "0x139b2",
      "effectiveGasPrice": "0xf4240",
      "from": "0xad9fdad276ab1a430fd03177a07350cd7c61e897",
      "to": "0xad829434704378aeb800bb1cf9ab28efc67d70b7",
      "contractAddress": null
    }
  ],
  "libraries": [],
  "pending": [],
  "returns": {},
  "timestamp": 1762540645150,
  "chain": 11155111,
  "commit": "c03d2ed"
}