{
  "transactions": [
    {
      "hash": "0xc95a5974b9f7bfe055b32044d46dfc06493a9c011ce3ef3abd2cd8e467af26ca",
      "transactionType": "CALL",
      "contractName": null,
      "contractAddress": "0x10c046cac7acc33d3ffefebbc3ff630cdcc72910",
      "function": "addRenderer(address,address,bool)",
      "arguments": [
        "0xc99880aA63b71df17F1Fef1E00a37546d7CE993E",
        "0x83073CD0874b99F2962A9d0Aa31eB84E988BA258",
        "true"
      ],
      "transaction": {
        "from": "0xad9fdad276ab1a430fd03177a07350cd7c61e897",
        "to": "0x10c046cac7acc33d3ffefebbc3ff630cdcc72910",
        "gas": "0x1a143",
        "value": "0x0",
        "input": "0x96612d87000000000000000000000000c99880aa63b71df17f1fef1e00a37546d7ce993e00000000000000000000000083073cd0874b99f2962a9d0aa31eb84e988ba2580000000000000000000000000000000000000000000000000000000000000001",
        "nonce": "0x519",
        "chainId": "0xaa36a7"
      },
      "additionalContracts": [],
      "isFixedGasLimit": false
    },
    {
      "hash": "0xa88814250bd9d889d2c31cc1e6fdaafd81fbd078373fd5644a53aba11ef2800f",
      "transactionType": "CALL",
      "contractName": null,
      "contractAddress": "0x10c046cac7acc33d3ffefebbc3ff630cdcc72910",
      "function": "setRendererRequiresSevenWords(uint256,bool)",
      "arguments": [
        "1",
        "true"
      ],
      "transaction": {
        "from": "0xad9fdad276ab1a430fd03177a07350cd7c61e897",
        "to": "0x10c046cac7acc33d3ffefebbc3ff630cdcc72910",
        "gas": "0xb35f",
        "value": "0x0",
        "input": "0x569e735f00000000000000000000000000000000000000000000000000000000000000010000000000000000000000000000000000000000000000000000000000000001",
        "nonce": "0x51a",
        "chainId": "0xaa36a7"
      },
      "additionalContracts": [],
      "isFixedGasLimit": false
    }
  ],
  "receipts": [
    {
      "status": "0x1",
      "cumulativeGasUsed": "0x2690d65",
      "logs": [],
      "logsBloom": "0x00000000000000000000000000000000000000000000000000000000000000000000000000000000000000000000000000000000000000000000000000000000000000000000000000000000000000000000000000000000000000000000000000000000000000000000000000000000000000000000000000000000000000000000000000000000000000000000000000000000000000000000000000000000000000000000000000000000000000000000000000000000000000000000000000000000000000000000000000000000000000000000000000000000000000000000000000000000000000000000000000000000000000000000000000000000",
      "type": "0x0",
      "transactionHash": "0xc95a5974b9f7bfe055b32044d46dfc06493a9c011ce3ef3abd2cd8e467af26ca",
      "transactionIndex": "0x8c",
      "blockHash": "0x9e1d6da7f507a84e37f0c9718a41c6bc1880755495a851a4e11c5001af9a6a46",
      "blockNumber": "0x9309dc",
      "gasUsed": "0x12e18",
      "effectiveGasPrice": "0xf424a",
      "from": "0xad9fdad276ab1a430fd03177a07350cd7c61e897",
      "to": "0x10c046cac7acc33d3ffefebbc3ff630cdcc72910",
      "contractAddress": null
    },
    {
      "status": "0x1",
      "cumulativeGasUsed": "0x2698f43",
      "logs": [],
      "logsBloom": "0x00000000000000000000000000000000000000000000000000000000000000000000000000000000000000000000000000000000000000000000000000000000000000000000000000000000000000000000000000000000000000000000000000000000000000000000000000000000000000000000000000000000000000000000000000000000000000000000000000000000000000000000000000000000000000000000000000000000000000000000000000000000000000000000000000000000000000000000000000000000000000000000000000000000000000000000000000000000000000000000000000000000000000000000000000000000",
      "type": "0x0",
      "transactionHash": "0xa88814250bd9d889d2c31cc1e6fdaafd81fbd078373fd5644a53aba11ef2800f",
      "transactionIndex": "0x8d",
      "blockHash": "0x9e1d6da7f507a84e37f0c9718a41c6bc1880755495a851a4e11c5001af9a6a46",
      "blockNumber": "0x9309dc",
      "gasUsed": "0x81de",
      "effectiveGasPrice": "0xf424a",
      "from": "0xad9fdad276ab1a430fd03177a07350cd7c61e897",
      "to": "0x10c046cac7acc33d3ffefebbc3ff630cdcc72910",
      "contractAddress": null
    }
  ],
  "libraries": [],
  "pending": [],
  "returns": {},
  "timestamp": 1763226397201,
  "chain": 11155111,
  "commit": "0886bee"
}