{
  "transactions": [
    {
      "hash": "0x589962c53217fb30bc53cfca6169ca1859ec886483be435698106d6371bceb0b",
      "transactionType": "CALL",
      "contractName": null,
      "contractAddress": "0x5dff81582252f3cbbfecdf04865309c2368e627e",
      "function": "addPreRevealRenderer(address,address,bool)",
      "arguments": [
        "0x2200a501F31c15B954559C37f2F980976f21061E",
        "0xa8696Ca41fe4a00618B26a99Daf00663c06246a3",
        "true"
      ],
      "transaction": {
        "from": "0xad9fdad276ab1a430fd03177a07350cd7c61e897",
        "to": "0x5dff81582252f3cbbfecdf04865309c2368e627e",
        "gas": "0x1bdd6",
        "value": "0x0",
        "input": "0xca30ea940000000000000000000000002200a501f31c15b954559c37f2f980976f21061e000000000000000000000000a8696ca41fe4a00618b26a99daf00663c06246a30000000000000000000000000000000000000000000000000000000000000001",
        "nonce": "0x4d4",
        "chainId": "0xaa36a7"
      },
      "additionalContracts": [],
      "isFixedGasLimit": false
    },
    {
      "hash": "0x652a1bc942d0a6291cdbd0ff81b36806f03dc2695fcd2e550fa6659c45191a8a",
      "transactionType": "CALL",
      "contractName": null,
      "contractAddress": "0x5dff81582252f3cbbfecdf04865309c2368e627e",
      "function": "setRendererRequiresSevenWords(uint256,bool)",
      "arguments": [
        "1",
        "true"
      ],
      "transaction": {
        "from": "0xad9fdad276ab1a430fd03177a07350cd7c61e897",
        "to": "0x5dff81582252f3cbbfecdf04865309c2368e627e",
        "gas": "0x11b04",
        "value": "0x0",
        "input": "0x569e735f00000000000000000000000000000000000000000000000000000000000000010000000000000000000000000000000000000000000000000000000000000001",
        "nonce": "0x4d5",
        "chainId": "0xaa36a7"
      },
      "additionalContracts": [],
      "isFixedGasLimit": false
    }
  ],
  "receipts": [
    {
      "status": "0x1",
      "cumulativeGasUsed": "0xd6b02a",
      "logs": [
        {
          "address": "0x5dff81582252f3cbbfecdf04865309c2368e627e",
          "topics": [
            "0x600c013915b32090679aa1157ae91c043bbd580f9f66cc829b8b7b901a50c128",
            "0x0000000000000000000000000000000000000000000000000000000000000001"
          ],
          "data": "0x0000000000000000000000002200a501f31c15b954559c37f2f980976f21061e000000000000000000000000a8696ca41fe4a00618b26a99daf00663c06246a30000000000000000000000000000000000000000000000000000000000000001",
          "blockHash": "0x2e5c1f19127cc7082c239d720b893d96c05feeac5890c271d672942a21b0f01f",
          "blockNumber": "0x92d3d4",
          "blockTimestamp": "0x691606bc",
          "transactionHash": "0x589962c53217fb30bc53cfca6169ca1859ec886483be435698106d6371bceb0b",
          "transactionIndex": "0x2c",
          "logIndex": "0x7c",
          "removed": false
        }
      ],
      "logsBloom": "0x00000000000000000000000000000000000000000000000000000000000000000000000000000000000000004000000000000000000000000000000000040020000000000000000000080000010000000000000000040000000000000000000000000000000000000000000000000000000000010000000000000000200000000000000000000000000000000000000000000000000000000000000000000000000000000000000000000000000000000000000000000000000000000000000000000000000000000000000000000000000000000000000000000000000040000000000000000000000000000000000000000000000000000000000000000000",
      "type": "0x0",
      "transactionHash": "0x589962c53217fb30bc53cfca6169ca1859ec886483be435698106d6371bceb0b",
      "transactionIndex": "0x2c",
      "blockHash": "0x2e5c1f19127cc7082c239d720b893d96c05feeac5890c271d672942a21b0f01f",
      "blockNumber": "0x92d3d4",
      "gasUsed": "0x142c8",
      "effectiveGasPrice": "0xf4241",
      "from": "0xad9fdad276ab1a430fd03177a07350cd7c61e897",
      "to": "0x5dff81582252f3cbbfecdf04865309c2368e627e",
      "contractAddress": null
    },
    {
      "status": "0x1",
      "cumulativeGasUsed": "0xf26f03",
      "logs": [
        {
          "address": "0x5dff81582252f3cbbfecdf04865309c2368e627e",
          "topics": [
            "0x320ed9ec90f0c4f11d972ab06d9d2e6324f9485007b288f11f02879052143ad7",
            "0x0000000000000000000000000000000000000000000000000000000000000001"
          ],
          "data": "0x0000000000000000000000000000000000000000000000000000000000000001",
          "blockHash": "0x2e5c1f19127cc7082c239d720b893d96c05feeac5890c271d672942a21b0f01f",
          "blockNumber": "0x92d3d4",
          "blockTimestamp": "0x691606bc",
          "transactionHash": "0x652a1bc942d0a6291cdbd0ff81b36806f03dc2695fcd2e550fa6659c45191a8a",
          "transactionIndex": "0x4a",
          "logIndex": "0x9a",
          "removed": false
        }
      ],
      "logsBloom": "0x00000000000000000000000000000000000000000000000000000000000000000000000000000000000000000000000000000000000000000000000000040020000000000000000000080000000000000000000000040000000000000000000000000000000000000000000001000000000000000000000000000000200000000000000000000800000000000000000000000000000000000000000000000000000000000000000000000000000000000000000000000000000000000000000000000000000000000000000000000000000000000000000000000200000040000000000000000000000000000000000000000000000000000000000000000000",
      "type": "0x0",
      "transactionHash": "0x652a1bc942d0a6291cdbd0ff81b36806f03dc2695fcd2e550fa6659c45191a8a",
      "transactionIndex": "0x4a",
      "blockHash": "0x2e5c1f19127cc7082c239d720b893d96c05feeac5890c271d672942a21b0f01f",
      "blockNumber": "0x92d3d4",
      "gasUsed": "0xcce7",
      "effectiveGasPrice": "0xf4241",
      "from": "0xad9fdad276ab1a430fd03177a07350cd7c61e897",
      "to": "0x5dff81582252f3cbbfecdf04865309c2368e627e",
      "contractAddress": null
    }
  ],
  "libraries": [],
  "pending": [],
  "returns": {},
  "timestamp": 1763051196974,
  "chain": 11155111,
  "commit": "0886bee"
}