{
  "transactions": [
    {
      "hash": "0x9d70e512a88d0c71b07496fb923d863582e306d0b768ce13b88082a9e3b6c866",
      "transactionType": "CALL",
      "contractName": null,
      "contractAddress": "0x10c046cac7acc33d3ffefebbc3ff630cdcc72910",
      "function": "addRenderer(address,address,bool)",
      "arguments": [
        "0x807E7E2787947eb6aC35e8b50f65E43A3b3c395F",
        "0xfAbBBD7704d5e217934A9d2c00556e28b7957F66",
        "true"
      ],
      "transaction": {
        "from": "0xad9fdad276ab1a430fd03177a07350cd7c61e897",
        "to": "0x10c046cac7acc33d3ffefebbc3ff630cdcc72910",
        "gas": "0x1a143",
        "value": "0x0",
        "input": "0x96612d87000000000000000000000000807e7e2787947eb6ac35e8b50f65e43a3b3c395f000000000000000000000000fabbbd7704d5e217934a9d2c00556e28b7957f660000000000000000000000000000000000000000000000000000000000000001",
        "nonce": "0x53e",
        "chainId": "0xaa36a7"
      },
      "additionalContracts": [],
      "isFixedGasLimit": false
    },
    {
      "hash": "0xb945b939a8c3c00d7d4c9268a47764aac4485d1c2237cf347503f08a5f9ab67f",
      "transactionType": "CALL",
      "contractName": null,
      "contractAddress": "0x10c046cac7acc33d3ffefebbc3ff630cdcc72910",
      "function": "setRendererRequiresSevenWords(uint256,bool)",
      "arguments": [
        "2",
        "true"
      ],
      "transaction": {
        "from": "0xad9fdad276ab1a430fd03177a07350cd7c61e897",
        "to": "0x10c046cac7acc33d3ffefebbc3ff630cdcc72910",
        "gas": "0xb35f",
        "value": "0x0",
        "input": "0x569e735f00000000000000000000000000000000000000000000000000000000000000020000000000000000000000000000000000000000000000000000000000000001",
        "nonce": "0x53f",
        "chainId": "0xaa36a7"
      },
      "additionalContracts": [],
      "isFixedGasLimit": false
    }
  ],
  "receipts": [
    {
      "status": "0x1",
      "cumulativeGasUsed": "0x7c9c6a",
      "logs": [],
      "logsBloom": "0x00000000000000000000000000000000000000000000000000000000000000000000000000000000000000000000000000000000000000000000000000000000000000000000000000000000000000000000000000000000000000000000000000000000000000000000000000000000000000000000000000000000000000000000000000000000000000000000000000000000000000000000000000000000000000000000000000000000000000000000000000000000000000000000000000000000000000000000000000000000000000000000000000000000000000000000000000000000000000000000000000000000000000000000000000000000",
      "type": "0x0",
      "transactionHash": "0x9d70e512a88d0c71b07496fb923d863582e306d0b768ce13b88082a9e3b6c866",
      "transactionIndex": "0x26",
      "blockHash": "0x3afa29efc1660991fda2885a66fce9fd8f23e172d9c84be335f7858d998dd632",
      "blockNumber": "0x9327ce",
      "gasUsed": "0x12e18",
      "effectiveGasPrice": "0xf424a",
      "from": "0xad9fdad276ab1a430fd03177a07350cd7c61e897",
      "to": "0x10c046cac7acc33d3ffefebbc3ff630cdcc72910",
      "contractAddress": null
    },
    {
      "status": "0x1",
      "cumulativeGasUsed": "0x7d1e48",
      "logs": [],
      "logsBloom": "0x00000000000000000000000000000000000000000000000000000000000000000000000000000000000000000000000000000000000000000000000000000000000000000000000000000000000000000000000000000000000000000000000000000000000000000000000000000000000000000000000000000000000000000000000000000000000000000000000000000000000000000000000000000000000000000000000000000000000000000000000000000000000000000000000000000000000000000000000000000000000000000000000000000000000000000000000000000000000000000000000000000000000000000000000000000000",
      "type": "0x0",
      "transactionHash": "0xb945b939a8c3c00d7d4c9268a47764aac4485d1c2237cf347503f08a5f9ab67f",
      "transactionIndex": "0x27",
      "blockHash": "0x3afa29efc1660991fda2885a66fce9fd8f23e172d9c84be335f7858d998dd632",
      "blockNumber": "0x9327ce",
      "gasUsed": "0x81de",
      "effectiveGasPrice": "0xf424a",
      "from": "0xad9fdad276ab1a430fd03177a07350cd7c61e897",
      "to": "0x10c046cac7acc33d3ffefebbc3ff630cdcc72910",
      "contractAddress": null
    }
  ],
  "libraries": [],
  "pending": [],
  "returns": {},
  "timestamp": 1763325157689,
  "chain": 11155111,
  "commit": "0886bee"
}