{
  "transactions": [
    {
      "hash": "0x81e636c4dd74473f6dc5c8f7ab3f5c010d2e5349dd0ba58493047b6a23b6cd93",
      "transactionType": "CALL",
      "contractName": "EveryTwoMillionBlocks",
      "contractAddress": "0xa27e1385cfcc5bd6ff25d005d8fb10239502f4bc",
      "function": "setRenderers(address,address,address)",
      "arguments": [
        "0xB5B25d077E93E4B7b80f3DA66d5b74d328240459",
        "0xC6f402B392c540Afa40E403ce1e19cd8d4494556",
        "0xAcF2747100B63e25e8B006B1d6b36a68BF488E9E"
      ],
      "transaction": {
        "from": "0xad9fdad276ab1a430fd03177a07350cd7c61e897",
        "to": "0xa27e1385cfcc5bd6ff25d005d8fb10239502f4bc",
        "gas": "0xd046",
        "value": "0x0",
        "input": "0xbde0d296000000000000000000000000b5b25d077e93e4b7b80f3da66d5b74d328240459000000000000000000000000c6f402b392c540afa40e403ce1e19cd8d4494556000000000000000000000000acf2747100b63e25e8b006b1d6b36a68bf488e9e",
        "nonce": "0x2b1",
        "chainId": "0xaa36a7"
      },
      "additionalContracts": [],
      "isFixedGasLimit": false
    },
    {
      "hash": "0x0a895515cc7fd98282aa1b9e6225d9898ac4f83402c353ad118eb2c1fe054cf1",
      "transactionType": "CALL",
      "contractName": "EveryTwoMillionBlocks",
      "contractAddress": "0xa27e1385cfcc5bd6ff25d005d8fb10239502f4bc",
      "function": "setCountdownRenderer(address)",
      "arguments": [
        "0x2c55fFaf0fB3a9ea7675524c3548e8D140b2DDfa"
      ],
      "transaction": {
        "from": "0xad9fdad276ab1a430fd03177a07350cd7c61e897",
        "to": "0xa27e1385cfcc5bd6ff25d005d8fb10239502f4bc",
        "gas": "0xa83d",
        "value": "0x0",
        "input": "0xb78b37a90000000000000000000000002c55ffaf0fb3a9ea7675524c3548e8d140b2ddfa",
        "nonce": "0x2b2",
        "chainId": "0xaa36a7"
      },
      "additionalContracts": [],
      "isFixedGasLimit": false
    },
    {
      "hash": "0x00a7aa3e3a209ff4841d9caa5500a1fe331782352288936b13f2e61364d50cf8",
      "transactionType": "CALL",
      "contractName": "EveryTwoMillionBlocks",
      "contractAddress": "0xa27e1385cfcc5bd6ff25d005d8fb10239502f4bc",
      "function": "setCountdownHtmlRenderer(address)",
      "arguments": [
        "0xdB222CF577cF69675f537263c1e374F5CA52BBd9"
      ],
      "transaction": {
        "from": "0xad9fdad276ab1a430fd03177a07350cd7c61e897",
        "to": "0xa27e1385cfcc5bd6ff25d005d8fb10239502f4bc",
        "gas": "0xaaa0",
        "value": "0x0",
        "input": "0xed52e526000000000000000000000000db222cf577cf69675f537263c1e374f5ca52bbd9",
        "nonce": "0x2b3",
        "chainId": "0xaa36a7"
      },
      "additionalContracts": [],
      "isFixedGasLimit": false
    }
  ],
  "receipts": [
    {
      "status": "0x1",
      "cumulativeGasUsed": "0x6fe6f3",
      "logs": [
        {
          "address": "0xa27e1385cfcc5bd6ff25d005d8fb10239502f4bc",
          "topics": [
            "0x66cd6f63bfce81eb84ce68fba06e890adfc9788d2cd317cd34d6385bcc8543fd"
          ],
          "data": "0x000000000000000000000000c6f402b392c540afa40e403ce1e19cd8d4494556000000000000000000000000acf2747100b63e25e8b006b1d6b36a68bf488e9e000000000000000000000000b5b25d077e93e4b7b80f3da66d5b74d328240459",
          "blockHash": "0x73956cd2bc8f6b9a6dcf64c056270cda871a1fd4f8e60914819eb765427b2c93",
          "blockNumber": "0x915983",
          "blockTimestamp": "0x6903ddb8",
          "transactionHash": "0x81e636c4dd74473f6dc5c8f7ab3f5c010d2e5349dd0ba58493047b6a23b6cd93",
          "transactionIndex": "0x51",
          "logIndex": "0x60",
          "removed": false
        }
      ],
      "logsBloom": "0x00000000000000100000000000000000000000000001000000000000000080000000000000000000000000000000000000000000000000000000000000000020000000000000000000000000000000000000000000000000000000000000000000000000000000000000000000000000000000000000000000000000000000000000000000000000000000000000000000000000000000000000000000000000000000000000000000000000000000000000000000000000000000000000000000000000000000000000000000000000000000000000000000000400000000000000000000000000000000000000000000000000000000000000000000000200",
      "type": "0x0",
      "transactionHash": "0x81e636c4dd74473f6dc5c8f7ab3f5c010d2e5349dd0ba58493047b6a23b6cd93",
      "transactionIndex": "0x51",
      "blockHash": "0x73956cd2bc8f6b9a6dcf64c056270cda871a1fd4f8e60914819eb765427b2c93",
      "blockNumber": "0x915983",
      "gasUsed": "0x8e69",
      "effectiveGasPrice": "0xf4249",
      "from": "0xad9fdad276ab1a430fd03177a07350cd7c61e897",
      "to": "0xa27e1385cfcc5bd6ff25d005d8fb10239502f4bc",
      "contractAddress": null
    },
    {
      "status": "0x1",
      "cumulativeGasUsed": "0x7059fc",
      "logs": [],
      "logsBloom": "0x00000000000000000000000000000000000000000000000000000000000000000000000000000000000000000000000000000000000000000000000000000000000000000000000000000000000000000000000000000000000000000000000000000000000000000000000000000000000000000000000000000000000000000000000000000000000000000000000000000000000000000000000000000000000000000000000000000000000000000000000000000000000000000000000000000000000000000000000000000000000000000000000000000000000000000000000000000000000000000000000000000000000000000000000000000000",
      "type": "0x0",
      "transactionHash": "0x0a895515cc7fd98282aa1b9e6225d9898ac4f83402c353ad118eb2c1fe054cf1",
      "transactionIndex": "0x52",
      "blockHash": "0x73956cd2bc8f6b9a6dcf64c056270cda871a1fd4f8e60914819eb765427b2c93",
      "blockNumber": "0x915983",
      "gasUsed": "0x7309",
      "effectiveGasPrice": "0xf4249",
      "from": "0xad9fdad276ab1a430fd03177a07350cd7c61e897",
      "to": "0xa27e1385cfcc5bd6ff25d005d8fb10239502f4bc",
      "contractAddress": null
    },
    {
      "status": "0x1",
      "cumulativeGasUsed": "0x70cea7",
      "logs": [],
      "logsBloom": "0x00000000000000000000000000000000000000000000000000000000000000000000000000000000000000000000000000000000000000000000000000000000000000000000000000000000000000000000000000000000000000000000000000000000000000000000000000000000000000000000000000000000000000000000000000000000000000000000000000000000000000000000000000000000000000000000000000000000000000000000000000000000000000000000000000000000000000000000000000000000000000000000000000000000000000000000000000000000000000000000000000000000000000000000000000000000",
      "type": "0x0",
      "transactionHash": "0x00a7aa3e3a209ff4841d9caa5500a1fe331782352288936b13f2e61364d50cf8",
      "transactionIndex": "0x53",
      "blockHash": "0x73956cd2bc8f6b9a6dcf64c056270cda871a1fd4f8e60914819eb765427b2c93",
      "blockNumber": "0x915983",
      "gasUsed": "0x74ab",
      "effectiveGasPrice": "0xf4249",
      "from": "0xad9fdad276ab1a430fd03177a07350cd7c61e897",
      "to": "0xa27e1385cfcc5bd6ff25d005d8fb10239502f4bc",
      "contractAddress": null
    }
  ],
  "libraries": [],
  "pending": [],
  "returns": {},
  "timestamp": 1761861050004,
  "chain": 11155111,
  "commit": "c03d2ed"
}