{
  "transactions": [
    {
      "hash": "0x1b544aaeeda3e290824913097300ba3eb1091a0ba78e7417532ec323c22dd4c7",
      "transactionType": "CALL",
      "contractName": "EveryTwoMillionBlocks",
      "contractAddress": "0x674307b5d8340fa5d6a659d252d6b816bc85997a",
      "function": "setRenderers(address,address,address)",
      "arguments": [
        "0xB5B25d077E93E4B7b80f3DA66d5b74d328240459",
        "0xC6f402B392c540Afa40E403ce1e19cd8d4494556",
        "0xAcF2747100B63e25e8B006B1d6b36a68BF488E9E"
      ],
      "transaction": {
        "from": "0xad9fdad276ab1a430fd03177a07350cd7c61e897",
        "to": "0x674307b5d8340fa5d6a659d252d6b816bc85997a",
        "gas": "0xc29b",
        "value": "0x0",
        "input": "0xbde0d296000000000000000000000000b5b25d077e93e4b7b80f3da66d5b74d328240459000000000000000000000000c6f402b392c540afa40e403ce1e19cd8d4494556000000000000000000000000acf2747100b63e25e8b006b1d6b36a68bf488e9e",
        "nonce": "0x268",
        "chainId": "0xaa36a7"
      },
      "additionalContracts": [],
      "isFixedGasLimit": false
    },
    {
      "hash": "0xd6419104993daa0612ce0a43855e3d552699429b03181c8494fcca40c1697044",
      "transactionType": "CALL",
      "contractName": "EveryTwoMillionBlocks",
      "contractAddress": "0x674307b5d8340fa5d6a659d252d6b816bc85997a",
      "function": "setCountdownRenderer(address)",
      "arguments": [
        "0x2c55fFaf0fB3a9ea7675524c3548e8D140b2DDfa"
      ],
      "transaction": {
        "from": "0xad9fdad276ab1a430fd03177a07350cd7c61e897",
        "to": "0x674307b5d8340fa5d6a659d252d6b816bc85997a",
        "gas": "0xa625",
        "value": "0x0",
        "input": "0xb78b37a90000000000000000000000002c55ffaf0fb3a9ea7675524c3548e8d140b2ddfa",
        "nonce": "0x269",
        "chainId": "0xaa36a7"
      },
      "additionalContracts": [],
      "isFixedGasLimit": false
    },
    {
      "hash": "0x4ecf8356e292f51dd01c2c1cf88ab921e0f526a1b6e60713e831a6c78e10749b",
      "transactionType": "CALL",
      "contractName": "EveryTwoMillionBlocks",
      "contractAddress": "0x674307b5d8340fa5d6a659d252d6b816bc85997a",
      "function": "setCountdownHtmlRenderer(address)",
      "arguments": [
        "0xdB222CF577cF69675f537263c1e374F5CA52BBd9"
      ],
      "transaction": {
        "from": "0xad9fdad276ab1a430fd03177a07350cd7c61e897",
        "to": "0x674307b5d8340fa5d6a659d252d6b816bc85997a",
        "gas": "0x936e",
        "value": "0x0",
        "input": "0xed52e526000000000000000000000000db222cf577cf69675f537263c1e374f5ca52bbd9",
        "nonce": "0x26a",
        "chainId": "0xaa36a7"
      },
      "additionalContracts": [],
      "isFixedGasLimit": false
    }
  ],
  "receipts": [
    {
      "status": "0x1",
      "cumulativeGasUsed": "0xaa95f3",
      "logs": [
        {
          "address": "0x674307b5d8340fa5d6a659d252d6b816bc85997a",
          "topics": [
            "0x66cd6f63bfce81eb84ce68fba06e890adfc9788d2cd317cd34d6385bcc8543fd"
          ],
          "data": "0x000000000000000000000000c6f402b392c540afa40e403ce1e19cd8d4494556000000000000000000000000acf2747100b63e25e8b006b1d6b36a68bf488e9e000000000000000000000000b5b25d077e93e4b7b80f3da66d5b74d328240459",
          "blockHash": "0x85ab29fcbdde16d81bb4d851d978644a094a9158f3dfdbf8ad21a574f73db0b4",
          "blockNumber": "0x913ab0",
          "blockTimestamp": "0x69026a6c",
          "transactionHash": "0x1b544aaeeda3e290824913097300ba3eb1091a0ba78e7417532ec323c22dd4c7",
          "transactionIndex": "0x68",
          "logIndex": "0x6d",
          "removed": false
        }
      ],
      "logsBloom": "0x00000000000000100000000000000000000000000000000000000000000080000000000000000000000000000000000000000000800000000000000000000020000000000000000000000000000000000000000000000000000000000000000000000000000000000000000008000000000000000000000000000000000000000000000000000000000000000000400000000000000000000000000000000000000000000000000000000000000000000000000000000000000000000000000000000000000000000000000000000000000000000000000000000000000000000000000000000000000000000000000000000000000000000000000000000000",
      "type": "0x0",
      "transactionHash": "0x1b544aaeeda3e290824913097300ba3eb1091a0ba78e7417532ec323c22dd4c7",
      "transactionIndex": "0x68",
      "blockHash": "0x85ab29fcbdde16d81bb4d851d978644a094a9158f3dfdbf8ad21a574f73db0b4",
      "blockNumber": "0x913ab0",
      "gasUsed": "0x8ce5",
      "effectiveGasPrice": "0xf4240",
      "from": "0xad9fdad276ab1a430fd03177a07350cd7c61e897",
      "to": "0x674307b5d8340fa5d6a659d252d6b816bc85997a",
      "contractAddress": null
    },
    {
      "status": "0x1",
      "cumulativeGasUsed": "0xab5996",
      "logs": [],
      "logsBloom": "0x00000000000000000000000000000000000000000000000000000000000000000000000000000000000000000000000000000000000000000000000000000000000000000000000000000000000000000000000000000000000000000000000000000000000000000000000000000000000000000000000000000000000000000000000000000000000000000000000000000000000000000000000000000000000000000000000000000000000000000000000000000000000000000000000000000000000000000000000000000000000000000000000000000000000000000000000000000000000000000000000000000000000000000000000000000000",
      "type": "0x0",
      "transactionHash": "0xd6419104993daa0612ce0a43855e3d552699429b03181c8494fcca40c1697044",
      "transactionIndex": "0x6a",
      "blockHash": "0x85ab29fcbdde16d81bb4d851d978644a094a9158f3dfdbf8ad21a574f73db0b4",
      "blockNumber": "0x913ab0",
      "gasUsed": "0x719b",
      "effectiveGasPrice": "0xf4240",
      "from": "0xad9fdad276ab1a430fd03177a07350cd7c61e897",
      "to": "0x674307b5d8340fa5d6a659d252d6b816bc85997a",
      "contractAddress": null
    },
    {
      "status": "0x1",
      "cumulativeGasUsed": "0xabc454",
      "logs": [],
      "logsBloom": "0x00000000000000000000000000000000000000000000000000000000000000000000000000000000000000000000000000000000000000000000000000000000000000000000000000000000000000000000000000000000000000000000000000000000000000000000000000000000000000000000000000000000000000000000000000000000000000000000000000000000000000000000000000000000000000000000000000000000000000000000000000000000000000000000000000000000000000000000000000000000000000000000000000000000000000000000000000000000000000000000000000000000000000000000000000000000",
      "type": "0x0",
      "transactionHash": "0x4ecf8356e292f51dd01c2c1cf88ab921e0f526a1b6e60713e831a6c78e10749b",
      "transactionIndex": "0x6b",
      "blockHash": "0x85ab29fcbdde16d81bb4d851d978644a094a9158f3dfdbf8ad21a574f73db0b4",
      "blockNumber": "0x913ab0",
      "gasUsed": "0x6abe",
      "effectiveGasPrice": "0xf4240",
      "from": "0xad9fdad276ab1a430fd03177a07350cd7c61e897",
      "to": "0x674307b5d8340fa5d6a659d252d6b816bc85997a",
      "contractAddress": null
    }
  ],
  "libraries": [],
  "pending": [],
  "returns": {},
  "timestamp": 1761765998245,
  "chain": 11155111,
  "commit": "c03d2ed"
}