{
  "transactions": [
    {
      "hash": "0x294ff9567585a6c4756252585af845b8f1ce6238cf050e5990007ef0319151c0",
      "transactionType": "CALL",
      "contractName": null,
      "contractAddress": "0x5d9116ee207c2bb2f378047aa506366f06d52605",
      "function": "setRenderers(address,address,address)",
      "arguments": [
        "0xB5B25d077E93E4B7b80f3DA66d5b74d328240459",
        "0xC6f402B392c540Afa40E403ce1e19cd8d4494556",
        "0xAcF2747100B63e25e8B006B1d6b36a68BF488E9E"
      ],
      "transaction": {
        "from": "0xad9fdad276ab1a430fd03177a07350cd7c61e897",
        "to": "0x5d9116ee207c2bb2f378047aa506366f06d52605",
        "gas": "0x22595",
        "value": "0x0",
        "input": "0xbde0d296000000000000000000000000b5b25d077e93e4b7b80f3da66d5b74d328240459000000000000000000000000c6f402b392c540afa40e403ce1e19cd8d4494556000000000000000000000000acf2747100b63e25e8b006b1d6b36a68bf488e9e",
        "nonce": "0x2d4",
        "chainId": "0xaa36a7"
      },
      "additionalContracts": [],
      "isFixedGasLimit": false
    },
    {
      "hash": "0x458509a4b969abbfc04822b72e980817d0050b37000da4d924b7cd92313b528c",
      "transactionType": "CALL",
      "contractName": null,
      "contractAddress": "0x5d9116ee207c2bb2f378047aa506366f06d52605",
      "function": "setCountdownRenderer(address)",
      "arguments": [
        "0x2c55fFaf0fB3a9ea7675524c3548e8D140b2DDfa"
      ],
      "transaction": {
        "from": "0xad9fdad276ab1a430fd03177a07350cd7c61e897",
        "to": "0x5d9116ee207c2bb2f378047aa506366f06d52605",
        "gas": "0x11a0c",
        "value": "0x0",
        "input": "0xb78b37a90000000000000000000000002c55ffaf0fb3a9ea7675524c3548e8d140b2ddfa",
        "nonce": "0x2d5",
        "chainId": "0xaa36a7"
      },
      "additionalContracts": [],
      "isFixedGasLimit": false
    },
    {
      "hash": "0x19a19567635c80a9d65edf7fae8d36db573c90ec3b0220f023a7ec1ea90a4f2b",
      "transactionType": "CALL",
      "contractName": null,
      "contractAddress": "0x5d9116ee207c2bb2f378047aa506366f06d52605",
      "function": "setCountdownHtmlRenderer(address)",
      "arguments": [
        "0xdB222CF577cF69675f537263c1e374F5CA52BBd9"
      ],
      "transaction": {
        "from": "0xad9fdad276ab1a430fd03177a07350cd7c61e897",
        "to": "0x5d9116ee207c2bb2f378047aa506366f06d52605",
        "gas": "0x11c90",
        "value": "0x0",
        "input": "0xed52e526000000000000000000000000db222cf577cf69675f537263c1e374f5ca52bbd9",
        "nonce": "0x2d6",
        "chainId": "0xaa36a7"
      },
      "additionalContracts": [],
      "isFixedGasLimit": false
    }
  ],
  "receipts": [
    {
      "status": "0x1",
      "cumulativeGasUsed": "0xe6a376",
      "logs": [
        {
          "address": "0x5d9116ee207c2bb2f378047aa506366f06d52605",
          "topics": [
            "0x66cd6f63bfce81eb84ce68fba06e890adfc9788d2cd317cd34d6385bcc8543fd"
          ],
          "data": "0x000000000000000000000000c6f402b392c540afa40e403ce1e19cd8d4494556000000000000000000000000acf2747100b63e25e8b006b1d6b36a68bf488e9e000000000000000000000000b5b25d077e93e4b7b80f3da66d5b74d328240459",
          "blockHash": "0x27273b98c2a62ff00128f2332178732cac4ef2c4617cdc773eea8a97d85360b6",
          "blockNumber": "0x916c29",
          "blockTimestamp": "0x6904bda4",
          "transactionHash": "0x294ff9567585a6c4756252585af845b8f1ce6238cf050e5990007ef0319151c0",
          "transactionIndex": "0x72",
          "logIndex": "0x5c",
          "removed": false
        }
      ],
      "logsBloom": "0x00000000000000100000000000000000000000000000000000000000000080000000000000000000000000000000000000000000000000000000000000000020000000000000080000000000000000000000000000000000000000000000000000000000000000000000000000000000000000000000000000000000000000000000000000000000000000000000000000800000000000000000000000000000000000000000000000000000000000000000000000000000000000000000000000000000000000000000000000100000000000000000000000000000000000000000000000000000000000000000000000000000000000000000000000000000",
      "type": "0x0",
      "transactionHash": "0x294ff9567585a6c4756252585af845b8f1ce6238cf050e5990007ef0319151c0",
      "transactionIndex": "0x72",
      "blockHash": "0x27273b98c2a62ff00128f2332178732cac4ef2c4617cdc773eea8a97d85360b6",
      "blockNumber": "0x916c29",
      "gasUsed": "0x177c9",
      "effectiveGasPrice": "0xf424b",
      "from": "0xad9fdad276ab1a430fd03177a07350cd7c61e897",
      "to": "0x5d9116ee207c2bb2f378047aa506366f06d52605",
      "contractAddress": null
    },
    {
      "status": "0x1",
      "cumulativeGasUsed": "0xe76451",
      "logs": [],
      "logsBloom": "0x00000000000000000000000000000000000000000000000000000000000000000000000000000000000000000000000000000000000000000000000000000000000000000000000000000000000000000000000000000000000000000000000000000000000000000000000000000000000000000000000000000000000000000000000000000000000000000000000000000000000000000000000000000000000000000000000000000000000000000000000000000000000000000000000000000000000000000000000000000000000000000000000000000000000000000000000000000000000000000000000000000000000000000000000000000000",
      "type": "0x0",
      "transactionHash": "0x458509a4b969abbfc04822b72e980817d0050b37000da4d924b7cd92313b528c",
      "transactionIndex": "0x73",
      "blockHash": "0x27273b98c2a62ff00128f2332178732cac4ef2c4617cdc773eea8a97d85360b6",
      "blockNumber": "0x916c29",
      "gasUsed": "0xc0db",
      "effectiveGasPrice": "0xf424b",
      "from": "0xad9fdad276ab1a430fd03177a07350cd7c61e897",
      "to": "0x5d9116ee207c2bb2f378047aa506366f06d52605",
      "contractAddress": null
    },
    {
      "status": "0x1",
      "cumulativeGasUsed": "0xe826e4",
      "logs": [],
      "logsBloom": "0x00000000000000000000000000000000000000000000000000000000000000000000000000000000000000000000000000000000000000000000000000000000000000000000000000000000000000000000000000000000000000000000000000000000000000000000000000000000000000000000000000000000000000000000000000000000000000000000000000000000000000000000000000000000000000000000000000000000000000000000000000000000000000000000000000000000000000000000000000000000000000000000000000000000000000000000000000000000000000000000000000000000000000000000000000000000",
      "type": "0x0",
      "transactionHash": "0x19a19567635c80a9d65edf7fae8d36db573c90ec3b0220f023a7ec1ea90a4f2b",
      "transactionIndex": "0x74",
      "blockHash": "0x27273b98c2a62ff00128f2332178732cac4ef2c4617cdc773eea8a97d85360b6",
      "blockNumber": "0x916c29",
      "gasUsed": "0xc293",
      "effectiveGasPrice": "0xf424b",
      "from": "0xad9fdad276ab1a430fd03177a07350cd7c61e897",
      "to": "0x5d9116ee207c2bb2f378047aa506366f06d52605",
      "contractAddress": null
    }
  ],
  "libraries": [],
  "pending": [],
  "returns": {},
  "timestamp": 1761918372677,
  "chain": 11155111,
  "commit": "c03d2ed"
}