{
  "transactions": [
    {
      "hash": "0x0951c7b927b5b6e2059459c088c05424ba0dce522c5f1688c90083ccd90267f5",
      "transactionType": "CALL",
      "contractName": null,
      "contractAddress": "0x18a09608810f87f76061f4e075edc49115194b78",
      "function": "setRenderers(address,address,address)",
      "arguments": [
        "0xec0ECE1C903c4fE44C17178C8739e57A362CF2da",
        "0xAcAeef7C655665188E26d4F6570e0fc65c116830",
        "0xBD0Af886ADA865573F95656E64BA38F4Ee94859b"
      ],
      "transaction": {
        "from": "0xad9fdad276ab1a430fd03177a07350cd7c61e897",
        "to": "0x18a09608810f87f76061f4e075edc49115194b78",
        "gas": "0x20778",
        "value": "0x0",
        "input": "0xbde0d296000000000000000000000000ec0ece1c903c4fe44c17178c8739e57a362cf2da000000000000000000000000acaeef7c655665188e26d4f6570e0fc65c116830000000000000000000000000bd0af886ada865573f95656e64ba38f4ee94859b",
        "nonce": "0x509",
        "chainId": "0xaa36a7"
      },
      "additionalContracts": [],
      "isFixedGasLimit": false
    }
  ],
  "receipts": [
    {
      "status": "0x1",
      "cumulativeGasUsed": "0x1a3521a",
      "logs": [
        {
          "address": "0x18a09608810f87f76061f4e075edc49115194b78",
          "topics": [
            "0x66cd6f63bfce81eb84ce68fba06e890adfc9788d2cd317cd34d6385bcc8543fd"
          ],
          "data": "0x000000000000000000000000acaeef7c655665188e26d4f6570e0fc65c116830000000000000000000000000bd0af886ada865573f95656e64ba38f4ee94859b000000000000000000000000ec0ece1c903c4fe44c17178c8739e57a362cf2da",
          "blockHash": "0x479ad531fc93f334c35b0296d811a1d9aa21d68006ca9ebb6b011dc466688537",
          "blockNumber": "0x930995",
          "blockTimestamp": "0x6918af80",
          "transactionHash": "0x0951c7b927b5b6e2059459c088c05424ba0dce522c5f1688c90083ccd90267f5",
          "transactionIndex": "0x70",
          "logIndex": "0x24e",
          "removed": false
        }
      ],
      "logsBloom": "0x00000000000000100000000000000000000000000000000000000000000080000000000000000000000000000008000000000000000000000000000000000020000000000000000000000000000000000000000000000000000000000000000000000000000000004000000000000000000000000000000000000000000000000000000000000000000000000000000000000000000000000000000000000000000000000000000000000000000000000000000000000000000000000000000000000000000000000000000000000000000020000000000000000000000000000000000000000000000000000000000000000000000000000000000000000000",
      "type": "0x0",
      "transactionHash": "0x0951c7b927b5b6e2059459c088c05424ba0dce522c5f1688c90083ccd90267f5",
      "transactionIndex": "0x70",
      "blockHash": "0x479ad531fc93f334c35b0296d811a1d9aa21d68006ca9ebb6b011dc466688537",
      "blockNumber": "0x930995",
      "gasUsed": "0x17817",
      "effectiveGasPrice": "0xf424a",
      "from": "0xad9fdad276ab1a430fd03177a07350cd7c61e897",
      "to": "0x18a09608810f87f76061f4e075edc49115194b78",
      "contractAddress": null
    }
  ],
  "libraries": [],
  "pending": [],
  "returns": {},
  "timestamp": 1763225473065,
  "chain": 11155111,
  "commit": "0886bee"
}