{
  "transactions": [
    {
      "hash": "0xbc960097108437dac1fdf7a17fe74e06cfc0d3ec80a6211e2a7c7ae3cd72c58f",
      "transactionType": "CALL",
      "contractName": "EveryTwoMillionBlocks",
      "contractAddress": "0xa27e1385cfcc5bd6ff25d005d8fb10239502f4bc",
      "function": "setRenderers(address,address,address)",
      "arguments": [
        "0xB5B25d077E93E4B7b80f3DA66d5b74d328240459",
        "0xC6f402B392c540Afa40E403ce1e19cd8d4494556",
        "0xAcF2747100B63e25e8B006B1d6b36a68BF488E9E"
      ],
      "transaction": {
        "from": "0xad9fdad276ab1a430fd03177a07350cd7c61e897",
        "to": "0xa27e1385cfcc5bd6ff25d005d8fb10239502f4bc",
        "gas": "0x206cf",
        "value": "0x0",
        "input": "0xbde0d296000000000000000000000000b5b25d077e93e4b7b80f3da66d5b74d328240459000000000000000000000000c6f402b392c540afa40e403ce1e19cd8d4494556000000000000000000000000acf2747100b63e25e8b006b1d6b36a68bf488e9e",
        "nonce": "0x26b",
        "chainId": "0xaa36a7"
      },
      "additionalContracts": [],
      "isFixedGasLimit": false
    },
    {
      "hash": "0xd99d4fd801da187e8bbb62e505e9a75c5f57e9c19ff76cb9718e5265be7d7fed",
      "transactionType": "CALL",
      "contractName": "EveryTwoMillionBlocks",
      "contractAddress": "0xa27e1385cfcc5bd6ff25d005d8fb10239502f4bc",
      "function": "setCountdownRenderer(address)",
      "arguments": [
        "0x2c55fFaf0fB3a9ea7675524c3548e8D140b2DDfa"
      ],
      "transaction": {
        "from": "0xad9fdad276ab1a430fd03177a07350cd7c61e897",
        "to": "0xa27e1385cfcc5bd6ff25d005d8fb10239502f4bc",
        "gas": "0x10a42",
        "value": "0x0",
        "input": "0xb78b37a90000000000000000000000002c55ffaf0fb3a9ea7675524c3548e8d140b2ddfa",
        "nonce": "0x26c",
        "chainId": "0xaa36a7"
      },
      "additionalContracts": [],
      "isFixedGasLimit": false
    },
    {
      "hash": "0x4c4e29cefadff159ae5cbcebf630563633236c5ccdb27b5e1588b123a4c4aa16",
      "transactionType": "CALL",
      "contractName": "EveryTwoMillionBlocks",
      "contractAddress": "0xa27e1385cfcc5bd6ff25d005d8fb10239502f4bc",
      "function": "setCountdownHtmlRenderer(address)",
      "arguments": [
        "0xdB222CF577cF69675f537263c1e374F5CA52BBd9"
      ],
      "transaction": {
        "from": "0xad9fdad276ab1a430fd03177a07350cd7c61e897",
        "to": "0xa27e1385cfcc5bd6ff25d005d8fb10239502f4bc",
        "gas": "0x10c84",
        "value": "0x0",
        "input": "0xed52e526000000000000000000000000db222cf577cf69675f537263c1e374f5ca52bbd9",
        "nonce": "0x26d",
        "chainId": "0xaa36a7"
      },
      "additionalContracts": [],
      "isFixedGasLimit": false
    }
  ],
  "receipts": [
    {
      "status": "0x1",
      "cumulativeGasUsed": "0x8f6b6a",
      "logs": [
        {
          "address": "0xa27e1385cfcc5bd6ff25d005d8fb10239502f4bc",
          "topics": [
            "0x66cd6f63bfce81eb84ce68fba06e890adfc9788d2cd317cd34d6385bcc8543fd"
          ],
          "data": "0x000000000000000000000000c6f402b392c540afa40e403ce1e19cd8d4494556000000000000000000000000acf2747100b63e25e8b006b1d6b36a68bf488e9e000000000000000000000000b5b25d077e93e4b7b80f3da66d5b74d328240459",
          "blockHash": "0x830d01d4d83074c725380de866deabaab310b2f8089d5deb96e8f0f0025768d3",
          "blockNumber": "0x913abf",
          "blockTimestamp": "0x69026b20",
          "transactionHash": "0xbc960097108437dac1fdf7a17fe74e06cfc0d3ec80a6211e2a7c7ae3cd72c58f",
          "transactionIndex": "0x4c",
          "logIndex": "0x53",
          "removed": false
        }
      ],
      "logsBloom": "0x00000000000000100000000000000000000000000001000000000000000080000000000000000000000000000000000000000000000000000000000000000020000000000000000000000000000000000000000000000000000000000000000000000000000000000000000000000000000000000000000000000000000000000000000000000000000000000000000000000000000000000000000000000000000000000000000000000000000000000000000000000000000000000000000000000000000000000000000000000000000000000000000000000400000000000000000000000000000000000000000000000000000000000000000000000200",
      "type": "0x0",
      "transactionHash": "0xbc960097108437dac1fdf7a17fe74e06cfc0d3ec80a6211e2a7c7ae3cd72c58f",
      "transactionIndex": "0x4c",
      "blockHash": "0x830d01d4d83074c725380de866deabaab310b2f8089d5deb96e8f0f0025768d3",
      "blockNumber": "0x913abf",
      "gasUsed": "0x1779d",
      "effectiveGasPrice": "0xf423f",
      "from": "0xad9fdad276ab1a430fd03177a07350cd7c61e897",
      "to": "0xa27e1385cfcc5bd6ff25d005d8fb10239502f4bc",
      "contractAddress": null
    },
    {
      "status": "0x1",
      "cumulativeGasUsed": "0x902c2f",
      "logs": [],
      "logsBloom": "0x00000000000000000000000000000000000000000000000000000000000000000000000000000000000000000000000000000000000000000000000000000000000000000000000000000000000000000000000000000000000000000000000000000000000000000000000000000000000000000000000000000000000000000000000000000000000000000000000000000000000000000000000000000000000000000000000000000000000000000000000000000000000000000000000000000000000000000000000000000000000000000000000000000000000000000000000000000000000000000000000000000000000000000000000000000000",
      "type": "0x0",
      "transactionHash": "0xd99d4fd801da187e8bbb62e505e9a75c5f57e9c19ff76cb9718e5265be7d7fed",
      "transactionIndex": "0x4d",
      "blockHash": "0x830d01d4d83074c725380de866deabaab310b2f8089d5deb96e8f0f0025768d3",
      "blockNumber": "0x913abf",
      "gasUsed": "0xc0c5",
      "effectiveGasPrice": "0xf423f",
      "from": "0xad9fdad276ab1a430fd03177a07350cd7c61e897",
      "to": "0xa27e1385cfcc5bd6ff25d005d8fb10239502f4bc",
      "contractAddress": null
    },
    {
      "status": "0x1",
      "cumulativeGasUsed": "0x9b3398",
      "logs": [],
      "logsBloom": "0x00000000000000000000000000000000000000000000000000000000000000000000000000000000000000000000000000000000000000000000000000000000000000000000000000000000000000000000000000000000000000000000000000000000000000000000000000000000000000000000000000000000000000000000000000000000000000000000000000000000000000000000000000000000000000000000000000000000000000000000000000000000000000000000000000000000000000000000000000000000000000000000000000000000000000000000000000000000000000000000000000000000000000000000000000000000",
      "type": "0x0",
      "transactionHash": "0x4c4e29cefadff159ae5cbcebf630563633236c5ccdb27b5e1588b123a4c4aa16",
      "transactionIndex": "0x92",
      "blockHash": "0x17943c314f3ecf66fc070b5c95aea3ed2906ada1506490348c5d1d9d5fc1f7c4",
      "blockNumber": "0x913ac1",
      "gasUsed": "0xc267",
      "effectiveGasPrice": "0xf423f",
      "from": "0xad9fdad276ab1a430fd03177a07350cd7c61e897",
      "to": "0xa27e1385cfcc5bd6ff25d005d8fb10239502f4bc",
      "contractAddress": null
    }
  ],
  "libraries": [],
  "pending": [],
  "returns": {},
  "timestamp": 1761766201342,
  "chain": 11155111,
  "commit": "c03d2ed"
}