{
  "transactions": [
    {
      "hash": "0x7be0e198e59c6eaae8b5e981e9bd767c3898ae557c7020ea7c862a2c653cf204",
      "transactionType": "CALL",
      "contractName": null,
      "contractAddress": "0x674307b5d8340fa5d6a659d252d6b816bc85997a",
      "function": "setRenderers(address,address,address)",
      "arguments": [
        "0xB5B25d077E93E4B7b80f3DA66d5b74d328240459",
        "0xC6f402B392c540Afa40E403ce1e19cd8d4494556",
        "0xAcF2747100B63e25e8B006B1d6b36a68BF488E9E"
      ],
      "transaction": {
        "from": "0xad9fdad276ab1a430fd03177a07350cd7c61e897",
        "to": "0x674307b5d8340fa5d6a659d252d6b816bc85997a",
        "gas": "0x2231e",
        "value": "0x0",
        "input": "0xbde0d296000000000000000000000000b5b25d077e93e4b7b80f3da66d5b74d328240459000000000000000000000000c6f402b392c540afa40e403ce1e19cd8d4494556000000000000000000000000acf2747100b63e25e8b006b1d6b36a68bf488e9e",
        "nonce": "0xe9",
        "chainId": "0xaa36a7"
      },
      "additionalContracts": [],
      "isFixedGasLimit": false
    },
    {
      "hash": "0x3d3d666295b97ad35ed49866d25776be236b4c40798ff0065235535dc74b1df7",
      "transactionType": "CALL",
      "contractName": null,
      "contractAddress": "0x674307b5d8340fa5d6a659d252d6b816bc85997a",
      "function": "setCountdownRenderer(address)",
      "arguments": [
        "0x5F9799A89A8118c63972288d4F9Fd460d9d98dab"
      ],
      "transaction": {
        "from": "0xad9fdad276ab1a430fd03177a07350cd7c61e897",
        "to": "0x674307b5d8340fa5d6a659d252d6b816bc85997a",
        "gas": "0x10849",
        "value": "0x0",
        "input": "0xb78b37a90000000000000000000000005f9799a89a8118c63972288d4f9fd460d9d98dab",
        "nonce": "0xea",
        "chainId": "0xaa36a7"
      },
      "additionalContracts": [],
      "isFixedGasLimit": false
    },
    {
      "hash": "0x766f1f7217c8f860a92ad6c5e62861b5097c41b6e756b496412bc62e02b35a4c",
      "transactionType": "CALL",
      "contractName": null,
      "contractAddress": "0x674307b5d8340fa5d6a659d252d6b816bc85997a",
      "function": "setCountdownHtmlRenderer(address)",
      "arguments": [
        "0x539868F04484988F67BEEdF664bD6aE8e25ed2E6"
      ],
      "transaction": {
        "from": "0xad9fdad276ab1a430fd03177a07350cd7c61e897",
        "to": "0x674307b5d8340fa5d6a659d252d6b816bc85997a",
        "gas": "0x10dcb",
        "value": "0x0",
        "input": "0xed52e526000000000000000000000000539868f04484988f67beedf664bd6ae8e25ed2e6",
        "nonce": "0xeb",
        "chainId": "0xaa36a7"
      },
      "additionalContracts": [],
      "isFixedGasLimit": false
    }
  ],
  "receipts": [
    {
      "status": "0x1",
      "cumulativeGasUsed": "0xdef5d6",
      "logs": [
        {
          "address": "0x674307b5d8340fa5d6a659d252d6b816bc85997a",
          "topics": [
            "0x66cd6f63bfce81eb84ce68fba06e890adfc9788d2cd317cd34d6385bcc8543fd"
          ],
          "data": "0x000000000000000000000000c6f402b392c540afa40e403ce1e19cd8d4494556000000000000000000000000acf2747100b63e25e8b006b1d6b36a68bf488e9e000000000000000000000000b5b25d077e93e4b7b80f3da66d5b74d328240459",
          "blockHash": "0xc4aae0477e0f0a7d075965af409be71295f66c5d9cf5259d871e4dc65126b22c",
          "blockNumber": "0x903e51",
          "blockTimestamp": "0x68f658a8",
          "transactionHash": "0x7be0e198e59c6eaae8b5e981e9bd767c3898ae557c7020ea7c862a2c653cf204",
          "transactionIndex": "0x55",
          "logIndex": "0x71",
          "removed": false
        }
      ],
      "logsBloom": "0x00000000000000100000000000000000000000000000000000000000000080000000000000000000000000000000000000000000800000000000000000000020000000000000000000000000000000000000000000000000000000000000000000000000000000000000000008000000000000000000000000000000000000000000000000000000000000000000400000000000000000000000000000000000000000000000000000000000000000000000000000000000000000000000000000000000000000000000000000000000000000000000000000000000000000000000000000000000000000000000000000000000000000000000000000000000",
      "type": "0x0",
      "transactionHash": "0x7be0e198e59c6eaae8b5e981e9bd767c3898ae557c7020ea7c862a2c653cf204",
      "transactionIndex": "0x55",
      "blockHash": "0xc4aae0477e0f0a7d075965af409be71295f66c5d9cf5259d871e4dc65126b22c",
      "blockNumber": "0x903e51",
      "gasUsed": "0x17619",
      "effectiveGasPrice": "0xf424a",
      "from": "0xad9fdad276ab1a430fd03177a07350cd7c61e897",
      "to": "0x674307b5d8340fa5d6a659d252d6b816bc85997a",
      "contractAddress": null
    },
    {
      "status": "0x1",
      "cumulativeGasUsed": "0xdfb52d",
      "logs": [],
      "logsBloom": "0x00000000000000000000000000000000000000000000000000000000000000000000000000000000000000000000000000000000000000000000000000000000000000000000000000000000000000000000000000000000000000000000000000000000000000000000000000000000000000000000000000000000000000000000000000000000000000000000000000000000000000000000000000000000000000000000000000000000000000000000000000000000000000000000000000000000000000000000000000000000000000000000000000000000000000000000000000000000000000000000000000000000000000000000000000000000",
      "type": "0x0",
      "transactionHash": "0x3d3d666295b97ad35ed49866d25776be236b4c40798ff0065235535dc74b1df7",
      "transactionIndex": "0x56",
      "blockHash": "0xc4aae0477e0f0a7d075965af409be71295f66c5d9cf5259d871e4dc65126b22c",
      "blockNumber": "0x903e51",
      "gasUsed": "0xbf57",
      "effectiveGasPrice": "0xf424a",
      "from": "0xad9fdad276ab1a430fd03177a07350cd7c61e897",
      "to": "0x674307b5d8340fa5d6a659d252d6b816bc85997a",
      "contractAddress": null
    },
    {
      "status": "0x1",
      "cumulativeGasUsed": "0xe06da7",
      "logs": [],
      "logsBloom": "0x00000000000000000000000000000000000000000000000000000000000000000000000000000000000000000000000000000000000000000000000000000000000000000000000000000000000000000000000000000000000000000000000000000000000000000000000000000000000000000000000000000000000000000000000000000000000000000000000000000000000000000000000000000000000000000000000000000000000000000000000000000000000000000000000000000000000000000000000000000000000000000000000000000000000000000000000000000000000000000000000000000000000000000000000000000000",
      "type": "0x0",
      "transactionHash": "0x766f1f7217c8f860a92ad6c5e62861b5097c41b6e756b496412bc62e02b35a4c",
      "transactionIndex": "0x57",
      "blockHash": "0xc4aae0477e0f0a7d075965af409be71295f66c5d9cf5259d871e4dc65126b22c",
      "blockNumber": "0x903e51",
      "gasUsed": "0xb87a",
      "effectiveGasPrice": "0xf424a",
      "from": "0xad9fdad276ab1a430fd03177a07350cd7c61e897",
      "to": "0x674307b5d8340fa5d6a659d252d6b816bc85997a",
      "contractAddress": null
    }
  ],
  "libraries": [],
  "pending": [],
  "returns": {},
  "timestamp": 1760975017502,
  "chain": 11155111,
  "commit": "c03d2ed"
}