{
  "transactions": [
    {
      "hash": "0xd97d2990f09c40049b40246300a84417fe3e14d979eae68beb0413176ece8250",
      "transactionType": "CALL",
      "contractName": null,
      "contractAddress": "0x5d9116ee207c2bb2f378047aa506366f06d52605",
      "function": "setRenderers(address,address,address)",
      "arguments": [
        "0xB5B25d077E93E4B7b80f3DA66d5b74d328240459",
        "0xC6f402B392c540Afa40E403ce1e19cd8d4494556",
        "0xAcF2747100B63e25e8B006B1d6b36a68BF488E9E"
      ],
      "transaction": {
        "from": "0xad9fdad276ab1a430fd03177a07350cd7c61e897",
        "to": "0x5d9116ee207c2bb2f378047aa506366f06d52605",
        "gas": "0xc4f0",
        "value": "0x0",
        "input": "0xbde0d296000000000000000000000000b5b25d077e93e4b7b80f3da66d5b74d328240459000000000000000000000000c6f402b392c540afa40e403ce1e19cd8d4494556000000000000000000000000acf2747100b63e25e8b006b1d6b36a68bf488e9e",
        "nonce": "0x2e1",
        "chainId": "0xaa36a7"
      },
      "additionalContracts": [],
      "isFixedGasLimit": false
    },
    {
      "hash": "0x5205ce46747afdb912ab2e606829553831b43f0d4cf6cee8f4e9e3865cf73a1a",
      "transactionType": "CALL",
      "contractName": null,
      "contractAddress": "0x5d9116ee207c2bb2f378047aa506366f06d52605",
      "function": "setCountdownRenderer(address)",
      "arguments": [
        "0x2c55fFaf0fB3a9ea7675524c3548e8D140b2DDfa"
      ],
      "transaction": {
        "from": "0xad9fdad276ab1a430fd03177a07350cd7c61e897",
        "to": "0x5d9116ee207c2bb2f378047aa506366f06d52605",
        "gas": "0x9f01",
        "value": "0x0",
        "input": "0xb78b37a90000000000000000000000002c55ffaf0fb3a9ea7675524c3548e8d140b2ddfa",
        "nonce": "0x2e2",
        "chainId": "0xaa36a7"
      },
      "additionalContracts": [],
      "isFixedGasLimit": false
    },
    {
      "hash": "0x8c6f08be4813d6cb9a1cd0f299df9380b7d0d07461872fa29f2d524dc299bdf7",
      "transactionType": "CALL",
      "contractName": null,
      "contractAddress": "0x5d9116ee207c2bb2f378047aa506366f06d52605",
      "function": "setCountdownHtmlRenderer(address)",
      "arguments": [
        "0xdB222CF577cF69675f537263c1e374F5CA52BBd9"
      ],
      "transaction": {
        "from": "0xad9fdad276ab1a430fd03177a07350cd7c61e897",
        "to": "0x5d9116ee207c2bb2f378047aa506366f06d52605",
        "gas": "0xa162",
        "value": "0x0",
        "input": "0xed52e526000000000000000000000000db222cf577cf69675f537263c1e374f5ca52bbd9",
        "nonce": "0x2e3",
        "chainId": "0xaa36a7"
      },
      "additionalContracts": [],
      "isFixedGasLimit": false
    }
  ],
  "receipts": [
    {
      "status": "0x1",
      "cumulativeGasUsed": "0x11f35de",
      "logs": [
        {
          "address": "0x5d9116ee207c2bb2f378047aa506366f06d52605",
          "topics": [
            "0x66cd6f63bfce81eb84ce68fba06e890adfc9788d2cd317cd34d6385bcc8543fd"
          ],
          "data": "0x000000000000000000000000c6f402b392c540afa40e403ce1e19cd8d4494556000000000000000000000000acf2747100b63e25e8b006b1d6b36a68bf488e9e000000000000000000000000b5b25d077e93e4b7b80f3da66d5b74d328240459",
          "blockHash": "0xb551513ba392cc8db40c8e5f72c373f06507c94bcea0dd25dc6a780b0b99922e",
          "blockNumber": "0x916cb4",
          "blockTimestamp": "0x6904c428",
          "transactionHash": "0xd97d2990f09c40049b40246300a84417fe3e14d979eae68beb0413176ece8250",
          "transactionIndex": "0x5b",
          "logIndex": "0x62",
          "removed": false
        }
      ],
      "logsBloom": "0x00000000000000100000000000000000000000000000000000000000000080000000000000000000000000000000000000000000000000000000000000000020000000000000080000000000000000000000000000000000000000000000000000000000000000000000000000000000000000000000000000000000000000000000000000000000000000000000000000800000000000000000000000000000000000000000000000000000000000000000000000000000000000000000000000000000000000000000000000100000000000000000000000000000000000000000000000000000000000000000000000000000000000000000000000000000",
      "type": "0x0",
      "transactionHash": "0xd97d2990f09c40049b40246300a84417fe3e14d979eae68beb0413176ece8250",
      "transactionIndex": "0x5b",
      "blockHash": "0xb551513ba392cc8db40c8e5f72c373f06507c94bcea0dd25dc6a780b0b99922e",
      "blockNumber": "0x916cb4",
      "gasUsed": "0x8e95",
      "effectiveGasPrice": "0xf424c",
      "from": "0xad9fdad276ab1a430fd03177a07350cd7c61e897",
      "to": "0x5d9116ee207c2bb2f378047aa506366f06d52605",
      "contractAddress": null
    },
    {
      "status": "0x1",
      "cumulativeGasUsed": "0x11fa8fd",
      "logs": [],
      "logsBloom": "0x00000000000000000000000000000000000000000000000000000000000000000000000000000000000000000000000000000000000000000000000000000000000000000000000000000000000000000000000000000000000000000000000000000000000000000000000000000000000000000000000000000000000000000000000000000000000000000000000000000000000000000000000000000000000000000000000000000000000000000000000000000000000000000000000000000000000000000000000000000000000000000000000000000000000000000000000000000000000000000000000000000000000000000000000000000000",
      "type": "0x0",
      "transactionHash": "0x5205ce46747afdb912ab2e606829553831b43f0d4cf6cee8f4e9e3865cf73a1a",
      "transactionIndex": "0x5c",
      "blockHash": "0xb551513ba392cc8db40c8e5f72c373f06507c94bcea0dd25dc6a780b0b99922e",
      "blockNumber": "0x916cb4",
      "gasUsed": "0x731f",
      "effectiveGasPrice": "0xf424c",
      "from": "0xad9fdad276ab1a430fd03177a07350cd7c61e897",
      "to": "0x5d9116ee207c2bb2f378047aa506366f06d52605",
      "contractAddress": null
    },
    {
      "status": "0x1",
      "cumulativeGasUsed": "0x1201dd4",
      "logs": [],
      "logsBloom": "0x00000000000000000000000000000000000000000000000000000000000000000000000000000000000000000000000000000000000000000000000000000000000000000000000000000000000000000000000000000000000000000000000000000000000000000000000000000000000000000000000000000000000000000000000000000000000000000000000000000000000000000000000000000000000000000000000000000000000000000000000000000000000000000000000000000000000000000000000000000000000000000000000000000000000000000000000000000000000000000000000000000000000000000000000000000000",
      "type": "0x0",
      "transactionHash": "0x8c6f08be4813d6cb9a1cd0f299df9380b7d0d07461872fa29f2d524dc299bdf7",
      "transactionIndex": "0x5d",
      "blockHash": "0xb551513ba392cc8db40c8e5f72c373f06507c94bcea0dd25dc6a780b0b99922e",
      "blockNumber": "0x916cb4",
      "gasUsed": "0x74d7",
      "effectiveGasPrice": "0xf424c",
      "from": "0xad9fdad276ab1a430fd03177a07350cd7c61e897",
      "to": "0x5d9116ee207c2bb2f378047aa506366f06d52605",
      "contractAddress": null
    }
  ],
  "libraries": [],
  "pending": [],
  "returns": {},
  "timestamp": 1761920042234,
  "chain": 11155111,
  "commit": "c03d2ed"
}