{
  "transactions": [
    {
      "hash": "0x265e98d4fd92668efcdf6af4021f96e6a079768ff0de0db84bba602e97cfac17",
      "transactionType": "CALL",
      "contractName": null,
      "contractAddress": "0xfcb43bd05c71c52dbec18814957fd19ab332db4d",
      "function": "setRenderers(address,address,address)",
      "arguments": [
        "0xB5B25d077E93E4B7b80f3DA66d5b74d328240459",
        "0xC6f402B392c540Afa40E403ce1e19cd8d4494556",
        "0xAcF2747100B63e25e8B006B1d6b36a68BF488E9E"
      ],
      "transaction": {
        "from": "0xad9fdad276ab1a430fd03177a07350cd7c61e897",
        "to": "0xfcb43bd05c71c52dbec18814957fd19ab332db4d",
        "gas": "0x22595",
        "value": "0x0",
        "input": "0xbde0d296000000000000000000000000b5b25d077e93e4b7b80f3da66d5b74d328240459000000000000000000000000c6f402b392c540afa40e403ce1e19cd8d4494556000000000000000000000000acf2747100b63e25e8b006b1d6b36a68bf488e9e",
        "nonce": "0x312",
        "chainId": "0xaa36a7"
      },
      "additionalContracts": [],
      "isFixedGasLimit": false
    },
    {
      "hash": "0x3932687e1ba0c9122d1de1f17423d43e14adb1336bd3779e0895e463b5e68997",
      "transactionType": "CALL",
      "contractName": null,
      "contractAddress": "0xfcb43bd05c71c52dbec18814957fd19ab332db4d",
      "function": "setCountdownRenderer(address)",
      "arguments": [
        "0x2c55fFaf0fB3a9ea7675524c3548e8D140b2DDfa"
      ],
      "transaction": {
        "from": "0xad9fdad276ab1a430fd03177a07350cd7c61e897",
        "to": "0xfcb43bd05c71c52dbec18814957fd19ab332db4d",
        "gas": "0x11a0c",
        "value": "0x0",
        "input": "0xb78b37a90000000000000000000000002c55ffaf0fb3a9ea7675524c3548e8d140b2ddfa",
        "nonce": "0x313",
        "chainId": "0xaa36a7"
      },
      "additionalContracts": [],
      "isFixedGasLimit": false
    },
    {
      "hash": "0x3c64cd6883f9e80e0bab3e63f60837d405a2f473cc734f958085bf3989b6c61e",
      "transactionType": "CALL",
      "contractName": null,
      "contractAddress": "0xfcb43bd05c71c52dbec18814957fd19ab332db4d",
      "function": "setCountdownHtmlRenderer(address)",
      "arguments": [
        "0xdB222CF577cF69675f537263c1e374F5CA52BBd9"
      ],
      "transaction": {
        "from": "0xad9fdad276ab1a430fd03177a07350cd7c61e897",
        "to": "0xfcb43bd05c71c52dbec18814957fd19ab332db4d",
        "gas": "0x11c90",
        "value": "0x0",
        "input": "0xed52e526000000000000000000000000db222cf577cf69675f537263c1e374f5ca52bbd9",
        "nonce": "0x314",
        "chainId": "0xaa36a7"
      },
      "additionalContracts": [],
      "isFixedGasLimit": false
    }
  ],
  "receipts": [
    {
      "status": "0x1",
      "cumulativeGasUsed": "0xed850d",
      "logs": [
        {
          "address": "0xfcb43bd05c71c52dbec18814957fd19ab332db4d",
          "topics": [
            "0x66cd6f63bfce81eb84ce68fba06e890adfc9788d2cd317cd34d6385bcc8543fd"
          ],
          "data": "0x000000000000000000000000c6f402b392c540afa40e403ce1e19cd8d4494556000000000000000000000000acf2747100b63e25e8b006b1d6b36a68bf488e9e000000000000000000000000b5b25d077e93e4b7b80f3da66d5b74d328240459",
          "blockHash": "0xb0f9d85e73767c136bc3a324a84bd5b60599ceb20af8694a9be9a44ae726841a",
          "blockNumber": "0x916fd5",
          "blockTimestamp": "0x6904e9c0",
          "transactionHash": "0x265e98d4fd92668efcdf6af4021f96e6a079768ff0de0db84bba602e97cfac17",
          "transactionIndex": "0x79",
          "logIndex": "0xa3",
          "removed": false
        }
      ],
      "logsBloom": "0x00000000000000100000000000000000000000000000000000000000000080000000000000000000000000000000000000000000000000000000000000000020000000000000000000000000000000000000000000000000000000000000000000000000000000000000000000000000000000000000000000000000000000000000000000080000000000000004400000000000000000000000000000000000000000000000000000000000000000000000000000000000000000000000000000000000000000000000000000000000000000000000000000000000000000000000000000000000000000000000000000000000000000000000000000000000",
      "type": "0x0",
      "transactionHash": "0x265e98d4fd92668efcdf6af4021f96e6a079768ff0de0db84bba602e97cfac17",
      "transactionIndex": "0x79",
      "blockHash": "0xb0f9d85e73767c136bc3a324a84bd5b60599ceb20af8694a9be9a44ae726841a",
      "blockNumber": "0x916fd5",
      "gasUsed": "0x177c9",
      "effectiveGasPrice": "0xf4249",
      "from": "0xad9fdad276ab1a430fd03177a07350cd7c61e897",
      "to": "0xfcb43bd05c71c52dbec18814957fd19ab332db4d",
      "contractAddress": null
    },
    {
      "status": "0x1",
      "cumulativeGasUsed": "0xee45e8",
      "logs": [],
      "logsBloom": "0x00000000000000000000000000000000000000000000000000000000000000000000000000000000000000000000000000000000000000000000000000000000000000000000000000000000000000000000000000000000000000000000000000000000000000000000000000000000000000000000000000000000000000000000000000000000000000000000000000000000000000000000000000000000000000000000000000000000000000000000000000000000000000000000000000000000000000000000000000000000000000000000000000000000000000000000000000000000000000000000000000000000000000000000000000000000",
      "type": "0x0",
      "transactionHash": "0x3932687e1ba0c9122d1de1f17423d43e14adb1336bd3779e0895e463b5e68997",
      "transactionIndex": "0x7a",
      "blockHash": "0xb0f9d85e73767c136bc3a324a84bd5b60599ceb20af8694a9be9a44ae726841a",
      "blockNumber": "0x916fd5",
      "gasUsed": "0xc0db",
      "effectiveGasPrice": "0xf4249",
      "from": "0xad9fdad276ab1a430fd03177a07350cd7c61e897",
      "to": "0xfcb43bd05c71c52dbec18814957fd19ab332db4d",
      "contractAddress": null
    },
    {
      "status": "0x1",
      "cumulativeGasUsed": "0xef087b",
      "logs": [],
      "logsBloom": "0x00000000000000000000000000000000000000000000000000000000000000000000000000000000000000000000000000000000000000000000000000000000000000000000000000000000000000000000000000000000000000000000000000000000000000000000000000000000000000000000000000000000000000000000000000000000000000000000000000000000000000000000000000000000000000000000000000000000000000000000000000000000000000000000000000000000000000000000000000000000000000000000000000000000000000000000000000000000000000000000000000000000000000000000000000000000",
      "type": "0x0",
      "transactionHash": "0x3c64cd6883f9e80e0bab3e63f60837d405a2f473cc734f958085bf3989b6c61e",
      "transactionIndex": "0x7b",
      "blockHash": "0xb0f9d85e73767c136bc3a324a84bd5b60599ceb20af8694a9be9a44ae726841a",
      "blockNumber": "0x916fd5",
      "gasUsed": "0xc293",
      "effectiveGasPrice": "0xf4249",
      "from": "0xad9fdad276ab1a430fd03177a07350cd7c61e897",
      "to": "0xfcb43bd05c71c52dbec18814957fd19ab332db4d",
      "contractAddress": null
    }
  ],
  "libraries": [],
  "pending": [],
  "returns": {},
  "timestamp": 1761929666177,
  "chain": 11155111,
  "commit": "c03d2ed"
}