{
  "transactions": [
    {
      "hash": "0x7974126adc7d8b304e4b141c3cdf5e8ca6ce60b3402c95dbe41da376f84cd071",
      "transactionType": "CALL",
      "contractName": null,
      "contractAddress": "0x5dff81582252f3cbbfecdf04865309c2368e627e",
      "function": "setRenderers(address,address,address)",
      "arguments": [
        "0xB5B25d077E93E4B7b80f3DA66d5b74d328240459",
        "0xC6f402B392c540Afa40E403ce1e19cd8d4494556",
        "0xAcF2747100B63e25e8B006B1d6b36a68BF488E9E"
      ],
      "transaction": {
        "from": "0xad9fdad276ab1a430fd03177a07350cd7c61e897",
        "to": "0x5dff81582252f3cbbfecdf04865309c2368e627e",
        "gas": "0x208c5",
        "value": "0x0",
        "input": "0xbde0d296000000000000000000000000b5b25d077e93e4b7b80f3da66d5b74d328240459000000000000000000000000c6f402b392c540afa40e403ce1e19cd8d4494556000000000000000000000000acf2747100b63e25e8b006b1d6b36a68bf488e9e",
        "nonce": "0x4c7",
        "chainId": "0xaa36a7"
      },
      "additionalContracts": [],
      "isFixedGasLimit": false
    },
    {
      "hash": "0xbc8c73adc33d6803741d3cee05afb0ed1d97a4a906cbb93a6c0061784c74b156",
      "transactionType": "CALL",
      "contractName": null,
      "contractAddress": "0x5dff81582252f3cbbfecdf04865309c2368e627e",
      "function": "setCountdownRenderer(address)",
      "arguments": [
        "0x2c55fFaf0fB3a9ea7675524c3548e8D140b2DDfa"
      ],
      "transaction": {
        "from": "0xad9fdad276ab1a430fd03177a07350cd7c61e897",
        "to": "0x5dff81582252f3cbbfecdf04865309c2368e627e",
        "gas": "0x19a9e",
        "value": "0x0",
        "input": "0xb78b37a90000000000000000000000002c55ffaf0fb3a9ea7675524c3548e8d140b2ddfa",
        "nonce": "0x4c8",
        "chainId": "0xaa36a7"
      },
      "additionalContracts": [],
      "isFixedGasLimit": false
    },
    {
      "hash": "0xab6b81028300435bb226b1a8fe918783b9b2694edc9aa9f377ef1937cda22314",
      "transactionType": "CALL",
      "contractName": null,
      "contractAddress": "0x5dff81582252f3cbbfecdf04865309c2368e627e",
      "function": "setCountdownHtmlRenderer(address)",
      "arguments": [
        "0xdB222CF577cF69675f537263c1e374F5CA52BBd9"
      ],
      "transaction": {
        "from": "0xad9fdad276ab1a430fd03177a07350cd7c61e897",
        "to": "0x5dff81582252f3cbbfecdf04865309c2368e627e",
        "gas": "0x154dd",
        "value": "0x0",
        "input": "0xed52e526000000000000000000000000db222cf577cf69675f537263c1e374f5ca52bbd9",
        "nonce": "0x4c9",
        "chainId": "0xaa36a7"
      },
      "additionalContracts": [],
      "isFixedGasLimit": false
    }
  ],
  "receipts": [
    {
      "status": "0x1",
      "cumulativeGasUsed": "0xa26f4e",
      "logs": [
        {
          "address": "0x5dff81582252f3cbbfecdf04865309c2368e627e",
          "topics": [
            "0x66cd6f63bfce81eb84ce68fba06e890adfc9788d2cd317cd34d6385bcc8543fd"
          ],
          "data": "0x000000000000000000000000c6f402b392c540afa40e403ce1e19cd8d4494556000000000000000000000000acf2747100b63e25e8b006b1d6b36a68bf488e9e000000000000000000000000b5b25d077e93e4b7b80f3da66d5b74d328240459",
          "blockHash": "0xd32b665ab567a442a917fb9bff712bc5a36a876d0be1d4bd09bda14aca43043a",
          "blockNumber": "0x92d38f",
          "blockTimestamp": "0x69160380",
          "transactionHash": "0x7974126adc7d8b304e4b141c3cdf5e8ca6ce60b3402c95dbe41da376f84cd071",
          "transactionIndex": "0x55",
          "logIndex": "0x71",
          "removed": false
        }
      ],
      "logsBloom": "0x00000000000000100000000000000000000000000000000000000000000080000000000000000000000000000000000000000000000000000000000000000020000000000000000000080000000000000000000000000000000000000000000000000000000000000000000000000000000000000000000000000000200000000000000000000000000000000000000000000000000000000000000000000000000000000000000000000000000000000000000000000000000000000000000000000000000000000000000000000000000000000000000000000000000000000000000000000000000000000000000000000000000000000000000000000000",
      "type": "0x0",
      "transactionHash": "0x7974126adc7d8b304e4b141c3cdf5e8ca6ce60b3402c95dbe41da376f84cd071",
      "transactionIndex": "0x55",
      "blockHash": "0xd32b665ab567a442a917fb9bff712bc5a36a876d0be1d4bd09bda14aca43043a",
      "blockNumber": "0x92d38f",
      "gasUsed": "0x17908",
      "effectiveGasPrice": "0xf4240",
      "from": "0xad9fdad276ab1a430fd03177a07350cd7c61e897",
      "to": "0x5dff81582252f3cbbfecdf04865309c2368e627e",
      "contractAddress": null
    },
    {
      "status": "0x1",
      "cumulativeGasUsed": "0xa39896",
      "logs": [
        {
          "address": "0x5dff81582252f3cbbfecdf04865309c2368e627e",
          "topics": [
            "0x9584f6127454ba5ccb46e9c599e679734a623e5d809597beb7842a3468478219",
            "0x0000000000000000000000000000000000000000000000000000000000000000"
          ],
          "data": "0x0000000000000000000000002c55ffaf0fb3a9ea7675524c3548e8d140b2ddfa00000000000000000000000000000000000000000000000000000000000000000000000000000000000000000000000000000000000000000000000000000001",
          "blockHash": "0xd32b665ab567a442a917fb9bff712bc5a36a876d0be1d4bd09bda14aca43043a",
          "blockNumber": "0x92d38f",
          "blockTimestamp": "0x69160380",
          "transactionHash": "0xbc8c73adc33d6803741d3cee05afb0ed1d97a4a906cbb93a6c0061784c74b156",
          "transactionIndex": "0x56",
          "logIndex": "0x72",
          "removed": false
        }
      ],
      "logsBloom": "0x00000000000000000000000000000000000020000000000000000000000000000000000000000000000000000000000000000000000000000000000000000020000000000000000008080000000000000000000000000000000000000000000000000000020000000000000000000800000000000000000000000000200000000000000000000000000000000000000000000000000000000000000000000000000000000000000000000000000000000000000000000000000000000000000000000000000000000000000000000000000000000000000000000000000020000000000000000000000000000000000000000000000000000000000008000000",
      "type": "0x0",
      "transactionHash": "0xbc8c73adc33d6803741d3cee05afb0ed1d97a4a906cbb93a6c0061784c74b156",
      "transactionIndex": "0x56",
      "blockHash": "0xd32b665ab567a442a917fb9bff712bc5a36a876d0be1d4bd09bda14aca43043a",
      "blockNumber": "0x92d38f",
      "gasUsed": "0x12948",
      "effectiveGasPrice": "0xf4240",
      "from": "0xad9fdad276ab1a430fd03177a07350cd7c61e897",
      "to": "0x5dff81582252f3cbbfecdf04865309c2368e627e",
      "contractAddress": null
    },
    {
      "status": "0x1",
      "cumulativeGasUsed": "0xa481a8",
      "logs": [
        {
          "address": "0x5dff81582252f3cbbfecdf04865309c2368e627e",
          "topics": [
            "0x9584f6127454ba5ccb46e9c599e679734a623e5d809597beb7842a3468478219",
            "0x0000000000000000000000000000000000000000000000000000000000000000"
          ],
          "data": "0x0000000000000000000000002c55ffaf0fb3a9ea7675524c3548e8d140b2ddfa000000000000000000000000db222cf577cf69675f537263c1e374f5ca52bbd90000000000000000000000000000000000000000000000000000000000000001",
          "blockHash": "0xd32b665ab567a442a917fb9bff712bc5a36a876d0be1d4bd09bda14aca43043a",
          "blockNumber": "0x92d38f",
          "blockTimestamp": "0x69160380",
          "transactionHash": "0xab6b81028300435bb226b1a8fe918783b9b2694edc9aa9f377ef1937cda22314",
          "transactionIndex": "0x57",
          "logIndex": "0x73",
          "removed": false
        }
      ],
      "logsBloom": "0x00000000000000000000000000000000000020000000000000000000000000000000000000000000000000000000000000000000000000000000000000000020000000000000000008080000000000000000000000000000000000000000000000000000020000000000000000000800000000000000000000000000200000000000000000000000000000000000000000000000000000000000000000000000000000000000000000000000000000000000000000000000000000000000000000000000000000000000000000000000000000000000000000000000000020000000000000000000000000000000000000000000000000000000000008000000",
      "type": "0x0",
      "transactionHash": "0xab6b81028300435bb226b1a8fe918783b9b2694edc9aa9f377ef1937cda22314",
      "transactionIndex": "0x57",
      "blockHash": "0xd32b665ab567a442a917fb9bff712bc5a36a876d0be1d4bd09bda14aca43043a",
      "blockNumber": "0x92d38f",
      "gasUsed": "0xe912",
      "effectiveGasPrice": "0xf4240",
      "from": "0xad9fdad276ab1a430fd03177a07350cd7c61e897",
      "to": "0x5dff81582252f3cbbfecdf04865309c2368e627e",
      "contractAddress": null
    }
  ],
  "libraries": [],
  "pending": [],
  "returns": {},
  "timestamp": 1763050369247,
  "chain": 11155111,
  "commit": "0886bee"
}