{
  "transactions": [
    {
      "hash": "0x1539e2db0e5ec75139b1d9abd431e0e386d7dc09a2008bc00dcaed57dae3b5c5",
      "transactionType": "CALL",
      "contractName": null,
      "contractAddress": "0xb327190afbc357c4408fb38b2bc91be793f1659c",
      "function": "setRenderers(address,address,address)",
      "arguments": [
        "0xB5B25d077E93E4B7b80f3DA66d5b74d328240459",
        "0xC6f402B392c540Afa40E403ce1e19cd8d4494556",
        "0xAcF2747100B63e25e8B006B1d6b36a68BF488E9E"
      ],
      "transaction": {
        "from": "0xad9fdad276ab1a430fd03177a07350cd7c61e897",
        "to": "0xb327190afbc357c4408fb38b2bc91be793f1659c",
        "gas": "0x22595",
        "value": "0x0",
        "input": "0xbde0d296000000000000000000000000b5b25d077e93e4b7b80f3da66d5b74d328240459000000000000000000000000c6f402b392c540afa40e403ce1e19cd8d4494556000000000000000000000000acf2747100b63e25e8b006b1d6b36a68bf488e9e",
        "nonce": "0x2f8",
        "chainId": "0xaa36a7"
      },
      "additionalContracts": [],
      "isFixedGasLimit": false
    },
    {
      "hash": "0xa321fb6b51517f78e9f185f27d813e136e31605c60639f594cb9b49c59d2961b",
      "transactionType": "CALL",
      "contractName": null,
      "contractAddress": "0xb327190afbc357c4408fb38b2bc91be793f1659c",
      "function": "setCountdownRenderer(address)",
      "arguments": [
        "0x2c55fFaf0fB3a9ea7675524c3548e8D140b2DDfa"
      ],
      "transaction": {
        "from": "0xad9fdad276ab1a430fd03177a07350cd7c61e897",
        "to": "0xb327190afbc357c4408fb38b2bc91be793f1659c",
        "gas": "0x11a0c",
        "value": "0x0",
        "input": "0xb78b37a90000000000000000000000002c55ffaf0fb3a9ea7675524c3548e8d140b2ddfa",
        "nonce": "0x2f9",
        "chainId": "0xaa36a7"
      },
      "additionalContracts": [],
      "isFixedGasLimit": false
    },
    {
      "hash": "0xb962a1c4db8fcf55caf0a7250d8f968a54bcb35dcd5cf914138799a76af42727",
      "transactionType": "CALL",
      "contractName": null,
      "contractAddress": "0xb327190afbc357c4408fb38b2bc91be793f1659c",
      "function": "setCountdownHtmlRenderer(address)",
      "arguments": [
        "0xdB222CF577cF69675f537263c1e374F5CA52BBd9"
      ],
      "transaction": {
        "from": "0xad9fdad276ab1a430fd03177a07350cd7c61e897",
        "to": "0xb327190afbc357c4408fb38b2bc91be793f1659c",
        "gas": "0x11c90",
        "value": "0x0",
        "input": "0xed52e526000000000000000000000000db222cf577cf69675f537263c1e374f5ca52bbd9",
        "nonce": "0x2fa",
        "chainId": "0xaa36a7"
      },
      "additionalContracts": [],
      "isFixedGasLimit": false
    }
  ],
  "receipts": [
    {
      "status": "0x1",
      "cumulativeGasUsed": "0xcde167",
      "logs": [
        {
          "address": "0xb327190afbc357c4408fb38b2bc91be793f1659c",
          "topics": [
            "0x66cd6f63bfce81eb84ce68fba06e890adfc9788d2cd317cd34d6385bcc8543fd"
          ],
          "data": "0x000000000000000000000000c6f402b392c540afa40e403ce1e19cd8d4494556000000000000000000000000acf2747100b63e25e8b006b1d6b36a68bf488e9e000000000000000000000000b5b25d077e93e4b7b80f3da66d5b74d328240459",
          "blockHash": "0xb1b697fd0f72ab76f25fcb1b79c483a6b19cb73ec99dd7662c5da69b11d89685",
          "blockNumber": "0x916db3",
          "blockTimestamp": "0x6904d01c",
          "transactionHash": "0x1539e2db0e5ec75139b1d9abd431e0e386d7dc09a2008bc00dcaed57dae3b5c5",
          "transactionIndex": "0x3a",
          "logIndex": "0x7f",
          "removed": false
        }
      ],
      "logsBloom": "0x00000000000000100000000000000000000000000000000000000000000080000000000000000000000000000000000000000000000000000000000000000020000000000000000000002000000000000000000000000000000000000000000000000000000000000000000000000000000000000000000000000000000000000000000000000000000000000000000000000000000000000000000000000000000000000000000000000000000000000000000000000000000000000000000000000000000000000000000000000000000000000000000200000000000000000000000000000100000000000000000000000000000000000000000000000000",
      "type": "0x0",
      "transactionHash": "0x1539e2db0e5ec75139b1d9abd431e0e386d7dc09a2008bc00dcaed57dae3b5c5",
      "transactionIndex": "0x3a",
      "blockHash": "0xb1b697fd0f72ab76f25fcb1b79c483a6b19cb73ec99dd7662c5da69b11d89685",
      "blockNumber": "0x916db3",
      "gasUsed": "0x177c9",
      "effectiveGasPrice": "0xf4240",
      "from": "0xad9fdad276ab1a430fd03177a07350cd7c61e897",
      "to": "0xb327190afbc357c4408fb38b2bc91be793f1659c",
      "contractAddress": null
    },
    {
      "status": "0x1",
      "cumulativeGasUsed": "0xebf070",
      "logs": [],
      "logsBloom": "0x00000000000000000000000000000000000000000000000000000000000000000000000000000000000000000000000000000000000000000000000000000000000000000000000000000000000000000000000000000000000000000000000000000000000000000000000000000000000000000000000000000000000000000000000000000000000000000000000000000000000000000000000000000000000000000000000000000000000000000000000000000000000000000000000000000000000000000000000000000000000000000000000000000000000000000000000000000000000000000000000000000000000000000000000000000000",
      "type": "0x0",
      "transactionHash": "0xa321fb6b51517f78e9f185f27d813e136e31605c60639f594cb9b49c59d2961b",
      "transactionIndex": "0x5c",
      "blockHash": "0xb1b697fd0f72ab76f25fcb1b79c483a6b19cb73ec99dd7662c5da69b11d89685",
      "blockNumber": "0x916db3",
      "gasUsed": "0xc0db",
      "effectiveGasPrice": "0xf4240",
      "from": "0xad9fdad276ab1a430fd03177a07350cd7c61e897",
      "to": "0xb327190afbc357c4408fb38b2bc91be793f1659c",
      "contractAddress": null
    },
    {
      "status": "0x1",
      "cumulativeGasUsed": "0xecb303",
      "logs": [],
      "logsBloom": "0x00000000000000000000000000000000000000000000000000000000000000000000000000000000000000000000000000000000000000000000000000000000000000000000000000000000000000000000000000000000000000000000000000000000000000000000000000000000000000000000000000000000000000000000000000000000000000000000000000000000000000000000000000000000000000000000000000000000000000000000000000000000000000000000000000000000000000000000000000000000000000000000000000000000000000000000000000000000000000000000000000000000000000000000000000000000",
      "type": "0x0",
      "transactionHash": "0xb962a1c4db8fcf55caf0a7250d8f968a54bcb35dcd5cf914138799a76af42727",
      "transactionIndex": "0x5d",
      "blockHash": "0xb1b697fd0f72ab76f25fcb1b79c483a6b19cb73ec99dd7662c5da69b11d89685",
      "blockNumber": "0x916db3",
      "gasUsed": "0xc293",
      "effectiveGasPrice": "0xf4240",
      "from": "0xad9fdad276ab1a430fd03177a07350cd7c61e897",
      "to": "0xb327190afbc357c4408fb38b2bc91be793f1659c",
      "contractAddress": null
    }
  ],
  "libraries": [],
  "pending": [],
  "returns": {},
  "timestamp": 1761923101371,
  "chain": 11155111,
  "commit": "c03d2ed"
}