{
  "transactions": [
    {
      "hash": "0xe79e7882197fecadf7e71e73737592cede741acbc5c4426484e213b42e03cdfd",
      "transactionType": "CALL",
      "contractName": null,
      "contractAddress": "0x5dff81582252f3cbbfecdf04865309c2368e627e",
      "function": "setRenderers(address,address,address)",
      "arguments": [
        "0xB5B25d077E93E4B7b80f3DA66d5b74d328240459",
        "0xC6f402B392c540Afa40E403ce1e19cd8d4494556",
        "0xAcF2747100B63e25e8B006B1d6b36a68BF488E9E"
      ],
      "transaction": {
        "from": "0xad9fdad276ab1a430fd03177a07350cd7c61e897",
        "to": "0x5dff81582252f3cbbfecdf04865309c2368e627e",
        "gas": "0xc6a9",
        "value": "0x0",
        "input": "0xbde0d296000000000000000000000000b5b25d077e93e4b7b80f3da66d5b74d328240459000000000000000000000000c6f402b392c540afa40e403ce1e19cd8d4494556000000000000000000000000acf2747100b63e25e8b006b1d6b36a68bf488e9e",
        "nonce": "0x4db",
        "chainId": "0xaa36a7"
      },
      "additionalContracts": [],
      "isFixedGasLimit": false
    },
    {
      "hash": "0xd5718a8689a4bf89493ab98ca2087fd8e62f917c92e6323d05ade310bd898edd",
      "transactionType": "CALL",
      "contractName": null,
      "contractAddress": "0x5dff81582252f3cbbfecdf04865309c2368e627e",
      "function": "setCountdownRenderer(address)",
      "arguments": [
        "0x2c55fFaf0fB3a9ea7675524c3548e8D140b2DDfa"
      ],
      "transaction": {
        "from": "0xad9fdad276ab1a430fd03177a07350cd7c61e897",
        "to": "0x5dff81582252f3cbbfecdf04865309c2368e627e",
        "gas": "0xc3e0",
        "value": "0x0",
        "input": "0xb78b37a90000000000000000000000002c55ffaf0fb3a9ea7675524c3548e8d140b2ddfa",
        "nonce": "0x4dc",
        "chainId": "0xaa36a7"
      },
      "additionalContracts": [],
      "isFixedGasLimit": false
    },
    {
      "hash": "0xa6dbf3e9d066a8c723b5432a1bcd8d5ce49c42fd5533205fe04c1f7ad5f466ee",
      "transactionType": "CALL",
      "contractName": null,
      "contractAddress": "0x5dff81582252f3cbbfecdf04865309c2368e627e",
      "function": "setCountdownHtmlRenderer(address)",
      "arguments": [
        "0xdB222CF577cF69675f537263c1e374F5CA52BBd9"
      ],
      "transaction": {
        "from": "0xad9fdad276ab1a430fd03177a07350cd7c61e897",
        "to": "0x5dff81582252f3cbbfecdf04865309c2368e627e",
        "gas": "0xc772",
        "value": "0x0",
        "input": "0xed52e526000000000000000000000000db222cf577cf69675f537263c1e374f5ca52bbd9",
        "nonce": "0x4dd",
        "chainId": "0xaa36a7"
      },
      "additionalContracts": [],
      "isFixedGasLimit": false
    }
  ],
  "receipts": [
    {
      "status": "0x1",
      "cumulativeGasUsed": "0x9f9829",
      "logs": [
        {
          "address": "0x5dff81582252f3cbbfecdf04865309c2368e627e",
          "topics": [
            "0x66cd6f63bfce81eb84ce68fba06e890adfc9788d2cd317cd34d6385bcc8543fd"
          ],
          "data": "0x000000000000000000000000c6f402b392c540afa40e403ce1e19cd8d4494556000000000000000000000000acf2747100b63e25e8b006b1d6b36a68bf488e9e000000000000000000000000b5b25d077e93e4b7b80f3da66d5b74d328240459",
          "blockHash": "0xc982ef8578718d4d72a3bfdcc0867ae955a7190aaaba0f4e98326cd10b824d71",
          "blockNumber": "0x92d525",
          "blockTimestamp": "0x69161688",
          "transactionHash": "0xe79e7882197fecadf7e71e73737592cede741acbc5c4426484e213b42e03cdfd",
          "transactionIndex": "0x35",
          "logIndex": "0x8e",
          "removed": false
        }
      ],
      "logsBloom": "0x00000000000000100000000000000000000000000000000000000000000080000000000000000000000000000000000000000000000000000000000000000020000000000000000000080000000000000000000000000000000000000000000000000000000000000000000000000000000000000000000000000000200000000000000000000000000000000000000000000000000000000000000000000000000000000000000000000000000000000000000000000000000000000000000000000000000000000000000000000000000000000000000000000000000000000000000000000000000000000000000000000000000000000000000000000000",
      "type": "0x2",
      "transactionHash": "0xe79e7882197fecadf7e71e73737592cede741acbc5c4426484e213b42e03cdfd",
      "transactionIndex": "0x35",
      "blockHash": "0xc982ef8578718d4d72a3bfdcc0867ae955a7190aaaba0f4e98326cd10b824d71",
      "blockNumber": "0x92d525",
      "gasUsed": "0x8fd4",
      "effectiveGasPrice": "0xf510b",
      "from": "0xad9fdad276ab1a430fd03177a07350cd7c61e897",
      "to": "0x5dff81582252f3cbbfecdf04865309c2368e627e",
      "contractAddress": null
    },
    {
      "status": "0x1",
      "cumulativeGasUsed": "0xa025f9",
      "logs": [
        {
          "address": "0x5dff81582252f3cbbfecdf04865309c2368e627e",
          "topics": [
            "0x9584f6127454ba5ccb46e9c599e679734a623e5d809597beb7842a3468478219",
            "0x0000000000000000000000000000000000000000000000000000000000000000"
          ],
          "data": "0x0000000000000000000000002c55ffaf0fb3a9ea7675524c3548e8d140b2ddfa000000000000000000000000db222cf577cf69675f537263c1e374f5ca52bbd90000000000000000000000000000000000000000000000000000000000000001",
          "blockHash": "0xc982ef8578718d4d72a3bfdcc0867ae955a7190aaaba0f4e98326cd10b824d71",
          "blockNumber": "0x92d525",
          "blockTimestamp": "0x69161688",
          "transactionHash": "0xd5718a8689a4bf89493ab98ca2087fd8e62f917c92e6323d05ade310bd898edd",
          "transactionIndex": "0x36",
          "logIndex": "0x8f",
          "removed": false
        }
      ],
      "logsBloom": "0x00000000000000000000000000000000000020000000000000000000000000000000000000000000000000000000000000000000000000000000000000000020000000000000000008080000000000000000000000000000000000000000000000000000020000000000000000000800000000000000000000000000200000000000000000000000000000000000000000000000000000000000000000000000000000000000000000000000000000000000000000000000000000000000000000000000000000000000000000000000000000000000000000000000000020000000000000000000000000000000000000000000000000000000000008000000",
      "type": "0x2",
      "transactionHash": "0xd5718a8689a4bf89493ab98ca2087fd8e62f917c92e6323d05ade310bd898edd",
      "transactionIndex": "0x36",
      "blockHash": "0xc982ef8578718d4d72a3bfdcc0867ae955a7190aaaba0f4e98326cd10b824d71",
      "blockNumber": "0x92d525",
      "gasUsed": "0x8dd0",
      "effectiveGasPrice": "0xf510b",
      "from": "0xad9fdad276ab1a430fd03177a07350cd7c61e897",
      "to": "0x5dff81582252f3cbbfecdf04865309c2368e627e",
      "contractAddress": null
    },
    {
      "status": "0x1",
      "cumulativeGasUsed": "0xa0b65f",
      "logs": [
        {
          "address": "0x5dff81582252f3cbbfecdf04865309c2368e627e",
          "topics": [
            "0x9584f6127454ba5ccb46e9c599e679734a623e5d809597beb7842a3468478219",
            "0x0000000000000000000000000000000000000000000000000000000000000000"
          ],
          "data": "0x0000000000000000000000002c55ffaf0fb3a9ea7675524c3548e8d140b2ddfa000000000000000000000000db222cf577cf69675f537263c1e374f5ca52bbd90000000000000000000000000000000000000000000000000000000000000001",
          "blockHash": "0xc982ef8578718d4d72a3bfdcc0867ae955a7190aaaba0f4e98326cd10b824d71",
          "blockNumber": "0x92d525",
          "blockTimestamp": "0x69161688",
          "transactionHash": "0xa6dbf3e9d066a8c723b5432a1bcd8d5ce49c42fd5533205fe04c1f7ad5f466ee",
          "transactionIndex": "0x37",
          "logIndex": "0x90",
          "removed": false
        }
      ],
      "logsBloom": "0x00000000000000000000000000000000000020000000000000000000000000000000000000000000000000000000000000000000000000000000000000000020000000000000000008080000000000000000000000000000000000000000000000000000020000000000000000000800000000000000000000000000200000000000000000000000000000000000000000000000000000000000000000000000000000000000000000000000000000000000000000000000000000000000000000000000000000000000000000000000000000000000000000000000000020000000000000000000000000000000000000000000000000000000000008000000",
      "type": "0x2",
      "transactionHash": "0xa6dbf3e9d066a8c723b5432a1bcd8d5ce49c42fd5533205fe04c1f7ad5f466ee",
      "transactionIndex": "0x37",
      "blockHash": "0xc982ef8578718d4d72a3bfdcc0867ae955a7190aaaba0f4e98326cd10b824d71",
      "blockNumber": "0x92d525",
      "gasUsed": "0x9066",
      "effectiveGasPrice": "0xf510b",
      "from": "0xad9fdad276ab1a430fd03177a07350cd7c61e897",
      "to": "0x5dff81582252f3cbbfecdf04865309c2368e627e",
      "contractAddress": null
    }
  ],
  "libraries": [],
  "pending": [],
  "returns": {},
  "timestamp": 1763055240864,
  "chain": 11155111,
  "commit": "0886bee"
}