{
  "transactions": [
    {
      "hash": "0x5412b5c3ce1289699189d1cb0849c935bc4718167d469215511d59051da9b926",
      "transactionType": "CALL",
      "contractName": null,
      "contractAddress": "0x6d06326e2f4de63760339012666beefe191eba67",
      "function": "setAggregator(address)",
      "arguments": [
        "0xB14732958d8bC1cC974920e976Ec0DE3d014EE24"
      ],
      "transaction": {
        "from": "0xad9fdad276ab1a430fd03177a07350cd7c61e897",
        "to": "0x6d06326e2f4de63760339012666beefe191eba67",
        "gas": "0xda7c",
        "value": "0x0",
        "input": "0xf9120af6000000000000000000000000b14732958d8bc1cc974920e976ec0de3d014ee24",
        "nonce": "0x11",
        "chainId": "0xaa37dc"
      },
      "additionalContracts": [],
      "isFixedGasLimit": false
    },
    {
      "hash": "0x8837f9bf7978ecc0fcc7ebeb58cdd0e1336bb4ac07f46136fa9f71c1cf07ce37",
      "transactionType": "CALL",
      "contractName": null,
      "contractAddress": "0x6d06326e2f4de63760339012666beefe191eba67",
      "function": "addEligibleAsset(address,uint256)",
      "arguments": [
        "0xc3032d5E67C8A67C9745943929F8DFf2410Dd9A1",
        "100000"
      ],
      "transaction": {
        "from": "0xad9fdad276ab1a430fd03177a07350cd7c61e897",
        "to": "0x6d06326e2f4de63760339012666beefe191eba67",
        "gas": "0xa6e5",
        "value": "0x0",
        "input": "0x642c8148000000000000000000000000c3032d5e67c8a67c9745943929f8dff2410dd9a100000000000000000000000000000000000000000000000000000000000186a0",
        "nonce": "0x12",
        "chainId": "0xaa37dc"
      },
      "additionalContracts": [],
      "isFixedGasLimit": false
    },
    {
      "hash": "0xe778346dd11400cf01e4a554ca3fdf3ccf5d67a32697a055084bee8639419321",
      "transactionType": "CALL",
      "contractName": null,
      "contractAddress": "0x6d06326e2f4de63760339012666beefe191eba67",
      "function": "addEligibleAsset(address,uint256)",
      "arguments": [
        "0x7EDBF92B00CB680cC083A65aD3348f40ab886FB8",
        "10000"
      ],
      "transaction": {
        "from": "0xad9fdad276ab1a430fd03177a07350cd7c61e897",
        "to": "0x6d06326e2f4de63760339012666beefe191eba67",
        "gas": "0xa6c4",
        "value": "0x0",
        "input": "0x642c81480000000000000000000000007edbf92b00cb680cc083a65ad3348f40ab886fb80000000000000000000000000000000000000000000000000000000000002710",
        "nonce": "0x13",
        "chainId": "0xaa37dc"
      },
      "additionalContracts": [],
      "isFixedGasLimit": false
    },
    {
      "hash": "0xed051f13cd1e46235f82f310bf0a9b59fd42a6c81b626fab38f11d1433974529",
      "transactionType": "CALL",
      "contractName": null,
      "contractAddress": "0x6d06326e2f4de63760339012666beefe191eba67",
      "function": "addEligibleAssetWithDecimals(address,uint256,uint8)",
      "arguments": [
        "0x83F7D8c70F0D4730Bbc914d76700e9D0FFcee027",
        "1",
        "18"
      ],
      "transaction": {
        "from": "0xad9fdad276ab1a430fd03177a07350cd7c61e897",
        "to": "0x6d06326e2f4de63760339012666beefe191eba67",
        "gas": "0xa84b",
        "value": "0x0",
        "input": "0x961a4e8e00000000000000000000000083f7d8c70f0d4730bbc914d76700e9d0ffcee02700000000000000000000000000000000000000000000000000000000000000010000000000000000000000000000000000000000000000000000000000000012",
        "nonce": "0x14",
        "chainId": "0xaa37dc"
      },
      "additionalContracts": [],
      "isFixedGasLimit": false
    },
    {
      "hash": "0x5e38f7e66985f28900cedb459f94b3ea043ffcf88743d8b114099a8127fe0aff",
      "transactionType": "CALL",
      "contractName": null,
      "contractAddress": "0xc3032d5e67c8a67c9745943929f8dff2410dd9a1",
      "function": "setApprovalForAll(address,bool)",
      "arguments": [
        "0x6d06326e2F4De63760339012666BeeFe191eBA67",
        "true"
      ],
      "transaction": {
        "from": "0xad9fdad276ab1a430fd03177a07350cd7c61e897",
        "to": "0xc3032d5e67c8a67c9745943929f8dff2410dd9a1",
        "gas": "0x8dd1",
        "value": "0x0",
        "input": "0xa22cb4650000000000000000000000006d06326e2f4de63760339012666beefe191eba670000000000000000000000000000000000000000000000000000000000000001",
        "nonce": "0x15",
        "chainId": "0xaa37dc"
      },
      "additionalContracts": [],
      "isFixedGasLimit": false
    },
    {
      "hash": "0x4f13632f83ccdef964a25a201bf6044b8eac53f7936b3692250827602cd9e95c",
      "transactionType": "CALL",
      "contractName": null,
      "contractAddress": "0x7edbf92b00cb680cc083a65ad3348f40ab886fb8",
      "function": "setApprovalForAll(address,bool)",
      "arguments": [
        "0x6d06326e2F4De63760339012666BeeFe191eBA67",
        "true"
      ],
      "transaction": {
        "from": "0xad9fdad276ab1a430fd03177a07350cd7c61e897",
        "to": "0x7edbf92b00cb680cc083a65ad3348f40ab886fb8",
        "gas": "0x8dbc",
        "value": "0x0",
        "input": "0xa22cb4650000000000000000000000006d06326e2f4de63760339012666beefe191eba670000000000000000000000000000000000000000000000000000000000000001",
        "nonce": "0x16",
        "chainId": "0xaa37dc"
      },
      "additionalContracts": [],
      "isFixedGasLimit": false
    },
    {
      "hash": "0x9c3ebabb6372153851b13afe8b119f7dc0ff6f6c52191f56b9af6a606c34c363",
      "transactionType": "CALL",
      "contractName": null,
      "contractAddress": "0x83f7d8c70f0d4730bbc914d76700e9d0ffcee027",
      "function": "approve(address,uint256)",
      "arguments": [
        "0x6d06326e2F4De63760339012666BeeFe191eBA67",
        "115792089237316195423570985008687907853269984665640564039457584007913129639935"
      ],
      "transaction": {
        "from": "0xad9fdad276ab1a430fd03177a07350cd7c61e897",
        "to": "0x83f7d8c70f0d4730bbc914d76700e9d0ffcee027",
        "gas": "0x96a4",
        "value": "0x0",
        "input": "0x095ea7b30000000000000000000000006d06326e2f4de63760339012666beefe191eba67ffffffffffffffffffffffffffffffffffffffffffffffffffffffffffffffff",
        "nonce": "0x17",
        "chainId": "0xaa37dc"
      },
      "additionalContracts": [],
      "isFixedGasLimit": false
    }
  ],
  "receipts": [
    {
      "status": "0x1",
      "cumulativeGasUsed": "0x1524b",
      "logs": [
        {
          "address": "0x6d06326e2f4de63760339012666beefe191eba67",
          "topics": [
            "0x0058c9ee143474eec3c16cadb81dc9027a47f6dfbf636c4684d8472bc957b766"
          ],
          "data": "0x0000000000000000000000006edce65403992e310a62460808c4b910d972f10f0000000000000000000000000000000000000000000000000000000000009ce1000000000000000000000000b14732958d8bc1cc974920e976ec0de3d014ee2400000000000000000000000000000000000000000000000000000000000000800000000000000000000000000000000000000000000000000000000000000022000100000000000000000000000000000000000000000000000000000000000493e0000000000000000000000000000000000000000000000000000000000000",
          "blockHash": "0xdd8af1b0d5743db72c7f4eb7252378fd5a32a1d66a51d6f0455d031bd80b37af",
          "blockNumber": "0x2187aaa",
          "blockTimestamp": "0x6907d100",
          "transactionHash": "0x5412b5c3ce1289699189d1cb0849c935bc4718167d469215511d59051da9b926",
          "transactionIndex": "0x1",
          "logIndex": "0x0",
          "removed": false
        }
      ],
      "logsBloom": "0x00000000000001000000000000000000000000000000000000000000000000000000080000000000000000000001000000000000000000000000000000000000000000000000000000000000000000000000000000000000000000000000000000000000000000000000000000000000000000000000000000000000000010000000000000000000400000000000000000000000000000000000000020000000000000000000000000000000000000000000000000000000000000000000000000000000000000000000000000000000000000000000000000000000000000000000000000000000000000000000000000000000000000000000000000000000",
      "type": "0x0",
      "transactionHash": "0x5412b5c3ce1289699189d1cb0849c935bc4718167d469215511d59051da9b926",
      "transactionIndex": "0x1",
      "blockHash": "0xdd8af1b0d5743db72c7f4eb7252378fd5a32a1d66a51d6f0455d031bd80b37af",
      "blockNumber": "0x2187aaa",
      "gasUsed": "0x9e2f",
      "effectiveGasPrice": "0xf433a",
      "from": "0xad9fdad276ab1a430fd03177a07350cd7c61e897",
      "to": "0x6d06326e2f4de63760339012666beefe191eba67",
      "contractAddress": null,
      "l1BaseFeeScalar": "0x1db0",
      "l1BlobBaseFee": "0x1",
      "l1BlobBaseFeeScalar": "0xd2730",
      "l1Fee": "0xb7",
      "l1GasPrice": "0x8",
      "l1GasUsed": "0x640"
    },
    {
      "status": "0x1",
      "cumulativeGasUsed": "0x1cb20",
      "logs": [],
      "logsBloom": "0x00000000000000000000000000000000000000000000000000000000000000000000000000000000000000000000000000000000000000000000000000000000000000000000000000000000000000000000000000000000000000000000000000000000000000000000000000000000000000000000000000000000000000000000000000000000000000000000000000000000000000000000000000000000000000000000000000000000000000000000000000000000000000000000000000000000000000000000000000000000000000000000000000000000000000000000000000000000000000000000000000000000000000000000000000000000",
      "type": "0x0",
      "transactionHash": "0x8837f9bf7978ecc0fcc7ebeb58cdd0e1336bb4ac07f46136fa9f71c1cf07ce37",
      "transactionIndex": "0x2",
      "blockHash": "0xdd8af1b0d5743db72c7f4eb7252378fd5a32a1d66a51d6f0455d031bd80b37af",
      "blockNumber": "0x2187aaa",
      "gasUsed": "0x78d5",
      "effectiveGasPrice": "0xf433a",
      "from": "0xad9fdad276ab1a430fd03177a07350cd7c61e897",
      "to": "0x6d06326e2f4de63760339012666beefe191eba67",
      "contractAddress": null,
      "l1BaseFeeScalar": "0x1db0",
      "l1BlobBaseFee": "0x1",
      "l1BlobBaseFeeScalar": "0xd2730",
      "l1Fee": "0xb7",
      "l1GasPrice": "0x8",
      "l1GasUsed": "0x640"
    },
    {
      "status": "0x1",
      "cumulativeGasUsed": "0x243dd",
      "logs": [],
      "logsBloom": "0x00000000000000000000000000000000000000000000000000000000000000000000000000000000000000000000000000000000000000000000000000000000000000000000000000000000000000000000000000000000000000000000000000000000000000000000000000000000000000000000000000000000000000000000000000000000000000000000000000000000000000000000000000000000000000000000000000000000000000000000000000000000000000000000000000000000000000000000000000000000000000000000000000000000000000000000000000000000000000000000000000000000000000000000000000000000",
      "type": "0x0",
      "transactionHash": "0xe778346dd11400cf01e4a554ca3fdf3ccf5d67a32697a055084bee8639419321",
      "transactionIndex": "0x3",
      "blockHash": "0xdd8af1b0d5743db72c7f4eb7252378fd5a32a1d66a51d6f0455d031bd80b37af",
      "blockNumber": "0x2187aaa",
      "gasUsed": "0x78bd",
      "effectiveGasPrice": "0xf433a",
      "from": "0xad9fdad276ab1a430fd03177a07350cd7c61e897",
      "to": "0x6d06326e2f4de63760339012666beefe191eba67",
      "contractAddress": null,
      "l1BaseFeeScalar": "0x1db0",
      "l1BlobBaseFee": "0x1",
      "l1BlobBaseFeeScalar": "0xd2730",
      "l1Fee": "0xb7",
      "l1GasPrice": "0x8",
      "l1GasUsed": "0x640"
    },
    {
      "status": "0x1",
      "cumulativeGasUsed": "0x2bdb5",
      "logs": [],
      "logsBloom": "0x00000000000000000000000000000000000000000000000000000000000000000000000000000000000000000000000000000000000000000000000000000000000000000000000000000000000000000000000000000000000000000000000000000000000000000000000000000000000000000000000000000000000000000000000000000000000000000000000000000000000000000000000000000000000000000000000000000000000000000000000000000000000000000000000000000000000000000000000000000000000000000000000000000000000000000000000000000000000000000000000000000000000000000000000000000000",
      "type": "0x0",
      "transactionHash": "0xed051f13cd1e46235f82f310bf0a9b59fd42a6c81b626fab38f11d1433974529",
      "transactionIndex": "0x4",
      "blockHash": "0xdd8af1b0d5743db72c7f4eb7252378fd5a32a1d66a51d6f0455d031bd80b37af",
      "blockNumber": "0x2187aaa",
      "gasUsed": "0x79d8",
      "effectiveGasPrice": "0xf433a",
      "from": "0xad9fdad276ab1a430fd03177a07350cd7c61e897",
      "to": "0x6d06326e2f4de63760339012666beefe191eba67",
      "contractAddress": null,
      "l1BaseFeeScalar": "0x1db0",
      "l1BlobBaseFee": "0x1",
      "l1BlobBaseFeeScalar": "0xd2730",
      "l1Fee": "0xb7",
      "l1GasPrice": "0x8",
      "l1GasUsed": "0x640"
    },
    {
      "status": "0x1",
      "cumulativeGasUsed": "0x32462",
      "logs": [
        {
          "address": "0xc3032d5e67c8a67c9745943929f8dff2410dd9a1",
          "topics": [
            "0x17307eab39ab6107e8899845ad3d59bd9653f200f220920489ca2b5937696c31",
            "0x000000000000000000000000ad9fdad276ab1a430fd03177a07350cd7c61e897",
            "0x0000000000000000000000006d06326e2f4de63760339012666beefe191eba67"
          ],
          "data": "0x0000000000000000000000000000000000000000000000000000000000000001",
          "blockHash": "0xdd8af1b0d5743db72c7f4eb7252378fd5a32a1d66a51d6f0455d031bd80b37af",
          "blockNumber": "0x2187aaa",
          "blockTimestamp": "0x6907d100",
          "transactionHash": "0x5e38f7e66985f28900cedb459f94b3ea043ffcf88743d8b114099a8127fe0aff",
          "transactionIndex": "0x5",
          "logIndex": "0x1",
          "removed": false
        }
      ],
      "logsBloom": "0x00000000000000000000000000000000000000000000000000000000002000000000000000000000000000000000000000000000000000000000000000000000000000000000004000000000000000080000000000000000000000000000000002000000000000000000000000000000000000000000000000000000000000000000080000000040000000000000000000000000000000000200000000000080000010000000000000000000000000000000000000000000000000000000000000000000000000000000000000400000000000000000000000000000000000000000200800000000000000000000000000000000000000000000000000000000",
      "type": "0x0",
      "transactionHash": "0x5e38f7e66985f28900cedb459f94b3ea043ffcf88743d8b114099a8127fe0aff",
      "transactionIndex": "0x5",
      "blockHash": "0xdd8af1b0d5743db72c7f4eb7252378fd5a32a1d66a51d6f0455d031bd80b37af",
      "blockNumber": "0x2187aaa",
      "gasUsed": "0x66ad",
      "effectiveGasPrice": "0xf433a",
      "from": "0xad9fdad276ab1a430fd03177a07350cd7c61e897",
      "to": "0xc3032d5e67c8a67c9745943929f8dff2410dd9a1",
      "contractAddress": null,
      "l1BaseFeeScalar": "0x1db0",
      "l1BlobBaseFee": "0x1",
      "l1BlobBaseFeeScalar": "0xd2730",
      "l1Fee": "0xb7",
      "l1GasPrice": "0x8",
      "l1GasUsed": "0x640"
    },
    {
      "status": "0x1",
      "cumulativeGasUsed": "0x38b00",
      "logs": [
        {
          "address": "0x7edbf92b00cb680cc083a65ad3348f40ab886fb8",
          "topics": [
            "0x17307eab39ab6107e8899845ad3d59bd9653f200f220920489ca2b5937696c31",
            "0x000000000000000000000000ad9fdad276ab1a430fd03177a07350cd7c61e897",
            "0x0000000000000000000000006d06326e2f4de63760339012666beefe191eba67"
          ],
          "data": "0x0000000000000000000000000000000000000000000000000000000000000001",
          "blockHash": "0xdd8af1b0d5743db72c7f4eb7252378fd5a32a1d66a51d6f0455d031bd80b37af",
          "blockNumber": "0x2187aaa",
          "blockTimestamp": "0x6907d100",
          "transactionHash": "0x4f13632f83ccdef964a25a201bf6044b8eac53f7936b3692250827602cd9e95c",
          "transactionIndex": "0x6",
          "logIndex": "0x2",
          "removed": false
        }
      ],
      "logsBloom": "0x00000000000000000000000000000000000000000000000000000000002000000000000000000000000000000000000000000000000000000000000000000000000000000000004000000000000000000000000000000000000000000000040002000000000000000000000000000000000002000000000000000000000000000000080000000040000000000000000000000000000000000200000000000000000010000000000000000000000000000000000000000000000000000000000000000000000000000000000000000000000000008000000000000000000000000000200800000000000000000000000000000000000000000000000000000000",
      "type": "0x0",
      "transactionHash": "0x4f13632f83ccdef964a25a201bf6044b8eac53f7936b3692250827602cd9e95c",
      "transactionIndex": "0x6",
      "blockHash": "0xdd8af1b0d5743db72c7f4eb7252378fd5a32a1d66a51d6f0455d031bd80b37af",
      "blockNumber": "0x2187aaa",
      "gasUsed": "0x669e",
      "effectiveGasPrice": "0xf433a",
      "from": "0xad9fdad276ab1a430fd03177a07350cd7c61e897",
      "to": "0x7edbf92b00cb680cc083a65ad3348f40ab886fb8",
      "contractAddress": null,
      "l1BaseFeeScalar": "0x1db0",
      "l1BlobBaseFee": "0x1",
      "l1BlobBaseFeeScalar": "0xd2730",
      "l1Fee": "0xb7",
      "l1GasPrice": "0x8",
      "l1GasUsed": "0x640"
    },
    {
      "status": "0x1",
      "cumulativeGasUsed": "0x3f201",
      "logs": [
        {
          "address": "0x83f7d8c70f0d4730bbc914d76700e9d0ffcee027",
          "topics": [
            "0x8c5be1e5ebec7d5bd14f71427d1e84f3dd0314c0f7b2291e5b200ac8c7c3b925",
            "0x000000000000000000000000ad9fdad276ab1a430fd03177a07350cd7c61e897",
            "0x0000000000000000000000006d06326e2f4de63760339012666beefe191eba67"
          ],
          "data": "0xffffffffffffffffffffffffffffffffffffffffffffffffffffffffffffffff",
          "blockHash": "0xdd8af1b0d5743db72c7f4eb7252378fd5a32a1d66a51d6f0455d031bd80b37af",
          "blockNumber": "0x2187aaa",
          "blockTimestamp": "0x6907d100",
          "transactionHash": "0x9c3ebabb6372153851b13afe8b119f7dc0ff6f6c52191f56b9af6a606c34c363",
          "transactionIndex": "0x7",
          "logIndex": "0x3",
          "removed": false
        }
      ],
      "logsBloom": "0x00000000000000000000000000000000000000000000000000000000002000000000000000000000000000000000000000000000000000000000000000200080000000000000004000000000000000000000000000000000000000000000000000000000000000000000000000000000000000000000000000000000000000000000080000000040000000000000000000000000000000000200000000000000020010000000000000001000000000000000000000000000000000000000000000000000000000000000000000000000000000000000000000000080000000000010000000000000000000000000000000000000000000000000000000000000",
      "type": "0x0",
      "transactionHash": "0x9c3ebabb6372153851b13afe8b119f7dc0ff6f6c52191f56b9af6a606c34c363",
      "transactionIndex": "0x7",
      "blockHash": "0xdd8af1b0d5743db72c7f4eb7252378fd5a32a1d66a51d6f0455d031bd80b37af",
      "blockNumber": "0x2187aaa",
      "gasUsed": "0x6701",
      "effectiveGasPrice": "0xf433a",
      "from": "0xad9fdad276ab1a430fd03177a07350cd7c61e897",
      "to": "0x83f7d8c70f0d4730bbc914d76700e9d0ffcee027",
      "contractAddress": null,
      "l1BaseFeeScalar": "0x1db0",
      "l1BlobBaseFee": "0x1",
      "l1BlobBaseFeeScalar": "0xd2730",
      "l1Fee": "0xb7",
      "l1GasPrice": "0x8",
      "l1GasUsed": "0x640"
    }
  ],
  "libraries": [],
  "pending": [],
  "returns": {},
  "timestamp": 1762119934630,
  "chain": 11155420,
  "commit": "c03d2ed"
}