{
  "transactions": [
    {
      "hash": "0x26234bb90ad910ab489fc43eb7c56ebc8e9e4543dfceef9b420fc242932911c4",
      "transactionType": "CALL",
      "contractName": null,
      "contractAddress": "0xad829434704378aeb800bb1cf9ab28efc67d70b7",
      "function": "mint(address,uint32)",
      "arguments": [
        "0xAd9fDaD276AB1A430fD03177A07350CD7C61E897",
        "0"
      ],
      "transaction": {
        "from": "0xad9fdad276ab1a430fd03177a07350cd7c61e897",
        "to": "0xad829434704378aeb800bb1cf9ab28efc67d70b7",
        "gas": "0x28561",
        "value": "0x0",
        "input": "0xd35e29d7000000000000000000000000ad9fdad276ab1a430fd03177a07350cd7c61e8970000000000000000000000000000000000000000000000000000000000000000",
        "nonce": "0x493",
        "chainId": "0xaa36a7"
      },
      "additionalContracts": [],
      "isFixedGasLimit": false
    },
    {
      "hash": "0x2e2821a8395d692bbc387c98e581365db5d1424276d0cc45e155302861e17919",
      "transactionType": "CALL",
      "contractName": null,
      "contractAddress": "0xad829434704378aeb800bb1cf9ab28efc67d70b7",
      "function": "mint(address,uint32)",
      "arguments": [
        "0xAd9fDaD276AB1A430fD03177A07350CD7C61E897",
        "0"
      ],
      "transaction": {
        "from": "0xad9fdad276ab1a430fd03177a07350cd7c61e897",
        "to": "0xad829434704378aeb800bb1cf9ab28efc67d70b7",
        "gas": "0x259a6",
        "value": "0x0",
        "input": "0xd35e29d7000000000000000000000000ad9fdad276ab1a430fd03177a07350cd7c61e8970000000000000000000000000000000000000000000000000000000000000000",
        "nonce": "0x494",
        "chainId": "0xaa36a7"
      },
      "additionalContracts": [],
      "isFixedGasLimit": false
    },
    {
      "hash": "0xcac3e28bd453bed8f62df4f21d7f481984a4db21d7efc375d7ba086f81571c31",
      "transactionType": "CALL",
      "contractName": null,
      "contractAddress": "0xad829434704378aeb800bb1cf9ab28efc67d70b7",
      "function": "mint(address,uint32)",
      "arguments": [
        "0xAd9fDaD276AB1A430fD03177A07350CD7C61E897",
        "0"
      ],
      "transaction": {
        "from": "0xad9fdad276ab1a430fd03177a07350cd7c61e897",
        "to": "0xad829434704378aeb800bb1cf9ab28efc67d70b7",
        "gas": "0x259a6",
        "value": "0x0",
        "input": "0xd35e29d7000000000000000000000000ad9fdad276ab1a430fd03177a07350cd7c61e8970000000000000000000000000000000000000000000000000000000000000000",
        "nonce": "0x495",
        "chainId": "0xaa36a7"
      },
      "additionalContracts": [],
      "isFixedGasLimit": false
    },
    {
      "hash": "0xfec41ffc11466b1f4c3db574110b96449e64a71893ea7212ee95d75abc5d42dd",
      "transactionType": "CALL",
      "contractName": null,
      "contractAddress": "0xad829434704378aeb800bb1cf9ab28efc67d70b7",
      "function": "mint(address,uint32)",
      "arguments": [
        "0xAd9fDaD276AB1A430fD03177A07350CD7C61E897",
        "0"
      ],
      "transaction": {
        "from": "0xad9fdad276ab1a430fd03177a07350cd7c61e897",
        "to": "0xad829434704378aeb800bb1cf9ab28efc67d70b7",
        "gas": "0x259a6",
        "value": "0x0",
        "input": "0xd35e29d7000000000000000000000000ad9fdad276ab1a430fd03177a07350cd7c61e8970000000000000000000000000000000000000000000000000000000000000000",
        "nonce": "0x496",
        "chainId": "0xaa36a7"
      },
      "additionalContracts": [],
      "isFixedGasLimit": false
    },
    {
      "hash": "0x4504ebdf36413f2446aa7215ca8d47ada344631fe67733e362fe9b48759f0471",
      "transactionType": "CALL",
      "contractName": null,
      "contractAddress": "0xad829434704378aeb800bb1cf9ab28efc67d70b7",
      "function": "mint(address,uint32)",
      "arguments": [
        "0xAd9fDaD276AB1A430fD03177A07350CD7C61E897",
        "0"
      ],
      "transaction": {
        "from": "0xad9fdad276ab1a430fd03177a07350cd7c61e897",
        "to": "0xad829434704378aeb800bb1cf9ab28efc67d70b7",
        "gas": "0x259a6",
        "value": "0x0",
        "input": "0xd35e29d7000000000000000000000000ad9fdad276ab1a430fd03177a07350cd7c61e8970000000000000000000000000000000000000000000000000000000000000000",
        "nonce": "0x497",
        "chainId": "0xaa36a7"
      },
      "additionalContracts": [],
      "isFixedGasLimit": false
    },
    {
      "hash": "0xea0153d5421e77ed489593f4cedc594254fd9569c801fb111d5df757f1602784",
      "transactionType": "CALL",
      "contractName": null,
      "contractAddress": "0xad829434704378aeb800bb1cf9ab28efc67d70b7",
      "function": "mint(address,uint32)",
      "arguments": [
        "0xAd9fDaD276AB1A430fD03177A07350CD7C61E897",
        "0"
      ],
      "transaction": {
        "from": "0xad9fdad276ab1a430fd03177a07350cd7c61e897",
        "to": "0xad829434704378aeb800bb1cf9ab28efc67d70b7",
        "gas": "0x259a6",
        "value": "0x0",
        "input": "0xd35e29d7000000000000000000000000ad9fdad276ab1a430fd03177a07350cd7c61e8970000000000000000000000000000000000000000000000000000000000000000",
        "nonce": "0x498",
        "chainId": "0xaa36a7"
      },
      "additionalContracts": [],
      "isFixedGasLimit": false
    },
    {
      "hash": "0x484d589ec0a8eacdd15110de7fd30362f541dbb9e62f63495bae3b8a73d07f21",
      "transactionType": "CALL",
      "contractName": null,
      "contractAddress": "0xad829434704378aeb800bb1cf9ab28efc67d70b7",
      "function": "mint(address,uint32)",
      "arguments": [
        "0xAd9fDaD276AB1A430fD03177A07350CD7C61E897",
        "0"
      ],
      "transaction": {
        "from": "0xad9fdad276ab1a430fd03177a07350cd7c61e897",
        "to": "0xad829434704378aeb800bb1cf9ab28efc67d70b7",
        "gas": "0x259a6",
        "value": "0x0",
        "input": "0xd35e29d7000000000000000000000000ad9fdad276ab1a430fd03177a07350cd7c61e8970000000000000000000000000000000000000000000000000000000000000000",
        "nonce": "0x499",
        "chainId": "0xaa36a7"
      },
      "additionalContracts": [],
      "isFixedGasLimit": false
    },
    {
      "hash": "0x22617f3c7d68f29426ec84e4f67871112f07cc29aff005f4826097c7eebd2e2b",
      "transactionType": "CALL",
      "contractName": null,
      "contractAddress": "0xad829434704378aeb800bb1cf9ab28efc67d70b7",
      "function": "mint(address,uint32)",
      "arguments": [
        "0xAd9fDaD276AB1A430fD03177A07350CD7C61E897",
        "0"
      ],
      "transaction": {
        "from": "0xad9fdad276ab1a430fd03177a07350cd7c61e897",
        "to": "0xad829434704378aeb800bb1cf9ab28efc67d70b7",
        "gas": "0x259a6",
        "value": "0x0",
        "input": "0xd35e29d7000000000000000000000000ad9fdad276ab1a430fd03177a07350cd7c61e8970000000000000000000000000000000000000000000000000000000000000000",
        "nonce": "0x49a",
        "chainId": "0xaa36a7"
      },
      "additionalContracts": [],
      "isFixedGasLimit": false
    },
    {
      "hash": "0xbcc672541594e05e0faec972e3fba75deda28e8366bc4fd3dea2d5dd658d084e",
      "transactionType": "CALL",
      "contractName": null,
      "contractAddress": "0xad829434704378aeb800bb1cf9ab28efc67d70b7",
      "function": "mint(address,uint32)",
      "arguments": [
        "0xAd9fDaD276AB1A430fD03177A07350CD7C61E897",
        "0"
      ],
      "transaction": {
        "from": "0xad9fdad276ab1a430fd03177a07350cd7c61e897",
        "to": "0xad829434704378aeb800bb1cf9ab28efc67d70b7",
        "gas": "0x259a6",
        "value": "0x0",
        "input": "0xd35e29d7000000000000000000000000ad9fdad276ab1a430fd03177a07350cd7c61e8970000000000000000000000000000000000000000000000000000000000000000",
        "nonce": "0x49b",
        "chainId": "0xaa36a7"
      },
      "additionalContracts": [],
      "isFixedGasLimit": false
    },
    {
      "hash": "0xb7588901246f6f3ad05ced0c6f1e01ac9a93a55485f3ad964b4ddda41abf342f",
      "transactionType": "CALL",
      "contractName": null,
      "contractAddress": "0xad829434704378aeb800bb1cf9ab28efc67d70b7",
      "function": "mint(address,uint32)",
      "arguments": [
        "0xAd9fDaD276AB1A430fD03177A07350CD7C61E897",
        "0"
      ],
      "transaction": {
        "from": "0xad9fdad276ab1a430fd03177a07350cd7c61e897",
        "to": "0xad829434704378aeb800bb1cf9ab28efc67d70b7",
        "gas": "0x259a6",
        "value": "0x0",
        "input": "0xd35e29d7000000000000000000000000ad9fdad276ab1a430fd03177a07350cd7c61e8970000000000000000000000000000000000000000000000000000000000000000",
        "nonce": "0x49c",
        "chainId": "0xaa36a7"
      },
      "additionalContracts": [],
      "isFixedGasLimit": false
    },
    {
      "hash": "0xf39a6f9fbebcc84779d1698688c551e973b3e3177163847694760c0179e80310",
      "transactionType": "CALL",
      "contractName": null,
      "contractAddress": "0xad829434704378aeb800bb1cf9ab28efc67d70b7",
      "function": "mint(address,uint32)",
      "arguments": [
        "0xAd9fDaD276AB1A430fD03177A07350CD7C61E897",
        "0"
      ],
      "transaction": {
        "from": "0xad9fdad276ab1a430fd03177a07350cd7c61e897",
        "to": "0xad829434704378aeb800bb1cf9ab28efc67d70b7",
        "gas": "0x259a6",
        "value": "0x0",
        "input": "0xd35e29d7000000000000000000000000ad9fdad276ab1a430fd03177a07350cd7c61e8970000000000000000000000000000000000000000000000000000000000000000",
        "nonce": "0x49d",
        "chainId": "0xaa36a7"
      },
      "additionalContracts": [],
      "isFixedGasLimit": false
    },
    {
      "hash": "0x1f10de1d0949ca96278bb5fa113543596b2bf8996de260fcdfbfa3e74390425e",
      "transactionType": "CALL",
      "contractName": null,
      "contractAddress": "0xad829434704378aeb800bb1cf9ab28efc67d70b7",
      "function": "mint(address,uint32)",
      "arguments": [
        "0xAd9fDaD276AB1A430fD03177A07350CD7C61E897",
        "0"
      ],
      "transaction": {
        "from": "0xad9fdad276ab1a430fd03177a07350cd7c61e897",
        "to": "0xad829434704378aeb800bb1cf9ab28efc67d70b7",
        "gas": "0x259a6",
        "value": "0x0",
        "input": "0xd35e29d7000000000000000000000000ad9fdad276ab1a430fd03177a07350cd7c61e8970000000000000000000000000000000000000000000000000000000000000000",
        "nonce": "0x49e",
        "chainId": "0xaa36a7"
      },
      "additionalContracts": [],
      "isFixedGasLimit": false
    },
    {
      "hash": "0x591497bbd8e21e466dceb5e04e2c7f70271c5d6ea1a29e4f681cb525daed61ed",
      "transactionType": "CALL",
      "contractName": null,
      "contractAddress": "0xad829434704378aeb800bb1cf9ab28efc67d70b7",
      "function": "mint(address,uint32)",
      "arguments": [
        "0xAd9fDaD276AB1A430fD03177A07350CD7C61E897",
        "0"
      ],
      "transaction": {
        "from": "0xad9fdad276ab1a430fd03177a07350cd7c61e897",
        "to": "0xad829434704378aeb800bb1cf9ab28efc67d70b7",
        "gas": "0x259a6",
        "value": "0x0",
        "input": "0xd35e29d7000000000000000000000000ad9fdad276ab1a430fd03177a07350cd7c61e8970000000000000000000000000000000000000000000000000000000000000000",
        "nonce": "0x49f",
        "chainId": "0xaa36a7"
      },
      "additionalContracts": [],
      "isFixedGasLimit": false
    },
    {
      "hash": "0xccd7a1afae1354a01c3a7a7c4ba8c613a36d664cd8e8b756f364ea9b959a8a37",
      "transactionType": "CALL",
      "contractName": null,
      "contractAddress": "0xad829434704378aeb800bb1cf9ab28efc67d70b7",
      "function": "mint(address,uint32)",
      "arguments": [
        "0xAd9fDaD276AB1A430fD03177A07350CD7C61E897",
        "0"
      ],
      "transaction": {
        "from": "0xad9fdad276ab1a430fd03177a07350cd7c61e897",
        "to": "0xad829434704378aeb800bb1cf9ab28efc67d70b7",
        "gas": "0x259a6",
        "value": "0x0",
        "input": "0xd35e29d7000000000000000000000000ad9fdad276ab1a430fd03177a07350cd7c61e8970000000000000000000000000000000000000000000000000000000000000000",
        "nonce": "0x4a0",
        "chainId": "0xaa36a7"
      },
      "additionalContracts": [],
      "isFixedGasLimit": false
    },
    {
      "hash": "0x7f9d1e38c55fc6afb016b858e63804a989d90ee036eb10c21fb2b4d646ff2a2e",
      "transactionType": "CALL",
      "contractName": null,
      "contractAddress": "0xad829434704378aeb800bb1cf9ab28efc67d70b7",
      "function": "mint(address,uint32)",
      "arguments": [
        "0xAd9fDaD276AB1A430fD03177A07350CD7C61E897",
        "0"
      ],
      "transaction": {
        "from": "0xad9fdad276ab1a430fd03177a07350cd7c61e897",
        "to": "0xad829434704378aeb800bb1cf9ab28efc67d70b7",
        "gas": "0x259a6",
        "value": "0x0",
        "input": "0xd35e29d7000000000000000000000000ad9fdad276ab1a430fd03177a07350cd7c61e8970000000000000000000000000000000000000000000000000000000000000000",
        "nonce": "0x4a1",
        "chainId": "0xaa36a7"
      },
      "additionalContracts": [],
      "isFixedGasLimit": false
    },
    {
      "hash": "0x5301f2c9c098a952ee89a2dbbd4da9a959b78dc6c5b8e3e37c79d5da0989136f",
      "transactionType": "CALL",
      "contractName": null,
      "contractAddress": "0xad829434704378aeb800bb1cf9ab28efc67d70b7",
      "function": "mint(address,uint32)",
      "arguments": [
        "0xAd9fDaD276AB1A430fD03177A07350CD7C61E897",
        "0"
      ],
      "transaction": {
        "from": "0xad9fdad276ab1a430fd03177a07350cd7c61e897",
        "to": "0xad829434704378aeb800bb1cf9ab28efc67d70b7",
        "gas": "0x259a6",
        "value": "0x0",
        "input": "0xd35e29d7000000000000000000000000ad9fdad276ab1a430fd03177a07350cd7c61e8970000000000000000000000000000000000000000000000000000000000000000",
        "nonce": "0x4a2",
        "chainId": "0xaa36a7"
      },
      "additionalContracts": [],
      "isFixedGasLimit": false
    },
    {
      "hash": "0xd06381d2a780f2fe0dd3303039e3db658a0b277253dc82d1366e293cf3a1a00c",
      "transactionType": "CALL",
      "contractName": null,
      "contractAddress": "0xad829434704378aeb800bb1cf9ab28efc67d70b7",
      "function": "mint(address,uint32)",
      "arguments": [
        "0xAd9fDaD276AB1A430fD03177A07350CD7C61E897",
        "0"
      ],
      "transaction": {
        "from": "0xad9fdad276ab1a430fd03177a07350cd7c61e897",
        "to": "0xad829434704378aeb800bb1cf9ab28efc67d70b7",
        "gas": "0x259a6",
        "value": "0x0",
        "input": "0xd35e29d7000000000000000000000000ad9fdad276ab1a430fd03177a07350cd7c61e8970000000000000000000000000000000000000000000000000000000000000000",
        "nonce": "0x4a3",
        "chainId": "0xaa36a7"
      },
      "additionalContracts": [],
      "isFixedGasLimit": false
    },
    {
      "hash": "0x79f841a2aac0e3964e689d9ab805d6f0564899ec10e204595c2aa7ba7cf2e9d4",
      "transactionType": "CALL",
      "contractName": null,
      "contractAddress": "0xad829434704378aeb800bb1cf9ab28efc67d70b7",
      "function": "mint(address,uint32)",
      "arguments": [
        "0xAd9fDaD276AB1A430fD03177A07350CD7C61E897",
        "0"
      ],
      "transaction": {
        "from": "0xad9fdad276ab1a430fd03177a07350cd7c61e897",
        "to": "0xad829434704378aeb800bb1cf9ab28efc67d70b7",
        "gas": "0x259a6",
        "value": "0x0",
        "input": "0xd35e29d7000000000000000000000000ad9fdad276ab1a430fd03177a07350cd7c61e8970000000000000000000000000000000000000000000000000000000000000000",
        "nonce": "0x4a4",
        "chainId": "0xaa36a7"
      },
      "additionalContracts": [],
      "isFixedGasLimit": false
    },
    {
      "hash": "0x73f7c1fe8d1d7c4c42c12882b12c82de53b6cce367862c234f87932919c096f7",
      "transactionType": "CALL",
      "contractName": null,
      "contractAddress": "0xad829434704378aeb800bb1cf9ab28efc67d70b7",
      "function": "mint(address,uint32)",
      "arguments": [
        "0xAd9fDaD276AB1A430fD03177A07350CD7C61E897",
        "0"
      ],
      "transaction": {
        "from": "0xad9fdad276ab1a430fd03177a07350cd7c61e897",
        "to": "0xad829434704378aeb800bb1cf9ab28efc67d70b7",
        "gas": "0x259a6",
        "value": "0x0",
        "input": "0xd35e29d7000000000000000000000000ad9fdad276ab1a430fd03177a07350cd7c61e8970000000000000000000000000000000000000000000000000000000000000000",
        "nonce": "0x4a5",
        "chainId": "0xaa36a7"
      },
      "additionalContracts": [],
      "isFixedGasLimit": false
    },
    {
      "hash": "0xbdd2454840df1c0b74223f43244aa35f9b63c1ad3af4582dafa0574678d6b6d1",
      "transactionType": "CALL",
      "contractName": null,
      "contractAddress": "0xad829434704378aeb800bb1cf9ab28efc67d70b7",
      "function": "mint(address,uint32)",
      "arguments": [
        "0xAd9fDaD276AB1A430fD03177A07350CD7C61E897",
        "0"
      ],
      "transaction": {
        "from": "0xad9fdad276ab1a430fd03177a07350cd7c61e897",
        "to": "0xad829434704378aeb800bb1cf9ab28efc67d70b7",
        "gas": "0x259a6",
        "value": "0x0",
        "input": "0xd35e29d7000000000000000000000000ad9fdad276ab1a430fd03177a07350cd7c61e8970000000000000000000000000000000000000000000000000000000000000000",
        "nonce": "0x4a6",
        "chainId": "0xaa36a7"
      },
      "additionalContracts": [],
      "isFixedGasLimit": false
    },
    {
      "hash": "0x2d302df7a07183db61ba17b86bbae493940980f101eb51640358a79c65e00787",
      "transactionType": "CALL",
      "contractName": null,
      "contractAddress": "0xad829434704378aeb800bb1cf9ab28efc67d70b7",
      "function": "mint(address,uint32)",
      "arguments": [
        "0xAd9fDaD276AB1A430fD03177A07350CD7C61E897",
        "0"
      ],
      "transaction": {
        "from": "0xad9fdad276ab1a430fd03177a07350cd7c61e897",
        "to": "0xad829434704378aeb800bb1cf9ab28efc67d70b7",
        "gas": "0x259a6",
        "value": "0x0",
        "input": "0xd35e29d7000000000000000000000000ad9fdad276ab1a430fd03177a07350cd7c61e8970000000000000000000000000000000000000000000000000000000000000000",
        "nonce": "0x4a7",
        "chainId": "0xaa36a7"
      },
      "additionalContracts": [],
      "isFixedGasLimit": false
    },
    {
      "hash": "0xae3611d86d0f61f90f2468ada21045fc4bb874a033f6793b6e9cf4caa24c0498",
      "transactionType": "CALL",
      "contractName": null,
      "contractAddress": "0xad829434704378aeb800bb1cf9ab28efc67d70b7",
      "function": "mint(address,uint32)",
      "arguments": [
        "0xAd9fDaD276AB1A430fD03177A07350CD7C61E897",
        "0"
      ],
      "transaction": {
        "from": "0xad9fdad276ab1a430fd03177a07350cd7c61e897",
        "to": "0xad829434704378aeb800bb1cf9ab28efc67d70b7",
        "gas": "0x259a6",
        "value": "0x0",
        "input": "0xd35e29d7000000000000000000000000ad9fdad276ab1a430fd03177a07350cd7c61e8970000000000000000000000000000000000000000000000000000000000000000",
        "nonce": "0x4a8",
        "chainId": "0xaa36a7"
      },
      "additionalContracts": [],
      "isFixedGasLimit": false
    },
    {
      "hash": "0x0ac73c19f0ec439c10754d5272b99bb478c581d1d95153a9817304e639facb5c",
      "transactionType": "CALL",
      "contractName": null,
      "contractAddress": "0xad829434704378aeb800bb1cf9ab28efc67d70b7",
      "function": "mint(address,uint32)",
      "arguments": [
        "0xAd9fDaD276AB1A430fD03177A07350CD7C61E897",
        "0"
      ],
      "transaction": {
        "from": "0xad9fdad276ab1a430fd03177a07350cd7c61e897",
        "to": "0xad829434704378aeb800bb1cf9ab28efc67d70b7",
        "gas": "0x259a6",
        "value": "0x0",
        "input": "0xd35e29d7000000000000000000000000ad9fdad276ab1a430fd03177a07350cd7c61e8970000000000000000000000000000000000000000000000000000000000000000",
        "nonce": "0x4a9",
        "chainId": "0xaa36a7"
      },
      "additionalContracts": [],
      "isFixedGasLimit": false
    },
    {
      "hash": "0x8039428113500ca89c47282a61088afdd7de1619889b8960aa652b816c4bc274",
      "transactionType": "CALL",
      "contractName": null,
      "contractAddress": "0xad829434704378aeb800bb1cf9ab28efc67d70b7",
      "function": "mint(address,uint32)",
      "arguments": [
        "0xAd9fDaD276AB1A430fD03177A07350CD7C61E897",
        "0"
      ],
      "transaction": {
        "from": "0xad9fdad276ab1a430fd03177a07350cd7c61e897",
        "to": "0xad829434704378aeb800bb1cf9ab28efc67d70b7",
        "gas": "0x259a6",
        "value": "0x0",
        "input": "0xd35e29d7000000000000000000000000ad9fdad276ab1a430fd03177a07350cd7c61e8970000000000000000000000000000000000000000000000000000000000000000",
        "nonce": "0x4aa",
        "chainId": "0xaa36a7"
      },
      "additionalContracts": [],
      "isFixedGasLimit": false
    },
    {
      "hash": "0x6eab1981de3b053fc3b984e9fa000c3954d88f1db818247b13d6ae305b58a4fa",
      "transactionType": "CALL",
      "contractName": null,
      "contractAddress": "0xad829434704378aeb800bb1cf9ab28efc67d70b7",
      "function": "mint(address,uint32)",
      "arguments": [
        "0xAd9fDaD276AB1A430fD03177A07350CD7C61E897",
        "0"
      ],
      "transaction": {
        "from": "0xad9fdad276ab1a430fd03177a07350cd7c61e897",
        "to": "0xad829434704378aeb800bb1cf9ab28efc67d70b7",
        "gas": "0x259a6",
        "value": "0x0",
        "input": "0xd35e29d7000000000000000000000000ad9fdad276ab1a430fd03177a07350cd7c61e8970000000000000000000000000000000000000000000000000000000000000000",
        "nonce": "0x4ab",
        "chainId": "0xaa36a7"
      },
      "additionalContracts": [],
      "isFixedGasLimit": false
    },
    {
      "hash": "0xbce3fa6675a179c81eff97b4addfd17f61005f0f8608fd12f194d4e45399e647",
      "transactionType": "CALL",
      "contractName": null,
      "contractAddress": "0xad829434704378aeb800bb1cf9ab28efc67d70b7",
      "function": "mint(address,uint32)",
      "arguments": [
        "0xAd9fDaD276AB1A430fD03177A07350CD7C61E897",
        "0"
      ],
      "transaction": {
        "from": "0xad9fdad276ab1a430fd03177a07350cd7c61e897",
        "to": "0xad829434704378aeb800bb1cf9ab28efc67d70b7",
        "gas": "0x259a6",
        "value": "0x0",
        "input": "0xd35e29d7000000000000000000000000ad9fdad276ab1a430fd03177a07350cd7c61e8970000000000000000000000000000000000000000000000000000000000000000",
        "nonce": "0x4ac",
        "chainId": "0xaa36a7"
      },
      "additionalContracts": [],
      "isFixedGasLimit": false
    },
    {
      "hash": "0xa3c131523177c30fafdb45bec1fc29aece1ff58eafd1267f3035e7b371bbeeb2",
      "transactionType": "CALL",
      "contractName": null,
      "contractAddress": "0xad829434704378aeb800bb1cf9ab28efc67d70b7",
      "function": "mint(address,uint32)",
      "arguments": [
        "0xAd9fDaD276AB1A430fD03177A07350CD7C61E897",
        "0"
      ],
      "transaction": {
        "from": "0xad9fdad276ab1a430fd03177a07350cd7c61e897",
        "to": "0xad829434704378aeb800bb1cf9ab28efc67d70b7",
        "gas": "0x259a6",
        "value": "0x0",
        "input": "0xd35e29d7000000000000000000000000ad9fdad276ab1a430fd03177a07350cd7c61e8970000000000000000000000000000000000000000000000000000000000000000",
        "nonce": "0x4ad",
        "chainId": "0xaa36a7"
      },
      "additionalContracts": [],
      "isFixedGasLimit": false
    },
    {
      "hash": "0x593147c187e4ba5f5318c335a225eee3c7bb8fcafdafb0120ce016817e66721d",
      "transactionType": "CALL",
      "contractName": null,
      "contractAddress": "0xad829434704378aeb800bb1cf9ab28efc67d70b7",
      "function": "mint(address,uint32)",
      "arguments": [
        "0xAd9fDaD276AB1A430fD03177A07350CD7C61E897",
        "0"
      ],
      "transaction": {
        "from": "0xad9fdad276ab1a430fd03177a07350cd7c61e897",
        "to": "0xad829434704378aeb800bb1cf9ab28efc67d70b7",
        "gas": "0x259a6",
        "value": "0x0",
        "input": "0xd35e29d7000000000000000000000000ad9fdad276ab1a430fd03177a07350cd7c61e8970000000000000000000000000000000000000000000000000000000000000000",
        "nonce": "0x4ae",
        "chainId": "0xaa36a7"
      },
      "additionalContracts": [],
      "isFixedGasLimit": false
    },
    {
      "hash": "0x42d168d5b274445326a846d17e12ed8e7e78547b964e9b9e4d88721b166e6b10",
      "transactionType": "CALL",
      "contractName": null,
      "contractAddress": "0xad829434704378aeb800bb1cf9ab28efc67d70b7",
      "function": "mint(address,uint32)",
      "arguments": [
        "0xAd9fDaD276AB1A430fD03177A07350CD7C61E897",
        "0"
      ],
      "transaction": {
        "from": "0xad9fdad276ab1a430fd03177a07350cd7c61e897",
        "to": "0xad829434704378aeb800bb1cf9ab28efc67d70b7",
        "gas": "0x259a6",
        "value": "0x0",
        "input": "0xd35e29d7000000000000000000000000ad9fdad276ab1a430fd03177a07350cd7c61e8970000000000000000000000000000000000000000000000000000000000000000",
        "nonce": "0x4af",
        "chainId": "0xaa36a7"
      },
      "additionalContracts": [],
      "isFixedGasLimit": false
    },
    {
      "hash": "0x34a0aeebf7384d0944fe8f1e9fdc993e8f4b7c6cca45ade907da3253a76ebc9b",
      "transactionType": "CALL",
      "contractName": null,
      "contractAddress": "0xad829434704378aeb800bb1cf9ab28efc67d70b7",
      "function": "mint(address,uint32)",
      "arguments": [
        "0xAd9fDaD276AB1A430fD03177A07350CD7C61E897",
        "0"
      ],
      "transaction": {
        "from": "0xad9fdad276ab1a430fd03177a07350cd7c61e897",
        "to": "0xad829434704378aeb800bb1cf9ab28efc67d70b7",
        "gas": "0x259a6",
        "value": "0x0",
        "input": "0xd35e29d7000000000000000000000000ad9fdad276ab1a430fd03177a07350cd7c61e8970000000000000000000000000000000000000000000000000000000000000000",
        "nonce": "0x4b0",
        "chainId": "0xaa36a7"
      },
      "additionalContracts": [],
      "isFixedGasLimit": false
    },
    {
      "hash": "0x73549f8eb9bba720fe53260e969a45d07a7dbf21212a5a985c69efe429de7947",
      "transactionType": "CALL",
      "contractName": null,
      "contractAddress": "0xad829434704378aeb800bb1cf9ab28efc67d70b7",
      "function": "mint(address,uint32)",
      "arguments": [
        "0xAd9fDaD276AB1A430fD03177A07350CD7C61E897",
        "0"
      ],
      "transaction": {
        "from": "0xad9fdad276ab1a430fd03177a07350cd7c61e897",
        "to": "0xad829434704378aeb800bb1cf9ab28efc67d70b7",
        "gas": "0x259a6",
        "value": "0x0",
        "input": "0xd35e29d7000000000000000000000000ad9fdad276ab1a430fd03177a07350cd7c61e8970000000000000000000000000000000000000000000000000000000000000000",
        "nonce": "0x4b1",
        "chainId": "0xaa36a7"
      },
      "additionalContracts": [],
      "isFixedGasLimit": false
    },
    {
      "hash": "0xfd805a5b019edf06b1701aa2fabf25755f3d7e6ab78b99f8de37da2f58cd835b",
      "transactionType": "CALL",
      "contractName": null,
      "contractAddress": "0xad829434704378aeb800bb1cf9ab28efc67d70b7",
      "function": "mint(address,uint32)",
      "arguments": [
        "0xAd9fDaD276AB1A430fD03177A07350CD7C61E897",
        "0"
      ],
      "transaction": {
        "from": "0xad9fdad276ab1a430fd03177a07350cd7c61e897",
        "to": "0xad829434704378aeb800bb1cf9ab28efc67d70b7",
        "gas": "0x259a6",
        "value": "0x0",
        "input": "0xd35e29d7000000000000000000000000ad9fdad276ab1a430fd03177a07350cd7c61e8970000000000000000000000000000000000000000000000000000000000000000",
        "nonce": "0x4b2",
        "chainId": "0xaa36a7"
      },
      "additionalContracts": [],
      "isFixedGasLimit": false
    },
    {
      "hash": "0x807d26840a2a6d6bc145e6feed95e12afa2fe27bfde39a7748abc632d2377486",
      "transactionType": "CALL",
      "contractName": null,
      "contractAddress": "0xad829434704378aeb800bb1cf9ab28efc67d70b7",
      "function": "mint(address,uint32)",
      "arguments": [
        "0xAd9fDaD276AB1A430fD03177A07350CD7C61E897",
        "0"
      ],
      "transaction": {
        "from": "0xad9fdad276ab1a430fd03177a07350cd7c61e897",
        "to": "0xad829434704378aeb800bb1cf9ab28efc67d70b7",
        "gas": "0x259a6",
        "value": "0x0",
        "input": "0xd35e29d7000000000000000000000000ad9fdad276ab1a430fd03177a07350cd7c61e8970000000000000000000000000000000000000000000000000000000000000000",
        "nonce": "0x4b3",
        "chainId": "0xaa36a7"
      },
      "additionalContracts": [],
      "isFixedGasLimit": false
    },
    {
      "hash": "0x2e256408c99b0da81af2a851ba303fbe3251716b805390364e9c4f86c0ccea52",
      "transactionType": "CALL",
      "contractName": null,
      "contractAddress": "0xad829434704378aeb800bb1cf9ab28efc67d70b7",
      "function": "mint(address,uint32)",
      "arguments": [
        "0xAd9fDaD276AB1A430fD03177A07350CD7C61E897",
        "0"
      ],
      "transaction": {
        "from": "0xad9fdad276ab1a430fd03177a07350cd7c61e897",
        "to": "0xad829434704378aeb800bb1cf9ab28efc67d70b7",
        "gas": "0x259a6",
        "value": "0x0",
        "input": "0xd35e29d7000000000000000000000000ad9fdad276ab1a430fd03177a07350cd7c61e8970000000000000000000000000000000000000000000000000000000000000000",
        "nonce": "0x4b4",
        "chainId": "0xaa36a7"
      },
      "additionalContracts": [],
      "isFixedGasLimit": false
    },
    {
      "hash": "0xca1e74f3fc1962a986a9572038e30043f1e513e4306ad52956a6074aa513cf2b",
      "transactionType": "CALL",
      "contractName": null,
      "contractAddress": "0xad829434704378aeb800bb1cf9ab28efc67d70b7",
      "function": "mint(address,uint32)",
      "arguments": [
        "0xAd9fDaD276AB1A430fD03177A07350CD7C61E897",
        "0"
      ],
      "transaction": {
        "from": "0xad9fdad276ab1a430fd03177a07350cd7c61e897",
        "to": "0xad829434704378aeb800bb1cf9ab28efc67d70b7",
        "gas": "0x259a6",
        "value": "0x0",
        "input": "0xd35e29d7000000000000000000000000ad9fdad276ab1a430fd03177a07350cd7c61e8970000000000000000000000000000000000000000000000000000000000000000",
        "nonce": "0x4b5",
        "chainId": "0xaa36a7"
      },
      "additionalContracts": [],
      "isFixedGasLimit": false
    },
    {
      "hash": "0x93b83cf8a0759d7e19e4193ecd0354e0634b61583328a3a47a5bf129060da422",
      "transactionType": "CALL",
      "contractName": null,
      "contractAddress": "0xad829434704378aeb800bb1cf9ab28efc67d70b7",
      "function": "mint(address,uint32)",
      "arguments": [
        "0xAd9fDaD276AB1A430fD03177A07350CD7C61E897",
        "0"
      ],
      "transaction": {
        "from": "0xad9fdad276ab1a430fd03177a07350cd7c61e897",
        "to": "0xad829434704378aeb800bb1cf9ab28efc67d70b7",
        "gas": "0x259a6",
        "value": "0x0",
        "input": "0xd35e29d7000000000000000000000000ad9fdad276ab1a430fd03177a07350cd7c61e8970000000000000000000000000000000000000000000000000000000000000000",
        "nonce": "0x4b6",
        "chainId": "0xaa36a7"
      },
      "additionalContracts": [],
      "isFixedGasLimit": false
    },
    {
      "hash": "0x341f424b8a64c7a9b105892c9bf4ecd0e91e4bcef376b028c0d30d91e4d1b46c",
      "transactionType": "CALL",
      "contractName": null,
      "contractAddress": "0xad829434704378aeb800bb1cf9ab28efc67d70b7",
      "function": "mint(address,uint32)",
      "arguments": [
        "0xAd9fDaD276AB1A430fD03177A07350CD7C61E897",
        "0"
      ],
      "transaction": {
        "from": "0xad9fdad276ab1a430fd03177a07350cd7c61e897",
        "to": "0xad829434704378aeb800bb1cf9ab28efc67d70b7",
        "gas": "0x259a6",
        "value": "0x0",
        "input": "0xd35e29d7000000000000000000000000ad9fdad276ab1a430fd03177a07350cd7c61e8970000000000000000000000000000000000000000000000000000000000000000",
        "nonce": "0x4b7",
        "chainId": "0xaa36a7"
      },
      "additionalContracts": [],
      "isFixedGasLimit": false
    },
    {
      "hash": "0xac63c8ed2a8f4200c069136a864d2fc34d56a3080800b81832171e91ffb505a9",
      "transactionType": "CALL",
      "contractName": null,
      "contractAddress": "0xad829434704378aeb800bb1cf9ab28efc67d70b7",
      "function": "mint(address,uint32)",
      "arguments": [
        "0xAd9fDaD276AB1A430fD03177A07350CD7C61E897",
        "0"
      ],
      "transaction": {
        "from": "0xad9fdad276ab1a430fd03177a07350cd7c61e897",
        "to": "0xad829434704378aeb800bb1cf9ab28efc67d70b7",
        "gas": "0x259a6",
        "value": "0x0",
        "input": "0xd35e29d7000000000000000000000000ad9fdad276ab1a430fd03177a07350cd7c61e8970000000000000000000000000000000000000000000000000000000000000000",
        "nonce": "0x4b8",
        "chainId": "0xaa36a7"
      },
      "additionalContracts": [],
      "isFixedGasLimit": false
    },
    {
      "hash": "0xf5dc86657197489d9d99a1e08ac75a136d4093d6fce88d34220a7b91bc4caa3b",
      "transactionType": "CALL",
      "contractName": null,
      "contractAddress": "0xad829434704378aeb800bb1cf9ab28efc67d70b7",
      "function": "mint(address,uint32)",
      "arguments": [
        "0xAd9fDaD276AB1A430fD03177A07350CD7C61E897",
        "0"
      ],
      "transaction": {
        "from": "0xad9fdad276ab1a430fd03177a07350cd7c61e897",
        "to": "0xad829434704378aeb800bb1cf9ab28efc67d70b7",
        "gas": "0x259a6",
        "value": "0x0",
        "input": "0xd35e29d7000000000000000000000000ad9fdad276ab1a430fd03177a07350cd7c61e8970000000000000000000000000000000000000000000000000000000000000000",
        "nonce": "0x4b9",
        "chainId": "0xaa36a7"
      },
      "additionalContracts": [],
      "isFixedGasLimit": false
    },
    {
      "hash": "0xa04d5c642ccfef03e9400abc4746b1904ec202f64ba8f174f915eb02656c3a81",
      "transactionType": "CALL",
      "contractName": null,
      "contractAddress": "0xad829434704378aeb800bb1cf9ab28efc67d70b7",
      "function": "mint(address,uint32)",
      "arguments": [
        "0xAd9fDaD276AB1A430fD03177A07350CD7C61E897",
        "0"
      ],
      "transaction": {
        "from": "0xad9fdad276ab1a430fd03177a07350cd7c61e897",
        "to": "0xad829434704378aeb800bb1cf9ab28efc67d70b7",
        "gas": "0x259a6",
        "value": "0x0",
        "input": "0xd35e29d7000000000000000000000000ad9fdad276ab1a430fd03177a07350cd7c61e8970000000000000000000000000000000000000000000000000000000000000000",
        "nonce": "0x4ba",
        "chainId": "0xaa36a7"
      },
      "additionalContracts": [],
      "isFixedGasLimit": false
    },
    {
      "hash": "0x7d454f50eb361c77d0b6580ea1721fb008b5d9bbafe6cd81abf8c302eb998cad",
      "transactionType": "CALL",
      "contractName": null,
      "contractAddress": "0xad829434704378aeb800bb1cf9ab28efc67d70b7",
      "function": "mint(address,uint32)",
      "arguments": [
        "0xAd9fDaD276AB1A430fD03177A07350CD7C61E897",
        "0"
      ],
      "transaction": {
        "from": "0xad9fdad276ab1a430fd03177a07350cd7c61e897",
        "to": "0xad829434704378aeb800bb1cf9ab28efc67d70b7",
        "gas": "0x259a6",
        "value": "0x0",
        "input": "0xd35e29d7000000000000000000000000ad9fdad276ab1a430fd03177a07350cd7c61e8970000000000000000000000000000000000000000000000000000000000000000",
        "nonce": "0x4bb",
        "chainId": "0xaa36a7"
      },
      "additionalContracts": [],
      "isFixedGasLimit": false
    },
    {
      "hash": "0xc39a6c773d2f1afd2184b27bb017b693d3f8455c7a3b13af3f6769b874ce8261",
      "transactionType": "CALL",
      "contractName": null,
      "contractAddress": "0xad829434704378aeb800bb1cf9ab28efc67d70b7",
      "function": "mint(address,uint32)",
      "arguments": [
        "0xAd9fDaD276AB1A430fD03177A07350CD7C61E897",
        "0"
      ],
      "transaction": {
        "from": "0xad9fdad276ab1a430fd03177a07350cd7c61e897",
        "to": "0xad829434704378aeb800bb1cf9ab28efc67d70b7",
        "gas": "0x259a6",
        "value": "0x0",
        "input": "0xd35e29d7000000000000000000000000ad9fdad276ab1a430fd03177a07350cd7c61e8970000000000000000000000000000000000000000000000000000000000000000",
        "nonce": "0x4bc",
        "chainId": "0xaa36a7"
      },
      "additionalContracts": [],
      "isFixedGasLimit": false
    },
    {
      "hash": "0xf2bfae01f8250ad7f0619ba0de950ce409a1cf3de1de9a70abe6e3f5c98e2f9d",
      "transactionType": "CALL",
      "contractName": null,
      "contractAddress": "0xad829434704378aeb800bb1cf9ab28efc67d70b7",
      "function": "mint(address,uint32)",
      "arguments": [
        "0xAd9fDaD276AB1A430fD03177A07350CD7C61E897",
        "0"
      ],
      "transaction": {
        "from": "0xad9fdad276ab1a430fd03177a07350cd7c61e897",
        "to": "0xad829434704378aeb800bb1cf9ab28efc67d70b7",
        "gas": "0x259a6",
        "value": "0x0",
        "input": "0xd35e29d7000000000000000000000000ad9fdad276ab1a430fd03177a07350cd7c61e8970000000000000000000000000000000000000000000000000000000000000000",
        "nonce": "0x4bd",
        "chainId": "0xaa36a7"
      },
      "additionalContracts": [],
      "isFixedGasLimit": false
    },
    {
      "hash": "0x3ade927dc7a2a906b443e64432f5d9f742d546983c1e6f97351395e9f88dded6",
      "transactionType": "CALL",
      "contractName": null,
      "contractAddress": "0xad829434704378aeb800bb1cf9ab28efc67d70b7",
      "function": "mint(address,uint32)",
      "arguments": [
        "0xAd9fDaD276AB1A430fD03177A07350CD7C61E897",
        "0"
      ],
      "transaction": {
        "from": "0xad9fdad276ab1a430fd03177a07350cd7c61e897",
        "to": "0xad829434704378aeb800bb1cf9ab28efc67d70b7",
        "gas": "0x259a6",
        "value": "0x0",
        "input": "0xd35e29d7000000000000000000000000ad9fdad276ab1a430fd03177a07350cd7c61e8970000000000000000000000000000000000000000000000000000000000000000",
        "nonce": "0x4be",
        "chainId": "0xaa36a7"
      },
      "additionalContracts": [],
      "isFixedGasLimit": false
    },
    {
      "hash": "0x6003b2b69aff66b6c1a0aa8d1b0ecab063d7c30c0cc024a5e5ea4e5ebd11a66d",
      "transactionType": "CALL",
      "contractName": null,
      "contractAddress": "0xad829434704378aeb800bb1cf9ab28efc67d70b7",
      "function": "mint(address,uint32)",
      "arguments": [
        "0xAd9fDaD276AB1A430fD03177A07350CD7C61E897",
        "0"
      ],
      "transaction": {
        "from": "0xad9fdad276ab1a430fd03177a07350cd7c61e897",
        "to": "0xad829434704378aeb800bb1cf9ab28efc67d70b7",
        "gas": "0x259a6",
        "value": "0x0",
        "input": "0xd35e29d7000000000000000000000000ad9fdad276ab1a430fd03177a07350cd7c61e8970000000000000000000000000000000000000000000000000000000000000000",
        "nonce": "0x4bf",
        "chainId": "0xaa36a7"
      },
      "additionalContracts": [],
      "isFixedGasLimit": false
    },
    {
      "hash": "0xf87f60a0c6be691d9285a458b61c2dde71ece0530cb7ab0eca63aa55fddb0d56",
      "transactionType": "CALL",
      "contractName": null,
      "contractAddress": "0xad829434704378aeb800bb1cf9ab28efc67d70b7",
      "function": "mint(address,uint32)",
      "arguments": [
        "0xAd9fDaD276AB1A430fD03177A07350CD7C61E897",
        "0"
      ],
      "transaction": {
        "from": "0xad9fdad276ab1a430fd03177a07350cd7c61e897",
        "to": "0xad829434704378aeb800bb1cf9ab28efc67d70b7",
        "gas": "0x259a6",
        "value": "0x0",
        "input": "0xd35e29d7000000000000000000000000ad9fdad276ab1a430fd03177a07350cd7c61e8970000000000000000000000000000000000000000000000000000000000000000",
        "nonce": "0x4c0",
        "chainId": "0xaa36a7"
      },
      "additionalContracts": [],
      "isFixedGasLimit": false
    },
    {
      "hash": "0x076a358ce81d9fc3c84b1c2cce29413ea0653ed4369d7f5f044bf18da12e812d",
      "transactionType": "CALL",
      "contractName": null,
      "contractAddress": "0xad829434704378aeb800bb1cf9ab28efc67d70b7",
      "function": "mint(address,uint32)",
      "arguments": [
        "0xAd9fDaD276AB1A430fD03177A07350CD7C61E897",
        "0"
      ],
      "transaction": {
        "from": "0xad9fdad276ab1a430fd03177a07350cd7c61e897",
        "to": "0xad829434704378aeb800bb1cf9ab28efc67d70b7",
        "gas": "0x259a6",
        "value": "0x0",
        "input": "0xd35e29d7000000000000000000000000ad9fdad276ab1a430fd03177a07350cd7c61e8970000000000000000000000000000000000000000000000000000000000000000",
        "nonce": "0x4c1",
        "chainId": "0xaa36a7"
      },
      "additionalContracts": [],
      "isFixedGasLimit": false
    },
    {
      "hash": "0xc376b8985e2bd2d27f58365c2dabb1419f79af6084b3f9518745c901a48be717",
      "transactionType": "CALL",
      "contractName": null,
      "contractAddress": "0xad829434704378aeb800bb1cf9ab28efc67d70b7",
      "function": "mint(address,uint32)",
      "arguments": [
        "0xAd9fDaD276AB1A430fD03177A07350CD7C61E897",
        "0"
      ],
      "transaction": {
        "from": "0xad9fdad276ab1a430fd03177a07350cd7c61e897",
        "to": "0xad829434704378aeb800bb1cf9ab28efc67d70b7",
        "gas": "0x259a6",
        "value": "0x0",
        "input": "0xd35e29d7000000000000000000000000ad9fdad276ab1a430fd03177a07350cd7c61e8970000000000000000000000000000000000000000000000000000000000000000",
        "nonce": "0x4c2",
        "chainId": "0xaa36a7"
      },
      "additionalContracts": [],
      "isFixedGasLimit": false
    },
    {
      "hash": "0x6911a92872f156c1f29b86aadb323655b1fbf7bd8f03ff1153da181f5d5054d0",
      "transactionType": "CALL",
      "contractName": null,
      "contractAddress": "0xad829434704378aeb800bb1cf9ab28efc67d70b7",
      "function": "mint(address,uint32)",
      "arguments": [
        "0xAd9fDaD276AB1A430fD03177A07350CD7C61E897",
        "0"
      ],
      "transaction": {
        "from": "0xad9fdad276ab1a430fd03177a07350cd7c61e897",
        "to": "0xad829434704378aeb800bb1cf9ab28efc67d70b7",
        "gas": "0x259a6",
        "value": "0x0",
        "input": "0xd35e29d7000000000000000000000000ad9fdad276ab1a430fd03177a07350cd7c61e8970000000000000000000000000000000000000000000000000000000000000000",
        "nonce": "0x4c3",
        "chainId": "0xaa36a7"
      },
      "additionalContracts": [],
      "isFixedGasLimit": false
    },
    {
      "hash": "0xf7e7964dd20300a337773c84b29670fe36bce0918421f33c5c178f703f8af76b",
      "transactionType": "CALL",
      "contractName": null,
      "contractAddress": "0xad829434704378aeb800bb1cf9ab28efc67d70b7",
      "function": "mint(address,uint32)",
      "arguments": [
        "0xAd9fDaD276AB1A430fD03177A07350CD7C61E897",
        "0"
      ],
      "transaction": {
        "from": "0xad9fdad276ab1a430fd03177a07350cd7c61e897",
        "to": "0xad829434704378aeb800bb1cf9ab28efc67d70b7",
        "gas": "0x259a6",
        "value": "0x0",
        "input": "0xd35e29d7000000000000000000000000ad9fdad276ab1a430fd03177a07350cd7c61e8970000000000000000000000000000000000000000000000000000000000000000",
        "nonce": "0x4c4",
        "chainId": "0xaa36a7"
      },
      "additionalContracts": [],
      "isFixedGasLimit": false
    }
  ],
  "receipts": [
    {
      "status": "0x1",
      "cumulativeGasUsed": "0xc22510",
      "logs": [
        {
          "address": "0xad829434704378aeb800bb1cf9ab28efc67d70b7",
          "topics": [
            "0xddf252ad1be2c89b69c2b068fc378daa952ba7f163c4a11628f55a4df523b3ef",
            "0x0000000000000000000000000000000000000000000000000000000000000000",
            "0x000000000000000000000000ad9fdad276ab1a430fd03177a07350cd7c61e897",
            "0x0000000000000000000000000000000000000000000000000000000000000001"
          ],
          "data": "0x",
          "blockHash": "0xfd870282c6ae2a879d16b0e62fde40ecdc2b7281e2a9b4c38303a9351b6c4ff6",
          "blockNumber": "0x9232a7",
          "blockTimestamp": "0x690e3e98",
          "transactionHash": "0x26234bb90ad910ab489fc43eb7c56ebc8e9e4543dfceef9b420fc242932911c4",
          "transactionIndex": "0x7d",
          "logIndex": "0xb9",
          "removed": false
        }
      ],
      "logsBloom": "0x00000000000000000200000000000000000000000000000000000000000000000000000000000000000000000000000000000000000000000000000000040000000000000000004000000008000000000000000000040000000000000000000200000000020000000000000000000800000000000000000000000010000000000000000000000040000000000000000000000000000000000000000000000000000010000000000000000000000000000000000000000000000000000000000000000002000000000000000000000000000000000000000000000000000060000000400000000000000000000000000000000000000000000000000000000000",
      "type": "0x0",
      "transactionHash": "0x26234bb90ad910ab489fc43eb7c56ebc8e9e4543dfceef9b420fc242932911c4",
      "transactionIndex": "0x7d",
      "blockHash": "0xfd870282c6ae2a879d16b0e62fde40ecdc2b7281e2a9b4c38303a9351b6c4ff6",
      "blockNumber": "0x9232a7",
      "gasUsed": "0x1d33f",
      "effectiveGasPrice": "0xf4249",
      "from": "0xad9fdad276ab1a430fd03177a07350cd7c61e897",
      "to": "0xad829434704378aeb800bb1cf9ab28efc67d70b7",
      "contractAddress": null
    },
    {
      "status": "0x1",
      "cumulativeGasUsed": "0xc3c073",
      "logs": [
        {
          "address": "0xad829434704378aeb800bb1cf9ab28efc67d70b7",
          "topics": [
            "0xddf252ad1be2c89b69c2b068fc378daa952ba7f163c4a11628f55a4df523b3ef",
            "0x0000000000000000000000000000000000000000000000000000000000000000",
            "0x000000000000000000000000ad9fdad276ab1a430fd03177a07350cd7c61e897",
            "0x0000000000000000000000000000000000000000000000000000000000000002"
          ],
          "data": "0x",
          "blockHash": "0xfd870282c6ae2a879d16b0e62fde40ecdc2b7281e2a9b4c38303a9351b6c4ff6",
          "blockNumber": "0x9232a7",
          "blockTimestamp": "0x690e3e98",
          "transactionHash": "0x2e2821a8395d692bbc387c98e581365db5d1424276d0cc45e155302861e17919",
          "transactionIndex": "0x7e",
          "logIndex": "0xba",
          "removed": false
        }
      ],
      "logsBloom": "0x04000000000000000200000000000000000000000000000000000000000000000000000000000000000000000000000000000000000000000000000000000000000000000000004000000008000000000000000000000000000000000000000200000000020000000000000000000800000000000000000000000010000000000000000000000040000000000000000000000000000000000000000000000000000010000000000000000100000000000000000000000000000000000000000000000002000000000000000000000000000000000000000000000000000020000000400000000000000000000000000000000000008000000000000000000000",
      "type": "0x0",
      "transactionHash": "0x2e2821a8395d692bbc387c98e581365db5d1424276d0cc45e155302861e17919",
      "transactionIndex": "0x7e",
      "blockHash": "0xfd870282c6ae2a879d16b0e62fde40ecdc2b7281e2a9b4c38303a9351b6c4ff6",
      "blockNumber": "0x9232a7",
      "gasUsed": "0x19b63",
      "effectiveGasPrice": "0xf4249",
      "from": "0xad9fdad276ab1a430fd03177a07350cd7c61e897",
      "to": "0xad829434704378aeb800bb1cf9ab28efc67d70b7",
      "contractAddress": null
    },
    {
      "status": "0x1",
      "cumulativeGasUsed": "0xc55bd6",
      "logs": [
        {
          "address": "0xad829434704378aeb800bb1cf9ab28efc67d70b7",
          "topics": [
            "0xddf252ad1be2c89b69c2b068fc378daa952ba7f163c4a11628f55a4df523b3ef",
            "0x0000000000000000000000000000000000000000000000000000000000000000",
            "0x000000000000000000000000ad9fdad276ab1a430fd03177a07350cd7c61e897",
            "0x0000000000000000000000000000000000000000000000000000000000000003"
          ],
          "data": "0x",
          "blockHash": "0xfd870282c6ae2a879d16b0e62fde40ecdc2b7281e2a9b4c38303a9351b6c4ff6",
          "blockNumber": "0x9232a7",
          "blockTimestamp": "0x690e3e98",
          "transactionHash": "0xcac3e28bd453bed8f62df4f21d7f481984a4db21d7efc375d7ba086f81571c31",
          "transactionIndex": "0x7f",
          "logIndex": "0xbb",
          "removed": false
        }
      ],
      "logsBloom": "0x00000000000000000200000000000000000000000000000000000000000000000000000000000000000000000000000000000000020000000000000000000000000000000000004000000008000000000000000000000000000000000000000200000000020000000000000000000800000000000000000000000010000000000000000000000040000000000000000000000000000000000000000000000000000010000000000000000000000000000000000000800000000000000000400000000002000000000000000000000000000000000000000000000000000020000000400000000000000000000000000000000000000000000000000000000000",
      "type": "0x0",
      "transactionHash": "0xcac3e28bd453bed8f62df4f21d7f481984a4db21d7efc375d7ba086f81571c31",
      "transactionIndex": "0x7f",
      "blockHash": "0xfd870282c6ae2a879d16b0e62fde40ecdc2b7281e2a9b4c38303a9351b6c4ff6",
      "blockNumber": "0x9232a7",
      "gasUsed": "0x19b63",
      "effectiveGasPrice": "0xf4249",
      "from": "0xad9fdad276ab1a430fd03177a07350cd7c61e897",
      "to": "0xad829434704378aeb800bb1cf9ab28efc67d70b7",
      "contractAddress": null
    },
    {
      "status": "0x1",
      "cumulativeGasUsed": "0xc6f739",
      "logs": [
        {
          "address": "0xad829434704378aeb800bb1cf9ab28efc67d70b7",
          "topics": [
            "0xddf252ad1be2c89b69c2b068fc378daa952ba7f163c4a11628f55a4df523b3ef",
            "0x0000000000000000000000000000000000000000000000000000000000000000",
            "0x000000000000000000000000ad9fdad276ab1a430fd03177a07350cd7c61e897",
            "0x0000000000000000000000000000000000000000000000000000000000000004"
          ],
          "data": "0x",
          "blockHash": "0xfd870282c6ae2a879d16b0e62fde40ecdc2b7281e2a9b4c38303a9351b6c4ff6",
          "blockNumber": "0x9232a7",
          "blockTimestamp": "0x690e3e98",
          "transactionHash": "0xfec41ffc11466b1f4c3db574110b96449e64a71893ea7212ee95d75abc5d42dd",
          "transactionIndex": "0x80",
          "logIndex": "0xbc",
          "removed": false
        }
      ],
      "logsBloom": "0x00000000000000000200000000000000000000000000000000000000000000000000000000000000000000000000000000000000000000000000000000000000000000000000004000000008000000000000000000000000000000000000000208000000020000000000000000000800000000000000000000000010000000000000000000000040000000000000000000000000000000000000000000000000000010000000000000000000000000000000000000000000002000000000000000000002000000000000000000000000000000008000000000000000000020000000400000000000000000000000000000000000000000000000000000000000",
      "type": "0x0",
      "transactionHash": "0xfec41ffc11466b1f4c3db574110b96449e64a71893ea7212ee95d75abc5d42dd",
      "transactionIndex": "0x80",
      "blockHash": "0xfd870282c6ae2a879d16b0e62fde40ecdc2b7281e2a9b4c38303a9351b6c4ff6",
      "blockNumber": "0x9232a7",
      "gasUsed": "0x19b63",
      "effectiveGasPrice": "0xf4249",
      "from": "0xad9fdad276ab1a430fd03177a07350cd7c61e897",
      "to": "0xad829434704378aeb800bb1cf9ab28efc67d70b7",
      "contractAddress": null
    },
    {
      "status": "0x1",
      "cumulativeGasUsed": "0x6e7b29",
      "logs": [
        {
          "address": "0xad829434704378aeb800bb1cf9ab28efc67d70b7",
          "topics": [
            "0xddf252ad1be2c89b69c2b068fc378daa952ba7f163c4a11628f55a4df523b3ef",
            "0x0000000000000000000000000000000000000000000000000000000000000000",
            "0x000000000000000000000000ad9fdad276ab1a430fd03177a07350cd7c61e897",
            "0x0000000000000000000000000000000000000000000000000000000000000005"
          ],
          "data": "0x",
          "blockHash": "0xad95f60c7cfa3977502293f3c9277e49e2f6d2c2d8d9432a9dc0c520372d48ae",
          "blockNumber": "0x9232a8",
          "blockTimestamp": "0x690e3ea4",
          "transactionHash": "0x4504ebdf36413f2446aa7215ca8d47ada344631fe67733e362fe9b48759f0471",
          "transactionIndex": "0x43",
          "logIndex": "0x6e",
          "removed": false
        }
      ],
      "logsBloom": "0x00000000000000000200000000000000000000000000000000000000000000000000000000000000000000000000000000000000000000000000000000000000000010000000004000000008000000000000000000000000000000000000000200000000020000000000000000000800000000000000000000000010000000000000000000000040000000000000001000000800000000000000000000000000000010000000000000000000000000000000000000000000000000000000000000000002000000000000000000000000000000000000000000000000000020000000400000000000000000000000000000000000000000000000000000000000",
      "type": "0x0",
      "transactionHash": "0x4504ebdf36413f2446aa7215ca8d47ada344631fe67733e362fe9b48759f0471",
      "transactionIndex": "0x43",
      "blockHash": "0xad95f60c7cfa3977502293f3c9277e49e2f6d2c2d8d9432a9dc0c520372d48ae",
      "blockNumber": "0x9232a8",
      "gasUsed": "0x19b63",
      "effectiveGasPrice": "0xf4249",
      "from": "0xad9fdad276ab1a430fd03177a07350cd7c61e897",
      "to": "0xad829434704378aeb800bb1cf9ab28efc67d70b7",
      "contractAddress": null
    },
    {
      "status": "0x1",
      "cumulativeGasUsed": "0x70168c",
      "logs": [
        {
          "address": "0xad829434704378aeb800bb1cf9ab28efc67d70b7",
          "topics": [
            "0xddf252ad1be2c89b69c2b068fc378daa952ba7f163c4a11628f55a4df523b3ef",
            "0x0000000000000000000000000000000000000000000000000000000000000000",
            "0x000000000000000000000000ad9fdad276ab1a430fd03177a07350cd7c61e897",
            "0x0000000000000000000000000000000000000000000000000000000000000006"
          ],
          "data": "0x",
          "blockHash": "0xad95f60c7cfa3977502293f3c9277e49e2f6d2c2d8d9432a9dc0c520372d48ae",
          "blockNumber": "0x9232a8",
          "blockTimestamp": "0x690e3ea4",
          "transactionHash": "0xea0153d5421e77ed489593f4cedc594254fd9569c801fb111d5df757f1602784",
          "transactionIndex": "0x44",
          "logIndex": "0x6f",
          "removed": false
        }
      ],
      "logsBloom": "0x00000000000000000200000000000000000000000000000000000000000000000000000000000000000000000000000000000000000400000000000000000000000000000000004000000008000000000000000000000000000000000000000200000000020000000000000000000800000000000000000000000010000000000000000400000040000000000000000000000000000000000000000000000000000010000000000000000000000000000000000000000000000000080000000000000002000000000000000000000000000000000000000000000000000020000000400000000000000000000000000000000000000000000000000000000000",
      "type": "0x0",
      "transactionHash": "0xea0153d5421e77ed489593f4cedc594254fd9569c801fb111d5df757f1602784",
      "transactionIndex": "0x44",
      "blockHash": "0xad95f60c7cfa3977502293f3c9277e49e2f6d2c2d8d9432a9dc0c520372d48ae",
      "blockNumber": "0x9232a8",
      "gasUsed": "0x19b63",
      "effectiveGasPrice": "0xf4249",
      "from": "0xad9fdad276ab1a430fd03177a07350cd7c61e897",
      "to": "0xad829434704378aeb800bb1cf9ab28efc67d70b7",
      "contractAddress": null
    },
    {
      "status": "0x1",
      "cumulativeGasUsed": "0x71b1ef",
      "logs": [
        {
          "address": "0xad829434704378aeb800bb1cf9ab28efc67d70b7",
          "topics": [
            "0xddf252ad1be2c89b69c2b068fc378daa952ba7f163c4a11628f55a4df523b3ef",
            "0x0000000000000000000000000000000000000000000000000000000000000000",
            "0x000000000000000000000000ad9fdad276ab1a430fd03177a07350cd7c61e897",
            "0x0000000000000000000000000000000000000000000000000000000000000007"
          ],
          "data": "0x",
          "blockHash": "0xad95f60c7cfa3977502293f3c9277e49e2f6d2c2d8d9432a9dc0c520372d48ae",
          "blockNumber": "0x9232a8",
          "blockTimestamp": "0x690e3ea4",
          "transactionHash": "0x484d589ec0a8eacdd15110de7fd30362f541dbb9e62f63495bae3b8a73d07f21",
          "transactionIndex": "0x45",
          "logIndex": "0x70",
          "removed": false
        }
      ],
      "logsBloom": "0x00000000000000000200000000000000000000000000000000000000000000000000000000000000000000000000000000001000000000000000000000000000000020000000004000000008000000000000000000000000000000000000000200000000020000000000000000000800000000000000000000000010000000000000000000000040000000000000000000000000000000000000000000000000000010000000000000000000000000000000000000000000000000000000000000000002000000000000000000000000000000000000000000000100000020000000400000000000000000000000000000000000000000000000000000000000",
      "type": "0x0",
      "transactionHash": "0x484d589ec0a8eacdd15110de7fd30362f541dbb9e62f63495bae3b8a73d07f21",
      "transactionIndex": "0x45",
      "blockHash": "0xad95f60c7cfa3977502293f3c9277e49e2f6d2c2d8d9432a9dc0c520372d48ae",
      "blockNumber": "0x9232a8",
      "gasUsed": "0x19b63",
      "effectiveGasPrice": "0xf4249",
      "from": "0xad9fdad276ab1a430fd03177a07350cd7c61e897",
      "to": "0xad829434704378aeb800bb1cf9ab28efc67d70b7",
      "contractAddress": null
    },
    {
      "status": "0x1",
      "cumulativeGasUsed": "0xb60be3",
      "logs": [
        {
          "address": "0xad829434704378aeb800bb1cf9ab28efc67d70b7",
          "topics": [
            "0xddf252ad1be2c89b69c2b068fc378daa952ba7f163c4a11628f55a4df523b3ef",
            "0x0000000000000000000000000000000000000000000000000000000000000000",
            "0x000000000000000000000000ad9fdad276ab1a430fd03177a07350cd7c61e897",
            "0x0000000000000000000000000000000000000000000000000000000000000008"
          ],
          "data": "0x",
          "blockHash": "0x59b046c96d3dac74a45be94cc5c60aff233fed7e46f7abe443813d4b120fc610",
          "blockNumber": "0x9232a9",
          "blockTimestamp": "0x690e3eb0",
          "transactionHash": "0x22617f3c7d68f29426ec84e4f67871112f07cc29aff005f4826097c7eebd2e2b",
          "transactionIndex": "0x30",
          "logIndex": "0x3e",
          "removed": false
        }
      ],
      "logsBloom": "0x00000000000000000200000000000000000000000000000000000000000000000000000000000000000000000000000000000000000080000000000000000000000000000000004000000008000000000000000000000000000000000000000200000000020000000000000000000800000000000000000000000010000000000080000000000040000000000000000000000000000000000000000000000000000010000000000000000000000000000000000000000000000000000000000040000002000000000000000000000000000000000000000000000000000020000000400000000000000000000000000000000000000000000000000000000000",
      "type": "0x0",
      "transactionHash": "0x22617f3c7d68f29426ec84e4f67871112f07cc29aff005f4826097c7eebd2e2b",
      "transactionIndex": "0x30",
      "blockHash": "0x59b046c96d3dac74a45be94cc5c60aff233fed7e46f7abe443813d4b120fc610",
      "blockNumber": "0x9232a9",
      "gasUsed": "0x19b63",
      "effectiveGasPrice": "0xf4249",
      "from": "0xad9fdad276ab1a430fd03177a07350cd7c61e897",
      "to": "0xad829434704378aeb800bb1cf9ab28efc67d70b7",
      "contractAddress": null
    },
    {
      "status": "0x1",
      "cumulativeGasUsed": "0xb7a746",
      "logs": [
        {
          "address": "0xad829434704378aeb800bb1cf9ab28efc67d70b7",
          "topics": [
            "0xddf252ad1be2c89b69c2b068fc378daa952ba7f163c4a11628f55a4df523b3ef",
            "0x0000000000000000000000000000000000000000000000000000000000000000",
            "0x000000000000000000000000ad9fdad276ab1a430fd03177a07350cd7c61e897",
            "0x0000000000000000000000000000000000000000000000000000000000000009"
          ],
          "data": "0x",
          "blockHash": "0x59b046c96d3dac74a45be94cc5c60aff233fed7e46f7abe443813d4b120fc610",
          "blockNumber": "0x9232a9",
          "blockTimestamp": "0x690e3eb0",
          "transactionHash": "0xbcc672541594e05e0faec972e3fba75deda28e8366bc4fd3dea2d5dd658d084e",
          "transactionIndex": "0x31",
          "logIndex": "0x3f",
          "removed": false
        }
      ],
      "logsBloom": "0x00000000000000000200000000000000000000000000000000000000000000000000000000000000000000000000000000000000000000000000000000200000000000000000004000000008000000000000000000000000000000000000000200000000020000000000000000000800000000000000000000000010000000000000000000000040000000000000000000001000000000000000000000000000000010000000000000000000000000000000000000000000000000000000000000000002000000000000000000000000000000000000000000000000000020000000400000000000000000000000000000000000000000000000000000800000",
      "type": "0x0",
      "transactionHash": "0xbcc672541594e05e0faec972e3fba75deda28e8366bc4fd3dea2d5dd658d084e",
      "transactionIndex": "0x31",
      "blockHash": "0x59b046c96d3dac74a45be94cc5c60aff233fed7e46f7abe443813d4b120fc610",
      "blockNumber": "0x9232a9",
      "gasUsed": "0x19b63",
      "effectiveGasPrice": "0xf4249",
      "from": "0xad9fdad276ab1a430fd03177a07350cd7c61e897",
      "to": "0xad829434704378aeb800bb1cf9ab28efc67d70b7",
      "contractAddress": null
    },
    {
      "status": "0x1",
      "cumulativeGasUsed": "0xb942a9",
      "logs": [
        {
          "address": "0xad829434704378aeb800bb1cf9ab28efc67d70b7",
          "topics": [
            "0xddf252ad1be2c89b69c2b068fc378daa952ba7f163c4a11628f55a4df523b3ef",
            "0x0000000000000000000000000000000000000000000000000000000000000000",
            "0x000000000000000000000000ad9fdad276ab1a430fd03177a07350cd7c61e897",
            "0x000000000000000000000000000000000000000000000000000000000000000a"
          ],
          "data": "0x",
          "blockHash": "0x59b046c96d3dac74a45be94cc5c60aff233fed7e46f7abe443813d4b120fc610",
          "blockNumber": "0x9232a9",
          "blockTimestamp": "0x690e3eb0",
          "transactionHash": "0xb7588901246f6f3ad05ced0c6f1e01ac9a93a55485f3ad964b4ddda41abf342f",
          "transactionIndex": "0x32",
          "logIndex": "0x40",
          "removed": false
        }
      ],
      "logsBloom": "0x00000000000000000200000000000000000000000000000000000000000000000000000000000000000000000000000000000000040000000020000000000000000000000000004000000008000000000000000000000000000000000000000200000000020000000000000000000800000000000000000000000010000000000000000000000040010000000000000000000000000000000000000000000000000010000000000000000000000000000000000000000000000000000000000000000002000000000000000000000000000000000000000000000000000020000000400000000000000000000000000000000000000000000000000000000000",
      "type": "0x0",
      "transactionHash": "0xb7588901246f6f3ad05ced0c6f1e01ac9a93a55485f3ad964b4ddda41abf342f",
      "transactionIndex": "0x32",
      "blockHash": "0x59b046c96d3dac74a45be94cc5c60aff233fed7e46f7abe443813d4b120fc610",
      "blockNumber": "0x9232a9",
      "gasUsed": "0x19b63",
      "effectiveGasPrice": "0xf4249",
      "from": "0xad9fdad276ab1a430fd03177a07350cd7c61e897",
      "to": "0xad829434704378aeb800bb1cf9ab28efc67d70b7",
      "contractAddress": null
    },
    {
      "status": "0x1",
      "cumulativeGasUsed": "0xbade0c",
      "logs": [
        {
          "address": "0xad829434704378aeb800bb1cf9ab28efc67d70b7",
          "topics": [
            "0xddf252ad1be2c89b69c2b068fc378daa952ba7f163c4a11628f55a4df523b3ef",
            "0x0000000000000000000000000000000000000000000000000000000000000000",
            "0x000000000000000000000000ad9fdad276ab1a430fd03177a07350cd7c61e897",
            "0x000000000000000000000000000000000000000000000000000000000000000b"
          ],
          "data": "0x",
          "blockHash": "0x59b046c96d3dac74a45be94cc5c60aff233fed7e46f7abe443813d4b120fc610",
          "blockNumber": "0x9232a9",
          "blockTimestamp": "0x690e3eb0",
          "transactionHash": "0xf39a6f9fbebcc84779d1698688c551e973b3e3177163847694760c0179e80310",
          "transactionIndex": "0x33",
          "logIndex": "0x41",
          "removed": false
        }
      ],
      "logsBloom": "0x00000000000000000200004000000000000000000000000000000000000000000000000000000000000000000000000000000000000000000000000000000000000000000000004000000008000000000000000000000000000000000000000200000000020000000000000000000800000000000000000000000010000000000000000000000040000000000000000000000000000000000000000000000000000010000000000000000000000000000000000000000000000000000000000000000002000000000000000000000000002000000000000000000000000020000000400000000000000000000000000000000000000000040000000000000000",
      "type": "0x0",
      "transactionHash": "0xf39a6f9fbebcc84779d1698688c551e973b3e3177163847694760c0179e80310",
      "transactionIndex": "0x33",
      "blockHash": "0x59b046c96d3dac74a45be94cc5c60aff233fed7e46f7abe443813d4b120fc610",
      "blockNumber": "0x9232a9",
      "gasUsed": "0x19b63",
      "effectiveGasPrice": "0xf4249",
      "from": "0xad9fdad276ab1a430fd03177a07350cd7c61e897",
      "to": "0xad829434704378aeb800bb1cf9ab28efc67d70b7",
      "contractAddress": null
    },
    {
      "status": "0x1",
      "cumulativeGasUsed": "0xbc796f",
      "logs": [
        {
          "address": "0xad829434704378aeb800bb1cf9ab28efc67d70b7",
          "topics": [
            "0xddf252ad1be2c89b69c2b068fc378daa952ba7f163c4a11628f55a4df523b3ef",
            "0x0000000000000000000000000000000000000000000000000000000000000000",
            "0x000000000000000000000000ad9fdad276ab1a430fd03177a07350cd7c61e897",
            "0x000000000000000000000000000000000000000000000000000000000000000c"
          ],
          "data": "0x",
          "blockHash": "0x59b046c96d3dac74a45be94cc5c60aff233fed7e46f7abe443813d4b120fc610",
          "blockNumber": "0x9232a9",
          "blockTimestamp": "0x690e3eb0",
          "transactionHash": "0x1f10de1d0949ca96278bb5fa113543596b2bf8996de260fcdfbfa3e74390425e",
          "transactionIndex": "0x34",
          "logIndex": "0x42",
          "removed": false
        }
      ],
      "logsBloom": "0x00000000000000000200000000000000000002000000000000000000000000000000000000000200000000000000000000000000000000000000000000000000000000000000004000000008000000000000000000000000000000000000000200000000020000000000000000000800000000000000000000000010000000000000000000000040000000000000000000000000000000000000000000000000000010000000000000000000000000000000000000000000000000000000000000000002000000000000000000000000000000000000000000000000000020200000400000000000000000000000000000000000000000000000000000000000",
      "type": "0x0",
      "transactionHash": "0x1f10de1d0949ca96278bb5fa113543596b2bf8996de260fcdfbfa3e74390425e",
      "transactionIndex": "0x34",
      "blockHash": "0x59b046c96d3dac74a45be94cc5c60aff233fed7e46f7abe443813d4b120fc610",
      "blockNumber": "0x9232a9",
      "gasUsed": "0x19b63",
      "effectiveGasPrice": "0xf4249",
      "from": "0xad9fdad276ab1a430fd03177a07350cd7c61e897",
      "to": "0xad829434704378aeb800bb1cf9ab28efc67d70b7",
      "contractAddress": null
    },
    {
      "status": "0x1",
      "cumulativeGasUsed": "0xbe14d2",
      "logs": [
        {
          "address": "0xad829434704378aeb800bb1cf9ab28efc67d70b7",
          "topics": [
            "0xddf252ad1be2c89b69c2b068fc378daa952ba7f163c4a11628f55a4df523b3ef",
            "0x0000000000000000000000000000000000000000000000000000000000000000",
            "0x000000000000000000000000ad9fdad276ab1a430fd03177a07350cd7c61e897",
            "0x000000000000000000000000000000000000000000000000000000000000000d"
          ],
          "data": "0x",
          "blockHash": "0x59b046c96d3dac74a45be94cc5c60aff233fed7e46f7abe443813d4b120fc610",
          "blockNumber": "0x9232a9",
          "blockTimestamp": "0x690e3eb0",
          "transactionHash": "0x591497bbd8e21e466dceb5e04e2c7f70271c5d6ea1a29e4f681cb525daed61ed",
          "transactionIndex": "0x35",
          "logIndex": "0x43",
          "removed": false
        }
      ],
      "logsBloom": "0x00000000000000000240000000000000000000000000000000000000000000000000000000000000000000000000000000000000000000000000000000000000000000000000004000000008000000000002000000000000000000000000000200000000020000000000000000000800000000000000000000000010000000000000000000000040000000000000000000000000000000000000000000000000000010000000000000000000000000000000000000000000000000000000000000000002000000000000000000000000000000000000000000000000000020020000400000000000000000000000000000000000000000000000000000000000",
      "type": "0x0",
      "transactionHash": "0x591497bbd8e21e466dceb5e04e2c7f70271c5d6ea1a29e4f681cb525daed61ed",
      "transactionIndex": "0x35",
      "blockHash": "0x59b046c96d3dac74a45be94cc5c60aff233fed7e46f7abe443813d4b120fc610",
      "blockNumber": "0x9232a9",
      "gasUsed": "0x19b63",
      "effectiveGasPrice": "0xf4249",
      "from": "0xad9fdad276ab1a430fd03177a07350cd7c61e897",
      "to": "0xad829434704378aeb800bb1cf9ab28efc67d70b7",
      "contractAddress": null
    },
    {
      "status": "0x1",
      "cumulativeGasUsed": "0xbfb035",
      "logs": [
        {
          "address": "0xad829434704378aeb800bb1cf9ab28efc67d70b7",
          "topics": [
            "0xddf252ad1be2c89b69c2b068fc378daa952ba7f163c4a11628f55a4df523b3ef",
            "0x0000000000000000000000000000000000000000000000000000000000000000",
            "0x000000000000000000000000ad9fdad276ab1a430fd03177a07350cd7c61e897",
            "0x000000000000000000000000000000000000000000000000000000000000000e"
          ],
          "data": "0x",
          "blockHash": "0x59b046c96d3dac74a45be94cc5c60aff233fed7e46f7abe443813d4b120fc610",
          "blockNumber": "0x9232a9",
          "blockTimestamp": "0x690e3eb0",
          "transactionHash": "0xccd7a1afae1354a01c3a7a7c4ba8c613a36d664cd8e8b756f364ea9b959a8a37",
          "transactionIndex": "0x36",
          "logIndex": "0x44",
          "removed": false
        }
      ],
      "logsBloom": "0x00000000000000000200000000000000000000000000000000000000000000000000000000000000000000000000000000000000000000000000000000000000000000000000004800000008000000000000000000000000000000000000000200000000020000000000000000000800000000000000000000000010000000000000000000000040000000000000000008000000000000000000000000000000000010000000000000000000000000000000000000000020000000000000000000000002000000000000000000000000000000000000000000000000000020000000400000000000000000000000000000000000000000000000000000000000",
      "type": "0x0",
      "transactionHash": "0xccd7a1afae1354a01c3a7a7c4ba8c613a36d664cd8e8b756f364ea9b959a8a37",
      "transactionIndex": "0x36",
      "blockHash": "0x59b046c96d3dac74a45be94cc5c60aff233fed7e46f7abe443813d4b120fc610",
      "blockNumber": "0x9232a9",
      "gasUsed": "0x19b63",
      "effectiveGasPrice": "0xf4249",
      "from": "0xad9fdad276ab1a430fd03177a07350cd7c61e897",
      "to": "0xad829434704378aeb800bb1cf9ab28efc67d70b7",
      "contractAddress": null
    },
    {
      "status": "0x1",
      "cumulativeGasUsed": "0xc14b98",
      "logs": [
        {
          "address": "0xad829434704378aeb800bb1cf9ab28efc67d70b7",
          "topics": [
            "0xddf252ad1be2c89b69c2b068fc378daa952ba7f163c4a11628f55a4df523b3ef",
            "0x0000000000000000000000000000000000000000000000000000000000000000",
            "0x000000000000000000000000ad9fdad276ab1a430fd03177a07350cd7c61e897",
            "0x000000000000000000000000000000000000000000000000000000000000000f"
          ],
          "data": "0x",
          "blockHash": "0x59b046c96d3dac74a45be94cc5c60aff233fed7e46f7abe443813d4b120fc610",
          "blockNumber": "0x9232a9",
          "blockTimestamp": "0x690e3eb0",
          "transactionHash": "0x7f9d1e38c55fc6afb016b858e63804a989d90ee036eb10c21fb2b4d646ff2a2e",
          "transactionIndex": "0x37",
          "logIndex": "0x45",
          "removed": false
        }
      ],
      "logsBloom": "0x00000000000000000200000000000000000000000000000000000000000000000000000000000000000000000000000000000000000000000000000000000000000000000000004000000008000000000000000000000000000000000002000200000000020000000000000000000800000000000000000000000010000000000000000000000840000000000000000000000000000000000000000000000000000010000000000000000000000000000000000000000000000000000000000000000002000000000000000000000000000000000000000000000000000020000000400200000000000000000000000000000000000000000000000000000000",
      "type": "0x0",
      "transactionHash": "0x7f9d1e38c55fc6afb016b858e63804a989d90ee036eb10c21fb2b4d646ff2a2e",
      "transactionIndex": "0x37",
      "blockHash": "0x59b046c96d3dac74a45be94cc5c60aff233fed7e46f7abe443813d4b120fc610",
      "blockNumber": "0x9232a9",
      "gasUsed": "0x19b63",
      "effectiveGasPrice": "0xf4249",
      "from": "0xad9fdad276ab1a430fd03177a07350cd7c61e897",
      "to": "0xad829434704378aeb800bb1cf9ab28efc67d70b7",
      "contractAddress": null
    },
    {
      "status": "0x1",
      "cumulativeGasUsed": "0xc2e6fb",
      "logs": [
        {
          "address": "0xad829434704378aeb800bb1cf9ab28efc67d70b7",
          "topics": [
            "0xddf252ad1be2c89b69c2b068fc378daa952ba7f163c4a11628f55a4df523b3ef",
            "0x0000000000000000000000000000000000000000000000000000000000000000",
            "0x000000000000000000000000ad9fdad276ab1a430fd03177a07350cd7c61e897",
            "0x0000000000000000000000000000000000000000000000000000000000000010"
          ],
          "data": "0x",
          "blockHash": "0x59b046c96d3dac74a45be94cc5c60aff233fed7e46f7abe443813d4b120fc610",
          "blockNumber": "0x9232a9",
          "blockTimestamp": "0x690e3eb0",
          "transactionHash": "0x5301f2c9c098a952ee89a2dbbd4da9a959b78dc6c5b8e3e37c79d5da0989136f",
          "transactionIndex": "0x38",
          "logIndex": "0x46",
          "removed": false
        }
      ],
      "logsBloom": "0x00000000100000000200000000000000000000000000000000000000000000000000000000000000000000000000000000000000000000000000000000000000000000000000004000000008000000000000000000000000000000000000000200000000020000000000000000000800000000000000000000000010040000000000000000000040000000000000000000000100000000000000000000000000000010000000000000000000000000000000000000000000000000000000000000000002000000000000000000000000000000000000000000000000000020000000400000000000000000000000000000000000000000000000000000000000",
      "type": "0x0",
      "transactionHash": "0x5301f2c9c098a952ee89a2dbbd4da9a959b78dc6c5b8e3e37c79d5da0989136f",
      "transactionIndex": "0x38",
      "blockHash": "0x59b046c96d3dac74a45be94cc5c60aff233fed7e46f7abe443813d4b120fc610",
      "blockNumber": "0x9232a9",
      "gasUsed": "0x19b63",
      "effectiveGasPrice": "0xf4249",
      "from": "0xad9fdad276ab1a430fd03177a07350cd7c61e897",
      "to": "0xad829434704378aeb800bb1cf9ab28efc67d70b7",
      "contractAddress": null
    },
    {
      "status": "0x1",
      "cumulativeGasUsed": "0xc4825e",
      "logs": [
        {
          "address": "0xad829434704378aeb800bb1cf9ab28efc67d70b7",
          "topics": [
            "0xddf252ad1be2c89b69c2b068fc378daa952ba7f163c4a11628f55a4df523b3ef",
            "0x0000000000000000000000000000000000000000000000000000000000000000",
            "0x000000000000000000000000ad9fdad276ab1a430fd03177a07350cd7c61e897",
            "0x0000000000000000000000000000000000000000000000000000000000000011"
          ],
          "data": "0x",
          "blockHash": "0x59b046c96d3dac74a45be94cc5c60aff233fed7e46f7abe443813d4b120fc610",
          "blockNumber": "0x9232a9",
          "blockTimestamp": "0x690e3eb0",
          "transactionHash": "0xd06381d2a780f2fe0dd3303039e3db658a0b277253dc82d1366e293cf3a1a00c",
          "transactionIndex": "0x39",
          "logIndex": "0x47",
          "removed": false
        }
      ],
      "logsBloom": "0x00000000000000000200000000000000000000000000000000000000000000000000000000000000000000000000000000000000000000000000000000000000000000000000004000000008000000000000000000000000000000000000000200000000020000000000000000000800000000004000000000000010000000000000000000000040000000000000000000000000000000000000000000000000000010000000000000000000000000000000000000000000000000000400000000001002000000000000000000000000000000000000000000000000000020000000400000000000000000000000000000000000000000000000000000000000",
      "type": "0x0",
      "transactionHash": "0xd06381d2a780f2fe0dd3303039e3db658a0b277253dc82d1366e293cf3a1a00c",
      "transactionIndex": "0x39",
      "blockHash": "0x59b046c96d3dac74a45be94cc5c60aff233fed7e46f7abe443813d4b120fc610",
      "blockNumber": "0x9232a9",
      "gasUsed": "0x19b63",
      "effectiveGasPrice": "0xf4249",
      "from": "0xad9fdad276ab1a430fd03177a07350cd7c61e897",
      "to": "0xad829434704378aeb800bb1cf9ab28efc67d70b7",
      "contractAddress": null
    },
    {
      "status": "0x1",
      "cumulativeGasUsed": "0xc61dc1",
      "logs": [
        {
          "address": "0xad829434704378aeb800bb1cf9ab28efc67d70b7",
          "topics": [
            "0xddf252ad1be2c89b69c2b068fc378daa952ba7f163c4a11628f55a4df523b3ef",
            "0x0000000000000000000000000000000000000000000000000000000000000000",
            "0x000000000000000000000000ad9fdad276ab1a430fd03177a07350cd7c61e897",
            "0x0000000000000000000000000000000000000000000000000000000000000012"
          ],
          "data": "0x",
          "blockHash": "0x59b046c96d3dac74a45be94cc5c60aff233fed7e46f7abe443813d4b120fc610",
          "blockNumber": "0x9232a9",
          "blockTimestamp": "0x690e3eb0",
          "transactionHash": "0x79f841a2aac0e3964e689d9ab805d6f0564899ec10e204595c2aa7ba7cf2e9d4",
          "transactionIndex": "0x3a",
          "logIndex": "0x48",
          "removed": false
        }
      ],
      "logsBloom": "0x00000000000000000200000000000000000000000000000000000000000000000000000000000000000000000000000000000000000000000000000000000000000000000000004000000008000000000000000000000000000000000000000200000000020000000000000000000800000000000000000000000010000000000000000000000040000000000000040000000000000000000000000000000000000010000000000000000000000000000000000000000040000000000000000000000002000000000400000000000000000000000000000000000000000020000000400000000000000000000000000000000000000000000000000000000000",
      "type": "0x0",
      "transactionHash": "0x79f841a2aac0e3964e689d9ab805d6f0564899ec10e204595c2aa7ba7cf2e9d4",
      "transactionIndex": "0x3a",
      "blockHash": "0x59b046c96d3dac74a45be94cc5c60aff233fed7e46f7abe443813d4b120fc610",
      "blockNumber": "0x9232a9",
      "gasUsed": "0x19b63",
      "effectiveGasPrice": "0xf4249",
      "from": "0xad9fdad276ab1a430fd03177a07350cd7c61e897",
      "to": "0xad829434704378aeb800bb1cf9ab28efc67d70b7",
      "contractAddress": null
    },
    {
      "status": "0x1",
      "cumulativeGasUsed": "0xc7b924",
      "logs": [
        {
          "address": "0xad829434704378aeb800bb1cf9ab28efc67d70b7",
          "topics": [
            "0xddf252ad1be2c89b69c2b068fc378daa952ba7f163c4a11628f55a4df523b3ef",
            "0x0000000000000000000000000000000000000000000000000000000000000000",
            "0x000000000000000000000000ad9fdad276ab1a430fd03177a07350cd7c61e897",
            "0x0000000000000000000000000000000000000000000000000000000000000013"
          ],
          "data": "0x",
          "blockHash": "0x59b046c96d3dac74a45be94cc5c60aff233fed7e46f7abe443813d4b120fc610",
          "blockNumber": "0x9232a9",
          "blockTimestamp": "0x690e3eb0",
          "transactionHash": "0x73f7c1fe8d1d7c4c42c12882b12c82de53b6cce367862c234f87932919c096f7",
          "transactionIndex": "0x3b",
          "logIndex": "0x49",
          "removed": false
        }
      ],
      "logsBloom": "0x20000000000000000200000000800000000000000000000000000000000000000000000040000000000000000000000000000000000000000000000000000000000000000000004000000008000000000000000000000000000000000000000200000000020000000000000000000800000000000000000000000010000000000000000000000040000000000000000000000000000000000000000000000000000010000000000000000000000000000000000000000000000000000000000000000002000000000000000000000000000000000000000000000000000020000000400000000000000000000000000000000000000000000000000000000000",
      "type": "0x0",
      "transactionHash": "0x73f7c1fe8d1d7c4c42c12882b12c82de53b6cce367862c234f87932919c096f7",
      "transactionIndex": "0x3b",
      "blockHash": "0x59b046c96d3dac74a45be94cc5c60aff233fed7e46f7abe443813d4b120fc610",
      "blockNumber": "0x9232a9",
      "gasUsed": "0x19b63",
      "effectiveGasPrice": "0xf4249",
      "from": "0xad9fdad276ab1a430fd03177a07350cd7c61e897",
      "to": "0xad829434704378aeb800bb1cf9ab28efc67d70b7",
      "contractAddress": null
    },
    {
      "status": "0x1",
      "cumulativeGasUsed": "0xc95487",
      "logs": [
        {
          "address": "0xad829434704378aeb800bb1cf9ab28efc67d70b7",
          "topics": [
            "0xddf252ad1be2c89b69c2b068fc378daa952ba7f163c4a11628f55a4df523b3ef",
            "0x0000000000000000000000000000000000000000000000000000000000000000",
            "0x000000000000000000000000ad9fdad276ab1a430fd03177a07350cd7c61e897",
            "0x0000000000000000000000000000000000000000000000000000000000000014"
          ],
          "data": "0x",
          "blockHash": "0x59b046c96d3dac74a45be94cc5c60aff233fed7e46f7abe443813d4b120fc610",
          "blockNumber": "0x9232a9",
          "blockTimestamp": "0x690e3eb0",
          "transactionHash": "0xbdd2454840df1c0b74223f43244aa35f9b63c1ad3af4582dafa0574678d6b6d1",
          "transactionIndex": "0x3c",
          "logIndex": "0x4a",
          "removed": false
        }
      ],
      "logsBloom": "0x00000000000000000200000000000000000000000000000000000000000000000000000000000000000000000000000000002000000000000000000000000000000000000000004000000008000000000000000000000000000000000000000200000000020000000000000000000800000000000000000000000010000000000000000000000040000000000000000000000000000400000000000000000000000010000000000020000000000000000000000000000000000000000000000000000002000000000000000000000000000000000000000000000000000020000000400000000000000000000000000000000000000000000000000000000000",
      "type": "0x0",
      "transactionHash": "0xbdd2454840df1c0b74223f43244aa35f9b63c1ad3af4582dafa0574678d6b6d1",
      "transactionIndex": "0x3c",
      "blockHash": "0x59b046c96d3dac74a45be94cc5c60aff233fed7e46f7abe443813d4b120fc610",
      "blockNumber": "0x9232a9",
      "gasUsed": "0x19b63",
      "effectiveGasPrice": "0xf4249",
      "from": "0xad9fdad276ab1a430fd03177a07350cd7c61e897",
      "to": "0xad829434704378aeb800bb1cf9ab28efc67d70b7",
      "contractAddress": null
    },
    {
      "status": "0x1",
      "cumulativeGasUsed": "0xcaefea",
      "logs": [
        {
          "address": "0xad829434704378aeb800bb1cf9ab28efc67d70b7",
          "topics": [
            "0xddf252ad1be2c89b69c2b068fc378daa952ba7f163c4a11628f55a4df523b3ef",
            "0x0000000000000000000000000000000000000000000000000000000000000000",
            "0x000000000000000000000000ad9fdad276ab1a430fd03177a07350cd7c61e897",
            "0x0000000000000000000000000000000000000000000000000000000000000015"
          ],
          "data": "0x",
          "blockHash": "0x59b046c96d3dac74a45be94cc5c60aff233fed7e46f7abe443813d4b120fc610",
          "blockNumber": "0x9232a9",
          "blockTimestamp": "0x690e3eb0",
          "transactionHash": "0x2d302df7a07183db61ba17b86bbae493940980f101eb51640358a79c65e00787",
          "transactionIndex": "0x3d",
          "logIndex": "0x4b",
          "removed": false
        }
      ],
      "logsBloom": "0x00000000000000000200000000000000000000000000000000000000000000000000000000000000000000000000000000000000000000000000000000000000001000000000004000000008000000000000000000000000000000000000000200000000020000000000000000000800000000000000000000000010000000000000000000000040000000000000000000000000000000000000000000000000000010000000000000000000010000000000000000000000000000000000000000000002000000000000000000000000000000000000000000000000000020002000400000000000000000000000000000000000000000000000000000000000",
      "type": "0x0",
      "transactionHash": "0x2d302df7a07183db61ba17b86bbae493940980f101eb51640358a79c65e00787",
      "transactionIndex": "0x3d",
      "blockHash": "0x59b046c96d3dac74a45be94cc5c60aff233fed7e46f7abe443813d4b120fc610",
      "blockNumber": "0x9232a9",
      "gasUsed": "0x19b63",
      "effectiveGasPrice": "0xf4249",
      "from": "0xad9fdad276ab1a430fd03177a07350cd7c61e897",
      "to": "0xad829434704378aeb800bb1cf9ab28efc67d70b7",
      "contractAddress": null
    },
    {
      "status": "0x1",
      "cumulativeGasUsed": "0xcc8b4d",
      "logs": [
        {
          "address": "0xad829434704378aeb800bb1cf9ab28efc67d70b7",
          "topics": [
            "0xddf252ad1be2c89b69c2b068fc378daa952ba7f163c4a11628f55a4df523b3ef",
            "0x0000000000000000000000000000000000000000000000000000000000000000",
            "0x000000000000000000000000ad9fdad276ab1a430fd03177a07350cd7c61e897",
            "0x0000000000000000000000000000000000000000000000000000000000000016"
          ],
          "data": "0x",
          "blockHash": "0x59b046c96d3dac74a45be94cc5c60aff233fed7e46f7abe443813d4b120fc610",
          "blockNumber": "0x9232a9",
          "blockTimestamp": "0x690e3eb0",
          "transactionHash": "0xae3611d86d0f61f90f2468ada21045fc4bb874a033f6793b6e9cf4caa24c0498",
          "transactionIndex": "0x3e",
          "logIndex": "0x4c",
          "removed": false
        }
      ],
      "logsBloom": "0x00000000000000000200000000000000000000000000000000000000000000000000000000000000000000000000000000000000000000000000000000000000000000000000004800000008000000000000000000000000000000000000000200000000020000000000000000000800200000000000000000000010000000000000000000000040000000000000000000000000000000000000000000000000000010000000000000000000000000000000000000000000000000000000000000000002000000000000000000000000000000000000000000000000000020000000400000000000000000000000000000000000000000000008000000000000",
      "type": "0x0",
      "transactionHash": "0xae3611d86d0f61f90f2468ada21045fc4bb874a033f6793b6e9cf4caa24c0498",
      "transactionIndex": "0x3e",
      "blockHash": "0x59b046c96d3dac74a45be94cc5c60aff233fed7e46f7abe443813d4b120fc610",
      "blockNumber": "0x9232a9",
      "gasUsed": "0x19b63",
      "effectiveGasPrice": "0xf4249",
      "from": "0xad9fdad276ab1a430fd03177a07350cd7c61e897",
      "to": "0xad829434704378aeb800bb1cf9ab28efc67d70b7",
      "contractAddress": null
    },
    {
      "status": "0x1",
      "cumulativeGasUsed": "0xce26b0",
      "logs": [
        {
          "address": "0xad829434704378aeb800bb1cf9ab28efc67d70b7",
          "topics": [
            "0xddf252ad1be2c89b69c2b068fc378daa952ba7f163c4a11628f55a4df523b3ef",
            "0x0000000000000000000000000000000000000000000000000000000000000000",
            "0x000000000000000000000000ad9fdad276ab1a430fd03177a07350cd7c61e897",
            "0x0000000000000000000000000000000000000000000000000000000000000017"
          ],
          "data": "0x",
          "blockHash": "0x59b046c96d3dac74a45be94cc5c60aff233fed7e46f7abe443813d4b120fc610",
          "blockNumber": "0x9232a9",
          "blockTimestamp": "0x690e3eb0",
          "transactionHash": "0x0ac73c19f0ec439c10754d5272b99bb478c581d1d95153a9817304e639facb5c",
          "transactionIndex": "0x3f",
          "logIndex": "0x4d",
          "removed": false
        }
      ],
      "logsBloom": "0x00000000000000000200000000000000000000000000000000000000000000000000000000000000000000000000000000001000000000000000001000000000000000000000004000000008000000000000000000000000000000000000000200000000020000000000000000000800000000000000000000000010000000000000000000000040000000000000000000000000000000000000000000000000000010000000000000000000000000000000000000000000000000000000000000000002000000000000000000000000000000000000000000000000000020000000400000000000000000000000000000000000000000000000000000080000",
      "type": "0x0",
      "transactionHash": "0x0ac73c19f0ec439c10754d5272b99bb478c581d1d95153a9817304e639facb5c",
      "transactionIndex": "0x3f",
      "blockHash": "0x59b046c96d3dac74a45be94cc5c60aff233fed7e46f7abe443813d4b120fc610",
      "blockNumber": "0x9232a9",
      "gasUsed": "0x19b63",
      "effectiveGasPrice": "0xf4249",
      "from": "0xad9fdad276ab1a430fd03177a07350cd7c61e897",
      "to": "0xad829434704378aeb800bb1cf9ab28efc67d70b7",
      "contractAddress": null
    },
    {
      "status": "0x1",
      "cumulativeGasUsed": "0x95b305",
      "logs": [
        {
          "address": "0xad829434704378aeb800bb1cf9ab28efc67d70b7",
          "topics": [
            "0xddf252ad1be2c89b69c2b068fc378daa952ba7f163c4a11628f55a4df523b3ef",
            "0x0000000000000000000000000000000000000000000000000000000000000000",
            "0x000000000000000000000000ad9fdad276ab1a430fd03177a07350cd7c61e897",
            "0x0000000000000000000000000000000000000000000000000000000000000018"
          ],
          "data": "0x",
          "blockHash": "0x92fc084109b384bc241086289fe5afe49650bd205f3adbed5c9b16e5ee1b766e",
          "blockNumber": "0x9232aa",
          "blockTimestamp": "0x690e3ebc",
          "transactionHash": "0x8039428113500ca89c47282a61088afdd7de1619889b8960aa652b816c4bc274",
          "transactionIndex": "0x44",
          "logIndex": "0x48",
          "removed": false
        }
      ],
      "logsBloom": "0x00000000000000000200000000000000000000000000000000000000000000000000000000000000000000000000000000000000000000000000000000000000000000000000004000000008000000000040000000000000000000000000000200000000020000000000000000000800000000000000000000000010000000000000000000000040000000000000000000000000000000000000000000000000000010000000000000000000000000000000000000000000000000000000000000100002000000000000000000000000000000000000000020000000000020000000400000000000000000000000000000000000000000000000000000000000",
      "type": "0x0",
      "transactionHash": "0x8039428113500ca89c47282a61088afdd7de1619889b8960aa652b816c4bc274",
      "transactionIndex": "0x44",
      "blockHash": "0x92fc084109b384bc241086289fe5afe49650bd205f3adbed5c9b16e5ee1b766e",
      "blockNumber": "0x9232aa",
      "gasUsed": "0x19b63",
      "effectiveGasPrice": "0xf4249",
      "from": "0xad9fdad276ab1a430fd03177a07350cd7c61e897",
      "to": "0xad829434704378aeb800bb1cf9ab28efc67d70b7",
      "contractAddress": null
    },
    {
      "status": "0x1",
      "cumulativeGasUsed": "0x974e68",
      "logs": [
        {
          "address": "0xad829434704378aeb800bb1cf9ab28efc67d70b7",
          "topics": [
            "0xddf252ad1be2c89b69c2b068fc378daa952ba7f163c4a11628f55a4df523b3ef",
            "0x0000000000000000000000000000000000000000000000000000000000000000",
            "0x000000000000000000000000ad9fdad276ab1a430fd03177a07350cd7c61e897",
            "0x0000000000000000000000000000000000000000000000000000000000000019"
          ],
          "data": "0x",
          "blockHash": "0x92fc084109b384bc241086289fe5afe49650bd205f3adbed5c9b16e5ee1b766e",
          "blockNumber": "0x9232aa",
          "blockTimestamp": "0x690e3ebc",
          "transactionHash": "0x6eab1981de3b053fc3b984e9fa000c3954d88f1db818247b13d6ae305b58a4fa",
          "transactionIndex": "0x45",
          "logIndex": "0x49",
          "removed": false
        }
      ],
      "logsBloom": "0x00000000000000000200000000000000000000000000000000000000000000000000000000000000000000000000000000000000000000800000000000000000000000000000004000000008000000000000000000000000000000000000000200000000020000000000000000000800000000000000020000000010000000000000000000000040000000000000000000000000000000000000000000000000000010000000000000000000000000000000000000000000000000000000000000000002000000000000000000000000000000000000000000000000000020000000400000000000000000000000000000000000000000000000008000000000",
      "type": "0x0",
      "transactionHash": "0x6eab1981de3b053fc3b984e9fa000c3954d88f1db818247b13d6ae305b58a4fa",
      "transactionIndex": "0x45",
      "blockHash": "0x92fc084109b384bc241086289fe5afe49650bd205f3adbed5c9b16e5ee1b766e",
      "blockNumber": "0x9232aa",
      "gasUsed": "0x19b63",
      "effectiveGasPrice": "0xf4249",
      "from": "0xad9fdad276ab1a430fd03177a07350cd7c61e897",
      "to": "0xad829434704378aeb800bb1cf9ab28efc67d70b7",
      "contractAddress": null
    },
    {
      "status": "0x1",
      "cumulativeGasUsed": "0x98e9cb",
      "logs": [
        {
          "address": "0xad829434704378aeb800bb1cf9ab28efc67d70b7",
          "topics": [
            "0xddf252ad1be2c89b69c2b068fc378daa952ba7f163c4a11628f55a4df523b3ef",
            "0x0000000000000000000000000000000000000000000000000000000000000000",
            "0x000000000000000000000000ad9fdad276ab1a430fd03177a07350cd7c61e897",
            "0x000000000000000000000000000000000000000000000000000000000000001a"
          ],
          "data": "0x",
          "blockHash": "0x92fc084109b384bc241086289fe5afe49650bd205f3adbed5c9b16e5ee1b766e",
          "blockNumber": "0x9232aa",
          "blockTimestamp": "0x690e3ebc",
          "transactionHash": "0xbce3fa6675a179c81eff97b4addfd17f61005f0f8608fd12f194d4e45399e647",
          "transactionIndex": "0x46",
          "logIndex": "0x4a",
          "removed": false
        }
      ],
      "logsBloom": "0x00000000000000000200000000000000000000000000000000000000000000000000000000000000000000000000000000000000000000000000000000000000000000000000004000000008000000001000000000000000000000001000000200000000020000000000000000000800000000000000000000000010000000000000000000000040000000000000000000000000000000000000000000000000000010000000000000000000000000000000000000000000000000000000000000000002000000000000000000000000000000000000000000000000000020000000400000000000000000000000000000000000000004000000000000000000",
      "type": "0x0",
      "transactionHash": "0xbce3fa6675a179c81eff97b4addfd17f61005f0f8608fd12f194d4e45399e647",
      "transactionIndex": "0x46",
      "blockHash": "0x92fc084109b384bc241086289fe5afe49650bd205f3adbed5c9b16e5ee1b766e",
      "blockNumber": "0x9232aa",
      "gasUsed": "0x19b63",
      "effectiveGasPrice": "0xf4249",
      "from": "0xad9fdad276ab1a430fd03177a07350cd7c61e897",
      "to": "0xad829434704378aeb800bb1cf9ab28efc67d70b7",
      "contractAddress": null
    },
    {
      "status": "0x1",
      "cumulativeGasUsed": "0x9a852e",
      "logs": [
        {
          "address": "0xad829434704378aeb800bb1cf9ab28efc67d70b7",
          "topics": [
            "0xddf252ad1be2c89b69c2b068fc378daa952ba7f163c4a11628f55a4df523b3ef",
            "0x0000000000000000000000000000000000000000000000000000000000000000",
            "0x000000000000000000000000ad9fdad276ab1a430fd03177a07350cd7c61e897",
            "0x000000000000000000000000000000000000000000000000000000000000001b"
          ],
          "data": "0x",
          "blockHash": "0x92fc084109b384bc241086289fe5afe49650bd205f3adbed5c9b16e5ee1b766e",
          "blockNumber": "0x9232aa",
          "blockTimestamp": "0x690e3ebc",
          "transactionHash": "0xa3c131523177c30fafdb45bec1fc29aece1ff58eafd1267f3035e7b371bbeeb2",
          "transactionIndex": "0x47",
          "logIndex": "0x4b",
          "removed": false
        }
      ],
      "logsBloom": "0x00000000000000000200000000000000000000000010000000000000000000000000000000000000000000000000000000000000000000000000000000000000000000000000004000000008000000000000000000000000000000000000000200000000020000000000000000000800000000000000000000000010000000000000000000000040000000000000000000000000000000000000000000000000000010000100000000000000000000000000000000008000000000000000000000000002000000000000000000000000000000000000000000000000000020000000400000000000000000000000000000000000000000000000000000000000",
      "type": "0x0",
      "transactionHash": "0xa3c131523177c30fafdb45bec1fc29aece1ff58eafd1267f3035e7b371bbeeb2",
      "transactionIndex": "0x47",
      "blockHash": "0x92fc084109b384bc241086289fe5afe49650bd205f3adbed5c9b16e5ee1b766e",
      "blockNumber": "0x9232aa",
      "gasUsed": "0x19b63",
      "effectiveGasPrice": "0xf4249",
      "from": "0xad9fdad276ab1a430fd03177a07350cd7c61e897",
      "to": "0xad829434704378aeb800bb1cf9ab28efc67d70b7",
      "contractAddress": null
    },
    {
      "status": "0x1",
      "cumulativeGasUsed": "0x9c2091",
      "logs": [
        {
          "address": "0xad829434704378aeb800bb1cf9ab28efc67d70b7",
          "topics": [
            "0xddf252ad1be2c89b69c2b068fc378daa952ba7f163c4a11628f55a4df523b3ef",
            "0x0000000000000000000000000000000000000000000000000000000000000000",
            "0x000000000000000000000000ad9fdad276ab1a430fd03177a07350cd7c61e897",
            "0x000000000000000000000000000000000000000000000000000000000000001c"
          ],
          "data": "0x",
          "blockHash": "0x92fc084109b384bc241086289fe5afe49650bd205f3adbed5c9b16e5ee1b766e",
          "blockNumber": "0x9232aa",
          "blockTimestamp": "0x690e3ebc",
          "transactionHash": "0x593147c187e4ba5f5318c335a225eee3c7bb8fcafdafb0120ce016817e66721d",
          "transactionIndex": "0x48",
          "logIndex": "0x4c",
          "removed": false
        }
      ],
      "logsBloom": "0x00000000000000000200000000000000000000000000000000000000000000000000000000000000000000000000000000000000000000200000000000000000000000000000004000000008000000000000000000000000000000000000000200000000020000000000000000000800000000000000000000000010000000000000000000000040000000000000000200000000000000000000000000000000000010000000000000000002000000000000000000000000000000000000000000000002000000000000000000000000000000000000000000000000000020000000400000000000000000000000000000000000000000000000000000000000",
      "type": "0x0",
      "transactionHash": "0x593147c187e4ba5f5318c335a225eee3c7bb8fcafdafb0120ce016817e66721d",
      "transactionIndex": "0x48",
      "blockHash": "0x92fc084109b384bc241086289fe5afe49650bd205f3adbed5c9b16e5ee1b766e",
      "blockNumber": "0x9232aa",
      "gasUsed": "0x19b63",
      "effectiveGasPrice": "0xf4249",
      "from": "0xad9fdad276ab1a430fd03177a07350cd7c61e897",
      "to": "0xad829434704378aeb800bb1cf9ab28efc67d70b7",
      "contractAddress": null
    },
    {
      "status": "0x1",
      "cumulativeGasUsed": "0x9dbbf4",
      "logs": [
        {
          "address": "0xad829434704378aeb800bb1cf9ab28efc67d70b7",
          "topics": [
            "0xddf252ad1be2c89b69c2b068fc378daa952ba7f163c4a11628f55a4df523b3ef",
            "0x0000000000000000000000000000000000000000000000000000000000000000",
            "0x000000000000000000000000ad9fdad276ab1a430fd03177a07350cd7c61e897",
            "0x000000000000000000000000000000000000000000000000000000000000001d"
          ],
          "data": "0x",
          "blockHash": "0x92fc084109b384bc241086289fe5afe49650bd205f3adbed5c9b16e5ee1b766e",
          "blockNumber": "0x9232aa",
          "blockTimestamp": "0x690e3ebc",
          "transactionHash": "0x42d168d5b274445326a846d17e12ed8e7e78547b964e9b9e4d88721b166e6b10",
          "transactionIndex": "0x49",
          "logIndex": "0x4d",
          "removed": false
        }
      ],
      "logsBloom": "0x00000080000000000200000000000000000000000000000000000000000000000000000000000000000000000000000000000000000000000000000200000000000000000000004000000008000000000000000000000010000000000000000200000000020000000000000000000800000000000000000000000010000000000000000000000040000000000000000000000000000000000000000000000000000010000000000000000000000000000000000000000000000000000000000000000002000000000000000000000000000000000000000000000000000020000000400000000000000000000000000000000000000000000000000000000000",
      "type": "0x0",
      "transactionHash": "0x42d168d5b274445326a846d17e12ed8e7e78547b964e9b9e4d88721b166e6b10",
      "transactionIndex": "0x49",
      "blockHash": "0x92fc084109b384bc241086289fe5afe49650bd205f3adbed5c9b16e5ee1b766e",
      "blockNumber": "0x9232aa",
      "gasUsed": "0x19b63",
      "effectiveGasPrice": "0xf4249",
      "from": "0xad9fdad276ab1a430fd03177a07350cd7c61e897",
      "to": "0xad829434704378aeb800bb1cf9ab28efc67d70b7",
      "contractAddress": null
    },
    {
      "status": "0x1",
      "cumulativeGasUsed": "0x9f5757",
      "logs": [
        {
          "address": "0xad829434704378aeb800bb1cf9ab28efc67d70b7",
          "topics": [
            "0xddf252ad1be2c89b69c2b068fc378daa952ba7f163c4a11628f55a4df523b3ef",
            "0x0000000000000000000000000000000000000000000000000000000000000000",
            "0x000000000000000000000000ad9fdad276ab1a430fd03177a07350cd7c61e897",
            "0x000000000000000000000000000000000000000000000000000000000000001e"
          ],
          "data": "0x",
          "blockHash": "0x92fc084109b384bc241086289fe5afe49650bd205f3adbed5c9b16e5ee1b766e",
          "blockNumber": "0x9232aa",
          "blockTimestamp": "0x690e3ebc",
          "transactionHash": "0x34a0aeebf7384d0944fe8f1e9fdc993e8f4b7c6cca45ade907da3253a76ebc9b",
          "transactionIndex": "0x4a",
          "logIndex": "0x4e",
          "removed": false
        }
      ],
      "logsBloom": "0x0000000000000000020000000000000000000000000000000000000000000000000000000000000000000000040000000000000000000000000000000000000000000000000000c000000008000000000000000000000000000000000000000200000000020000000000000000000800000000000000000000000010000000000000000000000040000000000000000000000000000000000000000000000000000010000000000000000000000000000000000000000000000000000000000000000002000000000000000000000000000000000000000000000000000020000000400000000000080000000000000000000000000000000000000000000000",
      "type": "0x0",
      "transactionHash": "0x34a0aeebf7384d0944fe8f1e9fdc993e8f4b7c6cca45ade907da3253a76ebc9b",
      "transactionIndex": "0x4a",
      "blockHash": "0x92fc084109b384bc241086289fe5afe49650bd205f3adbed5c9b16e5ee1b766e",
      "blockNumber": "0x9232aa",
      "gasUsed": "0x19b63",
      "effectiveGasPrice": "0xf4249",
      "from": "0xad9fdad276ab1a430fd03177a07350cd7c61e897",
      "to": "0xad829434704378aeb800bb1cf9ab28efc67d70b7",
      "contractAddress": null
    },
    {
      "status": "0x1",
      "cumulativeGasUsed": "0xa0f2ba",
      "logs": [
        {
          "address": "0xad829434704378aeb800bb1cf9ab28efc67d70b7",
          "topics": [
            "0xddf252ad1be2c89b69c2b068fc378daa952ba7f163c4a11628f55a4df523b3ef",
            "0x0000000000000000000000000000000000000000000000000000000000000000",
            "0x000000000000000000000000ad9fdad276ab1a430fd03177a07350cd7c61e897",
            "0x000000000000000000000000000000000000000000000000000000000000001f"
          ],
          "data": "0x",
          "blockHash": "0x92fc084109b384bc241086289fe5afe49650bd205f3adbed5c9b16e5ee1b766e",
          "blockNumber": "0x9232aa",
          "blockTimestamp": "0x690e3ebc",
          "transactionHash": "0x73549f8eb9bba720fe53260e969a45d07a7dbf21212a5a985c69efe429de7947",
          "transactionIndex": "0x4b",
          "logIndex": "0x4f",
          "removed": false
        }
      ],
      "logsBloom": "0x00000000000000000200000400000000000000000000000000000000000000000000000000000000000000000000000000000000000000000000000000000000000000000000004000000008000000000000000000000000000000000000000200000000020000000000000000000800000000000000000000000010000000000000000000000040000000000000000000000000000000000000000000000000000010000000000000000000000000000000000000000000000000000001000000000002000000000000000000000000000000000000000000000000000020000000400000000000000000000000000000000000000000000100000000000000",
      "type": "0x0",
      "transactionHash": "0x73549f8eb9bba720fe53260e969a45d07a7dbf21212a5a985c69efe429de7947",
      "transactionIndex": "0x4b",
      "blockHash": "0x92fc084109b384bc241086289fe5afe49650bd205f3adbed5c9b16e5ee1b766e",
      "blockNumber": "0x9232aa",
      "gasUsed": "0x19b63",
      "effectiveGasPrice": "0xf4249",
      "from": "0xad9fdad276ab1a430fd03177a07350cd7c61e897",
      "to": "0xad829434704378aeb800bb1cf9ab28efc67d70b7",
      "contractAddress": null
    },
    {
      "status": "0x1",
      "cumulativeGasUsed": "0xa28e1d",
      "logs": [
        {
          "address": "0xad829434704378aeb800bb1cf9ab28efc67d70b7",
          "topics": [
            "0xddf252ad1be2c89b69c2b068fc378daa952ba7f163c4a11628f55a4df523b3ef",
            "0x0000000000000000000000000000000000000000000000000000000000000000",
            "0x000000000000000000000000ad9fdad276ab1a430fd03177a07350cd7c61e897",
            "0x0000000000000000000000000000000000000000000000000000000000000020"
          ],
          "data": "0x",
          "blockHash": "0x92fc084109b384bc241086289fe5afe49650bd205f3adbed5c9b16e5ee1b766e",
          "blockNumber": "0x9232aa",
          "blockTimestamp": "0x690e3ebc",
          "transactionHash": "0xfd805a5b019edf06b1701aa2fabf25755f3d7e6ab78b99f8de37da2f58cd835b",
          "transactionIndex": "0x4c",
          "logIndex": "0x50",
          "removed": false
        }
      ],
      "logsBloom": "0x00000000000000000200000000000000000000000000000000000000000000000000000000000000000000000000000000000000000000000000000000000000000000000000004000000008000000000000000000000000000000000000000200000000020000000000000000000800000000000000000000000010000000000000000000000040000000000000000000000000000000000000000000000000000410000000000000000000000000000000000000000000000000000000000000000002000000000000000000000000080000000000000000000000000020000000400000000000000000000000000000000000000000000000000000000000",
      "type": "0x0",
      "transactionHash": "0xfd805a5b019edf06b1701aa2fabf25755f3d7e6ab78b99f8de37da2f58cd835b",
      "transactionIndex": "0x4c",
      "blockHash": "0x92fc084109b384bc241086289fe5afe49650bd205f3adbed5c9b16e5ee1b766e",
      "blockNumber": "0x9232aa",
      "gasUsed": "0x19b63",
      "effectiveGasPrice": "0xf4249",
      "from": "0xad9fdad276ab1a430fd03177a07350cd7c61e897",
      "to": "0xad829434704378aeb800bb1cf9ab28efc67d70b7",
      "contractAddress": null
    },
    {
      "status": "0x1",
      "cumulativeGasUsed": "0xa42980",
      "logs": [
        {
          "address": "0xad829434704378aeb800bb1cf9ab28efc67d70b7",
          "topics": [
            "0xddf252ad1be2c89b69c2b068fc378daa952ba7f163c4a11628f55a4df523b3ef",
            "0x0000000000000000000000000000000000000000000000000000000000000000",
            "0x000000000000000000000000ad9fdad276ab1a430fd03177a07350cd7c61e897",
            "0x0000000000000000000000000000000000000000000000000000000000000021"
          ],
          "data": "0x",
          "blockHash": "0x92fc084109b384bc241086289fe5afe49650bd205f3adbed5c9b16e5ee1b766e",
          "blockNumber": "0x9232aa",
          "blockTimestamp": "0x690e3ebc",
          "transactionHash": "0x807d26840a2a6d6bc145e6feed95e12afa2fe27bfde39a7748abc632d2377486",
          "transactionIndex": "0x4d",
          "logIndex": "0x51",
          "removed": false
        }
      ],
      "logsBloom": "0x00000000000000000200000000000000000000000000000000000000000000020000000000000000000000000000000000000000000000000000000000000000000000000000004000000008000000000000000000000000000000000000000200000000020000000000000000000800000000000000000000000010040000000000000000000040000000000000000000000000000000000000000000000000000010000000000000000000000000000000000800000000000000000000000000000002000000000000000000000000000000000000000000000000000020000000400000000000000000000000000000000000000000000000000000000000",
      "type": "0x0",
      "transactionHash": "0x807d26840a2a6d6bc145e6feed95e12afa2fe27bfde39a7748abc632d2377486",
      "transactionIndex": "0x4d",
      "blockHash": "0x92fc084109b384bc241086289fe5afe49650bd205f3adbed5c9b16e5ee1b766e",
      "blockNumber": "0x9232aa",
      "gasUsed": "0x19b63",
      "effectiveGasPrice": "0xf4249",
      "from": "0xad9fdad276ab1a430fd03177a07350cd7c61e897",
      "to": "0xad829434704378aeb800bb1cf9ab28efc67d70b7",
      "contractAddress": null
    },
    {
      "status": "0x1",
      "cumulativeGasUsed": "0xa5c4e3",
      "logs": [
        {
          "address": "0xad829434704378aeb800bb1cf9ab28efc67d70b7",
          "topics": [
            "0xddf252ad1be2c89b69c2b068fc378daa952ba7f163c4a11628f55a4df523b3ef",
            "0x0000000000000000000000000000000000000000000000000000000000000000",
            "0x000000000000000000000000ad9fdad276ab1a430fd03177a07350cd7c61e897",
            "0x0000000000000000000000000000000000000000000000000000000000000022"
          ],
          "data": "0x",
          "blockHash": "0x92fc084109b384bc241086289fe5afe49650bd205f3adbed5c9b16e5ee1b766e",
          "blockNumber": "0x9232aa",
          "blockTimestamp": "0x690e3ebc",
          "transactionHash": "0x2e256408c99b0da81af2a851ba303fbe3251716b805390364e9c4f86c0ccea52",
          "transactionIndex": "0x4e",
          "logIndex": "0x52",
          "removed": false
        }
      ],
      "logsBloom": "0x00000000000000000200000000000000000000000000000000000000000000000000000000000000000000000000000000000000000000000000000000000000000000000000004000000008000000000000000000000000000000000000000200000000020000000000000000000800000000000000000000000010000000000000020000000040000000000000000000000000000000000000004000000000000010000000000000000000000000000000000000000000000000000000000000000002000000000000000000000000000000000000000000000000000020080000400000000000000000000000000000000000000000000000000000000000",
      "type": "0x0",
      "transactionHash": "0x2e256408c99b0da81af2a851ba303fbe3251716b805390364e9c4f86c0ccea52",
      "transactionIndex": "0x4e",
      "blockHash": "0x92fc084109b384bc241086289fe5afe49650bd205f3adbed5c9b16e5ee1b766e",
      "blockNumber": "0x9232aa",
      "gasUsed": "0x19b63",
      "effectiveGasPrice": "0xf4249",
      "from": "0xad9fdad276ab1a430fd03177a07350cd7c61e897",
      "to": "0xad829434704378aeb800bb1cf9ab28efc67d70b7",
      "contractAddress": null
    },
    {
      "status": "0x1",
      "cumulativeGasUsed": "0xa76046",
      "logs": [
        {
          "address": "0xad829434704378aeb800bb1cf9ab28efc67d70b7",
          "topics": [
            "0xddf252ad1be2c89b69c2b068fc378daa952ba7f163c4a11628f55a4df523b3ef",
            "0x0000000000000000000000000000000000000000000000000000000000000000",
            "0x000000000000000000000000ad9fdad276ab1a430fd03177a07350cd7c61e897",
            "0x0000000000000000000000000000000000000000000000000000000000000023"
          ],
          "data": "0x",
          "blockHash": "0x92fc084109b384bc241086289fe5afe49650bd205f3adbed5c9b16e5ee1b766e",
          "blockNumber": "0x9232aa",
          "blockTimestamp": "0x690e3ebc",
          "transactionHash": "0xca1e74f3fc1962a986a9572038e30043f1e513e4306ad52956a6074aa513cf2b",
          "transactionIndex": "0x4f",
          "logIndex": "0x53",
          "removed": false
        }
      ],
      "logsBloom": "0x00000000000000000200000000000000000000000000000000000000000000000000000000000000000000000000000000000000000000800000000000000000000000000000004000000008000000000800000000000000000000000000000200000000020000000000000000000800000000000000000000000010000000000000000000000040000000000000000000000000000200000000000000000000000010000000000000000000000000000000000000000000000000000000000000000002000000000000000000000000000000000000000000000000000020000000400000000000000000000000000000000000000000000000000000000000",
      "type": "0x0",
      "transactionHash": "0xca1e74f3fc1962a986a9572038e30043f1e513e4306ad52956a6074aa513cf2b",
      "transactionIndex": "0x4f",
      "blockHash": "0x92fc084109b384bc241086289fe5afe49650bd205f3adbed5c9b16e5ee1b766e",
      "blockNumber": "0x9232aa",
      "gasUsed": "0x19b63",
      "effectiveGasPrice": "0xf4249",
      "from": "0xad9fdad276ab1a430fd03177a07350cd7c61e897",
      "to": "0xad829434704378aeb800bb1cf9ab28efc67d70b7",
      "contractAddress": null
    },
    {
      "status": "0x1",
      "cumulativeGasUsed": "0xa8fba9",
      "logs": [
        {
          "address": "0xad829434704378aeb800bb1cf9ab28efc67d70b7",
          "topics": [
            "0xddf252ad1be2c89b69c2b068fc378daa952ba7f163c4a11628f55a4df523b3ef",
            "0x0000000000000000000000000000000000000000000000000000000000000000",
            "0x000000000000000000000000ad9fdad276ab1a430fd03177a07350cd7c61e897",
            "0x0000000000000000000000000000000000000000000000000000000000000024"
          ],
          "data": "0x",
          "blockHash": "0x92fc084109b384bc241086289fe5afe49650bd205f3adbed5c9b16e5ee1b766e",
          "blockNumber": "0x9232aa",
          "blockTimestamp": "0x690e3ebc",
          "transactionHash": "0x93b83cf8a0759d7e19e4193ecd0354e0634b61583328a3a47a5bf129060da422",
          "transactionIndex": "0x50",
          "logIndex": "0x54",
          "removed": false
        }
      ],
      "logsBloom": "0x00000000000000000200000000000000000000000000000000000000000000000000000000000000000000000000000000000000000000000000000000000000000000000000004000000008000000000000000000000000000000000000000200000000020800000000000000000800000000000000000000000010000000000000000000000040000000000008000000000000000000000000000000000000000010000002000000000000000000000000000000000000000000000000000000000002000000000000000000000000000000000000000000000000000020000000400000000000000000000000000000000000000000000000000000000000",
      "type": "0x0",
      "transactionHash": "0x93b83cf8a0759d7e19e4193ecd0354e0634b61583328a3a47a5bf129060da422",
      "transactionIndex": "0x50",
      "blockHash": "0x92fc084109b384bc241086289fe5afe49650bd205f3adbed5c9b16e5ee1b766e",
      "blockNumber": "0x9232aa",
      "gasUsed": "0x19b63",
      "effectiveGasPrice": "0xf4249",
      "from": "0xad9fdad276ab1a430fd03177a07350cd7c61e897",
      "to": "0xad829434704378aeb800bb1cf9ab28efc67d70b7",
      "contractAddress": null
    },
    {
      "status": "0x1",
      "cumulativeGasUsed": "0xaa970c",
      "logs": [
        {
          "address": "0xad829434704378aeb800bb1cf9ab28efc67d70b7",
          "topics": [
            "0xddf252ad1be2c89b69c2b068fc378daa952ba7f163c4a11628f55a4df523b3ef",
            "0x0000000000000000000000000000000000000000000000000000000000000000",
            "0x000000000000000000000000ad9fdad276ab1a430fd03177a07350cd7c61e897",
            "0x0000000000000000000000000000000000000000000000000000000000000025"
          ],
          "data": "0x",
          "blockHash": "0x92fc084109b384bc241086289fe5afe49650bd205f3adbed5c9b16e5ee1b766e",
          "blockNumber": "0x9232aa",
          "blockTimestamp": "0x690e3ebc",
          "transactionHash": "0x341f424b8a64c7a9b105892c9bf4ecd0e91e4bcef376b028c0d30d91e4d1b46c",
          "transactionIndex": "0x51",
          "logIndex": "0x55",
          "removed": false
        }
      ],
      "logsBloom": "0x00000000000000000200000000000000000000000000000000000000000000000000000000000000000000000000000000000000000000000000000000000000000000000000004000000008000000000000000000000000000000000000000200000000020000000000000000000800000000000000000000000010000000000000000000000040000000000000000000000000000000000000000000000000000010000000000000000002000000000000000000000000000000000000000000000002000000000000000000000000000000000000000000000000000020008000400000000000000000000000000000000000000000000000000002000000",
      "type": "0x0",
      "transactionHash": "0x341f424b8a64c7a9b105892c9bf4ecd0e91e4bcef376b028c0d30d91e4d1b46c",
      "transactionIndex": "0x51",
      "blockHash": "0x92fc084109b384bc241086289fe5afe49650bd205f3adbed5c9b16e5ee1b766e",
      "blockNumber": "0x9232aa",
      "gasUsed": "0x19b63",
      "effectiveGasPrice": "0xf4249",
      "from": "0xad9fdad276ab1a430fd03177a07350cd7c61e897",
      "to": "0xad829434704378aeb800bb1cf9ab28efc67d70b7",
      "contractAddress": null
    },
    {
      "status": "0x1",
      "cumulativeGasUsed": "0xac326f",
      "logs": [
        {
          "address": "0xad829434704378aeb800bb1cf9ab28efc67d70b7",
          "topics": [
            "0xddf252ad1be2c89b69c2b068fc378daa952ba7f163c4a11628f55a4df523b3ef",
            "0x0000000000000000000000000000000000000000000000000000000000000000",
            "0x000000000000000000000000ad9fdad276ab1a430fd03177a07350cd7c61e897",
            "0x0000000000000000000000000000000000000000000000000000000000000026"
          ],
          "data": "0x",
          "blockHash": "0x92fc084109b384bc241086289fe5afe49650bd205f3adbed5c9b16e5ee1b766e",
          "blockNumber": "0x9232aa",
          "blockTimestamp": "0x690e3ebc",
          "transactionHash": "0xac63c8ed2a8f4200c069136a864d2fc34d56a3080800b81832171e91ffb505a9",
          "transactionIndex": "0x52",
          "logIndex": "0x56",
          "removed": false
        }
      ],
      "logsBloom": "0x00000000000000000200000000000000000000000000000000000000000000000000000000000000000000000000000000000000000000000000000000000000000000000000004000000008000000000001000000000000000000000000000201000000020000000000000000000800000000000000040000000010000000000000000000000040000000000000000000000000000000000000000000000000000010000000000000000000000000000000000000000000000000000000000000000002000000000000000000000000000000000000000000000000000020000000400000000000000000000000000000000000000000000000000000000000",
      "type": "0x0",
      "transactionHash": "0xac63c8ed2a8f4200c069136a864d2fc34d56a3080800b81832171e91ffb505a9",
      "transactionIndex": "0x52",
      "blockHash": "0x92fc084109b384bc241086289fe5afe49650bd205f3adbed5c9b16e5ee1b766e",
      "blockNumber": "0x9232aa",
      "gasUsed": "0x19b63",
      "effectiveGasPrice": "0xf4249",
      "from": "0xad9fdad276ab1a430fd03177a07350cd7c61e897",
      "to": "0xad829434704378aeb800bb1cf9ab28efc67d70b7",
      "contractAddress": null
    },
    {
      "status": "0x1",
      "cumulativeGasUsed": "0xadcdd2",
      "logs": [
        {
          "address": "0xad829434704378aeb800bb1cf9ab28efc67d70b7",
          "topics": [
            "0xddf252ad1be2c89b69c2b068fc378daa952ba7f163c4a11628f55a4df523b3ef",
            "0x0000000000000000000000000000000000000000000000000000000000000000",
            "0x000000000000000000000000ad9fdad276ab1a430fd03177a07350cd7c61e897",
            "0x0000000000000000000000000000000000000000000000000000000000000027"
          ],
          "data": "0x",
          "blockHash": "0x92fc084109b384bc241086289fe5afe49650bd205f3adbed5c9b16e5ee1b766e",
          "blockNumber": "0x9232aa",
          "blockTimestamp": "0x690e3ebc",
          "transactionHash": "0xf5dc86657197489d9d99a1e08ac75a136d4093d6fce88d34220a7b91bc4caa3b",
          "transactionIndex": "0x53",
          "logIndex": "0x57",
          "removed": false
        }
      ],
      "logsBloom": "0x00000000000000000200000000000000000000000000000000000000000000000002000000000000000000000000000000000000000000000000000000000000000000000000004000000008000000000000000000000000000000000000000200000000020000000000000000000800000000000000000000000010000000000000000000000040000000000000000000000000000000000000000000000000000010000000000000000000000000000000000000000000000000000000000000000002000000000000000000000000000000000000000000000000000020000000400000000000000000100000000008000000000000000000000000000000",
      "type": "0x0",
      "transactionHash": "0xf5dc86657197489d9d99a1e08ac75a136d4093d6fce88d34220a7b91bc4caa3b",
      "transactionIndex": "0x53",
      "blockHash": "0x92fc084109b384bc241086289fe5afe49650bd205f3adbed5c9b16e5ee1b766e",
      "blockNumber": "0x9232aa",
      "gasUsed": "0x19b63",
      "effectiveGasPrice": "0xf4249",
      "from": "0xad9fdad276ab1a430fd03177a07350cd7c61e897",
      "to": "0xad829434704378aeb800bb1cf9ab28efc67d70b7",
      "contractAddress": null
    },
    {
      "status": "0x1",
      "cumulativeGasUsed": "0xaf6935",
      "logs": [
        {
          "address": "0xad829434704378aeb800bb1cf9ab28efc67d70b7",
          "topics": [
            "0xddf252ad1be2c89b69c2b068fc378daa952ba7f163c4a11628f55a4df523b3ef",
            "0x0000000000000000000000000000000000000000000000000000000000000000",
            "0x000000000000000000000000ad9fdad276ab1a430fd03177a07350cd7c61e897",
            "0x0000000000000000000000000000000000000000000000000000000000000028"
          ],
          "data": "0x",
          "blockHash": "0x92fc084109b384bc241086289fe5afe49650bd205f3adbed5c9b16e5ee1b766e",
          "blockNumber": "0x9232aa",
          "blockTimestamp": "0x690e3ebc",
          "transactionHash": "0xa04d5c642ccfef03e9400abc4746b1904ec202f64ba8f174f915eb02656c3a81",
          "transactionIndex": "0x54",
          "logIndex": "0x58",
          "removed": false
        }
      ],
      "logsBloom": "0x00000000000000000200000000000000000000000000000000000000000000000000000000000000000000000000000000000000000000000000000000000000000000000000004000000008000000000000000000000000000000000000000200000000020000000000000000000800000000000000000000000010000000000000000000000040000000000000000000000000000000000000000000000000000010000100000000000000000000000000000000000000000000000000000000000002000000000000000000000000000020000000000000000008000020000000400000000000000000000000000000000000000000000000000000000000",
      "type": "0x0",
      "transactionHash": "0xa04d5c642ccfef03e9400abc4746b1904ec202f64ba8f174f915eb02656c3a81",
      "transactionIndex": "0x54",
      "blockHash": "0x92fc084109b384bc241086289fe5afe49650bd205f3adbed5c9b16e5ee1b766e",
      "blockNumber": "0x9232aa",
      "gasUsed": "0x19b63",
      "effectiveGasPrice": "0xf4249",
      "from": "0xad9fdad276ab1a430fd03177a07350cd7c61e897",
      "to": "0xad829434704378aeb800bb1cf9ab28efc67d70b7",
      "contractAddress": null
    },
    {
      "status": "0x1",
      "cumulativeGasUsed": "0xb10498",
      "logs": [
        {
          "address": "0xad829434704378aeb800bb1cf9ab28efc67d70b7",
          "topics": [
            "0xddf252ad1be2c89b69c2b068fc378daa952ba7f163c4a11628f55a4df523b3ef",
            "0x0000000000000000000000000000000000000000000000000000000000000000",
            "0x000000000000000000000000ad9fdad276ab1a430fd03177a07350cd7c61e897",
            "0x0000000000000000000000000000000000000000000000000000000000000029"
          ],
          "data": "0x",
          "blockHash": "0x92fc084109b384bc241086289fe5afe49650bd205f3adbed5c9b16e5ee1b766e",
          "blockNumber": "0x9232aa",
          "blockTimestamp": "0x690e3ebc",
          "transactionHash": "0x7d454f50eb361c77d0b6580ea1721fb008b5d9bbafe6cd81abf8c302eb998cad",
          "transactionIndex": "0x55",
          "logIndex": "0x59",
          "removed": false
        }
      ],
      "logsBloom": "0x00000000000000000200000000008000000000000000000000000000000000000000000000000000000000000000000000000000000000000000000000000000000000000000004000000008000000000000000000000000000000000000000200000000020040000000000000000800000000000000000000000010000000000000000000000040000000000000000010000000000000000000000000000000000010000000000000000000000000000000000000000000000000000000000000000002000000000000000000000000000000000000000000000000000020000000400000000000000000000000000000000000000000000000000000000000",
      "type": "0x0",
      "transactionHash": "0x7d454f50eb361c77d0b6580ea1721fb008b5d9bbafe6cd81abf8c302eb998cad",
      "transactionIndex": "0x55",
      "blockHash": "0x92fc084109b384bc241086289fe5afe49650bd205f3adbed5c9b16e5ee1b766e",
      "blockNumber": "0x9232aa",
      "gasUsed": "0x19b63",
      "effectiveGasPrice": "0xf4249",
      "from": "0xad9fdad276ab1a430fd03177a07350cd7c61e897",
      "to": "0xad829434704378aeb800bb1cf9ab28efc67d70b7",
      "contractAddress": null
    },
    {
      "status": "0x1",
      "cumulativeGasUsed": "0xb29ffb",
      "logs": [
        {
          "address": "0xad829434704378aeb800bb1cf9ab28efc67d70b7",
          "topics": [
            "0xddf252ad1be2c89b69c2b068fc378daa952ba7f163c4a11628f55a4df523b3ef",
            "0x0000000000000000000000000000000000000000000000000000000000000000",
            "0x000000000000000000000000ad9fdad276ab1a430fd03177a07350cd7c61e897",
            "0x000000000000000000000000000000000000000000000000000000000000002a"
          ],
          "data": "0x",
          "blockHash": "0x92fc084109b384bc241086289fe5afe49650bd205f3adbed5c9b16e5ee1b766e",
          "blockNumber": "0x9232aa",
          "blockTimestamp": "0x690e3ebc",
          "transactionHash": "0xc39a6c773d2f1afd2184b27bb017b693d3f8455c7a3b13af3f6769b874ce8261",
          "transactionIndex": "0x56",
          "logIndex": "0x5a",
          "removed": false
        }
      ],
      "logsBloom": "0x00000000000000000200000000000000000000000000000000000000000000000000000000004000000000000000000000000000000000000000000000000000000000000000004000000008000000000000000000000000000000000000000200000000020000000000000000000800000000000000000000000010000000000000000000000040000000000000000000000000000000000000000000000000000010000000000000000000000000000000000000000000000000000000000000000002000000000000000000000000000000000000000000000000000020100000400000000000000000000020000000000000000000000000000000000000",
      "type": "0x0",
      "transactionHash": "0xc39a6c773d2f1afd2184b27bb017b693d3f8455c7a3b13af3f6769b874ce8261",
      "transactionIndex": "0x56",
      "blockHash": "0x92fc084109b384bc241086289fe5afe49650bd205f3adbed5c9b16e5ee1b766e",
      "blockNumber": "0x9232aa",
      "gasUsed": "0x19b63",
      "effectiveGasPrice": "0xf4249",
      "from": "0xad9fdad276ab1a430fd03177a07350cd7c61e897",
      "to": "0xad829434704378aeb800bb1cf9ab28efc67d70b7",
      "contractAddress": null
    },
    {
      "status": "0x1",
      "cumulativeGasUsed": "0xb43b5e",
      "logs": [
        {
          "address": "0xad829434704378aeb800bb1cf9ab28efc67d70b7",
          "topics": [
            "0xddf252ad1be2c89b69c2b068fc378daa952ba7f163c4a11628f55a4df523b3ef",
            "0x0000000000000000000000000000000000000000000000000000000000000000",
            "0x000000000000000000000000ad9fdad276ab1a430fd03177a07350cd7c61e897",
            "0x000000000000000000000000000000000000000000000000000000000000002b"
          ],
          "data": "0x",
          "blockHash": "0x92fc084109b384bc241086289fe5afe49650bd205f3adbed5c9b16e5ee1b766e",
          "blockNumber": "0x9232aa",
          "blockTimestamp": "0x690e3ebc",
          "transactionHash": "0xf2bfae01f8250ad7f0619ba0de950ce409a1cf3de1de9a70abe6e3f5c98e2f9d",
          "transactionIndex": "0x57",
          "logIndex": "0x5b",
          "removed": false
        }
      ],
      "logsBloom": "0x00000000000000000200000000000000000000000000000000000000000000000000000000000000000000000000000000000000000001000000000000000000000000000000004000800008000000000000000000000000000000000000000200000000020000000000000000000800000000000000000000000010000000000000000000000040000000000000000000000000000000000000000000000000000010000000000000000000000000000000000000000000000000000000000000000002000000100000000000000000000000000000000000000000000020000000400000000000000000000000000000000000000000000000000000000000",
      "type": "0x0",
      "transactionHash": "0xf2bfae01f8250ad7f0619ba0de950ce409a1cf3de1de9a70abe6e3f5c98e2f9d",
      "transactionIndex": "0x57",
      "blockHash": "0x92fc084109b384bc241086289fe5afe49650bd205f3adbed5c9b16e5ee1b766e",
      "blockNumber": "0x9232aa",
      "gasUsed": "0x19b63",
      "effectiveGasPrice": "0xf4249",
      "from": "0xad9fdad276ab1a430fd03177a07350cd7c61e897",
      "to": "0xad829434704378aeb800bb1cf9ab28efc67d70b7",
      "contractAddress": null
    },
    {
      "status": "0x1",
      "cumulativeGasUsed": "0xb5d6c1",
      "logs": [
        {
          "address": "0xad829434704378aeb800bb1cf9ab28efc67d70b7",
          "topics": [
            "0xddf252ad1be2c89b69c2b068fc378daa952ba7f163c4a11628f55a4df523b3ef",
            "0x0000000000000000000000000000000000000000000000000000000000000000",
            "0x000000000000000000000000ad9fdad276ab1a430fd03177a07350cd7c61e897",
            "0x000000000000000000000000000000000000000000000000000000000000002c"
          ],
          "data": "0x",
          "blockHash": "0x92fc084109b384bc241086289fe5afe49650bd205f3adbed5c9b16e5ee1b766e",
          "blockNumber": "0x9232aa",
          "blockTimestamp": "0x690e3ebc",
          "transactionHash": "0x3ade927dc7a2a906b443e64432f5d9f742d546983c1e6f97351395e9f88dded6",
          "transactionIndex": "0x58",
          "logIndex": "0x5c",
          "removed": false
        }
      ],
      "logsBloom": "0x00000000000000000200000000000000000000000000000000000000000000000000000000000000000000000000000000000000000000000000000000000000000000000000004000000008000000000000000000000000000000000000000200000000020000000000000100000800000000000000000000000010004000000000000000000040000000000000000000000000000000000000000000000000000010000000000000000000000000000000000000000000000000000000000000000002000000000000000000000000000000000000000800000000000020000000400000000000000000000000000000000000000000000000000000000000",
      "type": "0x0",
      "transactionHash": "0x3ade927dc7a2a906b443e64432f5d9f742d546983c1e6f97351395e9f88dded6",
      "transactionIndex": "0x58",
      "blockHash": "0x92fc084109b384bc241086289fe5afe49650bd205f3adbed5c9b16e5ee1b766e",
      "blockNumber": "0x9232aa",
      "gasUsed": "0x19b63",
      "effectiveGasPrice": "0xf4249",
      "from": "0xad9fdad276ab1a430fd03177a07350cd7c61e897",
      "to": "0xad829434704378aeb800bb1cf9ab28efc67d70b7",
      "contractAddress": null
    },
    {
      "status": "0x1",
      "cumulativeGasUsed": "0xb77224",
      "logs": [
        {
          "address": "0xad829434704378aeb800bb1cf9ab28efc67d70b7",
          "topics": [
            "0xddf252ad1be2c89b69c2b068fc378daa952ba7f163c4a11628f55a4df523b3ef",
            "0x0000000000000000000000000000000000000000000000000000000000000000",
            "0x000000000000000000000000ad9fdad276ab1a430fd03177a07350cd7c61e897",
            "0x000000000000000000000000000000000000000000000000000000000000002d"
          ],
          "data": "0x",
          "blockHash": "0x92fc084109b384bc241086289fe5afe49650bd205f3adbed5c9b16e5ee1b766e",
          "blockNumber": "0x9232aa",
          "blockTimestamp": "0x690e3ebc",
          "transactionHash": "0x6003b2b69aff66b6c1a0aa8d1b0ecab063d7c30c0cc024a5e5ea4e5ebd11a66d",
          "transactionIndex": "0x59",
          "logIndex": "0x5d",
          "removed": false
        }
      ],
      "logsBloom": "0x00000000000000000200000000000000000000000000000000000000000000000000000000000000000000000000000000000000000000000000000400000000000000000000004000000008000000000000000000000000000000000000000200000000020000000000000000000800000000000000000000000010000000000000000000000040000000000000000000000000000000000000000000000000000010000000000000000000000000000000000000000000000010000000000000000002000000000000000000000000000000000000000000000000400020000000400000000000000000000000000000000000000000000000000000000000",
      "type": "0x0",
      "transactionHash": "0x6003b2b69aff66b6c1a0aa8d1b0ecab063d7c30c0cc024a5e5ea4e5ebd11a66d",
      "transactionIndex": "0x59",
      "blockHash": "0x92fc084109b384bc241086289fe5afe49650bd205f3adbed5c9b16e5ee1b766e",
      "blockNumber": "0x9232aa",
      "gasUsed": "0x19b63",
      "effectiveGasPrice": "0xf4249",
      "from": "0xad9fdad276ab1a430fd03177a07350cd7c61e897",
      "to": "0xad829434704378aeb800bb1cf9ab28efc67d70b7",
      "contractAddress": null
    },
    {
      "status": "0x1",
      "cumulativeGasUsed": "0xb90d87",
      "logs": [
        {
          "address": "0xad829434704378aeb800bb1cf9ab28efc67d70b7",
          "topics": [
            "0xddf252ad1be2c89b69c2b068fc378daa952ba7f163c4a11628f55a4df523b3ef",
            "0x0000000000000000000000000000000000000000000000000000000000000000",
            "0x000000000000000000000000ad9fdad276ab1a430fd03177a07350cd7c61e897",
            "0x000000000000000000000000000000000000000000000000000000000000002e"
          ],
          "data": "0x",
          "blockHash": "0x92fc084109b384bc241086289fe5afe49650bd205f3adbed5c9b16e5ee1b766e",
          "blockNumber": "0x9232aa",
          "blockTimestamp": "0x690e3ebc",
          "transactionHash": "0xf87f60a0c6be691d9285a458b61c2dde71ece0530cb7ab0eca63aa55fddb0d56",
          "transactionIndex": "0x5a",
          "logIndex": "0x5e",
          "removed": false
        }
      ],
      "logsBloom": "0x04000000000000000200000000000000000000000000000000000000000000000000000000000000000000000000000000001000000000000000000000000000000000000000004080000008000000000000000000000000000000000000000200000000020000000000000000000800000000000000000000000010000000000000000000000040000000000000000000000000000000000000000000000000000010000000000000000000000000000000000000000000000000000000000000000002000000000000000000000000000000000000000000000000000020000000400000000000000000000000000000000000000000000000000000000000",
      "type": "0x0",
      "transactionHash": "0xf87f60a0c6be691d9285a458b61c2dde71ece0530cb7ab0eca63aa55fddb0d56",
      "transactionIndex": "0x5a",
      "blockHash": "0x92fc084109b384bc241086289fe5afe49650bd205f3adbed5c9b16e5ee1b766e",
      "blockNumber": "0x9232aa",
      "gasUsed": "0x19b63",
      "effectiveGasPrice": "0xf4249",
      "from": "0xad9fdad276ab1a430fd03177a07350cd7c61e897",
      "to": "0xad829434704378aeb800bb1cf9ab28efc67d70b7",
      "contractAddress": null
    },
    {
      "status": "0x1",
      "cumulativeGasUsed": "0xbaa8ea",
      "logs": [
        {
          "address": "0xad829434704378aeb800bb1cf9ab28efc67d70b7",
          "topics": [
            "0xddf252ad1be2c89b69c2b068fc378daa952ba7f163c4a11628f55a4df523b3ef",
            "0x0000000000000000000000000000000000000000000000000000000000000000",
            "0x000000000000000000000000ad9fdad276ab1a430fd03177a07350cd7c61e897",
            "0x000000000000000000000000000000000000000000000000000000000000002f"
          ],
          "data": "0x",
          "blockHash": "0x92fc084109b384bc241086289fe5afe49650bd205f3adbed5c9b16e5ee1b766e",
          "blockNumber": "0x9232aa",
          "blockTimestamp": "0x690e3ebc",
          "transactionHash": "0x076a358ce81d9fc3c84b1c2cce29413ea0653ed4369d7f5f044bf18da12e812d",
          "transactionIndex": "0x5b",
          "logIndex": "0x5f",
          "removed": false
        }
      ],
      "logsBloom": "0x00000000000000000200000000000000000080000000000000000000000000000000000000000000000000000000000000000000000000000000000000000000000000000000004000000008000000000000000000000000000000000000000200000000020000000000000000000800000000000000000000000010000000000000000000000040000000000000000000000000000000000000000000000000000010000000000000000000000000000000000000000000000000000000000000000002000000000000000000000000000000000000000000000000000020000000400000000000000000000000000000000000000004000000000000080000",
      "type": "0x0",
      "transactionHash": "0x076a358ce81d9fc3c84b1c2cce29413ea0653ed4369d7f5f044bf18da12e812d",
      "transactionIndex": "0x5b",
      "blockHash": "0x92fc084109b384bc241086289fe5afe49650bd205f3adbed5c9b16e5ee1b766e",
      "blockNumber": "0x9232aa",
      "gasUsed": "0x19b63",
      "effectiveGasPrice": "0xf4249",
      "from": "0xad9fdad276ab1a430fd03177a07350cd7c61e897",
      "to": "0xad829434704378aeb800bb1cf9ab28efc67d70b7",
      "contractAddress": null
    },
    {
      "status": "0x1",
      "cumulativeGasUsed": "0xbc444d",
      "logs": [
        {
          "address": "0xad829434704378aeb800bb1cf9ab28efc67d70b7",
          "topics": [
            "0xddf252ad1be2c89b69c2b068fc378daa952ba7f163c4a11628f55a4df523b3ef",
            "0x0000000000000000000000000000000000000000000000000000000000000000",
            "0x000000000000000000000000ad9fdad276ab1a430fd03177a07350cd7c61e897",
            "0x0000000000000000000000000000000000000000000000000000000000000030"
          ],
          "data": "0x",
          "blockHash": "0x92fc084109b384bc241086289fe5afe49650bd205f3adbed5c9b16e5ee1b766e",
          "blockNumber": "0x9232aa",
          "blockTimestamp": "0x690e3ebc",
          "transactionHash": "0xc376b8985e2bd2d27f58365c2dabb1419f79af6084b3f9518745c901a48be717",
          "transactionIndex": "0x5c",
          "logIndex": "0x60",
          "removed": false
        }
      ],
      "logsBloom": "0x02000000000000000200000000000000000000000000000000000000000000000000000000000000000000000000000000000000000000000000000000000000000000000000004000000008000000000000000000000000000000000000000200000000020000000000000000000800000000000000000000000010000000000000000000000040000000000000000000000000000000000000000000000000000010000000000000000000000000000000000002000000000000000000000000000002000000000000000000000000000000000000000000000000000020000000400000000000000000000000000000000000000000000000000000000000",
      "type": "0x0",
      "transactionHash": "0xc376b8985e2bd2d27f58365c2dabb1419f79af6084b3f9518745c901a48be717",
      "transactionIndex": "0x5c",
      "blockHash": "0x92fc084109b384bc241086289fe5afe49650bd205f3adbed5c9b16e5ee1b766e",
      "blockNumber": "0x9232aa",
      "gasUsed": "0x19b63",
      "effectiveGasPrice": "0xf4249",
      "from": "0xad9fdad276ab1a430fd03177a07350cd7c61e897",
      "to": "0xad829434704378aeb800bb1cf9ab28efc67d70b7",
      "contractAddress": null
    },
    {
      "status": "0x1",
      "cumulativeGasUsed": "0xbddfb0",
      "logs": [
        {
          "address": "0xad829434704378aeb800bb1cf9ab28efc67d70b7",
          "topics": [
            "0xddf252ad1be2c89b69c2b068fc378daa952ba7f163c4a11628f55a4df523b3ef",
            "0x0000000000000000000000000000000000000000000000000000000000000000",
            "0x000000000000000000000000ad9fdad276ab1a430fd03177a07350cd7c61e897",
            "0x0000000000000000000000000000000000000000000000000000000000000031"
          ],
          "data": "0x",
          "blockHash": "0x92fc084109b384bc241086289fe5afe49650bd205f3adbed5c9b16e5ee1b766e",
          "blockNumber": "0x9232aa",
          "blockTimestamp": "0x690e3ebc",
          "transactionHash": "0x6911a92872f156c1f29b86aadb323655b1fbf7bd8f03ff1153da181f5d5054d0",
          "transactionIndex": "0x5d",
          "logIndex": "0x61",
          "removed": false
        }
      ],
      "logsBloom": "0x00000000000000000200000000000000000000000000000000000000000000000000000000000000000000000000000000000000000000000000000000000000040000000000004000000008000000000000000000000001000000000000000200000000020000000000000000000800000040000000000000000010000000000000000000000040000000000000000000000000000000000000000000000000000010000000000000000000000000000000000000000000000000000000000000000002000000000000000000000000000000000000000000000000000020000000400000000000000000000000000000000000000000000000000000000000",
      "type": "0x0",
      "transactionHash": "0x6911a92872f156c1f29b86aadb323655b1fbf7bd8f03ff1153da181f5d5054d0",
      "transactionIndex": "0x5d",
      "blockHash": "0x92fc084109b384bc241086289fe5afe49650bd205f3adbed5c9b16e5ee1b766e",
      "blockNumber": "0x9232aa",
      "gasUsed": "0x19b63",
      "effectiveGasPrice": "0xf4249",
      "from": "0xad9fdad276ab1a430fd03177a07350cd7c61e897",
      "to": "0xad829434704378aeb800bb1cf9ab28efc67d70b7",
      "contractAddress": null
    },
    {
      "status": "0x1",
      "cumulativeGasUsed": "0xbf7b13",
      "logs": [
        {
          "address": "0xad829434704378aeb800bb1cf9ab28efc67d70b7",
          "topics": [
            "0xddf252ad1be2c89b69c2b068fc378daa952ba7f163c4a11628f55a4df523b3ef",
            "0x0000000000000000000000000000000000000000000000000000000000000000",
            "0x000000000000000000000000ad9fdad276ab1a430fd03177a07350cd7c61e897",
            "0x0000000000000000000000000000000000000000000000000000000000000032"
          ],
          "data": "0x",
          "blockHash": "0x92fc084109b384bc241086289fe5afe49650bd205f3adbed5c9b16e5ee1b766e",
          "blockNumber": "0x9232aa",
          "blockTimestamp": "0x690e3ebc",
          "transactionHash": "0xf7e7964dd20300a337773c84b29670fe36bce0918421f33c5c178f703f8af76b",
          "transactionIndex": "0x5e",
          "logIndex": "0x62",
          "removed": false
        }
      ],
      "logsBloom": "0x00000000000000000200000000000000000000000000000000000000000000000002000000000000000000000000000000000000000000000000000000000000000000000000004000000008000000000000000000000000000000000000000200000000020000000000000000000800000000000000000000000010000000000000000000000040000000000000000000000000000000000000000000000000000010000000000000000000000000000000000000000000000000000000000000000002800000000000000000000000000000000000000000000000000820000000400000000000000000000000000000000000000000000000000000000000",
      "type": "0x0",
      "transactionHash": "0xf7e7964dd20300a337773c84b29670fe36bce0918421f33c5c178f703f8af76b",
      "transactionIndex": "0x5e",
      "blockHash": "0x92fc084109b384bc241086289fe5afe49650bd205f3adbed5c9b16e5ee1b766e",
      "blockNumber": "0x9232aa",
      "gasUsed": "0x19b63",
      "effectiveGasPrice": "0xf4249",
      "from": "0xad9fdad276ab1a430fd03177a07350cd7c61e897",
      "to": "0xad829434704378aeb800bb1cf9ab28efc67d70b7",
      "contractAddress": null
    }
  ],
  "libraries": [],
  "pending": [],
  "returns": {},
  "timestamp": 1762541244796,
  "chain": 11155111,
  "commit": "c03d2ed"
}