{
  "transactions": [
    {
      "hash": "0x7e163827e81e25f16dd3e4fea8bc456592a97301b248c23a735891322e7d35fc",
      "transactionType": "CALL",
      "contractName": null,
      "contractAddress": "0xf9ae13167b184faa4fea2f2e7249447f0e2a30a6",
      "function": "mint(address,uint32)",
      "arguments": [
        "0xAd9fDaD276AB1A430fD03177A07350CD7C61E897",
        "0"
      ],
      "transaction": {
        "from": "0xad9fdad276ab1a430fd03177a07350cd7c61e897",
        "to": "0xf9ae13167b184faa4fea2f2e7249447f0e2a30a6",
        "gas": "0x2839d",
        "value": "0x0",
        "input": "0xd35e29d7000000000000000000000000ad9fdad276ab1a430fd03177a07350cd7c61e8970000000000000000000000000000000000000000000000000000000000000000",
        "nonce": "0x393",
        "chainId": "0xaa36a7"
      },
      "additionalContracts": [],
      "isFixedGasLimit": false
    },
    {
      "hash": "0x5964dc8e54df47a64e02cac9cbd2c171ed2ed857e72d22ef0b4ee31264345d29",
      "transactionType": "CALL",
      "contractName": null,
      "contractAddress": "0xf9ae13167b184faa4fea2f2e7249447f0e2a30a6",
      "function": "mint(address,uint32)",
      "arguments": [
        "0xAd9fDaD276AB1A430fD03177A07350CD7C61E897",
        "0"
      ],
      "transaction": {
        "from": "0xad9fdad276ab1a430fd03177a07350cd7c61e897",
        "to": "0xf9ae13167b184faa4fea2f2e7249447f0e2a30a6",
        "gas": "0x23675",
        "value": "0x0",
        "input": "0xd35e29d7000000000000000000000000ad9fdad276ab1a430fd03177a07350cd7c61e8970000000000000000000000000000000000000000000000000000000000000000",
        "nonce": "0x394",
        "chainId": "0xaa36a7"
      },
      "additionalContracts": [],
      "isFixedGasLimit": false
    },
    {
      "hash": "0x825675eb313a7135d99aef27f9a510f2ad7b0f37426f3772a190ebe41b45c78a",
      "transactionType": "CALL",
      "contractName": null,
      "contractAddress": "0xf9ae13167b184faa4fea2f2e7249447f0e2a30a6",
      "function": "mint(address,uint32)",
      "arguments": [
        "0xAd9fDaD276AB1A430fD03177A07350CD7C61E897",
        "0"
      ],
      "transaction": {
        "from": "0xad9fdad276ab1a430fd03177a07350cd7c61e897",
        "to": "0xf9ae13167b184faa4fea2f2e7249447f0e2a30a6",
        "gas": "0x23675",
        "value": "0x0",
        "input": "0xd35e29d7000000000000000000000000ad9fdad276ab1a430fd03177a07350cd7c61e8970000000000000000000000000000000000000000000000000000000000000000",
        "nonce": "0x395",
        "chainId": "0xaa36a7"
      },
      "additionalContracts": [],
      "isFixedGasLimit": false
    },
    {
      "hash": "0x0c06f69f27efc976964cf074e29724918a6d96936859dcee255fb9f9f0ae3a4c",
      "transactionType": "CALL",
      "contractName": null,
      "contractAddress": "0xf9ae13167b184faa4fea2f2e7249447f0e2a30a6",
      "function": "mint(address,uint32)",
      "arguments": [
        "0xAd9fDaD276AB1A430fD03177A07350CD7C61E897",
        "0"
      ],
      "transaction": {
        "from": "0xad9fdad276ab1a430fd03177a07350cd7c61e897",
        "to": "0xf9ae13167b184faa4fea2f2e7249447f0e2a30a6",
        "gas": "0x23675",
        "value": "0x0",
        "input": "0xd35e29d7000000000000000000000000ad9fdad276ab1a430fd03177a07350cd7c61e8970000000000000000000000000000000000000000000000000000000000000000",
        "nonce": "0x396",
        "chainId": "0xaa36a7"
      },
      "additionalContracts": [],
      "isFixedGasLimit": false
    },
    {
      "hash": "0x094d220e46bdaeba6585a1e4aca903d29ada69a85c3a0656875f5e27e029f4c9",
      "transactionType": "CALL",
      "contractName": null,
      "contractAddress": "0xf9ae13167b184faa4fea2f2e7249447f0e2a30a6",
      "function": "mint(address,uint32)",
      "arguments": [
        "0xAd9fDaD276AB1A430fD03177A07350CD7C61E897",
        "0"
      ],
      "transaction": {
        "from": "0xad9fdad276ab1a430fd03177a07350cd7c61e897",
        "to": "0xf9ae13167b184faa4fea2f2e7249447f0e2a30a6",
        "gas": "0x23675",
        "value": "0x0",
        "input": "0xd35e29d7000000000000000000000000ad9fdad276ab1a430fd03177a07350cd7c61e8970000000000000000000000000000000000000000000000000000000000000000",
        "nonce": "0x397",
        "chainId": "0xaa36a7"
      },
      "additionalContracts": [],
      "isFixedGasLimit": false
    },
    {
      "hash": "0x450369437fee99440c906b046586f93bdf3a57fee447e5e2f4b565de4b688859",
      "transactionType": "CALL",
      "contractName": null,
      "contractAddress": "0xf9ae13167b184faa4fea2f2e7249447f0e2a30a6",
      "function": "mint(address,uint32)",
      "arguments": [
        "0xAd9fDaD276AB1A430fD03177A07350CD7C61E897",
        "0"
      ],
      "transaction": {
        "from": "0xad9fdad276ab1a430fd03177a07350cd7c61e897",
        "to": "0xf9ae13167b184faa4fea2f2e7249447f0e2a30a6",
        "gas": "0x23675",
        "value": "0x0",
        "input": "0xd35e29d7000000000000000000000000ad9fdad276ab1a430fd03177a07350cd7c61e8970000000000000000000000000000000000000000000000000000000000000000",
        "nonce": "0x398",
        "chainId": "0xaa36a7"
      },
      "additionalContracts": [],
      "isFixedGasLimit": false
    },
    {
      "hash": "0x3b8122172d05eb2507648c6513390d6edfc28f8488fead332acc9bda724cd187",
      "transactionType": "CALL",
      "contractName": null,
      "contractAddress": "0xf9ae13167b184faa4fea2f2e7249447f0e2a30a6",
      "function": "mint(address,uint32)",
      "arguments": [
        "0xAd9fDaD276AB1A430fD03177A07350CD7C61E897",
        "0"
      ],
      "transaction": {
        "from": "0xad9fdad276ab1a430fd03177a07350cd7c61e897",
        "to": "0xf9ae13167b184faa4fea2f2e7249447f0e2a30a6",
        "gas": "0x23675",
        "value": "0x0",
        "input": "0xd35e29d7000000000000000000000000ad9fdad276ab1a430fd03177a07350cd7c61e8970000000000000000000000000000000000000000000000000000000000000000",
        "nonce": "0x399",
        "chainId": "0xaa36a7"
      },
      "additionalContracts": [],
      "isFixedGasLimit": false
    },
    {
      "hash": "0x99877dfd3e94501cd83470ab67cd878d9ccfe4114bbc1c71a0557cba1d12ae99",
      "transactionType": "CALL",
      "contractName": null,
      "contractAddress": "0xf9ae13167b184faa4fea2f2e7249447f0e2a30a6",
      "function": "mint(address,uint32)",
      "arguments": [
        "0xAd9fDaD276AB1A430fD03177A07350CD7C61E897",
        "0"
      ],
      "transaction": {
        "from": "0xad9fdad276ab1a430fd03177a07350cd7c61e897",
        "to": "0xf9ae13167b184faa4fea2f2e7249447f0e2a30a6",
        "gas": "0x23675",
        "value": "0x0",
        "input": "0xd35e29d7000000000000000000000000ad9fdad276ab1a430fd03177a07350cd7c61e8970000000000000000000000000000000000000000000000000000000000000000",
        "nonce": "0x39a",
        "chainId": "0xaa36a7"
      },
      "additionalContracts": [],
      "isFixedGasLimit": false
    },
    {
      "hash": "0xa822a3fd2e8104fa79781739cb9f2426cf019e79e3a6afdeed7bd19548711819",
      "transactionType": "CALL",
      "contractName": null,
      "contractAddress": "0xf9ae13167b184faa4fea2f2e7249447f0e2a30a6",
      "function": "mint(address,uint32)",
      "arguments": [
        "0xAd9fDaD276AB1A430fD03177A07350CD7C61E897",
        "0"
      ],
      "transaction": {
        "from": "0xad9fdad276ab1a430fd03177a07350cd7c61e897",
        "to": "0xf9ae13167b184faa4fea2f2e7249447f0e2a30a6",
        "gas": "0x23675",
        "value": "0x0",
        "input": "0xd35e29d7000000000000000000000000ad9fdad276ab1a430fd03177a07350cd7c61e8970000000000000000000000000000000000000000000000000000000000000000",
        "nonce": "0x39b",
        "chainId": "0xaa36a7"
      },
      "additionalContracts": [],
      "isFixedGasLimit": false
    },
    {
      "hash": "0x67070c2114b39b52dc14455f3a14e99a5ae80a1252de74e260d9e73407c08d78",
      "transactionType": "CALL",
      "contractName": null,
      "contractAddress": "0xf9ae13167b184faa4fea2f2e7249447f0e2a30a6",
      "function": "mint(address,uint32)",
      "arguments": [
        "0xAd9fDaD276AB1A430fD03177A07350CD7C61E897",
        "0"
      ],
      "transaction": {
        "from": "0xad9fdad276ab1a430fd03177a07350cd7c61e897",
        "to": "0xf9ae13167b184faa4fea2f2e7249447f0e2a30a6",
        "gas": "0x23675",
        "value": "0x0",
        "input": "0xd35e29d7000000000000000000000000ad9fdad276ab1a430fd03177a07350cd7c61e8970000000000000000000000000000000000000000000000000000000000000000",
        "nonce": "0x39c",
        "chainId": "0xaa36a7"
      },
      "additionalContracts": [],
      "isFixedGasLimit": false
    },
    {
      "hash": "0xe05b6b1d127a85ca9e8e61d07b12734a0cc673a4d12ef0c4f584956ba00d769f",
      "transactionType": "CALL",
      "contractName": null,
      "contractAddress": "0xf9ae13167b184faa4fea2f2e7249447f0e2a30a6",
      "function": "mint(address,uint32)",
      "arguments": [
        "0xAd9fDaD276AB1A430fD03177A07350CD7C61E897",
        "0"
      ],
      "transaction": {
        "from": "0xad9fdad276ab1a430fd03177a07350cd7c61e897",
        "to": "0xf9ae13167b184faa4fea2f2e7249447f0e2a30a6",
        "gas": "0x23675",
        "value": "0x0",
        "input": "0xd35e29d7000000000000000000000000ad9fdad276ab1a430fd03177a07350cd7c61e8970000000000000000000000000000000000000000000000000000000000000000",
        "nonce": "0x39d",
        "chainId": "0xaa36a7"
      },
      "additionalContracts": [],
      "isFixedGasLimit": false
    },
    {
      "hash": "0x5dcbd97d4f14c7a6348a5b105f2fac5fa5c0168da180964fda452be2edc3cb6f",
      "transactionType": "CALL",
      "contractName": null,
      "contractAddress": "0xf9ae13167b184faa4fea2f2e7249447f0e2a30a6",
      "function": "mint(address,uint32)",
      "arguments": [
        "0xAd9fDaD276AB1A430fD03177A07350CD7C61E897",
        "0"
      ],
      "transaction": {
        "from": "0xad9fdad276ab1a430fd03177a07350cd7c61e897",
        "to": "0xf9ae13167b184faa4fea2f2e7249447f0e2a30a6",
        "gas": "0x23675",
        "value": "0x0",
        "input": "0xd35e29d7000000000000000000000000ad9fdad276ab1a430fd03177a07350cd7c61e8970000000000000000000000000000000000000000000000000000000000000000",
        "nonce": "0x39e",
        "chainId": "0xaa36a7"
      },
      "additionalContracts": [],
      "isFixedGasLimit": false
    },
    {
      "hash": "0x738670852065f3910c483b24052f28f99b5cc48a5ff24b4d42b4d9e9bc0affc6",
      "transactionType": "CALL",
      "contractName": null,
      "contractAddress": "0xf9ae13167b184faa4fea2f2e7249447f0e2a30a6",
      "function": "mint(address,uint32)",
      "arguments": [
        "0xAd9fDaD276AB1A430fD03177A07350CD7C61E897",
        "0"
      ],
      "transaction": {
        "from": "0xad9fdad276ab1a430fd03177a07350cd7c61e897",
        "to": "0xf9ae13167b184faa4fea2f2e7249447f0e2a30a6",
        "gas": "0x23675",
        "value": "0x0",
        "input": "0xd35e29d7000000000000000000000000ad9fdad276ab1a430fd03177a07350cd7c61e8970000000000000000000000000000000000000000000000000000000000000000",
        "nonce": "0x39f",
        "chainId": "0xaa36a7"
      },
      "additionalContracts": [],
      "isFixedGasLimit": false
    },
    {
      "hash": "0x1295946dad3e44e8fab8caa564d9ef1d2c3100cd0da558ff45dd1bc7efd0c6ff",
      "transactionType": "CALL",
      "contractName": null,
      "contractAddress": "0xf9ae13167b184faa4fea2f2e7249447f0e2a30a6",
      "function": "mint(address,uint32)",
      "arguments": [
        "0xAd9fDaD276AB1A430fD03177A07350CD7C61E897",
        "0"
      ],
      "transaction": {
        "from": "0xad9fdad276ab1a430fd03177a07350cd7c61e897",
        "to": "0xf9ae13167b184faa4fea2f2e7249447f0e2a30a6",
        "gas": "0x23675",
        "value": "0x0",
        "input": "0xd35e29d7000000000000000000000000ad9fdad276ab1a430fd03177a07350cd7c61e8970000000000000000000000000000000000000000000000000000000000000000",
        "nonce": "0x3a0",
        "chainId": "0xaa36a7"
      },
      "additionalContracts": [],
      "isFixedGasLimit": false
    },
    {
      "hash": "0x9c2b45cc303e545059988f79e8fdd74a1d02892d6c597f2addf93adb14cd023d",
      "transactionType": "CALL",
      "contractName": null,
      "contractAddress": "0xf9ae13167b184faa4fea2f2e7249447f0e2a30a6",
      "function": "mint(address,uint32)",
      "arguments": [
        "0xAd9fDaD276AB1A430fD03177A07350CD7C61E897",
        "0"
      ],
      "transaction": {
        "from": "0xad9fdad276ab1a430fd03177a07350cd7c61e897",
        "to": "0xf9ae13167b184faa4fea2f2e7249447f0e2a30a6",
        "gas": "0x23675",
        "value": "0x0",
        "input": "0xd35e29d7000000000000000000000000ad9fdad276ab1a430fd03177a07350cd7c61e8970000000000000000000000000000000000000000000000000000000000000000",
        "nonce": "0x3a1",
        "chainId": "0xaa36a7"
      },
      "additionalContracts": [],
      "isFixedGasLimit": false
    },
    {
      "hash": "0x49100d4d51cdfe68c15ac025802309160622147d8ead2d6c94f39c1c725fc198",
      "transactionType": "CALL",
      "contractName": null,
      "contractAddress": "0xf9ae13167b184faa4fea2f2e7249447f0e2a30a6",
      "function": "mint(address,uint32)",
      "arguments": [
        "0xAd9fDaD276AB1A430fD03177A07350CD7C61E897",
        "0"
      ],
      "transaction": {
        "from": "0xad9fdad276ab1a430fd03177a07350cd7c61e897",
        "to": "0xf9ae13167b184faa4fea2f2e7249447f0e2a30a6",
        "gas": "0x23675",
        "value": "0x0",
        "input": "0xd35e29d7000000000000000000000000ad9fdad276ab1a430fd03177a07350cd7c61e8970000000000000000000000000000000000000000000000000000000000000000",
        "nonce": "0x3a2",
        "chainId": "0xaa36a7"
      },
      "additionalContracts": [],
      "isFixedGasLimit": false
    },
    {
      "hash": "0x098e70beeaba78a9cc406882722d63fd0701a8797c5f836a63d0c438a0d96888",
      "transactionType": "CALL",
      "contractName": null,
      "contractAddress": "0xf9ae13167b184faa4fea2f2e7249447f0e2a30a6",
      "function": "mint(address,uint32)",
      "arguments": [
        "0xAd9fDaD276AB1A430fD03177A07350CD7C61E897",
        "0"
      ],
      "transaction": {
        "from": "0xad9fdad276ab1a430fd03177a07350cd7c61e897",
        "to": "0xf9ae13167b184faa4fea2f2e7249447f0e2a30a6",
        "gas": "0x23675",
        "value": "0x0",
        "input": "0xd35e29d7000000000000000000000000ad9fdad276ab1a430fd03177a07350cd7c61e8970000000000000000000000000000000000000000000000000000000000000000",
        "nonce": "0x3a3",
        "chainId": "0xaa36a7"
      },
      "additionalContracts": [],
      "isFixedGasLimit": false
    },
    {
      "hash": "0x2544b89b38481853dc4c476e4b56ae8cfc5a27af5db4f46d5f8520390eca338b",
      "transactionType": "CALL",
      "contractName": null,
      "contractAddress": "0xf9ae13167b184faa4fea2f2e7249447f0e2a30a6",
      "function": "mint(address,uint32)",
      "arguments": [
        "0xAd9fDaD276AB1A430fD03177A07350CD7C61E897",
        "0"
      ],
      "transaction": {
        "from": "0xad9fdad276ab1a430fd03177a07350cd7c61e897",
        "to": "0xf9ae13167b184faa4fea2f2e7249447f0e2a30a6",
        "gas": "0x23675",
        "value": "0x0",
        "input": "0xd35e29d7000000000000000000000000ad9fdad276ab1a430fd03177a07350cd7c61e8970000000000000000000000000000000000000000000000000000000000000000",
        "nonce": "0x3a4",
        "chainId": "0xaa36a7"
      },
      "additionalContracts": [],
      "isFixedGasLimit": false
    },
    {
      "hash": "0x474b1ea22fd64afc38b1bbb631b7418ad13198708b899f071e2df4a69fc757a4",
      "transactionType": "CALL",
      "contractName": null,
      "contractAddress": "0xf9ae13167b184faa4fea2f2e7249447f0e2a30a6",
      "function": "mint(address,uint32)",
      "arguments": [
        "0xAd9fDaD276AB1A430fD03177A07350CD7C61E897",
        "0"
      ],
      "transaction": {
        "from": "0xad9fdad276ab1a430fd03177a07350cd7c61e897",
        "to": "0xf9ae13167b184faa4fea2f2e7249447f0e2a30a6",
        "gas": "0x23675",
        "value": "0x0",
        "input": "0xd35e29d7000000000000000000000000ad9fdad276ab1a430fd03177a07350cd7c61e8970000000000000000000000000000000000000000000000000000000000000000",
        "nonce": "0x3a5",
        "chainId": "0xaa36a7"
      },
      "additionalContracts": [],
      "isFixedGasLimit": false
    },
    {
      "hash": "0x9198446ef39bde0f6d509da327853ad78bb53ca413c5600b819740ca1d5d75f1",
      "transactionType": "CALL",
      "contractName": null,
      "contractAddress": "0xf9ae13167b184faa4fea2f2e7249447f0e2a30a6",
      "function": "mint(address,uint32)",
      "arguments": [
        "0xAd9fDaD276AB1A430fD03177A07350CD7C61E897",
        "0"
      ],
      "transaction": {
        "from": "0xad9fdad276ab1a430fd03177a07350cd7c61e897",
        "to": "0xf9ae13167b184faa4fea2f2e7249447f0e2a30a6",
        "gas": "0x23675",
        "value": "0x0",
        "input": "0xd35e29d7000000000000000000000000ad9fdad276ab1a430fd03177a07350cd7c61e8970000000000000000000000000000000000000000000000000000000000000000",
        "nonce": "0x3a6",
        "chainId": "0xaa36a7"
      },
      "additionalContracts": [],
      "isFixedGasLimit": false
    },
    {
      "hash": "0x32af2c6ba950ad61e721ce359926ec01094412301e8fa429cf3b2aa4d01f7720",
      "transactionType": "CALL",
      "contractName": null,
      "contractAddress": "0xf9ae13167b184faa4fea2f2e7249447f0e2a30a6",
      "function": "mint(address,uint32)",
      "arguments": [
        "0xAd9fDaD276AB1A430fD03177A07350CD7C61E897",
        "0"
      ],
      "transaction": {
        "from": "0xad9fdad276ab1a430fd03177a07350cd7c61e897",
        "to": "0xf9ae13167b184faa4fea2f2e7249447f0e2a30a6",
        "gas": "0x23675",
        "value": "0x0",
        "input": "0xd35e29d7000000000000000000000000ad9fdad276ab1a430fd03177a07350cd7c61e8970000000000000000000000000000000000000000000000000000000000000000",
        "nonce": "0x3a7",
        "chainId": "0xaa36a7"
      },
      "additionalContracts": [],
      "isFixedGasLimit": false
    },
    {
      "hash": "0x4017a32deb54f5ad9681169f007ab0f88e3e47d41c2f9b1634df1c466f60fadd",
      "transactionType": "CALL",
      "contractName": null,
      "contractAddress": "0xf9ae13167b184faa4fea2f2e7249447f0e2a30a6",
      "function": "mint(address,uint32)",
      "arguments": [
        "0xAd9fDaD276AB1A430fD03177A07350CD7C61E897",
        "0"
      ],
      "transaction": {
        "from": "0xad9fdad276ab1a430fd03177a07350cd7c61e897",
        "to": "0xf9ae13167b184faa4fea2f2e7249447f0e2a30a6",
        "gas": "0x23675",
        "value": "0x0",
        "input": "0xd35e29d7000000000000000000000000ad9fdad276ab1a430fd03177a07350cd7c61e8970000000000000000000000000000000000000000000000000000000000000000",
        "nonce": "0x3a8",
        "chainId": "0xaa36a7"
      },
      "additionalContracts": [],
      "isFixedGasLimit": false
    },
    {
      "hash": "0x617b45b84bc64fe4af9b34b51cbe6f34e26c60c338e4f3549ab27cbfcfdf1ae1",
      "transactionType": "CALL",
      "contractName": null,
      "contractAddress": "0xf9ae13167b184faa4fea2f2e7249447f0e2a30a6",
      "function": "mint(address,uint32)",
      "arguments": [
        "0xAd9fDaD276AB1A430fD03177A07350CD7C61E897",
        "0"
      ],
      "transaction": {
        "from": "0xad9fdad276ab1a430fd03177a07350cd7c61e897",
        "to": "0xf9ae13167b184faa4fea2f2e7249447f0e2a30a6",
        "gas": "0x23675",
        "value": "0x0",
        "input": "0xd35e29d7000000000000000000000000ad9fdad276ab1a430fd03177a07350cd7c61e8970000000000000000000000000000000000000000000000000000000000000000",
        "nonce": "0x3a9",
        "chainId": "0xaa36a7"
      },
      "additionalContracts": [],
      "isFixedGasLimit": false
    },
    {
      "hash": "0xb6370431dd984ba06bcc9ec7437709a80864381d12bad79d1d482ff74180f40b",
      "transactionType": "CALL",
      "contractName": null,
      "contractAddress": "0xf9ae13167b184faa4fea2f2e7249447f0e2a30a6",
      "function": "mint(address,uint32)",
      "arguments": [
        "0xAd9fDaD276AB1A430fD03177A07350CD7C61E897",
        "0"
      ],
      "transaction": {
        "from": "0xad9fdad276ab1a430fd03177a07350cd7c61e897",
        "to": "0xf9ae13167b184faa4fea2f2e7249447f0e2a30a6",
        "gas": "0x23675",
        "value": "0x0",
        "input": "0xd35e29d7000000000000000000000000ad9fdad276ab1a430fd03177a07350cd7c61e8970000000000000000000000000000000000000000000000000000000000000000",
        "nonce": "0x3aa",
        "chainId": "0xaa36a7"
      },
      "additionalContracts": [],
      "isFixedGasLimit": false
    },
    {
      "hash": "0xec44321dc0fa26a609442d9db40691fc129a2c04729693f02be759004aee5d34",
      "transactionType": "CALL",
      "contractName": null,
      "contractAddress": "0xf9ae13167b184faa4fea2f2e7249447f0e2a30a6",
      "function": "mint(address,uint32)",
      "arguments": [
        "0xAd9fDaD276AB1A430fD03177A07350CD7C61E897",
        "0"
      ],
      "transaction": {
        "from": "0xad9fdad276ab1a430fd03177a07350cd7c61e897",
        "to": "0xf9ae13167b184faa4fea2f2e7249447f0e2a30a6",
        "gas": "0x23675",
        "value": "0x0",
        "input": "0xd35e29d7000000000000000000000000ad9fdad276ab1a430fd03177a07350cd7c61e8970000000000000000000000000000000000000000000000000000000000000000",
        "nonce": "0x3ab",
        "chainId": "0xaa36a7"
      },
      "additionalContracts": [],
      "isFixedGasLimit": false
    },
    {
      "hash": "0x3f281296a09b3253e65d5c88953d83254304ea35fac489e93e0114eaface30ac",
      "transactionType": "CALL",
      "contractName": null,
      "contractAddress": "0xf9ae13167b184faa4fea2f2e7249447f0e2a30a6",
      "function": "mint(address,uint32)",
      "arguments": [
        "0xAd9fDaD276AB1A430fD03177A07350CD7C61E897",
        "0"
      ],
      "transaction": {
        "from": "0xad9fdad276ab1a430fd03177a07350cd7c61e897",
        "to": "0xf9ae13167b184faa4fea2f2e7249447f0e2a30a6",
        "gas": "0x23675",
        "value": "0x0",
        "input": "0xd35e29d7000000000000000000000000ad9fdad276ab1a430fd03177a07350cd7c61e8970000000000000000000000000000000000000000000000000000000000000000",
        "nonce": "0x3ac",
        "chainId": "0xaa36a7"
      },
      "additionalContracts": [],
      "isFixedGasLimit": false
    },
    {
      "hash": "0xd4dc0ec33922caab30ee37fe03bdcae7450a5dfe473a4ebcbd4ab79e4144b23b",
      "transactionType": "CALL",
      "contractName": null,
      "contractAddress": "0xf9ae13167b184faa4fea2f2e7249447f0e2a30a6",
      "function": "mint(address,uint32)",
      "arguments": [
        "0xAd9fDaD276AB1A430fD03177A07350CD7C61E897",
        "0"
      ],
      "transaction": {
        "from": "0xad9fdad276ab1a430fd03177a07350cd7c61e897",
        "to": "0xf9ae13167b184faa4fea2f2e7249447f0e2a30a6",
        "gas": "0x23675",
        "value": "0x0",
        "input": "0xd35e29d7000000000000000000000000ad9fdad276ab1a430fd03177a07350cd7c61e8970000000000000000000000000000000000000000000000000000000000000000",
        "nonce": "0x3ad",
        "chainId": "0xaa36a7"
      },
      "additionalContracts": [],
      "isFixedGasLimit": false
    },
    {
      "hash": "0xbca91d8a30bfba876aa85a48753f34d4bc86a00c39db5d2da11b3e0cd6b6a479",
      "transactionType": "CALL",
      "contractName": null,
      "contractAddress": "0xf9ae13167b184faa4fea2f2e7249447f0e2a30a6",
      "function": "mint(address,uint32)",
      "arguments": [
        "0xAd9fDaD276AB1A430fD03177A07350CD7C61E897",
        "0"
      ],
      "transaction": {
        "from": "0xad9fdad276ab1a430fd03177a07350cd7c61e897",
        "to": "0xf9ae13167b184faa4fea2f2e7249447f0e2a30a6",
        "gas": "0x23675",
        "value": "0x0",
        "input": "0xd35e29d7000000000000000000000000ad9fdad276ab1a430fd03177a07350cd7c61e8970000000000000000000000000000000000000000000000000000000000000000",
        "nonce": "0x3ae",
        "chainId": "0xaa36a7"
      },
      "additionalContracts": [],
      "isFixedGasLimit": false
    },
    {
      "hash": "0x709fa65e7b8d6f9fb0319b97088d7e717b9c8c1f0cc98e60fd7cbea9f0473999",
      "transactionType": "CALL",
      "contractName": null,
      "contractAddress": "0xf9ae13167b184faa4fea2f2e7249447f0e2a30a6",
      "function": "mint(address,uint32)",
      "arguments": [
        "0xAd9fDaD276AB1A430fD03177A07350CD7C61E897",
        "0"
      ],
      "transaction": {
        "from": "0xad9fdad276ab1a430fd03177a07350cd7c61e897",
        "to": "0xf9ae13167b184faa4fea2f2e7249447f0e2a30a6",
        "gas": "0x23675",
        "value": "0x0",
        "input": "0xd35e29d7000000000000000000000000ad9fdad276ab1a430fd03177a07350cd7c61e8970000000000000000000000000000000000000000000000000000000000000000",
        "nonce": "0x3af",
        "chainId": "0xaa36a7"
      },
      "additionalContracts": [],
      "isFixedGasLimit": false
    },
    {
      "hash": "0xcf3848bd849251fd01a2f095266b1ec3af72a60f3eb5664c18bd81b4742f98c0",
      "transactionType": "CALL",
      "contractName": null,
      "contractAddress": "0xf9ae13167b184faa4fea2f2e7249447f0e2a30a6",
      "function": "mint(address,uint32)",
      "arguments": [
        "0xAd9fDaD276AB1A430fD03177A07350CD7C61E897",
        "0"
      ],
      "transaction": {
        "from": "0xad9fdad276ab1a430fd03177a07350cd7c61e897",
        "to": "0xf9ae13167b184faa4fea2f2e7249447f0e2a30a6",
        "gas": "0x23675",
        "value": "0x0",
        "input": "0xd35e29d7000000000000000000000000ad9fdad276ab1a430fd03177a07350cd7c61e8970000000000000000000000000000000000000000000000000000000000000000",
        "nonce": "0x3b0",
        "chainId": "0xaa36a7"
      },
      "additionalContracts": [],
      "isFixedGasLimit": false
    },
    {
      "hash": "0x22ab8aefbe72e15524b176c0069bbbfd0db56709301353ce68d5b686d2decc45",
      "transactionType": "CALL",
      "contractName": null,
      "contractAddress": "0xf9ae13167b184faa4fea2f2e7249447f0e2a30a6",
      "function": "mint(address,uint32)",
      "arguments": [
        "0xAd9fDaD276AB1A430fD03177A07350CD7C61E897",
        "0"
      ],
      "transaction": {
        "from": "0xad9fdad276ab1a430fd03177a07350cd7c61e897",
        "to": "0xf9ae13167b184faa4fea2f2e7249447f0e2a30a6",
        "gas": "0x23675",
        "value": "0x0",
        "input": "0xd35e29d7000000000000000000000000ad9fdad276ab1a430fd03177a07350cd7c61e8970000000000000000000000000000000000000000000000000000000000000000",
        "nonce": "0x3b1",
        "chainId": "0xaa36a7"
      },
      "additionalContracts": [],
      "isFixedGasLimit": false
    },
    {
      "hash": "0x74ec33492f5ddfc3134211d74972652481a0259e49f6038af31a379abf3871b8",
      "transactionType": "CALL",
      "contractName": null,
      "contractAddress": "0xf9ae13167b184faa4fea2f2e7249447f0e2a30a6",
      "function": "mint(address,uint32)",
      "arguments": [
        "0xAd9fDaD276AB1A430fD03177A07350CD7C61E897",
        "0"
      ],
      "transaction": {
        "from": "0xad9fdad276ab1a430fd03177a07350cd7c61e897",
        "to": "0xf9ae13167b184faa4fea2f2e7249447f0e2a30a6",
        "gas": "0x23675",
        "value": "0x0",
        "input": "0xd35e29d7000000000000000000000000ad9fdad276ab1a430fd03177a07350cd7c61e8970000000000000000000000000000000000000000000000000000000000000000",
        "nonce": "0x3b2",
        "chainId": "0xaa36a7"
      },
      "additionalContracts": [],
      "isFixedGasLimit": false
    },
    {
      "hash": "0x1a2fd7d25c37e855dc938c2135b1b5aaffa89dfea7a40a9eef7c1fe86a527a9f",
      "transactionType": "CALL",
      "contractName": null,
      "contractAddress": "0xf9ae13167b184faa4fea2f2e7249447f0e2a30a6",
      "function": "mint(address,uint32)",
      "arguments": [
        "0xAd9fDaD276AB1A430fD03177A07350CD7C61E897",
        "0"
      ],
      "transaction": {
        "from": "0xad9fdad276ab1a430fd03177a07350cd7c61e897",
        "to": "0xf9ae13167b184faa4fea2f2e7249447f0e2a30a6",
        "gas": "0x23675",
        "value": "0x0",
        "input": "0xd35e29d7000000000000000000000000ad9fdad276ab1a430fd03177a07350cd7c61e8970000000000000000000000000000000000000000000000000000000000000000",
        "nonce": "0x3b3",
        "chainId": "0xaa36a7"
      },
      "additionalContracts": [],
      "isFixedGasLimit": false
    },
    {
      "hash": "0xde06365a259f0207c7d82894ad77e5ade898cfe8308116cb274a366130f1e100",
      "transactionType": "CALL",
      "contractName": null,
      "contractAddress": "0xf9ae13167b184faa4fea2f2e7249447f0e2a30a6",
      "function": "mint(address,uint32)",
      "arguments": [
        "0xAd9fDaD276AB1A430fD03177A07350CD7C61E897",
        "0"
      ],
      "transaction": {
        "from": "0xad9fdad276ab1a430fd03177a07350cd7c61e897",
        "to": "0xf9ae13167b184faa4fea2f2e7249447f0e2a30a6",
        "gas": "0x23675",
        "value": "0x0",
        "input": "0xd35e29d7000000000000000000000000ad9fdad276ab1a430fd03177a07350cd7c61e8970000000000000000000000000000000000000000000000000000000000000000",
        "nonce": "0x3b4",
        "chainId": "0xaa36a7"
      },
      "additionalContracts": [],
      "isFixedGasLimit": false
    },
    {
      "hash": "0xa47ac8b5873223613161948a1b277678bec85d0266e71f2345f243436990bc5e",
      "transactionType": "CALL",
      "contractName": null,
      "contractAddress": "0xf9ae13167b184faa4fea2f2e7249447f0e2a30a6",
      "function": "mint(address,uint32)",
      "arguments": [
        "0xAd9fDaD276AB1A430fD03177A07350CD7C61E897",
        "0"
      ],
      "transaction": {
        "from": "0xad9fdad276ab1a430fd03177a07350cd7c61e897",
        "to": "0xf9ae13167b184faa4fea2f2e7249447f0e2a30a6",
        "gas": "0x23675",
        "value": "0x0",
        "input": "0xd35e29d7000000000000000000000000ad9fdad276ab1a430fd03177a07350cd7c61e8970000000000000000000000000000000000000000000000000000000000000000",
        "nonce": "0x3b5",
        "chainId": "0xaa36a7"
      },
      "additionalContracts": [],
      "isFixedGasLimit": false
    },
    {
      "hash": "0x98f26a186367b42125f6af7430faafcf774d368c390c999c4c8ee82f7400704b",
      "transactionType": "CALL",
      "contractName": null,
      "contractAddress": "0xf9ae13167b184faa4fea2f2e7249447f0e2a30a6",
      "function": "mint(address,uint32)",
      "arguments": [
        "0xAd9fDaD276AB1A430fD03177A07350CD7C61E897",
        "0"
      ],
      "transaction": {
        "from": "0xad9fdad276ab1a430fd03177a07350cd7c61e897",
        "to": "0xf9ae13167b184faa4fea2f2e7249447f0e2a30a6",
        "gas": "0x23675",
        "value": "0x0",
        "input": "0xd35e29d7000000000000000000000000ad9fdad276ab1a430fd03177a07350cd7c61e8970000000000000000000000000000000000000000000000000000000000000000",
        "nonce": "0x3b6",
        "chainId": "0xaa36a7"
      },
      "additionalContracts": [],
      "isFixedGasLimit": false
    },
    {
      "hash": "0x752ac1bd68b8a7f0830c12c55abd4f5d79727f45a0c85a767debbb6377a69267",
      "transactionType": "CALL",
      "contractName": null,
      "contractAddress": "0xf9ae13167b184faa4fea2f2e7249447f0e2a30a6",
      "function": "mint(address,uint32)",
      "arguments": [
        "0xAd9fDaD276AB1A430fD03177A07350CD7C61E897",
        "0"
      ],
      "transaction": {
        "from": "0xad9fdad276ab1a430fd03177a07350cd7c61e897",
        "to": "0xf9ae13167b184faa4fea2f2e7249447f0e2a30a6",
        "gas": "0x23675",
        "value": "0x0",
        "input": "0xd35e29d7000000000000000000000000ad9fdad276ab1a430fd03177a07350cd7c61e8970000000000000000000000000000000000000000000000000000000000000000",
        "nonce": "0x3b7",
        "chainId": "0xaa36a7"
      },
      "additionalContracts": [],
      "isFixedGasLimit": false
    },
    {
      "hash": "0x8ff8413830d857bae1ba26299af4c228f686dc8500dfd22693df9bf55096c432",
      "transactionType": "CALL",
      "contractName": null,
      "contractAddress": "0xf9ae13167b184faa4fea2f2e7249447f0e2a30a6",
      "function": "mint(address,uint32)",
      "arguments": [
        "0xAd9fDaD276AB1A430fD03177A07350CD7C61E897",
        "0"
      ],
      "transaction": {
        "from": "0xad9fdad276ab1a430fd03177a07350cd7c61e897",
        "to": "0xf9ae13167b184faa4fea2f2e7249447f0e2a30a6",
        "gas": "0x23675",
        "value": "0x0",
        "input": "0xd35e29d7000000000000000000000000ad9fdad276ab1a430fd03177a07350cd7c61e8970000000000000000000000000000000000000000000000000000000000000000",
        "nonce": "0x3b8",
        "chainId": "0xaa36a7"
      },
      "additionalContracts": [],
      "isFixedGasLimit": false
    },
    {
      "hash": "0xc29b0577e471d6244dae0fd400b032989716015a2bf44be89b023552f0f56523",
      "transactionType": "CALL",
      "contractName": null,
      "contractAddress": "0xf9ae13167b184faa4fea2f2e7249447f0e2a30a6",
      "function": "mint(address,uint32)",
      "arguments": [
        "0xAd9fDaD276AB1A430fD03177A07350CD7C61E897",
        "0"
      ],
      "transaction": {
        "from": "0xad9fdad276ab1a430fd03177a07350cd7c61e897",
        "to": "0xf9ae13167b184faa4fea2f2e7249447f0e2a30a6",
        "gas": "0x23675",
        "value": "0x0",
        "input": "0xd35e29d7000000000000000000000000ad9fdad276ab1a430fd03177a07350cd7c61e8970000000000000000000000000000000000000000000000000000000000000000",
        "nonce": "0x3b9",
        "chainId": "0xaa36a7"
      },
      "additionalContracts": [],
      "isFixedGasLimit": false
    },
    {
      "hash": "0x5a42cf0119d4ef3c81aedc2ada1313bdf4486fca1841c482353f6a8461fead53",
      "transactionType": "CALL",
      "contractName": null,
      "contractAddress": "0xf9ae13167b184faa4fea2f2e7249447f0e2a30a6",
      "function": "mint(address,uint32)",
      "arguments": [
        "0xAd9fDaD276AB1A430fD03177A07350CD7C61E897",
        "0"
      ],
      "transaction": {
        "from": "0xad9fdad276ab1a430fd03177a07350cd7c61e897",
        "to": "0xf9ae13167b184faa4fea2f2e7249447f0e2a30a6",
        "gas": "0x23675",
        "value": "0x0",
        "input": "0xd35e29d7000000000000000000000000ad9fdad276ab1a430fd03177a07350cd7c61e8970000000000000000000000000000000000000000000000000000000000000000",
        "nonce": "0x3ba",
        "chainId": "0xaa36a7"
      },
      "additionalContracts": [],
      "isFixedGasLimit": false
    },
    {
      "hash": "0x2ee346ac2bb891c15ec988f523ddab320fbf9505d79815d549c58903cbd6cbd1",
      "transactionType": "CALL",
      "contractName": null,
      "contractAddress": "0xf9ae13167b184faa4fea2f2e7249447f0e2a30a6",
      "function": "mint(address,uint32)",
      "arguments": [
        "0xAd9fDaD276AB1A430fD03177A07350CD7C61E897",
        "0"
      ],
      "transaction": {
        "from": "0xad9fdad276ab1a430fd03177a07350cd7c61e897",
        "to": "0xf9ae13167b184faa4fea2f2e7249447f0e2a30a6",
        "gas": "0x23675",
        "value": "0x0",
        "input": "0xd35e29d7000000000000000000000000ad9fdad276ab1a430fd03177a07350cd7c61e8970000000000000000000000000000000000000000000000000000000000000000",
        "nonce": "0x3bb",
        "chainId": "0xaa36a7"
      },
      "additionalContracts": [],
      "isFixedGasLimit": false
    },
    {
      "hash": "0xc236ee28b0fb22e67e4de63041bcfef3852a6bcf9a45036513cb6dc14f8b704a",
      "transactionType": "CALL",
      "contractName": null,
      "contractAddress": "0xf9ae13167b184faa4fea2f2e7249447f0e2a30a6",
      "function": "mint(address,uint32)",
      "arguments": [
        "0xAd9fDaD276AB1A430fD03177A07350CD7C61E897",
        "0"
      ],
      "transaction": {
        "from": "0xad9fdad276ab1a430fd03177a07350cd7c61e897",
        "to": "0xf9ae13167b184faa4fea2f2e7249447f0e2a30a6",
        "gas": "0x23675",
        "value": "0x0",
        "input": "0xd35e29d7000000000000000000000000ad9fdad276ab1a430fd03177a07350cd7c61e8970000000000000000000000000000000000000000000000000000000000000000",
        "nonce": "0x3bc",
        "chainId": "0xaa36a7"
      },
      "additionalContracts": [],
      "isFixedGasLimit": false
    },
    {
      "hash": "0xf7421dbaba3ac55a1172f82c5de3a168163f60679d392d3b25ce402a684ebfac",
      "transactionType": "CALL",
      "contractName": null,
      "contractAddress": "0xf9ae13167b184faa4fea2f2e7249447f0e2a30a6",
      "function": "mint(address,uint32)",
      "arguments": [
        "0xAd9fDaD276AB1A430fD03177A07350CD7C61E897",
        "0"
      ],
      "transaction": {
        "from": "0xad9fdad276ab1a430fd03177a07350cd7c61e897",
        "to": "0xf9ae13167b184faa4fea2f2e7249447f0e2a30a6",
        "gas": "0x23675",
        "value": "0x0",
        "input": "0xd35e29d7000000000000000000000000ad9fdad276ab1a430fd03177a07350cd7c61e8970000000000000000000000000000000000000000000000000000000000000000",
        "nonce": "0x3bd",
        "chainId": "0xaa36a7"
      },
      "additionalContracts": [],
      "isFixedGasLimit": false
    },
    {
      "hash": "0xbe0349b06a32361f8214fc693c4287e6b88bc48900ab64286c2a85f2f02c1785",
      "transactionType": "CALL",
      "contractName": null,
      "contractAddress": "0xf9ae13167b184faa4fea2f2e7249447f0e2a30a6",
      "function": "mint(address,uint32)",
      "arguments": [
        "0xAd9fDaD276AB1A430fD03177A07350CD7C61E897",
        "0"
      ],
      "transaction": {
        "from": "0xad9fdad276ab1a430fd03177a07350cd7c61e897",
        "to": "0xf9ae13167b184faa4fea2f2e7249447f0e2a30a6",
        "gas": "0x23675",
        "value": "0x0",
        "input": "0xd35e29d7000000000000000000000000ad9fdad276ab1a430fd03177a07350cd7c61e8970000000000000000000000000000000000000000000000000000000000000000",
        "nonce": "0x3be",
        "chainId": "0xaa36a7"
      },
      "additionalContracts": [],
      "isFixedGasLimit": false
    },
    {
      "hash": "0xb825632d93d9acfb65d449edb121760ecccb3bd898423df2c6c8c7cc72292229",
      "transactionType": "CALL",
      "contractName": null,
      "contractAddress": "0xf9ae13167b184faa4fea2f2e7249447f0e2a30a6",
      "function": "mint(address,uint32)",
      "arguments": [
        "0xAd9fDaD276AB1A430fD03177A07350CD7C61E897",
        "0"
      ],
      "transaction": {
        "from": "0xad9fdad276ab1a430fd03177a07350cd7c61e897",
        "to": "0xf9ae13167b184faa4fea2f2e7249447f0e2a30a6",
        "gas": "0x23675",
        "value": "0x0",
        "input": "0xd35e29d7000000000000000000000000ad9fdad276ab1a430fd03177a07350cd7c61e8970000000000000000000000000000000000000000000000000000000000000000",
        "nonce": "0x3bf",
        "chainId": "0xaa36a7"
      },
      "additionalContracts": [],
      "isFixedGasLimit": false
    },
    {
      "hash": "0x7b09b0cf04ebb0422284f78751d0491e6c9c34df634aec428a387b32cc0b013b",
      "transactionType": "CALL",
      "contractName": null,
      "contractAddress": "0xf9ae13167b184faa4fea2f2e7249447f0e2a30a6",
      "function": "mint(address,uint32)",
      "arguments": [
        "0xAd9fDaD276AB1A430fD03177A07350CD7C61E897",
        "0"
      ],
      "transaction": {
        "from": "0xad9fdad276ab1a430fd03177a07350cd7c61e897",
        "to": "0xf9ae13167b184faa4fea2f2e7249447f0e2a30a6",
        "gas": "0x23675",
        "value": "0x0",
        "input": "0xd35e29d7000000000000000000000000ad9fdad276ab1a430fd03177a07350cd7c61e8970000000000000000000000000000000000000000000000000000000000000000",
        "nonce": "0x3c0",
        "chainId": "0xaa36a7"
      },
      "additionalContracts": [],
      "isFixedGasLimit": false
    },
    {
      "hash": "0x4fdc30ed1d0417ac69b3d58214b02d6ba4588b4b9e4b943c36ae8837a286e209",
      "transactionType": "CALL",
      "contractName": null,
      "contractAddress": "0xf9ae13167b184faa4fea2f2e7249447f0e2a30a6",
      "function": "mint(address,uint32)",
      "arguments": [
        "0xAd9fDaD276AB1A430fD03177A07350CD7C61E897",
        "0"
      ],
      "transaction": {
        "from": "0xad9fdad276ab1a430fd03177a07350cd7c61e897",
        "to": "0xf9ae13167b184faa4fea2f2e7249447f0e2a30a6",
        "gas": "0x23675",
        "value": "0x0",
        "input": "0xd35e29d7000000000000000000000000ad9fdad276ab1a430fd03177a07350cd7c61e8970000000000000000000000000000000000000000000000000000000000000000",
        "nonce": "0x3c1",
        "chainId": "0xaa36a7"
      },
      "additionalContracts": [],
      "isFixedGasLimit": false
    },
    {
      "hash": "0xdcf51f307f67a58dc567584264ab3ddd079152173a003f98bd17cfd6ae417274",
      "transactionType": "CALL",
      "contractName": null,
      "contractAddress": "0xf9ae13167b184faa4fea2f2e7249447f0e2a30a6",
      "function": "mint(address,uint32)",
      "arguments": [
        "0xAd9fDaD276AB1A430fD03177A07350CD7C61E897",
        "0"
      ],
      "transaction": {
        "from": "0xad9fdad276ab1a430fd03177a07350cd7c61e897",
        "to": "0xf9ae13167b184faa4fea2f2e7249447f0e2a30a6",
        "gas": "0x23675",
        "value": "0x0",
        "input": "0xd35e29d7000000000000000000000000ad9fdad276ab1a430fd03177a07350cd7c61e8970000000000000000000000000000000000000000000000000000000000000000",
        "nonce": "0x3c2",
        "chainId": "0xaa36a7"
      },
      "additionalContracts": [],
      "isFixedGasLimit": false
    },
    {
      "hash": "0x5ded606b58065de62c21d1a0bdec44f790dadc2858eb6a497483150dbe43b590",
      "transactionType": "CALL",
      "contractName": null,
      "contractAddress": "0xf9ae13167b184faa4fea2f2e7249447f0e2a30a6",
      "function": "mint(address,uint32)",
      "arguments": [
        "0xAd9fDaD276AB1A430fD03177A07350CD7C61E897",
        "0"
      ],
      "transaction": {
        "from": "0xad9fdad276ab1a430fd03177a07350cd7c61e897",
        "to": "0xf9ae13167b184faa4fea2f2e7249447f0e2a30a6",
        "gas": "0x23675",
        "value": "0x0",
        "input": "0xd35e29d7000000000000000000000000ad9fdad276ab1a430fd03177a07350cd7c61e8970000000000000000000000000000000000000000000000000000000000000000",
        "nonce": "0x3c3",
        "chainId": "0xaa36a7"
      },
      "additionalContracts": [],
      "isFixedGasLimit": false
    },
    {
      "hash": "0xe27affc3268d3acee41f567cb0b2898090639a71a342936e762f61724e95beb3",
      "transactionType": "CALL",
      "contractName": null,
      "contractAddress": "0xf9ae13167b184faa4fea2f2e7249447f0e2a30a6",
      "function": "mint(address,uint32)",
      "arguments": [
        "0xAd9fDaD276AB1A430fD03177A07350CD7C61E897",
        "0"
      ],
      "transaction": {
        "from": "0xad9fdad276ab1a430fd03177a07350cd7c61e897",
        "to": "0xf9ae13167b184faa4fea2f2e7249447f0e2a30a6",
        "gas": "0x23675",
        "value": "0x0",
        "input": "0xd35e29d7000000000000000000000000ad9fdad276ab1a430fd03177a07350cd7c61e8970000000000000000000000000000000000000000000000000000000000000000",
        "nonce": "0x3c4",
        "chainId": "0xaa36a7"
      },
      "additionalContracts": [],
      "isFixedGasLimit": false
    }
  ],
  "receipts": [
    {
      "status": "0x1",
      "cumulativeGasUsed": "0xb47460",
      "logs": [
        {
          "address": "0xf9ae13167b184faa4fea2f2e7249447f0e2a30a6",
          "topics": [
            "0xddf252ad1be2c89b69c2b068fc378daa952ba7f163c4a11628f55a4df523b3ef",
            "0x0000000000000000000000000000000000000000000000000000000000000000",
            "0x000000000000000000000000ad9fdad276ab1a430fd03177a07350cd7c61e897",
            "0x0000000000000000000000000000000000000000000000000000000000000001"
          ],
          "data": "0x",
          "blockHash": "0xe942a19f0062ee428288b6a5f03c443740f3d4c9eb0597656559a8741b2e8726",
          "blockNumber": "0x9170f6",
          "blockTimestamp": "0x6904f74c",
          "transactionHash": "0x7e163827e81e25f16dd3e4fea8bc456592a97301b248c23a735891322e7d35fc",
          "transactionIndex": "0x79",
          "logIndex": "0xa9",
          "removed": false
        }
      ],
      "logsBloom": "0x0000000000000000000000000000000000000000000000000000000000000000000000000000000000000000000000000000000000000000000000000004000000000000000000c000000008000000000000000000040000000000000000000000000000020000000000000800000800000000000000000000000010000000000000000000000040000000800000000000000000000000000000000000000000000010000000000000000000000000000000000000000000000000000000000000000002000000000000000000000000000000000000000000000000000060000000000000000000000000000000000000000000000000000000000000000000",
      "type": "0x0",
      "transactionHash": "0x7e163827e81e25f16dd3e4fea8bc456592a97301b248c23a735891322e7d35fc",
      "transactionIndex": "0x79",
      "blockHash": "0xe942a19f0062ee428288b6a5f03c443740f3d4c9eb0597656559a8741b2e8726",
      "blockNumber": "0x9170f6",
      "gasUsed": "0x1d1f8",
      "effectiveGasPrice": "0xf4240",
      "from": "0xad9fdad276ab1a430fd03177a07350cd7c61e897",
      "to": "0xf9ae13167b184faa4fea2f2e7249447f0e2a30a6",
      "contractAddress": null
    },
    {
      "status": "0x1",
      "cumulativeGasUsed": "0xb60e7c",
      "logs": [
        {
          "address": "0xf9ae13167b184faa4fea2f2e7249447f0e2a30a6",
          "topics": [
            "0xddf252ad1be2c89b69c2b068fc378daa952ba7f163c4a11628f55a4df523b3ef",
            "0x0000000000000000000000000000000000000000000000000000000000000000",
            "0x000000000000000000000000ad9fdad276ab1a430fd03177a07350cd7c61e897",
            "0x0000000000000000000000000000000000000000000000000000000000000002"
          ],
          "data": "0x",
          "blockHash": "0xe942a19f0062ee428288b6a5f03c443740f3d4c9eb0597656559a8741b2e8726",
          "blockNumber": "0x9170f6",
          "blockTimestamp": "0x6904f74c",
          "transactionHash": "0x5964dc8e54df47a64e02cac9cbd2c171ed2ed857e72d22ef0b4ee31264345d29",
          "transactionIndex": "0x7a",
          "logIndex": "0xaa",
          "removed": false
        }
      ],
      "logsBloom": "0x0400000000000000000000000000000000000000000000000000000000000000000000000000000000000000000000000000000000000000000000000000000000000000000000c000000008000000000000000000000000000000000000000000000000020000000000000800000800000000000000000000000010000000000000000000000040000000800000000000000000000000000000000000000000000010000000000000000100000000000000000000000000000000000000000000000002000000000000000000000000000000000000000000000000000020000000000000000000000000000000000000000000008000000000000000000000",
      "type": "0x0",
      "transactionHash": "0x5964dc8e54df47a64e02cac9cbd2c171ed2ed857e72d22ef0b4ee31264345d29",
      "transactionIndex": "0x7a",
      "blockHash": "0xe942a19f0062ee428288b6a5f03c443740f3d4c9eb0597656559a8741b2e8726",
      "blockNumber": "0x9170f6",
      "gasUsed": "0x19a1c",
      "effectiveGasPrice": "0xf4240",
      "from": "0xad9fdad276ab1a430fd03177a07350cd7c61e897",
      "to": "0xf9ae13167b184faa4fea2f2e7249447f0e2a30a6",
      "contractAddress": null
    },
    {
      "status": "0x1",
      "cumulativeGasUsed": "0xb7a898",
      "logs": [
        {
          "address": "0xf9ae13167b184faa4fea2f2e7249447f0e2a30a6",
          "topics": [
            "0xddf252ad1be2c89b69c2b068fc378daa952ba7f163c4a11628f55a4df523b3ef",
            "0x0000000000000000000000000000000000000000000000000000000000000000",
            "0x000000000000000000000000ad9fdad276ab1a430fd03177a07350cd7c61e897",
            "0x0000000000000000000000000000000000000000000000000000000000000003"
          ],
          "data": "0x",
          "blockHash": "0xe942a19f0062ee428288b6a5f03c443740f3d4c9eb0597656559a8741b2e8726",
          "blockNumber": "0x9170f6",
          "blockTimestamp": "0x6904f74c",
          "transactionHash": "0x825675eb313a7135d99aef27f9a510f2ad7b0f37426f3772a190ebe41b45c78a",
          "transactionIndex": "0x7b",
          "logIndex": "0xab",
          "removed": false
        }
      ],
      "logsBloom": "0x0000000000000000000000000000000000000000000000000000000000000000000000000000000000000000000000000000000002000000000000000000000000000000000000c000000008000000000000000000000000000000000000000000000000020000000000000800000800000000000000000000000010000000000000000000000040000000800000000000000000000000000000000000000000000010000000000000000000000000000000000000800000000000000000400000000002000000000000000000000000000000000000000000000000000020000000000000000000000000000000000000000000000000000000000000000000",
      "type": "0x0",
      "transactionHash": "0x825675eb313a7135d99aef27f9a510f2ad7b0f37426f3772a190ebe41b45c78a",
      "transactionIndex": "0x7b",
      "blockHash": "0xe942a19f0062ee428288b6a5f03c443740f3d4c9eb0597656559a8741b2e8726",
      "blockNumber": "0x9170f6",
      "gasUsed": "0x19a1c",
      "effectiveGasPrice": "0xf4240",
      "from": "0xad9fdad276ab1a430fd03177a07350cd7c61e897",
      "to": "0xf9ae13167b184faa4fea2f2e7249447f0e2a30a6",
      "contractAddress": null
    },
    {
      "status": "0x1",
      "cumulativeGasUsed": "0xb942b4",
      "logs": [
        {
          "address": "0xf9ae13167b184faa4fea2f2e7249447f0e2a30a6",
          "topics": [
            "0xddf252ad1be2c89b69c2b068fc378daa952ba7f163c4a11628f55a4df523b3ef",
            "0x0000000000000000000000000000000000000000000000000000000000000000",
            "0x000000000000000000000000ad9fdad276ab1a430fd03177a07350cd7c61e897",
            "0x0000000000000000000000000000000000000000000000000000000000000004"
          ],
          "data": "0x",
          "blockHash": "0xe942a19f0062ee428288b6a5f03c443740f3d4c9eb0597656559a8741b2e8726",
          "blockNumber": "0x9170f6",
          "blockTimestamp": "0x6904f74c",
          "transactionHash": "0x0c06f69f27efc976964cf074e29724918a6d96936859dcee255fb9f9f0ae3a4c",
          "transactionIndex": "0x7c",
          "logIndex": "0xac",
          "removed": false
        }
      ],
      "logsBloom": "0x0000000000000000000000000000000000000000000000000000000000000000000000000000000000000000000000000000000000000000000000000000000000000000000000c000000008000000000000000000000000000000000000000008000000020000000000000800000800000000000000000000000010000000000000000000000040000000800000000000000000000000000000000000000000000010000000000000000000000000000000000000000000002000000000000000000002000000000000000000000000000000008000000000000000000020000000000000000000000000000000000000000000000000000000000000000000",
      "type": "0x0",
      "transactionHash": "0x0c06f69f27efc976964cf074e29724918a6d96936859dcee255fb9f9f0ae3a4c",
      "transactionIndex": "0x7c",
      "blockHash": "0xe942a19f0062ee428288b6a5f03c443740f3d4c9eb0597656559a8741b2e8726",
      "blockNumber": "0x9170f6",
      "gasUsed": "0x19a1c",
      "effectiveGasPrice": "0xf4240",
      "from": "0xad9fdad276ab1a430fd03177a07350cd7c61e897",
      "to": "0xf9ae13167b184faa4fea2f2e7249447f0e2a30a6",
      "contractAddress": null
    },
    {
      "status": "0x1",
      "cumulativeGasUsed": "0xbadcd0",
      "logs": [
        {
          "address": "0xf9ae13167b184faa4fea2f2e7249447f0e2a30a6",
          "topics": [
            "0xddf252ad1be2c89b69c2b068fc378daa952ba7f163c4a11628f55a4df523b3ef",
            "0x0000000000000000000000000000000000000000000000000000000000000000",
            "0x000000000000000000000000ad9fdad276ab1a430fd03177a07350cd7c61e897",
            "0x0000000000000000000000000000000000000000000000000000000000000005"
          ],
          "data": "0x",
          "blockHash": "0xe942a19f0062ee428288b6a5f03c443740f3d4c9eb0597656559a8741b2e8726",
          "blockNumber": "0x9170f6",
          "blockTimestamp": "0x6904f74c",
          "transactionHash": "0x094d220e46bdaeba6585a1e4aca903d29ada69a85c3a0656875f5e27e029f4c9",
          "transactionIndex": "0x7d",
          "logIndex": "0xad",
          "removed": false
        }
      ],
      "logsBloom": "0x0000000000000000000000000000000000000000000000000000000000000000000000000000000000000000000000000000000000000000000000000000000000001000000000c000000008000000000000000000000000000000000000000000000000020000000000000800000800000000000000000000000010000000000000000000000040000000800000001000000800000000000000000000000000000010000000000000000000000000000000000000000000000000000000000000000002000000000000000000000000000000000000000000000000000020000000000000000000000000000000000000000000000000000000000000000000",
      "type": "0x0",
      "transactionHash": "0x094d220e46bdaeba6585a1e4aca903d29ada69a85c3a0656875f5e27e029f4c9",
      "transactionIndex": "0x7d",
      "blockHash": "0xe942a19f0062ee428288b6a5f03c443740f3d4c9eb0597656559a8741b2e8726",
      "blockNumber": "0x9170f6",
      "gasUsed": "0x19a1c",
      "effectiveGasPrice": "0xf4240",
      "from": "0xad9fdad276ab1a430fd03177a07350cd7c61e897",
      "to": "0xf9ae13167b184faa4fea2f2e7249447f0e2a30a6",
      "contractAddress": null
    },
    {
      "status": "0x1",
      "cumulativeGasUsed": "0xbc76ec",
      "logs": [
        {
          "address": "0xf9ae13167b184faa4fea2f2e7249447f0e2a30a6",
          "topics": [
            "0xddf252ad1be2c89b69c2b068fc378daa952ba7f163c4a11628f55a4df523b3ef",
            "0x0000000000000000000000000000000000000000000000000000000000000000",
            "0x000000000000000000000000ad9fdad276ab1a430fd03177a07350cd7c61e897",
            "0x0000000000000000000000000000000000000000000000000000000000000006"
          ],
          "data": "0x",
          "blockHash": "0xe942a19f0062ee428288b6a5f03c443740f3d4c9eb0597656559a8741b2e8726",
          "blockNumber": "0x9170f6",
          "blockTimestamp": "0x6904f74c",
          "transactionHash": "0x450369437fee99440c906b046586f93bdf3a57fee447e5e2f4b565de4b688859",
          "transactionIndex": "0x7e",
          "logIndex": "0xae",
          "removed": false
        }
      ],
      "logsBloom": "0x0000000000000000000000000000000000000000000000000000000000000000000000000000000000000000000000000000000000040000000000000000000000000000000000c000000008000000000000000000000000000000000000000000000000020000000000000800000800000000000000000000000010000000000000000400000040000000800000000000000000000000000000000000000000000010000000000000000000000000000000000000000000000000080000000000000002000000000000000000000000000000000000000000000000000020000000000000000000000000000000000000000000000000000000000000000000",
      "type": "0x0",
      "transactionHash": "0x450369437fee99440c906b046586f93bdf3a57fee447e5e2f4b565de4b688859",
      "transactionIndex": "0x7e",
      "blockHash": "0xe942a19f0062ee428288b6a5f03c443740f3d4c9eb0597656559a8741b2e8726",
      "blockNumber": "0x9170f6",
      "gasUsed": "0x19a1c",
      "effectiveGasPrice": "0xf4240",
      "from": "0xad9fdad276ab1a430fd03177a07350cd7c61e897",
      "to": "0xf9ae13167b184faa4fea2f2e7249447f0e2a30a6",
      "contractAddress": null
    },
    {
      "status": "0x1",
      "cumulativeGasUsed": "0xbe1108",
      "logs": [
        {
          "address": "0xf9ae13167b184faa4fea2f2e7249447f0e2a30a6",
          "topics": [
            "0xddf252ad1be2c89b69c2b068fc378daa952ba7f163c4a11628f55a4df523b3ef",
            "0x0000000000000000000000000000000000000000000000000000000000000000",
            "0x000000000000000000000000ad9fdad276ab1a430fd03177a07350cd7c61e897",
            "0x0000000000000000000000000000000000000000000000000000000000000007"
          ],
          "data": "0x",
          "blockHash": "0xe942a19f0062ee428288b6a5f03c443740f3d4c9eb0597656559a8741b2e8726",
          "blockNumber": "0x9170f6",
          "blockTimestamp": "0x6904f74c",
          "transactionHash": "0x3b8122172d05eb2507648c6513390d6edfc28f8488fead332acc9bda724cd187",
          "transactionIndex": "0x7f",
          "logIndex": "0xaf",
          "removed": false
        }
      ],
      "logsBloom": "0x0000000000000000000000000000000000000000000000000000000000000000000000000000000000000000000000000000100000000000000000000000000000002000000000c000000008000000000000000000000000000000000000000000000000020000000000000800000800000000000000000000000010000000000000000000000040000000800000000000000000000000000000000000000000000010000000000000000000000000000000000000000000000000000000000000000002000000000000000000000000000000000000000000000100000020000000000000000000000000000000000000000000000000000000000000000000",
      "type": "0x0",
      "transactionHash": "0x3b8122172d05eb2507648c6513390d6edfc28f8488fead332acc9bda724cd187",
      "transactionIndex": "0x7f",
      "blockHash": "0xe942a19f0062ee428288b6a5f03c443740f3d4c9eb0597656559a8741b2e8726",
      "blockNumber": "0x9170f6",
      "gasUsed": "0x19a1c",
      "effectiveGasPrice": "0xf4240",
      "from": "0xad9fdad276ab1a430fd03177a07350cd7c61e897",
      "to": "0xf9ae13167b184faa4fea2f2e7249447f0e2a30a6",
      "contractAddress": null
    },
    {
      "status": "0x1",
      "cumulativeGasUsed": "0xc268fb",
      "logs": [
        {
          "address": "0xf9ae13167b184faa4fea2f2e7249447f0e2a30a6",
          "topics": [
            "0xddf252ad1be2c89b69c2b068fc378daa952ba7f163c4a11628f55a4df523b3ef",
            "0x0000000000000000000000000000000000000000000000000000000000000000",
            "0x000000000000000000000000ad9fdad276ab1a430fd03177a07350cd7c61e897",
            "0x0000000000000000000000000000000000000000000000000000000000000008"
          ],
          "data": "0x",
          "blockHash": "0xe942a19f0062ee428288b6a5f03c443740f3d4c9eb0597656559a8741b2e8726",
          "blockNumber": "0x9170f6",
          "blockTimestamp": "0x6904f74c",
          "transactionHash": "0x99877dfd3e94501cd83470ab67cd878d9ccfe4114bbc1c71a0557cba1d12ae99",
          "transactionIndex": "0x84",
          "logIndex": "0xb2",
          "removed": false
        }
      ],
      "logsBloom": "0x0000000000000000000000000000000000000000000000000000000000000000000000000000000000000000000000000000000000008000000000000000000000000000000000c000000008000000000000000000000000000000000000000000000000020000000000000800000800000000000000000000000010000000000080000000000040000000800000000000000000000000000000000000000000000010000000000000000000000000000000000000000000000000000000000040000002000000000000000000000000000000000000000000000000000020000000000000000000000000000000000000000000000000000000000000000000",
      "type": "0x0",
      "transactionHash": "0x99877dfd3e94501cd83470ab67cd878d9ccfe4114bbc1c71a0557cba1d12ae99",
      "transactionIndex": "0x84",
      "blockHash": "0xe942a19f0062ee428288b6a5f03c443740f3d4c9eb0597656559a8741b2e8726",
      "blockNumber": "0x9170f6",
      "gasUsed": "0x19a1c",
      "effectiveGasPrice": "0xf4240",
      "from": "0xad9fdad276ab1a430fd03177a07350cd7c61e897",
      "to": "0xf9ae13167b184faa4fea2f2e7249447f0e2a30a6",
      "contractAddress": null
    },
    {
      "status": "0x1",
      "cumulativeGasUsed": "0xc40317",
      "logs": [
        {
          "address": "0xf9ae13167b184faa4fea2f2e7249447f0e2a30a6",
          "topics": [
            "0xddf252ad1be2c89b69c2b068fc378daa952ba7f163c4a11628f55a4df523b3ef",
            "0x0000000000000000000000000000000000000000000000000000000000000000",
            "0x000000000000000000000000ad9fdad276ab1a430fd03177a07350cd7c61e897",
            "0x0000000000000000000000000000000000000000000000000000000000000009"
          ],
          "data": "0x",
          "blockHash": "0xe942a19f0062ee428288b6a5f03c443740f3d4c9eb0597656559a8741b2e8726",
          "blockNumber": "0x9170f6",
          "blockTimestamp": "0x6904f74c",
          "transactionHash": "0xa822a3fd2e8104fa79781739cb9f2426cf019e79e3a6afdeed7bd19548711819",
          "transactionIndex": "0x85",
          "logIndex": "0xb3",
          "removed": false
        }
      ],
      "logsBloom": "0x0000000000000000000000000000000000000000000000000000000000000000000000000000000000000000000000000000000000000000000000000020000000000000000000c000000008000000000000000000000000000000000000000000000000020000000000000800000800000000000000000000000010000000000000000000000040000000800000000000001000000000000000000000000000000010000000000000000000000000000000000000000000000000000000000000000002000000000000000000000000000000000000000000000000000020000000000000000000000000000000000000000000000000000000000000800000",
      "type": "0x0",
      "transactionHash": "0xa822a3fd2e8104fa79781739cb9f2426cf019e79e3a6afdeed7bd19548711819",
      "transactionIndex": "0x85",
      "blockHash": "0xe942a19f0062ee428288b6a5f03c443740f3d4c9eb0597656559a8741b2e8726",
      "blockNumber": "0x9170f6",
      "gasUsed": "0x19a1c",
      "effectiveGasPrice": "0xf4240",
      "from": "0xad9fdad276ab1a430fd03177a07350cd7c61e897",
      "to": "0xf9ae13167b184faa4fea2f2e7249447f0e2a30a6",
      "contractAddress": null
    },
    {
      "status": "0x1",
      "cumulativeGasUsed": "0xc59d33",
      "logs": [
        {
          "address": "0xf9ae13167b184faa4fea2f2e7249447f0e2a30a6",
          "topics": [
            "0xddf252ad1be2c89b69c2b068fc378daa952ba7f163c4a11628f55a4df523b3ef",
            "0x0000000000000000000000000000000000000000000000000000000000000000",
            "0x000000000000000000000000ad9fdad276ab1a430fd03177a07350cd7c61e897",
            "0x000000000000000000000000000000000000000000000000000000000000000a"
          ],
          "data": "0x",
          "blockHash": "0xe942a19f0062ee428288b6a5f03c443740f3d4c9eb0597656559a8741b2e8726",
          "blockNumber": "0x9170f6",
          "blockTimestamp": "0x6904f74c",
          "transactionHash": "0x67070c2114b39b52dc14455f3a14e99a5ae80a1252de74e260d9e73407c08d78",
          "transactionIndex": "0x86",
          "logIndex": "0xb4",
          "removed": false
        }
      ],
      "logsBloom": "0x0000000000000000000000000000000000000000000000000000000000000000000000000000000000000000000000000000000004000000002000000000000000000000000000c000000008000000000000000000000000000000000000000000000000020000000000000800000800000000000000000000000010000000000000000000000040010000800000000000000000000000000000000000000000000010000000000000000000000000000000000000000000000000000000000000000002000000000000000000000000000000000000000000000000000020000000000000000000000000000000000000000000000000000000000000000000",
      "type": "0x0",
      "transactionHash": "0x67070c2114b39b52dc14455f3a14e99a5ae80a1252de74e260d9e73407c08d78",
      "transactionIndex": "0x86",
      "blockHash": "0xe942a19f0062ee428288b6a5f03c443740f3d4c9eb0597656559a8741b2e8726",
      "blockNumber": "0x9170f6",
      "gasUsed": "0x19a1c",
      "effectiveGasPrice": "0xf4240",
      "from": "0xad9fdad276ab1a430fd03177a07350cd7c61e897",
      "to": "0xf9ae13167b184faa4fea2f2e7249447f0e2a30a6",
      "contractAddress": null
    },
    {
      "status": "0x1",
      "cumulativeGasUsed": "0xc7374f",
      "logs": [
        {
          "address": "0xf9ae13167b184faa4fea2f2e7249447f0e2a30a6",
          "topics": [
            "0xddf252ad1be2c89b69c2b068fc378daa952ba7f163c4a11628f55a4df523b3ef",
            "0x0000000000000000000000000000000000000000000000000000000000000000",
            "0x000000000000000000000000ad9fdad276ab1a430fd03177a07350cd7c61e897",
            "0x000000000000000000000000000000000000000000000000000000000000000b"
          ],
          "data": "0x",
          "blockHash": "0xe942a19f0062ee428288b6a5f03c443740f3d4c9eb0597656559a8741b2e8726",
          "blockNumber": "0x9170f6",
          "blockTimestamp": "0x6904f74c",
          "transactionHash": "0xe05b6b1d127a85ca9e8e61d07b12734a0cc673a4d12ef0c4f584956ba00d769f",
          "transactionIndex": "0x87",
          "logIndex": "0xb5",
          "removed": false
        }
      ],
      "logsBloom": "0x0000000000000000000000400000000000000000000000000000000000000000000000000000000000000000000000000000000000000000000000000000000000000000000000c000000008000000000000000000000000000000000000000000000000020000000000000800000800000000000000000000000010000000000000000000000040000000800000000000000000000000000000000000000000000010000000000000000000000000000000000000000000000000000000000000000002000000000000000000000000002000000000000000000000000020000000000000000000000000000000000000000000000000040000000000000000",
      "type": "0x0",
      "transactionHash": "0xe05b6b1d127a85ca9e8e61d07b12734a0cc673a4d12ef0c4f584956ba00d769f",
      "transactionIndex": "0x87",
      "blockHash": "0xe942a19f0062ee428288b6a5f03c443740f3d4c9eb0597656559a8741b2e8726",
      "blockNumber": "0x9170f6",
      "gasUsed": "0x19a1c",
      "effectiveGasPrice": "0xf4240",
      "from": "0xad9fdad276ab1a430fd03177a07350cd7c61e897",
      "to": "0xf9ae13167b184faa4fea2f2e7249447f0e2a30a6",
      "contractAddress": null
    },
    {
      "status": "0x1",
      "cumulativeGasUsed": "0xc8d16b",
      "logs": [
        {
          "address": "0xf9ae13167b184faa4fea2f2e7249447f0e2a30a6",
          "topics": [
            "0xddf252ad1be2c89b69c2b068fc378daa952ba7f163c4a11628f55a4df523b3ef",
            "0x0000000000000000000000000000000000000000000000000000000000000000",
            "0x000000000000000000000000ad9fdad276ab1a430fd03177a07350cd7c61e897",
            "0x000000000000000000000000000000000000000000000000000000000000000c"
          ],
          "data": "0x",
          "blockHash": "0xe942a19f0062ee428288b6a5f03c443740f3d4c9eb0597656559a8741b2e8726",
          "blockNumber": "0x9170f6",
          "blockTimestamp": "0x6904f74c",
          "transactionHash": "0x5dcbd97d4f14c7a6348a5b105f2fac5fa5c0168da180964fda452be2edc3cb6f",
          "transactionIndex": "0x88",
          "logIndex": "0xb6",
          "removed": false
        }
      ],
      "logsBloom": "0x0000000000000000000000000000000000000200000000000000000000000000000000000000020000000000000000000000000000000000000000000000000000000000000000c000000008000000000000000000000000000000000000000000000000020000000000000800000800000000000000000000000010000000000000000000000040000000800000000000000000000000000000000000000000000010000000000000000000000000000000000000000000000000000000000000000002000000000000000000000000000000000000000000000000000020200000000000000000000000000000000000000000000000000000000000000000",
      "type": "0x0",
      "transactionHash": "0x5dcbd97d4f14c7a6348a5b105f2fac5fa5c0168da180964fda452be2edc3cb6f",
      "transactionIndex": "0x88",
      "blockHash": "0xe942a19f0062ee428288b6a5f03c443740f3d4c9eb0597656559a8741b2e8726",
      "blockNumber": "0x9170f6",
      "gasUsed": "0x19a1c",
      "effectiveGasPrice": "0xf4240",
      "from": "0xad9fdad276ab1a430fd03177a07350cd7c61e897",
      "to": "0xf9ae13167b184faa4fea2f2e7249447f0e2a30a6",
      "contractAddress": null
    },
    {
      "status": "0x1",
      "cumulativeGasUsed": "0xca6b87",
      "logs": [
        {
          "address": "0xf9ae13167b184faa4fea2f2e7249447f0e2a30a6",
          "topics": [
            "0xddf252ad1be2c89b69c2b068fc378daa952ba7f163c4a11628f55a4df523b3ef",
            "0x0000000000000000000000000000000000000000000000000000000000000000",
            "0x000000000000000000000000ad9fdad276ab1a430fd03177a07350cd7c61e897",
            "0x000000000000000000000000000000000000000000000000000000000000000d"
          ],
          "data": "0x",
          "blockHash": "0xe942a19f0062ee428288b6a5f03c443740f3d4c9eb0597656559a8741b2e8726",
          "blockNumber": "0x9170f6",
          "blockTimestamp": "0x6904f74c",
          "transactionHash": "0x738670852065f3910c483b24052f28f99b5cc48a5ff24b4d42b4d9e9bc0affc6",
          "transactionIndex": "0x89",
          "logIndex": "0xb7",
          "removed": false
        }
      ],
      "logsBloom": "0x0000000000000000004000000000000000000000000000000000000000000000000000000000000000000000000000000000000000000000000000000000000000000000000000c000000008000000000002000000000000000000000000000000000000020000000000000800000800000000000000000000000010000000000000000000000040000000800000000000000000000000000000000000000000000010000000000000000000000000000000000000000000000000000000000000000002000000000000000000000000000000000000000000000000000020020000000000000000000000000000000000000000000000000000000000000000",
      "type": "0x0",
      "transactionHash": "0x738670852065f3910c483b24052f28f99b5cc48a5ff24b4d42b4d9e9bc0affc6",
      "transactionIndex": "0x89",
      "blockHash": "0xe942a19f0062ee428288b6a5f03c443740f3d4c9eb0597656559a8741b2e8726",
      "blockNumber": "0x9170f6",
      "gasUsed": "0x19a1c",
      "effectiveGasPrice": "0xf4240",
      "from": "0xad9fdad276ab1a430fd03177a07350cd7c61e897",
      "to": "0xf9ae13167b184faa4fea2f2e7249447f0e2a30a6",
      "contractAddress": null
    },
    {
      "status": "0x1",
      "cumulativeGasUsed": "0xcc05a3",
      "logs": [
        {
          "address": "0xf9ae13167b184faa4fea2f2e7249447f0e2a30a6",
          "topics": [
            "0xddf252ad1be2c89b69c2b068fc378daa952ba7f163c4a11628f55a4df523b3ef",
            "0x0000000000000000000000000000000000000000000000000000000000000000",
            "0x000000000000000000000000ad9fdad276ab1a430fd03177a07350cd7c61e897",
            "0x000000000000000000000000000000000000000000000000000000000000000e"
          ],
          "data": "0x",
          "blockHash": "0xe942a19f0062ee428288b6a5f03c443740f3d4c9eb0597656559a8741b2e8726",
          "blockNumber": "0x9170f6",
          "blockTimestamp": "0x6904f74c",
          "transactionHash": "0x1295946dad3e44e8fab8caa564d9ef1d2c3100cd0da558ff45dd1bc7efd0c6ff",
          "transactionIndex": "0x8a",
          "logIndex": "0xb8",
          "removed": false
        }
      ],
      "logsBloom": "0x0000000000000000000000000000000000000000000000000000000000000000000000000000000000000000000000000000000000000000000000000000000000000000000000c800000008000000000000000000000000000000000000000000000000020000000000000800000800000000000000000000000010000000000000000000000040000000800000000008000000000000000000000000000000000010000000000000000000000000000000000000000020000000000000000000000002000000000000000000000000000000000000000000000000000020000000000000000000000000000000000000000000000000000000000000000000",
      "type": "0x0",
      "transactionHash": "0x1295946dad3e44e8fab8caa564d9ef1d2c3100cd0da558ff45dd1bc7efd0c6ff",
      "transactionIndex": "0x8a",
      "blockHash": "0xe942a19f0062ee428288b6a5f03c443740f3d4c9eb0597656559a8741b2e8726",
      "blockNumber": "0x9170f6",
      "gasUsed": "0x19a1c",
      "effectiveGasPrice": "0xf4240",
      "from": "0xad9fdad276ab1a430fd03177a07350cd7c61e897",
      "to": "0xf9ae13167b184faa4fea2f2e7249447f0e2a30a6",
      "contractAddress": null
    },
    {
      "status": "0x1",
      "cumulativeGasUsed": "0xcd9fbf",
      "logs": [
        {
          "address": "0xf9ae13167b184faa4fea2f2e7249447f0e2a30a6",
          "topics": [
            "0xddf252ad1be2c89b69c2b068fc378daa952ba7f163c4a11628f55a4df523b3ef",
            "0x0000000000000000000000000000000000000000000000000000000000000000",
            "0x000000000000000000000000ad9fdad276ab1a430fd03177a07350cd7c61e897",
            "0x000000000000000000000000000000000000000000000000000000000000000f"
          ],
          "data": "0x",
          "blockHash": "0xe942a19f0062ee428288b6a5f03c443740f3d4c9eb0597656559a8741b2e8726",
          "blockNumber": "0x9170f6",
          "blockTimestamp": "0x6904f74c",
          "transactionHash": "0x9c2b45cc303e545059988f79e8fdd74a1d02892d6c597f2addf93adb14cd023d",
          "transactionIndex": "0x8b",
          "logIndex": "0xb9",
          "removed": false
        }
      ],
      "logsBloom": "0x0000000000000000000000000000000000000000000000000000000000000000000000000000000000000000000000000000000000000000000000000000000000000000000000c000000008000000000000000000000000000000000002000000000000020000000000000800000800000000000000000000000010000000000000000000000840000000800000000000000000000000000000000000000000000010000000000000000000000000000000000000000000000000000000000000000002000000000000000000000000000000000000000000000000000020000000000200000000000000000000000000000000000000000000000000000000",
      "type": "0x0",
      "transactionHash": "0x9c2b45cc303e545059988f79e8fdd74a1d02892d6c597f2addf93adb14cd023d",
      "transactionIndex": "0x8b",
      "blockHash": "0xe942a19f0062ee428288b6a5f03c443740f3d4c9eb0597656559a8741b2e8726",
      "blockNumber": "0x9170f6",
      "gasUsed": "0x19a1c",
      "effectiveGasPrice": "0xf4240",
      "from": "0xad9fdad276ab1a430fd03177a07350cd7c61e897",
      "to": "0xf9ae13167b184faa4fea2f2e7249447f0e2a30a6",
      "contractAddress": null
    },
    {
      "status": "0x1",
      "cumulativeGasUsed": "0xcf39db",
      "logs": [
        {
          "address": "0xf9ae13167b184faa4fea2f2e7249447f0e2a30a6",
          "topics": [
            "0xddf252ad1be2c89b69c2b068fc378daa952ba7f163c4a11628f55a4df523b3ef",
            "0x0000000000000000000000000000000000000000000000000000000000000000",
            "0x000000000000000000000000ad9fdad276ab1a430fd03177a07350cd7c61e897",
            "0x0000000000000000000000000000000000000000000000000000000000000010"
          ],
          "data": "0x",
          "blockHash": "0xe942a19f0062ee428288b6a5f03c443740f3d4c9eb0597656559a8741b2e8726",
          "blockNumber": "0x9170f6",
          "blockTimestamp": "0x6904f74c",
          "transactionHash": "0x49100d4d51cdfe68c15ac025802309160622147d8ead2d6c94f39c1c725fc198",
          "transactionIndex": "0x8c",
          "logIndex": "0xba",
          "removed": false
        }
      ],
      "logsBloom": "0x0000000010000000000000000000000000000000000000000000000000000000000000000000000000000000000000000000000000000000000000000000000000000000000000c000000008000000000000000000000000000000000000000000000000020000000000000800000800000000000000000000000010040000000000000000000040000000800000000000000100000000000000000000000000000010000000000000000000000000000000000000000000000000000000000000000002000000000000000000000000000000000000000000000000000020000000000000000000000000000000000000000000000000000000000000000000",
      "type": "0x0",
      "transactionHash": "0x49100d4d51cdfe68c15ac025802309160622147d8ead2d6c94f39c1c725fc198",
      "transactionIndex": "0x8c",
      "blockHash": "0xe942a19f0062ee428288b6a5f03c443740f3d4c9eb0597656559a8741b2e8726",
      "blockNumber": "0x9170f6",
      "gasUsed": "0x19a1c",
      "effectiveGasPrice": "0xf4240",
      "from": "0xad9fdad276ab1a430fd03177a07350cd7c61e897",
      "to": "0xf9ae13167b184faa4fea2f2e7249447f0e2a30a6",
      "contractAddress": null
    },
    {
      "status": "0x1",
      "cumulativeGasUsed": "0xd3e137",
      "logs": [
        {
          "address": "0xf9ae13167b184faa4fea2f2e7249447f0e2a30a6",
          "topics": [
            "0xddf252ad1be2c89b69c2b068fc378daa952ba7f163c4a11628f55a4df523b3ef",
            "0x0000000000000000000000000000000000000000000000000000000000000000",
            "0x000000000000000000000000ad9fdad276ab1a430fd03177a07350cd7c61e897",
            "0x0000000000000000000000000000000000000000000000000000000000000011"
          ],
          "data": "0x",
          "blockHash": "0xe942a19f0062ee428288b6a5f03c443740f3d4c9eb0597656559a8741b2e8726",
          "blockNumber": "0x9170f6",
          "blockTimestamp": "0x6904f74c",
          "transactionHash": "0x098e70beeaba78a9cc406882722d63fd0701a8797c5f836a63d0c438a0d96888",
          "transactionIndex": "0x8e",
          "logIndex": "0xbb",
          "removed": false
        }
      ],
      "logsBloom": "0x0000000000000000000000000000000000000000000000000000000000000000000000000000000000000000000000000000000000000000000000000000000000000000000000c000000008000000000000000000000000000000000000000000000000020000000000000800000800000000004000000000000010000000000000000000000040000000800000000000000000000000000000000000000000000010000000000000000000000000000000000000000000000000000400000000001002000000000000000000000000000000000000000000000000000020000000000000000000000000000000000000000000000000000000000000000000",
      "type": "0x0",
      "transactionHash": "0x098e70beeaba78a9cc406882722d63fd0701a8797c5f836a63d0c438a0d96888",
      "transactionIndex": "0x8e",
      "blockHash": "0xe942a19f0062ee428288b6a5f03c443740f3d4c9eb0597656559a8741b2e8726",
      "blockNumber": "0x9170f6",
      "gasUsed": "0x19a1c",
      "effectiveGasPrice": "0xf4240",
      "from": "0xad9fdad276ab1a430fd03177a07350cd7c61e897",
      "to": "0xf9ae13167b184faa4fea2f2e7249447f0e2a30a6",
      "contractAddress": null
    },
    {
      "status": "0x1",
      "cumulativeGasUsed": "0xd57b53",
      "logs": [
        {
          "address": "0xf9ae13167b184faa4fea2f2e7249447f0e2a30a6",
          "topics": [
            "0xddf252ad1be2c89b69c2b068fc378daa952ba7f163c4a11628f55a4df523b3ef",
            "0x0000000000000000000000000000000000000000000000000000000000000000",
            "0x000000000000000000000000ad9fdad276ab1a430fd03177a07350cd7c61e897",
            "0x0000000000000000000000000000000000000000000000000000000000000012"
          ],
          "data": "0x",
          "blockHash": "0xe942a19f0062ee428288b6a5f03c443740f3d4c9eb0597656559a8741b2e8726",
          "blockNumber": "0x9170f6",
          "blockTimestamp": "0x6904f74c",
          "transactionHash": "0x2544b89b38481853dc4c476e4b56ae8cfc5a27af5db4f46d5f8520390eca338b",
          "transactionIndex": "0x8f",
          "logIndex": "0xbc",
          "removed": false
        }
      ],
      "logsBloom": "0x0000000000000000000000000000000000000000000000000000000000000000000000000000000000000000000000000000000000000000000000000000000000000000000000c000000008000000000000000000000000000000000000000000000000020000000000000800000800000000000000000000000010000000000000000000000040000000800000040000000000000000000000000000000000000010000000000000000000000000000000000000000040000000000000000000000002000000000400000000000000000000000000000000000000000020000000000000000000000000000000000000000000000000000000000000000000",
      "type": "0x0",
      "transactionHash": "0x2544b89b38481853dc4c476e4b56ae8cfc5a27af5db4f46d5f8520390eca338b",
      "transactionIndex": "0x8f",
      "blockHash": "0xe942a19f0062ee428288b6a5f03c443740f3d4c9eb0597656559a8741b2e8726",
      "blockNumber": "0x9170f6",
      "gasUsed": "0x19a1c",
      "effectiveGasPrice": "0xf4240",
      "from": "0xad9fdad276ab1a430fd03177a07350cd7c61e897",
      "to": "0xf9ae13167b184faa4fea2f2e7249447f0e2a30a6",
      "contractAddress": null
    },
    {
      "status": "0x1",
      "cumulativeGasUsed": "0xd7156f",
      "logs": [
        {
          "address": "0xf9ae13167b184faa4fea2f2e7249447f0e2a30a6",
          "topics": [
            "0xddf252ad1be2c89b69c2b068fc378daa952ba7f163c4a11628f55a4df523b3ef",
            "0x0000000000000000000000000000000000000000000000000000000000000000",
            "0x000000000000000000000000ad9fdad276ab1a430fd03177a07350cd7c61e897",
            "0x0000000000000000000000000000000000000000000000000000000000000013"
          ],
          "data": "0x",
          "blockHash": "0xe942a19f0062ee428288b6a5f03c443740f3d4c9eb0597656559a8741b2e8726",
          "blockNumber": "0x9170f6",
          "blockTimestamp": "0x6904f74c",
          "transactionHash": "0x474b1ea22fd64afc38b1bbb631b7418ad13198708b899f071e2df4a69fc757a4",
          "transactionIndex": "0x90",
          "logIndex": "0xbd",
          "removed": false
        }
      ],
      "logsBloom": "0x2000000000000000000000000080000000000000000000000000000000000000000000004000000000000000000000000000000000000000000000000000000000000000000000c000000008000000000000000000000000000000000000000000000000020000000000000800000800000000000000000000000010000000000000000000000040000000800000000000000000000000000000000000000000000010000000000000000000000000000000000000000000000000000000000000000002000000000000000000000000000000000000000000000000000020000000000000000000000000000000000000000000000000000000000000000000",
      "type": "0x0",
      "transactionHash": "0x474b1ea22fd64afc38b1bbb631b7418ad13198708b899f071e2df4a69fc757a4",
      "transactionIndex": "0x90",
      "blockHash": "0xe942a19f0062ee428288b6a5f03c443740f3d4c9eb0597656559a8741b2e8726",
      "blockNumber": "0x9170f6",
      "gasUsed": "0x19a1c",
      "effectiveGasPrice": "0xf4240",
      "from": "0xad9fdad276ab1a430fd03177a07350cd7c61e897",
      "to": "0xf9ae13167b184faa4fea2f2e7249447f0e2a30a6",
      "contractAddress": null
    },
    {
      "status": "0x1",
      "cumulativeGasUsed": "0xd8af8b",
      "logs": [
        {
          "address": "0xf9ae13167b184faa4fea2f2e7249447f0e2a30a6",
          "topics": [
            "0xddf252ad1be2c89b69c2b068fc378daa952ba7f163c4a11628f55a4df523b3ef",
            "0x0000000000000000000000000000000000000000000000000000000000000000",
            "0x000000000000000000000000ad9fdad276ab1a430fd03177a07350cd7c61e897",
            "0x0000000000000000000000000000000000000000000000000000000000000014"
          ],
          "data": "0x",
          "blockHash": "0xe942a19f0062ee428288b6a5f03c443740f3d4c9eb0597656559a8741b2e8726",
          "blockNumber": "0x9170f6",
          "blockTimestamp": "0x6904f74c",
          "transactionHash": "0x9198446ef39bde0f6d509da327853ad78bb53ca413c5600b819740ca1d5d75f1",
          "transactionIndex": "0x91",
          "logIndex": "0xbe",
          "removed": false
        }
      ],
      "logsBloom": "0x0000000000000000000000000000000000000000000000000000000000000000000000000000000000000000000000000000200000000000000000000000000000000000000000c000000008000000000000000000000000000000000000000000000000020000000000000800000800000000000000000000000010000000000000000000000040000000800000000000000000000400000000000000000000000010000000000020000000000000000000000000000000000000000000000000000002000000000000000000000000000000000000000000000000000020000000000000000000000000000000000000000000000000000000000000000000",
      "type": "0x0",
      "transactionHash": "0x9198446ef39bde0f6d509da327853ad78bb53ca413c5600b819740ca1d5d75f1",
      "transactionIndex": "0x91",
      "blockHash": "0xe942a19f0062ee428288b6a5f03c443740f3d4c9eb0597656559a8741b2e8726",
      "blockNumber": "0x9170f6",
      "gasUsed": "0x19a1c",
      "effectiveGasPrice": "0xf4240",
      "from": "0xad9fdad276ab1a430fd03177a07350cd7c61e897",
      "to": "0xf9ae13167b184faa4fea2f2e7249447f0e2a30a6",
      "contractAddress": null
    },
    {
      "status": "0x1",
      "cumulativeGasUsed": "0xda49a7",
      "logs": [
        {
          "address": "0xf9ae13167b184faa4fea2f2e7249447f0e2a30a6",
          "topics": [
            "0xddf252ad1be2c89b69c2b068fc378daa952ba7f163c4a11628f55a4df523b3ef",
            "0x0000000000000000000000000000000000000000000000000000000000000000",
            "0x000000000000000000000000ad9fdad276ab1a430fd03177a07350cd7c61e897",
            "0x0000000000000000000000000000000000000000000000000000000000000015"
          ],
          "data": "0x",
          "blockHash": "0xe942a19f0062ee428288b6a5f03c443740f3d4c9eb0597656559a8741b2e8726",
          "blockNumber": "0x9170f6",
          "blockTimestamp": "0x6904f74c",
          "transactionHash": "0x32af2c6ba950ad61e721ce359926ec01094412301e8fa429cf3b2aa4d01f7720",
          "transactionIndex": "0x92",
          "logIndex": "0xbf",
          "removed": false
        }
      ],
      "logsBloom": "0x0000000000000000000000000000000000000000000000000000000000000000000000000000000000000000000000000000000000000000000000000000000000100000000000c000000008000000000000000000000000000000000000000000000000020000000000000800000800000000000000000000000010000000000000000000000040000000800000000000000000000000000000000000000000000010000000000000000000010000000000000000000000000000000000000000000002000000000000000000000000000000000000000000000000000020002000000000000000000000000000000000000000000000000000000000000000",
      "type": "0x0",
      "transactionHash": "0x32af2c6ba950ad61e721ce359926ec01094412301e8fa429cf3b2aa4d01f7720",
      "transactionIndex": "0x92",
      "blockHash": "0xe942a19f0062ee428288b6a5f03c443740f3d4c9eb0597656559a8741b2e8726",
      "blockNumber": "0x9170f6",
      "gasUsed": "0x19a1c",
      "effectiveGasPrice": "0xf4240",
      "from": "0xad9fdad276ab1a430fd03177a07350cd7c61e897",
      "to": "0xf9ae13167b184faa4fea2f2e7249447f0e2a30a6",
      "contractAddress": null
    },
    {
      "status": "0x1",
      "cumulativeGasUsed": "0xdbe3c3",
      "logs": [
        {
          "address": "0xf9ae13167b184faa4fea2f2e7249447f0e2a30a6",
          "topics": [
            "0xddf252ad1be2c89b69c2b068fc378daa952ba7f163c4a11628f55a4df523b3ef",
            "0x0000000000000000000000000000000000000000000000000000000000000000",
            "0x000000000000000000000000ad9fdad276ab1a430fd03177a07350cd7c61e897",
            "0x0000000000000000000000000000000000000000000000000000000000000016"
          ],
          "data": "0x",
          "blockHash": "0xe942a19f0062ee428288b6a5f03c443740f3d4c9eb0597656559a8741b2e8726",
          "blockNumber": "0x9170f6",
          "blockTimestamp": "0x6904f74c",
          "transactionHash": "0x4017a32deb54f5ad9681169f007ab0f88e3e47d41c2f9b1634df1c466f60fadd",
          "transactionIndex": "0x93",
          "logIndex": "0xc0",
          "removed": false
        }
      ],
      "logsBloom": "0x0000000000000000000000000000000000000000000000000000000000000000000000000000000000000000000000000000000000000000000000000000000000000000000000c800000008000000000000000000000000000000000000000000000000020000000000000800000800200000000000000000000010000000000000000000000040000000800000000000000000000000000000000000000000000010000000000000000000000000000000000000000000000000000000000000000002000000000000000000000000000000000000000000000000000020000000000000000000000000000000000000000000000000000008000000000000",
      "type": "0x0",
      "transactionHash": "0x4017a32deb54f5ad9681169f007ab0f88e3e47d41c2f9b1634df1c466f60fadd",
      "transactionIndex": "0x93",
      "blockHash": "0xe942a19f0062ee428288b6a5f03c443740f3d4c9eb0597656559a8741b2e8726",
      "blockNumber": "0x9170f6",
      "gasUsed": "0x19a1c",
      "effectiveGasPrice": "0xf4240",
      "from": "0xad9fdad276ab1a430fd03177a07350cd7c61e897",
      "to": "0xf9ae13167b184faa4fea2f2e7249447f0e2a30a6",
      "contractAddress": null
    },
    {
      "status": "0x1",
      "cumulativeGasUsed": "0xdd7ddf",
      "logs": [
        {
          "address": "0xf9ae13167b184faa4fea2f2e7249447f0e2a30a6",
          "topics": [
            "0xddf252ad1be2c89b69c2b068fc378daa952ba7f163c4a11628f55a4df523b3ef",
            "0x0000000000000000000000000000000000000000000000000000000000000000",
            "0x000000000000000000000000ad9fdad276ab1a430fd03177a07350cd7c61e897",
            "0x0000000000000000000000000000000000000000000000000000000000000017"
          ],
          "data": "0x",
          "blockHash": "0xe942a19f0062ee428288b6a5f03c443740f3d4c9eb0597656559a8741b2e8726",
          "blockNumber": "0x9170f6",
          "blockTimestamp": "0x6904f74c",
          "transactionHash": "0x617b45b84bc64fe4af9b34b51cbe6f34e26c60c338e4f3549ab27cbfcfdf1ae1",
          "transactionIndex": "0x94",
          "logIndex": "0xc1",
          "removed": false
        }
      ],
      "logsBloom": "0x0000000000000000000000000000000000000000000000000000000000000000000000000000000000000000000000000000100000000000000000100000000000000000000000c000000008000000000000000000000000000000000000000000000000020000000000000800000800000000000000000000000010000000000000000000000040000000800000000000000000000000000000000000000000000010000000000000000000000000000000000000000000000000000000000000000002000000000000000000000000000000000000000000000000000020000000000000000000000000000000000000000000000000000000000000080000",
      "type": "0x0",
      "transactionHash": "0x617b45b84bc64fe4af9b34b51cbe6f34e26c60c338e4f3549ab27cbfcfdf1ae1",
      "transactionIndex": "0x94",
      "blockHash": "0xe942a19f0062ee428288b6a5f03c443740f3d4c9eb0597656559a8741b2e8726",
      "blockNumber": "0x9170f6",
      "gasUsed": "0x19a1c",
      "effectiveGasPrice": "0xf4240",
      "from": "0xad9fdad276ab1a430fd03177a07350cd7c61e897",
      "to": "0xf9ae13167b184faa4fea2f2e7249447f0e2a30a6",
      "contractAddress": null
    },
    {
      "status": "0x1",
      "cumulativeGasUsed": "0xdf17fb",
      "logs": [
        {
          "address": "0xf9ae13167b184faa4fea2f2e7249447f0e2a30a6",
          "topics": [
            "0xddf252ad1be2c89b69c2b068fc378daa952ba7f163c4a11628f55a4df523b3ef",
            "0x0000000000000000000000000000000000000000000000000000000000000000",
            "0x000000000000000000000000ad9fdad276ab1a430fd03177a07350cd7c61e897",
            "0x0000000000000000000000000000000000000000000000000000000000000018"
          ],
          "data": "0x",
          "blockHash": "0xe942a19f0062ee428288b6a5f03c443740f3d4c9eb0597656559a8741b2e8726",
          "blockNumber": "0x9170f6",
          "blockTimestamp": "0x6904f74c",
          "transactionHash": "0xb6370431dd984ba06bcc9ec7437709a80864381d12bad79d1d482ff74180f40b",
          "transactionIndex": "0x95",
          "logIndex": "0xc2",
          "removed": false
        }
      ],
      "logsBloom": "0x0000000000000000000000000000000000000000000000000000000000000000000000000000000000000000000000000000000000000000000000000000000000000000000000c000000008000000000040000000000000000000000000000000000000020000000000000800000800000000000000000000000010000000000000000000000040000000800000000000000000000000000000000000000000000010000000000000000000000000000000000000000000000000000000000000100002000000000000000000000000000000000000000020000000000020000000000000000000000000000000000000000000000000000000000000000000",
      "type": "0x0",
      "transactionHash": "0xb6370431dd984ba06bcc9ec7437709a80864381d12bad79d1d482ff74180f40b",
      "transactionIndex": "0x95",
      "blockHash": "0xe942a19f0062ee428288b6a5f03c443740f3d4c9eb0597656559a8741b2e8726",
      "blockNumber": "0x9170f6",
      "gasUsed": "0x19a1c",
      "effectiveGasPrice": "0xf4240",
      "from": "0xad9fdad276ab1a430fd03177a07350cd7c61e897",
      "to": "0xf9ae13167b184faa4fea2f2e7249447f0e2a30a6",
      "contractAddress": null
    },
    {
      "status": "0x1",
      "cumulativeGasUsed": "0xe0b217",
      "logs": [
        {
          "address": "0xf9ae13167b184faa4fea2f2e7249447f0e2a30a6",
          "topics": [
            "0xddf252ad1be2c89b69c2b068fc378daa952ba7f163c4a11628f55a4df523b3ef",
            "0x0000000000000000000000000000000000000000000000000000000000000000",
            "0x000000000000000000000000ad9fdad276ab1a430fd03177a07350cd7c61e897",
            "0x0000000000000000000000000000000000000000000000000000000000000019"
          ],
          "data": "0x",
          "blockHash": "0xe942a19f0062ee428288b6a5f03c443740f3d4c9eb0597656559a8741b2e8726",
          "blockNumber": "0x9170f6",
          "blockTimestamp": "0x6904f74c",
          "transactionHash": "0xec44321dc0fa26a609442d9db40691fc129a2c04729693f02be759004aee5d34",
          "transactionIndex": "0x96",
          "logIndex": "0xc3",
          "removed": false
        }
      ],
      "logsBloom": "0x0000000000000000000000000000000000000000000000000000000000000000000000000000000000000000000000000000000000000080000000000000000000000000000000c000000008000000000000000000000000000000000000000000000000020000000000000800000800000000000000020000000010000000000000000000000040000000800000000000000000000000000000000000000000000010000000000000000000000000000000000000000000000000000000000000000002000000000000000000000000000000000000000000000000000020000000000000000000000000000000000000000000000000000000008000000000",
      "type": "0x0",
      "transactionHash": "0xec44321dc0fa26a609442d9db40691fc129a2c04729693f02be759004aee5d34",
      "transactionIndex": "0x96",
      "blockHash": "0xe942a19f0062ee428288b6a5f03c443740f3d4c9eb0597656559a8741b2e8726",
      "blockNumber": "0x9170f6",
      "gasUsed": "0x19a1c",
      "effectiveGasPrice": "0xf4240",
      "from": "0xad9fdad276ab1a430fd03177a07350cd7c61e897",
      "to": "0xf9ae13167b184faa4fea2f2e7249447f0e2a30a6",
      "contractAddress": null
    },
    {
      "status": "0x1",
      "cumulativeGasUsed": "0xe24c33",
      "logs": [
        {
          "address": "0xf9ae13167b184faa4fea2f2e7249447f0e2a30a6",
          "topics": [
            "0xddf252ad1be2c89b69c2b068fc378daa952ba7f163c4a11628f55a4df523b3ef",
            "0x0000000000000000000000000000000000000000000000000000000000000000",
            "0x000000000000000000000000ad9fdad276ab1a430fd03177a07350cd7c61e897",
            "0x000000000000000000000000000000000000000000000000000000000000001a"
          ],
          "data": "0x",
          "blockHash": "0xe942a19f0062ee428288b6a5f03c443740f3d4c9eb0597656559a8741b2e8726",
          "blockNumber": "0x9170f6",
          "blockTimestamp": "0x6904f74c",
          "transactionHash": "0x3f281296a09b3253e65d5c88953d83254304ea35fac489e93e0114eaface30ac",
          "transactionIndex": "0x97",
          "logIndex": "0xc4",
          "removed": false
        }
      ],
      "logsBloom": "0x0000000000000000000000000000000000000000000000000000000000000000000000000000000000000000000000000000000000000000000000000000000000000000000000c000000008000000001000000000000000000000001000000000000000020000000000000800000800000000000000000000000010000000000000000000000040000000800000000000000000000000000000000000000000000010000000000000000000000000000000000000000000000000000000000000000002000000000000000000000000000000000000000000000000000020000000000000000000000000000000000000000000000004000000000000000000",
      "type": "0x0",
      "transactionHash": "0x3f281296a09b3253e65d5c88953d83254304ea35fac489e93e0114eaface30ac",
      "transactionIndex": "0x97",
      "blockHash": "0xe942a19f0062ee428288b6a5f03c443740f3d4c9eb0597656559a8741b2e8726",
      "blockNumber": "0x9170f6",
      "gasUsed": "0x19a1c",
      "effectiveGasPrice": "0xf4240",
      "from": "0xad9fdad276ab1a430fd03177a07350cd7c61e897",
      "to": "0xf9ae13167b184faa4fea2f2e7249447f0e2a30a6",
      "contractAddress": null
    },
    {
      "status": "0x1",
      "cumulativeGasUsed": "0xe3e64f",
      "logs": [
        {
          "address": "0xf9ae13167b184faa4fea2f2e7249447f0e2a30a6",
          "topics": [
            "0xddf252ad1be2c89b69c2b068fc378daa952ba7f163c4a11628f55a4df523b3ef",
            "0x0000000000000000000000000000000000000000000000000000000000000000",
            "0x000000000000000000000000ad9fdad276ab1a430fd03177a07350cd7c61e897",
            "0x000000000000000000000000000000000000000000000000000000000000001b"
          ],
          "data": "0x",
          "blockHash": "0xe942a19f0062ee428288b6a5f03c443740f3d4c9eb0597656559a8741b2e8726",
          "blockNumber": "0x9170f6",
          "blockTimestamp": "0x6904f74c",
          "transactionHash": "0xd4dc0ec33922caab30ee37fe03bdcae7450a5dfe473a4ebcbd4ab79e4144b23b",
          "transactionIndex": "0x98",
          "logIndex": "0xc5",
          "removed": false
        }
      ],
      "logsBloom": "0x0000000000000000000000000000000000000000001000000000000000000000000000000000000000000000000000000000000000000000000000000000000000000000000000c000000008000000000000000000000000000000000000000000000000020000000000000800000800000000000000000000000010000000000000000000000040000000800000000000000000000000000000000000000000000010000100000000000000000000000000000000008000000000000000000000000002000000000000000000000000000000000000000000000000000020000000000000000000000000000000000000000000000000000000000000000000",
      "type": "0x0",
      "transactionHash": "0xd4dc0ec33922caab30ee37fe03bdcae7450a5dfe473a4ebcbd4ab79e4144b23b",
      "transactionIndex": "0x98",
      "blockHash": "0xe942a19f0062ee428288b6a5f03c443740f3d4c9eb0597656559a8741b2e8726",
      "blockNumber": "0x9170f6",
      "gasUsed": "0x19a1c",
      "effectiveGasPrice": "0xf4240",
      "from": "0xad9fdad276ab1a430fd03177a07350cd7c61e897",
      "to": "0xf9ae13167b184faa4fea2f2e7249447f0e2a30a6",
      "contractAddress": null
    },
    {
      "status": "0x1",
      "cumulativeGasUsed": "0xe5806b",
      "logs": [
        {
          "address": "0xf9ae13167b184faa4fea2f2e7249447f0e2a30a6",
          "topics": [
            "0xddf252ad1be2c89b69c2b068fc378daa952ba7f163c4a11628f55a4df523b3ef",
            "0x0000000000000000000000000000000000000000000000000000000000000000",
            "0x000000000000000000000000ad9fdad276ab1a430fd03177a07350cd7c61e897",
            "0x000000000000000000000000000000000000000000000000000000000000001c"
          ],
          "data": "0x",
          "blockHash": "0xe942a19f0062ee428288b6a5f03c443740f3d4c9eb0597656559a8741b2e8726",
          "blockNumber": "0x9170f6",
          "blockTimestamp": "0x6904f74c",
          "transactionHash": "0xbca91d8a30bfba876aa85a48753f34d4bc86a00c39db5d2da11b3e0cd6b6a479",
          "transactionIndex": "0x99",
          "logIndex": "0xc6",
          "removed": false
        }
      ],
      "logsBloom": "0x0000000000000000000000000000000000000000000000000000000000000000000000000000000000000000000000000000000000000020000000000000000000000000000000c000000008000000000000000000000000000000000000000000000000020000000000000800000800000000000000000000000010000000000000000000000040000000800000000200000000000000000000000000000000000010000000000000000002000000000000000000000000000000000000000000000002000000000000000000000000000000000000000000000000000020000000000000000000000000000000000000000000000000000000000000000000",
      "type": "0x0",
      "transactionHash": "0xbca91d8a30bfba876aa85a48753f34d4bc86a00c39db5d2da11b3e0cd6b6a479",
      "transactionIndex": "0x99",
      "blockHash": "0xe942a19f0062ee428288b6a5f03c443740f3d4c9eb0597656559a8741b2e8726",
      "blockNumber": "0x9170f6",
      "gasUsed": "0x19a1c",
      "effectiveGasPrice": "0xf4240",
      "from": "0xad9fdad276ab1a430fd03177a07350cd7c61e897",
      "to": "0xf9ae13167b184faa4fea2f2e7249447f0e2a30a6",
      "contractAddress": null
    },
    {
      "status": "0x1",
      "cumulativeGasUsed": "0xe71a87",
      "logs": [
        {
          "address": "0xf9ae13167b184faa4fea2f2e7249447f0e2a30a6",
          "topics": [
            "0xddf252ad1be2c89b69c2b068fc378daa952ba7f163c4a11628f55a4df523b3ef",
            "0x0000000000000000000000000000000000000000000000000000000000000000",
            "0x000000000000000000000000ad9fdad276ab1a430fd03177a07350cd7c61e897",
            "0x000000000000000000000000000000000000000000000000000000000000001d"
          ],
          "data": "0x",
          "blockHash": "0xe942a19f0062ee428288b6a5f03c443740f3d4c9eb0597656559a8741b2e8726",
          "blockNumber": "0x9170f6",
          "blockTimestamp": "0x6904f74c",
          "transactionHash": "0x709fa65e7b8d6f9fb0319b97088d7e717b9c8c1f0cc98e60fd7cbea9f0473999",
          "transactionIndex": "0x9a",
          "logIndex": "0xc7",
          "removed": false
        }
      ],
      "logsBloom": "0x0000008000000000000000000000000000000000000000000000000000000000000000000000000000000000000000000000000000000000000000020000000000000000000000c000000008000000000000000000000010000000000000000000000000020000000000000800000800000000000000000000000010000000000000000000000040000000800000000000000000000000000000000000000000000010000000000000000000000000000000000000000000000000000000000000000002000000000000000000000000000000000000000000000000000020000000000000000000000000000000000000000000000000000000000000000000",
      "type": "0x0",
      "transactionHash": "0x709fa65e7b8d6f9fb0319b97088d7e717b9c8c1f0cc98e60fd7cbea9f0473999",
      "transactionIndex": "0x9a",
      "blockHash": "0xe942a19f0062ee428288b6a5f03c443740f3d4c9eb0597656559a8741b2e8726",
      "blockNumber": "0x9170f6",
      "gasUsed": "0x19a1c",
      "effectiveGasPrice": "0xf4240",
      "from": "0xad9fdad276ab1a430fd03177a07350cd7c61e897",
      "to": "0xf9ae13167b184faa4fea2f2e7249447f0e2a30a6",
      "contractAddress": null
    },
    {
      "status": "0x1",
      "cumulativeGasUsed": "0xe8b4a3",
      "logs": [
        {
          "address": "0xf9ae13167b184faa4fea2f2e7249447f0e2a30a6",
          "topics": [
            "0xddf252ad1be2c89b69c2b068fc378daa952ba7f163c4a11628f55a4df523b3ef",
            "0x0000000000000000000000000000000000000000000000000000000000000000",
            "0x000000000000000000000000ad9fdad276ab1a430fd03177a07350cd7c61e897",
            "0x000000000000000000000000000000000000000000000000000000000000001e"
          ],
          "data": "0x",
          "blockHash": "0xe942a19f0062ee428288b6a5f03c443740f3d4c9eb0597656559a8741b2e8726",
          "blockNumber": "0x9170f6",
          "blockTimestamp": "0x6904f74c",
          "transactionHash": "0xcf3848bd849251fd01a2f095266b1ec3af72a60f3eb5664c18bd81b4742f98c0",
          "transactionIndex": "0x9b",
          "logIndex": "0xc8",
          "removed": false
        }
      ],
      "logsBloom": "0x0000000000000000000000000000000000000000000000000000000000000000000000000000000000000000040000000000000000000000000000000000000000000000000000c000000008000000000000000000000000000000000000000000000000020000000000000800000800000000000000000000000010000000000000000000000040000000800000000000000000000000000000000000000000000010000000000000000000000000000000000000000000000000000000000000000002000000000000000000000000000000000000000000000000000020000000000000000000080000000000000000000000000000000000000000000000",
      "type": "0x0",
      "transactionHash": "0xcf3848bd849251fd01a2f095266b1ec3af72a60f3eb5664c18bd81b4742f98c0",
      "transactionIndex": "0x9b",
      "blockHash": "0xe942a19f0062ee428288b6a5f03c443740f3d4c9eb0597656559a8741b2e8726",
      "blockNumber": "0x9170f6",
      "gasUsed": "0x19a1c",
      "effectiveGasPrice": "0xf4240",
      "from": "0xad9fdad276ab1a430fd03177a07350cd7c61e897",
      "to": "0xf9ae13167b184faa4fea2f2e7249447f0e2a30a6",
      "contractAddress": null
    },
    {
      "status": "0x1",
      "cumulativeGasUsed": "0xea4ebf",
      "logs": [
        {
          "address": "0xf9ae13167b184faa4fea2f2e7249447f0e2a30a6",
          "topics": [
            "0xddf252ad1be2c89b69c2b068fc378daa952ba7f163c4a11628f55a4df523b3ef",
            "0x0000000000000000000000000000000000000000000000000000000000000000",
            "0x000000000000000000000000ad9fdad276ab1a430fd03177a07350cd7c61e897",
            "0x000000000000000000000000000000000000000000000000000000000000001f"
          ],
          "data": "0x",
          "blockHash": "0xe942a19f0062ee428288b6a5f03c443740f3d4c9eb0597656559a8741b2e8726",
          "blockNumber": "0x9170f6",
          "blockTimestamp": "0x6904f74c",
          "transactionHash": "0x22ab8aefbe72e15524b176c0069bbbfd0db56709301353ce68d5b686d2decc45",
          "transactionIndex": "0x9c",
          "logIndex": "0xc9",
          "removed": false
        }
      ],
      "logsBloom": "0x0000000000000000000000040000000000000000000000000000000000000000000000000000000000000000000000000000000000000000000000000000000000000000000000c000000008000000000000000000000000000000000000000000000000020000000000000800000800000000000000000000000010000000000000000000000040000000800000000000000000000000000000000000000000000010000000000000000000000000000000000000000000000000000001000000000002000000000000000000000000000000000000000000000000000020000000000000000000000000000000000000000000000000000100000000000000",
      "type": "0x0",
      "transactionHash": "0x22ab8aefbe72e15524b176c0069bbbfd0db56709301353ce68d5b686d2decc45",
      "transactionIndex": "0x9c",
      "blockHash": "0xe942a19f0062ee428288b6a5f03c443740f3d4c9eb0597656559a8741b2e8726",
      "blockNumber": "0x9170f6",
      "gasUsed": "0x19a1c",
      "effectiveGasPrice": "0xf4240",
      "from": "0xad9fdad276ab1a430fd03177a07350cd7c61e897",
      "to": "0xf9ae13167b184faa4fea2f2e7249447f0e2a30a6",
      "contractAddress": null
    },
    {
      "status": "0x1",
      "cumulativeGasUsed": "0xebe8db",
      "logs": [
        {
          "address": "0xf9ae13167b184faa4fea2f2e7249447f0e2a30a6",
          "topics": [
            "0xddf252ad1be2c89b69c2b068fc378daa952ba7f163c4a11628f55a4df523b3ef",
            "0x0000000000000000000000000000000000000000000000000000000000000000",
            "0x000000000000000000000000ad9fdad276ab1a430fd03177a07350cd7c61e897",
            "0x0000000000000000000000000000000000000000000000000000000000000020"
          ],
          "data": "0x",
          "blockHash": "0xe942a19f0062ee428288b6a5f03c443740f3d4c9eb0597656559a8741b2e8726",
          "blockNumber": "0x9170f6",
          "blockTimestamp": "0x6904f74c",
          "transactionHash": "0x74ec33492f5ddfc3134211d74972652481a0259e49f6038af31a379abf3871b8",
          "transactionIndex": "0x9d",
          "logIndex": "0xca",
          "removed": false
        }
      ],
      "logsBloom": "0x0000000000000000000000000000000000000000000000000000000000000000000000000000000000000000000000000000000000000000000000000000000000000000000000c000000008000000000000000000000000000000000000000000000000020000000000000800000800000000000000000000000010000000000000000000000040000000800000000000000000000000000000000000000000000410000000000000000000000000000000000000000000000000000000000000000002000000000000000000000000080000000000000000000000000020000000400000000000000000000000000000000000000000000000000000000000",
      "type": "0x0",
      "transactionHash": "0x74ec33492f5ddfc3134211d74972652481a0259e49f6038af31a379abf3871b8",
      "transactionIndex": "0x9d",
      "blockHash": "0xe942a19f0062ee428288b6a5f03c443740f3d4c9eb0597656559a8741b2e8726",
      "blockNumber": "0x9170f6",
      "gasUsed": "0x19a1c",
      "effectiveGasPrice": "0xf4240",
      "from": "0xad9fdad276ab1a430fd03177a07350cd7c61e897",
      "to": "0xf9ae13167b184faa4fea2f2e7249447f0e2a30a6",
      "contractAddress": null
    },
    {
      "status": "0x1",
      "cumulativeGasUsed": "0xed82f7",
      "logs": [
        {
          "address": "0xf9ae13167b184faa4fea2f2e7249447f0e2a30a6",
          "topics": [
            "0xddf252ad1be2c89b69c2b068fc378daa952ba7f163c4a11628f55a4df523b3ef",
            "0x0000000000000000000000000000000000000000000000000000000000000000",
            "0x000000000000000000000000ad9fdad276ab1a430fd03177a07350cd7c61e897",
            "0x0000000000000000000000000000000000000000000000000000000000000021"
          ],
          "data": "0x",
          "blockHash": "0xe942a19f0062ee428288b6a5f03c443740f3d4c9eb0597656559a8741b2e8726",
          "blockNumber": "0x9170f6",
          "blockTimestamp": "0x6904f74c",
          "transactionHash": "0x1a2fd7d25c37e855dc938c2135b1b5aaffa89dfea7a40a9eef7c1fe86a527a9f",
          "transactionIndex": "0x9e",
          "logIndex": "0xcb",
          "removed": false
        }
      ],
      "logsBloom": "0x0000000000000000000000000000000000000000000000000000000000000002000000000000000000000000000000000000000000000000000000000000000000000000000000c000000008000000000000000000000000000000000000000000000000020000000000000800000800000000000000000000000010040000000000000000000040000000800000000000000000000000000000000000000000000010000000000000000000000000000000000800000000000000000000000000000002000000000000000000000000000000000000000000000000000020000000000000000000000000000000000000000000000000000000000000000000",
      "type": "0x0",
      "transactionHash": "0x1a2fd7d25c37e855dc938c2135b1b5aaffa89dfea7a40a9eef7c1fe86a527a9f",
      "transactionIndex": "0x9e",
      "blockHash": "0xe942a19f0062ee428288b6a5f03c443740f3d4c9eb0597656559a8741b2e8726",
      "blockNumber": "0x9170f6",
      "gasUsed": "0x19a1c",
      "effectiveGasPrice": "0xf4240",
      "from": "0xad9fdad276ab1a430fd03177a07350cd7c61e897",
      "to": "0xf9ae13167b184faa4fea2f2e7249447f0e2a30a6",
      "contractAddress": null
    },
    {
      "status": "0x1",
      "cumulativeGasUsed": "0xef1d13",
      "logs": [
        {
          "address": "0xf9ae13167b184faa4fea2f2e7249447f0e2a30a6",
          "topics": [
            "0xddf252ad1be2c89b69c2b068fc378daa952ba7f163c4a11628f55a4df523b3ef",
            "0x0000000000000000000000000000000000000000000000000000000000000000",
            "0x000000000000000000000000ad9fdad276ab1a430fd03177a07350cd7c61e897",
            "0x0000000000000000000000000000000000000000000000000000000000000022"
          ],
          "data": "0x",
          "blockHash": "0xe942a19f0062ee428288b6a5f03c443740f3d4c9eb0597656559a8741b2e8726",
          "blockNumber": "0x9170f6",
          "blockTimestamp": "0x6904f74c",
          "transactionHash": "0xde06365a259f0207c7d82894ad77e5ade898cfe8308116cb274a366130f1e100",
          "transactionIndex": "0x9f",
          "logIndex": "0xcc",
          "removed": false
        }
      ],
      "logsBloom": "0x0000000000000000000000000000000000000000000000000000000000000000000000000000000000000000000000000000000000000000000000000000000000000000000000c000000008000000000000000000000000000000000000000000000000020000000000000800000800000000000000000000000010000000000000020000000040000000800000000000000000000000000000004000000000000010000000000000000000000000000000000000000000000000000000000000000002000000000000000000000000000000000000000000000000000020080000000000000000000000000000000000000000000000000000000000000000",
      "type": "0x0",
      "transactionHash": "0xde06365a259f0207c7d82894ad77e5ade898cfe8308116cb274a366130f1e100",
      "transactionIndex": "0x9f",
      "blockHash": "0xe942a19f0062ee428288b6a5f03c443740f3d4c9eb0597656559a8741b2e8726",
      "blockNumber": "0x9170f6",
      "gasUsed": "0x19a1c",
      "effectiveGasPrice": "0xf4240",
      "from": "0xad9fdad276ab1a430fd03177a07350cd7c61e897",
      "to": "0xf9ae13167b184faa4fea2f2e7249447f0e2a30a6",
      "contractAddress": null
    },
    {
      "status": "0x1",
      "cumulativeGasUsed": "0xf0b72f",
      "logs": [
        {
          "address": "0xf9ae13167b184faa4fea2f2e7249447f0e2a30a6",
          "topics": [
            "0xddf252ad1be2c89b69c2b068fc378daa952ba7f163c4a11628f55a4df523b3ef",
            "0x0000000000000000000000000000000000000000000000000000000000000000",
            "0x000000000000000000000000ad9fdad276ab1a430fd03177a07350cd7c61e897",
            "0x0000000000000000000000000000000000000000000000000000000000000023"
          ],
          "data": "0x",
          "blockHash": "0xe942a19f0062ee428288b6a5f03c443740f3d4c9eb0597656559a8741b2e8726",
          "blockNumber": "0x9170f6",
          "blockTimestamp": "0x6904f74c",
          "transactionHash": "0xa47ac8b5873223613161948a1b277678bec85d0266e71f2345f243436990bc5e",
          "transactionIndex": "0xa0",
          "logIndex": "0xcd",
          "removed": false
        }
      ],
      "logsBloom": "0x0000000000000000000000000000000000000000000000000000000000000000000000000000000000000000000000000000000000000080000000000000000000000000000000c000000008000000000800000000000000000000000000000000000000020000000000000800000800000000000000000000000010000000000000000000000040000000800000000000000000000200000000000000000000000010000000000000000000000000000000000000000000000000000000000000000002000000000000000000000000000000000000000000000000000020000000000000000000000000000000000000000000000000000000000000000000",
      "type": "0x0",
      "transactionHash": "0xa47ac8b5873223613161948a1b277678bec85d0266e71f2345f243436990bc5e",
      "transactionIndex": "0xa0",
      "blockHash": "0xe942a19f0062ee428288b6a5f03c443740f3d4c9eb0597656559a8741b2e8726",
      "blockNumber": "0x9170f6",
      "gasUsed": "0x19a1c",
      "effectiveGasPrice": "0xf4240",
      "from": "0xad9fdad276ab1a430fd03177a07350cd7c61e897",
      "to": "0xf9ae13167b184faa4fea2f2e7249447f0e2a30a6",
      "contractAddress": null
    },
    {
      "status": "0x1",
      "cumulativeGasUsed": "0xf2514b",
      "logs": [
        {
          "address": "0xf9ae13167b184faa4fea2f2e7249447f0e2a30a6",
          "topics": [
            "0xddf252ad1be2c89b69c2b068fc378daa952ba7f163c4a11628f55a4df523b3ef",
            "0x0000000000000000000000000000000000000000000000000000000000000000",
            "0x000000000000000000000000ad9fdad276ab1a430fd03177a07350cd7c61e897",
            "0x0000000000000000000000000000000000000000000000000000000000000024"
          ],
          "data": "0x",
          "blockHash": "0xe942a19f0062ee428288b6a5f03c443740f3d4c9eb0597656559a8741b2e8726",
          "blockNumber": "0x9170f6",
          "blockTimestamp": "0x6904f74c",
          "transactionHash": "0x98f26a186367b42125f6af7430faafcf774d368c390c999c4c8ee82f7400704b",
          "transactionIndex": "0xa1",
          "logIndex": "0xce",
          "removed": false
        }
      ],
      "logsBloom": "0x0000000000000000000000000000000000000000000000000000000000000000000000000000000000000000000000000000000000000000000000000000000000000000000000c000000008000000000000000000000000000000000000000000000000020800000000000800000800000000000000000000000010000000000000000000000040000000800008000000000000000000000000000000000000000010000002000000000000000000000000000000000000000000000000000000000002000000000000000000000000000000000000000000000000000020000000000000000000000000000000000000000000000000000000000000000000",
      "type": "0x0",
      "transactionHash": "0x98f26a186367b42125f6af7430faafcf774d368c390c999c4c8ee82f7400704b",
      "transactionIndex": "0xa1",
      "blockHash": "0xe942a19f0062ee428288b6a5f03c443740f3d4c9eb0597656559a8741b2e8726",
      "blockNumber": "0x9170f6",
      "gasUsed": "0x19a1c",
      "effectiveGasPrice": "0xf4240",
      "from": "0xad9fdad276ab1a430fd03177a07350cd7c61e897",
      "to": "0xf9ae13167b184faa4fea2f2e7249447f0e2a30a6",
      "contractAddress": null
    },
    {
      "status": "0x1",
      "cumulativeGasUsed": "0xf3eb67",
      "logs": [
        {
          "address": "0xf9ae13167b184faa4fea2f2e7249447f0e2a30a6",
          "topics": [
            "0xddf252ad1be2c89b69c2b068fc378daa952ba7f163c4a11628f55a4df523b3ef",
            "0x0000000000000000000000000000000000000000000000000000000000000000",
            "0x000000000000000000000000ad9fdad276ab1a430fd03177a07350cd7c61e897",
            "0x0000000000000000000000000000000000000000000000000000000000000025"
          ],
          "data": "0x",
          "blockHash": "0xe942a19f0062ee428288b6a5f03c443740f3d4c9eb0597656559a8741b2e8726",
          "blockNumber": "0x9170f6",
          "blockTimestamp": "0x6904f74c",
          "transactionHash": "0x752ac1bd68b8a7f0830c12c55abd4f5d79727f45a0c85a767debbb6377a69267",
          "transactionIndex": "0xa2",
          "logIndex": "0xcf",
          "removed": false
        }
      ],
      "logsBloom": "0x0000000000000000000000000000000000000000000000000000000000000000000000000000000000000000000000000000000000000000000000000000000000000000000000c000000008000000000000000000000000000000000000000000000000020000000000000800000800000000000000000000000010000000000000000000000040000000800000000000000000000000000000000000000000000010000000000000000002000000000000000000000000000000000000000000000002000000000000000000000000000000000000000000000000000020008000000000000000000000000000000000000000000000000000000002000000",
      "type": "0x0",
      "transactionHash": "0x752ac1bd68b8a7f0830c12c55abd4f5d79727f45a0c85a767debbb6377a69267",
      "transactionIndex": "0xa2",
      "blockHash": "0xe942a19f0062ee428288b6a5f03c443740f3d4c9eb0597656559a8741b2e8726",
      "blockNumber": "0x9170f6",
      "gasUsed": "0x19a1c",
      "effectiveGasPrice": "0xf4240",
      "from": "0xad9fdad276ab1a430fd03177a07350cd7c61e897",
      "to": "0xf9ae13167b184faa4fea2f2e7249447f0e2a30a6",
      "contractAddress": null
    },
    {
      "status": "0x1",
      "cumulativeGasUsed": "0xf892c3",
      "logs": [
        {
          "address": "0xf9ae13167b184faa4fea2f2e7249447f0e2a30a6",
          "topics": [
            "0xddf252ad1be2c89b69c2b068fc378daa952ba7f163c4a11628f55a4df523b3ef",
            "0x0000000000000000000000000000000000000000000000000000000000000000",
            "0x000000000000000000000000ad9fdad276ab1a430fd03177a07350cd7c61e897",
            "0x0000000000000000000000000000000000000000000000000000000000000026"
          ],
          "data": "0x",
          "blockHash": "0xe942a19f0062ee428288b6a5f03c443740f3d4c9eb0597656559a8741b2e8726",
          "blockNumber": "0x9170f6",
          "blockTimestamp": "0x6904f74c",
          "transactionHash": "0x8ff8413830d857bae1ba26299af4c228f686dc8500dfd22693df9bf55096c432",
          "transactionIndex": "0xa4",
          "logIndex": "0xd0",
          "removed": false
        }
      ],
      "logsBloom": "0x0000000000000000000000000000000000000000000000000000000000000000000000000000000000000000000000000000000000000000000000000000000000000000000000c000000008000000000001000000000000000000000000000001000000020000000000000800000800000000000000040000000010000000000000000000000040000000800000000000000000000000000000000000000000000010000000000000000000000000000000000000000000000000000000000000000002000000000000000000000000000000000000000000000000000020000000000000000000000000000000000000000000000000000000000000000000",
      "type": "0x0",
      "transactionHash": "0x8ff8413830d857bae1ba26299af4c228f686dc8500dfd22693df9bf55096c432",
      "transactionIndex": "0xa4",
      "blockHash": "0xe942a19f0062ee428288b6a5f03c443740f3d4c9eb0597656559a8741b2e8726",
      "blockNumber": "0x9170f6",
      "gasUsed": "0x19a1c",
      "effectiveGasPrice": "0xf4240",
      "from": "0xad9fdad276ab1a430fd03177a07350cd7c61e897",
      "to": "0xf9ae13167b184faa4fea2f2e7249447f0e2a30a6",
      "contractAddress": null
    },
    {
      "status": "0x1",
      "cumulativeGasUsed": "0xfa2cdf",
      "logs": [
        {
          "address": "0xf9ae13167b184faa4fea2f2e7249447f0e2a30a6",
          "topics": [
            "0xddf252ad1be2c89b69c2b068fc378daa952ba7f163c4a11628f55a4df523b3ef",
            "0x0000000000000000000000000000000000000000000000000000000000000000",
            "0x000000000000000000000000ad9fdad276ab1a430fd03177a07350cd7c61e897",
            "0x0000000000000000000000000000000000000000000000000000000000000027"
          ],
          "data": "0x",
          "blockHash": "0xe942a19f0062ee428288b6a5f03c443740f3d4c9eb0597656559a8741b2e8726",
          "blockNumber": "0x9170f6",
          "blockTimestamp": "0x6904f74c",
          "transactionHash": "0xc29b0577e471d6244dae0fd400b032989716015a2bf44be89b023552f0f56523",
          "transactionIndex": "0xa5",
          "logIndex": "0xd1",
          "removed": false
        }
      ],
      "logsBloom": "0x0000000000000000000000000000000000000000000000000000000000000000000200000000000000000000000000000000000000000000000000000000000000000000000000c000000008000000000000000000000000000000000000000000000000020000000000000800000800000000000000000000000010000000000000000000000040000000800000000000000000000000000000000000000000000010000000000000000000000000000000000000000000000000000000000000000002000000000000000000000000000000000000000000000000000020000000000000000000000000100000000008000000000000000000000000000000",
      "type": "0x0",
      "transactionHash": "0xc29b0577e471d6244dae0fd400b032989716015a2bf44be89b023552f0f56523",
      "transactionIndex": "0xa5",
      "blockHash": "0xe942a19f0062ee428288b6a5f03c443740f3d4c9eb0597656559a8741b2e8726",
      "blockNumber": "0x9170f6",
      "gasUsed": "0x19a1c",
      "effectiveGasPrice": "0xf4240",
      "from": "0xad9fdad276ab1a430fd03177a07350cd7c61e897",
      "to": "0xf9ae13167b184faa4fea2f2e7249447f0e2a30a6",
      "contractAddress": null
    },
    {
      "status": "0x1",
      "cumulativeGasUsed": "0xfbc6fb",
      "logs": [
        {
          "address": "0xf9ae13167b184faa4fea2f2e7249447f0e2a30a6",
          "topics": [
            "0xddf252ad1be2c89b69c2b068fc378daa952ba7f163c4a11628f55a4df523b3ef",
            "0x0000000000000000000000000000000000000000000000000000000000000000",
            "0x000000000000000000000000ad9fdad276ab1a430fd03177a07350cd7c61e897",
            "0x0000000000000000000000000000000000000000000000000000000000000028"
          ],
          "data": "0x",
          "blockHash": "0xe942a19f0062ee428288b6a5f03c443740f3d4c9eb0597656559a8741b2e8726",
          "blockNumber": "0x9170f6",
          "blockTimestamp": "0x6904f74c",
          "transactionHash": "0x5a42cf0119d4ef3c81aedc2ada1313bdf4486fca1841c482353f6a8461fead53",
          "transactionIndex": "0xa6",
          "logIndex": "0xd2",
          "removed": false
        }
      ],
      "logsBloom": "0x0000000000000000000000000000000000000000000000000000000000000000000000000000000000000000000000000000000000000000000000000000000000000000000000c000000008000000000000000000000000000000000000000000000000020000000000000800000800000000000000000000000010000000000000000000000040000000800000000000000000000000000000000000000000000010000100000000000000000000000000000000000000000000000000000000000002000000000000000000000000000020000000000000000008000020000000000000000000000000000000000000000000000000000000000000000000",
      "type": "0x0",
      "transactionHash": "0x5a42cf0119d4ef3c81aedc2ada1313bdf4486fca1841c482353f6a8461fead53",
      "transactionIndex": "0xa6",
      "blockHash": "0xe942a19f0062ee428288b6a5f03c443740f3d4c9eb0597656559a8741b2e8726",
      "blockNumber": "0x9170f6",
      "gasUsed": "0x19a1c",
      "effectiveGasPrice": "0xf4240",
      "from": "0xad9fdad276ab1a430fd03177a07350cd7c61e897",
      "to": "0xf9ae13167b184faa4fea2f2e7249447f0e2a30a6",
      "contractAddress": null
    },
    {
      "status": "0x1",
      "cumulativeGasUsed": "0xfd6117",
      "logs": [
        {
          "address": "0xf9ae13167b184faa4fea2f2e7249447f0e2a30a6",
          "topics": [
            "0xddf252ad1be2c89b69c2b068fc378daa952ba7f163c4a11628f55a4df523b3ef",
            "0x0000000000000000000000000000000000000000000000000000000000000000",
            "0x000000000000000000000000ad9fdad276ab1a430fd03177a07350cd7c61e897",
            "0x0000000000000000000000000000000000000000000000000000000000000029"
          ],
          "data": "0x",
          "blockHash": "0xe942a19f0062ee428288b6a5f03c443740f3d4c9eb0597656559a8741b2e8726",
          "blockNumber": "0x9170f6",
          "blockTimestamp": "0x6904f74c",
          "transactionHash": "0x2ee346ac2bb891c15ec988f523ddab320fbf9505d79815d549c58903cbd6cbd1",
          "transactionIndex": "0xa7",
          "logIndex": "0xd3",
          "removed": false
        }
      ],
      "logsBloom": "0x0000000000000000000000000000800000000000000000000000000000000000000000000000000000000000000000000000000000000000000000000000000000000000000000c000000008000000000000000000000000000000000000000000000000020040000000000800000800000000000000000000000010000000000000000000000040000000800000000010000000000000000000000000000000000010000000000000000000000000000000000000000000000000000000000000000002000000000000000000000000000000000000000000000000000020000000000000000000000000000000000000000000000000000000000000000000",
      "type": "0x0",
      "transactionHash": "0x2ee346ac2bb891c15ec988f523ddab320fbf9505d79815d549c58903cbd6cbd1",
      "transactionIndex": "0xa7",
      "blockHash": "0xe942a19f0062ee428288b6a5f03c443740f3d4c9eb0597656559a8741b2e8726",
      "blockNumber": "0x9170f6",
      "gasUsed": "0x19a1c",
      "effectiveGasPrice": "0xf4240",
      "from": "0xad9fdad276ab1a430fd03177a07350cd7c61e897",
      "to": "0xf9ae13167b184faa4fea2f2e7249447f0e2a30a6",
      "contractAddress": null
    },
    {
      "status": "0x1",
      "cumulativeGasUsed": "0xfefb33",
      "logs": [
        {
          "address": "0xf9ae13167b184faa4fea2f2e7249447f0e2a30a6",
          "topics": [
            "0xddf252ad1be2c89b69c2b068fc378daa952ba7f163c4a11628f55a4df523b3ef",
            "0x0000000000000000000000000000000000000000000000000000000000000000",
            "0x000000000000000000000000ad9fdad276ab1a430fd03177a07350cd7c61e897",
            "0x000000000000000000000000000000000000000000000000000000000000002a"
          ],
          "data": "0x",
          "blockHash": "0xe942a19f0062ee428288b6a5f03c443740f3d4c9eb0597656559a8741b2e8726",
          "blockNumber": "0x9170f6",
          "blockTimestamp": "0x6904f74c",
          "transactionHash": "0xc236ee28b0fb22e67e4de63041bcfef3852a6bcf9a45036513cb6dc14f8b704a",
          "transactionIndex": "0xa8",
          "logIndex": "0xd4",
          "removed": false
        }
      ],
      "logsBloom": "0x0000000000000000000000000000000000000000000000000000000000000000000000000000400000000000000000000000000000000000000000000000000000000000000000c000000008000000000000000000000000000000000000000000000000020000000000000800000800000000000000000000000010000000000000000000000040000000800000000000000000000000000000000000000000000010000000000000000000000000000000000000000000000000000000000000000002000000000000000000000000000000000000000000000000000020100000000000000000000000000020000000000000000000000000000000000000",
      "type": "0x0",
      "transactionHash": "0xc236ee28b0fb22e67e4de63041bcfef3852a6bcf9a45036513cb6dc14f8b704a",
      "transactionIndex": "0xa8",
      "blockHash": "0xe942a19f0062ee428288b6a5f03c443740f3d4c9eb0597656559a8741b2e8726",
      "blockNumber": "0x9170f6",
      "gasUsed": "0x19a1c",
      "effectiveGasPrice": "0xf4240",
      "from": "0xad9fdad276ab1a430fd03177a07350cd7c61e897",
      "to": "0xf9ae13167b184faa4fea2f2e7249447f0e2a30a6",
      "contractAddress": null
    },
    {
      "status": "0x1",
      "cumulativeGasUsed": "0x100954f",
      "logs": [
        {
          "address": "0xf9ae13167b184faa4fea2f2e7249447f0e2a30a6",
          "topics": [
            "0xddf252ad1be2c89b69c2b068fc378daa952ba7f163c4a11628f55a4df523b3ef",
            "0x0000000000000000000000000000000000000000000000000000000000000000",
            "0x000000000000000000000000ad9fdad276ab1a430fd03177a07350cd7c61e897",
            "0x000000000000000000000000000000000000000000000000000000000000002b"
          ],
          "data": "0x",
          "blockHash": "0xe942a19f0062ee428288b6a5f03c443740f3d4c9eb0597656559a8741b2e8726",
          "blockNumber": "0x9170f6",
          "blockTimestamp": "0x6904f74c",
          "transactionHash": "0xf7421dbaba3ac55a1172f82c5de3a168163f60679d392d3b25ce402a684ebfac",
          "transactionIndex": "0xa9",
          "logIndex": "0xd5",
          "removed": false
        }
      ],
      "logsBloom": "0x0000000000000000000000000000000000000000000000000000000000000000000000000000000000000000000000000000000000000100000000000000000000000000000000c000800008000000000000000000000000000000000000000000000000020000000000000800000800000000000000000000000010000000000000000000000040000000800000000000000000000000000000000000000000000010000000000000000000000000000000000000000000000000000000000000000002000000100000000000000000000000000000000000000000000020000000000000000000000000000000000000000000000000000000000000000000",
      "type": "0x0",
      "transactionHash": "0xf7421dbaba3ac55a1172f82c5de3a168163f60679d392d3b25ce402a684ebfac",
      "transactionIndex": "0xa9",
      "blockHash": "0xe942a19f0062ee428288b6a5f03c443740f3d4c9eb0597656559a8741b2e8726",
      "blockNumber": "0x9170f6",
      "gasUsed": "0x19a1c",
      "effectiveGasPrice": "0xf4240",
      "from": "0xad9fdad276ab1a430fd03177a07350cd7c61e897",
      "to": "0xf9ae13167b184faa4fea2f2e7249447f0e2a30a6",
      "contractAddress": null
    },
    {
      "status": "0x1",
      "cumulativeGasUsed": "0x1022f6b",
      "logs": [
        {
          "address": "0xf9ae13167b184faa4fea2f2e7249447f0e2a30a6",
          "topics": [
            "0xddf252ad1be2c89b69c2b068fc378daa952ba7f163c4a11628f55a4df523b3ef",
            "0x0000000000000000000000000000000000000000000000000000000000000000",
            "0x000000000000000000000000ad9fdad276ab1a430fd03177a07350cd7c61e897",
            "0x000000000000000000000000000000000000000000000000000000000000002c"
          ],
          "data": "0x",
          "blockHash": "0xe942a19f0062ee428288b6a5f03c443740f3d4c9eb0597656559a8741b2e8726",
          "blockNumber": "0x9170f6",
          "blockTimestamp": "0x6904f74c",
          "transactionHash": "0xbe0349b06a32361f8214fc693c4287e6b88bc48900ab64286c2a85f2f02c1785",
          "transactionIndex": "0xaa",
          "logIndex": "0xd6",
          "removed": false
        }
      ],
      "logsBloom": "0x0000000000000000000000000000000000000000000000000000000000000000000000000000000000000000000000000000000000000000000000000000000000000000000000c000000008000000000000000000000000000000000000000000000000020000000000000900000800000000000000000000000010004000000000000000000040000000800000000000000000000000000000000000000000000010000000000000000000000000000000000000000000000000000000000000000002000000000000000000000000000000000000000800000000000020000000000000000000000000000000000000000000000000000000000000000000",
      "type": "0x0",
      "transactionHash": "0xbe0349b06a32361f8214fc693c4287e6b88bc48900ab64286c2a85f2f02c1785",
      "transactionIndex": "0xaa",
      "blockHash": "0xe942a19f0062ee428288b6a5f03c443740f3d4c9eb0597656559a8741b2e8726",
      "blockNumber": "0x9170f6",
      "gasUsed": "0x19a1c",
      "effectiveGasPrice": "0xf4240",
      "from": "0xad9fdad276ab1a430fd03177a07350cd7c61e897",
      "to": "0xf9ae13167b184faa4fea2f2e7249447f0e2a30a6",
      "contractAddress": null
    },
    {
      "status": "0x1",
      "cumulativeGasUsed": "0x103c987",
      "logs": [
        {
          "address": "0xf9ae13167b184faa4fea2f2e7249447f0e2a30a6",
          "topics": [
            "0xddf252ad1be2c89b69c2b068fc378daa952ba7f163c4a11628f55a4df523b3ef",
            "0x0000000000000000000000000000000000000000000000000000000000000000",
            "0x000000000000000000000000ad9fdad276ab1a430fd03177a07350cd7c61e897",
            "0x000000000000000000000000000000000000000000000000000000000000002d"
          ],
          "data": "0x",
          "blockHash": "0xe942a19f0062ee428288b6a5f03c443740f3d4c9eb0597656559a8741b2e8726",
          "blockNumber": "0x9170f6",
          "blockTimestamp": "0x6904f74c",
          "transactionHash": "0xb825632d93d9acfb65d449edb121760ecccb3bd898423df2c6c8c7cc72292229",
          "transactionIndex": "0xab",
          "logIndex": "0xd7",
          "removed": false
        }
      ],
      "logsBloom": "0x0000000000000000000000000000000000000000000000000000000000000000000000000000000000000000000000000000000000000000000000040000000000000000000000c000000008000000000000000000000000000000000000000000000000020000000000000800000800000000000000000000000010000000000000000000000040000000800000000000000000000000000000000000000000000010000000000000000000000000000000000000000000000010000000000000000002000000000000000000000000000000000000000000000000400020000000000000000000000000000000000000000000000000000000000000000000",
      "type": "0x0",
      "transactionHash": "0xb825632d93d9acfb65d449edb121760ecccb3bd898423df2c6c8c7cc72292229",
      "transactionIndex": "0xab",
      "blockHash": "0xe942a19f0062ee428288b6a5f03c443740f3d4c9eb0597656559a8741b2e8726",
      "blockNumber": "0x9170f6",
      "gasUsed": "0x19a1c",
      "effectiveGasPrice": "0xf4240",
      "from": "0xad9fdad276ab1a430fd03177a07350cd7c61e897",
      "to": "0xf9ae13167b184faa4fea2f2e7249447f0e2a30a6",
      "contractAddress": null
    },
    {
      "status": "0x1",
      "cumulativeGasUsed": "0x10563a3",
      "logs": [
        {
          "address": "0xf9ae13167b184faa4fea2f2e7249447f0e2a30a6",
          "topics": [
            "0xddf252ad1be2c89b69c2b068fc378daa952ba7f163c4a11628f55a4df523b3ef",
            "0x0000000000000000000000000000000000000000000000000000000000000000",
            "0x000000000000000000000000ad9fdad276ab1a430fd03177a07350cd7c61e897",
            "0x000000000000000000000000000000000000000000000000000000000000002e"
          ],
          "data": "0x",
          "blockHash": "0xe942a19f0062ee428288b6a5f03c443740f3d4c9eb0597656559a8741b2e8726",
          "blockNumber": "0x9170f6",
          "blockTimestamp": "0x6904f74c",
          "transactionHash": "0x7b09b0cf04ebb0422284f78751d0491e6c9c34df634aec428a387b32cc0b013b",
          "transactionIndex": "0xac",
          "logIndex": "0xd8",
          "removed": false
        }
      ],
      "logsBloom": "0x0400000000000000000000000000000000000000000000000000000000000000000000000000000000000000000000000000100000000000000000000000000000000000000000c080000008000000000000000000000000000000000000000000000000020000000000000800000800000000000000000000000010000000000000000000000040000000800000000000000000000000000000000000000000000010000000000000000000000000000000000000000000000000000000000000000002000000000000000000000000000000000000000000000000000020000000000000000000000000000000000000000000000000000000000000000000",
      "type": "0x0",
      "transactionHash": "0x7b09b0cf04ebb0422284f78751d0491e6c9c34df634aec428a387b32cc0b013b",
      "transactionIndex": "0xac",
      "blockHash": "0xe942a19f0062ee428288b6a5f03c443740f3d4c9eb0597656559a8741b2e8726",
      "blockNumber": "0x9170f6",
      "gasUsed": "0x19a1c",
      "effectiveGasPrice": "0xf4240",
      "from": "0xad9fdad276ab1a430fd03177a07350cd7c61e897",
      "to": "0xf9ae13167b184faa4fea2f2e7249447f0e2a30a6",
      "contractAddress": null
    },
    {
      "status": "0x1",
      "cumulativeGasUsed": "0x107cd74",
      "logs": [
        {
          "address": "0xf9ae13167b184faa4fea2f2e7249447f0e2a30a6",
          "topics": [
            "0xddf252ad1be2c89b69c2b068fc378daa952ba7f163c4a11628f55a4df523b3ef",
            "0x0000000000000000000000000000000000000000000000000000000000000000",
            "0x000000000000000000000000ad9fdad276ab1a430fd03177a07350cd7c61e897",
            "0x000000000000000000000000000000000000000000000000000000000000002f"
          ],
          "data": "0x",
          "blockHash": "0xe942a19f0062ee428288b6a5f03c443740f3d4c9eb0597656559a8741b2e8726",
          "blockNumber": "0x9170f6",
          "blockTimestamp": "0x6904f74c",
          "transactionHash": "0x4fdc30ed1d0417ac69b3d58214b02d6ba4588b4b9e4b943c36ae8837a286e209",
          "transactionIndex": "0xae",
          "logIndex": "0xd9",
          "removed": false
        }
      ],
      "logsBloom": "0x0000000000000000000000000000000000008000000000000000000000000000000000000000000000000000000000000000000000000000000000000000000000000000000000c000000008000000000000000000000000000000000000000000000000020000000000000800000800000000000000000000000010000000000000000000000040000000800000000000000000000000000000000000000000000010000000000000000000000000000000000000000000000000000000000000000002000000000000000000000000000000000000000000000000000020000000000000000000000000000000000000000000000004000000000000080000",
      "type": "0x0",
      "transactionHash": "0x4fdc30ed1d0417ac69b3d58214b02d6ba4588b4b9e4b943c36ae8837a286e209",
      "transactionIndex": "0xae",
      "blockHash": "0xe942a19f0062ee428288b6a5f03c443740f3d4c9eb0597656559a8741b2e8726",
      "blockNumber": "0x9170f6",
      "gasUsed": "0x19a1c",
      "effectiveGasPrice": "0xf4240",
      "from": "0xad9fdad276ab1a430fd03177a07350cd7c61e897",
      "to": "0xf9ae13167b184faa4fea2f2e7249447f0e2a30a6",
      "contractAddress": null
    },
    {
      "status": "0x1",
      "cumulativeGasUsed": "0x1096790",
      "logs": [
        {
          "address": "0xf9ae13167b184faa4fea2f2e7249447f0e2a30a6",
          "topics": [
            "0xddf252ad1be2c89b69c2b068fc378daa952ba7f163c4a11628f55a4df523b3ef",
            "0x0000000000000000000000000000000000000000000000000000000000000000",
            "0x000000000000000000000000ad9fdad276ab1a430fd03177a07350cd7c61e897",
            "0x0000000000000000000000000000000000000000000000000000000000000030"
          ],
          "data": "0x",
          "blockHash": "0xe942a19f0062ee428288b6a5f03c443740f3d4c9eb0597656559a8741b2e8726",
          "blockNumber": "0x9170f6",
          "blockTimestamp": "0x6904f74c",
          "transactionHash": "0xdcf51f307f67a58dc567584264ab3ddd079152173a003f98bd17cfd6ae417274",
          "transactionIndex": "0xaf",
          "logIndex": "0xda",
          "removed": false
        }
      ],
      "logsBloom": "0x0200000000000000000000000000000000000000000000000000000000000000000000000000000000000000000000000000000000000000000000000000000000000000000000c000000008000000000000000000000000000000000000000000000000020000000000000800000800000000000000000000000010000000000000000000000040000000800000000000000000000000000000000000000000000010000000000000000000000000000000000002000000000000000000000000000002000000000000000000000000000000000000000000000000000020000000000000000000000000000000000000000000000000000000000000000000",
      "type": "0x0",
      "transactionHash": "0xdcf51f307f67a58dc567584264ab3ddd079152173a003f98bd17cfd6ae417274",
      "transactionIndex": "0xaf",
      "blockHash": "0xe942a19f0062ee428288b6a5f03c443740f3d4c9eb0597656559a8741b2e8726",
      "blockNumber": "0x9170f6",
      "gasUsed": "0x19a1c",
      "effectiveGasPrice": "0xf4240",
      "from": "0xad9fdad276ab1a430fd03177a07350cd7c61e897",
      "to": "0xf9ae13167b184faa4fea2f2e7249447f0e2a30a6",
      "contractAddress": null
    },
    {
      "status": "0x1",
      "cumulativeGasUsed": "0x10b01ac",
      "logs": [
        {
          "address": "0xf9ae13167b184faa4fea2f2e7249447f0e2a30a6",
          "topics": [
            "0xddf252ad1be2c89b69c2b068fc378daa952ba7f163c4a11628f55a4df523b3ef",
            "0x0000000000000000000000000000000000000000000000000000000000000000",
            "0x000000000000000000000000ad9fdad276ab1a430fd03177a07350cd7c61e897",
            "0x0000000000000000000000000000000000000000000000000000000000000031"
          ],
          "data": "0x",
          "blockHash": "0xe942a19f0062ee428288b6a5f03c443740f3d4c9eb0597656559a8741b2e8726",
          "blockNumber": "0x9170f6",
          "blockTimestamp": "0x6904f74c",
          "transactionHash": "0x5ded606b58065de62c21d1a0bdec44f790dadc2858eb6a497483150dbe43b590",
          "transactionIndex": "0xb0",
          "logIndex": "0xdb",
          "removed": false
        }
      ],
      "logsBloom": "0x0000000000000000000000000000000000000000000000000000000000000000000000000000000000000000000000000000000000000000000000000000000004000000000000c000000008000000000000000000000001000000000000000000000000020000000000000800000800000040000000000000000010000000000000000000000040000000800000000000000000000000000000000000000000000010000000000000000000000000000000000000000000000000000000000000000002000000000000000000000000000000000000000000000000000020000000000000000000000000000000000000000000000000000000000000000000",
      "type": "0x0",
      "transactionHash": "0x5ded606b58065de62c21d1a0bdec44f790dadc2858eb6a497483150dbe43b590",
      "transactionIndex": "0xb0",
      "blockHash": "0xe942a19f0062ee428288b6a5f03c443740f3d4c9eb0597656559a8741b2e8726",
      "blockNumber": "0x9170f6",
      "gasUsed": "0x19a1c",
      "effectiveGasPrice": "0xf4240",
      "from": "0xad9fdad276ab1a430fd03177a07350cd7c61e897",
      "to": "0xf9ae13167b184faa4fea2f2e7249447f0e2a30a6",
      "contractAddress": null
    },
    {
      "status": "0x1",
      "cumulativeGasUsed": "0x10c9bc8",
      "logs": [
        {
          "address": "0xf9ae13167b184faa4fea2f2e7249447f0e2a30a6",
          "topics": [
            "0xddf252ad1be2c89b69c2b068fc378daa952ba7f163c4a11628f55a4df523b3ef",
            "0x0000000000000000000000000000000000000000000000000000000000000000",
            "0x000000000000000000000000ad9fdad276ab1a430fd03177a07350cd7c61e897",
            "0x0000000000000000000000000000000000000000000000000000000000000032"
          ],
          "data": "0x",
          "blockHash": "0xe942a19f0062ee428288b6a5f03c443740f3d4c9eb0597656559a8741b2e8726",
          "blockNumber": "0x9170f6",
          "blockTimestamp": "0x6904f74c",
          "transactionHash": "0xe27affc3268d3acee41f567cb0b2898090639a71a342936e762f61724e95beb3",
          "transactionIndex": "0xb1",
          "logIndex": "0xdc",
          "removed": false
        }
      ],
      "logsBloom": "0x0000000000000000000000000000000000000000000000000000000000000000000200000000000000000000000000000000000000000000000000000000000000000000000000c000000008000000000000000000000000000000000000000000000000020000000000000800000800000000000000000000000010000000000000000000000040000000800000000000000000000000000000000000000000000010000000000000000000000000000000000000000000000000000000000000000002800000000000000000000000000000000000000000000000000820000000000000000000000000000000000000000000000000000000000000000000",
      "type": "0x0",
      "transactionHash": "0xe27affc3268d3acee41f567cb0b2898090639a71a342936e762f61724e95beb3",
      "transactionIndex": "0xb1",
      "blockHash": "0xe942a19f0062ee428288b6a5f03c443740f3d4c9eb0597656559a8741b2e8726",
      "blockNumber": "0x9170f6",
      "gasUsed": "0x19a1c",
      "effectiveGasPrice": "0xf4240",
      "from": "0xad9fdad276ab1a430fd03177a07350cd7c61e897",
      "to": "0xf9ae13167b184faa4fea2f2e7249447f0e2a30a6",
      "contractAddress": null
    }
  ],
  "libraries": [],
  "pending": [],
  "returns": {},
  "timestamp": 1761933133420,
  "chain": 11155111,
  "commit": "c03d2ed"
}