{
  "transactions": [
    {
      "hash": "0xe6aee8610f3173fcfd7ae0f76d51f664d87ead542247dd38bc787b0f1046b50b",
      "transactionType": "CALL",
      "contractName": null,
      "contractAddress": "0x29025680f88f8b98097aed6fa625894f845413dc",
      "function": "mint(address,uint32)",
      "arguments": [
        "0xAd9fDaD276AB1A430fD03177A07350CD7C61E897",
        "0"
      ],
      "transaction": {
        "from": "0xad9fdad276ab1a430fd03177a07350cd7c61e897",
        "to": "0x29025680f88f8b98097aed6fa625894f845413dc",
        "gas": "0x2839d",
        "value": "0x0",
        "input": "0xd35e29d7000000000000000000000000ad9fdad276ab1a430fd03177a07350cd7c61e8970000000000000000000000000000000000000000000000000000000000000000",
        "nonce": "0x440",
        "chainId": "0xaa36a7"
      },
      "additionalContracts": [],
      "isFixedGasLimit": false
    },
    {
      "hash": "0x87f29b104a3a22677251debd8c92e89ed6c080bc70802ee70c943a0c015e81c4",
      "transactionType": "CALL",
      "contractName": null,
      "contractAddress": "0x29025680f88f8b98097aed6fa625894f845413dc",
      "function": "mint(address,uint32)",
      "arguments": [
        "0xAd9fDaD276AB1A430fD03177A07350CD7C61E897",
        "0"
      ],
      "transaction": {
        "from": "0xad9fdad276ab1a430fd03177a07350cd7c61e897",
        "to": "0x29025680f88f8b98097aed6fa625894f845413dc",
        "gas": "0x23675",
        "value": "0x0",
        "input": "0xd35e29d7000000000000000000000000ad9fdad276ab1a430fd03177a07350cd7c61e8970000000000000000000000000000000000000000000000000000000000000000",
        "nonce": "0x441",
        "chainId": "0xaa36a7"
      },
      "additionalContracts": [],
      "isFixedGasLimit": false
    },
    {
      "hash": "0x012ca0e1a1a8e80b9a3e44e22012445c68ecd64cef322f81fd63a2740277ea65",
      "transactionType": "CALL",
      "contractName": null,
      "contractAddress": "0x29025680f88f8b98097aed6fa625894f845413dc",
      "function": "mint(address,uint32)",
      "arguments": [
        "0xAd9fDaD276AB1A430fD03177A07350CD7C61E897",
        "0"
      ],
      "transaction": {
        "from": "0xad9fdad276ab1a430fd03177a07350cd7c61e897",
        "to": "0x29025680f88f8b98097aed6fa625894f845413dc",
        "gas": "0x23675",
        "value": "0x0",
        "input": "0xd35e29d7000000000000000000000000ad9fdad276ab1a430fd03177a07350cd7c61e8970000000000000000000000000000000000000000000000000000000000000000",
        "nonce": "0x442",
        "chainId": "0xaa36a7"
      },
      "additionalContracts": [],
      "isFixedGasLimit": false
    },
    {
      "hash": "0x8862414a4be03832d9d3a90185b933f6f31d94f2626828f7cb72c8d2a78d222e",
      "transactionType": "CALL",
      "contractName": null,
      "contractAddress": "0x29025680f88f8b98097aed6fa625894f845413dc",
      "function": "mint(address,uint32)",
      "arguments": [
        "0xAd9fDaD276AB1A430fD03177A07350CD7C61E897",
        "0"
      ],
      "transaction": {
        "from": "0xad9fdad276ab1a430fd03177a07350cd7c61e897",
        "to": "0x29025680f88f8b98097aed6fa625894f845413dc",
        "gas": "0x23675",
        "value": "0x0",
        "input": "0xd35e29d7000000000000000000000000ad9fdad276ab1a430fd03177a07350cd7c61e8970000000000000000000000000000000000000000000000000000000000000000",
        "nonce": "0x443",
        "chainId": "0xaa36a7"
      },
      "additionalContracts": [],
      "isFixedGasLimit": false
    },
    {
      "hash": "0x90efc6a7c6e26c24a9d07068192c2526ed45be0f008f8f379a98cadc2ce172ca",
      "transactionType": "CALL",
      "contractName": null,
      "contractAddress": "0x29025680f88f8b98097aed6fa625894f845413dc",
      "function": "mint(address,uint32)",
      "arguments": [
        "0xAd9fDaD276AB1A430fD03177A07350CD7C61E897",
        "0"
      ],
      "transaction": {
        "from": "0xad9fdad276ab1a430fd03177a07350cd7c61e897",
        "to": "0x29025680f88f8b98097aed6fa625894f845413dc",
        "gas": "0x23675",
        "value": "0x0",
        "input": "0xd35e29d7000000000000000000000000ad9fdad276ab1a430fd03177a07350cd7c61e8970000000000000000000000000000000000000000000000000000000000000000",
        "nonce": "0x444",
        "chainId": "0xaa36a7"
      },
      "additionalContracts": [],
      "isFixedGasLimit": false
    },
    {
      "hash": "0x95ff79a2ad3acb2eef533eb94277c28afc874c67b5cc1f6c1a6f3662049c841b",
      "transactionType": "CALL",
      "contractName": null,
      "contractAddress": "0x29025680f88f8b98097aed6fa625894f845413dc",
      "function": "mint(address,uint32)",
      "arguments": [
        "0xAd9fDaD276AB1A430fD03177A07350CD7C61E897",
        "0"
      ],
      "transaction": {
        "from": "0xad9fdad276ab1a430fd03177a07350cd7c61e897",
        "to": "0x29025680f88f8b98097aed6fa625894f845413dc",
        "gas": "0x23675",
        "value": "0x0",
        "input": "0xd35e29d7000000000000000000000000ad9fdad276ab1a430fd03177a07350cd7c61e8970000000000000000000000000000000000000000000000000000000000000000",
        "nonce": "0x445",
        "chainId": "0xaa36a7"
      },
      "additionalContracts": [],
      "isFixedGasLimit": false
    },
    {
      "hash": "0xa1dd95f020bd6905185cc63a99ac7be399384119a901c63b0f391e41b4713acc",
      "transactionType": "CALL",
      "contractName": null,
      "contractAddress": "0x29025680f88f8b98097aed6fa625894f845413dc",
      "function": "mint(address,uint32)",
      "arguments": [
        "0xAd9fDaD276AB1A430fD03177A07350CD7C61E897",
        "0"
      ],
      "transaction": {
        "from": "0xad9fdad276ab1a430fd03177a07350cd7c61e897",
        "to": "0x29025680f88f8b98097aed6fa625894f845413dc",
        "gas": "0x23675",
        "value": "0x0",
        "input": "0xd35e29d7000000000000000000000000ad9fdad276ab1a430fd03177a07350cd7c61e8970000000000000000000000000000000000000000000000000000000000000000",
        "nonce": "0x446",
        "chainId": "0xaa36a7"
      },
      "additionalContracts": [],
      "isFixedGasLimit": false
    },
    {
      "hash": "0x40b50e5ffe0aa966863d00cedfb5671da3867e2163201ef84b0cca8d805888c0",
      "transactionType": "CALL",
      "contractName": null,
      "contractAddress": "0x29025680f88f8b98097aed6fa625894f845413dc",
      "function": "mint(address,uint32)",
      "arguments": [
        "0xAd9fDaD276AB1A430fD03177A07350CD7C61E897",
        "0"
      ],
      "transaction": {
        "from": "0xad9fdad276ab1a430fd03177a07350cd7c61e897",
        "to": "0x29025680f88f8b98097aed6fa625894f845413dc",
        "gas": "0x23675",
        "value": "0x0",
        "input": "0xd35e29d7000000000000000000000000ad9fdad276ab1a430fd03177a07350cd7c61e8970000000000000000000000000000000000000000000000000000000000000000",
        "nonce": "0x447",
        "chainId": "0xaa36a7"
      },
      "additionalContracts": [],
      "isFixedGasLimit": false
    },
    {
      "hash": "0xfecf24396704f8d4b330946409f7d54a2500e7baf1480fa9d0a752d24f31682b",
      "transactionType": "CALL",
      "contractName": null,
      "contractAddress": "0x29025680f88f8b98097aed6fa625894f845413dc",
      "function": "mint(address,uint32)",
      "arguments": [
        "0xAd9fDaD276AB1A430fD03177A07350CD7C61E897",
        "0"
      ],
      "transaction": {
        "from": "0xad9fdad276ab1a430fd03177a07350cd7c61e897",
        "to": "0x29025680f88f8b98097aed6fa625894f845413dc",
        "gas": "0x23675",
        "value": "0x0",
        "input": "0xd35e29d7000000000000000000000000ad9fdad276ab1a430fd03177a07350cd7c61e8970000000000000000000000000000000000000000000000000000000000000000",
        "nonce": "0x448",
        "chainId": "0xaa36a7"
      },
      "additionalContracts": [],
      "isFixedGasLimit": false
    },
    {
      "hash": "0x63f2eeba64809d5306f2fca45150c7264a706ad6333e24168adfcff9d298389a",
      "transactionType": "CALL",
      "contractName": null,
      "contractAddress": "0x29025680f88f8b98097aed6fa625894f845413dc",
      "function": "mint(address,uint32)",
      "arguments": [
        "0xAd9fDaD276AB1A430fD03177A07350CD7C61E897",
        "0"
      ],
      "transaction": {
        "from": "0xad9fdad276ab1a430fd03177a07350cd7c61e897",
        "to": "0x29025680f88f8b98097aed6fa625894f845413dc",
        "gas": "0x23675",
        "value": "0x0",
        "input": "0xd35e29d7000000000000000000000000ad9fdad276ab1a430fd03177a07350cd7c61e8970000000000000000000000000000000000000000000000000000000000000000",
        "nonce": "0x449",
        "chainId": "0xaa36a7"
      },
      "additionalContracts": [],
      "isFixedGasLimit": false
    },
    {
      "hash": "0x4d1ce3814f23a316e313be1d71ba6c949cb5ad1a89b9c26fe4f8708b8a09e57d",
      "transactionType": "CALL",
      "contractName": null,
      "contractAddress": "0x29025680f88f8b98097aed6fa625894f845413dc",
      "function": "mint(address,uint32)",
      "arguments": [
        "0xAd9fDaD276AB1A430fD03177A07350CD7C61E897",
        "0"
      ],
      "transaction": {
        "from": "0xad9fdad276ab1a430fd03177a07350cd7c61e897",
        "to": "0x29025680f88f8b98097aed6fa625894f845413dc",
        "gas": "0x23675",
        "value": "0x0",
        "input": "0xd35e29d7000000000000000000000000ad9fdad276ab1a430fd03177a07350cd7c61e8970000000000000000000000000000000000000000000000000000000000000000",
        "nonce": "0x44a",
        "chainId": "0xaa36a7"
      },
      "additionalContracts": [],
      "isFixedGasLimit": false
    },
    {
      "hash": "0x90e652148219e06b8e2654540574f75d5677d8e5ff2b7b3013eb34707b90bf92",
      "transactionType": "CALL",
      "contractName": null,
      "contractAddress": "0x29025680f88f8b98097aed6fa625894f845413dc",
      "function": "mint(address,uint32)",
      "arguments": [
        "0xAd9fDaD276AB1A430fD03177A07350CD7C61E897",
        "0"
      ],
      "transaction": {
        "from": "0xad9fdad276ab1a430fd03177a07350cd7c61e897",
        "to": "0x29025680f88f8b98097aed6fa625894f845413dc",
        "gas": "0x23675",
        "value": "0x0",
        "input": "0xd35e29d7000000000000000000000000ad9fdad276ab1a430fd03177a07350cd7c61e8970000000000000000000000000000000000000000000000000000000000000000",
        "nonce": "0x44b",
        "chainId": "0xaa36a7"
      },
      "additionalContracts": [],
      "isFixedGasLimit": false
    },
    {
      "hash": "0xbcf7bb10f6a6aae80ce820b5b6093de5ed4b09eafefcbb44e08903f4c0d9f47b",
      "transactionType": "CALL",
      "contractName": null,
      "contractAddress": "0x29025680f88f8b98097aed6fa625894f845413dc",
      "function": "mint(address,uint32)",
      "arguments": [
        "0xAd9fDaD276AB1A430fD03177A07350CD7C61E897",
        "0"
      ],
      "transaction": {
        "from": "0xad9fdad276ab1a430fd03177a07350cd7c61e897",
        "to": "0x29025680f88f8b98097aed6fa625894f845413dc",
        "gas": "0x23675",
        "value": "0x0",
        "input": "0xd35e29d7000000000000000000000000ad9fdad276ab1a430fd03177a07350cd7c61e8970000000000000000000000000000000000000000000000000000000000000000",
        "nonce": "0x44c",
        "chainId": "0xaa36a7"
      },
      "additionalContracts": [],
      "isFixedGasLimit": false
    },
    {
      "hash": "0x4d678f12673e5847b243014858202397f9465f75064f2cae3d3d0a0163a51cc4",
      "transactionType": "CALL",
      "contractName": null,
      "contractAddress": "0x29025680f88f8b98097aed6fa625894f845413dc",
      "function": "mint(address,uint32)",
      "arguments": [
        "0xAd9fDaD276AB1A430fD03177A07350CD7C61E897",
        "0"
      ],
      "transaction": {
        "from": "0xad9fdad276ab1a430fd03177a07350cd7c61e897",
        "to": "0x29025680f88f8b98097aed6fa625894f845413dc",
        "gas": "0x23675",
        "value": "0x0",
        "input": "0xd35e29d7000000000000000000000000ad9fdad276ab1a430fd03177a07350cd7c61e8970000000000000000000000000000000000000000000000000000000000000000",
        "nonce": "0x44d",
        "chainId": "0xaa36a7"
      },
      "additionalContracts": [],
      "isFixedGasLimit": false
    },
    {
      "hash": "0xccd075fe446a94866d22ecf37e3c5c3855d9312dcde28766c395732ec19fa2f3",
      "transactionType": "CALL",
      "contractName": null,
      "contractAddress": "0x29025680f88f8b98097aed6fa625894f845413dc",
      "function": "mint(address,uint32)",
      "arguments": [
        "0xAd9fDaD276AB1A430fD03177A07350CD7C61E897",
        "0"
      ],
      "transaction": {
        "from": "0xad9fdad276ab1a430fd03177a07350cd7c61e897",
        "to": "0x29025680f88f8b98097aed6fa625894f845413dc",
        "gas": "0x23675",
        "value": "0x0",
        "input": "0xd35e29d7000000000000000000000000ad9fdad276ab1a430fd03177a07350cd7c61e8970000000000000000000000000000000000000000000000000000000000000000",
        "nonce": "0x44e",
        "chainId": "0xaa36a7"
      },
      "additionalContracts": [],
      "isFixedGasLimit": false
    },
    {
      "hash": "0xed333d5ec0d366343fdc981bf9f0a6673ba6ec7609036b1bde4270f0fdc44a88",
      "transactionType": "CALL",
      "contractName": null,
      "contractAddress": "0x29025680f88f8b98097aed6fa625894f845413dc",
      "function": "mint(address,uint32)",
      "arguments": [
        "0xAd9fDaD276AB1A430fD03177A07350CD7C61E897",
        "0"
      ],
      "transaction": {
        "from": "0xad9fdad276ab1a430fd03177a07350cd7c61e897",
        "to": "0x29025680f88f8b98097aed6fa625894f845413dc",
        "gas": "0x23675",
        "value": "0x0",
        "input": "0xd35e29d7000000000000000000000000ad9fdad276ab1a430fd03177a07350cd7c61e8970000000000000000000000000000000000000000000000000000000000000000",
        "nonce": "0x44f",
        "chainId": "0xaa36a7"
      },
      "additionalContracts": [],
      "isFixedGasLimit": false
    },
    {
      "hash": "0xf2dfdad15a9789830a14805815b5b181806709edf0899e15526ca9b4e00d3249",
      "transactionType": "CALL",
      "contractName": null,
      "contractAddress": "0x29025680f88f8b98097aed6fa625894f845413dc",
      "function": "mint(address,uint32)",
      "arguments": [
        "0xAd9fDaD276AB1A430fD03177A07350CD7C61E897",
        "0"
      ],
      "transaction": {
        "from": "0xad9fdad276ab1a430fd03177a07350cd7c61e897",
        "to": "0x29025680f88f8b98097aed6fa625894f845413dc",
        "gas": "0x23675",
        "value": "0x0",
        "input": "0xd35e29d7000000000000000000000000ad9fdad276ab1a430fd03177a07350cd7c61e8970000000000000000000000000000000000000000000000000000000000000000",
        "nonce": "0x450",
        "chainId": "0xaa36a7"
      },
      "additionalContracts": [],
      "isFixedGasLimit": false
    },
    {
      "hash": "0x09c6a076eef12362df5792271b3129d5acbc908546bf82e129e40d771a516f6c",
      "transactionType": "CALL",
      "contractName": null,
      "contractAddress": "0x29025680f88f8b98097aed6fa625894f845413dc",
      "function": "mint(address,uint32)",
      "arguments": [
        "0xAd9fDaD276AB1A430fD03177A07350CD7C61E897",
        "0"
      ],
      "transaction": {
        "from": "0xad9fdad276ab1a430fd03177a07350cd7c61e897",
        "to": "0x29025680f88f8b98097aed6fa625894f845413dc",
        "gas": "0x23675",
        "value": "0x0",
        "input": "0xd35e29d7000000000000000000000000ad9fdad276ab1a430fd03177a07350cd7c61e8970000000000000000000000000000000000000000000000000000000000000000",
        "nonce": "0x451",
        "chainId": "0xaa36a7"
      },
      "additionalContracts": [],
      "isFixedGasLimit": false
    },
    {
      "hash": "0x7462c1801e946676e8a5fba3898d6288a039b1a978044d961e1d0f6d51c949a3",
      "transactionType": "CALL",
      "contractName": null,
      "contractAddress": "0x29025680f88f8b98097aed6fa625894f845413dc",
      "function": "mint(address,uint32)",
      "arguments": [
        "0xAd9fDaD276AB1A430fD03177A07350CD7C61E897",
        "0"
      ],
      "transaction": {
        "from": "0xad9fdad276ab1a430fd03177a07350cd7c61e897",
        "to": "0x29025680f88f8b98097aed6fa625894f845413dc",
        "gas": "0x23675",
        "value": "0x0",
        "input": "0xd35e29d7000000000000000000000000ad9fdad276ab1a430fd03177a07350cd7c61e8970000000000000000000000000000000000000000000000000000000000000000",
        "nonce": "0x452",
        "chainId": "0xaa36a7"
      },
      "additionalContracts": [],
      "isFixedGasLimit": false
    },
    {
      "hash": "0xa3041836f989ec15cdf2f35614f8836354888eb9d81ba52f0c21df61f519de96",
      "transactionType": "CALL",
      "contractName": null,
      "contractAddress": "0x29025680f88f8b98097aed6fa625894f845413dc",
      "function": "mint(address,uint32)",
      "arguments": [
        "0xAd9fDaD276AB1A430fD03177A07350CD7C61E897",
        "0"
      ],
      "transaction": {
        "from": "0xad9fdad276ab1a430fd03177a07350cd7c61e897",
        "to": "0x29025680f88f8b98097aed6fa625894f845413dc",
        "gas": "0x23675",
        "value": "0x0",
        "input": "0xd35e29d7000000000000000000000000ad9fdad276ab1a430fd03177a07350cd7c61e8970000000000000000000000000000000000000000000000000000000000000000",
        "nonce": "0x453",
        "chainId": "0xaa36a7"
      },
      "additionalContracts": [],
      "isFixedGasLimit": false
    },
    {
      "hash": "0xd6d1bfad8dc15d2661ff79502a31d08d0bbfc9199644bfea88a27e44380e92c4",
      "transactionType": "CALL",
      "contractName": null,
      "contractAddress": "0x29025680f88f8b98097aed6fa625894f845413dc",
      "function": "mint(address,uint32)",
      "arguments": [
        "0xAd9fDaD276AB1A430fD03177A07350CD7C61E897",
        "0"
      ],
      "transaction": {
        "from": "0xad9fdad276ab1a430fd03177a07350cd7c61e897",
        "to": "0x29025680f88f8b98097aed6fa625894f845413dc",
        "gas": "0x23675",
        "value": "0x0",
        "input": "0xd35e29d7000000000000000000000000ad9fdad276ab1a430fd03177a07350cd7c61e8970000000000000000000000000000000000000000000000000000000000000000",
        "nonce": "0x454",
        "chainId": "0xaa36a7"
      },
      "additionalContracts": [],
      "isFixedGasLimit": false
    },
    {
      "hash": "0xa7d58043dc44af51817708f2279e6fe819f0ece70d1bdfed2974a670ca743658",
      "transactionType": "CALL",
      "contractName": null,
      "contractAddress": "0x29025680f88f8b98097aed6fa625894f845413dc",
      "function": "mint(address,uint32)",
      "arguments": [
        "0xAd9fDaD276AB1A430fD03177A07350CD7C61E897",
        "0"
      ],
      "transaction": {
        "from": "0xad9fdad276ab1a430fd03177a07350cd7c61e897",
        "to": "0x29025680f88f8b98097aed6fa625894f845413dc",
        "gas": "0x23675",
        "value": "0x0",
        "input": "0xd35e29d7000000000000000000000000ad9fdad276ab1a430fd03177a07350cd7c61e8970000000000000000000000000000000000000000000000000000000000000000",
        "nonce": "0x455",
        "chainId": "0xaa36a7"
      },
      "additionalContracts": [],
      "isFixedGasLimit": false
    },
    {
      "hash": "0xe61bae26b01b9df517935d8dc98778d198a1ad2cc9445f4978dbf419e9075bb0",
      "transactionType": "CALL",
      "contractName": null,
      "contractAddress": "0x29025680f88f8b98097aed6fa625894f845413dc",
      "function": "mint(address,uint32)",
      "arguments": [
        "0xAd9fDaD276AB1A430fD03177A07350CD7C61E897",
        "0"
      ],
      "transaction": {
        "from": "0xad9fdad276ab1a430fd03177a07350cd7c61e897",
        "to": "0x29025680f88f8b98097aed6fa625894f845413dc",
        "gas": "0x23675",
        "value": "0x0",
        "input": "0xd35e29d7000000000000000000000000ad9fdad276ab1a430fd03177a07350cd7c61e8970000000000000000000000000000000000000000000000000000000000000000",
        "nonce": "0x456",
        "chainId": "0xaa36a7"
      },
      "additionalContracts": [],
      "isFixedGasLimit": false
    },
    {
      "hash": "0x8ff2ed1f3124e54d8839fc4ce51be710f12b10001017228c2ffb574fdecc01ae",
      "transactionType": "CALL",
      "contractName": null,
      "contractAddress": "0x29025680f88f8b98097aed6fa625894f845413dc",
      "function": "mint(address,uint32)",
      "arguments": [
        "0xAd9fDaD276AB1A430fD03177A07350CD7C61E897",
        "0"
      ],
      "transaction": {
        "from": "0xad9fdad276ab1a430fd03177a07350cd7c61e897",
        "to": "0x29025680f88f8b98097aed6fa625894f845413dc",
        "gas": "0x23675",
        "value": "0x0",
        "input": "0xd35e29d7000000000000000000000000ad9fdad276ab1a430fd03177a07350cd7c61e8970000000000000000000000000000000000000000000000000000000000000000",
        "nonce": "0x457",
        "chainId": "0xaa36a7"
      },
      "additionalContracts": [],
      "isFixedGasLimit": false
    },
    {
      "hash": "0x0c892fd327aa4064895c0fddb992f39862fbf7aa3728bad70eaa355cb2e74f43",
      "transactionType": "CALL",
      "contractName": null,
      "contractAddress": "0x29025680f88f8b98097aed6fa625894f845413dc",
      "function": "mint(address,uint32)",
      "arguments": [
        "0xAd9fDaD276AB1A430fD03177A07350CD7C61E897",
        "0"
      ],
      "transaction": {
        "from": "0xad9fdad276ab1a430fd03177a07350cd7c61e897",
        "to": "0x29025680f88f8b98097aed6fa625894f845413dc",
        "gas": "0x23675",
        "value": "0x0",
        "input": "0xd35e29d7000000000000000000000000ad9fdad276ab1a430fd03177a07350cd7c61e8970000000000000000000000000000000000000000000000000000000000000000",
        "nonce": "0x458",
        "chainId": "0xaa36a7"
      },
      "additionalContracts": [],
      "isFixedGasLimit": false
    },
    {
      "hash": "0x26aecd2c6001ed4786b5462d64f56bc396a31c2848261361aec46af04f15ba3b",
      "transactionType": "CALL",
      "contractName": null,
      "contractAddress": "0x29025680f88f8b98097aed6fa625894f845413dc",
      "function": "mint(address,uint32)",
      "arguments": [
        "0xAd9fDaD276AB1A430fD03177A07350CD7C61E897",
        "0"
      ],
      "transaction": {
        "from": "0xad9fdad276ab1a430fd03177a07350cd7c61e897",
        "to": "0x29025680f88f8b98097aed6fa625894f845413dc",
        "gas": "0x23675",
        "value": "0x0",
        "input": "0xd35e29d7000000000000000000000000ad9fdad276ab1a430fd03177a07350cd7c61e8970000000000000000000000000000000000000000000000000000000000000000",
        "nonce": "0x459",
        "chainId": "0xaa36a7"
      },
      "additionalContracts": [],
      "isFixedGasLimit": false
    },
    {
      "hash": "0xd32884ae3de3b578ab68d4ba80247fc7310880868bc57fec03b4157a715e8774",
      "transactionType": "CALL",
      "contractName": null,
      "contractAddress": "0x29025680f88f8b98097aed6fa625894f845413dc",
      "function": "mint(address,uint32)",
      "arguments": [
        "0xAd9fDaD276AB1A430fD03177A07350CD7C61E897",
        "0"
      ],
      "transaction": {
        "from": "0xad9fdad276ab1a430fd03177a07350cd7c61e897",
        "to": "0x29025680f88f8b98097aed6fa625894f845413dc",
        "gas": "0x23675",
        "value": "0x0",
        "input": "0xd35e29d7000000000000000000000000ad9fdad276ab1a430fd03177a07350cd7c61e8970000000000000000000000000000000000000000000000000000000000000000",
        "nonce": "0x45a",
        "chainId": "0xaa36a7"
      },
      "additionalContracts": [],
      "isFixedGasLimit": false
    },
    {
      "hash": "0xd6e7197ae8f585b655bc553f45ba9bf27c3e6bd9b8e8bb726e4d4a5e6c303bd2",
      "transactionType": "CALL",
      "contractName": null,
      "contractAddress": "0x29025680f88f8b98097aed6fa625894f845413dc",
      "function": "mint(address,uint32)",
      "arguments": [
        "0xAd9fDaD276AB1A430fD03177A07350CD7C61E897",
        "0"
      ],
      "transaction": {
        "from": "0xad9fdad276ab1a430fd03177a07350cd7c61e897",
        "to": "0x29025680f88f8b98097aed6fa625894f845413dc",
        "gas": "0x23675",
        "value": "0x0",
        "input": "0xd35e29d7000000000000000000000000ad9fdad276ab1a430fd03177a07350cd7c61e8970000000000000000000000000000000000000000000000000000000000000000",
        "nonce": "0x45b",
        "chainId": "0xaa36a7"
      },
      "additionalContracts": [],
      "isFixedGasLimit": false
    },
    {
      "hash": "0xe7990281107686ad7006533d169fae3cfac043f4119761140bada72cd33922b6",
      "transactionType": "CALL",
      "contractName": null,
      "contractAddress": "0x29025680f88f8b98097aed6fa625894f845413dc",
      "function": "mint(address,uint32)",
      "arguments": [
        "0xAd9fDaD276AB1A430fD03177A07350CD7C61E897",
        "0"
      ],
      "transaction": {
        "from": "0xad9fdad276ab1a430fd03177a07350cd7c61e897",
        "to": "0x29025680f88f8b98097aed6fa625894f845413dc",
        "gas": "0x23675",
        "value": "0x0",
        "input": "0xd35e29d7000000000000000000000000ad9fdad276ab1a430fd03177a07350cd7c61e8970000000000000000000000000000000000000000000000000000000000000000",
        "nonce": "0x45c",
        "chainId": "0xaa36a7"
      },
      "additionalContracts": [],
      "isFixedGasLimit": false
    },
    {
      "hash": "0x65df62e84b06122932dac1000ac3eed9448f69988f4dc35f3b21b9bba7566776",
      "transactionType": "CALL",
      "contractName": null,
      "contractAddress": "0x29025680f88f8b98097aed6fa625894f845413dc",
      "function": "mint(address,uint32)",
      "arguments": [
        "0xAd9fDaD276AB1A430fD03177A07350CD7C61E897",
        "0"
      ],
      "transaction": {
        "from": "0xad9fdad276ab1a430fd03177a07350cd7c61e897",
        "to": "0x29025680f88f8b98097aed6fa625894f845413dc",
        "gas": "0x23675",
        "value": "0x0",
        "input": "0xd35e29d7000000000000000000000000ad9fdad276ab1a430fd03177a07350cd7c61e8970000000000000000000000000000000000000000000000000000000000000000",
        "nonce": "0x45d",
        "chainId": "0xaa36a7"
      },
      "additionalContracts": [],
      "isFixedGasLimit": false
    },
    {
      "hash": "0xad8b6ebd9dee412274761cf952736bea18547ef08d6ac9b2778084b996fc1f7c",
      "transactionType": "CALL",
      "contractName": null,
      "contractAddress": "0x29025680f88f8b98097aed6fa625894f845413dc",
      "function": "mint(address,uint32)",
      "arguments": [
        "0xAd9fDaD276AB1A430fD03177A07350CD7C61E897",
        "0"
      ],
      "transaction": {
        "from": "0xad9fdad276ab1a430fd03177a07350cd7c61e897",
        "to": "0x29025680f88f8b98097aed6fa625894f845413dc",
        "gas": "0x23675",
        "value": "0x0",
        "input": "0xd35e29d7000000000000000000000000ad9fdad276ab1a430fd03177a07350cd7c61e8970000000000000000000000000000000000000000000000000000000000000000",
        "nonce": "0x45e",
        "chainId": "0xaa36a7"
      },
      "additionalContracts": [],
      "isFixedGasLimit": false
    },
    {
      "hash": "0x379aab020d2f831b2a1930f5cc7605b056d84639e574d0ffc97257177a472189",
      "transactionType": "CALL",
      "contractName": null,
      "contractAddress": "0x29025680f88f8b98097aed6fa625894f845413dc",
      "function": "mint(address,uint32)",
      "arguments": [
        "0xAd9fDaD276AB1A430fD03177A07350CD7C61E897",
        "0"
      ],
      "transaction": {
        "from": "0xad9fdad276ab1a430fd03177a07350cd7c61e897",
        "to": "0x29025680f88f8b98097aed6fa625894f845413dc",
        "gas": "0x23675",
        "value": "0x0",
        "input": "0xd35e29d7000000000000000000000000ad9fdad276ab1a430fd03177a07350cd7c61e8970000000000000000000000000000000000000000000000000000000000000000",
        "nonce": "0x45f",
        "chainId": "0xaa36a7"
      },
      "additionalContracts": [],
      "isFixedGasLimit": false
    },
    {
      "hash": "0x1558d24a3b36c4445ee5a70bd790071f4fc90b547858cbcb3216a5bc9f0cfc0c",
      "transactionType": "CALL",
      "contractName": null,
      "contractAddress": "0x29025680f88f8b98097aed6fa625894f845413dc",
      "function": "mint(address,uint32)",
      "arguments": [
        "0xAd9fDaD276AB1A430fD03177A07350CD7C61E897",
        "0"
      ],
      "transaction": {
        "from": "0xad9fdad276ab1a430fd03177a07350cd7c61e897",
        "to": "0x29025680f88f8b98097aed6fa625894f845413dc",
        "gas": "0x23675",
        "value": "0x0",
        "input": "0xd35e29d7000000000000000000000000ad9fdad276ab1a430fd03177a07350cd7c61e8970000000000000000000000000000000000000000000000000000000000000000",
        "nonce": "0x460",
        "chainId": "0xaa36a7"
      },
      "additionalContracts": [],
      "isFixedGasLimit": false
    },
    {
      "hash": "0x45e346a53d4388eaef4057584d5c9c319f0325ba19962079b419d55720839860",
      "transactionType": "CALL",
      "contractName": null,
      "contractAddress": "0x29025680f88f8b98097aed6fa625894f845413dc",
      "function": "mint(address,uint32)",
      "arguments": [
        "0xAd9fDaD276AB1A430fD03177A07350CD7C61E897",
        "0"
      ],
      "transaction": {
        "from": "0xad9fdad276ab1a430fd03177a07350cd7c61e897",
        "to": "0x29025680f88f8b98097aed6fa625894f845413dc",
        "gas": "0x23675",
        "value": "0x0",
        "input": "0xd35e29d7000000000000000000000000ad9fdad276ab1a430fd03177a07350cd7c61e8970000000000000000000000000000000000000000000000000000000000000000",
        "nonce": "0x461",
        "chainId": "0xaa36a7"
      },
      "additionalContracts": [],
      "isFixedGasLimit": false
    },
    {
      "hash": "0xf80389f10869a89250ba8d1f77a27532042687e7dfd93e82ea434dc16cb2c789",
      "transactionType": "CALL",
      "contractName": null,
      "contractAddress": "0x29025680f88f8b98097aed6fa625894f845413dc",
      "function": "mint(address,uint32)",
      "arguments": [
        "0xAd9fDaD276AB1A430fD03177A07350CD7C61E897",
        "0"
      ],
      "transaction": {
        "from": "0xad9fdad276ab1a430fd03177a07350cd7c61e897",
        "to": "0x29025680f88f8b98097aed6fa625894f845413dc",
        "gas": "0x23675",
        "value": "0x0",
        "input": "0xd35e29d7000000000000000000000000ad9fdad276ab1a430fd03177a07350cd7c61e8970000000000000000000000000000000000000000000000000000000000000000",
        "nonce": "0x462",
        "chainId": "0xaa36a7"
      },
      "additionalContracts": [],
      "isFixedGasLimit": false
    },
    {
      "hash": "0x33c1298e6976ea69e0d9ead0249af7131ea0d5e6f0183e66b0e2a3f714a8ef77",
      "transactionType": "CALL",
      "contractName": null,
      "contractAddress": "0x29025680f88f8b98097aed6fa625894f845413dc",
      "function": "mint(address,uint32)",
      "arguments": [
        "0xAd9fDaD276AB1A430fD03177A07350CD7C61E897",
        "0"
      ],
      "transaction": {
        "from": "0xad9fdad276ab1a430fd03177a07350cd7c61e897",
        "to": "0x29025680f88f8b98097aed6fa625894f845413dc",
        "gas": "0x23675",
        "value": "0x0",
        "input": "0xd35e29d7000000000000000000000000ad9fdad276ab1a430fd03177a07350cd7c61e8970000000000000000000000000000000000000000000000000000000000000000",
        "nonce": "0x463",
        "chainId": "0xaa36a7"
      },
      "additionalContracts": [],
      "isFixedGasLimit": false
    },
    {
      "hash": "0x698392a240ca556d99ee074fd5e0a77e9561635e8a217f5e8df1c3f420fad6da",
      "transactionType": "CALL",
      "contractName": null,
      "contractAddress": "0x29025680f88f8b98097aed6fa625894f845413dc",
      "function": "mint(address,uint32)",
      "arguments": [
        "0xAd9fDaD276AB1A430fD03177A07350CD7C61E897",
        "0"
      ],
      "transaction": {
        "from": "0xad9fdad276ab1a430fd03177a07350cd7c61e897",
        "to": "0x29025680f88f8b98097aed6fa625894f845413dc",
        "gas": "0x23675",
        "value": "0x0",
        "input": "0xd35e29d7000000000000000000000000ad9fdad276ab1a430fd03177a07350cd7c61e8970000000000000000000000000000000000000000000000000000000000000000",
        "nonce": "0x464",
        "chainId": "0xaa36a7"
      },
      "additionalContracts": [],
      "isFixedGasLimit": false
    },
    {
      "hash": "0x1b834d17b30c240b58fcc9b3f85480fb80d8909c3e35114efab518d5ac6a1fd1",
      "transactionType": "CALL",
      "contractName": null,
      "contractAddress": "0x29025680f88f8b98097aed6fa625894f845413dc",
      "function": "mint(address,uint32)",
      "arguments": [
        "0xAd9fDaD276AB1A430fD03177A07350CD7C61E897",
        "0"
      ],
      "transaction": {
        "from": "0xad9fdad276ab1a430fd03177a07350cd7c61e897",
        "to": "0x29025680f88f8b98097aed6fa625894f845413dc",
        "gas": "0x23675",
        "value": "0x0",
        "input": "0xd35e29d7000000000000000000000000ad9fdad276ab1a430fd03177a07350cd7c61e8970000000000000000000000000000000000000000000000000000000000000000",
        "nonce": "0x465",
        "chainId": "0xaa36a7"
      },
      "additionalContracts": [],
      "isFixedGasLimit": false
    },
    {
      "hash": "0x26ba77077f4d4bc474776a73d1d9cb75ea888b58a6f5a8f204c7100ba362412e",
      "transactionType": "CALL",
      "contractName": null,
      "contractAddress": "0x29025680f88f8b98097aed6fa625894f845413dc",
      "function": "mint(address,uint32)",
      "arguments": [
        "0xAd9fDaD276AB1A430fD03177A07350CD7C61E897",
        "0"
      ],
      "transaction": {
        "from": "0xad9fdad276ab1a430fd03177a07350cd7c61e897",
        "to": "0x29025680f88f8b98097aed6fa625894f845413dc",
        "gas": "0x23675",
        "value": "0x0",
        "input": "0xd35e29d7000000000000000000000000ad9fdad276ab1a430fd03177a07350cd7c61e8970000000000000000000000000000000000000000000000000000000000000000",
        "nonce": "0x466",
        "chainId": "0xaa36a7"
      },
      "additionalContracts": [],
      "isFixedGasLimit": false
    },
    {
      "hash": "0x633cbdf3f7c491766f4914fefe4536496e8345d92bd3d601799c6e77e2f1f022",
      "transactionType": "CALL",
      "contractName": null,
      "contractAddress": "0x29025680f88f8b98097aed6fa625894f845413dc",
      "function": "mint(address,uint32)",
      "arguments": [
        "0xAd9fDaD276AB1A430fD03177A07350CD7C61E897",
        "0"
      ],
      "transaction": {
        "from": "0xad9fdad276ab1a430fd03177a07350cd7c61e897",
        "to": "0x29025680f88f8b98097aed6fa625894f845413dc",
        "gas": "0x23675",
        "value": "0x0",
        "input": "0xd35e29d7000000000000000000000000ad9fdad276ab1a430fd03177a07350cd7c61e8970000000000000000000000000000000000000000000000000000000000000000",
        "nonce": "0x467",
        "chainId": "0xaa36a7"
      },
      "additionalContracts": [],
      "isFixedGasLimit": false
    },
    {
      "hash": "0x798c46688a2d31cf0f3fa10a87001540ff9053edc563bb422bed7e832d5e775c",
      "transactionType": "CALL",
      "contractName": null,
      "contractAddress": "0x29025680f88f8b98097aed6fa625894f845413dc",
      "function": "mint(address,uint32)",
      "arguments": [
        "0xAd9fDaD276AB1A430fD03177A07350CD7C61E897",
        "0"
      ],
      "transaction": {
        "from": "0xad9fdad276ab1a430fd03177a07350cd7c61e897",
        "to": "0x29025680f88f8b98097aed6fa625894f845413dc",
        "gas": "0x23675",
        "value": "0x0",
        "input": "0xd35e29d7000000000000000000000000ad9fdad276ab1a430fd03177a07350cd7c61e8970000000000000000000000000000000000000000000000000000000000000000",
        "nonce": "0x468",
        "chainId": "0xaa36a7"
      },
      "additionalContracts": [],
      "isFixedGasLimit": false
    },
    {
      "hash": "0x26abaf0fbe59988a8405f9ef903de682d125b1be9354e1fb74a7545cbba5ba00",
      "transactionType": "CALL",
      "contractName": null,
      "contractAddress": "0x29025680f88f8b98097aed6fa625894f845413dc",
      "function": "mint(address,uint32)",
      "arguments": [
        "0xAd9fDaD276AB1A430fD03177A07350CD7C61E897",
        "0"
      ],
      "transaction": {
        "from": "0xad9fdad276ab1a430fd03177a07350cd7c61e897",
        "to": "0x29025680f88f8b98097aed6fa625894f845413dc",
        "gas": "0x23675",
        "value": "0x0",
        "input": "0xd35e29d7000000000000000000000000ad9fdad276ab1a430fd03177a07350cd7c61e8970000000000000000000000000000000000000000000000000000000000000000",
        "nonce": "0x469",
        "chainId": "0xaa36a7"
      },
      "additionalContracts": [],
      "isFixedGasLimit": false
    },
    {
      "hash": "0x0de1deae34a8df17648b3835a952f6a8f84cbdcfc5060d63e1c0128feb518a72",
      "transactionType": "CALL",
      "contractName": null,
      "contractAddress": "0x29025680f88f8b98097aed6fa625894f845413dc",
      "function": "mint(address,uint32)",
      "arguments": [
        "0xAd9fDaD276AB1A430fD03177A07350CD7C61E897",
        "0"
      ],
      "transaction": {
        "from": "0xad9fdad276ab1a430fd03177a07350cd7c61e897",
        "to": "0x29025680f88f8b98097aed6fa625894f845413dc",
        "gas": "0x23675",
        "value": "0x0",
        "input": "0xd35e29d7000000000000000000000000ad9fdad276ab1a430fd03177a07350cd7c61e8970000000000000000000000000000000000000000000000000000000000000000",
        "nonce": "0x46a",
        "chainId": "0xaa36a7"
      },
      "additionalContracts": [],
      "isFixedGasLimit": false
    },
    {
      "hash": "0x7b22f6c67e9108b5086d6efcf2e804b6c78e985dd5766759fc9c3d93d4a09713",
      "transactionType": "CALL",
      "contractName": null,
      "contractAddress": "0x29025680f88f8b98097aed6fa625894f845413dc",
      "function": "mint(address,uint32)",
      "arguments": [
        "0xAd9fDaD276AB1A430fD03177A07350CD7C61E897",
        "0"
      ],
      "transaction": {
        "from": "0xad9fdad276ab1a430fd03177a07350cd7c61e897",
        "to": "0x29025680f88f8b98097aed6fa625894f845413dc",
        "gas": "0x23675",
        "value": "0x0",
        "input": "0xd35e29d7000000000000000000000000ad9fdad276ab1a430fd03177a07350cd7c61e8970000000000000000000000000000000000000000000000000000000000000000",
        "nonce": "0x46b",
        "chainId": "0xaa36a7"
      },
      "additionalContracts": [],
      "isFixedGasLimit": false
    },
    {
      "hash": "0x6484d0284ffa8eb22fad6d4b563315e251b10e32db925ffcf980353c7ec34f08",
      "transactionType": "CALL",
      "contractName": null,
      "contractAddress": "0x29025680f88f8b98097aed6fa625894f845413dc",
      "function": "mint(address,uint32)",
      "arguments": [
        "0xAd9fDaD276AB1A430fD03177A07350CD7C61E897",
        "0"
      ],
      "transaction": {
        "from": "0xad9fdad276ab1a430fd03177a07350cd7c61e897",
        "to": "0x29025680f88f8b98097aed6fa625894f845413dc",
        "gas": "0x23675",
        "value": "0x0",
        "input": "0xd35e29d7000000000000000000000000ad9fdad276ab1a430fd03177a07350cd7c61e8970000000000000000000000000000000000000000000000000000000000000000",
        "nonce": "0x46c",
        "chainId": "0xaa36a7"
      },
      "additionalContracts": [],
      "isFixedGasLimit": false
    },
    {
      "hash": "0xc1c003e30aaf17c91c53f635ae166f9453f38ff1c8d625be3dd79fcef5e8c02b",
      "transactionType": "CALL",
      "contractName": null,
      "contractAddress": "0x29025680f88f8b98097aed6fa625894f845413dc",
      "function": "mint(address,uint32)",
      "arguments": [
        "0xAd9fDaD276AB1A430fD03177A07350CD7C61E897",
        "0"
      ],
      "transaction": {
        "from": "0xad9fdad276ab1a430fd03177a07350cd7c61e897",
        "to": "0x29025680f88f8b98097aed6fa625894f845413dc",
        "gas": "0x23675",
        "value": "0x0",
        "input": "0xd35e29d7000000000000000000000000ad9fdad276ab1a430fd03177a07350cd7c61e8970000000000000000000000000000000000000000000000000000000000000000",
        "nonce": "0x46d",
        "chainId": "0xaa36a7"
      },
      "additionalContracts": [],
      "isFixedGasLimit": false
    },
    {
      "hash": "0x1666be40a3fde2de9be071a683f94fe209aee33714f950787a3e6779ead7f02d",
      "transactionType": "CALL",
      "contractName": null,
      "contractAddress": "0x29025680f88f8b98097aed6fa625894f845413dc",
      "function": "mint(address,uint32)",
      "arguments": [
        "0xAd9fDaD276AB1A430fD03177A07350CD7C61E897",
        "0"
      ],
      "transaction": {
        "from": "0xad9fdad276ab1a430fd03177a07350cd7c61e897",
        "to": "0x29025680f88f8b98097aed6fa625894f845413dc",
        "gas": "0x23675",
        "value": "0x0",
        "input": "0xd35e29d7000000000000000000000000ad9fdad276ab1a430fd03177a07350cd7c61e8970000000000000000000000000000000000000000000000000000000000000000",
        "nonce": "0x46e",
        "chainId": "0xaa36a7"
      },
      "additionalContracts": [],
      "isFixedGasLimit": false
    },
    {
      "hash": "0x83a8976ff85da5706a626f33c97a5bbd830da75b38a3c0bd52da4ae2236d3ea9",
      "transactionType": "CALL",
      "contractName": null,
      "contractAddress": "0x29025680f88f8b98097aed6fa625894f845413dc",
      "function": "mint(address,uint32)",
      "arguments": [
        "0xAd9fDaD276AB1A430fD03177A07350CD7C61E897",
        "0"
      ],
      "transaction": {
        "from": "0xad9fdad276ab1a430fd03177a07350cd7c61e897",
        "to": "0x29025680f88f8b98097aed6fa625894f845413dc",
        "gas": "0x23675",
        "value": "0x0",
        "input": "0xd35e29d7000000000000000000000000ad9fdad276ab1a430fd03177a07350cd7c61e8970000000000000000000000000000000000000000000000000000000000000000",
        "nonce": "0x46f",
        "chainId": "0xaa36a7"
      },
      "additionalContracts": [],
      "isFixedGasLimit": false
    },
    {
      "hash": "0xb07f444b832cef6b82bfe69dd06f5b2802e5495e4e115a0e9a2f551d07a68f5f",
      "transactionType": "CALL",
      "contractName": null,
      "contractAddress": "0x29025680f88f8b98097aed6fa625894f845413dc",
      "function": "mint(address,uint32)",
      "arguments": [
        "0xAd9fDaD276AB1A430fD03177A07350CD7C61E897",
        "0"
      ],
      "transaction": {
        "from": "0xad9fdad276ab1a430fd03177a07350cd7c61e897",
        "to": "0x29025680f88f8b98097aed6fa625894f845413dc",
        "gas": "0x23675",
        "value": "0x0",
        "input": "0xd35e29d7000000000000000000000000ad9fdad276ab1a430fd03177a07350cd7c61e8970000000000000000000000000000000000000000000000000000000000000000",
        "nonce": "0x470",
        "chainId": "0xaa36a7"
      },
      "additionalContracts": [],
      "isFixedGasLimit": false
    },
    {
      "hash": "0x3cd2d74f81508458c5e784fcac672fb3622905b9b8aa925c5c9bf46073fd52dd",
      "transactionType": "CALL",
      "contractName": null,
      "contractAddress": "0x29025680f88f8b98097aed6fa625894f845413dc",
      "function": "mint(address,uint32)",
      "arguments": [
        "0xAd9fDaD276AB1A430fD03177A07350CD7C61E897",
        "0"
      ],
      "transaction": {
        "from": "0xad9fdad276ab1a430fd03177a07350cd7c61e897",
        "to": "0x29025680f88f8b98097aed6fa625894f845413dc",
        "gas": "0x23675",
        "value": "0x0",
        "input": "0xd35e29d7000000000000000000000000ad9fdad276ab1a430fd03177a07350cd7c61e8970000000000000000000000000000000000000000000000000000000000000000",
        "nonce": "0x471",
        "chainId": "0xaa36a7"
      },
      "additionalContracts": [],
      "isFixedGasLimit": false
    }
  ],
  "receipts": [
    {
      "status": "0x1",
      "cumulativeGasUsed": "0x75ebd1",
      "logs": [
        {
          "address": "0x29025680f88f8b98097aed6fa625894f845413dc",
          "topics": [
            "0xddf252ad1be2c89b69c2b068fc378daa952ba7f163c4a11628f55a4df523b3ef",
            "0x0000000000000000000000000000000000000000000000000000000000000000",
            "0x000000000000000000000000ad9fdad276ab1a430fd03177a07350cd7c61e897",
            "0x0000000000000000000000000000000000000000000000000000000000000001"
          ],
          "data": "0x",
          "blockHash": "0xaf65474c6ca4f397c86b2c27351bc2f4e17cf186abf627ad63954300ea0fe940",
          "blockNumber": "0x91adf3",
          "blockTimestamp": "0x6907d46c",
          "transactionHash": "0xe6aee8610f3173fcfd7ae0f76d51f664d87ead542247dd38bc787b0f1046b50b",
          "transactionIndex": "0x31",
          "logIndex": "0x4a",
          "removed": false
        }
      ],
      "logsBloom": "0x00000000000000000000000000000000000000000000000000000000000000000000000000000000000000000000000000000000000000000000000000040000000000000000004000000008000000000000000000040000000000000000000000000000020000000000000000000800000000000000000000000010000000000000000000000040000000000000000000000000000000000000000000000000000010000000000000000000000000000000000000000001001000100000000000000002000000000000000000000000000000000000000000000000000060000000000000000000000000000000000000000000000000000000000000000000",
      "type": "0x0",
      "transactionHash": "0xe6aee8610f3173fcfd7ae0f76d51f664d87ead542247dd38bc787b0f1046b50b",
      "transactionIndex": "0x31",
      "blockHash": "0xaf65474c6ca4f397c86b2c27351bc2f4e17cf186abf627ad63954300ea0fe940",
      "blockNumber": "0x91adf3",
      "gasUsed": "0x1d1f8",
      "effectiveGasPrice": "0xf4248",
      "from": "0xad9fdad276ab1a430fd03177a07350cd7c61e897",
      "to": "0x29025680f88f8b98097aed6fa625894f845413dc",
      "contractAddress": null
    },
    {
      "status": "0x1",
      "cumulativeGasUsed": "0x7785ed",
      "logs": [
        {
          "address": "0x29025680f88f8b98097aed6fa625894f845413dc",
          "topics": [
            "0xddf252ad1be2c89b69c2b068fc378daa952ba7f163c4a11628f55a4df523b3ef",
            "0x0000000000000000000000000000000000000000000000000000000000000000",
            "0x000000000000000000000000ad9fdad276ab1a430fd03177a07350cd7c61e897",
            "0x0000000000000000000000000000000000000000000000000000000000000002"
          ],
          "data": "0x",
          "blockHash": "0xaf65474c6ca4f397c86b2c27351bc2f4e17cf186abf627ad63954300ea0fe940",
          "blockNumber": "0x91adf3",
          "blockTimestamp": "0x6907d46c",
          "transactionHash": "0x87f29b104a3a22677251debd8c92e89ed6c080bc70802ee70c943a0c015e81c4",
          "transactionIndex": "0x32",
          "logIndex": "0x4b",
          "removed": false
        }
      ],
      "logsBloom": "0x04000000000000000000000000000000000000000000000000000000000000000000000000000000000000000000000000000000000000000000000000000000000000000000004000000008000000000000000000000000000000000000000000000000020000000000000000000800000000000000000000000010000000000000000000000040000000000000000000000000000000000000000000000000000010000000000000000100000000000000000000000001001000100000000000000002000000000000000000000000000000000000000000000000000020000000000000000000000000000000000000000000008000000000000000000000",
      "type": "0x0",
      "transactionHash": "0x87f29b104a3a22677251debd8c92e89ed6c080bc70802ee70c943a0c015e81c4",
      "transactionIndex": "0x32",
      "blockHash": "0xaf65474c6ca4f397c86b2c27351bc2f4e17cf186abf627ad63954300ea0fe940",
      "blockNumber": "0x91adf3",
      "gasUsed": "0x19a1c",
      "effectiveGasPrice": "0xf4248",
      "from": "0xad9fdad276ab1a430fd03177a07350cd7c61e897",
      "to": "0x29025680f88f8b98097aed6fa625894f845413dc",
      "contractAddress": null
    },
    {
      "status": "0x1",
      "cumulativeGasUsed": "0x792009",
      "logs": [
        {
          "address": "0x29025680f88f8b98097aed6fa625894f845413dc",
          "topics": [
            "0xddf252ad1be2c89b69c2b068fc378daa952ba7f163c4a11628f55a4df523b3ef",
            "0x0000000000000000000000000000000000000000000000000000000000000000",
            "0x000000000000000000000000ad9fdad276ab1a430fd03177a07350cd7c61e897",
            "0x0000000000000000000000000000000000000000000000000000000000000003"
          ],
          "data": "0x",
          "blockHash": "0xaf65474c6ca4f397c86b2c27351bc2f4e17cf186abf627ad63954300ea0fe940",
          "blockNumber": "0x91adf3",
          "blockTimestamp": "0x6907d46c",
          "transactionHash": "0x012ca0e1a1a8e80b9a3e44e22012445c68ecd64cef322f81fd63a2740277ea65",
          "transactionIndex": "0x33",
          "logIndex": "0x4c",
          "removed": false
        }
      ],
      "logsBloom": "0x00000000000000000000000000000000000000000000000000000000000000000000000000000000000000000000000000000000020000000000000000000000000000000000004000000008000000000000000000000000000000000000000000000000020000000000000000000800000000000000000000000010000000000000000000000040000000000000000000000000000000000000000000000000000010000000000000000000000000000000000000800001001000100000400000000002000000000000000000000000000000000000000000000000000020000000000000000000000000000000000000000000000000000000000000000000",
      "type": "0x0",
      "transactionHash": "0x012ca0e1a1a8e80b9a3e44e22012445c68ecd64cef322f81fd63a2740277ea65",
      "transactionIndex": "0x33",
      "blockHash": "0xaf65474c6ca4f397c86b2c27351bc2f4e17cf186abf627ad63954300ea0fe940",
      "blockNumber": "0x91adf3",
      "gasUsed": "0x19a1c",
      "effectiveGasPrice": "0xf4248",
      "from": "0xad9fdad276ab1a430fd03177a07350cd7c61e897",
      "to": "0x29025680f88f8b98097aed6fa625894f845413dc",
      "contractAddress": null
    },
    {
      "status": "0x1",
      "cumulativeGasUsed": "0x7aba25",
      "logs": [
        {
          "address": "0x29025680f88f8b98097aed6fa625894f845413dc",
          "topics": [
            "0xddf252ad1be2c89b69c2b068fc378daa952ba7f163c4a11628f55a4df523b3ef",
            "0x0000000000000000000000000000000000000000000000000000000000000000",
            "0x000000000000000000000000ad9fdad276ab1a430fd03177a07350cd7c61e897",
            "0x0000000000000000000000000000000000000000000000000000000000000004"
          ],
          "data": "0x",
          "blockHash": "0xaf65474c6ca4f397c86b2c27351bc2f4e17cf186abf627ad63954300ea0fe940",
          "blockNumber": "0x91adf3",
          "blockTimestamp": "0x6907d46c",
          "transactionHash": "0x8862414a4be03832d9d3a90185b933f6f31d94f2626828f7cb72c8d2a78d222e",
          "transactionIndex": "0x34",
          "logIndex": "0x4d",
          "removed": false
        }
      ],
      "logsBloom": "0x00000000000000000000000000000000000000000000000000000000000000000000000000000000000000000000000000000000000000000000000000000000000000000000004000000008000000000000000000000000000000000000000008000000020000000000000000000800000000000000000000000010000000000000000000000040000000000000000000000000000000000000000000000000000010000000000000000000000000000000000000000001003000100000000000000002000000000000000000000000000000008000000000000000000020000000000000000000000000000000000000000000000000000000000000000000",
      "type": "0x0",
      "transactionHash": "0x8862414a4be03832d9d3a90185b933f6f31d94f2626828f7cb72c8d2a78d222e",
      "transactionIndex": "0x34",
      "blockHash": "0xaf65474c6ca4f397c86b2c27351bc2f4e17cf186abf627ad63954300ea0fe940",
      "blockNumber": "0x91adf3",
      "gasUsed": "0x19a1c",
      "effectiveGasPrice": "0xf4248",
      "from": "0xad9fdad276ab1a430fd03177a07350cd7c61e897",
      "to": "0x29025680f88f8b98097aed6fa625894f845413dc",
      "contractAddress": null
    },
    {
      "status": "0x1",
      "cumulativeGasUsed": "0x7c5441",
      "logs": [
        {
          "address": "0x29025680f88f8b98097aed6fa625894f845413dc",
          "topics": [
            "0xddf252ad1be2c89b69c2b068fc378daa952ba7f163c4a11628f55a4df523b3ef",
            "0x0000000000000000000000000000000000000000000000000000000000000000",
            "0x000000000000000000000000ad9fdad276ab1a430fd03177a07350cd7c61e897",
            "0x0000000000000000000000000000000000000000000000000000000000000005"
          ],
          "data": "0x",
          "blockHash": "0xaf65474c6ca4f397c86b2c27351bc2f4e17cf186abf627ad63954300ea0fe940",
          "blockNumber": "0x91adf3",
          "blockTimestamp": "0x6907d46c",
          "transactionHash": "0x90efc6a7c6e26c24a9d07068192c2526ed45be0f008f8f379a98cadc2ce172ca",
          "transactionIndex": "0x35",
          "logIndex": "0x4e",
          "removed": false
        }
      ],
      "logsBloom": "0x00000000000000000000000000000000000000000000000000000000000000000000000000000000000000000000000000000000000000000000000000000000000010000000004000000008000000000000000000000000000000000000000000000000020000000000000000000800000000000000000000000010000000000000000000000040000000000000001000000800000000000000000000000000000010000000000000000000000000000000000000000001001000100000000000000002000000000000000000000000000000000000000000000000000020000000000000000000000000000000000000000000000000000000000000000000",
      "type": "0x0",
      "transactionHash": "0x90efc6a7c6e26c24a9d07068192c2526ed45be0f008f8f379a98cadc2ce172ca",
      "transactionIndex": "0x35",
      "blockHash": "0xaf65474c6ca4f397c86b2c27351bc2f4e17cf186abf627ad63954300ea0fe940",
      "blockNumber": "0x91adf3",
      "gasUsed": "0x19a1c",
      "effectiveGasPrice": "0xf4248",
      "from": "0xad9fdad276ab1a430fd03177a07350cd7c61e897",
      "to": "0x29025680f88f8b98097aed6fa625894f845413dc",
      "contractAddress": null
    },
    {
      "status": "0x1",
      "cumulativeGasUsed": "0x7dee5d",
      "logs": [
        {
          "address": "0x29025680f88f8b98097aed6fa625894f845413dc",
          "topics": [
            "0xddf252ad1be2c89b69c2b068fc378daa952ba7f163c4a11628f55a4df523b3ef",
            "0x0000000000000000000000000000000000000000000000000000000000000000",
            "0x000000000000000000000000ad9fdad276ab1a430fd03177a07350cd7c61e897",
            "0x0000000000000000000000000000000000000000000000000000000000000006"
          ],
          "data": "0x",
          "blockHash": "0xaf65474c6ca4f397c86b2c27351bc2f4e17cf186abf627ad63954300ea0fe940",
          "blockNumber": "0x91adf3",
          "blockTimestamp": "0x6907d46c",
          "transactionHash": "0x95ff79a2ad3acb2eef533eb94277c28afc874c67b5cc1f6c1a6f3662049c841b",
          "transactionIndex": "0x36",
          "logIndex": "0x4f",
          "removed": false
        }
      ],
      "logsBloom": "0x00000000000000000000000000000000000000000000000000000000000000000000000000000000000000000000000000000000000400000000000000000000000000000000004000000008000000000000000000000000000000000000000000000000020000000000000000000800000000000000000000000010000000000000000400000040000000000000000000000000000000000000000000000000000010000000000000000000000000000000000000000001001000180000000000000002000000000000000000000000000000000000000000000000000020000000000000000000000000000000000000000000000000000000000000000000",
      "type": "0x0",
      "transactionHash": "0x95ff79a2ad3acb2eef533eb94277c28afc874c67b5cc1f6c1a6f3662049c841b",
      "transactionIndex": "0x36",
      "blockHash": "0xaf65474c6ca4f397c86b2c27351bc2f4e17cf186abf627ad63954300ea0fe940",
      "blockNumber": "0x91adf3",
      "gasUsed": "0x19a1c",
      "effectiveGasPrice": "0xf4248",
      "from": "0xad9fdad276ab1a430fd03177a07350cd7c61e897",
      "to": "0x29025680f88f8b98097aed6fa625894f845413dc",
      "contractAddress": null
    },
    {
      "status": "0x1",
      "cumulativeGasUsed": "0x7f8879",
      "logs": [
        {
          "address": "0x29025680f88f8b98097aed6fa625894f845413dc",
          "topics": [
            "0xddf252ad1be2c89b69c2b068fc378daa952ba7f163c4a11628f55a4df523b3ef",
            "0x0000000000000000000000000000000000000000000000000000000000000000",
            "0x000000000000000000000000ad9fdad276ab1a430fd03177a07350cd7c61e897",
            "0x0000000000000000000000000000000000000000000000000000000000000007"
          ],
          "data": "0x",
          "blockHash": "0xaf65474c6ca4f397c86b2c27351bc2f4e17cf186abf627ad63954300ea0fe940",
          "blockNumber": "0x91adf3",
          "blockTimestamp": "0x6907d46c",
          "transactionHash": "0xa1dd95f020bd6905185cc63a99ac7be399384119a901c63b0f391e41b4713acc",
          "transactionIndex": "0x37",
          "logIndex": "0x50",
          "removed": false
        }
      ],
      "logsBloom": "0x00000000000000000000000000000000000000000000000000000000000000000000000000000000000000000000000000001000000000000000000000000000000020000000004000000008000000000000000000000000000000000000000000000000020000000000000000000800000000000000000000000010000000000000000000000040000000000000000000000000000000000000000000000000000010000000000000000000000000000000000000000001001000100000000000000002000000000000000000000000000000000000000000000100000020000000000000000000000000000000000000000000000000000000000000000000",
      "type": "0x0",
      "transactionHash": "0xa1dd95f020bd6905185cc63a99ac7be399384119a901c63b0f391e41b4713acc",
      "transactionIndex": "0x37",
      "blockHash": "0xaf65474c6ca4f397c86b2c27351bc2f4e17cf186abf627ad63954300ea0fe940",
      "blockNumber": "0x91adf3",
      "gasUsed": "0x19a1c",
      "effectiveGasPrice": "0xf4248",
      "from": "0xad9fdad276ab1a430fd03177a07350cd7c61e897",
      "to": "0x29025680f88f8b98097aed6fa625894f845413dc",
      "contractAddress": null
    },
    {
      "status": "0x1",
      "cumulativeGasUsed": "0x812295",
      "logs": [
        {
          "address": "0x29025680f88f8b98097aed6fa625894f845413dc",
          "topics": [
            "0xddf252ad1be2c89b69c2b068fc378daa952ba7f163c4a11628f55a4df523b3ef",
            "0x0000000000000000000000000000000000000000000000000000000000000000",
            "0x000000000000000000000000ad9fdad276ab1a430fd03177a07350cd7c61e897",
            "0x0000000000000000000000000000000000000000000000000000000000000008"
          ],
          "data": "0x",
          "blockHash": "0xaf65474c6ca4f397c86b2c27351bc2f4e17cf186abf627ad63954300ea0fe940",
          "blockNumber": "0x91adf3",
          "blockTimestamp": "0x6907d46c",
          "transactionHash": "0x40b50e5ffe0aa966863d00cedfb5671da3867e2163201ef84b0cca8d805888c0",
          "transactionIndex": "0x38",
          "logIndex": "0x51",
          "removed": false
        }
      ],
      "logsBloom": "0x00000000000000000000000000000000000000000000000000000000000000000000000000000000000000000000000000000000000080000000000000000000000000000000004000000008000000000000000000000000000000000000000000000000020000000000000000000800000000000000000000000010000000000080000000000040000000000000000000000000000000000000000000000000000010000000000000000000000000000000000000000001001000100000000040000002000000000000000000000000000000000000000000000000000020000000000000000000000000000000000000000000000000000000000000000000",
      "type": "0x0",
      "transactionHash": "0x40b50e5ffe0aa966863d00cedfb5671da3867e2163201ef84b0cca8d805888c0",
      "transactionIndex": "0x38",
      "blockHash": "0xaf65474c6ca4f397c86b2c27351bc2f4e17cf186abf627ad63954300ea0fe940",
      "blockNumber": "0x91adf3",
      "gasUsed": "0x19a1c",
      "effectiveGasPrice": "0xf4248",
      "from": "0xad9fdad276ab1a430fd03177a07350cd7c61e897",
      "to": "0x29025680f88f8b98097aed6fa625894f845413dc",
      "contractAddress": null
    },
    {
      "status": "0x1",
      "cumulativeGasUsed": "0x82bcb1",
      "logs": [
        {
          "address": "0x29025680f88f8b98097aed6fa625894f845413dc",
          "topics": [
            "0xddf252ad1be2c89b69c2b068fc378daa952ba7f163c4a11628f55a4df523b3ef",
            "0x0000000000000000000000000000000000000000000000000000000000000000",
            "0x000000000000000000000000ad9fdad276ab1a430fd03177a07350cd7c61e897",
            "0x0000000000000000000000000000000000000000000000000000000000000009"
          ],
          "data": "0x",
          "blockHash": "0xaf65474c6ca4f397c86b2c27351bc2f4e17cf186abf627ad63954300ea0fe940",
          "blockNumber": "0x91adf3",
          "blockTimestamp": "0x6907d46c",
          "transactionHash": "0xfecf24396704f8d4b330946409f7d54a2500e7baf1480fa9d0a752d24f31682b",
          "transactionIndex": "0x39",
          "logIndex": "0x52",
          "removed": false
        }
      ],
      "logsBloom": "0x00000000000000000000000000000000000000000000000000000000000000000000000000000000000000000000000000000000000000000000000000200000000000000000004000000008000000000000000000000000000000000000000000000000020000000000000000000800000000000000000000000010000000000000000000000040000000000000000000001000000000000000000000000000000010000000000000000000000000000000000000000001001000100000000000000002000000000000000000000000000000000000000000000000000020000000000000000000000000000000000000000000000000000000000000800000",
      "type": "0x0",
      "transactionHash": "0xfecf24396704f8d4b330946409f7d54a2500e7baf1480fa9d0a752d24f31682b",
      "transactionIndex": "0x39",
      "blockHash": "0xaf65474c6ca4f397c86b2c27351bc2f4e17cf186abf627ad63954300ea0fe940",
      "blockNumber": "0x91adf3",
      "gasUsed": "0x19a1c",
      "effectiveGasPrice": "0xf4248",
      "from": "0xad9fdad276ab1a430fd03177a07350cd7c61e897",
      "to": "0x29025680f88f8b98097aed6fa625894f845413dc",
      "contractAddress": null
    },
    {
      "status": "0x1",
      "cumulativeGasUsed": "0x8456cd",
      "logs": [
        {
          "address": "0x29025680f88f8b98097aed6fa625894f845413dc",
          "topics": [
            "0xddf252ad1be2c89b69c2b068fc378daa952ba7f163c4a11628f55a4df523b3ef",
            "0x0000000000000000000000000000000000000000000000000000000000000000",
            "0x000000000000000000000000ad9fdad276ab1a430fd03177a07350cd7c61e897",
            "0x000000000000000000000000000000000000000000000000000000000000000a"
          ],
          "data": "0x",
          "blockHash": "0xaf65474c6ca4f397c86b2c27351bc2f4e17cf186abf627ad63954300ea0fe940",
          "blockNumber": "0x91adf3",
          "blockTimestamp": "0x6907d46c",
          "transactionHash": "0x63f2eeba64809d5306f2fca45150c7264a706ad6333e24168adfcff9d298389a",
          "transactionIndex": "0x3a",
          "logIndex": "0x53",
          "removed": false
        }
      ],
      "logsBloom": "0x00000000000000000000000000000000000000000000000000000000000000000000000000000000000000000000000000000000040000000020000000000000000000000000004000000008000000000000000000000000000000000000000000000000020000000000000000000800000000000000000000000010000000000000000000000040010000000000000000000000000000000000000000000000000010000000000000000000000000000000000000000001001000100000000000000002000000000000000000000000000000000000000000000000000020000000000000000000000000000000000000000000000000000000000000000000",
      "type": "0x0",
      "transactionHash": "0x63f2eeba64809d5306f2fca45150c7264a706ad6333e24168adfcff9d298389a",
      "transactionIndex": "0x3a",
      "blockHash": "0xaf65474c6ca4f397c86b2c27351bc2f4e17cf186abf627ad63954300ea0fe940",
      "blockNumber": "0x91adf3",
      "gasUsed": "0x19a1c",
      "effectiveGasPrice": "0xf4248",
      "from": "0xad9fdad276ab1a430fd03177a07350cd7c61e897",
      "to": "0x29025680f88f8b98097aed6fa625894f845413dc",
      "contractAddress": null
    },
    {
      "status": "0x1",
      "cumulativeGasUsed": "0x85f0e9",
      "logs": [
        {
          "address": "0x29025680f88f8b98097aed6fa625894f845413dc",
          "topics": [
            "0xddf252ad1be2c89b69c2b068fc378daa952ba7f163c4a11628f55a4df523b3ef",
            "0x0000000000000000000000000000000000000000000000000000000000000000",
            "0x000000000000000000000000ad9fdad276ab1a430fd03177a07350cd7c61e897",
            "0x000000000000000000000000000000000000000000000000000000000000000b"
          ],
          "data": "0x",
          "blockHash": "0xaf65474c6ca4f397c86b2c27351bc2f4e17cf186abf627ad63954300ea0fe940",
          "blockNumber": "0x91adf3",
          "blockTimestamp": "0x6907d46c",
          "transactionHash": "0x4d1ce3814f23a316e313be1d71ba6c949cb5ad1a89b9c26fe4f8708b8a09e57d",
          "transactionIndex": "0x3b",
          "logIndex": "0x54",
          "removed": false
        }
      ],
      "logsBloom": "0x00000000000000000000004000000000000000000000000000000000000000000000000000000000000000000000000000000000000000000000000000000000000000000000004000000008000000000000000000000000000000000000000000000000020000000000000000000800000000000000000000000010000000000000000000000040000000000000000000000000000000000000000000000000000010000000000000000000000000000000000000000001001000100000000000000002000000000000000000000000002000000000000000000000000020000000000000000000000000000000000000000000000000040000000000000000",
      "type": "0x0",
      "transactionHash": "0x4d1ce3814f23a316e313be1d71ba6c949cb5ad1a89b9c26fe4f8708b8a09e57d",
      "transactionIndex": "0x3b",
      "blockHash": "0xaf65474c6ca4f397c86b2c27351bc2f4e17cf186abf627ad63954300ea0fe940",
      "blockNumber": "0x91adf3",
      "gasUsed": "0x19a1c",
      "effectiveGasPrice": "0xf4248",
      "from": "0xad9fdad276ab1a430fd03177a07350cd7c61e897",
      "to": "0x29025680f88f8b98097aed6fa625894f845413dc",
      "contractAddress": null
    },
    {
      "status": "0x1",
      "cumulativeGasUsed": "0x878b05",
      "logs": [
        {
          "address": "0x29025680f88f8b98097aed6fa625894f845413dc",
          "topics": [
            "0xddf252ad1be2c89b69c2b068fc378daa952ba7f163c4a11628f55a4df523b3ef",
            "0x0000000000000000000000000000000000000000000000000000000000000000",
            "0x000000000000000000000000ad9fdad276ab1a430fd03177a07350cd7c61e897",
            "0x000000000000000000000000000000000000000000000000000000000000000c"
          ],
          "data": "0x",
          "blockHash": "0xaf65474c6ca4f397c86b2c27351bc2f4e17cf186abf627ad63954300ea0fe940",
          "blockNumber": "0x91adf3",
          "blockTimestamp": "0x6907d46c",
          "transactionHash": "0x90e652148219e06b8e2654540574f75d5677d8e5ff2b7b3013eb34707b90bf92",
          "transactionIndex": "0x3c",
          "logIndex": "0x55",
          "removed": false
        }
      ],
      "logsBloom": "0x00000000000000000000000000000000000002000000000000000000000000000000000000000200000000000000000000000000000000000000000000000000000000000000004000000008000000000000000000000000000000000000000000000000020000000000000000000800000000000000000000000010000000000000000000000040000000000000000000000000000000000000000000000000000010000000000000000000000000000000000000000001001000100000000000000002000000000000000000000000000000000000000000000000000020200000000000000000000000000000000000000000000000000000000000000000",
      "type": "0x0",
      "transactionHash": "0x90e652148219e06b8e2654540574f75d5677d8e5ff2b7b3013eb34707b90bf92",
      "transactionIndex": "0x3c",
      "blockHash": "0xaf65474c6ca4f397c86b2c27351bc2f4e17cf186abf627ad63954300ea0fe940",
      "blockNumber": "0x91adf3",
      "gasUsed": "0x19a1c",
      "effectiveGasPrice": "0xf4248",
      "from": "0xad9fdad276ab1a430fd03177a07350cd7c61e897",
      "to": "0x29025680f88f8b98097aed6fa625894f845413dc",
      "contractAddress": null
    },
    {
      "status": "0x1",
      "cumulativeGasUsed": "0x892521",
      "logs": [
        {
          "address": "0x29025680f88f8b98097aed6fa625894f845413dc",
          "topics": [
            "0xddf252ad1be2c89b69c2b068fc378daa952ba7f163c4a11628f55a4df523b3ef",
            "0x0000000000000000000000000000000000000000000000000000000000000000",
            "0x000000000000000000000000ad9fdad276ab1a430fd03177a07350cd7c61e897",
            "0x000000000000000000000000000000000000000000000000000000000000000d"
          ],
          "data": "0x",
          "blockHash": "0xaf65474c6ca4f397c86b2c27351bc2f4e17cf186abf627ad63954300ea0fe940",
          "blockNumber": "0x91adf3",
          "blockTimestamp": "0x6907d46c",
          "transactionHash": "0xbcf7bb10f6a6aae80ce820b5b6093de5ed4b09eafefcbb44e08903f4c0d9f47b",
          "transactionIndex": "0x3d",
          "logIndex": "0x56",
          "removed": false
        }
      ],
      "logsBloom": "0x00000000000000000040000000000000000000000000000000000000000000000000000000000000000000000000000000000000000000000000000000000000000000000000004000000008000000000002000000000000000000000000000000000000020000000000000000000800000000000000000000000010000000000000000000000040000000000000000000000000000000000000000000000000000010000000000000000000000000000000000000000001001000100000000000000002000000000000000000000000000000000000000000000000000020020000000000000000000000000000000000000000000000000000000000000000",
      "type": "0x0",
      "transactionHash": "0xbcf7bb10f6a6aae80ce820b5b6093de5ed4b09eafefcbb44e08903f4c0d9f47b",
      "transactionIndex": "0x3d",
      "blockHash": "0xaf65474c6ca4f397c86b2c27351bc2f4e17cf186abf627ad63954300ea0fe940",
      "blockNumber": "0x91adf3",
      "gasUsed": "0x19a1c",
      "effectiveGasPrice": "0xf4248",
      "from": "0xad9fdad276ab1a430fd03177a07350cd7c61e897",
      "to": "0x29025680f88f8b98097aed6fa625894f845413dc",
      "contractAddress": null
    },
    {
      "status": "0x1",
      "cumulativeGasUsed": "0x8abf3d",
      "logs": [
        {
          "address": "0x29025680f88f8b98097aed6fa625894f845413dc",
          "topics": [
            "0xddf252ad1be2c89b69c2b068fc378daa952ba7f163c4a11628f55a4df523b3ef",
            "0x0000000000000000000000000000000000000000000000000000000000000000",
            "0x000000000000000000000000ad9fdad276ab1a430fd03177a07350cd7c61e897",
            "0x000000000000000000000000000000000000000000000000000000000000000e"
          ],
          "data": "0x",
          "blockHash": "0xaf65474c6ca4f397c86b2c27351bc2f4e17cf186abf627ad63954300ea0fe940",
          "blockNumber": "0x91adf3",
          "blockTimestamp": "0x6907d46c",
          "transactionHash": "0x4d678f12673e5847b243014858202397f9465f75064f2cae3d3d0a0163a51cc4",
          "transactionIndex": "0x3e",
          "logIndex": "0x57",
          "removed": false
        }
      ],
      "logsBloom": "0x00000000000000000000000000000000000000000000000000000000000000000000000000000000000000000000000000000000000000000000000000000000000000000000004800000008000000000000000000000000000000000000000000000000020000000000000000000800000000000000000000000010000000000000000000000040000000000000000008000000000000000000000000000000000010000000000000000000000000000000000000000021001000100000000000000002000000000000000000000000000000000000000000000000000020000000000000000000000000000000000000000000000000000000000000000000",
      "type": "0x0",
      "transactionHash": "0x4d678f12673e5847b243014858202397f9465f75064f2cae3d3d0a0163a51cc4",
      "transactionIndex": "0x3e",
      "blockHash": "0xaf65474c6ca4f397c86b2c27351bc2f4e17cf186abf627ad63954300ea0fe940",
      "blockNumber": "0x91adf3",
      "gasUsed": "0x19a1c",
      "effectiveGasPrice": "0xf4248",
      "from": "0xad9fdad276ab1a430fd03177a07350cd7c61e897",
      "to": "0x29025680f88f8b98097aed6fa625894f845413dc",
      "contractAddress": null
    },
    {
      "status": "0x1",
      "cumulativeGasUsed": "0x8c5959",
      "logs": [
        {
          "address": "0x29025680f88f8b98097aed6fa625894f845413dc",
          "topics": [
            "0xddf252ad1be2c89b69c2b068fc378daa952ba7f163c4a11628f55a4df523b3ef",
            "0x0000000000000000000000000000000000000000000000000000000000000000",
            "0x000000000000000000000000ad9fdad276ab1a430fd03177a07350cd7c61e897",
            "0x000000000000000000000000000000000000000000000000000000000000000f"
          ],
          "data": "0x",
          "blockHash": "0xaf65474c6ca4f397c86b2c27351bc2f4e17cf186abf627ad63954300ea0fe940",
          "blockNumber": "0x91adf3",
          "blockTimestamp": "0x6907d46c",
          "transactionHash": "0xccd075fe446a94866d22ecf37e3c5c3855d9312dcde28766c395732ec19fa2f3",
          "transactionIndex": "0x3f",
          "logIndex": "0x58",
          "removed": false
        }
      ],
      "logsBloom": "0x00000000000000000000000000000000000000000000000000000000000000000000000000000000000000000000000000000000000000000000000000000000000000000000004000000008000000000000000000000000000000000002000000000000020000000000000000000800000000000000000000000010000000000000000000000840000000000000000000000000000000000000000000000000000010000000000000000000000000000000000000000001001000100000000000000002000000000000000000000000000000000000000000000000000020000000000200000000000000000000000000000000000000000000000000000000",
      "type": "0x0",
      "transactionHash": "0xccd075fe446a94866d22ecf37e3c5c3855d9312dcde28766c395732ec19fa2f3",
      "transactionIndex": "0x3f",
      "blockHash": "0xaf65474c6ca4f397c86b2c27351bc2f4e17cf186abf627ad63954300ea0fe940",
      "blockNumber": "0x91adf3",
      "gasUsed": "0x19a1c",
      "effectiveGasPrice": "0xf4248",
      "from": "0xad9fdad276ab1a430fd03177a07350cd7c61e897",
      "to": "0x29025680f88f8b98097aed6fa625894f845413dc",
      "contractAddress": null
    },
    {
      "status": "0x1",
      "cumulativeGasUsed": "0x8df375",
      "logs": [
        {
          "address": "0x29025680f88f8b98097aed6fa625894f845413dc",
          "topics": [
            "0xddf252ad1be2c89b69c2b068fc378daa952ba7f163c4a11628f55a4df523b3ef",
            "0x0000000000000000000000000000000000000000000000000000000000000000",
            "0x000000000000000000000000ad9fdad276ab1a430fd03177a07350cd7c61e897",
            "0x0000000000000000000000000000000000000000000000000000000000000010"
          ],
          "data": "0x",
          "blockHash": "0xaf65474c6ca4f397c86b2c27351bc2f4e17cf186abf627ad63954300ea0fe940",
          "blockNumber": "0x91adf3",
          "blockTimestamp": "0x6907d46c",
          "transactionHash": "0xed333d5ec0d366343fdc981bf9f0a6673ba6ec7609036b1bde4270f0fdc44a88",
          "transactionIndex": "0x40",
          "logIndex": "0x59",
          "removed": false
        }
      ],
      "logsBloom": "0x00000000100000000000000000000000000000000000000000000000000000000000000000000000000000000000000000000000000000000000000000000000000000000000004000000008000000000000000000000000000000000000000000000000020000000000000000000800000000000000000000000010040000000000000000000040000000000000000000000100000000000000000000000000000010000000000000000000000000000000000000000001001000100000000000000002000000000000000000000000000000000000000000000000000020000000000000000000000000000000000000000000000000000000000000000000",
      "type": "0x0",
      "transactionHash": "0xed333d5ec0d366343fdc981bf9f0a6673ba6ec7609036b1bde4270f0fdc44a88",
      "transactionIndex": "0x40",
      "blockHash": "0xaf65474c6ca4f397c86b2c27351bc2f4e17cf186abf627ad63954300ea0fe940",
      "blockNumber": "0x91adf3",
      "gasUsed": "0x19a1c",
      "effectiveGasPrice": "0xf4248",
      "from": "0xad9fdad276ab1a430fd03177a07350cd7c61e897",
      "to": "0x29025680f88f8b98097aed6fa625894f845413dc",
      "contractAddress": null
    },
    {
      "status": "0x1",
      "cumulativeGasUsed": "0x8f8d91",
      "logs": [
        {
          "address": "0x29025680f88f8b98097aed6fa625894f845413dc",
          "topics": [
            "0xddf252ad1be2c89b69c2b068fc378daa952ba7f163c4a11628f55a4df523b3ef",
            "0x0000000000000000000000000000000000000000000000000000000000000000",
            "0x000000000000000000000000ad9fdad276ab1a430fd03177a07350cd7c61e897",
            "0x0000000000000000000000000000000000000000000000000000000000000011"
          ],
          "data": "0x",
          "blockHash": "0xaf65474c6ca4f397c86b2c27351bc2f4e17cf186abf627ad63954300ea0fe940",
          "blockNumber": "0x91adf3",
          "blockTimestamp": "0x6907d46c",
          "transactionHash": "0xf2dfdad15a9789830a14805815b5b181806709edf0899e15526ca9b4e00d3249",
          "transactionIndex": "0x41",
          "logIndex": "0x5a",
          "removed": false
        }
      ],
      "logsBloom": "0x00000000000000000000000000000000000000000000000000000000000000000000000000000000000000000000000000000000000000000000000000000000000000000000004000000008000000000000000000000000000000000000000000000000020000000000000000000800000000004000000000000010000000000000000000000040000000000000000000000000000000000000000000000000000010000000000000000000000000000000000000000001001000100400000000001002000000000000000000000000000000000000000000000000000020000000000000000000000000000000000000000000000000000000000000000000",
      "type": "0x0",
      "transactionHash": "0xf2dfdad15a9789830a14805815b5b181806709edf0899e15526ca9b4e00d3249",
      "transactionIndex": "0x41",
      "blockHash": "0xaf65474c6ca4f397c86b2c27351bc2f4e17cf186abf627ad63954300ea0fe940",
      "blockNumber": "0x91adf3",
      "gasUsed": "0x19a1c",
      "effectiveGasPrice": "0xf4248",
      "from": "0xad9fdad276ab1a430fd03177a07350cd7c61e897",
      "to": "0x29025680f88f8b98097aed6fa625894f845413dc",
      "contractAddress": null
    },
    {
      "status": "0x1",
      "cumulativeGasUsed": "0x9127ad",
      "logs": [
        {
          "address": "0x29025680f88f8b98097aed6fa625894f845413dc",
          "topics": [
            "0xddf252ad1be2c89b69c2b068fc378daa952ba7f163c4a11628f55a4df523b3ef",
            "0x0000000000000000000000000000000000000000000000000000000000000000",
            "0x000000000000000000000000ad9fdad276ab1a430fd03177a07350cd7c61e897",
            "0x0000000000000000000000000000000000000000000000000000000000000012"
          ],
          "data": "0x",
          "blockHash": "0xaf65474c6ca4f397c86b2c27351bc2f4e17cf186abf627ad63954300ea0fe940",
          "blockNumber": "0x91adf3",
          "blockTimestamp": "0x6907d46c",
          "transactionHash": "0x09c6a076eef12362df5792271b3129d5acbc908546bf82e129e40d771a516f6c",
          "transactionIndex": "0x42",
          "logIndex": "0x5b",
          "removed": false
        }
      ],
      "logsBloom": "0x00000000000000000000000000000000000000000000000000000000000000000000000000000000000000000000000000000000000000000000000000000000000000000000004000000008000000000000000000000000000000000000000000000000020000000000000000000800000000000000000000000010000000000000000000000040000000000000040000000000000000000000000000000000000010000000000000000000000000000000000000000041001000100000000000000002000000000400000000000000000000000000000000000000000020000000000000000000000000000000000000000000000000000000000000000000",
      "type": "0x0",
      "transactionHash": "0x09c6a076eef12362df5792271b3129d5acbc908546bf82e129e40d771a516f6c",
      "transactionIndex": "0x42",
      "blockHash": "0xaf65474c6ca4f397c86b2c27351bc2f4e17cf186abf627ad63954300ea0fe940",
      "blockNumber": "0x91adf3",
      "gasUsed": "0x19a1c",
      "effectiveGasPrice": "0xf4248",
      "from": "0xad9fdad276ab1a430fd03177a07350cd7c61e897",
      "to": "0x29025680f88f8b98097aed6fa625894f845413dc",
      "contractAddress": null
    },
    {
      "status": "0x1",
      "cumulativeGasUsed": "0x92c1c9",
      "logs": [
        {
          "address": "0x29025680f88f8b98097aed6fa625894f845413dc",
          "topics": [
            "0xddf252ad1be2c89b69c2b068fc378daa952ba7f163c4a11628f55a4df523b3ef",
            "0x0000000000000000000000000000000000000000000000000000000000000000",
            "0x000000000000000000000000ad9fdad276ab1a430fd03177a07350cd7c61e897",
            "0x0000000000000000000000000000000000000000000000000000000000000013"
          ],
          "data": "0x",
          "blockHash": "0xaf65474c6ca4f397c86b2c27351bc2f4e17cf186abf627ad63954300ea0fe940",
          "blockNumber": "0x91adf3",
          "blockTimestamp": "0x6907d46c",
          "transactionHash": "0x7462c1801e946676e8a5fba3898d6288a039b1a978044d961e1d0f6d51c949a3",
          "transactionIndex": "0x43",
          "logIndex": "0x5c",
          "removed": false
        }
      ],
      "logsBloom": "0x20000000000000000000000000800000000000000000000000000000000000000000000040000000000000000000000000000000000000000000000000000000000000000000004000000008000000000000000000000000000000000000000000000000020000000000000000000800000000000000000000000010000000000000000000000040000000000000000000000000000000000000000000000000000010000000000000000000000000000000000000000001001000100000000000000002000000000000000000000000000000000000000000000000000020000000000000000000000000000000000000000000000000000000000000000000",
      "type": "0x0",
      "transactionHash": "0x7462c1801e946676e8a5fba3898d6288a039b1a978044d961e1d0f6d51c949a3",
      "transactionIndex": "0x43",
      "blockHash": "0xaf65474c6ca4f397c86b2c27351bc2f4e17cf186abf627ad63954300ea0fe940",
      "blockNumber": "0x91adf3",
      "gasUsed": "0x19a1c",
      "effectiveGasPrice": "0xf4248",
      "from": "0xad9fdad276ab1a430fd03177a07350cd7c61e897",
      "to": "0x29025680f88f8b98097aed6fa625894f845413dc",
      "contractAddress": null
    },
    {
      "status": "0x1",
      "cumulativeGasUsed": "0x945be5",
      "logs": [
        {
          "address": "0x29025680f88f8b98097aed6fa625894f845413dc",
          "topics": [
            "0xddf252ad1be2c89b69c2b068fc378daa952ba7f163c4a11628f55a4df523b3ef",
            "0x0000000000000000000000000000000000000000000000000000000000000000",
            "0x000000000000000000000000ad9fdad276ab1a430fd03177a07350cd7c61e897",
            "0x0000000000000000000000000000000000000000000000000000000000000014"
          ],
          "data": "0x",
          "blockHash": "0xaf65474c6ca4f397c86b2c27351bc2f4e17cf186abf627ad63954300ea0fe940",
          "blockNumber": "0x91adf3",
          "blockTimestamp": "0x6907d46c",
          "transactionHash": "0xa3041836f989ec15cdf2f35614f8836354888eb9d81ba52f0c21df61f519de96",
          "transactionIndex": "0x44",
          "logIndex": "0x5d",
          "removed": false
        }
      ],
      "logsBloom": "0x00000000000000000000000000000000000000000000000000000000000000000000000000000000000000000000000000002000000000000000000000000000000000000000004000000008000000000000000000000000000000000000000000000000020000000000000000000800000000000000000000000010000000000000000000000040000000000000000000000000000400000000000000000000000010000000000020000000000000000000000000000001001000100000000000000002000000000000000000000000000000000000000000000000000020000000000000000000000000000000000000000000000000000000000000000000",
      "type": "0x0",
      "transactionHash": "0xa3041836f989ec15cdf2f35614f8836354888eb9d81ba52f0c21df61f519de96",
      "transactionIndex": "0x44",
      "blockHash": "0xaf65474c6ca4f397c86b2c27351bc2f4e17cf186abf627ad63954300ea0fe940",
      "blockNumber": "0x91adf3",
      "gasUsed": "0x19a1c",
      "effectiveGasPrice": "0xf4248",
      "from": "0xad9fdad276ab1a430fd03177a07350cd7c61e897",
      "to": "0x29025680f88f8b98097aed6fa625894f845413dc",
      "contractAddress": null
    },
    {
      "status": "0x1",
      "cumulativeGasUsed": "0x95f601",
      "logs": [
        {
          "address": "0x29025680f88f8b98097aed6fa625894f845413dc",
          "topics": [
            "0xddf252ad1be2c89b69c2b068fc378daa952ba7f163c4a11628f55a4df523b3ef",
            "0x0000000000000000000000000000000000000000000000000000000000000000",
            "0x000000000000000000000000ad9fdad276ab1a430fd03177a07350cd7c61e897",
            "0x0000000000000000000000000000000000000000000000000000000000000015"
          ],
          "data": "0x",
          "blockHash": "0xaf65474c6ca4f397c86b2c27351bc2f4e17cf186abf627ad63954300ea0fe940",
          "blockNumber": "0x91adf3",
          "blockTimestamp": "0x6907d46c",
          "transactionHash": "0xd6d1bfad8dc15d2661ff79502a31d08d0bbfc9199644bfea88a27e44380e92c4",
          "transactionIndex": "0x45",
          "logIndex": "0x5e",
          "removed": false
        }
      ],
      "logsBloom": "0x00000000000000000000000000000000000000000000000000000000000000000000000000000000000000000000000000000000000000000000000000000000001000000000004000000008000000000000000000000000000000000000000000000000020000000000000000000800000000000000000000000010000000000000000000000040000000000000000000000000000000000000000000000000000010000000000000000000010000000000000000000001001000100000000000000002000000000000000000000000000000000000000000000000000020002000000000000000000000000000000000000000000000000000000000000000",
      "type": "0x0",
      "transactionHash": "0xd6d1bfad8dc15d2661ff79502a31d08d0bbfc9199644bfea88a27e44380e92c4",
      "transactionIndex": "0x45",
      "blockHash": "0xaf65474c6ca4f397c86b2c27351bc2f4e17cf186abf627ad63954300ea0fe940",
      "blockNumber": "0x91adf3",
      "gasUsed": "0x19a1c",
      "effectiveGasPrice": "0xf4248",
      "from": "0xad9fdad276ab1a430fd03177a07350cd7c61e897",
      "to": "0x29025680f88f8b98097aed6fa625894f845413dc",
      "contractAddress": null
    },
    {
      "status": "0x1",
      "cumulativeGasUsed": "0x97901d",
      "logs": [
        {
          "address": "0x29025680f88f8b98097aed6fa625894f845413dc",
          "topics": [
            "0xddf252ad1be2c89b69c2b068fc378daa952ba7f163c4a11628f55a4df523b3ef",
            "0x0000000000000000000000000000000000000000000000000000000000000000",
            "0x000000000000000000000000ad9fdad276ab1a430fd03177a07350cd7c61e897",
            "0x0000000000000000000000000000000000000000000000000000000000000016"
          ],
          "data": "0x",
          "blockHash": "0xaf65474c6ca4f397c86b2c27351bc2f4e17cf186abf627ad63954300ea0fe940",
          "blockNumber": "0x91adf3",
          "blockTimestamp": "0x6907d46c",
          "transactionHash": "0xa7d58043dc44af51817708f2279e6fe819f0ece70d1bdfed2974a670ca743658",
          "transactionIndex": "0x46",
          "logIndex": "0x5f",
          "removed": false
        }
      ],
      "logsBloom": "0x00000000000000000000000000000000000000000000000000000000000000000000000000000000000000000000000000000000000000000000000000000000000000000000004800000008000000000000000000000000000000000000000000000000020000000000000000000800200000000000000000000010000000000000000000000040000000000000000000000000000000000000000000000000000010000000000000000000000000000000000000000001001000100000000000000002000000000000000000000000000000000000000000000000000020000000000000000000000000000000000000000000000000000008000000000000",
      "type": "0x0",
      "transactionHash": "0xa7d58043dc44af51817708f2279e6fe819f0ece70d1bdfed2974a670ca743658",
      "transactionIndex": "0x46",
      "blockHash": "0xaf65474c6ca4f397c86b2c27351bc2f4e17cf186abf627ad63954300ea0fe940",
      "blockNumber": "0x91adf3",
      "gasUsed": "0x19a1c",
      "effectiveGasPrice": "0xf4248",
      "from": "0xad9fdad276ab1a430fd03177a07350cd7c61e897",
      "to": "0x29025680f88f8b98097aed6fa625894f845413dc",
      "contractAddress": null
    },
    {
      "status": "0x1",
      "cumulativeGasUsed": "0x992a39",
      "logs": [
        {
          "address": "0x29025680f88f8b98097aed6fa625894f845413dc",
          "topics": [
            "0xddf252ad1be2c89b69c2b068fc378daa952ba7f163c4a11628f55a4df523b3ef",
            "0x0000000000000000000000000000000000000000000000000000000000000000",
            "0x000000000000000000000000ad9fdad276ab1a430fd03177a07350cd7c61e897",
            "0x0000000000000000000000000000000000000000000000000000000000000017"
          ],
          "data": "0x",
          "blockHash": "0xaf65474c6ca4f397c86b2c27351bc2f4e17cf186abf627ad63954300ea0fe940",
          "blockNumber": "0x91adf3",
          "blockTimestamp": "0x6907d46c",
          "transactionHash": "0xe61bae26b01b9df517935d8dc98778d198a1ad2cc9445f4978dbf419e9075bb0",
          "transactionIndex": "0x47",
          "logIndex": "0x60",
          "removed": false
        }
      ],
      "logsBloom": "0x00000000000000000000000000000000000000000000000000000000000000000000000000000000000000000000000000001000000000000000001000000000000000000000004000000008000000000000000000000000000000000000000000000000020000000000000000000800000000000000000000000010000000000000000000000040000000000000000000000000000000000000000000000000000010000000000000000000000000000000000000000001001000100000000000000002000000000000000000000000000000000000000000000000000020000000000000000000000000000000000000000000000000000000000000080000",
      "type": "0x0",
      "transactionHash": "0xe61bae26b01b9df517935d8dc98778d198a1ad2cc9445f4978dbf419e9075bb0",
      "transactionIndex": "0x47",
      "blockHash": "0xaf65474c6ca4f397c86b2c27351bc2f4e17cf186abf627ad63954300ea0fe940",
      "blockNumber": "0x91adf3",
      "gasUsed": "0x19a1c",
      "effectiveGasPrice": "0xf4248",
      "from": "0xad9fdad276ab1a430fd03177a07350cd7c61e897",
      "to": "0x29025680f88f8b98097aed6fa625894f845413dc",
      "contractAddress": null
    },
    {
      "status": "0x1",
      "cumulativeGasUsed": "0x9ac455",
      "logs": [
        {
          "address": "0x29025680f88f8b98097aed6fa625894f845413dc",
          "topics": [
            "0xddf252ad1be2c89b69c2b068fc378daa952ba7f163c4a11628f55a4df523b3ef",
            "0x0000000000000000000000000000000000000000000000000000000000000000",
            "0x000000000000000000000000ad9fdad276ab1a430fd03177a07350cd7c61e897",
            "0x0000000000000000000000000000000000000000000000000000000000000018"
          ],
          "data": "0x",
          "blockHash": "0xaf65474c6ca4f397c86b2c27351bc2f4e17cf186abf627ad63954300ea0fe940",
          "blockNumber": "0x91adf3",
          "blockTimestamp": "0x6907d46c",
          "transactionHash": "0x8ff2ed1f3124e54d8839fc4ce51be710f12b10001017228c2ffb574fdecc01ae",
          "transactionIndex": "0x48",
          "logIndex": "0x61",
          "removed": false
        }
      ],
      "logsBloom": "0x00000000000000000000000000000000000000000000000000000000000000000000000000000000000000000000000000000000000000000000000000000000000000000000004000000008000000000040000000000000000000000000000000000000020000000000000000000800000000000000000000000010000000000000000000000040000000000000000000000000000000000000000000000000000010000000000000000000000000000000000000000001001000100000000000100002000000000000000000000000000000000000000020000000000020000000000000000000000000000000000000000000000000000000000000000000",
      "type": "0x0",
      "transactionHash": "0x8ff2ed1f3124e54d8839fc4ce51be710f12b10001017228c2ffb574fdecc01ae",
      "transactionIndex": "0x48",
      "blockHash": "0xaf65474c6ca4f397c86b2c27351bc2f4e17cf186abf627ad63954300ea0fe940",
      "blockNumber": "0x91adf3",
      "gasUsed": "0x19a1c",
      "effectiveGasPrice": "0xf4248",
      "from": "0xad9fdad276ab1a430fd03177a07350cd7c61e897",
      "to": "0x29025680f88f8b98097aed6fa625894f845413dc",
      "contractAddress": null
    },
    {
      "status": "0x1",
      "cumulativeGasUsed": "0x9c5e71",
      "logs": [
        {
          "address": "0x29025680f88f8b98097aed6fa625894f845413dc",
          "topics": [
            "0xddf252ad1be2c89b69c2b068fc378daa952ba7f163c4a11628f55a4df523b3ef",
            "0x0000000000000000000000000000000000000000000000000000000000000000",
            "0x000000000000000000000000ad9fdad276ab1a430fd03177a07350cd7c61e897",
            "0x0000000000000000000000000000000000000000000000000000000000000019"
          ],
          "data": "0x",
          "blockHash": "0xaf65474c6ca4f397c86b2c27351bc2f4e17cf186abf627ad63954300ea0fe940",
          "blockNumber": "0x91adf3",
          "blockTimestamp": "0x6907d46c",
          "transactionHash": "0x0c892fd327aa4064895c0fddb992f39862fbf7aa3728bad70eaa355cb2e74f43",
          "transactionIndex": "0x49",
          "logIndex": "0x62",
          "removed": false
        }
      ],
      "logsBloom": "0x00000000000000000000000000000000000000000000000000000000000000000000000000000000000000000000000000000000000000800000000000000000000000000000004000000008000000000000000000000000000000000000000000000000020000000000000000000800000000000000020000000010000000000000000000000040000000000000000000000000000000000000000000000000000010000000000000000000000000000000000000000001001000100000000000000002000000000000000000000000000000000000000000000000000020000000000000000000000000000000000000000000000000000000008000000000",
      "type": "0x0",
      "transactionHash": "0x0c892fd327aa4064895c0fddb992f39862fbf7aa3728bad70eaa355cb2e74f43",
      "transactionIndex": "0x49",
      "blockHash": "0xaf65474c6ca4f397c86b2c27351bc2f4e17cf186abf627ad63954300ea0fe940",
      "blockNumber": "0x91adf3",
      "gasUsed": "0x19a1c",
      "effectiveGasPrice": "0xf4248",
      "from": "0xad9fdad276ab1a430fd03177a07350cd7c61e897",
      "to": "0x29025680f88f8b98097aed6fa625894f845413dc",
      "contractAddress": null
    },
    {
      "status": "0x1",
      "cumulativeGasUsed": "0x9df88d",
      "logs": [
        {
          "address": "0x29025680f88f8b98097aed6fa625894f845413dc",
          "topics": [
            "0xddf252ad1be2c89b69c2b068fc378daa952ba7f163c4a11628f55a4df523b3ef",
            "0x0000000000000000000000000000000000000000000000000000000000000000",
            "0x000000000000000000000000ad9fdad276ab1a430fd03177a07350cd7c61e897",
            "0x000000000000000000000000000000000000000000000000000000000000001a"
          ],
          "data": "0x",
          "blockHash": "0xaf65474c6ca4f397c86b2c27351bc2f4e17cf186abf627ad63954300ea0fe940",
          "blockNumber": "0x91adf3",
          "blockTimestamp": "0x6907d46c",
          "transactionHash": "0x26aecd2c6001ed4786b5462d64f56bc396a31c2848261361aec46af04f15ba3b",
          "transactionIndex": "0x4a",
          "logIndex": "0x63",
          "removed": false
        }
      ],
      "logsBloom": "0x00000000000000000000000000000000000000000000000000000000000000000000000000000000000000000000000000000000000000000000000000000000000000000000004000000008000000001000000000000000000000001000000000000000020000000000000000000800000000000000000000000010000000000000000000000040000000000000000000000000000000000000000000000000000010000000000000000000000000000000000000000001001000100000000000000002000000000000000000000000000000000000000000000000000020000000000000000000000000000000000000000000000004000000000000000000",
      "type": "0x0",
      "transactionHash": "0x26aecd2c6001ed4786b5462d64f56bc396a31c2848261361aec46af04f15ba3b",
      "transactionIndex": "0x4a",
      "blockHash": "0xaf65474c6ca4f397c86b2c27351bc2f4e17cf186abf627ad63954300ea0fe940",
      "blockNumber": "0x91adf3",
      "gasUsed": "0x19a1c",
      "effectiveGasPrice": "0xf4248",
      "from": "0xad9fdad276ab1a430fd03177a07350cd7c61e897",
      "to": "0x29025680f88f8b98097aed6fa625894f845413dc",
      "contractAddress": null
    },
    {
      "status": "0x1",
      "cumulativeGasUsed": "0x9f92a9",
      "logs": [
        {
          "address": "0x29025680f88f8b98097aed6fa625894f845413dc",
          "topics": [
            "0xddf252ad1be2c89b69c2b068fc378daa952ba7f163c4a11628f55a4df523b3ef",
            "0x0000000000000000000000000000000000000000000000000000000000000000",
            "0x000000000000000000000000ad9fdad276ab1a430fd03177a07350cd7c61e897",
            "0x000000000000000000000000000000000000000000000000000000000000001b"
          ],
          "data": "0x",
          "blockHash": "0xaf65474c6ca4f397c86b2c27351bc2f4e17cf186abf627ad63954300ea0fe940",
          "blockNumber": "0x91adf3",
          "blockTimestamp": "0x6907d46c",
          "transactionHash": "0xd32884ae3de3b578ab68d4ba80247fc7310880868bc57fec03b4157a715e8774",
          "transactionIndex": "0x4b",
          "logIndex": "0x64",
          "removed": false
        }
      ],
      "logsBloom": "0x00000000000000000000000000000000000000000010000000000000000000000000000000000000000000000000000000000000000000000000000000000000000000000000004000000008000000000000000000000000000000000000000000000000020000000000000000000800000000000000000000000010000000000000000000000040000000000000000000000000000000000000000000000000000010000100000000000000000000000000000000008001001000100000000000000002000000000000000000000000000000000000000000000000000020000000000000000000000000000000000000000000000000000000000000000000",
      "type": "0x0",
      "transactionHash": "0xd32884ae3de3b578ab68d4ba80247fc7310880868bc57fec03b4157a715e8774",
      "transactionIndex": "0x4b",
      "blockHash": "0xaf65474c6ca4f397c86b2c27351bc2f4e17cf186abf627ad63954300ea0fe940",
      "blockNumber": "0x91adf3",
      "gasUsed": "0x19a1c",
      "effectiveGasPrice": "0xf4248",
      "from": "0xad9fdad276ab1a430fd03177a07350cd7c61e897",
      "to": "0x29025680f88f8b98097aed6fa625894f845413dc",
      "contractAddress": null
    },
    {
      "status": "0x1",
      "cumulativeGasUsed": "0xa12cc5",
      "logs": [
        {
          "address": "0x29025680f88f8b98097aed6fa625894f845413dc",
          "topics": [
            "0xddf252ad1be2c89b69c2b068fc378daa952ba7f163c4a11628f55a4df523b3ef",
            "0x0000000000000000000000000000000000000000000000000000000000000000",
            "0x000000000000000000000000ad9fdad276ab1a430fd03177a07350cd7c61e897",
            "0x000000000000000000000000000000000000000000000000000000000000001c"
          ],
          "data": "0x",
          "blockHash": "0xaf65474c6ca4f397c86b2c27351bc2f4e17cf186abf627ad63954300ea0fe940",
          "blockNumber": "0x91adf3",
          "blockTimestamp": "0x6907d46c",
          "transactionHash": "0xd6e7197ae8f585b655bc553f45ba9bf27c3e6bd9b8e8bb726e4d4a5e6c303bd2",
          "transactionIndex": "0x4c",
          "logIndex": "0x65",
          "removed": false
        }
      ],
      "logsBloom": "0x00000000000000000000000000000000000000000000000000000000000000000000000000000000000000000000000000000000000000200000000000000000000000000000004000000008000000000000000000000000000000000000000000000000020000000000000000000800000000000000000000000010000000000000000000000040000000000000000200000000000000000000000000000000000010000000000000000002000000000000000000000001001000100000000000000002000000000000000000000000000000000000000000000000000020000000000000000000000000000000000000000000000000000000000000000000",
      "type": "0x0",
      "transactionHash": "0xd6e7197ae8f585b655bc553f45ba9bf27c3e6bd9b8e8bb726e4d4a5e6c303bd2",
      "transactionIndex": "0x4c",
      "blockHash": "0xaf65474c6ca4f397c86b2c27351bc2f4e17cf186abf627ad63954300ea0fe940",
      "blockNumber": "0x91adf3",
      "gasUsed": "0x19a1c",
      "effectiveGasPrice": "0xf4248",
      "from": "0xad9fdad276ab1a430fd03177a07350cd7c61e897",
      "to": "0x29025680f88f8b98097aed6fa625894f845413dc",
      "contractAddress": null
    },
    {
      "status": "0x1",
      "cumulativeGasUsed": "0xa2c6e1",
      "logs": [
        {
          "address": "0x29025680f88f8b98097aed6fa625894f845413dc",
          "topics": [
            "0xddf252ad1be2c89b69c2b068fc378daa952ba7f163c4a11628f55a4df523b3ef",
            "0x0000000000000000000000000000000000000000000000000000000000000000",
            "0x000000000000000000000000ad9fdad276ab1a430fd03177a07350cd7c61e897",
            "0x000000000000000000000000000000000000000000000000000000000000001d"
          ],
          "data": "0x",
          "blockHash": "0xaf65474c6ca4f397c86b2c27351bc2f4e17cf186abf627ad63954300ea0fe940",
          "blockNumber": "0x91adf3",
          "blockTimestamp": "0x6907d46c",
          "transactionHash": "0xe7990281107686ad7006533d169fae3cfac043f4119761140bada72cd33922b6",
          "transactionIndex": "0x4d",
          "logIndex": "0x66",
          "removed": false
        }
      ],
      "logsBloom": "0x00000080000000000000000000000000000000000000000000000000000000000000000000000000000000000000000000000000000000000000000200000000000000000000004000000008000000000000000000000010000000000000000000000000020000000000000000000800000000000000000000000010000000000000000000000040000000000000000000000000000000000000000000000000000010000000000000000000000000000000000000000001001000100000000000000002000000000000000000000000000000000000000000000000000020000000000000000000000000000000000000000000000000000000000000000000",
      "type": "0x0",
      "transactionHash": "0xe7990281107686ad7006533d169fae3cfac043f4119761140bada72cd33922b6",
      "transactionIndex": "0x4d",
      "blockHash": "0xaf65474c6ca4f397c86b2c27351bc2f4e17cf186abf627ad63954300ea0fe940",
      "blockNumber": "0x91adf3",
      "gasUsed": "0x19a1c",
      "effectiveGasPrice": "0xf4248",
      "from": "0xad9fdad276ab1a430fd03177a07350cd7c61e897",
      "to": "0x29025680f88f8b98097aed6fa625894f845413dc",
      "contractAddress": null
    },
    {
      "status": "0x1",
      "cumulativeGasUsed": "0xc5b7cd",
      "logs": [
        {
          "address": "0x29025680f88f8b98097aed6fa625894f845413dc",
          "topics": [
            "0xddf252ad1be2c89b69c2b068fc378daa952ba7f163c4a11628f55a4df523b3ef",
            "0x0000000000000000000000000000000000000000000000000000000000000000",
            "0x000000000000000000000000ad9fdad276ab1a430fd03177a07350cd7c61e897",
            "0x000000000000000000000000000000000000000000000000000000000000001e"
          ],
          "data": "0x",
          "blockHash": "0x0e6f4fdb6b49e42525983207ba343b3106d18a70bce2165e5e3232e48df7cd21",
          "blockNumber": "0x91adf4",
          "blockTimestamp": "0x6907d478",
          "transactionHash": "0x65df62e84b06122932dac1000ac3eed9448f69988f4dc35f3b21b9bba7566776",
          "transactionIndex": "0x3e",
          "logIndex": "0x5d",
          "removed": false
        }
      ],
      "logsBloom": "0x0000000000000000000000000000000000000000000000000000000000000000000000000000000000000000040000000000000000000000000000000000000000000000000000c000000008000000000000000000000000000000000000000000000000020000000000000000000800000000000000000000000010000000000000000000000040000000000000000000000000000000000000000000000000000010000000000000000000000000000000000000000001001000100000000000000002000000000000000000000000000000000000000000000000000020000000000000000000080000000000000000000000000000000000000000000000",
      "type": "0x0",
      "transactionHash": "0x65df62e84b06122932dac1000ac3eed9448f69988f4dc35f3b21b9bba7566776",
      "transactionIndex": "0x3e",
      "blockHash": "0x0e6f4fdb6b49e42525983207ba343b3106d18a70bce2165e5e3232e48df7cd21",
      "blockNumber": "0x91adf4",
      "gasUsed": "0x19a1c",
      "effectiveGasPrice": "0xf4248",
      "from": "0xad9fdad276ab1a430fd03177a07350cd7c61e897",
      "to": "0x29025680f88f8b98097aed6fa625894f845413dc",
      "contractAddress": null
    },
    {
      "status": "0x1",
      "cumulativeGasUsed": "0xc751e9",
      "logs": [
        {
          "address": "0x29025680f88f8b98097aed6fa625894f845413dc",
          "topics": [
            "0xddf252ad1be2c89b69c2b068fc378daa952ba7f163c4a11628f55a4df523b3ef",
            "0x0000000000000000000000000000000000000000000000000000000000000000",
            "0x000000000000000000000000ad9fdad276ab1a430fd03177a07350cd7c61e897",
            "0x000000000000000000000000000000000000000000000000000000000000001f"
          ],
          "data": "0x",
          "blockHash": "0x0e6f4fdb6b49e42525983207ba343b3106d18a70bce2165e5e3232e48df7cd21",
          "blockNumber": "0x91adf4",
          "blockTimestamp": "0x6907d478",
          "transactionHash": "0xad8b6ebd9dee412274761cf952736bea18547ef08d6ac9b2778084b996fc1f7c",
          "transactionIndex": "0x3f",
          "logIndex": "0x5e",
          "removed": false
        }
      ],
      "logsBloom": "0x00000000000000000000000400000000000000000000000000000000000000000000000000000000000000000000000000000000000000000000000000000000000000000000004000000008000000000000000000000000000000000000000000000000020000000000000000000800000000000000000000000010000000000000000000000040000000000000000000000000000000000000000000000000000010000000000000000000000000000000000000000001001000100001000000000002000000000000000000000000000000000000000000000000000020000000000000000000000000000000000000000000000000000100000000000000",
      "type": "0x0",
      "transactionHash": "0xad8b6ebd9dee412274761cf952736bea18547ef08d6ac9b2778084b996fc1f7c",
      "transactionIndex": "0x3f",
      "blockHash": "0x0e6f4fdb6b49e42525983207ba343b3106d18a70bce2165e5e3232e48df7cd21",
      "blockNumber": "0x91adf4",
      "gasUsed": "0x19a1c",
      "effectiveGasPrice": "0xf4248",
      "from": "0xad9fdad276ab1a430fd03177a07350cd7c61e897",
      "to": "0x29025680f88f8b98097aed6fa625894f845413dc",
      "contractAddress": null
    },
    {
      "status": "0x1",
      "cumulativeGasUsed": "0xc8ec05",
      "logs": [
        {
          "address": "0x29025680f88f8b98097aed6fa625894f845413dc",
          "topics": [
            "0xddf252ad1be2c89b69c2b068fc378daa952ba7f163c4a11628f55a4df523b3ef",
            "0x0000000000000000000000000000000000000000000000000000000000000000",
            "0x000000000000000000000000ad9fdad276ab1a430fd03177a07350cd7c61e897",
            "0x0000000000000000000000000000000000000000000000000000000000000020"
          ],
          "data": "0x",
          "blockHash": "0x0e6f4fdb6b49e42525983207ba343b3106d18a70bce2165e5e3232e48df7cd21",
          "blockNumber": "0x91adf4",
          "blockTimestamp": "0x6907d478",
          "transactionHash": "0x379aab020d2f831b2a1930f5cc7605b056d84639e574d0ffc97257177a472189",
          "transactionIndex": "0x40",
          "logIndex": "0x5f",
          "removed": false
        }
      ],
      "logsBloom": "0x00000000000000000000000000000000000000000000000000000000000000000000000000000000000000000000000000000000000000000000000000000000000000000000004000000008000000000000000000000000000000000000000000000000020000000000000000000800000000000000000000000010000000000000000000000040000000000000000000000000000000000000000000000000000410000000000000000000000000000000000000000001001000100000000000000002000000000000000000000000080000000000000000000000000020000000400000000000000000000000000000000000000000000000000000000000",
      "type": "0x0",
      "transactionHash": "0x379aab020d2f831b2a1930f5cc7605b056d84639e574d0ffc97257177a472189",
      "transactionIndex": "0x40",
      "blockHash": "0x0e6f4fdb6b49e42525983207ba343b3106d18a70bce2165e5e3232e48df7cd21",
      "blockNumber": "0x91adf4",
      "gasUsed": "0x19a1c",
      "effectiveGasPrice": "0xf4248",
      "from": "0xad9fdad276ab1a430fd03177a07350cd7c61e897",
      "to": "0x29025680f88f8b98097aed6fa625894f845413dc",
      "contractAddress": null
    },
    {
      "status": "0x1",
      "cumulativeGasUsed": "0xca8621",
      "logs": [
        {
          "address": "0x29025680f88f8b98097aed6fa625894f845413dc",
          "topics": [
            "0xddf252ad1be2c89b69c2b068fc378daa952ba7f163c4a11628f55a4df523b3ef",
            "0x0000000000000000000000000000000000000000000000000000000000000000",
            "0x000000000000000000000000ad9fdad276ab1a430fd03177a07350cd7c61e897",
            "0x0000000000000000000000000000000000000000000000000000000000000021"
          ],
          "data": "0x",
          "blockHash": "0x0e6f4fdb6b49e42525983207ba343b3106d18a70bce2165e5e3232e48df7cd21",
          "blockNumber": "0x91adf4",
          "blockTimestamp": "0x6907d478",
          "transactionHash": "0x1558d24a3b36c4445ee5a70bd790071f4fc90b547858cbcb3216a5bc9f0cfc0c",
          "transactionIndex": "0x41",
          "logIndex": "0x60",
          "removed": false
        }
      ],
      "logsBloom": "0x00000000000000000000000000000000000000000000000000000000000000020000000000000000000000000000000000000000000000000000000000000000000000000000004000000008000000000000000000000000000000000000000000000000020000000000000000000800000000000000000000000010040000000000000000000040000000000000000000000000000000000000000000000000000010000000000000000000000000000000000800000001001000100000000000000002000000000000000000000000000000000000000000000000000020000000000000000000000000000000000000000000000000000000000000000000",
      "type": "0x0",
      "transactionHash": "0x1558d24a3b36c4445ee5a70bd790071f4fc90b547858cbcb3216a5bc9f0cfc0c",
      "transactionIndex": "0x41",
      "blockHash": "0x0e6f4fdb6b49e42525983207ba343b3106d18a70bce2165e5e3232e48df7cd21",
      "blockNumber": "0x91adf4",
      "gasUsed": "0x19a1c",
      "effectiveGasPrice": "0xf4248",
      "from": "0xad9fdad276ab1a430fd03177a07350cd7c61e897",
      "to": "0x29025680f88f8b98097aed6fa625894f845413dc",
      "contractAddress": null
    },
    {
      "status": "0x1",
      "cumulativeGasUsed": "0xcc203d",
      "logs": [
        {
          "address": "0x29025680f88f8b98097aed6fa625894f845413dc",
          "topics": [
            "0xddf252ad1be2c89b69c2b068fc378daa952ba7f163c4a11628f55a4df523b3ef",
            "0x0000000000000000000000000000000000000000000000000000000000000000",
            "0x000000000000000000000000ad9fdad276ab1a430fd03177a07350cd7c61e897",
            "0x0000000000000000000000000000000000000000000000000000000000000022"
          ],
          "data": "0x",
          "blockHash": "0x0e6f4fdb6b49e42525983207ba343b3106d18a70bce2165e5e3232e48df7cd21",
          "blockNumber": "0x91adf4",
          "blockTimestamp": "0x6907d478",
          "transactionHash": "0x45e346a53d4388eaef4057584d5c9c319f0325ba19962079b419d55720839860",
          "transactionIndex": "0x42",
          "logIndex": "0x61",
          "removed": false
        }
      ],
      "logsBloom": "0x00000000000000000000000000000000000000000000000000000000000000000000000000000000000000000000000000000000000000000000000000000000000000000000004000000008000000000000000000000000000000000000000000000000020000000000000000000800000000000000000000000010000000000000020000000040000000000000000000000000000000000000004000000000000010000000000000000000000000000000000000000001001000100000000000000002000000000000000000000000000000000000000000000000000020080000000000000000000000000000000000000000000000000000000000000000",
      "type": "0x0",
      "transactionHash": "0x45e346a53d4388eaef4057584d5c9c319f0325ba19962079b419d55720839860",
      "transactionIndex": "0x42",
      "blockHash": "0x0e6f4fdb6b49e42525983207ba343b3106d18a70bce2165e5e3232e48df7cd21",
      "blockNumber": "0x91adf4",
      "gasUsed": "0x19a1c",
      "effectiveGasPrice": "0xf4248",
      "from": "0xad9fdad276ab1a430fd03177a07350cd7c61e897",
      "to": "0x29025680f88f8b98097aed6fa625894f845413dc",
      "contractAddress": null
    },
    {
      "status": "0x1",
      "cumulativeGasUsed": "0xcdba59",
      "logs": [
        {
          "address": "0x29025680f88f8b98097aed6fa625894f845413dc",
          "topics": [
            "0xddf252ad1be2c89b69c2b068fc378daa952ba7f163c4a11628f55a4df523b3ef",
            "0x0000000000000000000000000000000000000000000000000000000000000000",
            "0x000000000000000000000000ad9fdad276ab1a430fd03177a07350cd7c61e897",
            "0x0000000000000000000000000000000000000000000000000000000000000023"
          ],
          "data": "0x",
          "blockHash": "0x0e6f4fdb6b49e42525983207ba343b3106d18a70bce2165e5e3232e48df7cd21",
          "blockNumber": "0x91adf4",
          "blockTimestamp": "0x6907d478",
          "transactionHash": "0xf80389f10869a89250ba8d1f77a27532042687e7dfd93e82ea434dc16cb2c789",
          "transactionIndex": "0x43",
          "logIndex": "0x62",
          "removed": false
        }
      ],
      "logsBloom": "0x00000000000000000000000000000000000000000000000000000000000000000000000000000000000000000000000000000000000000800000000000000000000000000000004000000008000000000800000000000000000000000000000000000000020000000000000000000800000000000000000000000010000000000000000000000040000000000000000000000000000200000000000000000000000010000000000000000000000000000000000000000001001000100000000000000002000000000000000000000000000000000000000000000000000020000000000000000000000000000000000000000000000000000000000000000000",
      "type": "0x0",
      "transactionHash": "0xf80389f10869a89250ba8d1f77a27532042687e7dfd93e82ea434dc16cb2c789",
      "transactionIndex": "0x43",
      "blockHash": "0x0e6f4fdb6b49e42525983207ba343b3106d18a70bce2165e5e3232e48df7cd21",
      "blockNumber": "0x91adf4",
      "gasUsed": "0x19a1c",
      "effectiveGasPrice": "0xf4248",
      "from": "0xad9fdad276ab1a430fd03177a07350cd7c61e897",
      "to": "0x29025680f88f8b98097aed6fa625894f845413dc",
      "contractAddress": null
    },
    {
      "status": "0x1",
      "cumulativeGasUsed": "0xcf5475",
      "logs": [
        {
          "address": "0x29025680f88f8b98097aed6fa625894f845413dc",
          "topics": [
            "0xddf252ad1be2c89b69c2b068fc378daa952ba7f163c4a11628f55a4df523b3ef",
            "0x0000000000000000000000000000000000000000000000000000000000000000",
            "0x000000000000000000000000ad9fdad276ab1a430fd03177a07350cd7c61e897",
            "0x0000000000000000000000000000000000000000000000000000000000000024"
          ],
          "data": "0x",
          "blockHash": "0x0e6f4fdb6b49e42525983207ba343b3106d18a70bce2165e5e3232e48df7cd21",
          "blockNumber": "0x91adf4",
          "blockTimestamp": "0x6907d478",
          "transactionHash": "0x33c1298e6976ea69e0d9ead0249af7131ea0d5e6f0183e66b0e2a3f714a8ef77",
          "transactionIndex": "0x44",
          "logIndex": "0x63",
          "removed": false
        }
      ],
      "logsBloom": "0x00000000000000000000000000000000000000000000000000000000000000000000000000000000000000000000000000000000000000000000000000000000000000000000004000000008000000000000000000000000000000000000000000000000020800000000000000000800000000000000000000000010000000000000000000000040000000000008000000000000000000000000000000000000000010000002000000000000000000000000000000000001001000100000000000000002000000000000000000000000000000000000000000000000000020000000000000000000000000000000000000000000000000000000000000000000",
      "type": "0x0",
      "transactionHash": "0x33c1298e6976ea69e0d9ead0249af7131ea0d5e6f0183e66b0e2a3f714a8ef77",
      "transactionIndex": "0x44",
      "blockHash": "0x0e6f4fdb6b49e42525983207ba343b3106d18a70bce2165e5e3232e48df7cd21",
      "blockNumber": "0x91adf4",
      "gasUsed": "0x19a1c",
      "effectiveGasPrice": "0xf4248",
      "from": "0xad9fdad276ab1a430fd03177a07350cd7c61e897",
      "to": "0x29025680f88f8b98097aed6fa625894f845413dc",
      "contractAddress": null
    },
    {
      "status": "0x1",
      "cumulativeGasUsed": "0xd0ee91",
      "logs": [
        {
          "address": "0x29025680f88f8b98097aed6fa625894f845413dc",
          "topics": [
            "0xddf252ad1be2c89b69c2b068fc378daa952ba7f163c4a11628f55a4df523b3ef",
            "0x0000000000000000000000000000000000000000000000000000000000000000",
            "0x000000000000000000000000ad9fdad276ab1a430fd03177a07350cd7c61e897",
            "0x0000000000000000000000000000000000000000000000000000000000000025"
          ],
          "data": "0x",
          "blockHash": "0x0e6f4fdb6b49e42525983207ba343b3106d18a70bce2165e5e3232e48df7cd21",
          "blockNumber": "0x91adf4",
          "blockTimestamp": "0x6907d478",
          "transactionHash": "0x698392a240ca556d99ee074fd5e0a77e9561635e8a217f5e8df1c3f420fad6da",
          "transactionIndex": "0x45",
          "logIndex": "0x64",
          "removed": false
        }
      ],
      "logsBloom": "0x00000000000000000000000000000000000000000000000000000000000000000000000000000000000000000000000000000000000000000000000000000000000000000000004000000008000000000000000000000000000000000000000000000000020000000000000000000800000000000000000000000010000000000000000000000040000000000000000000000000000000000000000000000000000010000000000000000002000000000000000000000001001000100000000000000002000000000000000000000000000000000000000000000000000020008000000000000000000000000000000000000000000000000000000002000000",
      "type": "0x0",
      "transactionHash": "0x698392a240ca556d99ee074fd5e0a77e9561635e8a217f5e8df1c3f420fad6da",
      "transactionIndex": "0x45",
      "blockHash": "0x0e6f4fdb6b49e42525983207ba343b3106d18a70bce2165e5e3232e48df7cd21",
      "blockNumber": "0x91adf4",
      "gasUsed": "0x19a1c",
      "effectiveGasPrice": "0xf4248",
      "from": "0xad9fdad276ab1a430fd03177a07350cd7c61e897",
      "to": "0x29025680f88f8b98097aed6fa625894f845413dc",
      "contractAddress": null
    },
    {
      "status": "0x1",
      "cumulativeGasUsed": "0xd288ad",
      "logs": [
        {
          "address": "0x29025680f88f8b98097aed6fa625894f845413dc",
          "topics": [
            "0xddf252ad1be2c89b69c2b068fc378daa952ba7f163c4a11628f55a4df523b3ef",
            "0x0000000000000000000000000000000000000000000000000000000000000000",
            "0x000000000000000000000000ad9fdad276ab1a430fd03177a07350cd7c61e897",
            "0x0000000000000000000000000000000000000000000000000000000000000026"
          ],
          "data": "0x",
          "blockHash": "0x0e6f4fdb6b49e42525983207ba343b3106d18a70bce2165e5e3232e48df7cd21",
          "blockNumber": "0x91adf4",
          "blockTimestamp": "0x6907d478",
          "transactionHash": "0x1b834d17b30c240b58fcc9b3f85480fb80d8909c3e35114efab518d5ac6a1fd1",
          "transactionIndex": "0x46",
          "logIndex": "0x65",
          "removed": false
        }
      ],
      "logsBloom": "0x00000000000000000000000000000000000000000000000000000000000000000000000000000000000000000000000000000000000000000000000000000000000000000000004000000008000000000001000000000000000000000000000001000000020000000000000000000800000000000000040000000010000000000000000000000040000000000000000000000000000000000000000000000000000010000000000000000000000000000000000000000001001000100000000000000002000000000000000000000000000000000000000000000000000020000000000000000000000000000000000000000000000000000000000000000000",
      "type": "0x0",
      "transactionHash": "0x1b834d17b30c240b58fcc9b3f85480fb80d8909c3e35114efab518d5ac6a1fd1",
      "transactionIndex": "0x46",
      "blockHash": "0x0e6f4fdb6b49e42525983207ba343b3106d18a70bce2165e5e3232e48df7cd21",
      "blockNumber": "0x91adf4",
      "gasUsed": "0x19a1c",
      "effectiveGasPrice": "0xf4248",
      "from": "0xad9fdad276ab1a430fd03177a07350cd7c61e897",
      "to": "0x29025680f88f8b98097aed6fa625894f845413dc",
      "contractAddress": null
    },
    {
      "status": "0x1",
      "cumulativeGasUsed": "0xd422c9",
      "logs": [
        {
          "address": "0x29025680f88f8b98097aed6fa625894f845413dc",
          "topics": [
            "0xddf252ad1be2c89b69c2b068fc378daa952ba7f163c4a11628f55a4df523b3ef",
            "0x0000000000000000000000000000000000000000000000000000000000000000",
            "0x000000000000000000000000ad9fdad276ab1a430fd03177a07350cd7c61e897",
            "0x0000000000000000000000000000000000000000000000000000000000000027"
          ],
          "data": "0x",
          "blockHash": "0x0e6f4fdb6b49e42525983207ba343b3106d18a70bce2165e5e3232e48df7cd21",
          "blockNumber": "0x91adf4",
          "blockTimestamp": "0x6907d478",
          "transactionHash": "0x26ba77077f4d4bc474776a73d1d9cb75ea888b58a6f5a8f204c7100ba362412e",
          "transactionIndex": "0x47",
          "logIndex": "0x66",
          "removed": false
        }
      ],
      "logsBloom": "0x00000000000000000000000000000000000000000000000000000000000000000002000000000000000000000000000000000000000000000000000000000000000000000000004000000008000000000000000000000000000000000000000000000000020000000000000000000800000000000000000000000010000000000000000000000040000000000000000000000000000000000000000000000000000010000000000000000000000000000000000000000001001000100000000000000002000000000000000000000000000000000000000000000000000020000000000000000000000000100000000008000000000000000000000000000000",
      "type": "0x0",
      "transactionHash": "0x26ba77077f4d4bc474776a73d1d9cb75ea888b58a6f5a8f204c7100ba362412e",
      "transactionIndex": "0x47",
      "blockHash": "0x0e6f4fdb6b49e42525983207ba343b3106d18a70bce2165e5e3232e48df7cd21",
      "blockNumber": "0x91adf4",
      "gasUsed": "0x19a1c",
      "effectiveGasPrice": "0xf4248",
      "from": "0xad9fdad276ab1a430fd03177a07350cd7c61e897",
      "to": "0x29025680f88f8b98097aed6fa625894f845413dc",
      "contractAddress": null
    },
    {
      "status": "0x1",
      "cumulativeGasUsed": "0xd5bce5",
      "logs": [
        {
          "address": "0x29025680f88f8b98097aed6fa625894f845413dc",
          "topics": [
            "0xddf252ad1be2c89b69c2b068fc378daa952ba7f163c4a11628f55a4df523b3ef",
            "0x0000000000000000000000000000000000000000000000000000000000000000",
            "0x000000000000000000000000ad9fdad276ab1a430fd03177a07350cd7c61e897",
            "0x0000000000000000000000000000000000000000000000000000000000000028"
          ],
          "data": "0x",
          "blockHash": "0x0e6f4fdb6b49e42525983207ba343b3106d18a70bce2165e5e3232e48df7cd21",
          "blockNumber": "0x91adf4",
          "blockTimestamp": "0x6907d478",
          "transactionHash": "0x633cbdf3f7c491766f4914fefe4536496e8345d92bd3d601799c6e77e2f1f022",
          "transactionIndex": "0x48",
          "logIndex": "0x67",
          "removed": false
        }
      ],
      "logsBloom": "0x00000000000000000000000000000000000000000000000000000000000000000000000000000000000000000000000000000000000000000000000000000000000000000000004000000008000000000000000000000000000000000000000000000000020000000000000000000800000000000000000000000010000000000000000000000040000000000000000000000000000000000000000000000000000010000100000000000000000000000000000000000001001000100000000000000002000000000000000000000000000020000000000000000008000020000000000000000000000000000000000000000000000000000000000000000000",
      "type": "0x0",
      "transactionHash": "0x633cbdf3f7c491766f4914fefe4536496e8345d92bd3d601799c6e77e2f1f022",
      "transactionIndex": "0x48",
      "blockHash": "0x0e6f4fdb6b49e42525983207ba343b3106d18a70bce2165e5e3232e48df7cd21",
      "blockNumber": "0x91adf4",
      "gasUsed": "0x19a1c",
      "effectiveGasPrice": "0xf4248",
      "from": "0xad9fdad276ab1a430fd03177a07350cd7c61e897",
      "to": "0x29025680f88f8b98097aed6fa625894f845413dc",
      "contractAddress": null
    },
    {
      "status": "0x1",
      "cumulativeGasUsed": "0xd75701",
      "logs": [
        {
          "address": "0x29025680f88f8b98097aed6fa625894f845413dc",
          "topics": [
            "0xddf252ad1be2c89b69c2b068fc378daa952ba7f163c4a11628f55a4df523b3ef",
            "0x0000000000000000000000000000000000000000000000000000000000000000",
            "0x000000000000000000000000ad9fdad276ab1a430fd03177a07350cd7c61e897",
            "0x0000000000000000000000000000000000000000000000000000000000000029"
          ],
          "data": "0x",
          "blockHash": "0x0e6f4fdb6b49e42525983207ba343b3106d18a70bce2165e5e3232e48df7cd21",
          "blockNumber": "0x91adf4",
          "blockTimestamp": "0x6907d478",
          "transactionHash": "0x798c46688a2d31cf0f3fa10a87001540ff9053edc563bb422bed7e832d5e775c",
          "transactionIndex": "0x49",
          "logIndex": "0x68",
          "removed": false
        }
      ],
      "logsBloom": "0x00000000000000000000000000008000000000000000000000000000000000000000000000000000000000000000000000000000000000000000000000000000000000000000004000000008000000000000000000000000000000000000000000000000020040000000000000000800000000000000000000000010000000000000000000000040000000000000000010000000000000000000000000000000000010000000000000000000000000000000000000000001001000100000000000000002000000000000000000000000000000000000000000000000000020000000000000000000000000000000000000000000000000000000000000000000",
      "type": "0x0",
      "transactionHash": "0x798c46688a2d31cf0f3fa10a87001540ff9053edc563bb422bed7e832d5e775c",
      "transactionIndex": "0x49",
      "blockHash": "0x0e6f4fdb6b49e42525983207ba343b3106d18a70bce2165e5e3232e48df7cd21",
      "blockNumber": "0x91adf4",
      "gasUsed": "0x19a1c",
      "effectiveGasPrice": "0xf4248",
      "from": "0xad9fdad276ab1a430fd03177a07350cd7c61e897",
      "to": "0x29025680f88f8b98097aed6fa625894f845413dc",
      "contractAddress": null
    },
    {
      "status": "0x1",
      "cumulativeGasUsed": "0xd8f11d",
      "logs": [
        {
          "address": "0x29025680f88f8b98097aed6fa625894f845413dc",
          "topics": [
            "0xddf252ad1be2c89b69c2b068fc378daa952ba7f163c4a11628f55a4df523b3ef",
            "0x0000000000000000000000000000000000000000000000000000000000000000",
            "0x000000000000000000000000ad9fdad276ab1a430fd03177a07350cd7c61e897",
            "0x000000000000000000000000000000000000000000000000000000000000002a"
          ],
          "data": "0x",
          "blockHash": "0x0e6f4fdb6b49e42525983207ba343b3106d18a70bce2165e5e3232e48df7cd21",
          "blockNumber": "0x91adf4",
          "blockTimestamp": "0x6907d478",
          "transactionHash": "0x26abaf0fbe59988a8405f9ef903de682d125b1be9354e1fb74a7545cbba5ba00",
          "transactionIndex": "0x4a",
          "logIndex": "0x69",
          "removed": false
        }
      ],
      "logsBloom": "0x00000000000000000000000000000000000000000000000000000000000000000000000000004000000000000000000000000000000000000000000000000000000000000000004000000008000000000000000000000000000000000000000000000000020000000000000000000800000000000000000000000010000000000000000000000040000000000000000000000000000000000000000000000000000010000000000000000000000000000000000000000001001000100000000000000002000000000000000000000000000000000000000000000000000020100000000000000000000000000020000000000000000000000000000000000000",
      "type": "0x0",
      "transactionHash": "0x26abaf0fbe59988a8405f9ef903de682d125b1be9354e1fb74a7545cbba5ba00",
      "transactionIndex": "0x4a",
      "blockHash": "0x0e6f4fdb6b49e42525983207ba343b3106d18a70bce2165e5e3232e48df7cd21",
      "blockNumber": "0x91adf4",
      "gasUsed": "0x19a1c",
      "effectiveGasPrice": "0xf4248",
      "from": "0xad9fdad276ab1a430fd03177a07350cd7c61e897",
      "to": "0x29025680f88f8b98097aed6fa625894f845413dc",
      "contractAddress": null
    },
    {
      "status": "0x1",
      "cumulativeGasUsed": "0xda8b39",
      "logs": [
        {
          "address": "0x29025680f88f8b98097aed6fa625894f845413dc",
          "topics": [
            "0xddf252ad1be2c89b69c2b068fc378daa952ba7f163c4a11628f55a4df523b3ef",
            "0x0000000000000000000000000000000000000000000000000000000000000000",
            "0x000000000000000000000000ad9fdad276ab1a430fd03177a07350cd7c61e897",
            "0x000000000000000000000000000000000000000000000000000000000000002b"
          ],
          "data": "0x",
          "blockHash": "0x0e6f4fdb6b49e42525983207ba343b3106d18a70bce2165e5e3232e48df7cd21",
          "blockNumber": "0x91adf4",
          "blockTimestamp": "0x6907d478",
          "transactionHash": "0x0de1deae34a8df17648b3835a952f6a8f84cbdcfc5060d63e1c0128feb518a72",
          "transactionIndex": "0x4b",
          "logIndex": "0x6a",
          "removed": false
        }
      ],
      "logsBloom": "0x00000000000000000000000000000000000000000000000000000000000000000000000000000000000000000000000000000000000001000000000000000000000000000000004000800008000000000000000000000000000000000000000000000000020000000000000000000800000000000000000000000010000000000000000000000040000000000000000000000000000000000000000000000000000010000000000000000000000000000000000000000001001000100000000000000002000000100000000000000000000000000000000000000000000020000000000000000000000000000000000000000000000000000000000000000000",
      "type": "0x0",
      "transactionHash": "0x0de1deae34a8df17648b3835a952f6a8f84cbdcfc5060d63e1c0128feb518a72",
      "transactionIndex": "0x4b",
      "blockHash": "0x0e6f4fdb6b49e42525983207ba343b3106d18a70bce2165e5e3232e48df7cd21",
      "blockNumber": "0x91adf4",
      "gasUsed": "0x19a1c",
      "effectiveGasPrice": "0xf4248",
      "from": "0xad9fdad276ab1a430fd03177a07350cd7c61e897",
      "to": "0x29025680f88f8b98097aed6fa625894f845413dc",
      "contractAddress": null
    },
    {
      "status": "0x1",
      "cumulativeGasUsed": "0xdc2555",
      "logs": [
        {
          "address": "0x29025680f88f8b98097aed6fa625894f845413dc",
          "topics": [
            "0xddf252ad1be2c89b69c2b068fc378daa952ba7f163c4a11628f55a4df523b3ef",
            "0x0000000000000000000000000000000000000000000000000000000000000000",
            "0x000000000000000000000000ad9fdad276ab1a430fd03177a07350cd7c61e897",
            "0x000000000000000000000000000000000000000000000000000000000000002c"
          ],
          "data": "0x",
          "blockHash": "0x0e6f4fdb6b49e42525983207ba343b3106d18a70bce2165e5e3232e48df7cd21",
          "blockNumber": "0x91adf4",
          "blockTimestamp": "0x6907d478",
          "transactionHash": "0x7b22f6c67e9108b5086d6efcf2e804b6c78e985dd5766759fc9c3d93d4a09713",
          "transactionIndex": "0x4c",
          "logIndex": "0x6b",
          "removed": false
        }
      ],
      "logsBloom": "0x00000000000000000000000000000000000000000000000000000000000000000000000000000000000000000000000000000000000000000000000000000000000000000000004000000008000000000000000000000000000000000000000000000000020000000000000100000800000000000000000000000010004000000000000000000040000000000000000000000000000000000000000000000000000010000000000000000000000000000000000000000001001000100000000000000002000000000000000000000000000000000000000800000000000020000000000000000000000000000000000000000000000000000000000000000000",
      "type": "0x0",
      "transactionHash": "0x7b22f6c67e9108b5086d6efcf2e804b6c78e985dd5766759fc9c3d93d4a09713",
      "transactionIndex": "0x4c",
      "blockHash": "0x0e6f4fdb6b49e42525983207ba343b3106d18a70bce2165e5e3232e48df7cd21",
      "blockNumber": "0x91adf4",
      "gasUsed": "0x19a1c",
      "effectiveGasPrice": "0xf4248",
      "from": "0xad9fdad276ab1a430fd03177a07350cd7c61e897",
      "to": "0x29025680f88f8b98097aed6fa625894f845413dc",
      "contractAddress": null
    },
    {
      "status": "0x1",
      "cumulativeGasUsed": "0xddbf71",
      "logs": [
        {
          "address": "0x29025680f88f8b98097aed6fa625894f845413dc",
          "topics": [
            "0xddf252ad1be2c89b69c2b068fc378daa952ba7f163c4a11628f55a4df523b3ef",
            "0x0000000000000000000000000000000000000000000000000000000000000000",
            "0x000000000000000000000000ad9fdad276ab1a430fd03177a07350cd7c61e897",
            "0x000000000000000000000000000000000000000000000000000000000000002d"
          ],
          "data": "0x",
          "blockHash": "0x0e6f4fdb6b49e42525983207ba343b3106d18a70bce2165e5e3232e48df7cd21",
          "blockNumber": "0x91adf4",
          "blockTimestamp": "0x6907d478",
          "transactionHash": "0x6484d0284ffa8eb22fad6d4b563315e251b10e32db925ffcf980353c7ec34f08",
          "transactionIndex": "0x4d",
          "logIndex": "0x6c",
          "removed": false
        }
      ],
      "logsBloom": "0x00000000000000000000000000000000000000000000000000000000000000000000000000000000000000000000000000000000000000000000000400000000000000000000004000000008000000000000000000000000000000000000000000000000020000000000000000000800000000000000000000000010000000000000000000000040000000000000000000000000000000000000000000000000000010000000000000000000000000000000000000000001001010100000000000000002000000000000000000000000000000000000000000000000400020000000000000000000000000000000000000000000000000000000000000000000",
      "type": "0x0",
      "transactionHash": "0x6484d0284ffa8eb22fad6d4b563315e251b10e32db925ffcf980353c7ec34f08",
      "transactionIndex": "0x4d",
      "blockHash": "0x0e6f4fdb6b49e42525983207ba343b3106d18a70bce2165e5e3232e48df7cd21",
      "blockNumber": "0x91adf4",
      "gasUsed": "0x19a1c",
      "effectiveGasPrice": "0xf4248",
      "from": "0xad9fdad276ab1a430fd03177a07350cd7c61e897",
      "to": "0x29025680f88f8b98097aed6fa625894f845413dc",
      "contractAddress": null
    },
    {
      "status": "0x1",
      "cumulativeGasUsed": "0xdf598d",
      "logs": [
        {
          "address": "0x29025680f88f8b98097aed6fa625894f845413dc",
          "topics": [
            "0xddf252ad1be2c89b69c2b068fc378daa952ba7f163c4a11628f55a4df523b3ef",
            "0x0000000000000000000000000000000000000000000000000000000000000000",
            "0x000000000000000000000000ad9fdad276ab1a430fd03177a07350cd7c61e897",
            "0x000000000000000000000000000000000000000000000000000000000000002e"
          ],
          "data": "0x",
          "blockHash": "0x0e6f4fdb6b49e42525983207ba343b3106d18a70bce2165e5e3232e48df7cd21",
          "blockNumber": "0x91adf4",
          "blockTimestamp": "0x6907d478",
          "transactionHash": "0xc1c003e30aaf17c91c53f635ae166f9453f38ff1c8d625be3dd79fcef5e8c02b",
          "transactionIndex": "0x4e",
          "logIndex": "0x6d",
          "removed": false
        }
      ],
      "logsBloom": "0x04000000000000000000000000000000000000000000000000000000000000000000000000000000000000000000000000001000000000000000000000000000000000000000004080000008000000000000000000000000000000000000000000000000020000000000000000000800000000000000000000000010000000000000000000000040000000000000000000000000000000000000000000000000000010000000000000000000000000000000000000000001001000100000000000000002000000000000000000000000000000000000000000000000000020000000000000000000000000000000000000000000000000000000000000000000",
      "type": "0x0",
      "transactionHash": "0xc1c003e30aaf17c91c53f635ae166f9453f38ff1c8d625be3dd79fcef5e8c02b",
      "transactionIndex": "0x4e",
      "blockHash": "0x0e6f4fdb6b49e42525983207ba343b3106d18a70bce2165e5e3232e48df7cd21",
      "blockNumber": "0x91adf4",
      "gasUsed": "0x19a1c",
      "effectiveGasPrice": "0xf4248",
      "from": "0xad9fdad276ab1a430fd03177a07350cd7c61e897",
      "to": "0x29025680f88f8b98097aed6fa625894f845413dc",
      "contractAddress": null
    },
    {
      "status": "0x1",
      "cumulativeGasUsed": "0xe0f3a9",
      "logs": [
        {
          "address": "0x29025680f88f8b98097aed6fa625894f845413dc",
          "topics": [
            "0xddf252ad1be2c89b69c2b068fc378daa952ba7f163c4a11628f55a4df523b3ef",
            "0x0000000000000000000000000000000000000000000000000000000000000000",
            "0x000000000000000000000000ad9fdad276ab1a430fd03177a07350cd7c61e897",
            "0x000000000000000000000000000000000000000000000000000000000000002f"
          ],
          "data": "0x",
          "blockHash": "0x0e6f4fdb6b49e42525983207ba343b3106d18a70bce2165e5e3232e48df7cd21",
          "blockNumber": "0x91adf4",
          "blockTimestamp": "0x6907d478",
          "transactionHash": "0x1666be40a3fde2de9be071a683f94fe209aee33714f950787a3e6779ead7f02d",
          "transactionIndex": "0x4f",
          "logIndex": "0x6e",
          "removed": false
        }
      ],
      "logsBloom": "0x00000000000000000000000000000000000080000000000000000000000000000000000000000000000000000000000000000000000000000000000000000000000000000000004000000008000000000000000000000000000000000000000000000000020000000000000000000800000000000000000000000010000000000000000000000040000000000000000000000000000000000000000000000000000010000000000000000000000000000000000000000001001000100000000000000002000000000000000000000000000000000000000000000000000020000000000000000000000000000000000000000000000004000000000000080000",
      "type": "0x0",
      "transactionHash": "0x1666be40a3fde2de9be071a683f94fe209aee33714f950787a3e6779ead7f02d",
      "transactionIndex": "0x4f",
      "blockHash": "0x0e6f4fdb6b49e42525983207ba343b3106d18a70bce2165e5e3232e48df7cd21",
      "blockNumber": "0x91adf4",
      "gasUsed": "0x19a1c",
      "effectiveGasPrice": "0xf4248",
      "from": "0xad9fdad276ab1a430fd03177a07350cd7c61e897",
      "to": "0x29025680f88f8b98097aed6fa625894f845413dc",
      "contractAddress": null
    },
    {
      "status": "0x1",
      "cumulativeGasUsed": "0xe28dc5",
      "logs": [
        {
          "address": "0x29025680f88f8b98097aed6fa625894f845413dc",
          "topics": [
            "0xddf252ad1be2c89b69c2b068fc378daa952ba7f163c4a11628f55a4df523b3ef",
            "0x0000000000000000000000000000000000000000000000000000000000000000",
            "0x000000000000000000000000ad9fdad276ab1a430fd03177a07350cd7c61e897",
            "0x0000000000000000000000000000000000000000000000000000000000000030"
          ],
          "data": "0x",
          "blockHash": "0x0e6f4fdb6b49e42525983207ba343b3106d18a70bce2165e5e3232e48df7cd21",
          "blockNumber": "0x91adf4",
          "blockTimestamp": "0x6907d478",
          "transactionHash": "0x83a8976ff85da5706a626f33c97a5bbd830da75b38a3c0bd52da4ae2236d3ea9",
          "transactionIndex": "0x50",
          "logIndex": "0x6f",
          "removed": false
        }
      ],
      "logsBloom": "0x02000000000000000000000000000000000000000000000000000000000000000000000000000000000000000000000000000000000000000000000000000000000000000000004000000008000000000000000000000000000000000000000000000000020000000000000000000800000000000000000000000010000000000000000000000040000000000000000000000000000000000000000000000000000010000000000000000000000000000000000002000001001000100000000000000002000000000000000000000000000000000000000000000000000020000000000000000000000000000000000000000000000000000000000000000000",
      "type": "0x0",
      "transactionHash": "0x83a8976ff85da5706a626f33c97a5bbd830da75b38a3c0bd52da4ae2236d3ea9",
      "transactionIndex": "0x50",
      "blockHash": "0x0e6f4fdb6b49e42525983207ba343b3106d18a70bce2165e5e3232e48df7cd21",
      "blockNumber": "0x91adf4",
      "gasUsed": "0x19a1c",
      "effectiveGasPrice": "0xf4248",
      "from": "0xad9fdad276ab1a430fd03177a07350cd7c61e897",
      "to": "0x29025680f88f8b98097aed6fa625894f845413dc",
      "contractAddress": null
    },
    {
      "status": "0x1",
      "cumulativeGasUsed": "0xe427e1",
      "logs": [
        {
          "address": "0x29025680f88f8b98097aed6fa625894f845413dc",
          "topics": [
            "0xddf252ad1be2c89b69c2b068fc378daa952ba7f163c4a11628f55a4df523b3ef",
            "0x0000000000000000000000000000000000000000000000000000000000000000",
            "0x000000000000000000000000ad9fdad276ab1a430fd03177a07350cd7c61e897",
            "0x0000000000000000000000000000000000000000000000000000000000000031"
          ],
          "data": "0x",
          "blockHash": "0x0e6f4fdb6b49e42525983207ba343b3106d18a70bce2165e5e3232e48df7cd21",
          "blockNumber": "0x91adf4",
          "blockTimestamp": "0x6907d478",
          "transactionHash": "0xb07f444b832cef6b82bfe69dd06f5b2802e5495e4e115a0e9a2f551d07a68f5f",
          "transactionIndex": "0x51",
          "logIndex": "0x70",
          "removed": false
        }
      ],
      "logsBloom": "0x00000000000000000000000000000000000000000000000000000000000000000000000000000000000000000000000000000000000000000000000000000000040000000000004000000008000000000000000000000001000000000000000000000000020000000000000000000800000040000000000000000010000000000000000000000040000000000000000000000000000000000000000000000000000010000000000000000000000000000000000000000001001000100000000000000002000000000000000000000000000000000000000000000000000020000000000000000000000000000000000000000000000000000000000000000000",
      "type": "0x0",
      "transactionHash": "0xb07f444b832cef6b82bfe69dd06f5b2802e5495e4e115a0e9a2f551d07a68f5f",
      "transactionIndex": "0x51",
      "blockHash": "0x0e6f4fdb6b49e42525983207ba343b3106d18a70bce2165e5e3232e48df7cd21",
      "blockNumber": "0x91adf4",
      "gasUsed": "0x19a1c",
      "effectiveGasPrice": "0xf4248",
      "from": "0xad9fdad276ab1a430fd03177a07350cd7c61e897",
      "to": "0x29025680f88f8b98097aed6fa625894f845413dc",
      "contractAddress": null
    },
    {
      "status": "0x1",
      "cumulativeGasUsed": "0xe5c1fd",
      "logs": [
        {
          "address": "0x29025680f88f8b98097aed6fa625894f845413dc",
          "topics": [
            "0xddf252ad1be2c89b69c2b068fc378daa952ba7f163c4a11628f55a4df523b3ef",
            "0x0000000000000000000000000000000000000000000000000000000000000000",
            "0x000000000000000000000000ad9fdad276ab1a430fd03177a07350cd7c61e897",
            "0x0000000000000000000000000000000000000000000000000000000000000032"
          ],
          "data": "0x",
          "blockHash": "0x0e6f4fdb6b49e42525983207ba343b3106d18a70bce2165e5e3232e48df7cd21",
          "blockNumber": "0x91adf4",
          "blockTimestamp": "0x6907d478",
          "transactionHash": "0x3cd2d74f81508458c5e784fcac672fb3622905b9b8aa925c5c9bf46073fd52dd",
          "transactionIndex": "0x52",
          "logIndex": "0x71",
          "removed": false
        }
      ],
      "logsBloom": "0x00000000000000000000000000000000000000000000000000000000000000000002000000000000000000000000000000000000000000000000000000000000000000000000004000000008000000000000000000000000000000000000000000000000020000000000000000000800000000000000000000000010000000000000000000000040000000000000000000000000000000000000000000000000000010000000000000000000000000000000000000000001001000100000000000000002800000000000000000000000000000000000000000000000000820000000000000000000000000000000000000000000000000000000000000000000",
      "type": "0x0",
      "transactionHash": "0x3cd2d74f81508458c5e784fcac672fb3622905b9b8aa925c5c9bf46073fd52dd",
      "transactionIndex": "0x52",
      "blockHash": "0x0e6f4fdb6b49e42525983207ba343b3106d18a70bce2165e5e3232e48df7cd21",
      "blockNumber": "0x91adf4",
      "gasUsed": "0x19a1c",
      "effectiveGasPrice": "0xf4248",
      "from": "0xad9fdad276ab1a430fd03177a07350cd7c61e897",
      "to": "0x29025680f88f8b98097aed6fa625894f845413dc",
      "contractAddress": null
    }
  ],
  "libraries": [],
  "pending": [],
  "returns": {},
  "timestamp": 1762120824923,
  "chain": 11155111,
  "commit": "c03d2ed"
}