{
  "transactions": [
    {
      "hash": "0x9e2bcfeac3c65b620287ee7239aeb793d969623645910f49d6f94a07fa09f316",
      "transactionType": "CALL",
      "contractName": null,
      "contractAddress": "0xfcb43bd05c71c52dbec18814957fd19ab332db4d",
      "function": "mint(address,uint32)",
      "arguments": [
        "0xAd9fDaD276AB1A430fD03177A07350CD7C61E897",
        "0"
      ],
      "transaction": {
        "from": "0xad9fdad276ab1a430fd03177a07350cd7c61e897",
        "to": "0xfcb43bd05c71c52dbec18814957fd19ab332db4d",
        "gas": "0x1da33",
        "value": "0x0",
        "input": "0xd35e29d7000000000000000000000000ad9fdad276ab1a430fd03177a07350cd7c61e8970000000000000000000000000000000000000000000000000000000000000000",
        "nonce": "0x35d",
        "chainId": "0xaa36a7"
      },
      "additionalContracts": [],
      "isFixedGasLimit": false
    },
    {
      "hash": "0x41a338211032b3d2e7dbefc413587dc721d110a0fb86aadf7ce78989918c7592",
      "transactionType": "CALL",
      "contractName": null,
      "contractAddress": "0xfcb43bd05c71c52dbec18814957fd19ab332db4d",
      "function": "mint(address,uint32)",
      "arguments": [
        "0xAd9fDaD276AB1A430fD03177A07350CD7C61E897",
        "0"
      ],
      "transaction": {
        "from": "0xad9fdad276ab1a430fd03177a07350cd7c61e897",
        "to": "0xfcb43bd05c71c52dbec18814957fd19ab332db4d",
        "gas": "0x1da33",
        "value": "0x0",
        "input": "0xd35e29d7000000000000000000000000ad9fdad276ab1a430fd03177a07350cd7c61e8970000000000000000000000000000000000000000000000000000000000000000",
        "nonce": "0x35e",
        "chainId": "0xaa36a7"
      },
      "additionalContracts": [],
      "isFixedGasLimit": false
    },
    {
      "hash": "0x2f9c4e20e6c158515d6b87569e78bc4119fe9be9b7b5b573b1cc4334260b6cc3",
      "transactionType": "CALL",
      "contractName": null,
      "contractAddress": "0xfcb43bd05c71c52dbec18814957fd19ab332db4d",
      "function": "mint(address,uint32)",
      "arguments": [
        "0xAd9fDaD276AB1A430fD03177A07350CD7C61E897",
        "0"
      ],
      "transaction": {
        "from": "0xad9fdad276ab1a430fd03177a07350cd7c61e897",
        "to": "0xfcb43bd05c71c52dbec18814957fd19ab332db4d",
        "gas": "0x1da33",
        "value": "0x0",
        "input": "0xd35e29d7000000000000000000000000ad9fdad276ab1a430fd03177a07350cd7c61e8970000000000000000000000000000000000000000000000000000000000000000",
        "nonce": "0x35f",
        "chainId": "0xaa36a7"
      },
      "additionalContracts": [],
      "isFixedGasLimit": false
    },
    {
      "hash": "0xba6aefa2caed3ba15684ba0a961f57fb9eb76df898688f6bc0d9e84f57b2b3b9",
      "transactionType": "CALL",
      "contractName": null,
      "contractAddress": "0xfcb43bd05c71c52dbec18814957fd19ab332db4d",
      "function": "mint(address,uint32)",
      "arguments": [
        "0xAd9fDaD276AB1A430fD03177A07350CD7C61E897",
        "0"
      ],
      "transaction": {
        "from": "0xad9fdad276ab1a430fd03177a07350cd7c61e897",
        "to": "0xfcb43bd05c71c52dbec18814957fd19ab332db4d",
        "gas": "0x1da33",
        "value": "0x0",
        "input": "0xd35e29d7000000000000000000000000ad9fdad276ab1a430fd03177a07350cd7c61e8970000000000000000000000000000000000000000000000000000000000000000",
        "nonce": "0x360",
        "chainId": "0xaa36a7"
      },
      "additionalContracts": [],
      "isFixedGasLimit": false
    },
    {
      "hash": "0x4b86a4dc4a8dbf74bab528ad5d50dacee8336196ef7e878f4e964b8938601d4d",
      "transactionType": "CALL",
      "contractName": null,
      "contractAddress": "0xfcb43bd05c71c52dbec18814957fd19ab332db4d",
      "function": "mint(address,uint32)",
      "arguments": [
        "0xAd9fDaD276AB1A430fD03177A07350CD7C61E897",
        "0"
      ],
      "transaction": {
        "from": "0xad9fdad276ab1a430fd03177a07350cd7c61e897",
        "to": "0xfcb43bd05c71c52dbec18814957fd19ab332db4d",
        "gas": "0x1da33",
        "value": "0x0",
        "input": "0xd35e29d7000000000000000000000000ad9fdad276ab1a430fd03177a07350cd7c61e8970000000000000000000000000000000000000000000000000000000000000000",
        "nonce": "0x361",
        "chainId": "0xaa36a7"
      },
      "additionalContracts": [],
      "isFixedGasLimit": false
    },
    {
      "hash": "0x7c5f89c9cca169c69b8b35de3a18fe902df73b28519054ec9f0bcc0ff10565fa",
      "transactionType": "CALL",
      "contractName": null,
      "contractAddress": "0xfcb43bd05c71c52dbec18814957fd19ab332db4d",
      "function": "mint(address,uint32)",
      "arguments": [
        "0xAd9fDaD276AB1A430fD03177A07350CD7C61E897",
        "0"
      ],
      "transaction": {
        "from": "0xad9fdad276ab1a430fd03177a07350cd7c61e897",
        "to": "0xfcb43bd05c71c52dbec18814957fd19ab332db4d",
        "gas": "0x1da33",
        "value": "0x0",
        "input": "0xd35e29d7000000000000000000000000ad9fdad276ab1a430fd03177a07350cd7c61e8970000000000000000000000000000000000000000000000000000000000000000",
        "nonce": "0x362",
        "chainId": "0xaa36a7"
      },
      "additionalContracts": [],
      "isFixedGasLimit": false
    },
    {
      "hash": "0x3f98bc042c01ec6fd116f855a0c24044ea592f30da1e22db1462a2e4298b752a",
      "transactionType": "CALL",
      "contractName": null,
      "contractAddress": "0xfcb43bd05c71c52dbec18814957fd19ab332db4d",
      "function": "mint(address,uint32)",
      "arguments": [
        "0xAd9fDaD276AB1A430fD03177A07350CD7C61E897",
        "0"
      ],
      "transaction": {
        "from": "0xad9fdad276ab1a430fd03177a07350cd7c61e897",
        "to": "0xfcb43bd05c71c52dbec18814957fd19ab332db4d",
        "gas": "0x1da33",
        "value": "0x0",
        "input": "0xd35e29d7000000000000000000000000ad9fdad276ab1a430fd03177a07350cd7c61e8970000000000000000000000000000000000000000000000000000000000000000",
        "nonce": "0x363",
        "chainId": "0xaa36a7"
      },
      "additionalContracts": [],
      "isFixedGasLimit": false
    },
    {
      "hash": "0xed8722cd04fadab6bb517e44870c2942212559df8fa41cf7d394976aaa3a4f70",
      "transactionType": "CALL",
      "contractName": null,
      "contractAddress": "0xfcb43bd05c71c52dbec18814957fd19ab332db4d",
      "function": "mint(address,uint32)",
      "arguments": [
        "0xAd9fDaD276AB1A430fD03177A07350CD7C61E897",
        "0"
      ],
      "transaction": {
        "from": "0xad9fdad276ab1a430fd03177a07350cd7c61e897",
        "to": "0xfcb43bd05c71c52dbec18814957fd19ab332db4d",
        "gas": "0x1da33",
        "value": "0x0",
        "input": "0xd35e29d7000000000000000000000000ad9fdad276ab1a430fd03177a07350cd7c61e8970000000000000000000000000000000000000000000000000000000000000000",
        "nonce": "0x364",
        "chainId": "0xaa36a7"
      },
      "additionalContracts": [],
      "isFixedGasLimit": false
    },
    {
      "hash": "0x42cc9e710801755c339d0cfeb73d39a59fb6367aee78ed55b0fa651854b8fecd",
      "transactionType": "CALL",
      "contractName": null,
      "contractAddress": "0xfcb43bd05c71c52dbec18814957fd19ab332db4d",
      "function": "mint(address,uint32)",
      "arguments": [
        "0xAd9fDaD276AB1A430fD03177A07350CD7C61E897",
        "0"
      ],
      "transaction": {
        "from": "0xad9fdad276ab1a430fd03177a07350cd7c61e897",
        "to": "0xfcb43bd05c71c52dbec18814957fd19ab332db4d",
        "gas": "0x1da33",
        "value": "0x0",
        "input": "0xd35e29d7000000000000000000000000ad9fdad276ab1a430fd03177a07350cd7c61e8970000000000000000000000000000000000000000000000000000000000000000",
        "nonce": "0x365",
        "chainId": "0xaa36a7"
      },
      "additionalContracts": [],
      "isFixedGasLimit": false
    },
    {
      "hash": "0xed22f778ee7ae79b975bebe15c0db3cceeb5f3906847bbcc6e48612731c26671",
      "transactionType": "CALL",
      "contractName": null,
      "contractAddress": "0xfcb43bd05c71c52dbec18814957fd19ab332db4d",
      "function": "mint(address,uint32)",
      "arguments": [
        "0xAd9fDaD276AB1A430fD03177A07350CD7C61E897",
        "0"
      ],
      "transaction": {
        "from": "0xad9fdad276ab1a430fd03177a07350cd7c61e897",
        "to": "0xfcb43bd05c71c52dbec18814957fd19ab332db4d",
        "gas": "0x1da33",
        "value": "0x0",
        "input": "0xd35e29d7000000000000000000000000ad9fdad276ab1a430fd03177a07350cd7c61e8970000000000000000000000000000000000000000000000000000000000000000",
        "nonce": "0x366",
        "chainId": "0xaa36a7"
      },
      "additionalContracts": [],
      "isFixedGasLimit": false
    },
    {
      "hash": "0xd0c6487b28f7db8e7f6a3042fe8e0068816bf1fc64b96113b1830f566814bd5a",
      "transactionType": "CALL",
      "contractName": null,
      "contractAddress": "0xfcb43bd05c71c52dbec18814957fd19ab332db4d",
      "function": "mint(address,uint32)",
      "arguments": [
        "0xAd9fDaD276AB1A430fD03177A07350CD7C61E897",
        "0"
      ],
      "transaction": {
        "from": "0xad9fdad276ab1a430fd03177a07350cd7c61e897",
        "to": "0xfcb43bd05c71c52dbec18814957fd19ab332db4d",
        "gas": "0x1da33",
        "value": "0x0",
        "input": "0xd35e29d7000000000000000000000000ad9fdad276ab1a430fd03177a07350cd7c61e8970000000000000000000000000000000000000000000000000000000000000000",
        "nonce": "0x367",
        "chainId": "0xaa36a7"
      },
      "additionalContracts": [],
      "isFixedGasLimit": false
    },
    {
      "hash": "0x76da539ed7b681e52e420c555397e8550cb769c42e173282a6606d988ea587d4",
      "transactionType": "CALL",
      "contractName": null,
      "contractAddress": "0xfcb43bd05c71c52dbec18814957fd19ab332db4d",
      "function": "mint(address,uint32)",
      "arguments": [
        "0xAd9fDaD276AB1A430fD03177A07350CD7C61E897",
        "0"
      ],
      "transaction": {
        "from": "0xad9fdad276ab1a430fd03177a07350cd7c61e897",
        "to": "0xfcb43bd05c71c52dbec18814957fd19ab332db4d",
        "gas": "0x1da33",
        "value": "0x0",
        "input": "0xd35e29d7000000000000000000000000ad9fdad276ab1a430fd03177a07350cd7c61e8970000000000000000000000000000000000000000000000000000000000000000",
        "nonce": "0x368",
        "chainId": "0xaa36a7"
      },
      "additionalContracts": [],
      "isFixedGasLimit": false
    },
    {
      "hash": "0xc1211175847f461b7921bdad670c032d3ae60b3e5e3041a6712679ba4089e707",
      "transactionType": "CALL",
      "contractName": null,
      "contractAddress": "0xfcb43bd05c71c52dbec18814957fd19ab332db4d",
      "function": "mint(address,uint32)",
      "arguments": [
        "0xAd9fDaD276AB1A430fD03177A07350CD7C61E897",
        "0"
      ],
      "transaction": {
        "from": "0xad9fdad276ab1a430fd03177a07350cd7c61e897",
        "to": "0xfcb43bd05c71c52dbec18814957fd19ab332db4d",
        "gas": "0x1da33",
        "value": "0x0",
        "input": "0xd35e29d7000000000000000000000000ad9fdad276ab1a430fd03177a07350cd7c61e8970000000000000000000000000000000000000000000000000000000000000000",
        "nonce": "0x369",
        "chainId": "0xaa36a7"
      },
      "additionalContracts": [],
      "isFixedGasLimit": false
    },
    {
      "hash": "0x970c8b21578385fb5f6b936255bf5435eb3cd1c58be028f3d4ba05795d7d1838",
      "transactionType": "CALL",
      "contractName": null,
      "contractAddress": "0xfcb43bd05c71c52dbec18814957fd19ab332db4d",
      "function": "mint(address,uint32)",
      "arguments": [
        "0xAd9fDaD276AB1A430fD03177A07350CD7C61E897",
        "0"
      ],
      "transaction": {
        "from": "0xad9fdad276ab1a430fd03177a07350cd7c61e897",
        "to": "0xfcb43bd05c71c52dbec18814957fd19ab332db4d",
        "gas": "0x1da33",
        "value": "0x0",
        "input": "0xd35e29d7000000000000000000000000ad9fdad276ab1a430fd03177a07350cd7c61e8970000000000000000000000000000000000000000000000000000000000000000",
        "nonce": "0x36a",
        "chainId": "0xaa36a7"
      },
      "additionalContracts": [],
      "isFixedGasLimit": false
    },
    {
      "hash": "0x3098ea9e227f5cbc45be7fd60522e12e066121f24baca22d3af431d20f8fe138",
      "transactionType": "CALL",
      "contractName": null,
      "contractAddress": "0xfcb43bd05c71c52dbec18814957fd19ab332db4d",
      "function": "mint(address,uint32)",
      "arguments": [
        "0xAd9fDaD276AB1A430fD03177A07350CD7C61E897",
        "0"
      ],
      "transaction": {
        "from": "0xad9fdad276ab1a430fd03177a07350cd7c61e897",
        "to": "0xfcb43bd05c71c52dbec18814957fd19ab332db4d",
        "gas": "0x1da33",
        "value": "0x0",
        "input": "0xd35e29d7000000000000000000000000ad9fdad276ab1a430fd03177a07350cd7c61e8970000000000000000000000000000000000000000000000000000000000000000",
        "nonce": "0x36b",
        "chainId": "0xaa36a7"
      },
      "additionalContracts": [],
      "isFixedGasLimit": false
    },
    {
      "hash": "0xdf46028cb764224267b228bfc299b683244c3c5bf6259188b1f2ee301fea66d2",
      "transactionType": "CALL",
      "contractName": null,
      "contractAddress": "0xfcb43bd05c71c52dbec18814957fd19ab332db4d",
      "function": "mint(address,uint32)",
      "arguments": [
        "0xAd9fDaD276AB1A430fD03177A07350CD7C61E897",
        "0"
      ],
      "transaction": {
        "from": "0xad9fdad276ab1a430fd03177a07350cd7c61e897",
        "to": "0xfcb43bd05c71c52dbec18814957fd19ab332db4d",
        "gas": "0x1da33",
        "value": "0x0",
        "input": "0xd35e29d7000000000000000000000000ad9fdad276ab1a430fd03177a07350cd7c61e8970000000000000000000000000000000000000000000000000000000000000000",
        "nonce": "0x36c",
        "chainId": "0xaa36a7"
      },
      "additionalContracts": [],
      "isFixedGasLimit": false
    },
    {
      "hash": "0xc925140deacd5ad0db64a590acf04e15f3cfaebaad8930e179aff9226730ceeb",
      "transactionType": "CALL",
      "contractName": null,
      "contractAddress": "0xfcb43bd05c71c52dbec18814957fd19ab332db4d",
      "function": "mint(address,uint32)",
      "arguments": [
        "0xAd9fDaD276AB1A430fD03177A07350CD7C61E897",
        "0"
      ],
      "transaction": {
        "from": "0xad9fdad276ab1a430fd03177a07350cd7c61e897",
        "to": "0xfcb43bd05c71c52dbec18814957fd19ab332db4d",
        "gas": "0x1da33",
        "value": "0x0",
        "input": "0xd35e29d7000000000000000000000000ad9fdad276ab1a430fd03177a07350cd7c61e8970000000000000000000000000000000000000000000000000000000000000000",
        "nonce": "0x36d",
        "chainId": "0xaa36a7"
      },
      "additionalContracts": [],
      "isFixedGasLimit": false
    },
    {
      "hash": "0x729703d528f41c855ab04f2cb0f8002f9a5ce8b2f88525136a3e7a0d47b20afb",
      "transactionType": "CALL",
      "contractName": null,
      "contractAddress": "0xfcb43bd05c71c52dbec18814957fd19ab332db4d",
      "function": "mint(address,uint32)",
      "arguments": [
        "0xAd9fDaD276AB1A430fD03177A07350CD7C61E897",
        "0"
      ],
      "transaction": {
        "from": "0xad9fdad276ab1a430fd03177a07350cd7c61e897",
        "to": "0xfcb43bd05c71c52dbec18814957fd19ab332db4d",
        "gas": "0x1da33",
        "value": "0x0",
        "input": "0xd35e29d7000000000000000000000000ad9fdad276ab1a430fd03177a07350cd7c61e8970000000000000000000000000000000000000000000000000000000000000000",
        "nonce": "0x36e",
        "chainId": "0xaa36a7"
      },
      "additionalContracts": [],
      "isFixedGasLimit": false
    },
    {
      "hash": "0x3ecf2328e96f7c714b6ec1e0efae6ffeb279ed9ba90a43ca9d6fe0df6e9386cf",
      "transactionType": "CALL",
      "contractName": null,
      "contractAddress": "0xfcb43bd05c71c52dbec18814957fd19ab332db4d",
      "function": "mint(address,uint32)",
      "arguments": [
        "0xAd9fDaD276AB1A430fD03177A07350CD7C61E897",
        "0"
      ],
      "transaction": {
        "from": "0xad9fdad276ab1a430fd03177a07350cd7c61e897",
        "to": "0xfcb43bd05c71c52dbec18814957fd19ab332db4d",
        "gas": "0x1da33",
        "value": "0x0",
        "input": "0xd35e29d7000000000000000000000000ad9fdad276ab1a430fd03177a07350cd7c61e8970000000000000000000000000000000000000000000000000000000000000000",
        "nonce": "0x36f",
        "chainId": "0xaa36a7"
      },
      "additionalContracts": [],
      "isFixedGasLimit": false
    },
    {
      "hash": "0x36efcc5b21aec04b844d9e7d6d4b4766817d407a8a4b144ac0b1124e59f51ee3",
      "transactionType": "CALL",
      "contractName": null,
      "contractAddress": "0xfcb43bd05c71c52dbec18814957fd19ab332db4d",
      "function": "mint(address,uint32)",
      "arguments": [
        "0xAd9fDaD276AB1A430fD03177A07350CD7C61E897",
        "0"
      ],
      "transaction": {
        "from": "0xad9fdad276ab1a430fd03177a07350cd7c61e897",
        "to": "0xfcb43bd05c71c52dbec18814957fd19ab332db4d",
        "gas": "0x1da33",
        "value": "0x0",
        "input": "0xd35e29d7000000000000000000000000ad9fdad276ab1a430fd03177a07350cd7c61e8970000000000000000000000000000000000000000000000000000000000000000",
        "nonce": "0x370",
        "chainId": "0xaa36a7"
      },
      "additionalContracts": [],
      "isFixedGasLimit": false
    },
    {
      "hash": "0x328d77503308dea2818033d9b128f3abf5eb92c02b9e8c48a6ec913de6dab57b",
      "transactionType": "CALL",
      "contractName": null,
      "contractAddress": "0xfcb43bd05c71c52dbec18814957fd19ab332db4d",
      "function": "mint(address,uint32)",
      "arguments": [
        "0xAd9fDaD276AB1A430fD03177A07350CD7C61E897",
        "0"
      ],
      "transaction": {
        "from": "0xad9fdad276ab1a430fd03177a07350cd7c61e897",
        "to": "0xfcb43bd05c71c52dbec18814957fd19ab332db4d",
        "gas": "0x1da33",
        "value": "0x0",
        "input": "0xd35e29d7000000000000000000000000ad9fdad276ab1a430fd03177a07350cd7c61e8970000000000000000000000000000000000000000000000000000000000000000",
        "nonce": "0x371",
        "chainId": "0xaa36a7"
      },
      "additionalContracts": [],
      "isFixedGasLimit": false
    },
    {
      "hash": "0x2de83c5937df62bd9327bb14de46a2b488615a97af2882775f7242e20edeff23",
      "transactionType": "CALL",
      "contractName": null,
      "contractAddress": "0xfcb43bd05c71c52dbec18814957fd19ab332db4d",
      "function": "mint(address,uint32)",
      "arguments": [
        "0xAd9fDaD276AB1A430fD03177A07350CD7C61E897",
        "0"
      ],
      "transaction": {
        "from": "0xad9fdad276ab1a430fd03177a07350cd7c61e897",
        "to": "0xfcb43bd05c71c52dbec18814957fd19ab332db4d",
        "gas": "0x1da33",
        "value": "0x0",
        "input": "0xd35e29d7000000000000000000000000ad9fdad276ab1a430fd03177a07350cd7c61e8970000000000000000000000000000000000000000000000000000000000000000",
        "nonce": "0x372",
        "chainId": "0xaa36a7"
      },
      "additionalContracts": [],
      "isFixedGasLimit": false
    },
    {
      "hash": "0xcd243cbeed5e45862eb24c03636fa8d4d834801fb2309e27873e05466adea344",
      "transactionType": "CALL",
      "contractName": null,
      "contractAddress": "0xfcb43bd05c71c52dbec18814957fd19ab332db4d",
      "function": "mint(address,uint32)",
      "arguments": [
        "0xAd9fDaD276AB1A430fD03177A07350CD7C61E897",
        "0"
      ],
      "transaction": {
        "from": "0xad9fdad276ab1a430fd03177a07350cd7c61e897",
        "to": "0xfcb43bd05c71c52dbec18814957fd19ab332db4d",
        "gas": "0x1da33",
        "value": "0x0",
        "input": "0xd35e29d7000000000000000000000000ad9fdad276ab1a430fd03177a07350cd7c61e8970000000000000000000000000000000000000000000000000000000000000000",
        "nonce": "0x373",
        "chainId": "0xaa36a7"
      },
      "additionalContracts": [],
      "isFixedGasLimit": false
    },
    {
      "hash": "0x9476b240ea4e82f9398998c9ed499f21ef8a8b569719622accda5c4a9cef219c",
      "transactionType": "CALL",
      "contractName": null,
      "contractAddress": "0xfcb43bd05c71c52dbec18814957fd19ab332db4d",
      "function": "mint(address,uint32)",
      "arguments": [
        "0xAd9fDaD276AB1A430fD03177A07350CD7C61E897",
        "0"
      ],
      "transaction": {
        "from": "0xad9fdad276ab1a430fd03177a07350cd7c61e897",
        "to": "0xfcb43bd05c71c52dbec18814957fd19ab332db4d",
        "gas": "0x1da33",
        "value": "0x0",
        "input": "0xd35e29d7000000000000000000000000ad9fdad276ab1a430fd03177a07350cd7c61e8970000000000000000000000000000000000000000000000000000000000000000",
        "nonce": "0x374",
        "chainId": "0xaa36a7"
      },
      "additionalContracts": [],
      "isFixedGasLimit": false
    },
    {
      "hash": "0x2a4de385e624513c664e46df7c391e7db6e2ee1557357106e73086077dce3a0a",
      "transactionType": "CALL",
      "contractName": null,
      "contractAddress": "0xfcb43bd05c71c52dbec18814957fd19ab332db4d",
      "function": "mint(address,uint32)",
      "arguments": [
        "0xAd9fDaD276AB1A430fD03177A07350CD7C61E897",
        "0"
      ],
      "transaction": {
        "from": "0xad9fdad276ab1a430fd03177a07350cd7c61e897",
        "to": "0xfcb43bd05c71c52dbec18814957fd19ab332db4d",
        "gas": "0x1da33",
        "value": "0x0",
        "input": "0xd35e29d7000000000000000000000000ad9fdad276ab1a430fd03177a07350cd7c61e8970000000000000000000000000000000000000000000000000000000000000000",
        "nonce": "0x375",
        "chainId": "0xaa36a7"
      },
      "additionalContracts": [],
      "isFixedGasLimit": false
    },
    {
      "hash": "0x245c3766d73977b3b937773b4ebe959e1ae5f6155d9f8e8c7a2e8dbecc703d25",
      "transactionType": "CALL",
      "contractName": null,
      "contractAddress": "0xfcb43bd05c71c52dbec18814957fd19ab332db4d",
      "function": "mint(address,uint32)",
      "arguments": [
        "0xAd9fDaD276AB1A430fD03177A07350CD7C61E897",
        "0"
      ],
      "transaction": {
        "from": "0xad9fdad276ab1a430fd03177a07350cd7c61e897",
        "to": "0xfcb43bd05c71c52dbec18814957fd19ab332db4d",
        "gas": "0x1da33",
        "value": "0x0",
        "input": "0xd35e29d7000000000000000000000000ad9fdad276ab1a430fd03177a07350cd7c61e8970000000000000000000000000000000000000000000000000000000000000000",
        "nonce": "0x376",
        "chainId": "0xaa36a7"
      },
      "additionalContracts": [],
      "isFixedGasLimit": false
    },
    {
      "hash": "0x03e62d1e47658a44bd3f135757cc9e4953d7e0bdb40cc751b84e70d08a18548f",
      "transactionType": "CALL",
      "contractName": null,
      "contractAddress": "0xfcb43bd05c71c52dbec18814957fd19ab332db4d",
      "function": "mint(address,uint32)",
      "arguments": [
        "0xAd9fDaD276AB1A430fD03177A07350CD7C61E897",
        "0"
      ],
      "transaction": {
        "from": "0xad9fdad276ab1a430fd03177a07350cd7c61e897",
        "to": "0xfcb43bd05c71c52dbec18814957fd19ab332db4d",
        "gas": "0x1da33",
        "value": "0x0",
        "input": "0xd35e29d7000000000000000000000000ad9fdad276ab1a430fd03177a07350cd7c61e8970000000000000000000000000000000000000000000000000000000000000000",
        "nonce": "0x377",
        "chainId": "0xaa36a7"
      },
      "additionalContracts": [],
      "isFixedGasLimit": false
    },
    {
      "hash": "0xffc0c653c902048e507a4fd19ed721dcce75a42eb5864400e5d392ce29233d2e",
      "transactionType": "CALL",
      "contractName": null,
      "contractAddress": "0xfcb43bd05c71c52dbec18814957fd19ab332db4d",
      "function": "mint(address,uint32)",
      "arguments": [
        "0xAd9fDaD276AB1A430fD03177A07350CD7C61E897",
        "0"
      ],
      "transaction": {
        "from": "0xad9fdad276ab1a430fd03177a07350cd7c61e897",
        "to": "0xfcb43bd05c71c52dbec18814957fd19ab332db4d",
        "gas": "0x1da33",
        "value": "0x0",
        "input": "0xd35e29d7000000000000000000000000ad9fdad276ab1a430fd03177a07350cd7c61e8970000000000000000000000000000000000000000000000000000000000000000",
        "nonce": "0x378",
        "chainId": "0xaa36a7"
      },
      "additionalContracts": [],
      "isFixedGasLimit": false
    },
    {
      "hash": "0xc56b2e28970fd1144959ec8d69deffa8616ec182afd5adb76cdbad6b33944368",
      "transactionType": "CALL",
      "contractName": null,
      "contractAddress": "0xfcb43bd05c71c52dbec18814957fd19ab332db4d",
      "function": "mint(address,uint32)",
      "arguments": [
        "0xAd9fDaD276AB1A430fD03177A07350CD7C61E897",
        "0"
      ],
      "transaction": {
        "from": "0xad9fdad276ab1a430fd03177a07350cd7c61e897",
        "to": "0xfcb43bd05c71c52dbec18814957fd19ab332db4d",
        "gas": "0x1da33",
        "value": "0x0",
        "input": "0xd35e29d7000000000000000000000000ad9fdad276ab1a430fd03177a07350cd7c61e8970000000000000000000000000000000000000000000000000000000000000000",
        "nonce": "0x379",
        "chainId": "0xaa36a7"
      },
      "additionalContracts": [],
      "isFixedGasLimit": false
    },
    {
      "hash": "0xf1dc61bfd8880ccd958f60d9a35c83a37e7f1e24dea629348e3cd78a87c81020",
      "transactionType": "CALL",
      "contractName": null,
      "contractAddress": "0xfcb43bd05c71c52dbec18814957fd19ab332db4d",
      "function": "mint(address,uint32)",
      "arguments": [
        "0xAd9fDaD276AB1A430fD03177A07350CD7C61E897",
        "0"
      ],
      "transaction": {
        "from": "0xad9fdad276ab1a430fd03177a07350cd7c61e897",
        "to": "0xfcb43bd05c71c52dbec18814957fd19ab332db4d",
        "gas": "0x1da33",
        "value": "0x0",
        "input": "0xd35e29d7000000000000000000000000ad9fdad276ab1a430fd03177a07350cd7c61e8970000000000000000000000000000000000000000000000000000000000000000",
        "nonce": "0x37a",
        "chainId": "0xaa36a7"
      },
      "additionalContracts": [],
      "isFixedGasLimit": false
    },
    {
      "hash": "0x821001cffe4f3a6bc5b6f7cfa23d50e03d760c9379e9d1393c2c7ac6ee4bb663",
      "transactionType": "CALL",
      "contractName": null,
      "contractAddress": "0xfcb43bd05c71c52dbec18814957fd19ab332db4d",
      "function": "mint(address,uint32)",
      "arguments": [
        "0xAd9fDaD276AB1A430fD03177A07350CD7C61E897",
        "0"
      ],
      "transaction": {
        "from": "0xad9fdad276ab1a430fd03177a07350cd7c61e897",
        "to": "0xfcb43bd05c71c52dbec18814957fd19ab332db4d",
        "gas": "0x1da33",
        "value": "0x0",
        "input": "0xd35e29d7000000000000000000000000ad9fdad276ab1a430fd03177a07350cd7c61e8970000000000000000000000000000000000000000000000000000000000000000",
        "nonce": "0x37b",
        "chainId": "0xaa36a7"
      },
      "additionalContracts": [],
      "isFixedGasLimit": false
    },
    {
      "hash": "0x8985ab4a8f30feebb0468c45514b1aebb28d1e302af5948c17e5ce0efcef0c02",
      "transactionType": "CALL",
      "contractName": null,
      "contractAddress": "0xfcb43bd05c71c52dbec18814957fd19ab332db4d",
      "function": "mint(address,uint32)",
      "arguments": [
        "0xAd9fDaD276AB1A430fD03177A07350CD7C61E897",
        "0"
      ],
      "transaction": {
        "from": "0xad9fdad276ab1a430fd03177a07350cd7c61e897",
        "to": "0xfcb43bd05c71c52dbec18814957fd19ab332db4d",
        "gas": "0x1da33",
        "value": "0x0",
        "input": "0xd35e29d7000000000000000000000000ad9fdad276ab1a430fd03177a07350cd7c61e8970000000000000000000000000000000000000000000000000000000000000000",
        "nonce": "0x37c",
        "chainId": "0xaa36a7"
      },
      "additionalContracts": [],
      "isFixedGasLimit": false
    },
    {
      "hash": "0x4bc5ad8901bfa6c253ba0a57cec7abf25b6f31e743b4bfa6cb9e1ded9a39614d",
      "transactionType": "CALL",
      "contractName": null,
      "contractAddress": "0xfcb43bd05c71c52dbec18814957fd19ab332db4d",
      "function": "mint(address,uint32)",
      "arguments": [
        "0xAd9fDaD276AB1A430fD03177A07350CD7C61E897",
        "0"
      ],
      "transaction": {
        "from": "0xad9fdad276ab1a430fd03177a07350cd7c61e897",
        "to": "0xfcb43bd05c71c52dbec18814957fd19ab332db4d",
        "gas": "0x1da33",
        "value": "0x0",
        "input": "0xd35e29d7000000000000000000000000ad9fdad276ab1a430fd03177a07350cd7c61e8970000000000000000000000000000000000000000000000000000000000000000",
        "nonce": "0x37d",
        "chainId": "0xaa36a7"
      },
      "additionalContracts": [],
      "isFixedGasLimit": false
    },
    {
      "hash": "0x9e35c209f68365713cdedfe09536e87d9d74657751f253e0a264787e4ba5e12b",
      "transactionType": "CALL",
      "contractName": null,
      "contractAddress": "0xfcb43bd05c71c52dbec18814957fd19ab332db4d",
      "function": "mint(address,uint32)",
      "arguments": [
        "0xAd9fDaD276AB1A430fD03177A07350CD7C61E897",
        "0"
      ],
      "transaction": {
        "from": "0xad9fdad276ab1a430fd03177a07350cd7c61e897",
        "to": "0xfcb43bd05c71c52dbec18814957fd19ab332db4d",
        "gas": "0x1da33",
        "value": "0x0",
        "input": "0xd35e29d7000000000000000000000000ad9fdad276ab1a430fd03177a07350cd7c61e8970000000000000000000000000000000000000000000000000000000000000000",
        "nonce": "0x37e",
        "chainId": "0xaa36a7"
      },
      "additionalContracts": [],
      "isFixedGasLimit": false
    },
    {
      "hash": "0xef633de83fb97021fb60ee9319f4ed5b202a5bdfebd38a25a422cbb1f856c519",
      "transactionType": "CALL",
      "contractName": null,
      "contractAddress": "0xfcb43bd05c71c52dbec18814957fd19ab332db4d",
      "function": "mint(address,uint32)",
      "arguments": [
        "0xAd9fDaD276AB1A430fD03177A07350CD7C61E897",
        "0"
      ],
      "transaction": {
        "from": "0xad9fdad276ab1a430fd03177a07350cd7c61e897",
        "to": "0xfcb43bd05c71c52dbec18814957fd19ab332db4d",
        "gas": "0x1da33",
        "value": "0x0",
        "input": "0xd35e29d7000000000000000000000000ad9fdad276ab1a430fd03177a07350cd7c61e8970000000000000000000000000000000000000000000000000000000000000000",
        "nonce": "0x37f",
        "chainId": "0xaa36a7"
      },
      "additionalContracts": [],
      "isFixedGasLimit": false
    },
    {
      "hash": "0xa4cfa736f83587f48c0cd868f11623b1e608be8f0f74a1451a41e9ab3a90e5b9",
      "transactionType": "CALL",
      "contractName": null,
      "contractAddress": "0xfcb43bd05c71c52dbec18814957fd19ab332db4d",
      "function": "mint(address,uint32)",
      "arguments": [
        "0xAd9fDaD276AB1A430fD03177A07350CD7C61E897",
        "0"
      ],
      "transaction": {
        "from": "0xad9fdad276ab1a430fd03177a07350cd7c61e897",
        "to": "0xfcb43bd05c71c52dbec18814957fd19ab332db4d",
        "gas": "0x1da33",
        "value": "0x0",
        "input": "0xd35e29d7000000000000000000000000ad9fdad276ab1a430fd03177a07350cd7c61e8970000000000000000000000000000000000000000000000000000000000000000",
        "nonce": "0x380",
        "chainId": "0xaa36a7"
      },
      "additionalContracts": [],
      "isFixedGasLimit": false
    },
    {
      "hash": "0x934acd73e8b0844a0a2e4c59144e7fb1ff68e7780594af49535ce34f7262db2b",
      "transactionType": "CALL",
      "contractName": null,
      "contractAddress": "0xfcb43bd05c71c52dbec18814957fd19ab332db4d",
      "function": "mint(address,uint32)",
      "arguments": [
        "0xAd9fDaD276AB1A430fD03177A07350CD7C61E897",
        "0"
      ],
      "transaction": {
        "from": "0xad9fdad276ab1a430fd03177a07350cd7c61e897",
        "to": "0xfcb43bd05c71c52dbec18814957fd19ab332db4d",
        "gas": "0x1da33",
        "value": "0x0",
        "input": "0xd35e29d7000000000000000000000000ad9fdad276ab1a430fd03177a07350cd7c61e8970000000000000000000000000000000000000000000000000000000000000000",
        "nonce": "0x381",
        "chainId": "0xaa36a7"
      },
      "additionalContracts": [],
      "isFixedGasLimit": false
    },
    {
      "hash": "0x0b9cf6f5f611d06fdd3f667b7acc4839c0f5083c804f04de7a92b8550f9374ed",
      "transactionType": "CALL",
      "contractName": null,
      "contractAddress": "0xfcb43bd05c71c52dbec18814957fd19ab332db4d",
      "function": "mint(address,uint32)",
      "arguments": [
        "0xAd9fDaD276AB1A430fD03177A07350CD7C61E897",
        "0"
      ],
      "transaction": {
        "from": "0xad9fdad276ab1a430fd03177a07350cd7c61e897",
        "to": "0xfcb43bd05c71c52dbec18814957fd19ab332db4d",
        "gas": "0x1da33",
        "value": "0x0",
        "input": "0xd35e29d7000000000000000000000000ad9fdad276ab1a430fd03177a07350cd7c61e8970000000000000000000000000000000000000000000000000000000000000000",
        "nonce": "0x382",
        "chainId": "0xaa36a7"
      },
      "additionalContracts": [],
      "isFixedGasLimit": false
    },
    {
      "hash": "0x991c1178271be84a289818e2ed64c0db81e96cf37577de56e244e233fb9ac075",
      "transactionType": "CALL",
      "contractName": null,
      "contractAddress": "0xfcb43bd05c71c52dbec18814957fd19ab332db4d",
      "function": "mint(address,uint32)",
      "arguments": [
        "0xAd9fDaD276AB1A430fD03177A07350CD7C61E897",
        "0"
      ],
      "transaction": {
        "from": "0xad9fdad276ab1a430fd03177a07350cd7c61e897",
        "to": "0xfcb43bd05c71c52dbec18814957fd19ab332db4d",
        "gas": "0x1da33",
        "value": "0x0",
        "input": "0xd35e29d7000000000000000000000000ad9fdad276ab1a430fd03177a07350cd7c61e8970000000000000000000000000000000000000000000000000000000000000000",
        "nonce": "0x383",
        "chainId": "0xaa36a7"
      },
      "additionalContracts": [],
      "isFixedGasLimit": false
    },
    {
      "hash": "0x0fd6a41f1013a30d241bb329a2441ba6d4d3aa02728b63f937ed7dcba8bbc4c6",
      "transactionType": "CALL",
      "contractName": null,
      "contractAddress": "0xfcb43bd05c71c52dbec18814957fd19ab332db4d",
      "function": "mint(address,uint32)",
      "arguments": [
        "0xAd9fDaD276AB1A430fD03177A07350CD7C61E897",
        "0"
      ],
      "transaction": {
        "from": "0xad9fdad276ab1a430fd03177a07350cd7c61e897",
        "to": "0xfcb43bd05c71c52dbec18814957fd19ab332db4d",
        "gas": "0x1da33",
        "value": "0x0",
        "input": "0xd35e29d7000000000000000000000000ad9fdad276ab1a430fd03177a07350cd7c61e8970000000000000000000000000000000000000000000000000000000000000000",
        "nonce": "0x384",
        "chainId": "0xaa36a7"
      },
      "additionalContracts": [],
      "isFixedGasLimit": false
    },
    {
      "hash": "0xc3c922ddbaabe5ac5f2e0a9fc4ab92e32a27bbec04c42310bab3883805a3e117",
      "transactionType": "CALL",
      "contractName": null,
      "contractAddress": "0xfcb43bd05c71c52dbec18814957fd19ab332db4d",
      "function": "mint(address,uint32)",
      "arguments": [
        "0xAd9fDaD276AB1A430fD03177A07350CD7C61E897",
        "0"
      ],
      "transaction": {
        "from": "0xad9fdad276ab1a430fd03177a07350cd7c61e897",
        "to": "0xfcb43bd05c71c52dbec18814957fd19ab332db4d",
        "gas": "0x1da33",
        "value": "0x0",
        "input": "0xd35e29d7000000000000000000000000ad9fdad276ab1a430fd03177a07350cd7c61e8970000000000000000000000000000000000000000000000000000000000000000",
        "nonce": "0x385",
        "chainId": "0xaa36a7"
      },
      "additionalContracts": [],
      "isFixedGasLimit": false
    },
    {
      "hash": "0x312dfc013d1a7a45637903a33442d4126c623486e2dae96dd5bccdd1c6ccc1e6",
      "transactionType": "CALL",
      "contractName": null,
      "contractAddress": "0xfcb43bd05c71c52dbec18814957fd19ab332db4d",
      "function": "mint(address,uint32)",
      "arguments": [
        "0xAd9fDaD276AB1A430fD03177A07350CD7C61E897",
        "0"
      ],
      "transaction": {
        "from": "0xad9fdad276ab1a430fd03177a07350cd7c61e897",
        "to": "0xfcb43bd05c71c52dbec18814957fd19ab332db4d",
        "gas": "0x1da33",
        "value": "0x0",
        "input": "0xd35e29d7000000000000000000000000ad9fdad276ab1a430fd03177a07350cd7c61e8970000000000000000000000000000000000000000000000000000000000000000",
        "nonce": "0x386",
        "chainId": "0xaa36a7"
      },
      "additionalContracts": [],
      "isFixedGasLimit": false
    },
    {
      "hash": "0x17c2bf080ebe7897819a7833013346d0d4a990fe357415beb6ba04889b015e9a",
      "transactionType": "CALL",
      "contractName": null,
      "contractAddress": "0xfcb43bd05c71c52dbec18814957fd19ab332db4d",
      "function": "mint(address,uint32)",
      "arguments": [
        "0xAd9fDaD276AB1A430fD03177A07350CD7C61E897",
        "0"
      ],
      "transaction": {
        "from": "0xad9fdad276ab1a430fd03177a07350cd7c61e897",
        "to": "0xfcb43bd05c71c52dbec18814957fd19ab332db4d",
        "gas": "0x1da33",
        "value": "0x0",
        "input": "0xd35e29d7000000000000000000000000ad9fdad276ab1a430fd03177a07350cd7c61e8970000000000000000000000000000000000000000000000000000000000000000",
        "nonce": "0x387",
        "chainId": "0xaa36a7"
      },
      "additionalContracts": [],
      "isFixedGasLimit": false
    },
    {
      "hash": "0x37b6dec0a9822064daca9f2abf2abcd7c715d89c178a870220d936414c9ae135",
      "transactionType": "CALL",
      "contractName": null,
      "contractAddress": "0xfcb43bd05c71c52dbec18814957fd19ab332db4d",
      "function": "mint(address,uint32)",
      "arguments": [
        "0xAd9fDaD276AB1A430fD03177A07350CD7C61E897",
        "0"
      ],
      "transaction": {
        "from": "0xad9fdad276ab1a430fd03177a07350cd7c61e897",
        "to": "0xfcb43bd05c71c52dbec18814957fd19ab332db4d",
        "gas": "0x1da33",
        "value": "0x0",
        "input": "0xd35e29d7000000000000000000000000ad9fdad276ab1a430fd03177a07350cd7c61e8970000000000000000000000000000000000000000000000000000000000000000",
        "nonce": "0x388",
        "chainId": "0xaa36a7"
      },
      "additionalContracts": [],
      "isFixedGasLimit": false
    },
    {
      "hash": "0x6c56e98d67fb93c13025100a21642c918e8a71f73c681a3e1df3ec54accc9d71",
      "transactionType": "CALL",
      "contractName": null,
      "contractAddress": "0xfcb43bd05c71c52dbec18814957fd19ab332db4d",
      "function": "mint(address,uint32)",
      "arguments": [
        "0xAd9fDaD276AB1A430fD03177A07350CD7C61E897",
        "0"
      ],
      "transaction": {
        "from": "0xad9fdad276ab1a430fd03177a07350cd7c61e897",
        "to": "0xfcb43bd05c71c52dbec18814957fd19ab332db4d",
        "gas": "0x1da33",
        "value": "0x0",
        "input": "0xd35e29d7000000000000000000000000ad9fdad276ab1a430fd03177a07350cd7c61e8970000000000000000000000000000000000000000000000000000000000000000",
        "nonce": "0x389",
        "chainId": "0xaa36a7"
      },
      "additionalContracts": [],
      "isFixedGasLimit": false
    },
    {
      "hash": "0x9a11b736848f50dc7cbdb8ef0db722db5867efe14f6c82e89d75e1cdda83a2fc",
      "transactionType": "CALL",
      "contractName": null,
      "contractAddress": "0xfcb43bd05c71c52dbec18814957fd19ab332db4d",
      "function": "mint(address,uint32)",
      "arguments": [
        "0xAd9fDaD276AB1A430fD03177A07350CD7C61E897",
        "0"
      ],
      "transaction": {
        "from": "0xad9fdad276ab1a430fd03177a07350cd7c61e897",
        "to": "0xfcb43bd05c71c52dbec18814957fd19ab332db4d",
        "gas": "0x1da33",
        "value": "0x0",
        "input": "0xd35e29d7000000000000000000000000ad9fdad276ab1a430fd03177a07350cd7c61e8970000000000000000000000000000000000000000000000000000000000000000",
        "nonce": "0x38a",
        "chainId": "0xaa36a7"
      },
      "additionalContracts": [],
      "isFixedGasLimit": false
    },
    {
      "hash": "0xd0d53b755ee95fac41708280856ca91cd2f8fc14c0d5489e95cbe1c2a3202e9e",
      "transactionType": "CALL",
      "contractName": null,
      "contractAddress": "0xfcb43bd05c71c52dbec18814957fd19ab332db4d",
      "function": "mint(address,uint32)",
      "arguments": [
        "0xAd9fDaD276AB1A430fD03177A07350CD7C61E897",
        "0"
      ],
      "transaction": {
        "from": "0xad9fdad276ab1a430fd03177a07350cd7c61e897",
        "to": "0xfcb43bd05c71c52dbec18814957fd19ab332db4d",
        "gas": "0x1da33",
        "value": "0x0",
        "input": "0xd35e29d7000000000000000000000000ad9fdad276ab1a430fd03177a07350cd7c61e8970000000000000000000000000000000000000000000000000000000000000000",
        "nonce": "0x38b",
        "chainId": "0xaa36a7"
      },
      "additionalContracts": [],
      "isFixedGasLimit": false
    },
    {
      "hash": "0xc58facc7860f009d181c3476b9fd711fe3dad63db1b50d4093c2347785c955b6",
      "transactionType": "CALL",
      "contractName": null,
      "contractAddress": "0xfcb43bd05c71c52dbec18814957fd19ab332db4d",
      "function": "mint(address,uint32)",
      "arguments": [
        "0xAd9fDaD276AB1A430fD03177A07350CD7C61E897",
        "0"
      ],
      "transaction": {
        "from": "0xad9fdad276ab1a430fd03177a07350cd7c61e897",
        "to": "0xfcb43bd05c71c52dbec18814957fd19ab332db4d",
        "gas": "0x1da33",
        "value": "0x0",
        "input": "0xd35e29d7000000000000000000000000ad9fdad276ab1a430fd03177a07350cd7c61e8970000000000000000000000000000000000000000000000000000000000000000",
        "nonce": "0x38c",
        "chainId": "0xaa36a7"
      },
      "additionalContracts": [],
      "isFixedGasLimit": false
    },
    {
      "hash": "0xf4dc5455c807a5a8179013d92fc7a46641e0c1548d0f8bfabb5f08fcd04bca4e",
      "transactionType": "CALL",
      "contractName": null,
      "contractAddress": "0xfcb43bd05c71c52dbec18814957fd19ab332db4d",
      "function": "mint(address,uint32)",
      "arguments": [
        "0xAd9fDaD276AB1A430fD03177A07350CD7C61E897",
        "0"
      ],
      "transaction": {
        "from": "0xad9fdad276ab1a430fd03177a07350cd7c61e897",
        "to": "0xfcb43bd05c71c52dbec18814957fd19ab332db4d",
        "gas": "0x1da33",
        "value": "0x0",
        "input": "0xd35e29d7000000000000000000000000ad9fdad276ab1a430fd03177a07350cd7c61e8970000000000000000000000000000000000000000000000000000000000000000",
        "nonce": "0x38d",
        "chainId": "0xaa36a7"
      },
      "additionalContracts": [],
      "isFixedGasLimit": false
    },
    {
      "hash": "0x8033b2b6b4805f90c18d887723a8202a9087daeba5bf227c21aebdfa6dd25190",
      "transactionType": "CALL",
      "contractName": null,
      "contractAddress": "0xfcb43bd05c71c52dbec18814957fd19ab332db4d",
      "function": "mint(address,uint32)",
      "arguments": [
        "0xAd9fDaD276AB1A430fD03177A07350CD7C61E897",
        "0"
      ],
      "transaction": {
        "from": "0xad9fdad276ab1a430fd03177a07350cd7c61e897",
        "to": "0xfcb43bd05c71c52dbec18814957fd19ab332db4d",
        "gas": "0x1da33",
        "value": "0x0",
        "input": "0xd35e29d7000000000000000000000000ad9fdad276ab1a430fd03177a07350cd7c61e8970000000000000000000000000000000000000000000000000000000000000000",
        "nonce": "0x38e",
        "chainId": "0xaa36a7"
      },
      "additionalContracts": [],
      "isFixedGasLimit": false
    }
  ],
  "receipts": [
    {
      "status": "0x1",
      "cumulativeGasUsed": "0xba0628",
      "logs": [
        {
          "address": "0xfcb43bd05c71c52dbec18814957fd19ab332db4d",
          "topics": [
            "0xddf252ad1be2c89b69c2b068fc378daa952ba7f163c4a11628f55a4df523b3ef",
            "0x0000000000000000000000000000000000000000000000000000000000000000",
            "0x000000000000000000000000ad9fdad276ab1a430fd03177a07350cd7c61e897",
            "0x0000000000000000000000000000000000000000000000000000000000000033"
          ],
          "data": "0x",
          "blockHash": "0x4a1fd80985084db4e234df1e56d6e473566f21d651294d09ae4fe93391eb8ec2",
          "blockNumber": "0x9170c0",
          "blockTimestamp": "0x6904f4c4",
          "transactionHash": "0x9e2bcfeac3c65b620287ee7239aeb793d969623645910f49d6f94a07fa09f316",
          "transactionIndex": "0x55",
          "logIndex": "0x91",
          "removed": false
        }
      ],
      "logsBloom": "0x00000000000000000000000000000000000000000000000000000000000000000000000000000000000000000000000000000000000000000000000000000000000000000000004000000008000000000000000000000000000000000000000000000000020000000000000000000800000000000000000000000010000000000000000040080040000000000004400000000000000000000000000000000000000011000000000000000080000000000000000000000000000000000000000000000002000000000000000000000000000000000000000000000000000020000000000000000000000000000000000000000000000000000000000000000000",
      "type": "0x0",
      "transactionHash": "0x9e2bcfeac3c65b620287ee7239aeb793d969623645910f49d6f94a07fa09f316",
      "transactionIndex": "0x55",
      "blockHash": "0x4a1fd80985084db4e234df1e56d6e473566f21d651294d09ae4fe93391eb8ec2",
      "blockNumber": "0x9170c0",
      "gasUsed": "0x15750",
      "effectiveGasPrice": "0xf424a",
      "from": "0xad9fdad276ab1a430fd03177a07350cd7c61e897",
      "to": "0xfcb43bd05c71c52dbec18814957fd19ab332db4d",
      "contractAddress": null
    },
    {
      "status": "0x1",
      "cumulativeGasUsed": "0xbb5d78",
      "logs": [
        {
          "address": "0xfcb43bd05c71c52dbec18814957fd19ab332db4d",
          "topics": [
            "0xddf252ad1be2c89b69c2b068fc378daa952ba7f163c4a11628f55a4df523b3ef",
            "0x0000000000000000000000000000000000000000000000000000000000000000",
            "0x000000000000000000000000ad9fdad276ab1a430fd03177a07350cd7c61e897",
            "0x0000000000000000000000000000000000000000000000000000000000000034"
          ],
          "data": "0x",
          "blockHash": "0x4a1fd80985084db4e234df1e56d6e473566f21d651294d09ae4fe93391eb8ec2",
          "blockNumber": "0x9170c0",
          "blockTimestamp": "0x6904f4c4",
          "transactionHash": "0x41a338211032b3d2e7dbefc413587dc721d110a0fb86aadf7ce78989918c7592",
          "transactionIndex": "0x56",
          "logIndex": "0x92",
          "removed": false
        }
      ],
      "logsBloom": "0x00000000000000000000000000000000000000000000000000000000000000000000000000000000200000000000000000000000000000000000000000000000000000000000004000000008000000000000000000000000000000000000000000000000020000000000000000000800000000000000000000000010000000000000000000080040000000000004400000000000000000000000000000020000000010000000000000000000000000000000000000000000000000000000000000000002000000000000000000000000000000000000000000000000000020000000020000000000000000000000000000000000000000000000000000000000",
      "type": "0x0",
      "transactionHash": "0x41a338211032b3d2e7dbefc413587dc721d110a0fb86aadf7ce78989918c7592",
      "transactionIndex": "0x56",
      "blockHash": "0x4a1fd80985084db4e234df1e56d6e473566f21d651294d09ae4fe93391eb8ec2",
      "blockNumber": "0x9170c0",
      "gasUsed": "0x15750",
      "effectiveGasPrice": "0xf424a",
      "from": "0xad9fdad276ab1a430fd03177a07350cd7c61e897",
      "to": "0xfcb43bd05c71c52dbec18814957fd19ab332db4d",
      "contractAddress": null
    },
    {
      "status": "0x1",
      "cumulativeGasUsed": "0xbcb4c8",
      "logs": [
        {
          "address": "0xfcb43bd05c71c52dbec18814957fd19ab332db4d",
          "topics": [
            "0xddf252ad1be2c89b69c2b068fc378daa952ba7f163c4a11628f55a4df523b3ef",
            "0x0000000000000000000000000000000000000000000000000000000000000000",
            "0x000000000000000000000000ad9fdad276ab1a430fd03177a07350cd7c61e897",
            "0x0000000000000000000000000000000000000000000000000000000000000035"
          ],
          "data": "0x",
          "blockHash": "0x4a1fd80985084db4e234df1e56d6e473566f21d651294d09ae4fe93391eb8ec2",
          "blockNumber": "0x9170c0",
          "blockTimestamp": "0x6904f4c4",
          "transactionHash": "0x2f9c4e20e6c158515d6b87569e78bc4119fe9be9b7b5b573b1cc4334260b6cc3",
          "transactionIndex": "0x57",
          "logIndex": "0x93",
          "removed": false
        }
      ],
      "logsBloom": "0x00000000000000000000001000000000000000000000000000000000000000000000000000000002000000000000000000000000000000000000000000000000000000000000004000000008000000000000000000000000000000000000000000000000020000000000000000000800000000000000000000000010000000000000000000080040000000000004400000000000000000000000020000000000000010000000000000000000000000000000000000000000000000000000000000000002000000000000000000000000000000000000000000000000000020000000000000000000000000000000000000000000000000000000000000000000",
      "type": "0x0",
      "transactionHash": "0x2f9c4e20e6c158515d6b87569e78bc4119fe9be9b7b5b573b1cc4334260b6cc3",
      "transactionIndex": "0x57",
      "blockHash": "0x4a1fd80985084db4e234df1e56d6e473566f21d651294d09ae4fe93391eb8ec2",
      "blockNumber": "0x9170c0",
      "gasUsed": "0x15750",
      "effectiveGasPrice": "0xf424a",
      "from": "0xad9fdad276ab1a430fd03177a07350cd7c61e897",
      "to": "0xfcb43bd05c71c52dbec18814957fd19ab332db4d",
      "contractAddress": null
    },
    {
      "status": "0x1",
      "cumulativeGasUsed": "0xbe0c18",
      "logs": [
        {
          "address": "0xfcb43bd05c71c52dbec18814957fd19ab332db4d",
          "topics": [
            "0xddf252ad1be2c89b69c2b068fc378daa952ba7f163c4a11628f55a4df523b3ef",
            "0x0000000000000000000000000000000000000000000000000000000000000000",
            "0x000000000000000000000000ad9fdad276ab1a430fd03177a07350cd7c61e897",
            "0x0000000000000000000000000000000000000000000000000000000000000036"
          ],
          "data": "0x",
          "blockHash": "0x4a1fd80985084db4e234df1e56d6e473566f21d651294d09ae4fe93391eb8ec2",
          "blockNumber": "0x9170c0",
          "blockTimestamp": "0x6904f4c4",
          "transactionHash": "0xba6aefa2caed3ba15684ba0a961f57fb9eb76df898688f6bc0d9e84f57b2b3b9",
          "transactionIndex": "0x58",
          "logIndex": "0x94",
          "removed": false
        }
      ],
      "logsBloom": "0x00000000000000000000000000000000000000000000000000000000000000000000000000000000000000000000000000000000000000000000000000000000000000000000004000000008000000000000000000000000000000000000000000000000020000000000000000000800000000000000000000000010000000000000000000080040000000000004400000000000000000000000000000000000000010000000000000000000000000000000000000000000000000000002000000000002000000000000000000000000000000000000400000000000000020000000000000000000000002000000000000000000000000000000000000000000",
      "type": "0x0",
      "transactionHash": "0xba6aefa2caed3ba15684ba0a961f57fb9eb76df898688f6bc0d9e84f57b2b3b9",
      "transactionIndex": "0x58",
      "blockHash": "0x4a1fd80985084db4e234df1e56d6e473566f21d651294d09ae4fe93391eb8ec2",
      "blockNumber": "0x9170c0",
      "gasUsed": "0x15750",
      "effectiveGasPrice": "0xf424a",
      "from": "0xad9fdad276ab1a430fd03177a07350cd7c61e897",
      "to": "0xfcb43bd05c71c52dbec18814957fd19ab332db4d",
      "contractAddress": null
    },
    {
      "status": "0x1",
      "cumulativeGasUsed": "0xbf6368",
      "logs": [
        {
          "address": "0xfcb43bd05c71c52dbec18814957fd19ab332db4d",
          "topics": [
            "0xddf252ad1be2c89b69c2b068fc378daa952ba7f163c4a11628f55a4df523b3ef",
            "0x0000000000000000000000000000000000000000000000000000000000000000",
            "0x000000000000000000000000ad9fdad276ab1a430fd03177a07350cd7c61e897",
            "0x0000000000000000000000000000000000000000000000000000000000000037"
          ],
          "data": "0x",
          "blockHash": "0x4a1fd80985084db4e234df1e56d6e473566f21d651294d09ae4fe93391eb8ec2",
          "blockNumber": "0x9170c0",
          "blockTimestamp": "0x6904f4c4",
          "transactionHash": "0x4b86a4dc4a8dbf74bab528ad5d50dacee8336196ef7e878f4e964b8938601d4d",
          "transactionIndex": "0x59",
          "logIndex": "0x95",
          "removed": false
        }
      ],
      "logsBloom": "0x00000000200000000000000000000000000000000000000000000000000000000000000000000000000000000000000000000000000000000000000000000000000000000000004000000008000000000000000000000000000000000000000000000000020000000000000000000800000000000000000000000010000000000000000000080040000000000004400000000000000000000000000000000000000010000000000000000080000000000000000000000000000000000000000000000002000000000000000000000000000000000000000000000000000020000000000000000000000000000000000000000000100000000000000000000000",
      "type": "0x0",
      "transactionHash": "0x4b86a4dc4a8dbf74bab528ad5d50dacee8336196ef7e878f4e964b8938601d4d",
      "transactionIndex": "0x59",
      "blockHash": "0x4a1fd80985084db4e234df1e56d6e473566f21d651294d09ae4fe93391eb8ec2",
      "blockNumber": "0x9170c0",
      "gasUsed": "0x15750",
      "effectiveGasPrice": "0xf424a",
      "from": "0xad9fdad276ab1a430fd03177a07350cd7c61e897",
      "to": "0xfcb43bd05c71c52dbec18814957fd19ab332db4d",
      "contractAddress": null
    },
    {
      "status": "0x1",
      "cumulativeGasUsed": "0xc0bab8",
      "logs": [
        {
          "address": "0xfcb43bd05c71c52dbec18814957fd19ab332db4d",
          "topics": [
            "0xddf252ad1be2c89b69c2b068fc378daa952ba7f163c4a11628f55a4df523b3ef",
            "0x0000000000000000000000000000000000000000000000000000000000000000",
            "0x000000000000000000000000ad9fdad276ab1a430fd03177a07350cd7c61e897",
            "0x0000000000000000000000000000000000000000000000000000000000000038"
          ],
          "data": "0x",
          "blockHash": "0x4a1fd80985084db4e234df1e56d6e473566f21d651294d09ae4fe93391eb8ec2",
          "blockNumber": "0x9170c0",
          "blockTimestamp": "0x6904f4c4",
          "transactionHash": "0x7c5f89c9cca169c69b8b35de3a18fe902df73b28519054ec9f0bcc0ff10565fa",
          "transactionIndex": "0x5a",
          "logIndex": "0x96",
          "removed": false
        }
      ],
      "logsBloom": "0x00000000000000000000000000000000000000000000000000000000000000000000000000000000000020000000000000000000000000000000000000000000000000000000004000000008000000000000000000000000000000000000000000000000020000000000000000000800000000002000000000000010000000000000000000080040000000000004400000000000000000000000000000000000000010000000000000000000000000000000000000000000000000000000000000000002000000000000000000000000000000000000000000000000000020000000000000000000000000000000000000000000000000000200000000000000",
      "type": "0x0",
      "transactionHash": "0x7c5f89c9cca169c69b8b35de3a18fe902df73b28519054ec9f0bcc0ff10565fa",
      "transactionIndex": "0x5a",
      "blockHash": "0x4a1fd80985084db4e234df1e56d6e473566f21d651294d09ae4fe93391eb8ec2",
      "blockNumber": "0x9170c0",
      "gasUsed": "0x15750",
      "effectiveGasPrice": "0xf424a",
      "from": "0xad9fdad276ab1a430fd03177a07350cd7c61e897",
      "to": "0xfcb43bd05c71c52dbec18814957fd19ab332db4d",
      "contractAddress": null
    },
    {
      "status": "0x1",
      "cumulativeGasUsed": "0xc21208",
      "logs": [
        {
          "address": "0xfcb43bd05c71c52dbec18814957fd19ab332db4d",
          "topics": [
            "0xddf252ad1be2c89b69c2b068fc378daa952ba7f163c4a11628f55a4df523b3ef",
            "0x0000000000000000000000000000000000000000000000000000000000000000",
            "0x000000000000000000000000ad9fdad276ab1a430fd03177a07350cd7c61e897",
            "0x0000000000000000000000000000000000000000000000000000000000000039"
          ],
          "data": "0x",
          "blockHash": "0x4a1fd80985084db4e234df1e56d6e473566f21d651294d09ae4fe93391eb8ec2",
          "blockNumber": "0x9170c0",
          "blockTimestamp": "0x6904f4c4",
          "transactionHash": "0x3f98bc042c01ec6fd116f855a0c24044ea592f30da1e22db1462a2e4298b752a",
          "transactionIndex": "0x5b",
          "logIndex": "0x97",
          "removed": false
        }
      ],
      "logsBloom": "0x00000000000000000000000000002000000000000000000000000000000000000080000000000000000000000000000000000000000000000000000000000000000000000000004000000008000000000000000000000000000000000000000000000000020000000000000000000800000000000000000000000010004000000000000000080040000000000004400000000000000000000000000000000000000010000000000000000000000000000000000000000000000000000000000000000002000000000000000000000000000000000000000000000000000020000000000000000000000000000000000000000000000000000000000000000000",
      "type": "0x0",
      "transactionHash": "0x3f98bc042c01ec6fd116f855a0c24044ea592f30da1e22db1462a2e4298b752a",
      "transactionIndex": "0x5b",
      "blockHash": "0x4a1fd80985084db4e234df1e56d6e473566f21d651294d09ae4fe93391eb8ec2",
      "blockNumber": "0x9170c0",
      "gasUsed": "0x15750",
      "effectiveGasPrice": "0xf424a",
      "from": "0xad9fdad276ab1a430fd03177a07350cd7c61e897",
      "to": "0xfcb43bd05c71c52dbec18814957fd19ab332db4d",
      "contractAddress": null
    },
    {
      "status": "0x1",
      "cumulativeGasUsed": "0xc36958",
      "logs": [
        {
          "address": "0xfcb43bd05c71c52dbec18814957fd19ab332db4d",
          "topics": [
            "0xddf252ad1be2c89b69c2b068fc378daa952ba7f163c4a11628f55a4df523b3ef",
            "0x0000000000000000000000000000000000000000000000000000000000000000",
            "0x000000000000000000000000ad9fdad276ab1a430fd03177a07350cd7c61e897",
            "0x000000000000000000000000000000000000000000000000000000000000003a"
          ],
          "data": "0x",
          "blockHash": "0x4a1fd80985084db4e234df1e56d6e473566f21d651294d09ae4fe93391eb8ec2",
          "blockNumber": "0x9170c0",
          "blockTimestamp": "0x6904f4c4",
          "transactionHash": "0xed8722cd04fadab6bb517e44870c2942212559df8fa41cf7d394976aaa3a4f70",
          "transactionIndex": "0x5c",
          "logIndex": "0x98",
          "removed": false
        }
      ],
      "logsBloom": "0x00000000000000000000000000000000000000000000000000000000000000000000000000000000000000000000000000000000000000000000000000000000000000000000004000000008000000020000000000000000000000000000000000000000020000000000000000000800000000000000000000000010000000000000000000080040000000000004400000000080000000000000000000000000000010000000000000000000020000000000000000000000000000000000000000000002000000000000000000000000000000000000000000000000000020000000000000000000000000000000000000000000000000000000000000000000",
      "type": "0x0",
      "transactionHash": "0xed8722cd04fadab6bb517e44870c2942212559df8fa41cf7d394976aaa3a4f70",
      "transactionIndex": "0x5c",
      "blockHash": "0x4a1fd80985084db4e234df1e56d6e473566f21d651294d09ae4fe93391eb8ec2",
      "blockNumber": "0x9170c0",
      "gasUsed": "0x15750",
      "effectiveGasPrice": "0xf424a",
      "from": "0xad9fdad276ab1a430fd03177a07350cd7c61e897",
      "to": "0xfcb43bd05c71c52dbec18814957fd19ab332db4d",
      "contractAddress": null
    },
    {
      "status": "0x1",
      "cumulativeGasUsed": "0xc4c0a8",
      "logs": [
        {
          "address": "0xfcb43bd05c71c52dbec18814957fd19ab332db4d",
          "topics": [
            "0xddf252ad1be2c89b69c2b068fc378daa952ba7f163c4a11628f55a4df523b3ef",
            "0x0000000000000000000000000000000000000000000000000000000000000000",
            "0x000000000000000000000000ad9fdad276ab1a430fd03177a07350cd7c61e897",
            "0x000000000000000000000000000000000000000000000000000000000000003b"
          ],
          "data": "0x",
          "blockHash": "0x4a1fd80985084db4e234df1e56d6e473566f21d651294d09ae4fe93391eb8ec2",
          "blockNumber": "0x9170c0",
          "blockTimestamp": "0x6904f4c4",
          "transactionHash": "0x42cc9e710801755c339d0cfeb73d39a59fb6367aee78ed55b0fa651854b8fecd",
          "transactionIndex": "0x5d",
          "logIndex": "0x99",
          "removed": false
        }
      ],
      "logsBloom": "0x00000000000000000000000000000000000000000000000000000000000000000000000000000000000000000000000000000000000000000000000000000000000000000000004000000008000000000000000000000000000000000000000000000000020000000000000000000820000000000000000000000010000000000000000800080040000000000004400000000000000000000000000000000000000010000000000000000000000000000000000000000000000000000000000000000002000000000000000000000000000000000000000000000002000020000000000000000000000000000000000000000000000000000000000000000000",
      "type": "0x0",
      "transactionHash": "0x42cc9e710801755c339d0cfeb73d39a59fb6367aee78ed55b0fa651854b8fecd",
      "transactionIndex": "0x5d",
      "blockHash": "0x4a1fd80985084db4e234df1e56d6e473566f21d651294d09ae4fe93391eb8ec2",
      "blockNumber": "0x9170c0",
      "gasUsed": "0x15750",
      "effectiveGasPrice": "0xf424a",
      "from": "0xad9fdad276ab1a430fd03177a07350cd7c61e897",
      "to": "0xfcb43bd05c71c52dbec18814957fd19ab332db4d",
      "contractAddress": null
    },
    {
      "status": "0x1",
      "cumulativeGasUsed": "0xc617f8",
      "logs": [
        {
          "address": "0xfcb43bd05c71c52dbec18814957fd19ab332db4d",
          "topics": [
            "0xddf252ad1be2c89b69c2b068fc378daa952ba7f163c4a11628f55a4df523b3ef",
            "0x0000000000000000000000000000000000000000000000000000000000000000",
            "0x000000000000000000000000ad9fdad276ab1a430fd03177a07350cd7c61e897",
            "0x000000000000000000000000000000000000000000000000000000000000003c"
          ],
          "data": "0x",
          "blockHash": "0x4a1fd80985084db4e234df1e56d6e473566f21d651294d09ae4fe93391eb8ec2",
          "blockNumber": "0x9170c0",
          "blockTimestamp": "0x6904f4c4",
          "transactionHash": "0xed22f778ee7ae79b975bebe15c0db3cceeb5f3906847bbcc6e48612731c26671",
          "transactionIndex": "0x5e",
          "logIndex": "0x9a",
          "removed": false
        }
      ],
      "logsBloom": "0x00000000000000000000000000040000000000000000000000000000000000000000000000000800080000000000000000000000000000000000000000000000000000000000004000000008000000000000000000000000000000000000000000000000020000000000000000000800000000000000000000000010000000000000000000080040000000000004400000000000000000000000000000000000000010000000000000000000000000000000000000000000000000000000000000000002000000000000000000000000000000000000000000000000000020000000000000000000000000000000000000000000000000000000000000000000",
      "type": "0x0",
      "transactionHash": "0xed22f778ee7ae79b975bebe15c0db3cceeb5f3906847bbcc6e48612731c26671",
      "transactionIndex": "0x5e",
      "blockHash": "0x4a1fd80985084db4e234df1e56d6e473566f21d651294d09ae4fe93391eb8ec2",
      "blockNumber": "0x9170c0",
      "gasUsed": "0x15750",
      "effectiveGasPrice": "0xf424a",
      "from": "0xad9fdad276ab1a430fd03177a07350cd7c61e897",
      "to": "0xfcb43bd05c71c52dbec18814957fd19ab332db4d",
      "contractAddress": null
    },
    {
      "status": "0x1",
      "cumulativeGasUsed": "0xc76f48",
      "logs": [
        {
          "address": "0xfcb43bd05c71c52dbec18814957fd19ab332db4d",
          "topics": [
            "0xddf252ad1be2c89b69c2b068fc378daa952ba7f163c4a11628f55a4df523b3ef",
            "0x0000000000000000000000000000000000000000000000000000000000000000",
            "0x000000000000000000000000ad9fdad276ab1a430fd03177a07350cd7c61e897",
            "0x000000000000000000000000000000000000000000000000000000000000003d"
          ],
          "data": "0x",
          "blockHash": "0x4a1fd80985084db4e234df1e56d6e473566f21d651294d09ae4fe93391eb8ec2",
          "blockNumber": "0x9170c0",
          "blockTimestamp": "0x6904f4c4",
          "transactionHash": "0xd0c6487b28f7db8e7f6a3042fe8e0068816bf1fc64b96113b1830f566814bd5a",
          "transactionIndex": "0x5f",
          "logIndex": "0x9b",
          "removed": false
        }
      ],
      "logsBloom": "0x00000000000000000000000000000000000000000000000000000000000000000000000000000000000000000000000000000000000000000000000000000000000000000000004000000008000000000000000000000000000000040000000020000040020000000000000000000800000000000000000000000010000000000000000000080040000000000004400000000000000000000000000000000000000010000000000000000000000000000000000000000000000000000000000000000002000000000000000000000000000000000000000000000000000020000000000000000000000000000000000000000000000000000000000000000000",
      "type": "0x0",
      "transactionHash": "0xd0c6487b28f7db8e7f6a3042fe8e0068816bf1fc64b96113b1830f566814bd5a",
      "transactionIndex": "0x5f",
      "blockHash": "0x4a1fd80985084db4e234df1e56d6e473566f21d651294d09ae4fe93391eb8ec2",
      "blockNumber": "0x9170c0",
      "gasUsed": "0x15750",
      "effectiveGasPrice": "0xf424a",
      "from": "0xad9fdad276ab1a430fd03177a07350cd7c61e897",
      "to": "0xfcb43bd05c71c52dbec18814957fd19ab332db4d",
      "contractAddress": null
    },
    {
      "status": "0x1",
      "cumulativeGasUsed": "0xc8c698",
      "logs": [
        {
          "address": "0xfcb43bd05c71c52dbec18814957fd19ab332db4d",
          "topics": [
            "0xddf252ad1be2c89b69c2b068fc378daa952ba7f163c4a11628f55a4df523b3ef",
            "0x0000000000000000000000000000000000000000000000000000000000000000",
            "0x000000000000000000000000ad9fdad276ab1a430fd03177a07350cd7c61e897",
            "0x000000000000000000000000000000000000000000000000000000000000003e"
          ],
          "data": "0x",
          "blockHash": "0x4a1fd80985084db4e234df1e56d6e473566f21d651294d09ae4fe93391eb8ec2",
          "blockNumber": "0x9170c0",
          "blockTimestamp": "0x6904f4c4",
          "transactionHash": "0x76da539ed7b681e52e420c555397e8550cb769c42e173282a6606d988ea587d4",
          "transactionIndex": "0x60",
          "logIndex": "0x9c",
          "removed": false
        }
      ],
      "logsBloom": "0x00000000000000000000000000000000000000000000000000000000000000000000000000000000000000000000000000000000000000000000000000000000000000000000004000000008000000010000004000000000000000000000000000000000020800000000000000000800000000000000000000000010000000000000000000080040000000000004400000000000000000000000000000000000000010000000000000000000000000000000000000000000000000000000000000000002000000000000000000000000000000000000000000000000000020000000000000000000000000000000000000000000000000000000000000000000",
      "type": "0x0",
      "transactionHash": "0x76da539ed7b681e52e420c555397e8550cb769c42e173282a6606d988ea587d4",
      "transactionIndex": "0x60",
      "blockHash": "0x4a1fd80985084db4e234df1e56d6e473566f21d651294d09ae4fe93391eb8ec2",
      "blockNumber": "0x9170c0",
      "gasUsed": "0x15750",
      "effectiveGasPrice": "0xf424a",
      "from": "0xad9fdad276ab1a430fd03177a07350cd7c61e897",
      "to": "0xfcb43bd05c71c52dbec18814957fd19ab332db4d",
      "contractAddress": null
    },
    {
      "status": "0x1",
      "cumulativeGasUsed": "0xca1de8",
      "logs": [
        {
          "address": "0xfcb43bd05c71c52dbec18814957fd19ab332db4d",
          "topics": [
            "0xddf252ad1be2c89b69c2b068fc378daa952ba7f163c4a11628f55a4df523b3ef",
            "0x0000000000000000000000000000000000000000000000000000000000000000",
            "0x000000000000000000000000ad9fdad276ab1a430fd03177a07350cd7c61e897",
            "0x000000000000000000000000000000000000000000000000000000000000003f"
          ],
          "data": "0x",
          "blockHash": "0x4a1fd80985084db4e234df1e56d6e473566f21d651294d09ae4fe93391eb8ec2",
          "blockNumber": "0x9170c0",
          "blockTimestamp": "0x6904f4c4",
          "transactionHash": "0xc1211175847f461b7921bdad670c032d3ae60b3e5e3041a6712679ba4089e707",
          "transactionIndex": "0x61",
          "logIndex": "0x9d",
          "removed": false
        }
      ],
      "logsBloom": "0x00000000000000000000000000000000000000000000000000000000000000000000000000000000000000000000000000000000000000000000000000000080000000000000004000000008000000000000000000000000000000000000000000000008020000000000000000000800000000000000000000000010000000000000000000080040000000000004400000000000000000000000000000000000000010000000000000000000000000000000000000000000000000000000000000000002000000000000000000000000000000000000000000000000000020000000000000000000000000000000000000000000000000000001000000000000",
      "type": "0x0",
      "transactionHash": "0xc1211175847f461b7921bdad670c032d3ae60b3e5e3041a6712679ba4089e707",
      "transactionIndex": "0x61",
      "blockHash": "0x4a1fd80985084db4e234df1e56d6e473566f21d651294d09ae4fe93391eb8ec2",
      "blockNumber": "0x9170c0",
      "gasUsed": "0x15750",
      "effectiveGasPrice": "0xf424a",
      "from": "0xad9fdad276ab1a430fd03177a07350cd7c61e897",
      "to": "0xfcb43bd05c71c52dbec18814957fd19ab332db4d",
      "contractAddress": null
    },
    {
      "status": "0x1",
      "cumulativeGasUsed": "0xcb7538",
      "logs": [
        {
          "address": "0xfcb43bd05c71c52dbec18814957fd19ab332db4d",
          "topics": [
            "0xddf252ad1be2c89b69c2b068fc378daa952ba7f163c4a11628f55a4df523b3ef",
            "0x0000000000000000000000000000000000000000000000000000000000000000",
            "0x000000000000000000000000ad9fdad276ab1a430fd03177a07350cd7c61e897",
            "0x0000000000000000000000000000000000000000000000000000000000000040"
          ],
          "data": "0x",
          "blockHash": "0x4a1fd80985084db4e234df1e56d6e473566f21d651294d09ae4fe93391eb8ec2",
          "blockNumber": "0x9170c0",
          "blockTimestamp": "0x6904f4c4",
          "transactionHash": "0x970c8b21578385fb5f6b936255bf5435eb3cd1c58be028f3d4ba05795d7d1838",
          "transactionIndex": "0x62",
          "logIndex": "0x9e",
          "removed": false
        }
      ],
      "logsBloom": "0x00000000000000000000000000000000000000000000000000000000000000000000000100000000000000020000000000000000000000000000000000000000000000000000004000000008000000000000000000000000000080000000000000000000020000000000000000000800000000000000000000000010000000000000000000080040000000000004400000000000000000000000000000000000000010000000000000000000000000000000000000000000000000000000000000000002000000000000000000000000000000000000000000000000000020000000000000000000000000000000000000000000000000000000000000000000",
      "type": "0x0",
      "transactionHash": "0x970c8b21578385fb5f6b936255bf5435eb3cd1c58be028f3d4ba05795d7d1838",
      "transactionIndex": "0x62",
      "blockHash": "0x4a1fd80985084db4e234df1e56d6e473566f21d651294d09ae4fe93391eb8ec2",
      "blockNumber": "0x9170c0",
      "gasUsed": "0x15750",
      "effectiveGasPrice": "0xf424a",
      "from": "0xad9fdad276ab1a430fd03177a07350cd7c61e897",
      "to": "0xfcb43bd05c71c52dbec18814957fd19ab332db4d",
      "contractAddress": null
    },
    {
      "status": "0x1",
      "cumulativeGasUsed": "0xcccc88",
      "logs": [
        {
          "address": "0xfcb43bd05c71c52dbec18814957fd19ab332db4d",
          "topics": [
            "0xddf252ad1be2c89b69c2b068fc378daa952ba7f163c4a11628f55a4df523b3ef",
            "0x0000000000000000000000000000000000000000000000000000000000000000",
            "0x000000000000000000000000ad9fdad276ab1a430fd03177a07350cd7c61e897",
            "0x0000000000000000000000000000000000000000000000000000000000000041"
          ],
          "data": "0x",
          "blockHash": "0x4a1fd80985084db4e234df1e56d6e473566f21d651294d09ae4fe93391eb8ec2",
          "blockNumber": "0x9170c0",
          "blockTimestamp": "0x6904f4c4",
          "transactionHash": "0x3098ea9e227f5cbc45be7fd60522e12e066121f24baca22d3af431d20f8fe138",
          "transactionIndex": "0x63",
          "logIndex": "0x9f",
          "removed": false
        }
      ],
      "logsBloom": "0x00000000000000000000000000000000000000000000000000000000000000000000000000000000000000000000000000000000000000000000000000000000000001000000004000000008000000000000000000000000000000000000000000000000020000000000000000800800000000000000000000000010004000000000000000080040000000000004400000000000000000000000000000000000000010000000000000000000000000000000000000000000000000000000000000000002000000000000000000000000000000000000000000000000000020000000000000000000000000000000000000000000000000000000000000000000",
      "type": "0x0",
      "transactionHash": "0x3098ea9e227f5cbc45be7fd60522e12e066121f24baca22d3af431d20f8fe138",
      "transactionIndex": "0x63",
      "blockHash": "0x4a1fd80985084db4e234df1e56d6e473566f21d651294d09ae4fe93391eb8ec2",
      "blockNumber": "0x9170c0",
      "gasUsed": "0x15750",
      "effectiveGasPrice": "0xf424a",
      "from": "0xad9fdad276ab1a430fd03177a07350cd7c61e897",
      "to": "0xfcb43bd05c71c52dbec18814957fd19ab332db4d",
      "contractAddress": null
    },
    {
      "status": "0x1",
      "cumulativeGasUsed": "0xce23d8",
      "logs": [
        {
          "address": "0xfcb43bd05c71c52dbec18814957fd19ab332db4d",
          "topics": [
            "0xddf252ad1be2c89b69c2b068fc378daa952ba7f163c4a11628f55a4df523b3ef",
            "0x0000000000000000000000000000000000000000000000000000000000000000",
            "0x000000000000000000000000ad9fdad276ab1a430fd03177a07350cd7c61e897",
            "0x0000000000000000000000000000000000000000000000000000000000000042"
          ],
          "data": "0x",
          "blockHash": "0x4a1fd80985084db4e234df1e56d6e473566f21d651294d09ae4fe93391eb8ec2",
          "blockNumber": "0x9170c0",
          "blockTimestamp": "0x6904f4c4",
          "transactionHash": "0xdf46028cb764224267b228bfc299b683244c3c5bf6259188b1f2ee301fea66d2",
          "transactionIndex": "0x64",
          "logIndex": "0xa0",
          "removed": false
        }
      ],
      "logsBloom": "0x00000000000000000000000000000000000000000000000000000000000000000000000000000000000000000000000000000000000000000000000000000000000000000000004000000008000000000000000000000000000000000000000000000000020000000000000000000800000000080000000000000010000000000000000000080040000000000004400000000000000000000000008000000000000010000000000000000000000000000000000000000000000000000000000000000002000000000000000000000000000000000000000000000000000020000000000080000000000000000000000000000000000000000000000000000000",
      "type": "0x0",
      "transactionHash": "0xdf46028cb764224267b228bfc299b683244c3c5bf6259188b1f2ee301fea66d2",
      "transactionIndex": "0x64",
      "blockHash": "0x4a1fd80985084db4e234df1e56d6e473566f21d651294d09ae4fe93391eb8ec2",
      "blockNumber": "0x9170c0",
      "gasUsed": "0x15750",
      "effectiveGasPrice": "0xf424a",
      "from": "0xad9fdad276ab1a430fd03177a07350cd7c61e897",
      "to": "0xfcb43bd05c71c52dbec18814957fd19ab332db4d",
      "contractAddress": null
    },
    {
      "status": "0x1",
      "cumulativeGasUsed": "0xcf7b28",
      "logs": [
        {
          "address": "0xfcb43bd05c71c52dbec18814957fd19ab332db4d",
          "topics": [
            "0xddf252ad1be2c89b69c2b068fc378daa952ba7f163c4a11628f55a4df523b3ef",
            "0x0000000000000000000000000000000000000000000000000000000000000000",
            "0x000000000000000000000000ad9fdad276ab1a430fd03177a07350cd7c61e897",
            "0x0000000000000000000000000000000000000000000000000000000000000043"
          ],
          "data": "0x",
          "blockHash": "0x4a1fd80985084db4e234df1e56d6e473566f21d651294d09ae4fe93391eb8ec2",
          "blockNumber": "0x9170c0",
          "blockTimestamp": "0x6904f4c4",
          "transactionHash": "0xc925140deacd5ad0db64a590acf04e15f3cfaebaad8930e179aff9226730ceeb",
          "transactionIndex": "0x65",
          "logIndex": "0xa1",
          "removed": false
        }
      ],
      "logsBloom": "0x00000000000000000000000000000000000000000000000000000000000000000000000000004000000000000001000000000000000000000000000000000000000000000000004000000008020000000000000000000000000000000000000000000000020000000000000000000800000000000000000000000010000000000000000000080040000000000004400000000000000000000000000000000000000010000000000000000000000000000000000000000000000000000000000000000002000000000000000000000000000000000000000000000000000020000000000000000000000000000000000000000000000000000000000000000000",
      "type": "0x0",
      "transactionHash": "0xc925140deacd5ad0db64a590acf04e15f3cfaebaad8930e179aff9226730ceeb",
      "transactionIndex": "0x65",
      "blockHash": "0x4a1fd80985084db4e234df1e56d6e473566f21d651294d09ae4fe93391eb8ec2",
      "blockNumber": "0x9170c0",
      "gasUsed": "0x15750",
      "effectiveGasPrice": "0xf424a",
      "from": "0xad9fdad276ab1a430fd03177a07350cd7c61e897",
      "to": "0xfcb43bd05c71c52dbec18814957fd19ab332db4d",
      "contractAddress": null
    },
    {
      "status": "0x1",
      "cumulativeGasUsed": "0xd0d278",
      "logs": [
        {
          "address": "0xfcb43bd05c71c52dbec18814957fd19ab332db4d",
          "topics": [
            "0xddf252ad1be2c89b69c2b068fc378daa952ba7f163c4a11628f55a4df523b3ef",
            "0x0000000000000000000000000000000000000000000000000000000000000000",
            "0x000000000000000000000000ad9fdad276ab1a430fd03177a07350cd7c61e897",
            "0x0000000000000000000000000000000000000000000000000000000000000044"
          ],
          "data": "0x",
          "blockHash": "0x4a1fd80985084db4e234df1e56d6e473566f21d651294d09ae4fe93391eb8ec2",
          "blockNumber": "0x9170c0",
          "blockTimestamp": "0x6904f4c4",
          "transactionHash": "0x729703d528f41c855ab04f2cb0f8002f9a5ce8b2f88525136a3e7a0d47b20afb",
          "transactionIndex": "0x66",
          "logIndex": "0xa2",
          "removed": false
        }
      ],
      "logsBloom": "0x00000000000000000000000000000000000000000000000000000000000000000000000000000000000000000000000000000000000000000000000000000000000000000000004000000008000000000000000000000000000000000000000000000000020000000000000000000800000000000000000000000010000000000000000000480040000000000004400000000000000000000000000400000000000010000000000000000000000000000000000000000000000000000000000000000002000000000000000000000000000000000200000000000000000020000000000000000000000000000000000000000000000000000000000000000000",
      "type": "0x0",
      "transactionHash": "0x729703d528f41c855ab04f2cb0f8002f9a5ce8b2f88525136a3e7a0d47b20afb",
      "transactionIndex": "0x66",
      "blockHash": "0x4a1fd80985084db4e234df1e56d6e473566f21d651294d09ae4fe93391eb8ec2",
      "blockNumber": "0x9170c0",
      "gasUsed": "0x15750",
      "effectiveGasPrice": "0xf424a",
      "from": "0xad9fdad276ab1a430fd03177a07350cd7c61e897",
      "to": "0xfcb43bd05c71c52dbec18814957fd19ab332db4d",
      "contractAddress": null
    },
    {
      "status": "0x1",
      "cumulativeGasUsed": "0xd229c8",
      "logs": [
        {
          "address": "0xfcb43bd05c71c52dbec18814957fd19ab332db4d",
          "topics": [
            "0xddf252ad1be2c89b69c2b068fc378daa952ba7f163c4a11628f55a4df523b3ef",
            "0x0000000000000000000000000000000000000000000000000000000000000000",
            "0x000000000000000000000000ad9fdad276ab1a430fd03177a07350cd7c61e897",
            "0x0000000000000000000000000000000000000000000000000000000000000045"
          ],
          "data": "0x",
          "blockHash": "0x4a1fd80985084db4e234df1e56d6e473566f21d651294d09ae4fe93391eb8ec2",
          "blockNumber": "0x9170c0",
          "blockTimestamp": "0x6904f4c4",
          "transactionHash": "0x3ecf2328e96f7c714b6ec1e0efae6ffeb279ed9ba90a43ca9d6fe0df6e9386cf",
          "transactionIndex": "0x67",
          "logIndex": "0xa3",
          "removed": false
        }
      ],
      "logsBloom": "0x00000000000010000000000000000000000000000000000000000000000000000000000000000000000000000000000000000000000000000000000000000000000000000000004000000008000000000000000000000000000000000000000000000000020000000000000000000800000000000000000000000010000000000000000000080040000000000004400000000000000000000000000000000000000010000000000000000000000000000000000000000000000000000000000000000002000000000000000000000000004000000000000000000000000020000000000000000000000000000000000000000000000000000000000000000400",
      "type": "0x0",
      "transactionHash": "0x3ecf2328e96f7c714b6ec1e0efae6ffeb279ed9ba90a43ca9d6fe0df6e9386cf",
      "transactionIndex": "0x67",
      "blockHash": "0x4a1fd80985084db4e234df1e56d6e473566f21d651294d09ae4fe93391eb8ec2",
      "blockNumber": "0x9170c0",
      "gasUsed": "0x15750",
      "effectiveGasPrice": "0xf424a",
      "from": "0xad9fdad276ab1a430fd03177a07350cd7c61e897",
      "to": "0xfcb43bd05c71c52dbec18814957fd19ab332db4d",
      "contractAddress": null
    },
    {
      "status": "0x1",
      "cumulativeGasUsed": "0xd38118",
      "logs": [
        {
          "address": "0xfcb43bd05c71c52dbec18814957fd19ab332db4d",
          "topics": [
            "0xddf252ad1be2c89b69c2b068fc378daa952ba7f163c4a11628f55a4df523b3ef",
            "0x0000000000000000000000000000000000000000000000000000000000000000",
            "0x000000000000000000000000ad9fdad276ab1a430fd03177a07350cd7c61e897",
            "0x0000000000000000000000000000000000000000000000000000000000000046"
          ],
          "data": "0x",
          "blockHash": "0x4a1fd80985084db4e234df1e56d6e473566f21d651294d09ae4fe93391eb8ec2",
          "blockNumber": "0x9170c0",
          "blockTimestamp": "0x6904f4c4",
          "transactionHash": "0x36efcc5b21aec04b844d9e7d6d4b4766817d407a8a4b144ac0b1124e59f51ee3",
          "transactionIndex": "0x68",
          "logIndex": "0xa4",
          "removed": false
        }
      ],
      "logsBloom": "0x00200000000000000000000000000000000000000000000000000000000000000000000000000000000000000000000000000000000000000000000000000000000000000000004000000008000000000000000000000000000000000000000000000000020000000000000000000800000000000000000000000010000000000000000000080040000000000004400000000000000000000000000000000000000010000000000000000000000000400000000000000000000000000000000040000002000000000000000000000000000000000000000000000000000020000000000000000000000000000000000000000000000000000000000000000000",
      "type": "0x0",
      "transactionHash": "0x36efcc5b21aec04b844d9e7d6d4b4766817d407a8a4b144ac0b1124e59f51ee3",
      "transactionIndex": "0x68",
      "blockHash": "0x4a1fd80985084db4e234df1e56d6e473566f21d651294d09ae4fe93391eb8ec2",
      "blockNumber": "0x9170c0",
      "gasUsed": "0x15750",
      "effectiveGasPrice": "0xf424a",
      "from": "0xad9fdad276ab1a430fd03177a07350cd7c61e897",
      "to": "0xfcb43bd05c71c52dbec18814957fd19ab332db4d",
      "contractAddress": null
    },
    {
      "status": "0x1",
      "cumulativeGasUsed": "0xd4d868",
      "logs": [
        {
          "address": "0xfcb43bd05c71c52dbec18814957fd19ab332db4d",
          "topics": [
            "0xddf252ad1be2c89b69c2b068fc378daa952ba7f163c4a11628f55a4df523b3ef",
            "0x0000000000000000000000000000000000000000000000000000000000000000",
            "0x000000000000000000000000ad9fdad276ab1a430fd03177a07350cd7c61e897",
            "0x0000000000000000000000000000000000000000000000000000000000000047"
          ],
          "data": "0x",
          "blockHash": "0x4a1fd80985084db4e234df1e56d6e473566f21d651294d09ae4fe93391eb8ec2",
          "blockNumber": "0x9170c0",
          "blockTimestamp": "0x6904f4c4",
          "transactionHash": "0x328d77503308dea2818033d9b128f3abf5eb92c02b9e8c48a6ec913de6dab57b",
          "transactionIndex": "0x69",
          "logIndex": "0xa5",
          "removed": false
        }
      ],
      "logsBloom": "0x00000000000000000000000000000000000000000000000000000000000000000000000000000000000000000000000000000000000000000000001000000000000000000000004000000008000000000000000000000000000000000000000000000000020000000000000000000800000000000000000010000010000000000000000000080040000000000004400000000000000000000000000000000000000010000000000000000000000000000000000000000000000000000000000000000002000000000000000000000100000000000000000000000000000020000000000000000000000000000000000000000000000000000000000000000000",
      "type": "0x0",
      "transactionHash": "0x328d77503308dea2818033d9b128f3abf5eb92c02b9e8c48a6ec913de6dab57b",
      "transactionIndex": "0x69",
      "blockHash": "0x4a1fd80985084db4e234df1e56d6e473566f21d651294d09ae4fe93391eb8ec2",
      "blockNumber": "0x9170c0",
      "gasUsed": "0x15750",
      "effectiveGasPrice": "0xf424a",
      "from": "0xad9fdad276ab1a430fd03177a07350cd7c61e897",
      "to": "0xfcb43bd05c71c52dbec18814957fd19ab332db4d",
      "contractAddress": null
    },
    {
      "status": "0x1",
      "cumulativeGasUsed": "0xd62fb8",
      "logs": [
        {
          "address": "0xfcb43bd05c71c52dbec18814957fd19ab332db4d",
          "topics": [
            "0xddf252ad1be2c89b69c2b068fc378daa952ba7f163c4a11628f55a4df523b3ef",
            "0x0000000000000000000000000000000000000000000000000000000000000000",
            "0x000000000000000000000000ad9fdad276ab1a430fd03177a07350cd7c61e897",
            "0x0000000000000000000000000000000000000000000000000000000000000048"
          ],
          "data": "0x",
          "blockHash": "0x4a1fd80985084db4e234df1e56d6e473566f21d651294d09ae4fe93391eb8ec2",
          "blockNumber": "0x9170c0",
          "blockTimestamp": "0x6904f4c4",
          "transactionHash": "0x2de83c5937df62bd9327bb14de46a2b488615a97af2882775f7242e20edeff23",
          "transactionIndex": "0x6a",
          "logIndex": "0xa6",
          "removed": false
        }
      ],
      "logsBloom": "0x00000000000000000000000000000000000080000000000000000000000000000000000000000000000000000000000000000000000000000000000000000000000000000000004000000008000000000000000000000000000000000000001000000000020000000000000000000800000000000000000000000010000000000000000000080040000000000004400000000000000000000000000000000000000010000000000000000000000000000000000000000000000000000000000000000002000000000000000000000000000000000040000000000000000020000000000000000000000000000000000000000000000000000000000000000000",
      "type": "0x0",
      "transactionHash": "0x2de83c5937df62bd9327bb14de46a2b488615a97af2882775f7242e20edeff23",
      "transactionIndex": "0x6a",
      "blockHash": "0x4a1fd80985084db4e234df1e56d6e473566f21d651294d09ae4fe93391eb8ec2",
      "blockNumber": "0x9170c0",
      "gasUsed": "0x15750",
      "effectiveGasPrice": "0xf424a",
      "from": "0xad9fdad276ab1a430fd03177a07350cd7c61e897",
      "to": "0xfcb43bd05c71c52dbec18814957fd19ab332db4d",
      "contractAddress": null
    },
    {
      "status": "0x1",
      "cumulativeGasUsed": "0xd78708",
      "logs": [
        {
          "address": "0xfcb43bd05c71c52dbec18814957fd19ab332db4d",
          "topics": [
            "0xddf252ad1be2c89b69c2b068fc378daa952ba7f163c4a11628f55a4df523b3ef",
            "0x0000000000000000000000000000000000000000000000000000000000000000",
            "0x000000000000000000000000ad9fdad276ab1a430fd03177a07350cd7c61e897",
            "0x0000000000000000000000000000000000000000000000000000000000000049"
          ],
          "data": "0x",
          "blockHash": "0x4a1fd80985084db4e234df1e56d6e473566f21d651294d09ae4fe93391eb8ec2",
          "blockNumber": "0x9170c0",
          "blockTimestamp": "0x6904f4c4",
          "transactionHash": "0xcd243cbeed5e45862eb24c03636fa8d4d834801fb2309e27873e05466adea344",
          "transactionIndex": "0x6b",
          "logIndex": "0xa7",
          "removed": false
        }
      ],
      "logsBloom": "0x00000010000000000000000000000000000000000000000000000000000000000000000000000000000000000000000000000000000000000000000000000000000000000000004000000008000000000000000000000000000000000000000000000200020000000000000000000800000000000000000000000010000000000000000000080040000000000004400000000000000000000000000000000000002010000000000000000000000000000000000000000000000000000000000000000002000000000000000000000000000000000000000000000000000020000000000000000000000000000000000000000000000000000000000000000000",
      "type": "0x0",
      "transactionHash": "0xcd243cbeed5e45862eb24c03636fa8d4d834801fb2309e27873e05466adea344",
      "transactionIndex": "0x6b",
      "blockHash": "0x4a1fd80985084db4e234df1e56d6e473566f21d651294d09ae4fe93391eb8ec2",
      "blockNumber": "0x9170c0",
      "gasUsed": "0x15750",
      "effectiveGasPrice": "0xf424a",
      "from": "0xad9fdad276ab1a430fd03177a07350cd7c61e897",
      "to": "0xfcb43bd05c71c52dbec18814957fd19ab332db4d",
      "contractAddress": null
    },
    {
      "status": "0x1",
      "cumulativeGasUsed": "0x285fad",
      "logs": [
        {
          "address": "0xfcb43bd05c71c52dbec18814957fd19ab332db4d",
          "topics": [
            "0xddf252ad1be2c89b69c2b068fc378daa952ba7f163c4a11628f55a4df523b3ef",
            "0x0000000000000000000000000000000000000000000000000000000000000000",
            "0x000000000000000000000000ad9fdad276ab1a430fd03177a07350cd7c61e897",
            "0x000000000000000000000000000000000000000000000000000000000000004a"
          ],
          "data": "0x",
          "blockHash": "0xa943de49b121956156cd649d00fa3f20839003ce3aa6700b759db66147c61634",
          "blockNumber": "0x9170c1",
          "blockTimestamp": "0x6904f4d0",
          "transactionHash": "0x9476b240ea4e82f9398998c9ed499f21ef8a8b569719622accda5c4a9cef219c",
          "transactionIndex": "0x1b",
          "logIndex": "0x1c",
          "removed": false
        }
      ],
      "logsBloom": "0x00000000000000000000000000000000000000000000000000000000000000000000000000000000000000000000000000000000000000000000000000000000000000000000004000000008000000000000000000000000000000000000000000000000020000200000000000000800000000000000000000000010000000000000000000080040000000000004400000000000000000000000000000000000000010000000000000000000000000000000000000000000000000000400000000000002000000000000000000000000000000000000000000000000000020001000000000000000000000000000000000000000000000000000000000000000",
      "type": "0x0",
      "transactionHash": "0x9476b240ea4e82f9398998c9ed499f21ef8a8b569719622accda5c4a9cef219c",
      "transactionIndex": "0x1b",
      "blockHash": "0xa943de49b121956156cd649d00fa3f20839003ce3aa6700b759db66147c61634",
      "blockNumber": "0x9170c1",
      "gasUsed": "0x15750",
      "effectiveGasPrice": "0xf424a",
      "from": "0xad9fdad276ab1a430fd03177a07350cd7c61e897",
      "to": "0xfcb43bd05c71c52dbec18814957fd19ab332db4d",
      "contractAddress": null
    },
    {
      "status": "0x1",
      "cumulativeGasUsed": "0x29b6fd",
      "logs": [
        {
          "address": "0xfcb43bd05c71c52dbec18814957fd19ab332db4d",
          "topics": [
            "0xddf252ad1be2c89b69c2b068fc378daa952ba7f163c4a11628f55a4df523b3ef",
            "0x0000000000000000000000000000000000000000000000000000000000000000",
            "0x000000000000000000000000ad9fdad276ab1a430fd03177a07350cd7c61e897",
            "0x000000000000000000000000000000000000000000000000000000000000004b"
          ],
          "data": "0x",
          "blockHash": "0xa943de49b121956156cd649d00fa3f20839003ce3aa6700b759db66147c61634",
          "blockNumber": "0x9170c1",
          "blockTimestamp": "0x6904f4d0",
          "transactionHash": "0x2a4de385e624513c664e46df7c391e7db6e2ee1557357106e73086077dce3a0a",
          "transactionIndex": "0x1c",
          "logIndex": "0x1d",
          "removed": false
        }
      ],
      "logsBloom": "0x00000000000000000001000000000000000000000000000000000000002000000000000000000000000000000000000000000000000000000000000000000000000000000000004000000008000000000000000000000000000000000000000000000000020000000000000000000800000000000000000000000010000000000000000000080040000000000004400000000000000000000000000000000000000010000000000000000000000400000000000000000000000000000000000000000002000000000000000000000000000000000000000000000000000020000000000000000000000000000000000000000000000000000000000000000000",
      "type": "0x0",
      "transactionHash": "0x2a4de385e624513c664e46df7c391e7db6e2ee1557357106e73086077dce3a0a",
      "transactionIndex": "0x1c",
      "blockHash": "0xa943de49b121956156cd649d00fa3f20839003ce3aa6700b759db66147c61634",
      "blockNumber": "0x9170c1",
      "gasUsed": "0x15750",
      "effectiveGasPrice": "0xf424a",
      "from": "0xad9fdad276ab1a430fd03177a07350cd7c61e897",
      "to": "0xfcb43bd05c71c52dbec18814957fd19ab332db4d",
      "contractAddress": null
    },
    {
      "status": "0x1",
      "cumulativeGasUsed": "0x2b0e4d",
      "logs": [
        {
          "address": "0xfcb43bd05c71c52dbec18814957fd19ab332db4d",
          "topics": [
            "0xddf252ad1be2c89b69c2b068fc378daa952ba7f163c4a11628f55a4df523b3ef",
            "0x0000000000000000000000000000000000000000000000000000000000000000",
            "0x000000000000000000000000ad9fdad276ab1a430fd03177a07350cd7c61e897",
            "0x000000000000000000000000000000000000000000000000000000000000004c"
          ],
          "data": "0x",
          "blockHash": "0xa943de49b121956156cd649d00fa3f20839003ce3aa6700b759db66147c61634",
          "blockNumber": "0x9170c1",
          "blockTimestamp": "0x6904f4d0",
          "transactionHash": "0x245c3766d73977b3b937773b4ebe959e1ae5f6155d9f8e8c7a2e8dbecc703d25",
          "transactionIndex": "0x1d",
          "logIndex": "0x1e",
          "removed": false
        }
      ],
      "logsBloom": "0x00000000000000000000000000000000000000000000000000000000000000000000000000000000000000000000000000000000000000000000000000000000000000000000004000000008000000000000000000008000800000000000000000000000020000000000000000000800000000000000000000000010000000000000000000080040000000000004400000000000000000000000000000000000000010000000000000000000000000200000000000000000000000000000000000000002000000000000000000000000000000000000000000000000000020000000000000000000000000000000000000000000000000000000000000000000",
      "type": "0x0",
      "transactionHash": "0x245c3766d73977b3b937773b4ebe959e1ae5f6155d9f8e8c7a2e8dbecc703d25",
      "transactionIndex": "0x1d",
      "blockHash": "0xa943de49b121956156cd649d00fa3f20839003ce3aa6700b759db66147c61634",
      "blockNumber": "0x9170c1",
      "gasUsed": "0x15750",
      "effectiveGasPrice": "0xf424a",
      "from": "0xad9fdad276ab1a430fd03177a07350cd7c61e897",
      "to": "0xfcb43bd05c71c52dbec18814957fd19ab332db4d",
      "contractAddress": null
    },
    {
      "status": "0x1",
      "cumulativeGasUsed": "0x2c659d",
      "logs": [
        {
          "address": "0xfcb43bd05c71c52dbec18814957fd19ab332db4d",
          "topics": [
            "0xddf252ad1be2c89b69c2b068fc378daa952ba7f163c4a11628f55a4df523b3ef",
            "0x0000000000000000000000000000000000000000000000000000000000000000",
            "0x000000000000000000000000ad9fdad276ab1a430fd03177a07350cd7c61e897",
            "0x000000000000000000000000000000000000000000000000000000000000004d"
          ],
          "data": "0x",
          "blockHash": "0xa943de49b121956156cd649d00fa3f20839003ce3aa6700b759db66147c61634",
          "blockNumber": "0x9170c1",
          "blockTimestamp": "0x6904f4d0",
          "transactionHash": "0x03e62d1e47658a44bd3f135757cc9e4953d7e0bdb40cc751b84e70d08a18548f",
          "transactionIndex": "0x1e",
          "logIndex": "0x1f",
          "removed": false
        }
      ],
      "logsBloom": "0x00000000000000000000000000000000000000000000000000000000000000000000000000000000000000000000000000000000000000000000000010000000000000000000004000000008000000000000000000000000000000000000000000000000020000000000000000000800000000000000000000000010000000000000000000080040000000000004400000000000000c00000000000000000000000010000000000000000000000000000000000000000000000000000000000000000002000000000000000000000000000000000000000000000000000020000000000000000000000000000000000000000000000000000000000000000000",
      "type": "0x0",
      "transactionHash": "0x03e62d1e47658a44bd3f135757cc9e4953d7e0bdb40cc751b84e70d08a18548f",
      "transactionIndex": "0x1e",
      "blockHash": "0xa943de49b121956156cd649d00fa3f20839003ce3aa6700b759db66147c61634",
      "blockNumber": "0x9170c1",
      "gasUsed": "0x15750",
      "effectiveGasPrice": "0xf424a",
      "from": "0xad9fdad276ab1a430fd03177a07350cd7c61e897",
      "to": "0xfcb43bd05c71c52dbec18814957fd19ab332db4d",
      "contractAddress": null
    },
    {
      "status": "0x1",
      "cumulativeGasUsed": "0x2dbced",
      "logs": [
        {
          "address": "0xfcb43bd05c71c52dbec18814957fd19ab332db4d",
          "topics": [
            "0xddf252ad1be2c89b69c2b068fc378daa952ba7f163c4a11628f55a4df523b3ef",
            "0x0000000000000000000000000000000000000000000000000000000000000000",
            "0x000000000000000000000000ad9fdad276ab1a430fd03177a07350cd7c61e897",
            "0x000000000000000000000000000000000000000000000000000000000000004e"
          ],
          "data": "0x",
          "blockHash": "0xa943de49b121956156cd649d00fa3f20839003ce3aa6700b759db66147c61634",
          "blockNumber": "0x9170c1",
          "blockTimestamp": "0x6904f4d0",
          "transactionHash": "0xffc0c653c902048e507a4fd19ed721dcce75a42eb5864400e5d392ce29233d2e",
          "transactionIndex": "0x1f",
          "logIndex": "0x20",
          "removed": false
        }
      ],
      "logsBloom": "0x00000000000000000000000000000000000000000000000000000000000000000000000000000000000000000000000000000000000000002000000000000000000000000000004000000008000000000000000000000000000000000000000000000000020000000000000000000810000000000000000000000010000000000000000000080040000000000004400000000020000000000000000000000000000010000000000000000000000000000000000000000000000000000000000000000002000000000000000000000000000000000000000000000000000020000000000000000000000000000000000000000000000000000000000000000000",
      "type": "0x0",
      "transactionHash": "0xffc0c653c902048e507a4fd19ed721dcce75a42eb5864400e5d392ce29233d2e",
      "transactionIndex": "0x1f",
      "blockHash": "0xa943de49b121956156cd649d00fa3f20839003ce3aa6700b759db66147c61634",
      "blockNumber": "0x9170c1",
      "gasUsed": "0x15750",
      "effectiveGasPrice": "0xf424a",
      "from": "0xad9fdad276ab1a430fd03177a07350cd7c61e897",
      "to": "0xfcb43bd05c71c52dbec18814957fd19ab332db4d",
      "contractAddress": null
    },
    {
      "status": "0x1",
      "cumulativeGasUsed": "0x2f143d",
      "logs": [
        {
          "address": "0xfcb43bd05c71c52dbec18814957fd19ab332db4d",
          "topics": [
            "0xddf252ad1be2c89b69c2b068fc378daa952ba7f163c4a11628f55a4df523b3ef",
            "0x0000000000000000000000000000000000000000000000000000000000000000",
            "0x000000000000000000000000ad9fdad276ab1a430fd03177a07350cd7c61e897",
            "0x000000000000000000000000000000000000000000000000000000000000004f"
          ],
          "data": "0x",
          "blockHash": "0xa943de49b121956156cd649d00fa3f20839003ce3aa6700b759db66147c61634",
          "blockNumber": "0x9170c1",
          "blockTimestamp": "0x6904f4d0",
          "transactionHash": "0xc56b2e28970fd1144959ec8d69deffa8616ec182afd5adb76cdbad6b33944368",
          "transactionIndex": "0x20",
          "logIndex": "0x21",
          "removed": false
        }
      ],
      "logsBloom": "0x00000000000000000000000000000000000000000000000000000000000000000000000000000000000000000000000000000000000000000000000000000000000000000000004000000008000000000000000000000000000000000000000000000000020000000000000080000800000000000000000000000010000000000000000000080040000000000004400000000000000000000000000000000000000011000000000000000000000000000000000000000000000000000000000000000002000000000000000000000000000400000000000000000000000020000000000000000000000000000000000000000000000000000000000000000000",
      "type": "0x0",
      "transactionHash": "0xc56b2e28970fd1144959ec8d69deffa8616ec182afd5adb76cdbad6b33944368",
      "transactionIndex": "0x20",
      "blockHash": "0xa943de49b121956156cd649d00fa3f20839003ce3aa6700b759db66147c61634",
      "blockNumber": "0x9170c1",
      "gasUsed": "0x15750",
      "effectiveGasPrice": "0xf424a",
      "from": "0xad9fdad276ab1a430fd03177a07350cd7c61e897",
      "to": "0xfcb43bd05c71c52dbec18814957fd19ab332db4d",
      "contractAddress": null
    },
    {
      "status": "0x1",
      "cumulativeGasUsed": "0x306b8d",
      "logs": [
        {
          "address": "0xfcb43bd05c71c52dbec18814957fd19ab332db4d",
          "topics": [
            "0xddf252ad1be2c89b69c2b068fc378daa952ba7f163c4a11628f55a4df523b3ef",
            "0x0000000000000000000000000000000000000000000000000000000000000000",
            "0x000000000000000000000000ad9fdad276ab1a430fd03177a07350cd7c61e897",
            "0x0000000000000000000000000000000000000000000000000000000000000050"
          ],
          "data": "0x",
          "blockHash": "0xa943de49b121956156cd649d00fa3f20839003ce3aa6700b759db66147c61634",
          "blockNumber": "0x9170c1",
          "blockTimestamp": "0x6904f4d0",
          "transactionHash": "0xf1dc61bfd8880ccd958f60d9a35c83a37e7f1e24dea629348e3cd78a87c81020",
          "transactionIndex": "0x21",
          "logIndex": "0x22",
          "removed": false
        }
      ],
      "logsBloom": "0x00000000000000000000000000000000000000000000000000000000000000000000000000000000000000000020000000000000000000000000000000000000000000000000004000000008000000000000000000000000000002000000000000000000020000000000000000000800000000000000000000000010000000000000000000080040000000000004400000000000000000000000000000000000000010000000000000000000000000000000000000000000000000000000000000000002000000000000000000000000000000000000000000000020000020000000000000000000000000000000000000000000000000000000000000000000",
      "type": "0x0",
      "transactionHash": "0xf1dc61bfd8880ccd958f60d9a35c83a37e7f1e24dea629348e3cd78a87c81020",
      "transactionIndex": "0x21",
      "blockHash": "0xa943de49b121956156cd649d00fa3f20839003ce3aa6700b759db66147c61634",
      "blockNumber": "0x9170c1",
      "gasUsed": "0x15750",
      "effectiveGasPrice": "0xf424a",
      "from": "0xad9fdad276ab1a430fd03177a07350cd7c61e897",
      "to": "0xfcb43bd05c71c52dbec18814957fd19ab332db4d",
      "contractAddress": null
    },
    {
      "status": "0x1",
      "cumulativeGasUsed": "0x31c2dd",
      "logs": [
        {
          "address": "0xfcb43bd05c71c52dbec18814957fd19ab332db4d",
          "topics": [
            "0xddf252ad1be2c89b69c2b068fc378daa952ba7f163c4a11628f55a4df523b3ef",
            "0x0000000000000000000000000000000000000000000000000000000000000000",
            "0x000000000000000000000000ad9fdad276ab1a430fd03177a07350cd7c61e897",
            "0x0000000000000000000000000000000000000000000000000000000000000051"
          ],
          "data": "0x",
          "blockHash": "0xa943de49b121956156cd649d00fa3f20839003ce3aa6700b759db66147c61634",
          "blockNumber": "0x9170c1",
          "blockTimestamp": "0x6904f4d0",
          "transactionHash": "0x821001cffe4f3a6bc5b6f7cfa23d50e03d760c9379e9d1393c2c7ac6ee4bb663",
          "transactionIndex": "0x22",
          "logIndex": "0x23",
          "removed": false
        }
      ],
      "logsBloom": "0x00000000000000000000000000000000000000000000000000000000000000000000000000000000000000000000000000000000000000000000000000000000000000000000004000080008000000000000000000000000000000000000000000000000020000000000000000000800000000000000000000000010000000000000000000080040000000000004400000000000000040000000000000000000000010000000000000000000000000000000000000000000000000000000000000000002000000000000000000000000000000000000040000000000000020000000000000000000000000000000000000000000000000000000000000000000",
      "type": "0x0",
      "transactionHash": "0x821001cffe4f3a6bc5b6f7cfa23d50e03d760c9379e9d1393c2c7ac6ee4bb663",
      "transactionIndex": "0x22",
      "blockHash": "0xa943de49b121956156cd649d00fa3f20839003ce3aa6700b759db66147c61634",
      "blockNumber": "0x9170c1",
      "gasUsed": "0x15750",
      "effectiveGasPrice": "0xf424a",
      "from": "0xad9fdad276ab1a430fd03177a07350cd7c61e897",
      "to": "0xfcb43bd05c71c52dbec18814957fd19ab332db4d",
      "contractAddress": null
    },
    {
      "status": "0x1",
      "cumulativeGasUsed": "0x331a2d",
      "logs": [
        {
          "address": "0xfcb43bd05c71c52dbec18814957fd19ab332db4d",
          "topics": [
            "0xddf252ad1be2c89b69c2b068fc378daa952ba7f163c4a11628f55a4df523b3ef",
            "0x0000000000000000000000000000000000000000000000000000000000000000",
            "0x000000000000000000000000ad9fdad276ab1a430fd03177a07350cd7c61e897",
            "0x0000000000000000000000000000000000000000000000000000000000000052"
          ],
          "data": "0x",
          "blockHash": "0xa943de49b121956156cd649d00fa3f20839003ce3aa6700b759db66147c61634",
          "blockNumber": "0x9170c1",
          "blockTimestamp": "0x6904f4d0",
          "transactionHash": "0x8985ab4a8f30feebb0468c45514b1aebb28d1e302af5948c17e5ce0efcef0c02",
          "transactionIndex": "0x23",
          "logIndex": "0x24",
          "removed": false
        }
      ],
      "logsBloom": "0x00000000000000000000000000000000000000000000000000000000000000002000000000000000000000000000000000000000000000000000000000000000000000000000004000000008000000000000000000000000000000000000000000000000020000000000000000000800000000000000000000000010000000000000000000080040000000000004400000000000000000000000000000000000000010000000000000000000000000000000000040000000000000000000000000000002000000000000000000000000000000000000000000000000001020000000000000000000000000000000000000000000000000000000000000000000",
      "type": "0x0",
      "transactionHash": "0x8985ab4a8f30feebb0468c45514b1aebb28d1e302af5948c17e5ce0efcef0c02",
      "transactionIndex": "0x23",
      "blockHash": "0xa943de49b121956156cd649d00fa3f20839003ce3aa6700b759db66147c61634",
      "blockNumber": "0x9170c1",
      "gasUsed": "0x15750",
      "effectiveGasPrice": "0xf424a",
      "from": "0xad9fdad276ab1a430fd03177a07350cd7c61e897",
      "to": "0xfcb43bd05c71c52dbec18814957fd19ab332db4d",
      "contractAddress": null
    },
    {
      "status": "0x1",
      "cumulativeGasUsed": "0x34717d",
      "logs": [
        {
          "address": "0xfcb43bd05c71c52dbec18814957fd19ab332db4d",
          "topics": [
            "0xddf252ad1be2c89b69c2b068fc378daa952ba7f163c4a11628f55a4df523b3ef",
            "0x0000000000000000000000000000000000000000000000000000000000000000",
            "0x000000000000000000000000ad9fdad276ab1a430fd03177a07350cd7c61e897",
            "0x0000000000000000000000000000000000000000000000000000000000000053"
          ],
          "data": "0x",
          "blockHash": "0xa943de49b121956156cd649d00fa3f20839003ce3aa6700b759db66147c61634",
          "blockNumber": "0x9170c1",
          "blockTimestamp": "0x6904f4d0",
          "transactionHash": "0x4bc5ad8901bfa6c253ba0a57cec7abf25b6f31e743b4bfa6cb9e1ded9a39614d",
          "transactionIndex": "0x24",
          "logIndex": "0x25",
          "removed": false
        }
      ],
      "logsBloom": "0x00000000000000000008000000000000000000000000000000000000000000000000000000000000000000000000000000000000000000000000000000000000000000000000004000000008000000000000000000000000000000000000000000000000020000000000000000000808000000000000000000000010000000000000000000080040000000000004400000000000000000000000000000000000000010000000000000000000000000000000000000000000000000000000000000000002000000000000000000000000000000000000000000000000000020000000000000000000000000000000000000000000000000000000040000000000",
      "type": "0x0",
      "transactionHash": "0x4bc5ad8901bfa6c253ba0a57cec7abf25b6f31e743b4bfa6cb9e1ded9a39614d",
      "transactionIndex": "0x24",
      "blockHash": "0xa943de49b121956156cd649d00fa3f20839003ce3aa6700b759db66147c61634",
      "blockNumber": "0x9170c1",
      "gasUsed": "0x15750",
      "effectiveGasPrice": "0xf424a",
      "from": "0xad9fdad276ab1a430fd03177a07350cd7c61e897",
      "to": "0xfcb43bd05c71c52dbec18814957fd19ab332db4d",
      "contractAddress": null
    },
    {
      "status": "0x1",
      "cumulativeGasUsed": "0x35c8cd",
      "logs": [
        {
          "address": "0xfcb43bd05c71c52dbec18814957fd19ab332db4d",
          "topics": [
            "0xddf252ad1be2c89b69c2b068fc378daa952ba7f163c4a11628f55a4df523b3ef",
            "0x0000000000000000000000000000000000000000000000000000000000000000",
            "0x000000000000000000000000ad9fdad276ab1a430fd03177a07350cd7c61e897",
            "0x0000000000000000000000000000000000000000000000000000000000000054"
          ],
          "data": "0x",
          "blockHash": "0xa943de49b121956156cd649d00fa3f20839003ce3aa6700b759db66147c61634",
          "blockNumber": "0x9170c1",
          "blockTimestamp": "0x6904f4d0",
          "transactionHash": "0x9e35c209f68365713cdedfe09536e87d9d74657751f253e0a264787e4ba5e12b",
          "transactionIndex": "0x25",
          "logIndex": "0x26",
          "removed": false
        }
      ],
      "logsBloom": "0x00000000000000000000000000000000000000000002000000000000000000000000000000000000000000000000000000000000000000000000000000000000000000000000004000000008000000000000000000000000000000000000000000000000020000000000000000000800000000000000000000000010000000000000000000080040000000000004400000000000000000000000000000000000000010000800000000000000000000000000000000000000000000000000000000000002000000000000000000000000000000000000000000000000000020000000000000400000000000000000000000000000000000000000000000000000",
      "type": "0x0",
      "transactionHash": "0x9e35c209f68365713cdedfe09536e87d9d74657751f253e0a264787e4ba5e12b",
      "transactionIndex": "0x25",
      "blockHash": "0xa943de49b121956156cd649d00fa3f20839003ce3aa6700b759db66147c61634",
      "blockNumber": "0x9170c1",
      "gasUsed": "0x15750",
      "effectiveGasPrice": "0xf424a",
      "from": "0xad9fdad276ab1a430fd03177a07350cd7c61e897",
      "to": "0xfcb43bd05c71c52dbec18814957fd19ab332db4d",
      "contractAddress": null
    },
    {
      "status": "0x1",
      "cumulativeGasUsed": "0x37201d",
      "logs": [
        {
          "address": "0xfcb43bd05c71c52dbec18814957fd19ab332db4d",
          "topics": [
            "0xddf252ad1be2c89b69c2b068fc378daa952ba7f163c4a11628f55a4df523b3ef",
            "0x0000000000000000000000000000000000000000000000000000000000000000",
            "0x000000000000000000000000ad9fdad276ab1a430fd03177a07350cd7c61e897",
            "0x0000000000000000000000000000000000000000000000000000000000000055"
          ],
          "data": "0x",
          "blockHash": "0xa943de49b121956156cd649d00fa3f20839003ce3aa6700b759db66147c61634",
          "blockNumber": "0x9170c1",
          "blockTimestamp": "0x6904f4d0",
          "transactionHash": "0xef633de83fb97021fb60ee9319f4ed5b202a5bdfebd38a25a422cbb1f856c519",
          "transactionIndex": "0x26",
          "logIndex": "0x27",
          "removed": false
        }
      ],
      "logsBloom": "0x00000000000000000000000000000000000000000000000000000000000000000000000000000000000000000000000000000000000000000000000000000000000000000000004000000008000000000000000000000000000000000000000000000000020000000000000000000800000000000000000000000010000000000000000000080040000000000004400000000000000000000000000000000000000010000000000000008000000000000000000000000000000000000004000000000002000000004000000000000000000000000000000000000000000020000000000000000000000000000000000000000000000000000000000000000000",
      "type": "0x0",
      "transactionHash": "0xef633de83fb97021fb60ee9319f4ed5b202a5bdfebd38a25a422cbb1f856c519",
      "transactionIndex": "0x26",
      "blockHash": "0xa943de49b121956156cd649d00fa3f20839003ce3aa6700b759db66147c61634",
      "blockNumber": "0x9170c1",
      "gasUsed": "0x15750",
      "effectiveGasPrice": "0xf424a",
      "from": "0xad9fdad276ab1a430fd03177a07350cd7c61e897",
      "to": "0xfcb43bd05c71c52dbec18814957fd19ab332db4d",
      "contractAddress": null
    },
    {
      "status": "0x1",
      "cumulativeGasUsed": "0x38776d",
      "logs": [
        {
          "address": "0xfcb43bd05c71c52dbec18814957fd19ab332db4d",
          "topics": [
            "0xddf252ad1be2c89b69c2b068fc378daa952ba7f163c4a11628f55a4df523b3ef",
            "0x0000000000000000000000000000000000000000000000000000000000000000",
            "0x000000000000000000000000ad9fdad276ab1a430fd03177a07350cd7c61e897",
            "0x0000000000000000000000000000000000000000000000000000000000000056"
          ],
          "data": "0x",
          "blockHash": "0xa943de49b121956156cd649d00fa3f20839003ce3aa6700b759db66147c61634",
          "blockNumber": "0x9170c1",
          "blockTimestamp": "0x6904f4d0",
          "transactionHash": "0xa4cfa736f83587f48c0cd868f11623b1e608be8f0f74a1451a41e9ab3a90e5b9",
          "transactionIndex": "0x27",
          "logIndex": "0x28",
          "removed": false
        }
      ],
      "logsBloom": "0x00000000000000000000000000000000000000000000000000000000000000000000000000000000000000000000000400000000000000000000000000000000000000000000004000000008000000000000000000000000000000000000000000000000020000000000000000000800000000000000000000000010000000000000000000080040000000000004400000000000000000000000000000000000000010000000000000000000000000000010000000000000000000000000000000200002000000000000000000000000000000000000000000000000000020000000000000000000000000000000000000000000000000000000000000000000",
      "type": "0x0",
      "transactionHash": "0xa4cfa736f83587f48c0cd868f11623b1e608be8f0f74a1451a41e9ab3a90e5b9",
      "transactionIndex": "0x27",
      "blockHash": "0xa943de49b121956156cd649d00fa3f20839003ce3aa6700b759db66147c61634",
      "blockNumber": "0x9170c1",
      "gasUsed": "0x15750",
      "effectiveGasPrice": "0xf424a",
      "from": "0xad9fdad276ab1a430fd03177a07350cd7c61e897",
      "to": "0xfcb43bd05c71c52dbec18814957fd19ab332db4d",
      "contractAddress": null
    },
    {
      "status": "0x1",
      "cumulativeGasUsed": "0x39cebd",
      "logs": [
        {
          "address": "0xfcb43bd05c71c52dbec18814957fd19ab332db4d",
          "topics": [
            "0xddf252ad1be2c89b69c2b068fc378daa952ba7f163c4a11628f55a4df523b3ef",
            "0x0000000000000000000000000000000000000000000000000000000000000000",
            "0x000000000000000000000000ad9fdad276ab1a430fd03177a07350cd7c61e897",
            "0x0000000000000000000000000000000000000000000000000000000000000057"
          ],
          "data": "0x",
          "blockHash": "0xa943de49b121956156cd649d00fa3f20839003ce3aa6700b759db66147c61634",
          "blockNumber": "0x9170c1",
          "blockTimestamp": "0x6904f4d0",
          "transactionHash": "0x934acd73e8b0844a0a2e4c59144e7fb1ff68e7780594af49535ce34f7262db2b",
          "transactionIndex": "0x28",
          "logIndex": "0x29",
          "removed": false
        }
      ],
      "logsBloom": "0x00000000000000000000000000000000000000000000000000000000000000000000000000000000000000000000040000000000000000000000000000000000000000000000004000000008000000000000000000000000000000000000000000000000020000000000000000000800000000000000000000000010000000000000000000080040000000000004400000000000000000000000000000000000000010000000000000000000000000000000000000000000000000000000000000000002000000000000000000000000000000002000000000000000000020000000002000000000000000000000000000000000000000000000000000000000",
      "type": "0x0",
      "transactionHash": "0x934acd73e8b0844a0a2e4c59144e7fb1ff68e7780594af49535ce34f7262db2b",
      "transactionIndex": "0x28",
      "blockHash": "0xa943de49b121956156cd649d00fa3f20839003ce3aa6700b759db66147c61634",
      "blockNumber": "0x9170c1",
      "gasUsed": "0x15750",
      "effectiveGasPrice": "0xf424a",
      "from": "0xad9fdad276ab1a430fd03177a07350cd7c61e897",
      "to": "0xfcb43bd05c71c52dbec18814957fd19ab332db4d",
      "contractAddress": null
    },
    {
      "status": "0x1",
      "cumulativeGasUsed": "0x3b260d",
      "logs": [
        {
          "address": "0xfcb43bd05c71c52dbec18814957fd19ab332db4d",
          "topics": [
            "0xddf252ad1be2c89b69c2b068fc378daa952ba7f163c4a11628f55a4df523b3ef",
            "0x0000000000000000000000000000000000000000000000000000000000000000",
            "0x000000000000000000000000ad9fdad276ab1a430fd03177a07350cd7c61e897",
            "0x0000000000000000000000000000000000000000000000000000000000000058"
          ],
          "data": "0x",
          "blockHash": "0xa943de49b121956156cd649d00fa3f20839003ce3aa6700b759db66147c61634",
          "blockNumber": "0x9170c1",
          "blockTimestamp": "0x6904f4d0",
          "transactionHash": "0x0b9cf6f5f611d06fdd3f667b7acc4839c0f5083c804f04de7a92b8550f9374ed",
          "transactionIndex": "0x29",
          "logIndex": "0x2a",
          "removed": false
        }
      ],
      "logsBloom": "0x00000000000000000000000000000000000000000000000000000000000000000000000000000000000000000080000000000000000000000000000000000000000000000000004000000008000000000001000000000000000000000000000000000000020000000000000000000800000000000000000000000010000000000000000000080040000000000004400000000000000000000000000000000000000010000000000000000000000000000000000000000000000000000000000000000002000000000000000000000000000000000000000000000000000020000000000000100000000000000000000000000000000000000000000000000000",
      "type": "0x0",
      "transactionHash": "0x0b9cf6f5f611d06fdd3f667b7acc4839c0f5083c804f04de7a92b8550f9374ed",
      "transactionIndex": "0x29",
      "blockHash": "0xa943de49b121956156cd649d00fa3f20839003ce3aa6700b759db66147c61634",
      "blockNumber": "0x9170c1",
      "gasUsed": "0x15750",
      "effectiveGasPrice": "0xf424a",
      "from": "0xad9fdad276ab1a430fd03177a07350cd7c61e897",
      "to": "0xfcb43bd05c71c52dbec18814957fd19ab332db4d",
      "contractAddress": null
    },
    {
      "status": "0x1",
      "cumulativeGasUsed": "0x3c7d5d",
      "logs": [
        {
          "address": "0xfcb43bd05c71c52dbec18814957fd19ab332db4d",
          "topics": [
            "0xddf252ad1be2c89b69c2b068fc378daa952ba7f163c4a11628f55a4df523b3ef",
            "0x0000000000000000000000000000000000000000000000000000000000000000",
            "0x000000000000000000000000ad9fdad276ab1a430fd03177a07350cd7c61e897",
            "0x0000000000000000000000000000000000000000000000000000000000000059"
          ],
          "data": "0x",
          "blockHash": "0xa943de49b121956156cd649d00fa3f20839003ce3aa6700b759db66147c61634",
          "blockNumber": "0x9170c1",
          "blockTimestamp": "0x6904f4d0",
          "transactionHash": "0x991c1178271be84a289818e2ed64c0db81e96cf37577de56e244e233fb9ac075",
          "transactionIndex": "0x2a",
          "logIndex": "0x2b",
          "removed": false
        }
      ],
      "logsBloom": "0x00000000000000000000000000000000000000000000000002000000000000000000000000000000020000000000000000000000000000000000000000000000000000000000004000000008000000000000000000000000000000000000000000000000020000000000000000000800000000000000000000000010000000000000000000080040000000000004400000000000000000000000000000000000000010000000000000000000000000000000000000000000000000000000000000000002000000000000000000000000000000000000000000000000000020000000000000000000000000000000000000000000000000000000000000002000",
      "type": "0x0",
      "transactionHash": "0x991c1178271be84a289818e2ed64c0db81e96cf37577de56e244e233fb9ac075",
      "transactionIndex": "0x2a",
      "blockHash": "0xa943de49b121956156cd649d00fa3f20839003ce3aa6700b759db66147c61634",
      "blockNumber": "0x9170c1",
      "gasUsed": "0x15750",
      "effectiveGasPrice": "0xf424a",
      "from": "0xad9fdad276ab1a430fd03177a07350cd7c61e897",
      "to": "0xfcb43bd05c71c52dbec18814957fd19ab332db4d",
      "contractAddress": null
    },
    {
      "status": "0x1",
      "cumulativeGasUsed": "0x3dd4ad",
      "logs": [
        {
          "address": "0xfcb43bd05c71c52dbec18814957fd19ab332db4d",
          "topics": [
            "0xddf252ad1be2c89b69c2b068fc378daa952ba7f163c4a11628f55a4df523b3ef",
            "0x0000000000000000000000000000000000000000000000000000000000000000",
            "0x000000000000000000000000ad9fdad276ab1a430fd03177a07350cd7c61e897",
            "0x000000000000000000000000000000000000000000000000000000000000005a"
          ],
          "data": "0x",
          "blockHash": "0xa943de49b121956156cd649d00fa3f20839003ce3aa6700b759db66147c61634",
          "blockNumber": "0x9170c1",
          "blockTimestamp": "0x6904f4d0",
          "transactionHash": "0x0fd6a41f1013a30d241bb329a2441ba6d4d3aa02728b63f937ed7dcba8bbc4c6",
          "transactionIndex": "0x2b",
          "logIndex": "0x2c",
          "removed": false
        }
      ],
      "logsBloom": "0x00000000000000000000000000000000000000000000000000000000000000000000000000000000000000000000000000000000000000000000000000000000000000000000004000000008000000000000000000000000000000000000000000000000020000000000000000000800000000000000000000000010000000000000000000180040000000000004400000000000000000000000000000000000000010000000000000000000000000000000000000000000000000000000000000000002000000000000000000000000000000000000000004000000000020000000000000000008000000000000000000000000000000000000000000000000",
      "type": "0x0",
      "transactionHash": "0x0fd6a41f1013a30d241bb329a2441ba6d4d3aa02728b63f937ed7dcba8bbc4c6",
      "transactionIndex": "0x2b",
      "blockHash": "0xa943de49b121956156cd649d00fa3f20839003ce3aa6700b759db66147c61634",
      "blockNumber": "0x9170c1",
      "gasUsed": "0x15750",
      "effectiveGasPrice": "0xf424a",
      "from": "0xad9fdad276ab1a430fd03177a07350cd7c61e897",
      "to": "0xfcb43bd05c71c52dbec18814957fd19ab332db4d",
      "contractAddress": null
    },
    {
      "status": "0x1",
      "cumulativeGasUsed": "0x3f2bfd",
      "logs": [
        {
          "address": "0xfcb43bd05c71c52dbec18814957fd19ab332db4d",
          "topics": [
            "0xddf252ad1be2c89b69c2b068fc378daa952ba7f163c4a11628f55a4df523b3ef",
            "0x0000000000000000000000000000000000000000000000000000000000000000",
            "0x000000000000000000000000ad9fdad276ab1a430fd03177a07350cd7c61e897",
            "0x000000000000000000000000000000000000000000000000000000000000005b"
          ],
          "data": "0x",
          "blockHash": "0xa943de49b121956156cd649d00fa3f20839003ce3aa6700b759db66147c61634",
          "blockNumber": "0x9170c1",
          "blockTimestamp": "0x6904f4d0",
          "transactionHash": "0xc3c922ddbaabe5ac5f2e0a9fc4ab92e32a27bbec04c42310bab3883805a3e117",
          "transactionIndex": "0x2c",
          "logIndex": "0x2d",
          "removed": false
        }
      ],
      "logsBloom": "0x00000000000000000000000000000000000000000000000000000000000000000000000000000000000000000000000000000000000000000000000000000000000000000000004000000008000000000000000000000000000000000000000000000800020000000000000000000800000000000000000000000010000000000000000000080040000000000004400000000000000000000000000000000080000010000000000000000000000000000000000000000000000000000000000000000002000000000000000000000000000000000000000000000000000020000000000000000000000000000000000000000000000000000000200000000000",
      "type": "0x0",
      "transactionHash": "0xc3c922ddbaabe5ac5f2e0a9fc4ab92e32a27bbec04c42310bab3883805a3e117",
      "transactionIndex": "0x2c",
      "blockHash": "0xa943de49b121956156cd649d00fa3f20839003ce3aa6700b759db66147c61634",
      "blockNumber": "0x9170c1",
      "gasUsed": "0x15750",
      "effectiveGasPrice": "0xf424a",
      "from": "0xad9fdad276ab1a430fd03177a07350cd7c61e897",
      "to": "0xfcb43bd05c71c52dbec18814957fd19ab332db4d",
      "contractAddress": null
    },
    {
      "status": "0x1",
      "cumulativeGasUsed": "0x40834d",
      "logs": [
        {
          "address": "0xfcb43bd05c71c52dbec18814957fd19ab332db4d",
          "topics": [
            "0xddf252ad1be2c89b69c2b068fc378daa952ba7f163c4a11628f55a4df523b3ef",
            "0x0000000000000000000000000000000000000000000000000000000000000000",
            "0x000000000000000000000000ad9fdad276ab1a430fd03177a07350cd7c61e897",
            "0x000000000000000000000000000000000000000000000000000000000000005c"
          ],
          "data": "0x",
          "blockHash": "0xa943de49b121956156cd649d00fa3f20839003ce3aa6700b759db66147c61634",
          "blockNumber": "0x9170c1",
          "blockTimestamp": "0x6904f4d0",
          "transactionHash": "0x312dfc013d1a7a45637903a33442d4126c623486e2dae96dd5bccdd1c6ccc1e6",
          "transactionIndex": "0x2d",
          "logIndex": "0x2e",
          "removed": false
        }
      ],
      "logsBloom": "0x00000000000000000000000000000000000000000000000000000000000000000000000000000000000000000000000000000000000000000000000000000000000000000000004000000008000000000000000000000200000000000000000000000000020000000000000000000800000000000000000000000010000008000000000000080040000000000004400000000000000000000000000000000000000010000000000000000000000000000000000000000000000000000000000000000002000000000000000000000000000000000000000000000000000020000000000000000000000000000000000000000000000000000010000000000000",
      "type": "0x0",
      "transactionHash": "0x312dfc013d1a7a45637903a33442d4126c623486e2dae96dd5bccdd1c6ccc1e6",
      "transactionIndex": "0x2d",
      "blockHash": "0xa943de49b121956156cd649d00fa3f20839003ce3aa6700b759db66147c61634",
      "blockNumber": "0x9170c1",
      "gasUsed": "0x15750",
      "effectiveGasPrice": "0xf424a",
      "from": "0xad9fdad276ab1a430fd03177a07350cd7c61e897",
      "to": "0xfcb43bd05c71c52dbec18814957fd19ab332db4d",
      "contractAddress": null
    },
    {
      "status": "0x1",
      "cumulativeGasUsed": "0x41da9d",
      "logs": [
        {
          "address": "0xfcb43bd05c71c52dbec18814957fd19ab332db4d",
          "topics": [
            "0xddf252ad1be2c89b69c2b068fc378daa952ba7f163c4a11628f55a4df523b3ef",
            "0x0000000000000000000000000000000000000000000000000000000000000000",
            "0x000000000000000000000000ad9fdad276ab1a430fd03177a07350cd7c61e897",
            "0x000000000000000000000000000000000000000000000000000000000000005d"
          ],
          "data": "0x",
          "blockHash": "0xa943de49b121956156cd649d00fa3f20839003ce3aa6700b759db66147c61634",
          "blockNumber": "0x9170c1",
          "blockTimestamp": "0x6904f4d0",
          "transactionHash": "0x17c2bf080ebe7897819a7833013346d0d4a990fe357415beb6ba04889b015e9a",
          "transactionIndex": "0x2e",
          "logIndex": "0x2f",
          "removed": false
        }
      ],
      "logsBloom": "0x00000000000000000000000000000000000000000000000000000000000000000000000000000000000000000000000000000000000000000000000002000000000000000000004000000008000000000000000000000000000000000000000000000000020000000000000000000800000001000000000000000010000000000000000000080040000000000004400000000000000000000000000000000000000010000000000000000000000000000000000000200000000000000000000000000002000000000000000000000000000000000000000000000000000020000000000000000000000000000000000000000000000000000000000000000000",
      "type": "0x0",
      "transactionHash": "0x17c2bf080ebe7897819a7833013346d0d4a990fe357415beb6ba04889b015e9a",
      "transactionIndex": "0x2e",
      "blockHash": "0xa943de49b121956156cd649d00fa3f20839003ce3aa6700b759db66147c61634",
      "blockNumber": "0x9170c1",
      "gasUsed": "0x15750",
      "effectiveGasPrice": "0xf424a",
      "from": "0xad9fdad276ab1a430fd03177a07350cd7c61e897",
      "to": "0xfcb43bd05c71c52dbec18814957fd19ab332db4d",
      "contractAddress": null
    },
    {
      "status": "0x1",
      "cumulativeGasUsed": "0x4331ed",
      "logs": [
        {
          "address": "0xfcb43bd05c71c52dbec18814957fd19ab332db4d",
          "topics": [
            "0xddf252ad1be2c89b69c2b068fc378daa952ba7f163c4a11628f55a4df523b3ef",
            "0x0000000000000000000000000000000000000000000000000000000000000000",
            "0x000000000000000000000000ad9fdad276ab1a430fd03177a07350cd7c61e897",
            "0x000000000000000000000000000000000000000000000000000000000000005e"
          ],
          "data": "0x",
          "blockHash": "0xa943de49b121956156cd649d00fa3f20839003ce3aa6700b759db66147c61634",
          "blockNumber": "0x9170c1",
          "blockTimestamp": "0x6904f4d0",
          "transactionHash": "0x37b6dec0a9822064daca9f2abf2abcd7c715d89c178a870220d936414c9ae135",
          "transactionIndex": "0x2f",
          "logIndex": "0x30",
          "removed": false
        }
      ],
      "logsBloom": "0x00000000000000000000000000000000000000000000000000000000000000000000000000000000000000000000000000000000000000000000000000000000000000000000004000000008000000000000000000000000004000000000000000000000020800000000000000000800000000000000000000000010000000000000000000080040000000000004400000000000000000000000000002000000000010000000000000000000000000000000000000000000000000000000000000000002000000000000000000000000000000000000000000000000000020000000000000000000000000000000000000000000000000000000000000000000",
      "type": "0x0",
      "transactionHash": "0x37b6dec0a9822064daca9f2abf2abcd7c715d89c178a870220d936414c9ae135",
      "transactionIndex": "0x2f",
      "blockHash": "0xa943de49b121956156cd649d00fa3f20839003ce3aa6700b759db66147c61634",
      "blockNumber": "0x9170c1",
      "gasUsed": "0x15750",
      "effectiveGasPrice": "0xf424a",
      "from": "0xad9fdad276ab1a430fd03177a07350cd7c61e897",
      "to": "0xfcb43bd05c71c52dbec18814957fd19ab332db4d",
      "contractAddress": null
    },
    {
      "status": "0x1",
      "cumulativeGasUsed": "0x44893d",
      "logs": [
        {
          "address": "0xfcb43bd05c71c52dbec18814957fd19ab332db4d",
          "topics": [
            "0xddf252ad1be2c89b69c2b068fc378daa952ba7f163c4a11628f55a4df523b3ef",
            "0x0000000000000000000000000000000000000000000000000000000000000000",
            "0x000000000000000000000000ad9fdad276ab1a430fd03177a07350cd7c61e897",
            "0x000000000000000000000000000000000000000000000000000000000000005f"
          ],
          "data": "0x",
          "blockHash": "0xa943de49b121956156cd649d00fa3f20839003ce3aa6700b759db66147c61634",
          "blockNumber": "0x9170c1",
          "blockTimestamp": "0x6904f4d0",
          "transactionHash": "0x6c56e98d67fb93c13025100a21642c918e8a71f73c681a3e1df3ec54accc9d71",
          "transactionIndex": "0x30",
          "logIndex": "0x31",
          "removed": false
        }
      ],
      "logsBloom": "0x00000000000000000000000000000000000000000000000000000000000000000000000000000000000000000000000000000000000000000000000000000000000000000020004000000008020000000000000000000000000000000000000000000000020000000000000000000800400000000000000000000010000000000000000000080040000000000004400000000000000000000000000000000000000010000000000000000000000000000000000000000000000000000000000000000002000000000000000000000000000000000000000000000000000020000000000000000000000000000000000000000000000000000000000000000000",
      "type": "0x0",
      "transactionHash": "0x6c56e98d67fb93c13025100a21642c918e8a71f73c681a3e1df3ec54accc9d71",
      "transactionIndex": "0x30",
      "blockHash": "0xa943de49b121956156cd649d00fa3f20839003ce3aa6700b759db66147c61634",
      "blockNumber": "0x9170c1",
      "gasUsed": "0x15750",
      "effectiveGasPrice": "0xf424a",
      "from": "0xad9fdad276ab1a430fd03177a07350cd7c61e897",
      "to": "0xfcb43bd05c71c52dbec18814957fd19ab332db4d",
      "contractAddress": null
    },
    {
      "status": "0x1",
      "cumulativeGasUsed": "0x45e08d",
      "logs": [
        {
          "address": "0xfcb43bd05c71c52dbec18814957fd19ab332db4d",
          "topics": [
            "0xddf252ad1be2c89b69c2b068fc378daa952ba7f163c4a11628f55a4df523b3ef",
            "0x0000000000000000000000000000000000000000000000000000000000000000",
            "0x000000000000000000000000ad9fdad276ab1a430fd03177a07350cd7c61e897",
            "0x0000000000000000000000000000000000000000000000000000000000000060"
          ],
          "data": "0x",
          "blockHash": "0xa943de49b121956156cd649d00fa3f20839003ce3aa6700b759db66147c61634",
          "blockNumber": "0x9170c1",
          "blockTimestamp": "0x6904f4d0",
          "transactionHash": "0x9a11b736848f50dc7cbdb8ef0db722db5867efe14f6c82e89d75e1cdda83a2fc",
          "transactionIndex": "0x31",
          "logIndex": "0x32",
          "removed": false
        }
      ],
      "logsBloom": "0x00000000000000000000000000200000000000000000000000000000000000000000000000000000000000000000000000200000000000000000000000000000000000000000004000000008000000000000000000000000000000000000000000000000020000000000000000000800000000000000000000000010000000000000000000080040000000000004400000000000000000000000000000000000000010000000000000000000000000000000000000000000000000000000000000000002000000800000000000000000000000000000000000000000000020000000000000000000000000000000000000000000000000000000000000000000",
      "type": "0x0",
      "transactionHash": "0x9a11b736848f50dc7cbdb8ef0db722db5867efe14f6c82e89d75e1cdda83a2fc",
      "transactionIndex": "0x31",
      "blockHash": "0xa943de49b121956156cd649d00fa3f20839003ce3aa6700b759db66147c61634",
      "blockNumber": "0x9170c1",
      "gasUsed": "0x15750",
      "effectiveGasPrice": "0xf424a",
      "from": "0xad9fdad276ab1a430fd03177a07350cd7c61e897",
      "to": "0xfcb43bd05c71c52dbec18814957fd19ab332db4d",
      "contractAddress": null
    },
    {
      "status": "0x1",
      "cumulativeGasUsed": "0x4737dd",
      "logs": [
        {
          "address": "0xfcb43bd05c71c52dbec18814957fd19ab332db4d",
          "topics": [
            "0xddf252ad1be2c89b69c2b068fc378daa952ba7f163c4a11628f55a4df523b3ef",
            "0x0000000000000000000000000000000000000000000000000000000000000000",
            "0x000000000000000000000000ad9fdad276ab1a430fd03177a07350cd7c61e897",
            "0x0000000000000000000000000000000000000000000000000000000000000061"
          ],
          "data": "0x",
          "blockHash": "0xa943de49b121956156cd649d00fa3f20839003ce3aa6700b759db66147c61634",
          "blockNumber": "0x9170c1",
          "blockTimestamp": "0x6904f4d0",
          "transactionHash": "0xd0d53b755ee95fac41708280856ca91cd2f8fc14c0d5489e95cbe1c2a3202e9e",
          "transactionIndex": "0x32",
          "logIndex": "0x33",
          "removed": false
        }
      ],
      "logsBloom": "0x00000000000000000000000000000000000000002000000000000000000000000000000000000000000000000000000000000000000000000000000000000000000000000000004000000008000000000000000000000000000000000000000000000000020000000000000000000800000000000000000000000010000000000000000000080040000000000004400000000000000000000000000000000000000010000000000000000000000000000000000000000000000000000000000000000002000000000000000000000004000000000000000000000000000020000000100000000000000000000000000000000000000000000000000000000000",
      "type": "0x0",
      "transactionHash": "0xd0d53b755ee95fac41708280856ca91cd2f8fc14c0d5489e95cbe1c2a3202e9e",
      "transactionIndex": "0x32",
      "blockHash": "0xa943de49b121956156cd649d00fa3f20839003ce3aa6700b759db66147c61634",
      "blockNumber": "0x9170c1",
      "gasUsed": "0x15750",
      "effectiveGasPrice": "0xf424a",
      "from": "0xad9fdad276ab1a430fd03177a07350cd7c61e897",
      "to": "0xfcb43bd05c71c52dbec18814957fd19ab332db4d",
      "contractAddress": null
    },
    {
      "status": "0x1",
      "cumulativeGasUsed": "0x488f2d",
      "logs": [
        {
          "address": "0xfcb43bd05c71c52dbec18814957fd19ab332db4d",
          "topics": [
            "0xddf252ad1be2c89b69c2b068fc378daa952ba7f163c4a11628f55a4df523b3ef",
            "0x0000000000000000000000000000000000000000000000000000000000000000",
            "0x000000000000000000000000ad9fdad276ab1a430fd03177a07350cd7c61e897",
            "0x0000000000000000000000000000000000000000000000000000000000000062"
          ],
          "data": "0x",
          "blockHash": "0xa943de49b121956156cd649d00fa3f20839003ce3aa6700b759db66147c61634",
          "blockNumber": "0x9170c1",
          "blockTimestamp": "0x6904f4d0",
          "transactionHash": "0xc58facc7860f009d181c3476b9fd711fe3dad63db1b50d4093c2347785c955b6",
          "transactionIndex": "0x33",
          "logIndex": "0x34",
          "removed": false
        }
      ],
      "logsBloom": "0x00000000000000000000000000000000000000000000000000000000000000000000000000000000000000000000000000000000000000000000000000000000000008000000004000000008000000000000000000000000000000000000000000000000020000000000000000000800000000000000000000000010000000000000000000080040000000000004400000000000000000000000000002000000000010000000000000000000000000000000000000000000000000000000000000000002000000000000000000000000000000000000000000000000000420000000000000000000000000000000000000000000000000000000000000000000",
      "type": "0x0",
      "transactionHash": "0xc58facc7860f009d181c3476b9fd711fe3dad63db1b50d4093c2347785c955b6",
      "transactionIndex": "0x33",
      "blockHash": "0xa943de49b121956156cd649d00fa3f20839003ce3aa6700b759db66147c61634",
      "blockNumber": "0x9170c1",
      "gasUsed": "0x15750",
      "effectiveGasPrice": "0xf424a",
      "from": "0xad9fdad276ab1a430fd03177a07350cd7c61e897",
      "to": "0xfcb43bd05c71c52dbec18814957fd19ab332db4d",
      "contractAddress": null
    },
    {
      "status": "0x1",
      "cumulativeGasUsed": "0x49e67d",
      "logs": [
        {
          "address": "0xfcb43bd05c71c52dbec18814957fd19ab332db4d",
          "topics": [
            "0xddf252ad1be2c89b69c2b068fc378daa952ba7f163c4a11628f55a4df523b3ef",
            "0x0000000000000000000000000000000000000000000000000000000000000000",
            "0x000000000000000000000000ad9fdad276ab1a430fd03177a07350cd7c61e897",
            "0x0000000000000000000000000000000000000000000000000000000000000063"
          ],
          "data": "0x",
          "blockHash": "0xa943de49b121956156cd649d00fa3f20839003ce3aa6700b759db66147c61634",
          "blockNumber": "0x9170c1",
          "blockTimestamp": "0x6904f4d0",
          "transactionHash": "0xf4dc5455c807a5a8179013d92fc7a46641e0c1548d0f8bfabb5f08fcd04bca4e",
          "transactionIndex": "0x34",
          "logIndex": "0x35",
          "removed": false
        }
      ],
      "logsBloom": "0x00000000000000000000000000000000000000000000000000000000000000000000000000000000000000000000000000000000000000000000000000000000000000000000004000000008000000000000000000000000000000000000000000000000020000000000000000000804000000000000000000000010000000000000000000080040000000000004400000000000000000000000000000000000000010000000000000000000000000000000000000000000800000000000000000000002000000000000000000000000000000000000000000000000000020000000000000000000000000000000000000002000000000000000000000000000",
      "type": "0x0",
      "transactionHash": "0xf4dc5455c807a5a8179013d92fc7a46641e0c1548d0f8bfabb5f08fcd04bca4e",
      "transactionIndex": "0x34",
      "blockHash": "0xa943de49b121956156cd649d00fa3f20839003ce3aa6700b759db66147c61634",
      "blockNumber": "0x9170c1",
      "gasUsed": "0x15750",
      "effectiveGasPrice": "0xf424a",
      "from": "0xad9fdad276ab1a430fd03177a07350cd7c61e897",
      "to": "0xfcb43bd05c71c52dbec18814957fd19ab332db4d",
      "contractAddress": null
    },
    {
      "status": "0x1",
      "cumulativeGasUsed": "0x4b3dcd",
      "logs": [
        {
          "address": "0xfcb43bd05c71c52dbec18814957fd19ab332db4d",
          "topics": [
            "0xddf252ad1be2c89b69c2b068fc378daa952ba7f163c4a11628f55a4df523b3ef",
            "0x0000000000000000000000000000000000000000000000000000000000000000",
            "0x000000000000000000000000ad9fdad276ab1a430fd03177a07350cd7c61e897",
            "0x0000000000000000000000000000000000000000000000000000000000000064"
          ],
          "data": "0x",
          "blockHash": "0xa943de49b121956156cd649d00fa3f20839003ce3aa6700b759db66147c61634",
          "blockNumber": "0x9170c1",
          "blockTimestamp": "0x6904f4d0",
          "transactionHash": "0x8033b2b6b4805f90c18d887723a8202a9087daeba5bf227c21aebdfa6dd25190",
          "transactionIndex": "0x35",
          "logIndex": "0x36",
          "removed": false
        }
      ],
      "logsBloom": "0x00000000000000000000000000000000000000000000000000000000000000000000000000000000000000000000000000010000000000000000000000080000000000000000004000000008000000000000000000000000000000000000000000000000020000000000000000000800000000000000000000000010000000000000000000080040000000000004400000000000000000000000000000000000000010000000000000000000000000000000000000000000000000000000000000000002000000000000000000000000000000000000000000000000000020000000000000000000000000000000000000000000000000008000000000000000",
      "type": "0x0",
      "transactionHash": "0x8033b2b6b4805f90c18d887723a8202a9087daeba5bf227c21aebdfa6dd25190",
      "transactionIndex": "0x35",
      "blockHash": "0xa943de49b121956156cd649d00fa3f20839003ce3aa6700b759db66147c61634",
      "blockNumber": "0x9170c1",
      "gasUsed": "0x15750",
      "effectiveGasPrice": "0xf424a",
      "from": "0xad9fdad276ab1a430fd03177a07350cd7c61e897",
      "to": "0xfcb43bd05c71c52dbec18814957fd19ab332db4d",
      "contractAddress": null
    }
  ],
  "libraries": [],
  "pending": [],
  "returns": {},
  "timestamp": 1761932497807,
  "chain": 11155111,
  "commit": "c03d2ed"
}