{
  "transactions": [
    {
      "hash": "0xa668b35ff91098d100aae323ec62492b67fe577fcadb4d450b3d2cf03b876697",
      "transactionType": "CALL",
      "contractName": null,
      "contractAddress": "0xfcb43bd05c71c52dbec18814957fd19ab332db4d",
      "function": "mint(address,uint32)",
      "arguments": [
        "0xAd9fDaD276AB1A430fD03177A07350CD7C61E897",
        "0"
      ],
      "transaction": {
        "from": "0xad9fdad276ab1a430fd03177a07350cd7c61e897",
        "to": "0xfcb43bd05c71c52dbec18814957fd19ab332db4d",
        "gas": "0x2839d",
        "value": "0x0",
        "input": "0xd35e29d7000000000000000000000000ad9fdad276ab1a430fd03177a07350cd7c61e8970000000000000000000000000000000000000000000000000000000000000000",
        "nonce": "0x32a",
        "chainId": "0xaa36a7"
      },
      "additionalContracts": [],
      "isFixedGasLimit": false
    },
    {
      "hash": "0x72cae235fa977de9c5f4fed3e6cc27a0c620ac072d207ff14fc2b3e645c56e81",
      "transactionType": "CALL",
      "contractName": null,
      "contractAddress": "0xfcb43bd05c71c52dbec18814957fd19ab332db4d",
      "function": "mint(address,uint32)",
      "arguments": [
        "0xAd9fDaD276AB1A430fD03177A07350CD7C61E897",
        "0"
      ],
      "transaction": {
        "from": "0xad9fdad276ab1a430fd03177a07350cd7c61e897",
        "to": "0xfcb43bd05c71c52dbec18814957fd19ab332db4d",
        "gas": "0x23675",
        "value": "0x0",
        "input": "0xd35e29d7000000000000000000000000ad9fdad276ab1a430fd03177a07350cd7c61e8970000000000000000000000000000000000000000000000000000000000000000",
        "nonce": "0x32b",
        "chainId": "0xaa36a7"
      },
      "additionalContracts": [],
      "isFixedGasLimit": false
    },
    {
      "hash": "0x2c06b075150ec467dd1c6634335fda01e026d6f9bb7027eec29ab2e46c3825bf",
      "transactionType": "CALL",
      "contractName": null,
      "contractAddress": "0xfcb43bd05c71c52dbec18814957fd19ab332db4d",
      "function": "mint(address,uint32)",
      "arguments": [
        "0xAd9fDaD276AB1A430fD03177A07350CD7C61E897",
        "0"
      ],
      "transaction": {
        "from": "0xad9fdad276ab1a430fd03177a07350cd7c61e897",
        "to": "0xfcb43bd05c71c52dbec18814957fd19ab332db4d",
        "gas": "0x23675",
        "value": "0x0",
        "input": "0xd35e29d7000000000000000000000000ad9fdad276ab1a430fd03177a07350cd7c61e8970000000000000000000000000000000000000000000000000000000000000000",
        "nonce": "0x32c",
        "chainId": "0xaa36a7"
      },
      "additionalContracts": [],
      "isFixedGasLimit": false
    },
    {
      "hash": "0xbc5cd2de0304705fe2b0b007cd52a20c7b3932e0551709de71101390d6d7a9e7",
      "transactionType": "CALL",
      "contractName": null,
      "contractAddress": "0xfcb43bd05c71c52dbec18814957fd19ab332db4d",
      "function": "mint(address,uint32)",
      "arguments": [
        "0xAd9fDaD276AB1A430fD03177A07350CD7C61E897",
        "0"
      ],
      "transaction": {
        "from": "0xad9fdad276ab1a430fd03177a07350cd7c61e897",
        "to": "0xfcb43bd05c71c52dbec18814957fd19ab332db4d",
        "gas": "0x23675",
        "value": "0x0",
        "input": "0xd35e29d7000000000000000000000000ad9fdad276ab1a430fd03177a07350cd7c61e8970000000000000000000000000000000000000000000000000000000000000000",
        "nonce": "0x32d",
        "chainId": "0xaa36a7"
      },
      "additionalContracts": [],
      "isFixedGasLimit": false
    },
    {
      "hash": "0xaa90e08271d19af5313a13531eaa8fb9d14dd0a99a72acadd47e62383140089a",
      "transactionType": "CALL",
      "contractName": null,
      "contractAddress": "0xfcb43bd05c71c52dbec18814957fd19ab332db4d",
      "function": "mint(address,uint32)",
      "arguments": [
        "0xAd9fDaD276AB1A430fD03177A07350CD7C61E897",
        "0"
      ],
      "transaction": {
        "from": "0xad9fdad276ab1a430fd03177a07350cd7c61e897",
        "to": "0xfcb43bd05c71c52dbec18814957fd19ab332db4d",
        "gas": "0x23675",
        "value": "0x0",
        "input": "0xd35e29d7000000000000000000000000ad9fdad276ab1a430fd03177a07350cd7c61e8970000000000000000000000000000000000000000000000000000000000000000",
        "nonce": "0x32e",
        "chainId": "0xaa36a7"
      },
      "additionalContracts": [],
      "isFixedGasLimit": false
    },
    {
      "hash": "0xf514579e7bc7623fd0d853ac265306c6a834d1bdf8758994ad0728415ba13c3f",
      "transactionType": "CALL",
      "contractName": null,
      "contractAddress": "0xfcb43bd05c71c52dbec18814957fd19ab332db4d",
      "function": "mint(address,uint32)",
      "arguments": [
        "0xAd9fDaD276AB1A430fD03177A07350CD7C61E897",
        "0"
      ],
      "transaction": {
        "from": "0xad9fdad276ab1a430fd03177a07350cd7c61e897",
        "to": "0xfcb43bd05c71c52dbec18814957fd19ab332db4d",
        "gas": "0x23675",
        "value": "0x0",
        "input": "0xd35e29d7000000000000000000000000ad9fdad276ab1a430fd03177a07350cd7c61e8970000000000000000000000000000000000000000000000000000000000000000",
        "nonce": "0x32f",
        "chainId": "0xaa36a7"
      },
      "additionalContracts": [],
      "isFixedGasLimit": false
    },
    {
      "hash": "0x1cf412e561ccd5167950de0ad91e5d46c666933beb8538e67156e4e550b78de1",
      "transactionType": "CALL",
      "contractName": null,
      "contractAddress": "0xfcb43bd05c71c52dbec18814957fd19ab332db4d",
      "function": "mint(address,uint32)",
      "arguments": [
        "0xAd9fDaD276AB1A430fD03177A07350CD7C61E897",
        "0"
      ],
      "transaction": {
        "from": "0xad9fdad276ab1a430fd03177a07350cd7c61e897",
        "to": "0xfcb43bd05c71c52dbec18814957fd19ab332db4d",
        "gas": "0x23675",
        "value": "0x0",
        "input": "0xd35e29d7000000000000000000000000ad9fdad276ab1a430fd03177a07350cd7c61e8970000000000000000000000000000000000000000000000000000000000000000",
        "nonce": "0x330",
        "chainId": "0xaa36a7"
      },
      "additionalContracts": [],
      "isFixedGasLimit": false
    },
    {
      "hash": "0xfab932beb6253deb3bf7954227b606cd45ab928cb1ee14af23377b4e77480aac",
      "transactionType": "CALL",
      "contractName": null,
      "contractAddress": "0xfcb43bd05c71c52dbec18814957fd19ab332db4d",
      "function": "mint(address,uint32)",
      "arguments": [
        "0xAd9fDaD276AB1A430fD03177A07350CD7C61E897",
        "0"
      ],
      "transaction": {
        "from": "0xad9fdad276ab1a430fd03177a07350cd7c61e897",
        "to": "0xfcb43bd05c71c52dbec18814957fd19ab332db4d",
        "gas": "0x23675",
        "value": "0x0",
        "input": "0xd35e29d7000000000000000000000000ad9fdad276ab1a430fd03177a07350cd7c61e8970000000000000000000000000000000000000000000000000000000000000000",
        "nonce": "0x331",
        "chainId": "0xaa36a7"
      },
      "additionalContracts": [],
      "isFixedGasLimit": false
    },
    {
      "hash": "0xd45c15ea7c77aee3baf5b30ab8828e255727e1ab7998913b5133d3f31bd44572",
      "transactionType": "CALL",
      "contractName": null,
      "contractAddress": "0xfcb43bd05c71c52dbec18814957fd19ab332db4d",
      "function": "mint(address,uint32)",
      "arguments": [
        "0xAd9fDaD276AB1A430fD03177A07350CD7C61E897",
        "0"
      ],
      "transaction": {
        "from": "0xad9fdad276ab1a430fd03177a07350cd7c61e897",
        "to": "0xfcb43bd05c71c52dbec18814957fd19ab332db4d",
        "gas": "0x23675",
        "value": "0x0",
        "input": "0xd35e29d7000000000000000000000000ad9fdad276ab1a430fd03177a07350cd7c61e8970000000000000000000000000000000000000000000000000000000000000000",
        "nonce": "0x332",
        "chainId": "0xaa36a7"
      },
      "additionalContracts": [],
      "isFixedGasLimit": false
    },
    {
      "hash": "0xb78654658a786f42a111c8b274fd3330f1a28032730d327db5af0585bc11dda0",
      "transactionType": "CALL",
      "contractName": null,
      "contractAddress": "0xfcb43bd05c71c52dbec18814957fd19ab332db4d",
      "function": "mint(address,uint32)",
      "arguments": [
        "0xAd9fDaD276AB1A430fD03177A07350CD7C61E897",
        "0"
      ],
      "transaction": {
        "from": "0xad9fdad276ab1a430fd03177a07350cd7c61e897",
        "to": "0xfcb43bd05c71c52dbec18814957fd19ab332db4d",
        "gas": "0x23675",
        "value": "0x0",
        "input": "0xd35e29d7000000000000000000000000ad9fdad276ab1a430fd03177a07350cd7c61e8970000000000000000000000000000000000000000000000000000000000000000",
        "nonce": "0x333",
        "chainId": "0xaa36a7"
      },
      "additionalContracts": [],
      "isFixedGasLimit": false
    },
    {
      "hash": "0xfe8234a9c3568bc698a55b2426621bb05c30ecd6673829d4f52e3d4f8f421a8d",
      "transactionType": "CALL",
      "contractName": null,
      "contractAddress": "0xfcb43bd05c71c52dbec18814957fd19ab332db4d",
      "function": "mint(address,uint32)",
      "arguments": [
        "0xAd9fDaD276AB1A430fD03177A07350CD7C61E897",
        "0"
      ],
      "transaction": {
        "from": "0xad9fdad276ab1a430fd03177a07350cd7c61e897",
        "to": "0xfcb43bd05c71c52dbec18814957fd19ab332db4d",
        "gas": "0x23675",
        "value": "0x0",
        "input": "0xd35e29d7000000000000000000000000ad9fdad276ab1a430fd03177a07350cd7c61e8970000000000000000000000000000000000000000000000000000000000000000",
        "nonce": "0x334",
        "chainId": "0xaa36a7"
      },
      "additionalContracts": [],
      "isFixedGasLimit": false
    },
    {
      "hash": "0x7b9cc640a579ccf0c4902daa30a09302f136f770921b38949e22e17d6cdcf0a8",
      "transactionType": "CALL",
      "contractName": null,
      "contractAddress": "0xfcb43bd05c71c52dbec18814957fd19ab332db4d",
      "function": "mint(address,uint32)",
      "arguments": [
        "0xAd9fDaD276AB1A430fD03177A07350CD7C61E897",
        "0"
      ],
      "transaction": {
        "from": "0xad9fdad276ab1a430fd03177a07350cd7c61e897",
        "to": "0xfcb43bd05c71c52dbec18814957fd19ab332db4d",
        "gas": "0x23675",
        "value": "0x0",
        "input": "0xd35e29d7000000000000000000000000ad9fdad276ab1a430fd03177a07350cd7c61e8970000000000000000000000000000000000000000000000000000000000000000",
        "nonce": "0x335",
        "chainId": "0xaa36a7"
      },
      "additionalContracts": [],
      "isFixedGasLimit": false
    },
    {
      "hash": "0x8e84a43301ab8c3e9b17169f20a19d61c3f8b5a76b1174117d759e58f8481087",
      "transactionType": "CALL",
      "contractName": null,
      "contractAddress": "0xfcb43bd05c71c52dbec18814957fd19ab332db4d",
      "function": "mint(address,uint32)",
      "arguments": [
        "0xAd9fDaD276AB1A430fD03177A07350CD7C61E897",
        "0"
      ],
      "transaction": {
        "from": "0xad9fdad276ab1a430fd03177a07350cd7c61e897",
        "to": "0xfcb43bd05c71c52dbec18814957fd19ab332db4d",
        "gas": "0x23675",
        "value": "0x0",
        "input": "0xd35e29d7000000000000000000000000ad9fdad276ab1a430fd03177a07350cd7c61e8970000000000000000000000000000000000000000000000000000000000000000",
        "nonce": "0x336",
        "chainId": "0xaa36a7"
      },
      "additionalContracts": [],
      "isFixedGasLimit": false
    },
    {
      "hash": "0xc22234f348e0e95902edc36169fd8d3a5becf7065eaa2a5d1184ccba96b477dd",
      "transactionType": "CALL",
      "contractName": null,
      "contractAddress": "0xfcb43bd05c71c52dbec18814957fd19ab332db4d",
      "function": "mint(address,uint32)",
      "arguments": [
        "0xAd9fDaD276AB1A430fD03177A07350CD7C61E897",
        "0"
      ],
      "transaction": {
        "from": "0xad9fdad276ab1a430fd03177a07350cd7c61e897",
        "to": "0xfcb43bd05c71c52dbec18814957fd19ab332db4d",
        "gas": "0x23675",
        "value": "0x0",
        "input": "0xd35e29d7000000000000000000000000ad9fdad276ab1a430fd03177a07350cd7c61e8970000000000000000000000000000000000000000000000000000000000000000",
        "nonce": "0x337",
        "chainId": "0xaa36a7"
      },
      "additionalContracts": [],
      "isFixedGasLimit": false
    },
    {
      "hash": "0xd4478157b0cfdd45ba009efcdce7f54d437a2aacf91a4e9a09ab1b08cdf96c94",
      "transactionType": "CALL",
      "contractName": null,
      "contractAddress": "0xfcb43bd05c71c52dbec18814957fd19ab332db4d",
      "function": "mint(address,uint32)",
      "arguments": [
        "0xAd9fDaD276AB1A430fD03177A07350CD7C61E897",
        "0"
      ],
      "transaction": {
        "from": "0xad9fdad276ab1a430fd03177a07350cd7c61e897",
        "to": "0xfcb43bd05c71c52dbec18814957fd19ab332db4d",
        "gas": "0x23675",
        "value": "0x0",
        "input": "0xd35e29d7000000000000000000000000ad9fdad276ab1a430fd03177a07350cd7c61e8970000000000000000000000000000000000000000000000000000000000000000",
        "nonce": "0x338",
        "chainId": "0xaa36a7"
      },
      "additionalContracts": [],
      "isFixedGasLimit": false
    },
    {
      "hash": "0x0d00d15c2af07f10f8d11e54758b6e652cfd62c60b7cc531f314100e4bd531dc",
      "transactionType": "CALL",
      "contractName": null,
      "contractAddress": "0xfcb43bd05c71c52dbec18814957fd19ab332db4d",
      "function": "mint(address,uint32)",
      "arguments": [
        "0xAd9fDaD276AB1A430fD03177A07350CD7C61E897",
        "0"
      ],
      "transaction": {
        "from": "0xad9fdad276ab1a430fd03177a07350cd7c61e897",
        "to": "0xfcb43bd05c71c52dbec18814957fd19ab332db4d",
        "gas": "0x23675",
        "value": "0x0",
        "input": "0xd35e29d7000000000000000000000000ad9fdad276ab1a430fd03177a07350cd7c61e8970000000000000000000000000000000000000000000000000000000000000000",
        "nonce": "0x339",
        "chainId": "0xaa36a7"
      },
      "additionalContracts": [],
      "isFixedGasLimit": false
    },
    {
      "hash": "0x4ba8cdce265c1714095ebaf2c50cc4ae3ec58a01457b7a513b44f20d5276f251",
      "transactionType": "CALL",
      "contractName": null,
      "contractAddress": "0xfcb43bd05c71c52dbec18814957fd19ab332db4d",
      "function": "mint(address,uint32)",
      "arguments": [
        "0xAd9fDaD276AB1A430fD03177A07350CD7C61E897",
        "0"
      ],
      "transaction": {
        "from": "0xad9fdad276ab1a430fd03177a07350cd7c61e897",
        "to": "0xfcb43bd05c71c52dbec18814957fd19ab332db4d",
        "gas": "0x23675",
        "value": "0x0",
        "input": "0xd35e29d7000000000000000000000000ad9fdad276ab1a430fd03177a07350cd7c61e8970000000000000000000000000000000000000000000000000000000000000000",
        "nonce": "0x33a",
        "chainId": "0xaa36a7"
      },
      "additionalContracts": [],
      "isFixedGasLimit": false
    },
    {
      "hash": "0xaf2c9e3b789282424b0bedb0076f02c5ebe71ea77bc880e91441e0ded9b783b0",
      "transactionType": "CALL",
      "contractName": null,
      "contractAddress": "0xfcb43bd05c71c52dbec18814957fd19ab332db4d",
      "function": "mint(address,uint32)",
      "arguments": [
        "0xAd9fDaD276AB1A430fD03177A07350CD7C61E897",
        "0"
      ],
      "transaction": {
        "from": "0xad9fdad276ab1a430fd03177a07350cd7c61e897",
        "to": "0xfcb43bd05c71c52dbec18814957fd19ab332db4d",
        "gas": "0x23675",
        "value": "0x0",
        "input": "0xd35e29d7000000000000000000000000ad9fdad276ab1a430fd03177a07350cd7c61e8970000000000000000000000000000000000000000000000000000000000000000",
        "nonce": "0x33b",
        "chainId": "0xaa36a7"
      },
      "additionalContracts": [],
      "isFixedGasLimit": false
    },
    {
      "hash": "0xa80e8c18a4ef67ec07b62e50fc7ca9725368d84847d31c29c1f64dc4e95e9535",
      "transactionType": "CALL",
      "contractName": null,
      "contractAddress": "0xfcb43bd05c71c52dbec18814957fd19ab332db4d",
      "function": "mint(address,uint32)",
      "arguments": [
        "0xAd9fDaD276AB1A430fD03177A07350CD7C61E897",
        "0"
      ],
      "transaction": {
        "from": "0xad9fdad276ab1a430fd03177a07350cd7c61e897",
        "to": "0xfcb43bd05c71c52dbec18814957fd19ab332db4d",
        "gas": "0x23675",
        "value": "0x0",
        "input": "0xd35e29d7000000000000000000000000ad9fdad276ab1a430fd03177a07350cd7c61e8970000000000000000000000000000000000000000000000000000000000000000",
        "nonce": "0x33c",
        "chainId": "0xaa36a7"
      },
      "additionalContracts": [],
      "isFixedGasLimit": false
    },
    {
      "hash": "0xba42ecbbd9b046690ce25f447e098c6ff844ea119538ee13f5688a412527c2d3",
      "transactionType": "CALL",
      "contractName": null,
      "contractAddress": "0xfcb43bd05c71c52dbec18814957fd19ab332db4d",
      "function": "mint(address,uint32)",
      "arguments": [
        "0xAd9fDaD276AB1A430fD03177A07350CD7C61E897",
        "0"
      ],
      "transaction": {
        "from": "0xad9fdad276ab1a430fd03177a07350cd7c61e897",
        "to": "0xfcb43bd05c71c52dbec18814957fd19ab332db4d",
        "gas": "0x23675",
        "value": "0x0",
        "input": "0xd35e29d7000000000000000000000000ad9fdad276ab1a430fd03177a07350cd7c61e8970000000000000000000000000000000000000000000000000000000000000000",
        "nonce": "0x33d",
        "chainId": "0xaa36a7"
      },
      "additionalContracts": [],
      "isFixedGasLimit": false
    },
    {
      "hash": "0x6be65281de305ff5149e626ab48a054eccc17cac76c50b4edf55aaf23e4bb179",
      "transactionType": "CALL",
      "contractName": null,
      "contractAddress": "0xfcb43bd05c71c52dbec18814957fd19ab332db4d",
      "function": "mint(address,uint32)",
      "arguments": [
        "0xAd9fDaD276AB1A430fD03177A07350CD7C61E897",
        "0"
      ],
      "transaction": {
        "from": "0xad9fdad276ab1a430fd03177a07350cd7c61e897",
        "to": "0xfcb43bd05c71c52dbec18814957fd19ab332db4d",
        "gas": "0x23675",
        "value": "0x0",
        "input": "0xd35e29d7000000000000000000000000ad9fdad276ab1a430fd03177a07350cd7c61e8970000000000000000000000000000000000000000000000000000000000000000",
        "nonce": "0x33e",
        "chainId": "0xaa36a7"
      },
      "additionalContracts": [],
      "isFixedGasLimit": false
    },
    {
      "hash": "0x7cfa6d025b83ea44db78c329b2559c7aac1c7924428f96868455f14bc5159512",
      "transactionType": "CALL",
      "contractName": null,
      "contractAddress": "0xfcb43bd05c71c52dbec18814957fd19ab332db4d",
      "function": "mint(address,uint32)",
      "arguments": [
        "0xAd9fDaD276AB1A430fD03177A07350CD7C61E897",
        "0"
      ],
      "transaction": {
        "from": "0xad9fdad276ab1a430fd03177a07350cd7c61e897",
        "to": "0xfcb43bd05c71c52dbec18814957fd19ab332db4d",
        "gas": "0x23675",
        "value": "0x0",
        "input": "0xd35e29d7000000000000000000000000ad9fdad276ab1a430fd03177a07350cd7c61e8970000000000000000000000000000000000000000000000000000000000000000",
        "nonce": "0x33f",
        "chainId": "0xaa36a7"
      },
      "additionalContracts": [],
      "isFixedGasLimit": false
    },
    {
      "hash": "0x85040c7aa3f145e92edf95111ab55288f04c75e2cf013304bfca8317d0e7ce95",
      "transactionType": "CALL",
      "contractName": null,
      "contractAddress": "0xfcb43bd05c71c52dbec18814957fd19ab332db4d",
      "function": "mint(address,uint32)",
      "arguments": [
        "0xAd9fDaD276AB1A430fD03177A07350CD7C61E897",
        "0"
      ],
      "transaction": {
        "from": "0xad9fdad276ab1a430fd03177a07350cd7c61e897",
        "to": "0xfcb43bd05c71c52dbec18814957fd19ab332db4d",
        "gas": "0x23675",
        "value": "0x0",
        "input": "0xd35e29d7000000000000000000000000ad9fdad276ab1a430fd03177a07350cd7c61e8970000000000000000000000000000000000000000000000000000000000000000",
        "nonce": "0x340",
        "chainId": "0xaa36a7"
      },
      "additionalContracts": [],
      "isFixedGasLimit": false
    },
    {
      "hash": "0x323483ae67503f8a2c4dcc05c4651c0cd2903f11c5c09f5e8ca871f66f505284",
      "transactionType": "CALL",
      "contractName": null,
      "contractAddress": "0xfcb43bd05c71c52dbec18814957fd19ab332db4d",
      "function": "mint(address,uint32)",
      "arguments": [
        "0xAd9fDaD276AB1A430fD03177A07350CD7C61E897",
        "0"
      ],
      "transaction": {
        "from": "0xad9fdad276ab1a430fd03177a07350cd7c61e897",
        "to": "0xfcb43bd05c71c52dbec18814957fd19ab332db4d",
        "gas": "0x23675",
        "value": "0x0",
        "input": "0xd35e29d7000000000000000000000000ad9fdad276ab1a430fd03177a07350cd7c61e8970000000000000000000000000000000000000000000000000000000000000000",
        "nonce": "0x341",
        "chainId": "0xaa36a7"
      },
      "additionalContracts": [],
      "isFixedGasLimit": false
    },
    {
      "hash": "0xa30643a49fe4e8e9320243e74400c40f5b089d4c45a38591bf96f90a7741bc13",
      "transactionType": "CALL",
      "contractName": null,
      "contractAddress": "0xfcb43bd05c71c52dbec18814957fd19ab332db4d",
      "function": "mint(address,uint32)",
      "arguments": [
        "0xAd9fDaD276AB1A430fD03177A07350CD7C61E897",
        "0"
      ],
      "transaction": {
        "from": "0xad9fdad276ab1a430fd03177a07350cd7c61e897",
        "to": "0xfcb43bd05c71c52dbec18814957fd19ab332db4d",
        "gas": "0x23675",
        "value": "0x0",
        "input": "0xd35e29d7000000000000000000000000ad9fdad276ab1a430fd03177a07350cd7c61e8970000000000000000000000000000000000000000000000000000000000000000",
        "nonce": "0x342",
        "chainId": "0xaa36a7"
      },
      "additionalContracts": [],
      "isFixedGasLimit": false
    },
    {
      "hash": "0x139d48f34e8f4ee1293f7e48f5d22f38e72618c5395e2773c2a208f6df47239d",
      "transactionType": "CALL",
      "contractName": null,
      "contractAddress": "0xfcb43bd05c71c52dbec18814957fd19ab332db4d",
      "function": "mint(address,uint32)",
      "arguments": [
        "0xAd9fDaD276AB1A430fD03177A07350CD7C61E897",
        "0"
      ],
      "transaction": {
        "from": "0xad9fdad276ab1a430fd03177a07350cd7c61e897",
        "to": "0xfcb43bd05c71c52dbec18814957fd19ab332db4d",
        "gas": "0x23675",
        "value": "0x0",
        "input": "0xd35e29d7000000000000000000000000ad9fdad276ab1a430fd03177a07350cd7c61e8970000000000000000000000000000000000000000000000000000000000000000",
        "nonce": "0x343",
        "chainId": "0xaa36a7"
      },
      "additionalContracts": [],
      "isFixedGasLimit": false
    },
    {
      "hash": "0x545d44739a2d68b517d4f082275c4056fea2f0ae6fbb2add18e17431c9b3851d",
      "transactionType": "CALL",
      "contractName": null,
      "contractAddress": "0xfcb43bd05c71c52dbec18814957fd19ab332db4d",
      "function": "mint(address,uint32)",
      "arguments": [
        "0xAd9fDaD276AB1A430fD03177A07350CD7C61E897",
        "0"
      ],
      "transaction": {
        "from": "0xad9fdad276ab1a430fd03177a07350cd7c61e897",
        "to": "0xfcb43bd05c71c52dbec18814957fd19ab332db4d",
        "gas": "0x23675",
        "value": "0x0",
        "input": "0xd35e29d7000000000000000000000000ad9fdad276ab1a430fd03177a07350cd7c61e8970000000000000000000000000000000000000000000000000000000000000000",
        "nonce": "0x344",
        "chainId": "0xaa36a7"
      },
      "additionalContracts": [],
      "isFixedGasLimit": false
    },
    {
      "hash": "0x0ac8cc7d9615dbd07ab5cd7b3bf4e8f15227d4840680454f52f352a7c2145372",
      "transactionType": "CALL",
      "contractName": null,
      "contractAddress": "0xfcb43bd05c71c52dbec18814957fd19ab332db4d",
      "function": "mint(address,uint32)",
      "arguments": [
        "0xAd9fDaD276AB1A430fD03177A07350CD7C61E897",
        "0"
      ],
      "transaction": {
        "from": "0xad9fdad276ab1a430fd03177a07350cd7c61e897",
        "to": "0xfcb43bd05c71c52dbec18814957fd19ab332db4d",
        "gas": "0x23675",
        "value": "0x0",
        "input": "0xd35e29d7000000000000000000000000ad9fdad276ab1a430fd03177a07350cd7c61e8970000000000000000000000000000000000000000000000000000000000000000",
        "nonce": "0x345",
        "chainId": "0xaa36a7"
      },
      "additionalContracts": [],
      "isFixedGasLimit": false
    },
    {
      "hash": "0x3d20d153c73d8766cdda957eac73c05d90d1f54685f5f9cf1b5bf5f99edc31e7",
      "transactionType": "CALL",
      "contractName": null,
      "contractAddress": "0xfcb43bd05c71c52dbec18814957fd19ab332db4d",
      "function": "mint(address,uint32)",
      "arguments": [
        "0xAd9fDaD276AB1A430fD03177A07350CD7C61E897",
        "0"
      ],
      "transaction": {
        "from": "0xad9fdad276ab1a430fd03177a07350cd7c61e897",
        "to": "0xfcb43bd05c71c52dbec18814957fd19ab332db4d",
        "gas": "0x23675",
        "value": "0x0",
        "input": "0xd35e29d7000000000000000000000000ad9fdad276ab1a430fd03177a07350cd7c61e8970000000000000000000000000000000000000000000000000000000000000000",
        "nonce": "0x346",
        "chainId": "0xaa36a7"
      },
      "additionalContracts": [],
      "isFixedGasLimit": false
    },
    {
      "hash": "0x8daf935ce50458f7139db736fb9b35eb3469b270dba3d636c78f04f3f92bbc2a",
      "transactionType": "CALL",
      "contractName": null,
      "contractAddress": "0xfcb43bd05c71c52dbec18814957fd19ab332db4d",
      "function": "mint(address,uint32)",
      "arguments": [
        "0xAd9fDaD276AB1A430fD03177A07350CD7C61E897",
        "0"
      ],
      "transaction": {
        "from": "0xad9fdad276ab1a430fd03177a07350cd7c61e897",
        "to": "0xfcb43bd05c71c52dbec18814957fd19ab332db4d",
        "gas": "0x23675",
        "value": "0x0",
        "input": "0xd35e29d7000000000000000000000000ad9fdad276ab1a430fd03177a07350cd7c61e8970000000000000000000000000000000000000000000000000000000000000000",
        "nonce": "0x347",
        "chainId": "0xaa36a7"
      },
      "additionalContracts": [],
      "isFixedGasLimit": false
    },
    {
      "hash": "0x5030b5e04a3b9ac47f85d52ed9e92d849308e0efb662a579b00ff0ae4d0472b2",
      "transactionType": "CALL",
      "contractName": null,
      "contractAddress": "0xfcb43bd05c71c52dbec18814957fd19ab332db4d",
      "function": "mint(address,uint32)",
      "arguments": [
        "0xAd9fDaD276AB1A430fD03177A07350CD7C61E897",
        "0"
      ],
      "transaction": {
        "from": "0xad9fdad276ab1a430fd03177a07350cd7c61e897",
        "to": "0xfcb43bd05c71c52dbec18814957fd19ab332db4d",
        "gas": "0x23675",
        "value": "0x0",
        "input": "0xd35e29d7000000000000000000000000ad9fdad276ab1a430fd03177a07350cd7c61e8970000000000000000000000000000000000000000000000000000000000000000",
        "nonce": "0x348",
        "chainId": "0xaa36a7"
      },
      "additionalContracts": [],
      "isFixedGasLimit": false
    },
    {
      "hash": "0xbf983cf7f441011ae210ff15ac119dbd792d202ad351895c69d9f42c83e75f6d",
      "transactionType": "CALL",
      "contractName": null,
      "contractAddress": "0xfcb43bd05c71c52dbec18814957fd19ab332db4d",
      "function": "mint(address,uint32)",
      "arguments": [
        "0xAd9fDaD276AB1A430fD03177A07350CD7C61E897",
        "0"
      ],
      "transaction": {
        "from": "0xad9fdad276ab1a430fd03177a07350cd7c61e897",
        "to": "0xfcb43bd05c71c52dbec18814957fd19ab332db4d",
        "gas": "0x23675",
        "value": "0x0",
        "input": "0xd35e29d7000000000000000000000000ad9fdad276ab1a430fd03177a07350cd7c61e8970000000000000000000000000000000000000000000000000000000000000000",
        "nonce": "0x349",
        "chainId": "0xaa36a7"
      },
      "additionalContracts": [],
      "isFixedGasLimit": false
    },
    {
      "hash": "0x48291bf81c4b43386eab8920d2e3e431c1e04432f8ead3b7361355e5342586bd",
      "transactionType": "CALL",
      "contractName": null,
      "contractAddress": "0xfcb43bd05c71c52dbec18814957fd19ab332db4d",
      "function": "mint(address,uint32)",
      "arguments": [
        "0xAd9fDaD276AB1A430fD03177A07350CD7C61E897",
        "0"
      ],
      "transaction": {
        "from": "0xad9fdad276ab1a430fd03177a07350cd7c61e897",
        "to": "0xfcb43bd05c71c52dbec18814957fd19ab332db4d",
        "gas": "0x23675",
        "value": "0x0",
        "input": "0xd35e29d7000000000000000000000000ad9fdad276ab1a430fd03177a07350cd7c61e8970000000000000000000000000000000000000000000000000000000000000000",
        "nonce": "0x34a",
        "chainId": "0xaa36a7"
      },
      "additionalContracts": [],
      "isFixedGasLimit": false
    },
    {
      "hash": "0xfa8f453c1115f3c1de7d080e9b3b84db0fcf305060ff62a25c6062ed4ebb58fa",
      "transactionType": "CALL",
      "contractName": null,
      "contractAddress": "0xfcb43bd05c71c52dbec18814957fd19ab332db4d",
      "function": "mint(address,uint32)",
      "arguments": [
        "0xAd9fDaD276AB1A430fD03177A07350CD7C61E897",
        "0"
      ],
      "transaction": {
        "from": "0xad9fdad276ab1a430fd03177a07350cd7c61e897",
        "to": "0xfcb43bd05c71c52dbec18814957fd19ab332db4d",
        "gas": "0x23675",
        "value": "0x0",
        "input": "0xd35e29d7000000000000000000000000ad9fdad276ab1a430fd03177a07350cd7c61e8970000000000000000000000000000000000000000000000000000000000000000",
        "nonce": "0x34b",
        "chainId": "0xaa36a7"
      },
      "additionalContracts": [],
      "isFixedGasLimit": false
    },
    {
      "hash": "0xf0d1d4190c1cd287a211e07cbac32630dad79aaa2d9f62024e267e9d467bcf4d",
      "transactionType": "CALL",
      "contractName": null,
      "contractAddress": "0xfcb43bd05c71c52dbec18814957fd19ab332db4d",
      "function": "mint(address,uint32)",
      "arguments": [
        "0xAd9fDaD276AB1A430fD03177A07350CD7C61E897",
        "0"
      ],
      "transaction": {
        "from": "0xad9fdad276ab1a430fd03177a07350cd7c61e897",
        "to": "0xfcb43bd05c71c52dbec18814957fd19ab332db4d",
        "gas": "0x23675",
        "value": "0x0",
        "input": "0xd35e29d7000000000000000000000000ad9fdad276ab1a430fd03177a07350cd7c61e8970000000000000000000000000000000000000000000000000000000000000000",
        "nonce": "0x34c",
        "chainId": "0xaa36a7"
      },
      "additionalContracts": [],
      "isFixedGasLimit": false
    },
    {
      "hash": "0xb31b1ee1325897fe5c014cdf11f3023791750e691e6089ebb24cfab6aaec9a63",
      "transactionType": "CALL",
      "contractName": null,
      "contractAddress": "0xfcb43bd05c71c52dbec18814957fd19ab332db4d",
      "function": "mint(address,uint32)",
      "arguments": [
        "0xAd9fDaD276AB1A430fD03177A07350CD7C61E897",
        "0"
      ],
      "transaction": {
        "from": "0xad9fdad276ab1a430fd03177a07350cd7c61e897",
        "to": "0xfcb43bd05c71c52dbec18814957fd19ab332db4d",
        "gas": "0x23675",
        "value": "0x0",
        "input": "0xd35e29d7000000000000000000000000ad9fdad276ab1a430fd03177a07350cd7c61e8970000000000000000000000000000000000000000000000000000000000000000",
        "nonce": "0x34d",
        "chainId": "0xaa36a7"
      },
      "additionalContracts": [],
      "isFixedGasLimit": false
    },
    {
      "hash": "0x22984748016d9600990921a4be47e34af84aa32598d05bf78994137ae64aaa17",
      "transactionType": "CALL",
      "contractName": null,
      "contractAddress": "0xfcb43bd05c71c52dbec18814957fd19ab332db4d",
      "function": "mint(address,uint32)",
      "arguments": [
        "0xAd9fDaD276AB1A430fD03177A07350CD7C61E897",
        "0"
      ],
      "transaction": {
        "from": "0xad9fdad276ab1a430fd03177a07350cd7c61e897",
        "to": "0xfcb43bd05c71c52dbec18814957fd19ab332db4d",
        "gas": "0x23675",
        "value": "0x0",
        "input": "0xd35e29d7000000000000000000000000ad9fdad276ab1a430fd03177a07350cd7c61e8970000000000000000000000000000000000000000000000000000000000000000",
        "nonce": "0x34e",
        "chainId": "0xaa36a7"
      },
      "additionalContracts": [],
      "isFixedGasLimit": false
    },
    {
      "hash": "0xb9415bc6682088f57e7e5a22b2a9a89fea9b5a14a0b493f29e3091055c419d93",
      "transactionType": "CALL",
      "contractName": null,
      "contractAddress": "0xfcb43bd05c71c52dbec18814957fd19ab332db4d",
      "function": "mint(address,uint32)",
      "arguments": [
        "0xAd9fDaD276AB1A430fD03177A07350CD7C61E897",
        "0"
      ],
      "transaction": {
        "from": "0xad9fdad276ab1a430fd03177a07350cd7c61e897",
        "to": "0xfcb43bd05c71c52dbec18814957fd19ab332db4d",
        "gas": "0x23675",
        "value": "0x0",
        "input": "0xd35e29d7000000000000000000000000ad9fdad276ab1a430fd03177a07350cd7c61e8970000000000000000000000000000000000000000000000000000000000000000",
        "nonce": "0x34f",
        "chainId": "0xaa36a7"
      },
      "additionalContracts": [],
      "isFixedGasLimit": false
    },
    {
      "hash": "0x34f46ca43f0a9ecdad3e9d9e2dc438fd3a679ffaf4e089d29b6a0045072fa559",
      "transactionType": "CALL",
      "contractName": null,
      "contractAddress": "0xfcb43bd05c71c52dbec18814957fd19ab332db4d",
      "function": "mint(address,uint32)",
      "arguments": [
        "0xAd9fDaD276AB1A430fD03177A07350CD7C61E897",
        "0"
      ],
      "transaction": {
        "from": "0xad9fdad276ab1a430fd03177a07350cd7c61e897",
        "to": "0xfcb43bd05c71c52dbec18814957fd19ab332db4d",
        "gas": "0x23675",
        "value": "0x0",
        "input": "0xd35e29d7000000000000000000000000ad9fdad276ab1a430fd03177a07350cd7c61e8970000000000000000000000000000000000000000000000000000000000000000",
        "nonce": "0x350",
        "chainId": "0xaa36a7"
      },
      "additionalContracts": [],
      "isFixedGasLimit": false
    },
    {
      "hash": "0x8fcc5066d3975a405f0f1f6e4f66808fd4795b8f2d427a474c79781220568ce9",
      "transactionType": "CALL",
      "contractName": null,
      "contractAddress": "0xfcb43bd05c71c52dbec18814957fd19ab332db4d",
      "function": "mint(address,uint32)",
      "arguments": [
        "0xAd9fDaD276AB1A430fD03177A07350CD7C61E897",
        "0"
      ],
      "transaction": {
        "from": "0xad9fdad276ab1a430fd03177a07350cd7c61e897",
        "to": "0xfcb43bd05c71c52dbec18814957fd19ab332db4d",
        "gas": "0x23675",
        "value": "0x0",
        "input": "0xd35e29d7000000000000000000000000ad9fdad276ab1a430fd03177a07350cd7c61e8970000000000000000000000000000000000000000000000000000000000000000",
        "nonce": "0x351",
        "chainId": "0xaa36a7"
      },
      "additionalContracts": [],
      "isFixedGasLimit": false
    },
    {
      "hash": "0x7a5de7e8b791c83d6011e8206236652b08cc69fa20858e396f5b641cd6c6f298",
      "transactionType": "CALL",
      "contractName": null,
      "contractAddress": "0xfcb43bd05c71c52dbec18814957fd19ab332db4d",
      "function": "mint(address,uint32)",
      "arguments": [
        "0xAd9fDaD276AB1A430fD03177A07350CD7C61E897",
        "0"
      ],
      "transaction": {
        "from": "0xad9fdad276ab1a430fd03177a07350cd7c61e897",
        "to": "0xfcb43bd05c71c52dbec18814957fd19ab332db4d",
        "gas": "0x23675",
        "value": "0x0",
        "input": "0xd35e29d7000000000000000000000000ad9fdad276ab1a430fd03177a07350cd7c61e8970000000000000000000000000000000000000000000000000000000000000000",
        "nonce": "0x352",
        "chainId": "0xaa36a7"
      },
      "additionalContracts": [],
      "isFixedGasLimit": false
    },
    {
      "hash": "0x0cf3a57f6e84b36c7f9982cc91b45b313ac4c14bdce27e784e48d2d311af577e",
      "transactionType": "CALL",
      "contractName": null,
      "contractAddress": "0xfcb43bd05c71c52dbec18814957fd19ab332db4d",
      "function": "mint(address,uint32)",
      "arguments": [
        "0xAd9fDaD276AB1A430fD03177A07350CD7C61E897",
        "0"
      ],
      "transaction": {
        "from": "0xad9fdad276ab1a430fd03177a07350cd7c61e897",
        "to": "0xfcb43bd05c71c52dbec18814957fd19ab332db4d",
        "gas": "0x23675",
        "value": "0x0",
        "input": "0xd35e29d7000000000000000000000000ad9fdad276ab1a430fd03177a07350cd7c61e8970000000000000000000000000000000000000000000000000000000000000000",
        "nonce": "0x353",
        "chainId": "0xaa36a7"
      },
      "additionalContracts": [],
      "isFixedGasLimit": false
    },
    {
      "hash": "0xee0b2155f07c27a9679623d2d31793750a3adc54c049d95d8964b61a93076ab7",
      "transactionType": "CALL",
      "contractName": null,
      "contractAddress": "0xfcb43bd05c71c52dbec18814957fd19ab332db4d",
      "function": "mint(address,uint32)",
      "arguments": [
        "0xAd9fDaD276AB1A430fD03177A07350CD7C61E897",
        "0"
      ],
      "transaction": {
        "from": "0xad9fdad276ab1a430fd03177a07350cd7c61e897",
        "to": "0xfcb43bd05c71c52dbec18814957fd19ab332db4d",
        "gas": "0x23675",
        "value": "0x0",
        "input": "0xd35e29d7000000000000000000000000ad9fdad276ab1a430fd03177a07350cd7c61e8970000000000000000000000000000000000000000000000000000000000000000",
        "nonce": "0x354",
        "chainId": "0xaa36a7"
      },
      "additionalContracts": [],
      "isFixedGasLimit": false
    },
    {
      "hash": "0x505c78293f835de83446791ec2eb23d15f7636df60b4e50ae0c7173993a9577f",
      "transactionType": "CALL",
      "contractName": null,
      "contractAddress": "0xfcb43bd05c71c52dbec18814957fd19ab332db4d",
      "function": "mint(address,uint32)",
      "arguments": [
        "0xAd9fDaD276AB1A430fD03177A07350CD7C61E897",
        "0"
      ],
      "transaction": {
        "from": "0xad9fdad276ab1a430fd03177a07350cd7c61e897",
        "to": "0xfcb43bd05c71c52dbec18814957fd19ab332db4d",
        "gas": "0x23675",
        "value": "0x0",
        "input": "0xd35e29d7000000000000000000000000ad9fdad276ab1a430fd03177a07350cd7c61e8970000000000000000000000000000000000000000000000000000000000000000",
        "nonce": "0x355",
        "chainId": "0xaa36a7"
      },
      "additionalContracts": [],
      "isFixedGasLimit": false
    },
    {
      "hash": "0xb1d674eec67d1119e981a103502082ab35b5a0ef9c7aa7473f586f11f2361133",
      "transactionType": "CALL",
      "contractName": null,
      "contractAddress": "0xfcb43bd05c71c52dbec18814957fd19ab332db4d",
      "function": "mint(address,uint32)",
      "arguments": [
        "0xAd9fDaD276AB1A430fD03177A07350CD7C61E897",
        "0"
      ],
      "transaction": {
        "from": "0xad9fdad276ab1a430fd03177a07350cd7c61e897",
        "to": "0xfcb43bd05c71c52dbec18814957fd19ab332db4d",
        "gas": "0x23675",
        "value": "0x0",
        "input": "0xd35e29d7000000000000000000000000ad9fdad276ab1a430fd03177a07350cd7c61e8970000000000000000000000000000000000000000000000000000000000000000",
        "nonce": "0x356",
        "chainId": "0xaa36a7"
      },
      "additionalContracts": [],
      "isFixedGasLimit": false
    },
    {
      "hash": "0x37f7c946157011a7cbe1125476f3c27d692df8d3a6019060126c9b2fdaaf3c9a",
      "transactionType": "CALL",
      "contractName": null,
      "contractAddress": "0xfcb43bd05c71c52dbec18814957fd19ab332db4d",
      "function": "mint(address,uint32)",
      "arguments": [
        "0xAd9fDaD276AB1A430fD03177A07350CD7C61E897",
        "0"
      ],
      "transaction": {
        "from": "0xad9fdad276ab1a430fd03177a07350cd7c61e897",
        "to": "0xfcb43bd05c71c52dbec18814957fd19ab332db4d",
        "gas": "0x23675",
        "value": "0x0",
        "input": "0xd35e29d7000000000000000000000000ad9fdad276ab1a430fd03177a07350cd7c61e8970000000000000000000000000000000000000000000000000000000000000000",
        "nonce": "0x357",
        "chainId": "0xaa36a7"
      },
      "additionalContracts": [],
      "isFixedGasLimit": false
    },
    {
      "hash": "0x6497c56f5c984a5cdf9b5774cffb22bea95e39f115503c9fbc7d1c81f718f99c",
      "transactionType": "CALL",
      "contractName": null,
      "contractAddress": "0xfcb43bd05c71c52dbec18814957fd19ab332db4d",
      "function": "mint(address,uint32)",
      "arguments": [
        "0xAd9fDaD276AB1A430fD03177A07350CD7C61E897",
        "0"
      ],
      "transaction": {
        "from": "0xad9fdad276ab1a430fd03177a07350cd7c61e897",
        "to": "0xfcb43bd05c71c52dbec18814957fd19ab332db4d",
        "gas": "0x23675",
        "value": "0x0",
        "input": "0xd35e29d7000000000000000000000000ad9fdad276ab1a430fd03177a07350cd7c61e8970000000000000000000000000000000000000000000000000000000000000000",
        "nonce": "0x358",
        "chainId": "0xaa36a7"
      },
      "additionalContracts": [],
      "isFixedGasLimit": false
    },
    {
      "hash": "0xd79da01afd37c0160e7a41a6af6e2f79e2eac5faefebd521eea49d09ab02f2e7",
      "transactionType": "CALL",
      "contractName": null,
      "contractAddress": "0xfcb43bd05c71c52dbec18814957fd19ab332db4d",
      "function": "mint(address,uint32)",
      "arguments": [
        "0xAd9fDaD276AB1A430fD03177A07350CD7C61E897",
        "0"
      ],
      "transaction": {
        "from": "0xad9fdad276ab1a430fd03177a07350cd7c61e897",
        "to": "0xfcb43bd05c71c52dbec18814957fd19ab332db4d",
        "gas": "0x23675",
        "value": "0x0",
        "input": "0xd35e29d7000000000000000000000000ad9fdad276ab1a430fd03177a07350cd7c61e8970000000000000000000000000000000000000000000000000000000000000000",
        "nonce": "0x359",
        "chainId": "0xaa36a7"
      },
      "additionalContracts": [],
      "isFixedGasLimit": false
    },
    {
      "hash": "0xc20c047840e7b71c6cd5e715671821e4075c4f376f2b36d94a24f69497f7cba1",
      "transactionType": "CALL",
      "contractName": null,
      "contractAddress": "0xfcb43bd05c71c52dbec18814957fd19ab332db4d",
      "function": "mint(address,uint32)",
      "arguments": [
        "0xAd9fDaD276AB1A430fD03177A07350CD7C61E897",
        "0"
      ],
      "transaction": {
        "from": "0xad9fdad276ab1a430fd03177a07350cd7c61e897",
        "to": "0xfcb43bd05c71c52dbec18814957fd19ab332db4d",
        "gas": "0x23675",
        "value": "0x0",
        "input": "0xd35e29d7000000000000000000000000ad9fdad276ab1a430fd03177a07350cd7c61e8970000000000000000000000000000000000000000000000000000000000000000",
        "nonce": "0x35a",
        "chainId": "0xaa36a7"
      },
      "additionalContracts": [],
      "isFixedGasLimit": false
    },
    {
      "hash": "0x83904d02938b1ae6e834fb55c773635331760b402d96353b0df2269bf19f0a87",
      "transactionType": "CALL",
      "contractName": null,
      "contractAddress": "0xfcb43bd05c71c52dbec18814957fd19ab332db4d",
      "function": "mint(address,uint32)",
      "arguments": [
        "0xAd9fDaD276AB1A430fD03177A07350CD7C61E897",
        "0"
      ],
      "transaction": {
        "from": "0xad9fdad276ab1a430fd03177a07350cd7c61e897",
        "to": "0xfcb43bd05c71c52dbec18814957fd19ab332db4d",
        "gas": "0x23675",
        "value": "0x0",
        "input": "0xd35e29d7000000000000000000000000ad9fdad276ab1a430fd03177a07350cd7c61e8970000000000000000000000000000000000000000000000000000000000000000",
        "nonce": "0x35b",
        "chainId": "0xaa36a7"
      },
      "additionalContracts": [],
      "isFixedGasLimit": false
    }
  ],
  "receipts": [
    {
      "status": "0x1",
      "cumulativeGasUsed": "0x680d62",
      "logs": [
        {
          "address": "0xfcb43bd05c71c52dbec18814957fd19ab332db4d",
          "topics": [
            "0xddf252ad1be2c89b69c2b068fc378daa952ba7f163c4a11628f55a4df523b3ef",
            "0x0000000000000000000000000000000000000000000000000000000000000000",
            "0x000000000000000000000000ad9fdad276ab1a430fd03177a07350cd7c61e897",
            "0x0000000000000000000000000000000000000000000000000000000000000001"
          ],
          "data": "0x",
          "blockHash": "0x58c3956120e96e27a05544811b8182fedcf30f928550d947f3726d5344da9319",
          "blockNumber": "0x916fee",
          "blockTimestamp": "0x6904eaec",
          "transactionHash": "0xa668b35ff91098d100aae323ec62492b67fe577fcadb4d450b3d2cf03b876697",
          "transactionIndex": "0x35",
          "logIndex": "0x56",
          "removed": false
        }
      ],
      "logsBloom": "0x00000000000000000000000000000000000000000000000000000000000000000000000000000000000000000000000000000000000000000000000000040000000000000000004000000008000000000000000000040000000000000000000000000000020000000000000000000800000000000000000000000010000000000000000000080040000000000004400000000000000000000000000000000000000010000000000000000000000000000000000000000000000000000000000000000002000000000000000000000000000000000000000000000000000060000000000000000000000000000000000000000000000000000000000000000000",
      "type": "0x0",
      "transactionHash": "0xa668b35ff91098d100aae323ec62492b67fe577fcadb4d450b3d2cf03b876697",
      "transactionIndex": "0x35",
      "blockHash": "0x58c3956120e96e27a05544811b8182fedcf30f928550d947f3726d5344da9319",
      "blockNumber": "0x916fee",
      "gasUsed": "0x1d1f8",
      "effectiveGasPrice": "0xf4249",
      "from": "0xad9fdad276ab1a430fd03177a07350cd7c61e897",
      "to": "0xfcb43bd05c71c52dbec18814957fd19ab332db4d",
      "contractAddress": null
    },
    {
      "status": "0x1",
      "cumulativeGasUsed": "0x69a77e",
      "logs": [
        {
          "address": "0xfcb43bd05c71c52dbec18814957fd19ab332db4d",
          "topics": [
            "0xddf252ad1be2c89b69c2b068fc378daa952ba7f163c4a11628f55a4df523b3ef",
            "0x0000000000000000000000000000000000000000000000000000000000000000",
            "0x000000000000000000000000ad9fdad276ab1a430fd03177a07350cd7c61e897",
            "0x0000000000000000000000000000000000000000000000000000000000000002"
          ],
          "data": "0x",
          "blockHash": "0x58c3956120e96e27a05544811b8182fedcf30f928550d947f3726d5344da9319",
          "blockNumber": "0x916fee",
          "blockTimestamp": "0x6904eaec",
          "transactionHash": "0x72cae235fa977de9c5f4fed3e6cc27a0c620ac072d207ff14fc2b3e645c56e81",
          "transactionIndex": "0x36",
          "logIndex": "0x57",
          "removed": false
        }
      ],
      "logsBloom": "0x04000000000000000000000000000000000000000000000000000000000000000000000000000000000000000000000000000000000000000000000000000000000000000000004000000008000000000000000000000000000000000000000000000000020000000000000000000800000000000000000000000010000000000000000000080040000000000004400000000000000000000000000000000000000010000000000000000100000000000000000000000000000000000000000000000002000000000000000000000000000000000000000000000000000020000000000000000000000000000000000000000000008000000000000000000000",
      "type": "0x0",
      "transactionHash": "0x72cae235fa977de9c5f4fed3e6cc27a0c620ac072d207ff14fc2b3e645c56e81",
      "transactionIndex": "0x36",
      "blockHash": "0x58c3956120e96e27a05544811b8182fedcf30f928550d947f3726d5344da9319",
      "blockNumber": "0x916fee",
      "gasUsed": "0x19a1c",
      "effectiveGasPrice": "0xf4249",
      "from": "0xad9fdad276ab1a430fd03177a07350cd7c61e897",
      "to": "0xfcb43bd05c71c52dbec18814957fd19ab332db4d",
      "contractAddress": null
    },
    {
      "status": "0x1",
      "cumulativeGasUsed": "0x6b419a",
      "logs": [
        {
          "address": "0xfcb43bd05c71c52dbec18814957fd19ab332db4d",
          "topics": [
            "0xddf252ad1be2c89b69c2b068fc378daa952ba7f163c4a11628f55a4df523b3ef",
            "0x0000000000000000000000000000000000000000000000000000000000000000",
            "0x000000000000000000000000ad9fdad276ab1a430fd03177a07350cd7c61e897",
            "0x0000000000000000000000000000000000000000000000000000000000000003"
          ],
          "data": "0x",
          "blockHash": "0x58c3956120e96e27a05544811b8182fedcf30f928550d947f3726d5344da9319",
          "blockNumber": "0x916fee",
          "blockTimestamp": "0x6904eaec",
          "transactionHash": "0x2c06b075150ec467dd1c6634335fda01e026d6f9bb7027eec29ab2e46c3825bf",
          "transactionIndex": "0x37",
          "logIndex": "0x58",
          "removed": false
        }
      ],
      "logsBloom": "0x00000000000000000000000000000000000000000000000000000000000000000000000000000000000000000000000000000000020000000000000000000000000000000000004000000008000000000000000000000000000000000000000000000000020000000000000000000800000000000000000000000010000000000000000000080040000000000004400000000000000000000000000000000000000010000000000000000000000000000000000000800000000000000000400000000002000000000000000000000000000000000000000000000000000020000000000000000000000000000000000000000000000000000000000000000000",
      "type": "0x0",
      "transactionHash": "0x2c06b075150ec467dd1c6634335fda01e026d6f9bb7027eec29ab2e46c3825bf",
      "transactionIndex": "0x37",
      "blockHash": "0x58c3956120e96e27a05544811b8182fedcf30f928550d947f3726d5344da9319",
      "blockNumber": "0x916fee",
      "gasUsed": "0x19a1c",
      "effectiveGasPrice": "0xf4249",
      "from": "0xad9fdad276ab1a430fd03177a07350cd7c61e897",
      "to": "0xfcb43bd05c71c52dbec18814957fd19ab332db4d",
      "contractAddress": null
    },
    {
      "status": "0x1",
      "cumulativeGasUsed": "0x6cdbb6",
      "logs": [
        {
          "address": "0xfcb43bd05c71c52dbec18814957fd19ab332db4d",
          "topics": [
            "0xddf252ad1be2c89b69c2b068fc378daa952ba7f163c4a11628f55a4df523b3ef",
            "0x0000000000000000000000000000000000000000000000000000000000000000",
            "0x000000000000000000000000ad9fdad276ab1a430fd03177a07350cd7c61e897",
            "0x0000000000000000000000000000000000000000000000000000000000000004"
          ],
          "data": "0x",
          "blockHash": "0x58c3956120e96e27a05544811b8182fedcf30f928550d947f3726d5344da9319",
          "blockNumber": "0x916fee",
          "blockTimestamp": "0x6904eaec",
          "transactionHash": "0xbc5cd2de0304705fe2b0b007cd52a20c7b3932e0551709de71101390d6d7a9e7",
          "transactionIndex": "0x38",
          "logIndex": "0x59",
          "removed": false
        }
      ],
      "logsBloom": "0x00000000000000000000000000000000000000000000000000000000000000000000000000000000000000000000000000000000000000000000000000000000000000000000004000000008000000000000000000000000000000000000000008000000020000000000000000000800000000000000000000000010000000000000000000080040000000000004400000000000000000000000000000000000000010000000000000000000000000000000000000000000002000000000000000000002000000000000000000000000000000008000000000000000000020000000000000000000000000000000000000000000000000000000000000000000",
      "type": "0x0",
      "transactionHash": "0xbc5cd2de0304705fe2b0b007cd52a20c7b3932e0551709de71101390d6d7a9e7",
      "transactionIndex": "0x38",
      "blockHash": "0x58c3956120e96e27a05544811b8182fedcf30f928550d947f3726d5344da9319",
      "blockNumber": "0x916fee",
      "gasUsed": "0x19a1c",
      "effectiveGasPrice": "0xf4249",
      "from": "0xad9fdad276ab1a430fd03177a07350cd7c61e897",
      "to": "0xfcb43bd05c71c52dbec18814957fd19ab332db4d",
      "contractAddress": null
    },
    {
      "status": "0x1",
      "cumulativeGasUsed": "0x6e75d2",
      "logs": [
        {
          "address": "0xfcb43bd05c71c52dbec18814957fd19ab332db4d",
          "topics": [
            "0xddf252ad1be2c89b69c2b068fc378daa952ba7f163c4a11628f55a4df523b3ef",
            "0x0000000000000000000000000000000000000000000000000000000000000000",
            "0x000000000000000000000000ad9fdad276ab1a430fd03177a07350cd7c61e897",
            "0x0000000000000000000000000000000000000000000000000000000000000005"
          ],
          "data": "0x",
          "blockHash": "0x58c3956120e96e27a05544811b8182fedcf30f928550d947f3726d5344da9319",
          "blockNumber": "0x916fee",
          "blockTimestamp": "0x6904eaec",
          "transactionHash": "0xaa90e08271d19af5313a13531eaa8fb9d14dd0a99a72acadd47e62383140089a",
          "transactionIndex": "0x39",
          "logIndex": "0x5a",
          "removed": false
        }
      ],
      "logsBloom": "0x00000000000000000000000000000000000000000000000000000000000000000000000000000000000000000000000000000000000000000000000000000000000010000000004000000008000000000000000000000000000000000000000000000000020000000000000000000800000000000000000000000010000000000000000000080040000000000004401000000800000000000000000000000000000010000000000000000000000000000000000000000000000000000000000000000002000000000000000000000000000000000000000000000000000020000000000000000000000000000000000000000000000000000000000000000000",
      "type": "0x0",
      "transactionHash": "0xaa90e08271d19af5313a13531eaa8fb9d14dd0a99a72acadd47e62383140089a",
      "transactionIndex": "0x39",
      "blockHash": "0x58c3956120e96e27a05544811b8182fedcf30f928550d947f3726d5344da9319",
      "blockNumber": "0x916fee",
      "gasUsed": "0x19a1c",
      "effectiveGasPrice": "0xf4249",
      "from": "0xad9fdad276ab1a430fd03177a07350cd7c61e897",
      "to": "0xfcb43bd05c71c52dbec18814957fd19ab332db4d",
      "contractAddress": null
    },
    {
      "status": "0x1",
      "cumulativeGasUsed": "0x700fee",
      "logs": [
        {
          "address": "0xfcb43bd05c71c52dbec18814957fd19ab332db4d",
          "topics": [
            "0xddf252ad1be2c89b69c2b068fc378daa952ba7f163c4a11628f55a4df523b3ef",
            "0x0000000000000000000000000000000000000000000000000000000000000000",
            "0x000000000000000000000000ad9fdad276ab1a430fd03177a07350cd7c61e897",
            "0x0000000000000000000000000000000000000000000000000000000000000006"
          ],
          "data": "0x",
          "blockHash": "0x58c3956120e96e27a05544811b8182fedcf30f928550d947f3726d5344da9319",
          "blockNumber": "0x916fee",
          "blockTimestamp": "0x6904eaec",
          "transactionHash": "0xf514579e7bc7623fd0d853ac265306c6a834d1bdf8758994ad0728415ba13c3f",
          "transactionIndex": "0x3a",
          "logIndex": "0x5b",
          "removed": false
        }
      ],
      "logsBloom": "0x00000000000000000000000000000000000000000000000000000000000000000000000000000000000000000000000000000000000400000000000000000000000000000000004000000008000000000000000000000000000000000000000000000000020000000000000000000800000000000000000000000010000000000000000400080040000000000004400000000000000000000000000000000000000010000000000000000000000000000000000000000000000000080000000000000002000000000000000000000000000000000000000000000000000020000000000000000000000000000000000000000000000000000000000000000000",
      "type": "0x0",
      "transactionHash": "0xf514579e7bc7623fd0d853ac265306c6a834d1bdf8758994ad0728415ba13c3f",
      "transactionIndex": "0x3a",
      "blockHash": "0x58c3956120e96e27a05544811b8182fedcf30f928550d947f3726d5344da9319",
      "blockNumber": "0x916fee",
      "gasUsed": "0x19a1c",
      "effectiveGasPrice": "0xf4249",
      "from": "0xad9fdad276ab1a430fd03177a07350cd7c61e897",
      "to": "0xfcb43bd05c71c52dbec18814957fd19ab332db4d",
      "contractAddress": null
    },
    {
      "status": "0x1",
      "cumulativeGasUsed": "0x71aa0a",
      "logs": [
        {
          "address": "0xfcb43bd05c71c52dbec18814957fd19ab332db4d",
          "topics": [
            "0xddf252ad1be2c89b69c2b068fc378daa952ba7f163c4a11628f55a4df523b3ef",
            "0x0000000000000000000000000000000000000000000000000000000000000000",
            "0x000000000000000000000000ad9fdad276ab1a430fd03177a07350cd7c61e897",
            "0x0000000000000000000000000000000000000000000000000000000000000007"
          ],
          "data": "0x",
          "blockHash": "0x58c3956120e96e27a05544811b8182fedcf30f928550d947f3726d5344da9319",
          "blockNumber": "0x916fee",
          "blockTimestamp": "0x6904eaec",
          "transactionHash": "0x1cf412e561ccd5167950de0ad91e5d46c666933beb8538e67156e4e550b78de1",
          "transactionIndex": "0x3b",
          "logIndex": "0x5c",
          "removed": false
        }
      ],
      "logsBloom": "0x00000000000000000000000000000000000000000000000000000000000000000000000000000000000000000000000000001000000000000000000000000000000020000000004000000008000000000000000000000000000000000000000000000000020000000000000000000800000000000000000000000010000000000000000000080040000000000004400000000000000000000000000000000000000010000000000000000000000000000000000000000000000000000000000000000002000000000000000000000000000000000000000000000100000020000000000000000000000000000000000000000000000000000000000000000000",
      "type": "0x0",
      "transactionHash": "0x1cf412e561ccd5167950de0ad91e5d46c666933beb8538e67156e4e550b78de1",
      "transactionIndex": "0x3b",
      "blockHash": "0x58c3956120e96e27a05544811b8182fedcf30f928550d947f3726d5344da9319",
      "blockNumber": "0x916fee",
      "gasUsed": "0x19a1c",
      "effectiveGasPrice": "0xf4249",
      "from": "0xad9fdad276ab1a430fd03177a07350cd7c61e897",
      "to": "0xfcb43bd05c71c52dbec18814957fd19ab332db4d",
      "contractAddress": null
    },
    {
      "status": "0x1",
      "cumulativeGasUsed": "0x734426",
      "logs": [
        {
          "address": "0xfcb43bd05c71c52dbec18814957fd19ab332db4d",
          "topics": [
            "0xddf252ad1be2c89b69c2b068fc378daa952ba7f163c4a11628f55a4df523b3ef",
            "0x0000000000000000000000000000000000000000000000000000000000000000",
            "0x000000000000000000000000ad9fdad276ab1a430fd03177a07350cd7c61e897",
            "0x0000000000000000000000000000000000000000000000000000000000000008"
          ],
          "data": "0x",
          "blockHash": "0x58c3956120e96e27a05544811b8182fedcf30f928550d947f3726d5344da9319",
          "blockNumber": "0x916fee",
          "blockTimestamp": "0x6904eaec",
          "transactionHash": "0xfab932beb6253deb3bf7954227b606cd45ab928cb1ee14af23377b4e77480aac",
          "transactionIndex": "0x3c",
          "logIndex": "0x5d",
          "removed": false
        }
      ],
      "logsBloom": "0x00000000000000000000000000000000000000000000000000000000000000000000000000000000000000000000000000000000000080000000000000000000000000000000004000000008000000000000000000000000000000000000000000000000020000000000000000000800000000000000000000000010000000000080000000080040000000000004400000000000000000000000000000000000000010000000000000000000000000000000000000000000000000000000000040000002000000000000000000000000000000000000000000000000000020000000000000000000000000000000000000000000000000000000000000000000",
      "type": "0x0",
      "transactionHash": "0xfab932beb6253deb3bf7954227b606cd45ab928cb1ee14af23377b4e77480aac",
      "transactionIndex": "0x3c",
      "blockHash": "0x58c3956120e96e27a05544811b8182fedcf30f928550d947f3726d5344da9319",
      "blockNumber": "0x916fee",
      "gasUsed": "0x19a1c",
      "effectiveGasPrice": "0xf4249",
      "from": "0xad9fdad276ab1a430fd03177a07350cd7c61e897",
      "to": "0xfcb43bd05c71c52dbec18814957fd19ab332db4d",
      "contractAddress": null
    },
    {
      "status": "0x1",
      "cumulativeGasUsed": "0x74de42",
      "logs": [
        {
          "address": "0xfcb43bd05c71c52dbec18814957fd19ab332db4d",
          "topics": [
            "0xddf252ad1be2c89b69c2b068fc378daa952ba7f163c4a11628f55a4df523b3ef",
            "0x0000000000000000000000000000000000000000000000000000000000000000",
            "0x000000000000000000000000ad9fdad276ab1a430fd03177a07350cd7c61e897",
            "0x0000000000000000000000000000000000000000000000000000000000000009"
          ],
          "data": "0x",
          "blockHash": "0x58c3956120e96e27a05544811b8182fedcf30f928550d947f3726d5344da9319",
          "blockNumber": "0x916fee",
          "blockTimestamp": "0x6904eaec",
          "transactionHash": "0xd45c15ea7c77aee3baf5b30ab8828e255727e1ab7998913b5133d3f31bd44572",
          "transactionIndex": "0x3d",
          "logIndex": "0x5e",
          "removed": false
        }
      ],
      "logsBloom": "0x00000000000000000000000000000000000000000000000000000000000000000000000000000000000000000000000000000000000000000000000000200000000000000000004000000008000000000000000000000000000000000000000000000000020000000000000000000800000000000000000000000010000000000000000000080040000000000004400000001000000000000000000000000000000010000000000000000000000000000000000000000000000000000000000000000002000000000000000000000000000000000000000000000000000020000000000000000000000000000000000000000000000000000000000000800000",
      "type": "0x0",
      "transactionHash": "0xd45c15ea7c77aee3baf5b30ab8828e255727e1ab7998913b5133d3f31bd44572",
      "transactionIndex": "0x3d",
      "blockHash": "0x58c3956120e96e27a05544811b8182fedcf30f928550d947f3726d5344da9319",
      "blockNumber": "0x916fee",
      "gasUsed": "0x19a1c",
      "effectiveGasPrice": "0xf4249",
      "from": "0xad9fdad276ab1a430fd03177a07350cd7c61e897",
      "to": "0xfcb43bd05c71c52dbec18814957fd19ab332db4d",
      "contractAddress": null
    },
    {
      "status": "0x1",
      "cumulativeGasUsed": "0x76785e",
      "logs": [
        {
          "address": "0xfcb43bd05c71c52dbec18814957fd19ab332db4d",
          "topics": [
            "0xddf252ad1be2c89b69c2b068fc378daa952ba7f163c4a11628f55a4df523b3ef",
            "0x0000000000000000000000000000000000000000000000000000000000000000",
            "0x000000000000000000000000ad9fdad276ab1a430fd03177a07350cd7c61e897",
            "0x000000000000000000000000000000000000000000000000000000000000000a"
          ],
          "data": "0x",
          "blockHash": "0x58c3956120e96e27a05544811b8182fedcf30f928550d947f3726d5344da9319",
          "blockNumber": "0x916fee",
          "blockTimestamp": "0x6904eaec",
          "transactionHash": "0xb78654658a786f42a111c8b274fd3330f1a28032730d327db5af0585bc11dda0",
          "transactionIndex": "0x3e",
          "logIndex": "0x5f",
          "removed": false
        }
      ],
      "logsBloom": "0x00000000000000000000000000000000000000000000000000000000000000000000000000000000000000000000000000000000040000000020000000000000000000000000004000000008000000000000000000000000000000000000000000000000020000000000000000000800000000000000000000000010000000000000000000080040010000000004400000000000000000000000000000000000000010000000000000000000000000000000000000000000000000000000000000000002000000000000000000000000000000000000000000000000000020000000000000000000000000000000000000000000000000000000000000000000",
      "type": "0x0",
      "transactionHash": "0xb78654658a786f42a111c8b274fd3330f1a28032730d327db5af0585bc11dda0",
      "transactionIndex": "0x3e",
      "blockHash": "0x58c3956120e96e27a05544811b8182fedcf30f928550d947f3726d5344da9319",
      "blockNumber": "0x916fee",
      "gasUsed": "0x19a1c",
      "effectiveGasPrice": "0xf4249",
      "from": "0xad9fdad276ab1a430fd03177a07350cd7c61e897",
      "to": "0xfcb43bd05c71c52dbec18814957fd19ab332db4d",
      "contractAddress": null
    },
    {
      "status": "0x1",
      "cumulativeGasUsed": "0x78127a",
      "logs": [
        {
          "address": "0xfcb43bd05c71c52dbec18814957fd19ab332db4d",
          "topics": [
            "0xddf252ad1be2c89b69c2b068fc378daa952ba7f163c4a11628f55a4df523b3ef",
            "0x0000000000000000000000000000000000000000000000000000000000000000",
            "0x000000000000000000000000ad9fdad276ab1a430fd03177a07350cd7c61e897",
            "0x000000000000000000000000000000000000000000000000000000000000000b"
          ],
          "data": "0x",
          "blockHash": "0x58c3956120e96e27a05544811b8182fedcf30f928550d947f3726d5344da9319",
          "blockNumber": "0x916fee",
          "blockTimestamp": "0x6904eaec",
          "transactionHash": "0xfe8234a9c3568bc698a55b2426621bb05c30ecd6673829d4f52e3d4f8f421a8d",
          "transactionIndex": "0x3f",
          "logIndex": "0x60",
          "removed": false
        }
      ],
      "logsBloom": "0x00000000000000000000004000000000000000000000000000000000000000000000000000000000000000000000000000000000000000000000000000000000000000000000004000000008000000000000000000000000000000000000000000000000020000000000000000000800000000000000000000000010000000000000000000080040000000000004400000000000000000000000000000000000000010000000000000000000000000000000000000000000000000000000000000000002000000000000000000000000002000000000000000000000000020000000000000000000000000000000000000000000000000040000000000000000",
      "type": "0x0",
      "transactionHash": "0xfe8234a9c3568bc698a55b2426621bb05c30ecd6673829d4f52e3d4f8f421a8d",
      "transactionIndex": "0x3f",
      "blockHash": "0x58c3956120e96e27a05544811b8182fedcf30f928550d947f3726d5344da9319",
      "blockNumber": "0x916fee",
      "gasUsed": "0x19a1c",
      "effectiveGasPrice": "0xf4249",
      "from": "0xad9fdad276ab1a430fd03177a07350cd7c61e897",
      "to": "0xfcb43bd05c71c52dbec18814957fd19ab332db4d",
      "contractAddress": null
    },
    {
      "status": "0x1",
      "cumulativeGasUsed": "0x79ac96",
      "logs": [
        {
          "address": "0xfcb43bd05c71c52dbec18814957fd19ab332db4d",
          "topics": [
            "0xddf252ad1be2c89b69c2b068fc378daa952ba7f163c4a11628f55a4df523b3ef",
            "0x0000000000000000000000000000000000000000000000000000000000000000",
            "0x000000000000000000000000ad9fdad276ab1a430fd03177a07350cd7c61e897",
            "0x000000000000000000000000000000000000000000000000000000000000000c"
          ],
          "data": "0x",
          "blockHash": "0x58c3956120e96e27a05544811b8182fedcf30f928550d947f3726d5344da9319",
          "blockNumber": "0x916fee",
          "blockTimestamp": "0x6904eaec",
          "transactionHash": "0x7b9cc640a579ccf0c4902daa30a09302f136f770921b38949e22e17d6cdcf0a8",
          "transactionIndex": "0x40",
          "logIndex": "0x61",
          "removed": false
        }
      ],
      "logsBloom": "0x00000000000000000000000000000000000002000000000000000000000000000000000000000200000000000000000000000000000000000000000000000000000000000000004000000008000000000000000000000000000000000000000000000000020000000000000000000800000000000000000000000010000000000000000000080040000000000004400000000000000000000000000000000000000010000000000000000000000000000000000000000000000000000000000000000002000000000000000000000000000000000000000000000000000020200000000000000000000000000000000000000000000000000000000000000000",
      "type": "0x0",
      "transactionHash": "0x7b9cc640a579ccf0c4902daa30a09302f136f770921b38949e22e17d6cdcf0a8",
      "transactionIndex": "0x40",
      "blockHash": "0x58c3956120e96e27a05544811b8182fedcf30f928550d947f3726d5344da9319",
      "blockNumber": "0x916fee",
      "gasUsed": "0x19a1c",
      "effectiveGasPrice": "0xf4249",
      "from": "0xad9fdad276ab1a430fd03177a07350cd7c61e897",
      "to": "0xfcb43bd05c71c52dbec18814957fd19ab332db4d",
      "contractAddress": null
    },
    {
      "status": "0x1",
      "cumulativeGasUsed": "0x7b46b2",
      "logs": [
        {
          "address": "0xfcb43bd05c71c52dbec18814957fd19ab332db4d",
          "topics": [
            "0xddf252ad1be2c89b69c2b068fc378daa952ba7f163c4a11628f55a4df523b3ef",
            "0x0000000000000000000000000000000000000000000000000000000000000000",
            "0x000000000000000000000000ad9fdad276ab1a430fd03177a07350cd7c61e897",
            "0x000000000000000000000000000000000000000000000000000000000000000d"
          ],
          "data": "0x",
          "blockHash": "0x58c3956120e96e27a05544811b8182fedcf30f928550d947f3726d5344da9319",
          "blockNumber": "0x916fee",
          "blockTimestamp": "0x6904eaec",
          "transactionHash": "0x8e84a43301ab8c3e9b17169f20a19d61c3f8b5a76b1174117d759e58f8481087",
          "transactionIndex": "0x41",
          "logIndex": "0x62",
          "removed": false
        }
      ],
      "logsBloom": "0x00000000000000000040000000000000000000000000000000000000000000000000000000000000000000000000000000000000000000000000000000000000000000000000004000000008000000000002000000000000000000000000000000000000020000000000000000000800000000000000000000000010000000000000000000080040000000000004400000000000000000000000000000000000000010000000000000000000000000000000000000000000000000000000000000000002000000000000000000000000000000000000000000000000000020020000000000000000000000000000000000000000000000000000000000000000",
      "type": "0x0",
      "transactionHash": "0x8e84a43301ab8c3e9b17169f20a19d61c3f8b5a76b1174117d759e58f8481087",
      "transactionIndex": "0x41",
      "blockHash": "0x58c3956120e96e27a05544811b8182fedcf30f928550d947f3726d5344da9319",
      "blockNumber": "0x916fee",
      "gasUsed": "0x19a1c",
      "effectiveGasPrice": "0xf4249",
      "from": "0xad9fdad276ab1a430fd03177a07350cd7c61e897",
      "to": "0xfcb43bd05c71c52dbec18814957fd19ab332db4d",
      "contractAddress": null
    },
    {
      "status": "0x1",
      "cumulativeGasUsed": "0x7ce0ce",
      "logs": [
        {
          "address": "0xfcb43bd05c71c52dbec18814957fd19ab332db4d",
          "topics": [
            "0xddf252ad1be2c89b69c2b068fc378daa952ba7f163c4a11628f55a4df523b3ef",
            "0x0000000000000000000000000000000000000000000000000000000000000000",
            "0x000000000000000000000000ad9fdad276ab1a430fd03177a07350cd7c61e897",
            "0x000000000000000000000000000000000000000000000000000000000000000e"
          ],
          "data": "0x",
          "blockHash": "0x58c3956120e96e27a05544811b8182fedcf30f928550d947f3726d5344da9319",
          "blockNumber": "0x916fee",
          "blockTimestamp": "0x6904eaec",
          "transactionHash": "0xc22234f348e0e95902edc36169fd8d3a5becf7065eaa2a5d1184ccba96b477dd",
          "transactionIndex": "0x42",
          "logIndex": "0x63",
          "removed": false
        }
      ],
      "logsBloom": "0x00000000000000000000000000000000000000000000000000000000000000000000000000000000000000000000000000000000000000000000000000000000000000000000004800000008000000000000000000000000000000000000000000000000020000000000000000000800000000000000000000000010000000000000000000080040000000000004400008000000000000000000000000000000000010000000000000000000000000000000000000000020000000000000000000000002000000000000000000000000000000000000000000000000000020000000000000000000000000000000000000000000000000000000000000000000",
      "type": "0x0",
      "transactionHash": "0xc22234f348e0e95902edc36169fd8d3a5becf7065eaa2a5d1184ccba96b477dd",
      "transactionIndex": "0x42",
      "blockHash": "0x58c3956120e96e27a05544811b8182fedcf30f928550d947f3726d5344da9319",
      "blockNumber": "0x916fee",
      "gasUsed": "0x19a1c",
      "effectiveGasPrice": "0xf4249",
      "from": "0xad9fdad276ab1a430fd03177a07350cd7c61e897",
      "to": "0xfcb43bd05c71c52dbec18814957fd19ab332db4d",
      "contractAddress": null
    },
    {
      "status": "0x1",
      "cumulativeGasUsed": "0x7e7aea",
      "logs": [
        {
          "address": "0xfcb43bd05c71c52dbec18814957fd19ab332db4d",
          "topics": [
            "0xddf252ad1be2c89b69c2b068fc378daa952ba7f163c4a11628f55a4df523b3ef",
            "0x0000000000000000000000000000000000000000000000000000000000000000",
            "0x000000000000000000000000ad9fdad276ab1a430fd03177a07350cd7c61e897",
            "0x000000000000000000000000000000000000000000000000000000000000000f"
          ],
          "data": "0x",
          "blockHash": "0x58c3956120e96e27a05544811b8182fedcf30f928550d947f3726d5344da9319",
          "blockNumber": "0x916fee",
          "blockTimestamp": "0x6904eaec",
          "transactionHash": "0xd4478157b0cfdd45ba009efcdce7f54d437a2aacf91a4e9a09ab1b08cdf96c94",
          "transactionIndex": "0x43",
          "logIndex": "0x64",
          "removed": false
        }
      ],
      "logsBloom": "0x00000000000000000000000000000000000000000000000000000000000000000000000000000000000000000000000000000000000000000000000000000000000000000000004000000008000000000000000000000000000000000002000000000000020000000000000000000800000000000000000000000010000000000000000000080840000000000004400000000000000000000000000000000000000010000000000000000000000000000000000000000000000000000000000000000002000000000000000000000000000000000000000000000000000020000000000200000000000000000000000000000000000000000000000000000000",
      "type": "0x0",
      "transactionHash": "0xd4478157b0cfdd45ba009efcdce7f54d437a2aacf91a4e9a09ab1b08cdf96c94",
      "transactionIndex": "0x43",
      "blockHash": "0x58c3956120e96e27a05544811b8182fedcf30f928550d947f3726d5344da9319",
      "blockNumber": "0x916fee",
      "gasUsed": "0x19a1c",
      "effectiveGasPrice": "0xf4249",
      "from": "0xad9fdad276ab1a430fd03177a07350cd7c61e897",
      "to": "0xfcb43bd05c71c52dbec18814957fd19ab332db4d",
      "contractAddress": null
    },
    {
      "status": "0x1",
      "cumulativeGasUsed": "0x801506",
      "logs": [
        {
          "address": "0xfcb43bd05c71c52dbec18814957fd19ab332db4d",
          "topics": [
            "0xddf252ad1be2c89b69c2b068fc378daa952ba7f163c4a11628f55a4df523b3ef",
            "0x0000000000000000000000000000000000000000000000000000000000000000",
            "0x000000000000000000000000ad9fdad276ab1a430fd03177a07350cd7c61e897",
            "0x0000000000000000000000000000000000000000000000000000000000000010"
          ],
          "data": "0x",
          "blockHash": "0x58c3956120e96e27a05544811b8182fedcf30f928550d947f3726d5344da9319",
          "blockNumber": "0x916fee",
          "blockTimestamp": "0x6904eaec",
          "transactionHash": "0x0d00d15c2af07f10f8d11e54758b6e652cfd62c60b7cc531f314100e4bd531dc",
          "transactionIndex": "0x44",
          "logIndex": "0x65",
          "removed": false
        }
      ],
      "logsBloom": "0x00000000100000000000000000000000000000000000000000000000000000000000000000000000000000000000000000000000000000000000000000000000000000000000004000000008000000000000000000000000000000000000000000000000020000000000000000000800000000000000000000000010040000000000000000080040000000000004400000000100000000000000000000000000000010000000000000000000000000000000000000000000000000000000000000000002000000000000000000000000000000000000000000000000000020000000000000000000000000000000000000000000000000000000000000000000",
      "type": "0x0",
      "transactionHash": "0x0d00d15c2af07f10f8d11e54758b6e652cfd62c60b7cc531f314100e4bd531dc",
      "transactionIndex": "0x44",
      "blockHash": "0x58c3956120e96e27a05544811b8182fedcf30f928550d947f3726d5344da9319",
      "blockNumber": "0x916fee",
      "gasUsed": "0x19a1c",
      "effectiveGasPrice": "0xf4249",
      "from": "0xad9fdad276ab1a430fd03177a07350cd7c61e897",
      "to": "0xfcb43bd05c71c52dbec18814957fd19ab332db4d",
      "contractAddress": null
    },
    {
      "status": "0x1",
      "cumulativeGasUsed": "0x829bb1",
      "logs": [
        {
          "address": "0xfcb43bd05c71c52dbec18814957fd19ab332db4d",
          "topics": [
            "0xddf252ad1be2c89b69c2b068fc378daa952ba7f163c4a11628f55a4df523b3ef",
            "0x0000000000000000000000000000000000000000000000000000000000000000",
            "0x000000000000000000000000ad9fdad276ab1a430fd03177a07350cd7c61e897",
            "0x0000000000000000000000000000000000000000000000000000000000000011"
          ],
          "data": "0x",
          "blockHash": "0x58c3956120e96e27a05544811b8182fedcf30f928550d947f3726d5344da9319",
          "blockNumber": "0x916fee",
          "blockTimestamp": "0x6904eaec",
          "transactionHash": "0x4ba8cdce265c1714095ebaf2c50cc4ae3ec58a01457b7a513b44f20d5276f251",
          "transactionIndex": "0x46",
          "logIndex": "0x67",
          "removed": false
        }
      ],
      "logsBloom": "0x00000000000000000000000000000000000000000000000000000000000000000000000000000000000000000000000000000000000000000000000000000000000000000000004000000008000000000000000000000000000000000000000000000000020000000000000000000800000000004000000000000010000000000000000000080040000000000004400000000000000000000000000000000000000010000000000000000000000000000000000000000000000000000400000000001002000000000000000000000000000000000000000000000000000020000000000000000000000000000000000000000000000000000000000000000000",
      "type": "0x0",
      "transactionHash": "0x4ba8cdce265c1714095ebaf2c50cc4ae3ec58a01457b7a513b44f20d5276f251",
      "transactionIndex": "0x46",
      "blockHash": "0x58c3956120e96e27a05544811b8182fedcf30f928550d947f3726d5344da9319",
      "blockNumber": "0x916fee",
      "gasUsed": "0x19a1c",
      "effectiveGasPrice": "0xf4249",
      "from": "0xad9fdad276ab1a430fd03177a07350cd7c61e897",
      "to": "0xfcb43bd05c71c52dbec18814957fd19ab332db4d",
      "contractAddress": null
    },
    {
      "status": "0x1",
      "cumulativeGasUsed": "0x8435cd",
      "logs": [
        {
          "address": "0xfcb43bd05c71c52dbec18814957fd19ab332db4d",
          "topics": [
            "0xddf252ad1be2c89b69c2b068fc378daa952ba7f163c4a11628f55a4df523b3ef",
            "0x0000000000000000000000000000000000000000000000000000000000000000",
            "0x000000000000000000000000ad9fdad276ab1a430fd03177a07350cd7c61e897",
            "0x0000000000000000000000000000000000000000000000000000000000000012"
          ],
          "data": "0x",
          "blockHash": "0x58c3956120e96e27a05544811b8182fedcf30f928550d947f3726d5344da9319",
          "blockNumber": "0x916fee",
          "blockTimestamp": "0x6904eaec",
          "transactionHash": "0xaf2c9e3b789282424b0bedb0076f02c5ebe71ea77bc880e91441e0ded9b783b0",
          "transactionIndex": "0x47",
          "logIndex": "0x68",
          "removed": false
        }
      ],
      "logsBloom": "0x00000000000000000000000000000000000000000000000000000000000000000000000000000000000000000000000000000000000000000000000000000000000000000000004000000008000000000000000000000000000000000000000000000000020000000000000000000800000000000000000000000010000000000000000000080040000000000004440000000000000000000000000000000000000010000000000000000000000000000000000000000040000000000000000000000002000000000400000000000000000000000000000000000000000020000000000000000000000000000000000000000000000000000000000000000000",
      "type": "0x0",
      "transactionHash": "0xaf2c9e3b789282424b0bedb0076f02c5ebe71ea77bc880e91441e0ded9b783b0",
      "transactionIndex": "0x47",
      "blockHash": "0x58c3956120e96e27a05544811b8182fedcf30f928550d947f3726d5344da9319",
      "blockNumber": "0x916fee",
      "gasUsed": "0x19a1c",
      "effectiveGasPrice": "0xf4249",
      "from": "0xad9fdad276ab1a430fd03177a07350cd7c61e897",
      "to": "0xfcb43bd05c71c52dbec18814957fd19ab332db4d",
      "contractAddress": null
    },
    {
      "status": "0x1",
      "cumulativeGasUsed": "0x85cfe9",
      "logs": [
        {
          "address": "0xfcb43bd05c71c52dbec18814957fd19ab332db4d",
          "topics": [
            "0xddf252ad1be2c89b69c2b068fc378daa952ba7f163c4a11628f55a4df523b3ef",
            "0x0000000000000000000000000000000000000000000000000000000000000000",
            "0x000000000000000000000000ad9fdad276ab1a430fd03177a07350cd7c61e897",
            "0x0000000000000000000000000000000000000000000000000000000000000013"
          ],
          "data": "0x",
          "blockHash": "0x58c3956120e96e27a05544811b8182fedcf30f928550d947f3726d5344da9319",
          "blockNumber": "0x916fee",
          "blockTimestamp": "0x6904eaec",
          "transactionHash": "0xa80e8c18a4ef67ec07b62e50fc7ca9725368d84847d31c29c1f64dc4e95e9535",
          "transactionIndex": "0x48",
          "logIndex": "0x69",
          "removed": false
        }
      ],
      "logsBloom": "0x20000000000000000000000000800000000000000000000000000000000000000000000040000000000000000000000000000000000000000000000000000000000000000000004000000008000000000000000000000000000000000000000000000000020000000000000000000800000000000000000000000010000000000000000000080040000000000004400000000000000000000000000000000000000010000000000000000000000000000000000000000000000000000000000000000002000000000000000000000000000000000000000000000000000020000000000000000000000000000000000000000000000000000000000000000000",
      "type": "0x0",
      "transactionHash": "0xa80e8c18a4ef67ec07b62e50fc7ca9725368d84847d31c29c1f64dc4e95e9535",
      "transactionIndex": "0x48",
      "blockHash": "0x58c3956120e96e27a05544811b8182fedcf30f928550d947f3726d5344da9319",
      "blockNumber": "0x916fee",
      "gasUsed": "0x19a1c",
      "effectiveGasPrice": "0xf4249",
      "from": "0xad9fdad276ab1a430fd03177a07350cd7c61e897",
      "to": "0xfcb43bd05c71c52dbec18814957fd19ab332db4d",
      "contractAddress": null
    },
    {
      "status": "0x1",
      "cumulativeGasUsed": "0x876a05",
      "logs": [
        {
          "address": "0xfcb43bd05c71c52dbec18814957fd19ab332db4d",
          "topics": [
            "0xddf252ad1be2c89b69c2b068fc378daa952ba7f163c4a11628f55a4df523b3ef",
            "0x0000000000000000000000000000000000000000000000000000000000000000",
            "0x000000000000000000000000ad9fdad276ab1a430fd03177a07350cd7c61e897",
            "0x0000000000000000000000000000000000000000000000000000000000000014"
          ],
          "data": "0x",
          "blockHash": "0x58c3956120e96e27a05544811b8182fedcf30f928550d947f3726d5344da9319",
          "blockNumber": "0x916fee",
          "blockTimestamp": "0x6904eaec",
          "transactionHash": "0xba42ecbbd9b046690ce25f447e098c6ff844ea119538ee13f5688a412527c2d3",
          "transactionIndex": "0x49",
          "logIndex": "0x6a",
          "removed": false
        }
      ],
      "logsBloom": "0x00000000000000000000000000000000000000000000000000000000000000000000000000000000000000000000000000002000000000000000000000000000000000000000004000000008000000000000000000000000000000000000000000000000020000000000000000000800000000000000000000000010000000000000000000080040000000000004400000000000000400000000000000000000000010000000000020000000000000000000000000000000000000000000000000000002000000000000000000000000000000000000000000000000000020000000000000000000000000000000000000000000000000000000000000000000",
      "type": "0x0",
      "transactionHash": "0xba42ecbbd9b046690ce25f447e098c6ff844ea119538ee13f5688a412527c2d3",
      "transactionIndex": "0x49",
      "blockHash": "0x58c3956120e96e27a05544811b8182fedcf30f928550d947f3726d5344da9319",
      "blockNumber": "0x916fee",
      "gasUsed": "0x19a1c",
      "effectiveGasPrice": "0xf4249",
      "from": "0xad9fdad276ab1a430fd03177a07350cd7c61e897",
      "to": "0xfcb43bd05c71c52dbec18814957fd19ab332db4d",
      "contractAddress": null
    },
    {
      "status": "0x1",
      "cumulativeGasUsed": "0x890421",
      "logs": [
        {
          "address": "0xfcb43bd05c71c52dbec18814957fd19ab332db4d",
          "topics": [
            "0xddf252ad1be2c89b69c2b068fc378daa952ba7f163c4a11628f55a4df523b3ef",
            "0x0000000000000000000000000000000000000000000000000000000000000000",
            "0x000000000000000000000000ad9fdad276ab1a430fd03177a07350cd7c61e897",
            "0x0000000000000000000000000000000000000000000000000000000000000015"
          ],
          "data": "0x",
          "blockHash": "0x58c3956120e96e27a05544811b8182fedcf30f928550d947f3726d5344da9319",
          "blockNumber": "0x916fee",
          "blockTimestamp": "0x6904eaec",
          "transactionHash": "0x6be65281de305ff5149e626ab48a054eccc17cac76c50b4edf55aaf23e4bb179",
          "transactionIndex": "0x4a",
          "logIndex": "0x6b",
          "removed": false
        }
      ],
      "logsBloom": "0x00000000000000000000000000000000000000000000000000000000000000000000000000000000000000000000000000000000000000000000000000000000001000000000004000000008000000000000000000000000000000000000000000000000020000000000000000000800000000000000000000000010000000000000000000080040000000000004400000000000000000000000000000000000000010000000000000000000010000000000000000000000000000000000000000000002000000000000000000000000000000000000000000000000000020002000000000000000000000000000000000000000000000000000000000000000",
      "type": "0x0",
      "transactionHash": "0x6be65281de305ff5149e626ab48a054eccc17cac76c50b4edf55aaf23e4bb179",
      "transactionIndex": "0x4a",
      "blockHash": "0x58c3956120e96e27a05544811b8182fedcf30f928550d947f3726d5344da9319",
      "blockNumber": "0x916fee",
      "gasUsed": "0x19a1c",
      "effectiveGasPrice": "0xf4249",
      "from": "0xad9fdad276ab1a430fd03177a07350cd7c61e897",
      "to": "0xfcb43bd05c71c52dbec18814957fd19ab332db4d",
      "contractAddress": null
    },
    {
      "status": "0x1",
      "cumulativeGasUsed": "0x8a9e3d",
      "logs": [
        {
          "address": "0xfcb43bd05c71c52dbec18814957fd19ab332db4d",
          "topics": [
            "0xddf252ad1be2c89b69c2b068fc378daa952ba7f163c4a11628f55a4df523b3ef",
            "0x0000000000000000000000000000000000000000000000000000000000000000",
            "0x000000000000000000000000ad9fdad276ab1a430fd03177a07350cd7c61e897",
            "0x0000000000000000000000000000000000000000000000000000000000000016"
          ],
          "data": "0x",
          "blockHash": "0x58c3956120e96e27a05544811b8182fedcf30f928550d947f3726d5344da9319",
          "blockNumber": "0x916fee",
          "blockTimestamp": "0x6904eaec",
          "transactionHash": "0x7cfa6d025b83ea44db78c329b2559c7aac1c7924428f96868455f14bc5159512",
          "transactionIndex": "0x4b",
          "logIndex": "0x6c",
          "removed": false
        }
      ],
      "logsBloom": "0x00000000000000000000000000000000000000000000000000000000000000000000000000000000000000000000000000000000000000000000000000000000000000000000004800000008000000000000000000000000000000000000000000000000020000000000000000000800200000000000000000000010000000000000000000080040000000000004400000000000000000000000000000000000000010000000000000000000000000000000000000000000000000000000000000000002000000000000000000000000000000000000000000000000000020000000000000000000000000000000000000000000000000000008000000000000",
      "type": "0x0",
      "transactionHash": "0x7cfa6d025b83ea44db78c329b2559c7aac1c7924428f96868455f14bc5159512",
      "transactionIndex": "0x4b",
      "blockHash": "0x58c3956120e96e27a05544811b8182fedcf30f928550d947f3726d5344da9319",
      "blockNumber": "0x916fee",
      "gasUsed": "0x19a1c",
      "effectiveGasPrice": "0xf4249",
      "from": "0xad9fdad276ab1a430fd03177a07350cd7c61e897",
      "to": "0xfcb43bd05c71c52dbec18814957fd19ab332db4d",
      "contractAddress": null
    },
    {
      "status": "0x1",
      "cumulativeGasUsed": "0x8c3859",
      "logs": [
        {
          "address": "0xfcb43bd05c71c52dbec18814957fd19ab332db4d",
          "topics": [
            "0xddf252ad1be2c89b69c2b068fc378daa952ba7f163c4a11628f55a4df523b3ef",
            "0x0000000000000000000000000000000000000000000000000000000000000000",
            "0x000000000000000000000000ad9fdad276ab1a430fd03177a07350cd7c61e897",
            "0x0000000000000000000000000000000000000000000000000000000000000017"
          ],
          "data": "0x",
          "blockHash": "0x58c3956120e96e27a05544811b8182fedcf30f928550d947f3726d5344da9319",
          "blockNumber": "0x916fee",
          "blockTimestamp": "0x6904eaec",
          "transactionHash": "0x85040c7aa3f145e92edf95111ab55288f04c75e2cf013304bfca8317d0e7ce95",
          "transactionIndex": "0x4c",
          "logIndex": "0x6d",
          "removed": false
        }
      ],
      "logsBloom": "0x00000000000000000000000000000000000000000000000000000000000000000000000000000000000000000000000000001000000000000000001000000000000000000000004000000008000000000000000000000000000000000000000000000000020000000000000000000800000000000000000000000010000000000000000000080040000000000004400000000000000000000000000000000000000010000000000000000000000000000000000000000000000000000000000000000002000000000000000000000000000000000000000000000000000020000000000000000000000000000000000000000000000000000000000000080000",
      "type": "0x0",
      "transactionHash": "0x85040c7aa3f145e92edf95111ab55288f04c75e2cf013304bfca8317d0e7ce95",
      "transactionIndex": "0x4c",
      "blockHash": "0x58c3956120e96e27a05544811b8182fedcf30f928550d947f3726d5344da9319",
      "blockNumber": "0x916fee",
      "gasUsed": "0x19a1c",
      "effectiveGasPrice": "0xf4249",
      "from": "0xad9fdad276ab1a430fd03177a07350cd7c61e897",
      "to": "0xfcb43bd05c71c52dbec18814957fd19ab332db4d",
      "contractAddress": null
    },
    {
      "status": "0x1",
      "cumulativeGasUsed": "0x8dd275",
      "logs": [
        {
          "address": "0xfcb43bd05c71c52dbec18814957fd19ab332db4d",
          "topics": [
            "0xddf252ad1be2c89b69c2b068fc378daa952ba7f163c4a11628f55a4df523b3ef",
            "0x0000000000000000000000000000000000000000000000000000000000000000",
            "0x000000000000000000000000ad9fdad276ab1a430fd03177a07350cd7c61e897",
            "0x0000000000000000000000000000000000000000000000000000000000000018"
          ],
          "data": "0x",
          "blockHash": "0x58c3956120e96e27a05544811b8182fedcf30f928550d947f3726d5344da9319",
          "blockNumber": "0x916fee",
          "blockTimestamp": "0x6904eaec",
          "transactionHash": "0x323483ae67503f8a2c4dcc05c4651c0cd2903f11c5c09f5e8ca871f66f505284",
          "transactionIndex": "0x4d",
          "logIndex": "0x6e",
          "removed": false
        }
      ],
      "logsBloom": "0x00000000000000000000000000000000000000000000000000000000000000000000000000000000000000000000000000000000000000000000000000000000000000000000004000000008000000000040000000000000000000000000000000000000020000000000000000000800000000000000000000000010000000000000000000080040000000000004400000000000000000000000000000000000000010000000000000000000000000000000000000000000000000000000000000100002000000000000000000000000000000000000000020000000000020000000000000000000000000000000000000000000000000000000000000000000",
      "type": "0x0",
      "transactionHash": "0x323483ae67503f8a2c4dcc05c4651c0cd2903f11c5c09f5e8ca871f66f505284",
      "transactionIndex": "0x4d",
      "blockHash": "0x58c3956120e96e27a05544811b8182fedcf30f928550d947f3726d5344da9319",
      "blockNumber": "0x916fee",
      "gasUsed": "0x19a1c",
      "effectiveGasPrice": "0xf4249",
      "from": "0xad9fdad276ab1a430fd03177a07350cd7c61e897",
      "to": "0xfcb43bd05c71c52dbec18814957fd19ab332db4d",
      "contractAddress": null
    },
    {
      "status": "0x1",
      "cumulativeGasUsed": "0x8f6c91",
      "logs": [
        {
          "address": "0xfcb43bd05c71c52dbec18814957fd19ab332db4d",
          "topics": [
            "0xddf252ad1be2c89b69c2b068fc378daa952ba7f163c4a11628f55a4df523b3ef",
            "0x0000000000000000000000000000000000000000000000000000000000000000",
            "0x000000000000000000000000ad9fdad276ab1a430fd03177a07350cd7c61e897",
            "0x0000000000000000000000000000000000000000000000000000000000000019"
          ],
          "data": "0x",
          "blockHash": "0x58c3956120e96e27a05544811b8182fedcf30f928550d947f3726d5344da9319",
          "blockNumber": "0x916fee",
          "blockTimestamp": "0x6904eaec",
          "transactionHash": "0xa30643a49fe4e8e9320243e74400c40f5b089d4c45a38591bf96f90a7741bc13",
          "transactionIndex": "0x4e",
          "logIndex": "0x6f",
          "removed": false
        }
      ],
      "logsBloom": "0x00000000000000000000000000000000000000000000000000000000000000000000000000000000000000000000000000000000000000800000000000000000000000000000004000000008000000000000000000000000000000000000000000000000020000000000000000000800000000000000020000000010000000000000000000080040000000000004400000000000000000000000000000000000000010000000000000000000000000000000000000000000000000000000000000000002000000000000000000000000000000000000000000000000000020000000000000000000000000000000000000000000000000000000008000000000",
      "type": "0x0",
      "transactionHash": "0xa30643a49fe4e8e9320243e74400c40f5b089d4c45a38591bf96f90a7741bc13",
      "transactionIndex": "0x4e",
      "blockHash": "0x58c3956120e96e27a05544811b8182fedcf30f928550d947f3726d5344da9319",
      "blockNumber": "0x916fee",
      "gasUsed": "0x19a1c",
      "effectiveGasPrice": "0xf4249",
      "from": "0xad9fdad276ab1a430fd03177a07350cd7c61e897",
      "to": "0xfcb43bd05c71c52dbec18814957fd19ab332db4d",
      "contractAddress": null
    },
    {
      "status": "0x1",
      "cumulativeGasUsed": "0x9106ad",
      "logs": [
        {
          "address": "0xfcb43bd05c71c52dbec18814957fd19ab332db4d",
          "topics": [
            "0xddf252ad1be2c89b69c2b068fc378daa952ba7f163c4a11628f55a4df523b3ef",
            "0x0000000000000000000000000000000000000000000000000000000000000000",
            "0x000000000000000000000000ad9fdad276ab1a430fd03177a07350cd7c61e897",
            "0x000000000000000000000000000000000000000000000000000000000000001a"
          ],
          "data": "0x",
          "blockHash": "0x58c3956120e96e27a05544811b8182fedcf30f928550d947f3726d5344da9319",
          "blockNumber": "0x916fee",
          "blockTimestamp": "0x6904eaec",
          "transactionHash": "0x139d48f34e8f4ee1293f7e48f5d22f38e72618c5395e2773c2a208f6df47239d",
          "transactionIndex": "0x4f",
          "logIndex": "0x70",
          "removed": false
        }
      ],
      "logsBloom": "0x00000000000000000000000000000000000000000000000000000000000000000000000000000000000000000000000000000000000000000000000000000000000000000000004000000008000000001000000000000000000000001000000000000000020000000000000000000800000000000000000000000010000000000000000000080040000000000004400000000000000000000000000000000000000010000000000000000000000000000000000000000000000000000000000000000002000000000000000000000000000000000000000000000000000020000000000000000000000000000000000000000000000004000000000000000000",
      "type": "0x0",
      "transactionHash": "0x139d48f34e8f4ee1293f7e48f5d22f38e72618c5395e2773c2a208f6df47239d",
      "transactionIndex": "0x4f",
      "blockHash": "0x58c3956120e96e27a05544811b8182fedcf30f928550d947f3726d5344da9319",
      "blockNumber": "0x916fee",
      "gasUsed": "0x19a1c",
      "effectiveGasPrice": "0xf4249",
      "from": "0xad9fdad276ab1a430fd03177a07350cd7c61e897",
      "to": "0xfcb43bd05c71c52dbec18814957fd19ab332db4d",
      "contractAddress": null
    },
    {
      "status": "0x1",
      "cumulativeGasUsed": "0x92a0c9",
      "logs": [
        {
          "address": "0xfcb43bd05c71c52dbec18814957fd19ab332db4d",
          "topics": [
            "0xddf252ad1be2c89b69c2b068fc378daa952ba7f163c4a11628f55a4df523b3ef",
            "0x0000000000000000000000000000000000000000000000000000000000000000",
            "0x000000000000000000000000ad9fdad276ab1a430fd03177a07350cd7c61e897",
            "0x000000000000000000000000000000000000000000000000000000000000001b"
          ],
          "data": "0x",
          "blockHash": "0x58c3956120e96e27a05544811b8182fedcf30f928550d947f3726d5344da9319",
          "blockNumber": "0x916fee",
          "blockTimestamp": "0x6904eaec",
          "transactionHash": "0x545d44739a2d68b517d4f082275c4056fea2f0ae6fbb2add18e17431c9b3851d",
          "transactionIndex": "0x50",
          "logIndex": "0x71",
          "removed": false
        }
      ],
      "logsBloom": "0x00000000000000000000000000000000000000000010000000000000000000000000000000000000000000000000000000000000000000000000000000000000000000000000004000000008000000000000000000000000000000000000000000000000020000000000000000000800000000000000000000000010000000000000000000080040000000000004400000000000000000000000000000000000000010000100000000000000000000000000000000008000000000000000000000000002000000000000000000000000000000000000000000000000000020000000000000000000000000000000000000000000000000000000000000000000",
      "type": "0x0",
      "transactionHash": "0x545d44739a2d68b517d4f082275c4056fea2f0ae6fbb2add18e17431c9b3851d",
      "transactionIndex": "0x50",
      "blockHash": "0x58c3956120e96e27a05544811b8182fedcf30f928550d947f3726d5344da9319",
      "blockNumber": "0x916fee",
      "gasUsed": "0x19a1c",
      "effectiveGasPrice": "0xf4249",
      "from": "0xad9fdad276ab1a430fd03177a07350cd7c61e897",
      "to": "0xfcb43bd05c71c52dbec18814957fd19ab332db4d",
      "contractAddress": null
    },
    {
      "status": "0x1",
      "cumulativeGasUsed": "0xdb9e20",
      "logs": [
        {
          "address": "0xfcb43bd05c71c52dbec18814957fd19ab332db4d",
          "topics": [
            "0xddf252ad1be2c89b69c2b068fc378daa952ba7f163c4a11628f55a4df523b3ef",
            "0x0000000000000000000000000000000000000000000000000000000000000000",
            "0x000000000000000000000000ad9fdad276ab1a430fd03177a07350cd7c61e897",
            "0x000000000000000000000000000000000000000000000000000000000000001c"
          ],
          "data": "0x",
          "blockHash": "0x8dedc115a5efd69bb0b64ba1375b0a2f4712837693290473cb5ae30ce7da054d",
          "blockNumber": "0x916fef",
          "blockTimestamp": "0x6904eaf8",
          "transactionHash": "0x0ac8cc7d9615dbd07ab5cd7b3bf4e8f15227d4840680454f52f352a7c2145372",
          "transactionIndex": "0x3c",
          "logIndex": "0x8c",
          "removed": false
        }
      ],
      "logsBloom": "0x00000000000000000000000000000000000000000000000000000000000000000000000000000000000000000000000000000000000000200000000000000000000000000000004000000008000000000000000000000000000000000000000000000000020000000000000000000800000000000000000000000010000000000000000000080040000000000004400200000000000000000000000000000000000010000000000000000002000000000000000000000000000000000000000000000002000000000000000000000000000000000000000000000000000020000000000000000000000000000000000000000000000000000000000000000000",
      "type": "0x0",
      "transactionHash": "0x0ac8cc7d9615dbd07ab5cd7b3bf4e8f15227d4840680454f52f352a7c2145372",
      "transactionIndex": "0x3c",
      "blockHash": "0x8dedc115a5efd69bb0b64ba1375b0a2f4712837693290473cb5ae30ce7da054d",
      "blockNumber": "0x916fef",
      "gasUsed": "0x19a1c",
      "effectiveGasPrice": "0xf4249",
      "from": "0xad9fdad276ab1a430fd03177a07350cd7c61e897",
      "to": "0xfcb43bd05c71c52dbec18814957fd19ab332db4d",
      "contractAddress": null
    },
    {
      "status": "0x1",
      "cumulativeGasUsed": "0xdd383c",
      "logs": [
        {
          "address": "0xfcb43bd05c71c52dbec18814957fd19ab332db4d",
          "topics": [
            "0xddf252ad1be2c89b69c2b068fc378daa952ba7f163c4a11628f55a4df523b3ef",
            "0x0000000000000000000000000000000000000000000000000000000000000000",
            "0x000000000000000000000000ad9fdad276ab1a430fd03177a07350cd7c61e897",
            "0x000000000000000000000000000000000000000000000000000000000000001d"
          ],
          "data": "0x",
          "blockHash": "0x8dedc115a5efd69bb0b64ba1375b0a2f4712837693290473cb5ae30ce7da054d",
          "blockNumber": "0x916fef",
          "blockTimestamp": "0x6904eaf8",
          "transactionHash": "0x3d20d153c73d8766cdda957eac73c05d90d1f54685f5f9cf1b5bf5f99edc31e7",
          "transactionIndex": "0x3d",
          "logIndex": "0x8d",
          "removed": false
        }
      ],
      "logsBloom": "0x00000080000000000000000000000000000000000000000000000000000000000000000000000000000000000000000000000000000000000000000200000000000000000000004000000008000000000000000000000010000000000000000000000000020000000000000000000800000000000000000000000010000000000000000000080040000000000004400000000000000000000000000000000000000010000000000000000000000000000000000000000000000000000000000000000002000000000000000000000000000000000000000000000000000020000000000000000000000000000000000000000000000000000000000000000000",
      "type": "0x0",
      "transactionHash": "0x3d20d153c73d8766cdda957eac73c05d90d1f54685f5f9cf1b5bf5f99edc31e7",
      "transactionIndex": "0x3d",
      "blockHash": "0x8dedc115a5efd69bb0b64ba1375b0a2f4712837693290473cb5ae30ce7da054d",
      "blockNumber": "0x916fef",
      "gasUsed": "0x19a1c",
      "effectiveGasPrice": "0xf4249",
      "from": "0xad9fdad276ab1a430fd03177a07350cd7c61e897",
      "to": "0xfcb43bd05c71c52dbec18814957fd19ab332db4d",
      "contractAddress": null
    },
    {
      "status": "0x1",
      "cumulativeGasUsed": "0xded258",
      "logs": [
        {
          "address": "0xfcb43bd05c71c52dbec18814957fd19ab332db4d",
          "topics": [
            "0xddf252ad1be2c89b69c2b068fc378daa952ba7f163c4a11628f55a4df523b3ef",
            "0x0000000000000000000000000000000000000000000000000000000000000000",
            "0x000000000000000000000000ad9fdad276ab1a430fd03177a07350cd7c61e897",
            "0x000000000000000000000000000000000000000000000000000000000000001e"
          ],
          "data": "0x",
          "blockHash": "0x8dedc115a5efd69bb0b64ba1375b0a2f4712837693290473cb5ae30ce7da054d",
          "blockNumber": "0x916fef",
          "blockTimestamp": "0x6904eaf8",
          "transactionHash": "0x8daf935ce50458f7139db736fb9b35eb3469b270dba3d636c78f04f3f92bbc2a",
          "transactionIndex": "0x3e",
          "logIndex": "0x8e",
          "removed": false
        }
      ],
      "logsBloom": "0x0000000000000000000000000000000000000000000000000000000000000000000000000000000000000000040000000000000000000000000000000000000000000000000000c000000008000000000000000000000000000000000000000000000000020000000000000000000800000000000000000000000010000000000000000000080040000000000004400000000000000000000000000000000000000010000000000000000000000000000000000000000000000000000000000000000002000000000000000000000000000000000000000000000000000020000000000000000000080000000000000000000000000000000000000000000000",
      "type": "0x0",
      "transactionHash": "0x8daf935ce50458f7139db736fb9b35eb3469b270dba3d636c78f04f3f92bbc2a",
      "transactionIndex": "0x3e",
      "blockHash": "0x8dedc115a5efd69bb0b64ba1375b0a2f4712837693290473cb5ae30ce7da054d",
      "blockNumber": "0x916fef",
      "gasUsed": "0x19a1c",
      "effectiveGasPrice": "0xf4249",
      "from": "0xad9fdad276ab1a430fd03177a07350cd7c61e897",
      "to": "0xfcb43bd05c71c52dbec18814957fd19ab332db4d",
      "contractAddress": null
    },
    {
      "status": "0x1",
      "cumulativeGasUsed": "0xe06c74",
      "logs": [
        {
          "address": "0xfcb43bd05c71c52dbec18814957fd19ab332db4d",
          "topics": [
            "0xddf252ad1be2c89b69c2b068fc378daa952ba7f163c4a11628f55a4df523b3ef",
            "0x0000000000000000000000000000000000000000000000000000000000000000",
            "0x000000000000000000000000ad9fdad276ab1a430fd03177a07350cd7c61e897",
            "0x000000000000000000000000000000000000000000000000000000000000001f"
          ],
          "data": "0x",
          "blockHash": "0x8dedc115a5efd69bb0b64ba1375b0a2f4712837693290473cb5ae30ce7da054d",
          "blockNumber": "0x916fef",
          "blockTimestamp": "0x6904eaf8",
          "transactionHash": "0x5030b5e04a3b9ac47f85d52ed9e92d849308e0efb662a579b00ff0ae4d0472b2",
          "transactionIndex": "0x3f",
          "logIndex": "0x8f",
          "removed": false
        }
      ],
      "logsBloom": "0x00000000000000000000000400000000000000000000000000000000000000000000000000000000000000000000000000000000000000000000000000000000000000000000004000000008000000000000000000000000000000000000000000000000020000000000000000000800000000000000000000000010000000000000000000080040000000000004400000000000000000000000000000000000000010000000000000000000000000000000000000000000000000000001000000000002000000000000000000000000000000000000000000000000000020000000000000000000000000000000000000000000000000000100000000000000",
      "type": "0x0",
      "transactionHash": "0x5030b5e04a3b9ac47f85d52ed9e92d849308e0efb662a579b00ff0ae4d0472b2",
      "transactionIndex": "0x3f",
      "blockHash": "0x8dedc115a5efd69bb0b64ba1375b0a2f4712837693290473cb5ae30ce7da054d",
      "blockNumber": "0x916fef",
      "gasUsed": "0x19a1c",
      "effectiveGasPrice": "0xf4249",
      "from": "0xad9fdad276ab1a430fd03177a07350cd7c61e897",
      "to": "0xfcb43bd05c71c52dbec18814957fd19ab332db4d",
      "contractAddress": null
    },
    {
      "status": "0x1",
      "cumulativeGasUsed": "0xe20690",
      "logs": [
        {
          "address": "0xfcb43bd05c71c52dbec18814957fd19ab332db4d",
          "topics": [
            "0xddf252ad1be2c89b69c2b068fc378daa952ba7f163c4a11628f55a4df523b3ef",
            "0x0000000000000000000000000000000000000000000000000000000000000000",
            "0x000000000000000000000000ad9fdad276ab1a430fd03177a07350cd7c61e897",
            "0x0000000000000000000000000000000000000000000000000000000000000020"
          ],
          "data": "0x",
          "blockHash": "0x8dedc115a5efd69bb0b64ba1375b0a2f4712837693290473cb5ae30ce7da054d",
          "blockNumber": "0x916fef",
          "blockTimestamp": "0x6904eaf8",
          "transactionHash": "0xbf983cf7f441011ae210ff15ac119dbd792d202ad351895c69d9f42c83e75f6d",
          "transactionIndex": "0x40",
          "logIndex": "0x90",
          "removed": false
        }
      ],
      "logsBloom": "0x00000000000000000000000000000000000000000000000000000000000000000000000000000000000000000000000000000000000000000000000000000000000000000000004000000008000000000000000000000000000000000000000000000000020000000000000000000800000000000000000000000010000000000000000000080040000000000004400000000000000000000000000000000000000410000000000000000000000000000000000000000000000000000000000000000002000000000000000000000000080000000000000000000000000020000000400000000000000000000000000000000000000000000000000000000000",
      "type": "0x0",
      "transactionHash": "0xbf983cf7f441011ae210ff15ac119dbd792d202ad351895c69d9f42c83e75f6d",
      "transactionIndex": "0x40",
      "blockHash": "0x8dedc115a5efd69bb0b64ba1375b0a2f4712837693290473cb5ae30ce7da054d",
      "blockNumber": "0x916fef",
      "gasUsed": "0x19a1c",
      "effectiveGasPrice": "0xf4249",
      "from": "0xad9fdad276ab1a430fd03177a07350cd7c61e897",
      "to": "0xfcb43bd05c71c52dbec18814957fd19ab332db4d",
      "contractAddress": null
    },
    {
      "status": "0x1",
      "cumulativeGasUsed": "0xe3a0ac",
      "logs": [
        {
          "address": "0xfcb43bd05c71c52dbec18814957fd19ab332db4d",
          "topics": [
            "0xddf252ad1be2c89b69c2b068fc378daa952ba7f163c4a11628f55a4df523b3ef",
            "0x0000000000000000000000000000000000000000000000000000000000000000",
            "0x000000000000000000000000ad9fdad276ab1a430fd03177a07350cd7c61e897",
            "0x0000000000000000000000000000000000000000000000000000000000000021"
          ],
          "data": "0x",
          "blockHash": "0x8dedc115a5efd69bb0b64ba1375b0a2f4712837693290473cb5ae30ce7da054d",
          "blockNumber": "0x916fef",
          "blockTimestamp": "0x6904eaf8",
          "transactionHash": "0x48291bf81c4b43386eab8920d2e3e431c1e04432f8ead3b7361355e5342586bd",
          "transactionIndex": "0x41",
          "logIndex": "0x91",
          "removed": false
        }
      ],
      "logsBloom": "0x00000000000000000000000000000000000000000000000000000000000000020000000000000000000000000000000000000000000000000000000000000000000000000000004000000008000000000000000000000000000000000000000000000000020000000000000000000800000000000000000000000010040000000000000000080040000000000004400000000000000000000000000000000000000010000000000000000000000000000000000800000000000000000000000000000002000000000000000000000000000000000000000000000000000020000000000000000000000000000000000000000000000000000000000000000000",
      "type": "0x0",
      "transactionHash": "0x48291bf81c4b43386eab8920d2e3e431c1e04432f8ead3b7361355e5342586bd",
      "transactionIndex": "0x41",
      "blockHash": "0x8dedc115a5efd69bb0b64ba1375b0a2f4712837693290473cb5ae30ce7da054d",
      "blockNumber": "0x916fef",
      "gasUsed": "0x19a1c",
      "effectiveGasPrice": "0xf4249",
      "from": "0xad9fdad276ab1a430fd03177a07350cd7c61e897",
      "to": "0xfcb43bd05c71c52dbec18814957fd19ab332db4d",
      "contractAddress": null
    },
    {
      "status": "0x1",
      "cumulativeGasUsed": "0xe53ac8",
      "logs": [
        {
          "address": "0xfcb43bd05c71c52dbec18814957fd19ab332db4d",
          "topics": [
            "0xddf252ad1be2c89b69c2b068fc378daa952ba7f163c4a11628f55a4df523b3ef",
            "0x0000000000000000000000000000000000000000000000000000000000000000",
            "0x000000000000000000000000ad9fdad276ab1a430fd03177a07350cd7c61e897",
            "0x0000000000000000000000000000000000000000000000000000000000000022"
          ],
          "data": "0x",
          "blockHash": "0x8dedc115a5efd69bb0b64ba1375b0a2f4712837693290473cb5ae30ce7da054d",
          "blockNumber": "0x916fef",
          "blockTimestamp": "0x6904eaf8",
          "transactionHash": "0xfa8f453c1115f3c1de7d080e9b3b84db0fcf305060ff62a25c6062ed4ebb58fa",
          "transactionIndex": "0x42",
          "logIndex": "0x92",
          "removed": false
        }
      ],
      "logsBloom": "0x00000000000000000000000000000000000000000000000000000000000000000000000000000000000000000000000000000000000000000000000000000000000000000000004000000008000000000000000000000000000000000000000000000000020000000000000000000800000000000000000000000010000000000000020000080040000000000004400000000000000000000000004000000000000010000000000000000000000000000000000000000000000000000000000000000002000000000000000000000000000000000000000000000000000020080000000000000000000000000000000000000000000000000000000000000000",
      "type": "0x0",
      "transactionHash": "0xfa8f453c1115f3c1de7d080e9b3b84db0fcf305060ff62a25c6062ed4ebb58fa",
      "transactionIndex": "0x42",
      "blockHash": "0x8dedc115a5efd69bb0b64ba1375b0a2f4712837693290473cb5ae30ce7da054d",
      "blockNumber": "0x916fef",
      "gasUsed": "0x19a1c",
      "effectiveGasPrice": "0xf4249",
      "from": "0xad9fdad276ab1a430fd03177a07350cd7c61e897",
      "to": "0xfcb43bd05c71c52dbec18814957fd19ab332db4d",
      "contractAddress": null
    },
    {
      "status": "0x1",
      "cumulativeGasUsed": "0xe6d4e4",
      "logs": [
        {
          "address": "0xfcb43bd05c71c52dbec18814957fd19ab332db4d",
          "topics": [
            "0xddf252ad1be2c89b69c2b068fc378daa952ba7f163c4a11628f55a4df523b3ef",
            "0x0000000000000000000000000000000000000000000000000000000000000000",
            "0x000000000000000000000000ad9fdad276ab1a430fd03177a07350cd7c61e897",
            "0x0000000000000000000000000000000000000000000000000000000000000023"
          ],
          "data": "0x",
          "blockHash": "0x8dedc115a5efd69bb0b64ba1375b0a2f4712837693290473cb5ae30ce7da054d",
          "blockNumber": "0x916fef",
          "blockTimestamp": "0x6904eaf8",
          "transactionHash": "0xf0d1d4190c1cd287a211e07cbac32630dad79aaa2d9f62024e267e9d467bcf4d",
          "transactionIndex": "0x43",
          "logIndex": "0x93",
          "removed": false
        }
      ],
      "logsBloom": "0x00000000000000000000000000000000000000000000000000000000000000000000000000000000000000000000000000000000000000800000000000000000000000000000004000000008000000000800000000000000000000000000000000000000020000000000000000000800000000000000000000000010000000000000000000080040000000000004400000000000000200000000000000000000000010000000000000000000000000000000000000000000000000000000000000000002000000000000000000000000000000000000000000000000000020000000000000000000000000000000000000000000000000000000000000000000",
      "type": "0x0",
      "transactionHash": "0xf0d1d4190c1cd287a211e07cbac32630dad79aaa2d9f62024e267e9d467bcf4d",
      "transactionIndex": "0x43",
      "blockHash": "0x8dedc115a5efd69bb0b64ba1375b0a2f4712837693290473cb5ae30ce7da054d",
      "blockNumber": "0x916fef",
      "gasUsed": "0x19a1c",
      "effectiveGasPrice": "0xf4249",
      "from": "0xad9fdad276ab1a430fd03177a07350cd7c61e897",
      "to": "0xfcb43bd05c71c52dbec18814957fd19ab332db4d",
      "contractAddress": null
    },
    {
      "status": "0x1",
      "cumulativeGasUsed": "0xe86f00",
      "logs": [
        {
          "address": "0xfcb43bd05c71c52dbec18814957fd19ab332db4d",
          "topics": [
            "0xddf252ad1be2c89b69c2b068fc378daa952ba7f163c4a11628f55a4df523b3ef",
            "0x0000000000000000000000000000000000000000000000000000000000000000",
            "0x000000000000000000000000ad9fdad276ab1a430fd03177a07350cd7c61e897",
            "0x0000000000000000000000000000000000000000000000000000000000000024"
          ],
          "data": "0x",
          "blockHash": "0x8dedc115a5efd69bb0b64ba1375b0a2f4712837693290473cb5ae30ce7da054d",
          "blockNumber": "0x916fef",
          "blockTimestamp": "0x6904eaf8",
          "transactionHash": "0xb31b1ee1325897fe5c014cdf11f3023791750e691e6089ebb24cfab6aaec9a63",
          "transactionIndex": "0x44",
          "logIndex": "0x94",
          "removed": false
        }
      ],
      "logsBloom": "0x0000000000000000000000000000000000000000000000000000000000000000000000000000000000000000000000000000000000000000000000000000000000000000000000400000000800000000000000000000000000000000000000000000000002080000000000000000080000000000000000000000001000000000000000000008004000000000000c400000000000000000000000000000000000000010000002000000000000000000000000000000000000000000000000000000000002000000000000000000000000000000000000000000000000000020000000000000000000000000000000000000000000000000000000000000000000",
      "type": "0x0",
      "transactionHash": "0xb31b1ee1325897fe5c014cdf11f3023791750e691e6089ebb24cfab6aaec9a63",
      "transactionIndex": "0x44",
      "blockHash": "0x8dedc115a5efd69bb0b64ba1375b0a2f4712837693290473cb5ae30ce7da054d",
      "blockNumber": "0x916fef",
      "gasUsed": "0x19a1c",
      "effectiveGasPrice": "0xf4249",
      "from": "0xad9fdad276ab1a430fd03177a07350cd7c61e897",
      "to": "0xfcb43bd05c71c52dbec18814957fd19ab332db4d",
      "contractAddress": null
    },
    {
      "status": "0x1",
      "cumulativeGasUsed": "0xea091c",
      "logs": [
        {
          "address": "0xfcb43bd05c71c52dbec18814957fd19ab332db4d",
          "topics": [
            "0xddf252ad1be2c89b69c2b068fc378daa952ba7f163c4a11628f55a4df523b3ef",
            "0x0000000000000000000000000000000000000000000000000000000000000000",
            "0x000000000000000000000000ad9fdad276ab1a430fd03177a07350cd7c61e897",
            "0x0000000000000000000000000000000000000000000000000000000000000025"
          ],
          "data": "0x",
          "blockHash": "0x8dedc115a5efd69bb0b64ba1375b0a2f4712837693290473cb5ae30ce7da054d",
          "blockNumber": "0x916fef",
          "blockTimestamp": "0x6904eaf8",
          "transactionHash": "0x22984748016d9600990921a4be47e34af84aa32598d05bf78994137ae64aaa17",
          "transactionIndex": "0x45",
          "logIndex": "0x95",
          "removed": false
        }
      ],
      "logsBloom": "0x00000000000000000000000000000000000000000000000000000000000000000000000000000000000000000000000000000000000000000000000000000000000000000000004000000008000000000000000000000000000000000000000000000000020000000000000000000800000000000000000000000010000000000000000000080040000000000004400000000000000000000000000000000000000010000000000000000002000000000000000000000000000000000000000000000002000000000000000000000000000000000000000000000000000020008000000000000000000000000000000000000000000000000000000002000000",
      "type": "0x0",
      "transactionHash": "0x22984748016d9600990921a4be47e34af84aa32598d05bf78994137ae64aaa17",
      "transactionIndex": "0x45",
      "blockHash": "0x8dedc115a5efd69bb0b64ba1375b0a2f4712837693290473cb5ae30ce7da054d",
      "blockNumber": "0x916fef",
      "gasUsed": "0x19a1c",
      "effectiveGasPrice": "0xf4249",
      "from": "0xad9fdad276ab1a430fd03177a07350cd7c61e897",
      "to": "0xfcb43bd05c71c52dbec18814957fd19ab332db4d",
      "contractAddress": null
    },
    {
      "status": "0x1",
      "cumulativeGasUsed": "0xeba338",
      "logs": [
        {
          "address": "0xfcb43bd05c71c52dbec18814957fd19ab332db4d",
          "topics": [
            "0xddf252ad1be2c89b69c2b068fc378daa952ba7f163c4a11628f55a4df523b3ef",
            "0x0000000000000000000000000000000000000000000000000000000000000000",
            "0x000000000000000000000000ad9fdad276ab1a430fd03177a07350cd7c61e897",
            "0x0000000000000000000000000000000000000000000000000000000000000026"
          ],
          "data": "0x",
          "blockHash": "0x8dedc115a5efd69bb0b64ba1375b0a2f4712837693290473cb5ae30ce7da054d",
          "blockNumber": "0x916fef",
          "blockTimestamp": "0x6904eaf8",
          "transactionHash": "0xb9415bc6682088f57e7e5a22b2a9a89fea9b5a14a0b493f29e3091055c419d93",
          "transactionIndex": "0x46",
          "logIndex": "0x96",
          "removed": false
        }
      ],
      "logsBloom": "0x00000000000000000000000000000000000000000000000000000000000000000000000000000000000000000000000000000000000000000000000000000000000000000000004000000008000000000001000000000000000000000000000001000000020000000000000000000800000000000000040000000010000000000000000000080040000000000004400000000000000000000000000000000000000010000000000000000000000000000000000000000000000000000000000000000002000000000000000000000000000000000000000000000000000020000000000000000000000000000000000000000000000000000000000000000000",
      "type": "0x0",
      "transactionHash": "0xb9415bc6682088f57e7e5a22b2a9a89fea9b5a14a0b493f29e3091055c419d93",
      "transactionIndex": "0x46",
      "blockHash": "0x8dedc115a5efd69bb0b64ba1375b0a2f4712837693290473cb5ae30ce7da054d",
      "blockNumber": "0x916fef",
      "gasUsed": "0x19a1c",
      "effectiveGasPrice": "0xf4249",
      "from": "0xad9fdad276ab1a430fd03177a07350cd7c61e897",
      "to": "0xfcb43bd05c71c52dbec18814957fd19ab332db4d",
      "contractAddress": null
    },
    {
      "status": "0x1",
      "cumulativeGasUsed": "0xed3d54",
      "logs": [
        {
          "address": "0xfcb43bd05c71c52dbec18814957fd19ab332db4d",
          "topics": [
            "0xddf252ad1be2c89b69c2b068fc378daa952ba7f163c4a11628f55a4df523b3ef",
            "0x0000000000000000000000000000000000000000000000000000000000000000",
            "0x000000000000000000000000ad9fdad276ab1a430fd03177a07350cd7c61e897",
            "0x0000000000000000000000000000000000000000000000000000000000000027"
          ],
          "data": "0x",
          "blockHash": "0x8dedc115a5efd69bb0b64ba1375b0a2f4712837693290473cb5ae30ce7da054d",
          "blockNumber": "0x916fef",
          "blockTimestamp": "0x6904eaf8",
          "transactionHash": "0x34f46ca43f0a9ecdad3e9d9e2dc438fd3a679ffaf4e089d29b6a0045072fa559",
          "transactionIndex": "0x47",
          "logIndex": "0x97",
          "removed": false
        }
      ],
      "logsBloom": "0x00000000000000000000000000000000000000000000000000000000000000000002000000000000000000000000000000000000000000000000000000000000000000000000004000000008000000000000000000000000000000000000000000000000020000000000000000000800000000000000000000000010000000000000000000080040000000000004400000000000000000000000000000000000000010000000000000000000000000000000000000000000000000000000000000000002000000000000000000000000000000000000000000000000000020000000000000000000000000100000000008000000000000000000000000000000",
      "type": "0x0",
      "transactionHash": "0x34f46ca43f0a9ecdad3e9d9e2dc438fd3a679ffaf4e089d29b6a0045072fa559",
      "transactionIndex": "0x47",
      "blockHash": "0x8dedc115a5efd69bb0b64ba1375b0a2f4712837693290473cb5ae30ce7da054d",
      "blockNumber": "0x916fef",
      "gasUsed": "0x19a1c",
      "effectiveGasPrice": "0xf4249",
      "from": "0xad9fdad276ab1a430fd03177a07350cd7c61e897",
      "to": "0xfcb43bd05c71c52dbec18814957fd19ab332db4d",
      "contractAddress": null
    },
    {
      "status": "0x1",
      "cumulativeGasUsed": "0xeed770",
      "logs": [
        {
          "address": "0xfcb43bd05c71c52dbec18814957fd19ab332db4d",
          "topics": [
            "0xddf252ad1be2c89b69c2b068fc378daa952ba7f163c4a11628f55a4df523b3ef",
            "0x0000000000000000000000000000000000000000000000000000000000000000",
            "0x000000000000000000000000ad9fdad276ab1a430fd03177a07350cd7c61e897",
            "0x0000000000000000000000000000000000000000000000000000000000000028"
          ],
          "data": "0x",
          "blockHash": "0x8dedc115a5efd69bb0b64ba1375b0a2f4712837693290473cb5ae30ce7da054d",
          "blockNumber": "0x916fef",
          "blockTimestamp": "0x6904eaf8",
          "transactionHash": "0x8fcc5066d3975a405f0f1f6e4f66808fd4795b8f2d427a474c79781220568ce9",
          "transactionIndex": "0x48",
          "logIndex": "0x98",
          "removed": false
        }
      ],
      "logsBloom": "0x00000000000000000000000000000000000000000000000000000000000000000000000000000000000000000000000000000000000000000000000000000000000000000000004000000008000000000000000000000000000000000000000000000000020000000000000000000800000000000000000000000010000000000000000000080040000000000004400000000000000000000000000000000000000010000100000000000000000000000000000000000000000000000000000000000002000000000000000000000000000020000000000000000008000020000000000000000000000000000000000000000000000000000000000000000000",
      "type": "0x0",
      "transactionHash": "0x8fcc5066d3975a405f0f1f6e4f66808fd4795b8f2d427a474c79781220568ce9",
      "transactionIndex": "0x48",
      "blockHash": "0x8dedc115a5efd69bb0b64ba1375b0a2f4712837693290473cb5ae30ce7da054d",
      "blockNumber": "0x916fef",
      "gasUsed": "0x19a1c",
      "effectiveGasPrice": "0xf4249",
      "from": "0xad9fdad276ab1a430fd03177a07350cd7c61e897",
      "to": "0xfcb43bd05c71c52dbec18814957fd19ab332db4d",
      "contractAddress": null
    },
    {
      "status": "0x1",
      "cumulativeGasUsed": "0xf0718c",
      "logs": [
        {
          "address": "0xfcb43bd05c71c52dbec18814957fd19ab332db4d",
          "topics": [
            "0xddf252ad1be2c89b69c2b068fc378daa952ba7f163c4a11628f55a4df523b3ef",
            "0x0000000000000000000000000000000000000000000000000000000000000000",
            "0x000000000000000000000000ad9fdad276ab1a430fd03177a07350cd7c61e897",
            "0x0000000000000000000000000000000000000000000000000000000000000029"
          ],
          "data": "0x",
          "blockHash": "0x8dedc115a5efd69bb0b64ba1375b0a2f4712837693290473cb5ae30ce7da054d",
          "blockNumber": "0x916fef",
          "blockTimestamp": "0x6904eaf8",
          "transactionHash": "0x7a5de7e8b791c83d6011e8206236652b08cc69fa20858e396f5b641cd6c6f298",
          "transactionIndex": "0x49",
          "logIndex": "0x99",
          "removed": false
        }
      ],
      "logsBloom": "0x00000000000000000000000000008000000000000000000000000000000000000000000000000000000000000000000000000000000000000000000000000000000000000000004000000008000000000000000000000000000000000000000000000000020040000000000000000800000000000000000000000010000000000000000000080040000000000004400010000000000000000000000000000000000010000000000000000000000000000000000000000000000000000000000000000002000000000000000000000000000000000000000000000000000020000000000000000000000000000000000000000000000000000000000000000000",
      "type": "0x0",
      "transactionHash": "0x7a5de7e8b791c83d6011e8206236652b08cc69fa20858e396f5b641cd6c6f298",
      "transactionIndex": "0x49",
      "blockHash": "0x8dedc115a5efd69bb0b64ba1375b0a2f4712837693290473cb5ae30ce7da054d",
      "blockNumber": "0x916fef",
      "gasUsed": "0x19a1c",
      "effectiveGasPrice": "0xf4249",
      "from": "0xad9fdad276ab1a430fd03177a07350cd7c61e897",
      "to": "0xfcb43bd05c71c52dbec18814957fd19ab332db4d",
      "contractAddress": null
    },
    {
      "status": "0x1",
      "cumulativeGasUsed": "0xf20ba8",
      "logs": [
        {
          "address": "0xfcb43bd05c71c52dbec18814957fd19ab332db4d",
          "topics": [
            "0xddf252ad1be2c89b69c2b068fc378daa952ba7f163c4a11628f55a4df523b3ef",
            "0x0000000000000000000000000000000000000000000000000000000000000000",
            "0x000000000000000000000000ad9fdad276ab1a430fd03177a07350cd7c61e897",
            "0x000000000000000000000000000000000000000000000000000000000000002a"
          ],
          "data": "0x",
          "blockHash": "0x8dedc115a5efd69bb0b64ba1375b0a2f4712837693290473cb5ae30ce7da054d",
          "blockNumber": "0x916fef",
          "blockTimestamp": "0x6904eaf8",
          "transactionHash": "0x0cf3a57f6e84b36c7f9982cc91b45b313ac4c14bdce27e784e48d2d311af577e",
          "transactionIndex": "0x4a",
          "logIndex": "0x9a",
          "removed": false
        }
      ],
      "logsBloom": "0x00000000000000000000000000000000000000000000000000000000000000000000000000004000000000000000000000000000000000000000000000000000000000000000004000000008000000000000000000000000000000000000000000000000020000000000000000000800000000000000000000000010000000000000000000080040000000000004400000000000000000000000000000000000000010000000000000000000000000000000000000000000000000000000000000000002000000000000000000000000000000000000000000000000000020100000000000000000000000000020000000000000000000000000000000000000",
      "type": "0x0",
      "transactionHash": "0x0cf3a57f6e84b36c7f9982cc91b45b313ac4c14bdce27e784e48d2d311af577e",
      "transactionIndex": "0x4a",
      "blockHash": "0x8dedc115a5efd69bb0b64ba1375b0a2f4712837693290473cb5ae30ce7da054d",
      "blockNumber": "0x916fef",
      "gasUsed": "0x19a1c",
      "effectiveGasPrice": "0xf4249",
      "from": "0xad9fdad276ab1a430fd03177a07350cd7c61e897",
      "to": "0xfcb43bd05c71c52dbec18814957fd19ab332db4d",
      "contractAddress": null
    },
    {
      "status": "0x1",
      "cumulativeGasUsed": "0xf3a5c4",
      "logs": [
        {
          "address": "0xfcb43bd05c71c52dbec18814957fd19ab332db4d",
          "topics": [
            "0xddf252ad1be2c89b69c2b068fc378daa952ba7f163c4a11628f55a4df523b3ef",
            "0x0000000000000000000000000000000000000000000000000000000000000000",
            "0x000000000000000000000000ad9fdad276ab1a430fd03177a07350cd7c61e897",
            "0x000000000000000000000000000000000000000000000000000000000000002b"
          ],
          "data": "0x",
          "blockHash": "0x8dedc115a5efd69bb0b64ba1375b0a2f4712837693290473cb5ae30ce7da054d",
          "blockNumber": "0x916fef",
          "blockTimestamp": "0x6904eaf8",
          "transactionHash": "0xee0b2155f07c27a9679623d2d31793750a3adc54c049d95d8964b61a93076ab7",
          "transactionIndex": "0x4b",
          "logIndex": "0x9b",
          "removed": false
        }
      ],
      "logsBloom": "0x00000000000000000000000000000000000000000000000000000000000000000000000000000000000000000000000000000000000001000000000000000000000000000000004000800008000000000000000000000000000000000000000000000000020000000000000000000800000000000000000000000010000000000000000000080040000000000004400000000000000000000000000000000000000010000000000000000000000000000000000000000000000000000000000000000002000000100000000000000000000000000000000000000000000020000000000000000000000000000000000000000000000000000000000000000000",
      "type": "0x0",
      "transactionHash": "0xee0b2155f07c27a9679623d2d31793750a3adc54c049d95d8964b61a93076ab7",
      "transactionIndex": "0x4b",
      "blockHash": "0x8dedc115a5efd69bb0b64ba1375b0a2f4712837693290473cb5ae30ce7da054d",
      "blockNumber": "0x916fef",
      "gasUsed": "0x19a1c",
      "effectiveGasPrice": "0xf4249",
      "from": "0xad9fdad276ab1a430fd03177a07350cd7c61e897",
      "to": "0xfcb43bd05c71c52dbec18814957fd19ab332db4d",
      "contractAddress": null
    },
    {
      "status": "0x1",
      "cumulativeGasUsed": "0xf53fe0",
      "logs": [
        {
          "address": "0xfcb43bd05c71c52dbec18814957fd19ab332db4d",
          "topics": [
            "0xddf252ad1be2c89b69c2b068fc378daa952ba7f163c4a11628f55a4df523b3ef",
            "0x0000000000000000000000000000000000000000000000000000000000000000",
            "0x000000000000000000000000ad9fdad276ab1a430fd03177a07350cd7c61e897",
            "0x000000000000000000000000000000000000000000000000000000000000002c"
          ],
          "data": "0x",
          "blockHash": "0x8dedc115a5efd69bb0b64ba1375b0a2f4712837693290473cb5ae30ce7da054d",
          "blockNumber": "0x916fef",
          "blockTimestamp": "0x6904eaf8",
          "transactionHash": "0x505c78293f835de83446791ec2eb23d15f7636df60b4e50ae0c7173993a9577f",
          "transactionIndex": "0x4c",
          "logIndex": "0x9c",
          "removed": false
        }
      ],
      "logsBloom": "0x00000000000000000000000000000000000000000000000000000000000000000000000000000000000000000000000000000000000000000000000000000000000000000000004000000008000000000000000000000000000000000000000000000000020000000000000100000800000000000000000000000010004000000000000000080040000000000004400000000000000000000000000000000000000010000000000000000000000000000000000000000000000000000000000000000002000000000000000000000000000000000000000800000000000020000000000000000000000000000000000000000000000000000000000000000000",
      "type": "0x0",
      "transactionHash": "0x505c78293f835de83446791ec2eb23d15f7636df60b4e50ae0c7173993a9577f",
      "transactionIndex": "0x4c",
      "blockHash": "0x8dedc115a5efd69bb0b64ba1375b0a2f4712837693290473cb5ae30ce7da054d",
      "blockNumber": "0x916fef",
      "gasUsed": "0x19a1c",
      "effectiveGasPrice": "0xf4249",
      "from": "0xad9fdad276ab1a430fd03177a07350cd7c61e897",
      "to": "0xfcb43bd05c71c52dbec18814957fd19ab332db4d",
      "contractAddress": null
    },
    {
      "status": "0x1",
      "cumulativeGasUsed": "0xf6d9fc",
      "logs": [
        {
          "address": "0xfcb43bd05c71c52dbec18814957fd19ab332db4d",
          "topics": [
            "0xddf252ad1be2c89b69c2b068fc378daa952ba7f163c4a11628f55a4df523b3ef",
            "0x0000000000000000000000000000000000000000000000000000000000000000",
            "0x000000000000000000000000ad9fdad276ab1a430fd03177a07350cd7c61e897",
            "0x000000000000000000000000000000000000000000000000000000000000002d"
          ],
          "data": "0x",
          "blockHash": "0x8dedc115a5efd69bb0b64ba1375b0a2f4712837693290473cb5ae30ce7da054d",
          "blockNumber": "0x916fef",
          "blockTimestamp": "0x6904eaf8",
          "transactionHash": "0xb1d674eec67d1119e981a103502082ab35b5a0ef9c7aa7473f586f11f2361133",
          "transactionIndex": "0x4d",
          "logIndex": "0x9d",
          "removed": false
        }
      ],
      "logsBloom": "0x00000000000000000000000000000000000000000000000000000000000000000000000000000000000000000000000000000000000000000000000400000000000000000000004000000008000000000000000000000000000000000000000000000000020000000000000000000800000000000000000000000010000000000000000000080040000000000004400000000000000000000000000000000000000010000000000000000000000000000000000000000000000010000000000000000002000000000000000000000000000000000000000000000000400020000000000000000000000000000000000000000000000000000000000000000000",
      "type": "0x0",
      "transactionHash": "0xb1d674eec67d1119e981a103502082ab35b5a0ef9c7aa7473f586f11f2361133",
      "transactionIndex": "0x4d",
      "blockHash": "0x8dedc115a5efd69bb0b64ba1375b0a2f4712837693290473cb5ae30ce7da054d",
      "blockNumber": "0x916fef",
      "gasUsed": "0x19a1c",
      "effectiveGasPrice": "0xf4249",
      "from": "0xad9fdad276ab1a430fd03177a07350cd7c61e897",
      "to": "0xfcb43bd05c71c52dbec18814957fd19ab332db4d",
      "contractAddress": null
    },
    {
      "status": "0x1",
      "cumulativeGasUsed": "0xf87418",
      "logs": [
        {
          "address": "0xfcb43bd05c71c52dbec18814957fd19ab332db4d",
          "topics": [
            "0xddf252ad1be2c89b69c2b068fc378daa952ba7f163c4a11628f55a4df523b3ef",
            "0x0000000000000000000000000000000000000000000000000000000000000000",
            "0x000000000000000000000000ad9fdad276ab1a430fd03177a07350cd7c61e897",
            "0x000000000000000000000000000000000000000000000000000000000000002e"
          ],
          "data": "0x",
          "blockHash": "0x8dedc115a5efd69bb0b64ba1375b0a2f4712837693290473cb5ae30ce7da054d",
          "blockNumber": "0x916fef",
          "blockTimestamp": "0x6904eaf8",
          "transactionHash": "0x37f7c946157011a7cbe1125476f3c27d692df8d3a6019060126c9b2fdaaf3c9a",
          "transactionIndex": "0x4e",
          "logIndex": "0x9e",
          "removed": false
        }
      ],
      "logsBloom": "0x04000000000000000000000000000000000000000000000000000000000000000000000000000000000000000000000000001000000000000000000000000000000000000000004080000008000000000000000000000000000000000000000000000000020000000000000000000800000000000000000000000010000000000000000000080040000000000004400000000000000000000000000000000000000010000000000000000000000000000000000000000000000000000000000000000002000000000000000000000000000000000000000000000000000020000000000000000000000000000000000000000000000000000000000000000000",
      "type": "0x0",
      "transactionHash": "0x37f7c946157011a7cbe1125476f3c27d692df8d3a6019060126c9b2fdaaf3c9a",
      "transactionIndex": "0x4e",
      "blockHash": "0x8dedc115a5efd69bb0b64ba1375b0a2f4712837693290473cb5ae30ce7da054d",
      "blockNumber": "0x916fef",
      "gasUsed": "0x19a1c",
      "effectiveGasPrice": "0xf4249",
      "from": "0xad9fdad276ab1a430fd03177a07350cd7c61e897",
      "to": "0xfcb43bd05c71c52dbec18814957fd19ab332db4d",
      "contractAddress": null
    },
    {
      "status": "0x1",
      "cumulativeGasUsed": "0xfa0e34",
      "logs": [
        {
          "address": "0xfcb43bd05c71c52dbec18814957fd19ab332db4d",
          "topics": [
            "0xddf252ad1be2c89b69c2b068fc378daa952ba7f163c4a11628f55a4df523b3ef",
            "0x0000000000000000000000000000000000000000000000000000000000000000",
            "0x000000000000000000000000ad9fdad276ab1a430fd03177a07350cd7c61e897",
            "0x000000000000000000000000000000000000000000000000000000000000002f"
          ],
          "data": "0x",
          "blockHash": "0x8dedc115a5efd69bb0b64ba1375b0a2f4712837693290473cb5ae30ce7da054d",
          "blockNumber": "0x916fef",
          "blockTimestamp": "0x6904eaf8",
          "transactionHash": "0x6497c56f5c984a5cdf9b5774cffb22bea95e39f115503c9fbc7d1c81f718f99c",
          "transactionIndex": "0x4f",
          "logIndex": "0x9f",
          "removed": false
        }
      ],
      "logsBloom": "0x00000000000000000000000000000000000080000000000000000000000000000000000000000000000000000000000000000000000000000000000000000000000000000000004000000008000000000000000000000000000000000000000000000000020000000000000000000800000000000000000000000010000000000000000000080040000000000004400000000000000000000000000000000000000010000000000000000000000000000000000000000000000000000000000000000002000000000000000000000000000000000000000000000000000020000000000000000000000000000000000000000000000004000000000000080000",
      "type": "0x0",
      "transactionHash": "0x6497c56f5c984a5cdf9b5774cffb22bea95e39f115503c9fbc7d1c81f718f99c",
      "transactionIndex": "0x4f",
      "blockHash": "0x8dedc115a5efd69bb0b64ba1375b0a2f4712837693290473cb5ae30ce7da054d",
      "blockNumber": "0x916fef",
      "gasUsed": "0x19a1c",
      "effectiveGasPrice": "0xf4249",
      "from": "0xad9fdad276ab1a430fd03177a07350cd7c61e897",
      "to": "0xfcb43bd05c71c52dbec18814957fd19ab332db4d",
      "contractAddress": null
    },
    {
      "status": "0x1",
      "cumulativeGasUsed": "0xfba850",
      "logs": [
        {
          "address": "0xfcb43bd05c71c52dbec18814957fd19ab332db4d",
          "topics": [
            "0xddf252ad1be2c89b69c2b068fc378daa952ba7f163c4a11628f55a4df523b3ef",
            "0x0000000000000000000000000000000000000000000000000000000000000000",
            "0x000000000000000000000000ad9fdad276ab1a430fd03177a07350cd7c61e897",
            "0x0000000000000000000000000000000000000000000000000000000000000030"
          ],
          "data": "0x",
          "blockHash": "0x8dedc115a5efd69bb0b64ba1375b0a2f4712837693290473cb5ae30ce7da054d",
          "blockNumber": "0x916fef",
          "blockTimestamp": "0x6904eaf8",
          "transactionHash": "0xd79da01afd37c0160e7a41a6af6e2f79e2eac5faefebd521eea49d09ab02f2e7",
          "transactionIndex": "0x50",
          "logIndex": "0xa0",
          "removed": false
        }
      ],
      "logsBloom": "0x02000000000000000000000000000000000000000000000000000000000000000000000000000000000000000000000000000000000000000000000000000000000000000000004000000008000000000000000000000000000000000000000000000000020000000000000000000800000000000000000000000010000000000000000000080040000000000004400000000000000000000000000000000000000010000000000000000000000000000000000002000000000000000000000000000002000000000000000000000000000000000000000000000000000020000000000000000000000000000000000000000000000000000000000000000000",
      "type": "0x0",
      "transactionHash": "0xd79da01afd37c0160e7a41a6af6e2f79e2eac5faefebd521eea49d09ab02f2e7",
      "transactionIndex": "0x50",
      "blockHash": "0x8dedc115a5efd69bb0b64ba1375b0a2f4712837693290473cb5ae30ce7da054d",
      "blockNumber": "0x916fef",
      "gasUsed": "0x19a1c",
      "effectiveGasPrice": "0xf4249",
      "from": "0xad9fdad276ab1a430fd03177a07350cd7c61e897",
      "to": "0xfcb43bd05c71c52dbec18814957fd19ab332db4d",
      "contractAddress": null
    },
    {
      "status": "0x1",
      "cumulativeGasUsed": "0xfd426c",
      "logs": [
        {
          "address": "0xfcb43bd05c71c52dbec18814957fd19ab332db4d",
          "topics": [
            "0xddf252ad1be2c89b69c2b068fc378daa952ba7f163c4a11628f55a4df523b3ef",
            "0x0000000000000000000000000000000000000000000000000000000000000000",
            "0x000000000000000000000000ad9fdad276ab1a430fd03177a07350cd7c61e897",
            "0x0000000000000000000000000000000000000000000000000000000000000031"
          ],
          "data": "0x",
          "blockHash": "0x8dedc115a5efd69bb0b64ba1375b0a2f4712837693290473cb5ae30ce7da054d",
          "blockNumber": "0x916fef",
          "blockTimestamp": "0x6904eaf8",
          "transactionHash": "0xc20c047840e7b71c6cd5e715671821e4075c4f376f2b36d94a24f69497f7cba1",
          "transactionIndex": "0x51",
          "logIndex": "0xa1",
          "removed": false
        }
      ],
      "logsBloom": "0x00000000000000000000000000000000000000000000000000000000000000000000000000000000000000000000000000000000000000000000000000000000040000000000004000000008000000000000000000000001000000000000000000000000020000000000000000000800000040000000000000000010000000000000000000080040000000000004400000000000000000000000000000000000000010000000000000000000000000000000000000000000000000000000000000000002000000000000000000000000000000000000000000000000000020000000000000000000000000000000000000000000000000000000000000000000",
      "type": "0x0",
      "transactionHash": "0xc20c047840e7b71c6cd5e715671821e4075c4f376f2b36d94a24f69497f7cba1",
      "transactionIndex": "0x51",
      "blockHash": "0x8dedc115a5efd69bb0b64ba1375b0a2f4712837693290473cb5ae30ce7da054d",
      "blockNumber": "0x916fef",
      "gasUsed": "0x19a1c",
      "effectiveGasPrice": "0xf4249",
      "from": "0xad9fdad276ab1a430fd03177a07350cd7c61e897",
      "to": "0xfcb43bd05c71c52dbec18814957fd19ab332db4d",
      "contractAddress": null
    },
    {
      "status": "0x1",
      "cumulativeGasUsed": "0xfedc88",
      "logs": [
        {
          "address": "0xfcb43bd05c71c52dbec18814957fd19ab332db4d",
          "topics": [
            "0xddf252ad1be2c89b69c2b068fc378daa952ba7f163c4a11628f55a4df523b3ef",
            "0x0000000000000000000000000000000000000000000000000000000000000000",
            "0x000000000000000000000000ad9fdad276ab1a430fd03177a07350cd7c61e897",
            "0x0000000000000000000000000000000000000000000000000000000000000032"
          ],
          "data": "0x",
          "blockHash": "0x8dedc115a5efd69bb0b64ba1375b0a2f4712837693290473cb5ae30ce7da054d",
          "blockNumber": "0x916fef",
          "blockTimestamp": "0x6904eaf8",
          "transactionHash": "0x83904d02938b1ae6e834fb55c773635331760b402d96353b0df2269bf19f0a87",
          "transactionIndex": "0x52",
          "logIndex": "0xa2",
          "removed": false
        }
      ],
      "logsBloom": "0x00000000000000000000000000000000000000000000000000000000000000000002000000000000000000000000000000000000000000000000000000000000000000000000004000000008000000000000000000000000000000000000000000000000020000000000000000000800000000000000000000000010000000000000000000080040000000000004400000000000000000000000000000000000000010000000000000000000000000000000000000000000000000000000000000000002800000000000000000000000000000000000000000000000000820000000000000000000000000000000000000000000000000000000000000000000",
      "type": "0x0",
      "transactionHash": "0x83904d02938b1ae6e834fb55c773635331760b402d96353b0df2269bf19f0a87",
      "transactionIndex": "0x52",
      "blockHash": "0x8dedc115a5efd69bb0b64ba1375b0a2f4712837693290473cb5ae30ce7da054d",
      "blockNumber": "0x916fef",
      "gasUsed": "0x19a1c",
      "effectiveGasPrice": "0xf4249",
      "from": "0xad9fdad276ab1a430fd03177a07350cd7c61e897",
      "to": "0xfcb43bd05c71c52dbec18814957fd19ab332db4d",
      "contractAddress": null
    }
  ],
  "libraries": [],
  "pending": [],
  "returns": {},
  "timestamp": 1761929978298,
  "chain": 11155111,
  "commit": "c03d2ed"
}