{
  "transactions": [
    {
      "hash": "0x830758df4cf3050f7dbc7aeaca93fd2c9d20a9b102abd514237b8b434b9b3bcf",
      "transactionType": "CALL",
      "contractName": null,
      "contractAddress": "0x90ea1d07c0d4c6bb73e94444554b0217a0fabf7d",
      "function": "setTrustedPeer(uint32,bytes32)",
      "arguments": [
        "40245",
        "0x00000000000000000000000039b391df153c252e9486e7e3990b1c74289f9950"
      ],
      "transaction": {
        "from": "0xad9fdad276ab1a430fd03177a07350cd7c61e897",
        "to": "0x90ea1d07c0d4c6bb73e94444554b0217a0fabf7d",
        "gas": "0xae39",
        "value": "0x0",
        "input": "0x53267dd30000000000000000000000000000000000000000000000000000000000009d3500000000000000000000000039b391df153c252e9486e7e3990b1c74289f9950",
        "nonce": "0x263",
        "chainId": "0xaa36a7"
      },
      "additionalContracts": [],
      "isFixedGasLimit": false
    }
  ],
  "receipts": [
    {
      "status": "0x1",
      "cumulativeGasUsed": "0xa29edc",
      "logs": [
        {
          "address": "0x90ea1d07c0d4c6bb73e94444554b0217a0fabf7d",
          "topics": [
            "0x096f300665a57908ac1627e5a821ea670d2a90da7c601a19bf265f8553453f28",
            "0x0000000000000000000000000000000000000000000000000000000000009d35"
          ],
          "data": "0x00000000000000000000000039b391df153c252e9486e7e3990b1c74289f9950",
          "blockHash": "0x5928cb822f0cd44aed87fee7f01392b2d83267b99fdca2883773b3945c7348ee",
          "blockNumber": "0x911f45",
          "blockTimestamp": "0x69012090",
          "transactionHash": "0x830758df4cf3050f7dbc7aeaca93fd2c9d20a9b102abd514237b8b434b9b3bcf",
          "transactionIndex": "0x37",
          "logIndex": "0x61",
          "removed": false
        }
      ],
      "logsBloom": "0x00000000000000000000000000000000000000000000000000000000400000000000008000000000000000000000000000000000000000000000000000000000000000400000000000000000000000000000000000000001080000000000000000000000000000000000000000000200000000000000000000000000000000000000000000000000000000000000000000000000000004000000000000000000000000000000000002000000000000000000000000000000000000000000000000000000000000000000000000000000000000000000000000000000000000000000000000000000000000000000000000000000000000100000000000000000",
      "type": "0x2",
      "transactionHash": "0x830758df4cf3050f7dbc7aeaca93fd2c9d20a9b102abd514237b8b434b9b3bcf",
      "transactionIndex": "0x37",
      "blockHash": "0x5928cb822f0cd44aed87fee7f01392b2d83267b99fdca2883773b3945c7348ee",
      "blockNumber": "0x911f45",
      "gasUsed": "0x7721",
      "effectiveGasPrice": "0xf424a",
      "from": "0xad9fdad276ab1a430fd03177a07350cd7c61e897",
      "to": "0x90ea1d07c0d4c6bb73e94444554b0217a0fabf7d",
      "contractAddress": null
    }
  ],
  "libraries": [],
  "pending": [],
  "returns": {},
  "timestamp": 1761681553661,
  "chain": 11155111,
  "commit": "c03d2ed"
}