{
  "transactions": [
    {
      "hash": "0xf7d0af9ce8e236109f11687eadc0ebce0424c48f8e2b268f2a4db37eed46cac1",
      "transactionType": "CALL",
      "contractName": null,
      "contractAddress": "0x39b391df153c252e9486e7e3990b1c74289f9950",
      "function": "checkpoint(uint256[])",
      "arguments": [
        "[1, 8, 9]"
      ],
      "transaction": {
        "from": "0xad9fdad276ab1a430fd03177a07350cd7c61e897",
        "to": "0x39b391df153c252e9486e7e3990b1c74289f9950",
        "gas": "0x6f4ca",
        "value": "0x2e7b07146498",
        "input": "0x2de8e71300000000000000000000000000000000000000000000000000000000000000200000000000000000000000000000000000000000000000000000000000000003000000000000000000000000000000000000000000000000000000000000000100000000000000000000000000000000000000000000000000000000000000080000000000000000000000000000000000000000000000000000000000000009",
        "nonce": "0x44",
        "chainId": "0x14a34"
      },
      "additionalContracts": [],
      "isFixedGasLimit": false
    }
  ],
  "receipts": [
    {
      "status": "0x1",
      "cumulativeGasUsed": "0xd47b0",
      "logs": [
        {
          "address": "0x39b391df153c252e9486e7e3990b1c74289f9950",
          "topics": [
            "0x40fa5fb03cc9a3cd5cf011c030fc85b2b113ca9511acc91c364c9c11a9aa9b6a"
          ],
          "data": "0x000000000000000000000000000000000000000000000000000000000000000100000000000000000000000000000000000000000000000000000000000002a80000000000000000000000000000000000000000000000000000000000000060000000000000000000000000000000000000000000000000000000000000000b424153455f455243373231000000000000000000000000000000000000000000",
          "blockHash": "0x2e72ae772f31010929b832f9e88e06aca7daba3fcdb40dd2212606db74c81f90",
          "blockNumber": "0x1f6e3c4",
          "blockTimestamp": "0x69012668",
          "transactionHash": "0xf7d0af9ce8e236109f11687eadc0ebce0424c48f8e2b268f2a4db37eed46cac1",
          "transactionIndex": "0x6",
          "logIndex": "0x8",
          "removed": false
        },
        {
          "address": "0x39b391df153c252e9486e7e3990b1c74289f9950",
          "topics": [
            "0x40fa5fb03cc9a3cd5cf011c030fc85b2b113ca9511acc91c364c9c11a9aa9b6a"
          ],
          "data": "0x00000000000000000000000000000000000000000000000000000000000000080000000000000000000000000000000000000000000000000000000000006a400000000000000000000000000000000000000000000000000000000000000060000000000000000000000000000000000000000000000000000000000000000c424153455f455243313135350000000000000000000000000000000000000000",
          "blockHash": "0x2e72ae772f31010929b832f9e88e06aca7daba3fcdb40dd2212606db74c81f90",
          "blockNumber": "0x1f6e3c4",
          "blockTimestamp": "0x69012668",
          "transactionHash": "0xf7d0af9ce8e236109f11687eadc0ebce0424c48f8e2b268f2a4db37eed46cac1",
          "transactionIndex": "0x6",
          "logIndex": "0x9",
          "removed": false
        },
        {
          "address": "0x39b391df153c252e9486e7e3990b1c74289f9950",
          "topics": [
            "0x40fa5fb03cc9a3cd5cf011c030fc85b2b113ca9511acc91c364c9c11a9aa9b6a"
          ],
          "data": "0x000000000000000000000000000000000000000000000000000000000000000900000000000000000000000000000000000000000000000000000000000002a80000000000000000000000000000000000000000000000000000000000000060000000000000000000000000000000000000000000000000000000000000000a424153455f455243323000000000000000000000000000000000000000000000",
          "blockHash": "0x2e72ae772f31010929b832f9e88e06aca7daba3fcdb40dd2212606db74c81f90",
          "blockNumber": "0x1f6e3c4",
          "blockTimestamp": "0x69012668",
          "transactionHash": "0xf7d0af9ce8e236109f11687eadc0ebce0424c48f8e2b268f2a4db37eed46cac1",
          "transactionIndex": "0x6",
          "logIndex": "0xa",
          "removed": false
        },
        {
          "address": "0xc1868e054425d378095a003ecba3823a5d0135c9",
          "topics": [
            "0x61ed099e74a97a1d7f8bb0952a88ca8b7b8ebd00c126ea04671f92a81213318a"
          ],
          "data": "0x0000000000000000000000008a3d588d9f6ac041476b094f97ff94ec30169d3d00000000000000000000000000000000000000000000000000002c3291c4ed8a",
          "blockHash": "0x2e72ae772f31010929b832f9e88e06aca7daba3fcdb40dd2212606db74c81f90",
          "blockNumber": "0x1f6e3c4",
          "blockTimestamp": "0x69012668",
          "transactionHash": "0xf7d0af9ce8e236109f11687eadc0ebce0424c48f8e2b268f2a4db37eed46cac1",
          "transactionIndex": "0x6",
          "logIndex": "0xb",
          "removed": false
        },
        {
          "address": "0xc1868e054425d378095a003ecba3823a5d0135c9",
          "topics": [
            "0x07ea52d82345d6e838192107d8fd7123d9c2ec8e916cd0aad13fd2b60db24644"
          ],
          "data": "0x000000000000000000000000000000000000000000000000000000000000006000000000000000000000000000000000000000000000000000000000000000a000000000000000000000000000000000000000000000000000000000000000c00000000000000000000000000000000000000000000000000000000000000001000000000000000000000000e1a12515f9ab2764b887bf60b923ca494ebbb2d60000000000000000000000000000000000000000000000000000000000000000000000000000000000000000000000000000000000000000000000000000000100000000000000000000000000000000000000000000000000000248754f770e",
          "blockHash": "0x2e72ae772f31010929b832f9e88e06aca7daba3fcdb40dd2212606db74c81f90",
          "blockNumber": "0x1f6e3c4",
          "blockTimestamp": "0x69012668",
          "transactionHash": "0xf7d0af9ce8e236109f11687eadc0ebce0424c48f8e2b268f2a4db37eed46cac1",
          "transactionIndex": "0x6",
          "logIndex": "0xc",
          "removed": false
        },
        {
          "address": "0x6edce65403992e310a62460808c4b910d972f10f",
          "topics": [
            "0x1ab700d4ced0c005b164c0f789fd09fcbb0156d4c2041b8a3bfbcd961cd1567f"
          ],
          "data": "0x000000000000000000000000000000000000000000000000000000000000006000000000000000000000000000000000000000000000000000000000000003a0000000000000000000000000c1868e054425d378095a003ecba3823a5d0135c9000000000000000000000000000000000000000000000000000000000000031101000000000000000100009d3500000000000000000000000039b391df153c252e9486e7e3990b1c74289f995000009ce100000000000000000000000090ea1d07c0d4c6bb73e94444554b0217a0fabf7d67425076aa1f0f17f06dd6a2b4c44de7263d1f6d1feae0358fc6226b7975726e000000000000000000000000000000000000000000000000000000000000006000000000000000000000000000000000000000000000000000000000000000e000000000000000000000000000000000000000000000000000000000000001600000000000000000000000000000000000000000000000000000000000000003000000000000000000000000000000000000000000000000000000000000000100000000000000000000000000000000000000000000000000000000000000080000000000000000000000000000000000000000000000000000000000000009000000000000000000000000000000000000000000000000000000000000000300000000000000000000000000000000000000000000000000000000000002a80000000000000000000000000000000000000000000000000000000000006a4000000000000000000000000000000000000000000000000000000000000002a80000000000000000000000000000000000000000000000000000000000000003000000000000000000000000000000000000000000000000000000000000006000000000000000000000000000000000000000000000000000000000000000a000000000000000000000000000000000000000000000000000000000000000e0000000000000000000000000000000000000000000000000000000000000000b424153455f455243373231000000000000000000000000000000000000000000000000000000000000000000000000000000000000000000000000000000000c424153455f455243313135350000000000000000000000000000000000000000000000000000000000000000000000000000000000000000000000000000000a424153455f4552433230000000000000000000000000000000000000000000000000000000000000000000000000000000000000000000000000000000000000000000000000000000000000000022000100000000000000000000000000000000000000000000000000000000000493e0000000000000000000000000000000000000000000000000000000000000",
          "blockHash": "0x2e72ae772f31010929b832f9e88e06aca7daba3fcdb40dd2212606db74c81f90",
          "blockNumber": "0x1f6e3c4",
          "blockTimestamp": "0x69012668",
          "transactionHash": "0xf7d0af9ce8e236109f11687eadc0ebce0424c48f8e2b268f2a4db37eed46cac1",
          "transactionIndex": "0x6",
          "logIndex": "0xd",
          "removed": false
        },
        {
          "address": "0x39b391df153c252e9486e7e3990b1c74289f9950",
          "topics": [
            "0x48be76013b2f03ab5dec9584ceb7ce9ad69124ff000a4b5674379e8ea5aa8cd4"
          ],
          "data": "0x00000000000000000000000000000000000000000000000000000000000000030000000000000000000000000000000000000000000000000000000000006f9000000000000000000000000000000000000000000000000000000000000000c067425076aa1f0f17f06dd6a2b4c44de7263d1f6d1feae0358fc6226b7975726e000000000000000000000000000000000000000000000000000000000000000100000000000000000000000000000000000000000000000000002e7b0714649800000000000000000000000000000000000000000000000000000000000002a0000000000000000000000000000000000000000000000000000000000000006000000000000000000000000000000000000000000000000000000000000000e000000000000000000000000000000000000000000000000000000000000001600000000000000000000000000000000000000000000000000000000000000003000000000000000000000000000000000000000000000000000000000000000100000000000000000000000000000000000000000000000000000000000000080000000000000000000000000000000000000000000000000000000000000009000000000000000000000000000000000000000000000000000000000000000300000000000000000000000000000000000000000000000000000000000002a80000000000000000000000000000000000000000000000000000000000006a4000000000000000000000000000000000000000000000000000000000000002a80000000000000000000000000000000000000000000000000000000000000003000000000000000000000000000000000000000000000000000000000000006000000000000000000000000000000000000000000000000000000000000000a000000000000000000000000000000000000000000000000000000000000000e0000000000000000000000000000000000000000000000000000000000000000b424153455f455243373231000000000000000000000000000000000000000000000000000000000000000000000000000000000000000000000000000000000c424153455f455243313135350000000000000000000000000000000000000000000000000000000000000000000000000000000000000000000000000000000a424153455f455243323000000000000000000000000000000000000000000000",
          "blockHash": "0x2e72ae772f31010929b832f9e88e06aca7daba3fcdb40dd2212606db74c81f90",
          "blockNumber": "0x1f6e3c4",
          "blockTimestamp": "0x69012668",
          "transactionHash": "0xf7d0af9ce8e236109f11687eadc0ebce0424c48f8e2b268f2a4db37eed46cac1",
          "transactionIndex": "0x6",
          "logIndex": "0xe",
          "removed": false
        }
      ],
      "logsBloom": "0x00000000000000000000000000000000000000000000000000000000000000000000000000000200200000000000000000000000000000000000000000000000100000000000000000000000000000000000000000000000000000020000000000000000080000008200000000000000000000000000000000000000000000000802000000000020000000080000000000000000000000000000000000000000000000008000000000100000000000000000010000400000000440108000000080000000000000000000000000000000020000000000000000000000000000000000040000000000000000000000002000000000000000040000000000000000",
      "type": "0x2",
      "transactionHash": "0xf7d0af9ce8e236109f11687eadc0ebce0424c48f8e2b268f2a4db37eed46cac1",
      "transactionIndex": "0x6",
      "blockHash": "0x2e72ae772f31010929b832f9e88e06aca7daba3fcdb40dd2212606db74c81f90",
      "blockNumber": "0x1f6e3c4",
      "gasUsed": "0x4c1a3",
      "effectiveGasPrice": "0xf427f",
      "from": "0xad9fdad276ab1a430fd03177a07350cd7c61e897",
      "to": "0x39b391df153c252e9486e7e3990b1c74289f9950",
      "contractAddress": null,
      "l1BaseFeeScalar": "0x44d",
      "l1BlobBaseFee": "0x2f7",
      "l1BlobBaseFeeScalar": "0xa118b",
      "l1Fee": "0x20719",
      "l1GasPrice": "0xa",
      "l1GasUsed": "0x640"
    }
  ],
  "libraries": [],
  "pending": [],
  "returns": {},
  "timestamp": 1761683046078,
  "chain": 84532,
  "commit": "c03d2ed"
}